:020000040800F2
:100000000050002051760108ED7601087D080108B6
:10001000ED760108ED760108ED760108000000009C
:10002000000000000000000000000000ED76010864
:10003000ED76010800000000ED7601089D440108FE
:10004000ED760108ED760108ED760108ED76010800
:10005000ED760108ED76010899830008A383000876
:10006000A18300089F8300089D83000879F700089A
:1000700069F7000859F7000849F7000839F7000840
:1000800025F7000811F70008ED760108ED76010864
:10009000ED760108ED760108ED7601089B830008F6
:1000A000ED760108D1410108ED760108C141010852
:1000B000B5410108A54101089541010861FA000810
:1000C00065FA000859FA00085DFA0008ED760108A3
:1000D000ED760108CDEB0008C5EB0008BDEB00088C
:1000E00097830008ED760108ED7601080000000016
:1000F0000000000000000000000000000000000000
:0C01000000000000000000005FF808F1A3
:100110002DE9F04F604A614BA1B01A60604B00229C
:100120001A600DF055FB18B90DF05EFF08F022FAC9
:100130000DF070FB5B4A5C4E137843F001031370C3
:10014000002309930A930B934FF4E0130C93336845
:1001500043F480333360B36943F01003B361336811
:1001600003F400330A93099B013309930A9B1BB9DB
:10017000099BB3F5A06FF2D133684B4913F40033F8
:1001800001D0022315E00A6842F001020A600993D7
:10019000336803F002030A93099B013309930A9B16
:1001A0001BB9099BB3F5A06FF2D133689D0739D510
:1001B00001230B933D4B3E4F1A6842F010021A6028
:1001C0001A6822F003021A601A6842F002021A60EA
:1001D0007368736073687360736843F480637360FB
:1001E000344B1A68043B22F070425A60324A3A603B
:1001F000726822F47C1272605A6842F000425A60BF
:10020000DA6822F40042DA609B681C0449BF2B4B79
:100210004FF4E0133B604FF480130C930B9B012BC6
:1002200001D108E0FEE7022B09D10C9A7368134351
:1002300043F4803302E0736843F4601373603368FF
:1002400043F0807333603268174B9001FBD55A68D6
:1002500022F003025A605A6842F002025A60736840
:10026000114A03F00C03082BF9D15368144C03F026
:100270000C03042B03D0082B03D00F4B2BE03B685F
:1002800029E053685168C3F38343C90303F10203B0
:100290001AD40C4A1EE000BFC5D70008EC15002098
:1002A000F0150020A0230020001002400020024092
:1002B000800000200410014000127A00001BB700EB
:1002C0004004002000093D00526812F4003F3A68E3
:1002D00018BF5208534323607368BB4AC3F3031328
:1002E00013449A782368DFF858B3D3404FF6FF726F
:1002F0002360B64BDFF83CA3CBF80C30B3690DF1AB
:10030000800943F00103B361736A0025CAF8003025
:100310000393736A0DF1800843F080737362B369CD
:1003200043F01C03B36129F82C2D02F1804202F640
:1003300001021046494602928DF856500FF0ADF971
:100340004946A3480FF0A9F94946A2480FF0A5F97C
:1003500010218DF83A100221029A8DF83B104FF4CB
:10036000007128F8481D1046116141460FF095F9BB
:10037000994948464A6842F000724A6009F0C6FB53
:10038000964A159B2946B3FBF2F3954A0AF10400FD
:100390001360182219F064FF23684FF47A72B3FBDC
:1003A000F2F3904A013B5360F0238BF82330294647
:1003B0009560554607238C48DFF888E213604FF0BC
:1003C000010C8A0202F180423EF8114002F58432AB
:1003D000002344FA03FA1AF0010F18BF0CFA03FACB
:1003E00003F101031EBF0260A0F804A00C30102B23
:1003F000EFD101310329E4D17C4C7D4B94F8EB2102
:100400001A703B687B4A934201D1012203E07A4A89
:10041000934202D10222794B1A70A368784F0021CF
:1004200008463B6007F09CFF0021012007F098FF81
:100430000297744F00234FF0170A4FF0020B57F842
:100440002300013348B1037280F806A080F807B09A
:100450001221049307F092FD049B032BEFD100219E
:10046000084607F07DFF0021012007F079FFB369FE
:10047000402243F00103B3610021634819F0F0FE0C
:10048000624B4FF0FF321A60C3F80320029B1B68D7
:100490001A0715D594F84032012B11D8039A534B03
:1004A00012F0805693F8423200F06D8608E093F81F
:1004B0004322012A04D1002283F8422208F014F9D1
:1004C000642013F09DFFA0220021514819F0C8FEBE
:1004D000504F0026A7F11409F15900234E48DA00C5
:1004E00050F83300814204D109EB020393F8C000B5
:1004F00003E00133042BF1D100200C3614F03CFB57
:10050000A82EE9D1029B454A1F68454BDFF838A168
:100510001A60052600213C2242488AF8006019F042
:100520009FFE002318463146DFF820E13D4E07F0DC
:1005300040094FF0FF0C1EF9012F03EB060B9A55F3
:10054000B9F1000F09D11E3AD2B2012A9FBF01F1C1
:10055000FF318BF800C0C9B201200C333C2BEAD12B
:1005600008B18AF8001061792F4B30481970304B70
:10057000304AEB61D6330360BB0656BF2E4B0123D6
:1005800003EBC10340F2DC5158BF5B7813622B4A86
:10059000002322F813100133082BFAD11C2200216A
:1005A000404619F05DFEBE0563D517F4015F05D125
:1005B000380594F822324BD5012B49D1282385F8F0
:1005C0002430292348E000BF88A301080005FA056C
:1005D000000C0140001001400000014040420F00AB
:1005E0004430002010E000E0942B0020B4300020C4
:1005F0000212002000127A00001BB700A92300207D
:100600007C12002080A90108D80E0020FC0F0020D9
:10061000EC2E00209CA3010844A4010858330020BC
:100620002025002024250020180B00200830002061
:10063000C4300020E8040020B4A90108400C0020C8
:1006400000ED00E08CA901082C150020EFB1010895
:10065000202385F82430212385F8253001238DF8C7
:10066000443095F824308DF8523095F825308DF8C7
:10067000533063790E2B03D003F0EF03082B01D125
:10068000012300E0002301208DF84C300CF0CEF95E
:1006900018B14088003018BF0120029B00F0010013
:1006A0001B688DF83D00C3F340028DF84020C3F372
:1006B00080128DF84220C3F340328DF83820C3F306
:1006C000C0328DF83B2013F4006204D094F822224B
:1006D000511E4A424A418DF83C20C3F300428DF836
:1006E0004320C3F3C0028DF83A202A6A03F00107C1
:1006F000003218BF01228DF84520C3F300528DF857
:100700004620B4F8D6208DF83970ADF84A20B4F8F8
:10071000E22003F00806ADF8482094F8E52042B93D
:10072000B44A92F8E42012F0FB0F0CBF0122002221
:1007300000E0012294F8E410049211F0FB0F14BFC2
:10074000012000208DF841008DF84D1012B1A94A0A
:10075000B2F8E020DB0448BFA64BADF84E2048BFFE
:10076000B3F8DC30B4F8D420ADF8502048BFADF871
:100770005030042906D14FF4805007F0D3FE0023F7
:10078000ADF8503094F88C229B4B00211A709B4896
:10079000642219F065FD9DF84C30002B14BF022334
:1007A000002307B906B10133954ADFF8848202EBD2
:1007B0008303D3F8DC304FF00009991E1A330593F8
:1007C00002F1140303910693039B33F8022F039362
:1007D0004FF6FF739A4200F0A3819DF83D10D3B20B
:1007E000120AD7B219B1991E012940F294819DF8DD
:1007F000421041B182480C2101FB03014869814943
:10080000884200F088819DF8431041B17C4C0C2057
:1008100000FB034044697B48844200F07C819DF8E2
:10082000400038B1764C0C2000FB0340007E1428B9
:1008300000F071819DF8440070B1714C0C2000FBF8
:1008400003409DF85240007E844200F064819DF890
:100850005340844200F05F81022A02D19DF8382083
:1008600003E0012A04D19DF83920002A00F05381C9
:100870009DF845207AB19DF84C2062B9A3F1080299
:10088000012A08D85E480C2202FB030250695E4A26
:10089000904208BF0427069A0C2505FB03259DF806
:1008A00046205AB19DF84C2042B919B1A3F10C026F
:1008B000012A01E01A1F032A40F20E81012F3BD1C9
:1008C000524A0026FF21167056609660D660166464
:1008D00082F8441082F8451082F8466082F847603A
:1008E00082F84860464A0C2404FB032488F82860F8
:1008F000207EC8F8345007F01BFB02228271C771BA
:100900000672217F07F03AFB3246617E60690EF085
:1009100047FD3A463146284613F00AFD3C4B3D4A16
:10092000C8F838303C4BC8F84060C8F83C30111F5C
:10093000284613F04FFCEEE0022F3FD15FFA89F218
:100940002F491C2656430C2404FB031408EB06070E
:100950004FF0010B4FF0000A87F82920207E87F81E
:100960002AA087F832A087F828B07D63079207F0A5
:10097000DFFA079A80F806B002EB0B03037280F8E7
:1009800007B0217F07F0FAFA5246617E60690EF0E7
:1009900007FD5A465146284613F0CAFC1F4B06F184
:1009A0001001BB631E4BC7F840A0FB631D4B2846DC
:1009B00019440A1D13F00EFCD944ACE0032F40F09B
:1009C00089809DF841300D4CBDF84E209DF84D10AA
:1009D000002B4DD0022994F801A0BDF8503029D049
:1009E00003291149114E0EBF4FF0480E0E464FF02D
:1009F000080E22E0B4300020B4210020540C002066
:100A000088A3010800040040002C0140880E00204B
:100A1000157C000824050020717D0008D57D0008A4
:100A2000ED7B000810050020917E0008317E000853
:100A3000E8040020B24E4FF0180E5FFA8EF1B14F6D
:100A400032B1B14800FB0EF0B0FBF2F292B202E01C
:100A500013464FF6FF72284607F0F6FA47F82A00C9
:100A600057F82A301922DE60A37804EBC30327E08D
:100A70000429667811D1A5492846B1FBF2F2182164
:100A800092B207F0E1FA9F4B0D2243F82600A04BEB
:100A9000C360A37804EBC30312E09B4B0121B3FBBB
:100AA000F2F22846BDF8503092B207F0CDFA954BDD
:100AB000092243F82600974BC360A37804EBC303D5
:100AC0005A71A378627804EBC3010A7101328D6018
:100AD00062701EE0042F1ED18F4CBDF84820A37811
:100AE000267804EBC3031E71874B012193FBF2F2BE
:100AF0002846BDF84A3092B207F0A6FA874B0A2181
:100B000043F82600A37804EBC30251712278013226
:100B100022700133A370039B059A93427FF454AE75
:100B2000049B7F4E83F001027E4B00241A707E4BA3
:100B300034701D78A5F11703022B1ED8DFF8ECA145
:100B4000DFF82092DAF81C300021185903EB040872
:100B500016F014FB20B1754B1A6A06935ABB25E0B8
:100B600004EB090798E80F0087E80F00337810348A
:100B70000133C02C3370E5D1EDE76D4B13F835E050
:100B800003EBC503D3F804C086F800E0BCF1000F06
:100B9000E1D0DFF8D0817445DDDA230103EB0807EB
:100BA00063440FCB013487E80F00F4E7029B1B6816
:100BB000DF0425D41EE05F4B5F4A13F8350003EBDA
:100BC000C5035C681070002CF0D05C4F002383429A
:100BD000ECDAC3EBC3016218D2F800C001EB070ED8
:100BE00041F807C091880133AEF8041092798EF86D
:100BF0000620ECE705F0EF03082B514B24D125E04C
:100C00003378012BF6D94F4C04EB031303F1100694
:100C10001034A642EED04FF07C5154F8100C16F070
:100C200019F94FF07C5144F8100C54F8140C16F0DC
:100C300011F94FF07C5144F8140C54F80C0C16F0D8
:100C400009F944F80C0CE3E70E2D08D11A78182D99
:100C500042F010021A7008D113F0A0F905E01A78DA
:100C6000192D22F010021A70F5E713F079F9364ABF
:100C7000364D13781C2043F0040313702B78012B9E
:100C80008BBF012600260024012407F051F9304AC9
:100C90001060304A167058B1112282710222C2715E
:100CA0000022944202720CBF1221162107F066F94D
:100CB00000200EF037F9222007F03AF91522264CD1
:100CC000827101260222C27106721221206007F091
:100CD00055F92068214C002107F038FB207E13F0E5
:100CE0004BFF237E03F01F025B09022B06FA02F67C
:100CF0003AD0032B3CD11A4A13691E43166137E0E0
:100D0000657E0008A02E002040420F0000366E01D4
:100D1000B17D0008A17D0008540C0020180F0020B0
:100D20006B130020E82E0020180B0020E8040020A0
:100D3000B4A901083CB00108942F0020952F002091
:100D4000790E0020580A0020A0230020A9230020AB
:100D5000B01A0020B41A0020AC1A00205004002061
:100D600000100240500A0020924AD3681E43D66009
:100D7000607D07F0DDF80C260B230227C371867116
:100D80000772E07D07F0D4F80D23C37186710772F6
:100D9000A07D07F0CDF88671C6710772607D07F0FF
:100DA000C7F81B2107F0EAF8E07D07F0C1F807213A
:100DB00007F0E4F8A07D07F0BBF81B2107F0DEF890
:100DC000207D20B107F0B4F8132107F0D7F821698E
:100DD000794B99420AD103F56043DA6842F48052B4
:100DE000DA60DA6822F48052DA6019E0734B9942D3
:100DF00009D103F5EC331A6942F480421A611A6989
:100E000022F480420BE06E4B994209D103F5EA339C
:100E10001A6942F400421A611A6922F400421A6106
:100E2000237F13B10023184601E0012302200A8822
:100E300002F4415242F44572134303430B808B8BFF
:100E4000207D23F400631B041B0C8B8307230B8280
:100E50000B889BB243F040030B8018B107F068F891
:100E600007F06FFA2C2007F063F80446069BC3F8DE
:100E700008019F238DF83430322000238DF835305F
:100E80008DF836308DF8373013F0BAFA204607F077
:100E900053FA04220DA915A813F03EFF204607F0CF
:100EA00050FA9DF856309DF855201B0243EA024344
:100EB0009DF857201343434A93421AD0322013F02F
:100EC0009FFA204607F038FAF52013F061FFFF2063
:100ED00013F05EFF8DF85400204607F032FA9DF8BB
:100EE0005430702B05D12B78022B02BF364B0322D6
:100EF0001A702B78032B0CBF1F2002200BF00FFD64
:100F00002B78032B03D001200EF03EFC07E00220DB
:100F10000BF08CFD0028F6D04388002BF3D02B4B30
:100F200095F800A02A4D1E6814273A46002128464D
:100F300019F096F906F4004916F0020F06F400685D
:100F4000284618BF2F70B9F1000F01D011236B7123
:100F5000BAF1010F84BF15238372B8F1000F01D0DD
:100F60002123C3731B4DDFF874A04FF00F08002737
:100F70004FF0060915F8010C00283DD006F0D8FF07
:100F8000002680F8069080F80780067215F8010C9C
:100F900006F0CEFF314606F0F1FF314615F8012C80
:100FA0000D484B0010F81100904219D1534493F8AA
:100FB000ED3019E0001002400030014000380040E0
:100FC000003C004015202000A92300207C120020B6
:100FD000E4110020E511002074A4010888A3010891
:100FE00001310A29DCD1002307222B70EA707B1C17
:100FF00001226F70AA70DFB208F101085FFA88F869
:10100000B8F1130F05F10505B4D1B74A492053686B
:10101000B64D43F44043536013F0AEFD202013F06F
:10102000ABFDB24808F0F8FD15A808F0CAFDB04BBA
:10103000022F1593AF4B28BF802216934FF0000369
:1010400038BF1A461A924FF480721B924FF4806296
:101050001C92202228461D9215A94FF400521E9280
:101060001793189719931F9308F0B8FD2B68A2489F
:1010700043F001032B604368012F23F4702394BFD6
:101080000022012223F4807343EA02234360826832
:101090009A4B9B4D134043F4602343F0020383605B
:1010A000C36A05F1140C23F470027B1EDBB242EA22
:1010B0000353C3621F2701234FF0070EEA78002A6B
:1010C0004CD095F801805E1CB8F1090FF6B295F886
:1010D00004900DD9A8F10A02C16802EB42020EFA8F
:1010E00002FA21EA0A0109FA02F20A43C2600AE09E
:1010F000016908EB48020EFA02FA21EA0A0109FA2C
:1011000002F20A430261062B0CD8591E426B01EB16
:10111000810107FA01F322EA030208FA01F11143FF
:1011200041631AE00C2B0CD8DA1F016B02EB820230
:1011300007FA02F321EA030308FA02F21A430263F0
:101140000BE00D3BC26A03EB830107FA01F322EACD
:10115000030208FA01F31343C362334605356545BC
:10116000ACD1654B9A6842F480729A609A6842F0FA
:1011700001029A609A6842F008029A6099685E4A91
:101180000D073FD5FAE7013B092B3FF699A901214D
:10119000084607F0E5F8132006F0CAFE07461823B4
:1011A00083710223C37106721221C5F8940406F0FC
:1011B000E5FE0121384607F0C9F83C2013F020F97C
:1011C0003146012007F0CCF894F842224D4B96426C
:1011D000BFF66DA90021084607F0C2F80021384685
:1011E00007F0B4F8782013F0E9F80121002007F0A7
:1011F000B7F80121384607F0A9F8782013F0DEF897
:101200000136E1E7936843F00403936093683A4939
:101210005807FBD48B6843F4A0038B60394BD3F899
:10122000CC01002840F0C587D3F8D021002A40F037
:10123000C087D3F8D431002B40F0BB87314E324DFC
:1012400096F8D93100270293B6F9F0312F60039355
:1012500096F8DC316F60049396F8DE31AF601822A7
:1012600039462A48059396F8ED8196F8EE9118F0E4
:10127000F7FF274B274A1B780795012B8CBF934616
:10128000A2F1010BDFF89CA0234D18223946AAF8E1
:10129000007005F5867018F0E3FF069B2320C3F865
:1012A00024B113F0ADF80DF12202012175200DF0EB
:1012B00033FAD346C0B3194B0DF12302C5F81031F0
:1012C000174B0121C5F814313846432385F80C31FA
:1012D0000DF022FA9DF8233003F07E038DF82330C1
:1012E00000285ED166E000BF001002400800024006
:1012F0004C240140F811002000240140FDF7F1FFCB
:10130000E4110020B4300020AC2300203024002061
:10131000A923002089A30108E804002019E7000898
:101320009DE60008B823002095F82831FBB9142267
:10133000A2710E22E271237213212046C5F82C41BE
:1013400006F01CFE504A138823F040031B041B0CBC
:101350001380138823F038031B041B0C138013889D
:101360009BB243F040031380012385F8283115AA6E
:10137000012175200AF07EF89DF85430A3F1700227
:10138000012A01D9AF2B5CD105238BF80030432310
:1013900085F80C313D4BC5F810313D4BC5F8143183
:1013A0004FE0682B06D101238AF800301D2385F811
:1013B0000C3146E09DF82230364A03F07E03682B5C
:1013C0008DF8223039D1344F02230621137008469C
:1013D000D7F8103115AA98479DF859209DF8573035
:1013E00092005B0003F0020302F004021A439DF82E
:1013F000553003F00103134311D0012B01D100221A
:1014000002E0022B03D10122224B5A7019E003F0B3
:101410000303032BF7D0032012F0FCFF11E0D7F8F1
:1014200010310DAA01210C2098479DF8343013F09B
:101430000F03F0D0042BE6D1E1E7702B04BF0423A7
:101440001370164900230B70124B1B78022B0BD123
:10145000134A14481060144850601448D06014486F
:10146000106101220A7038E0012B27D10C4A114883
:101470000B7010600C48042350600F4890600B48BC
:10148000D0600B48106128E00038004075B40008B7
:10149000A5B40008B8230020E8040020142500208B
:1014A0003024002031EB000891E4000879E40008C2
:1014B00090C1793D57E6000845E40008043B012B44
:1014C0001DD8C44BC44A1A60C44A5A60C44ADA6080
:1014D000C44A1A6101230B700723C34A41461370A3
:1014E000C24A0298136843F001031360059B4A4601
:1014F0000193049B0093039B0FF0F6F910B90120B0
:1015000012F088FFBA4A01211378084643F002031B
:10151000137006F025FF0021084606F021FFDFF8D2
:101520001C830A27012006F0F5FC002006F0F2FCDF
:10153000192012F065FFD8F84C35DFF800A313F43A
:10154000803F02D101200DF0EDFC192012F058FF70
:1015500000200DF0E7FC013FE4D13946384606F0A3
:10156000FFFE3946012006F0FBFEA04B1A689846A4
:1015700012F0080F0DD00121084606F0F1FE9D4B38
:101580001B6898473946012006F0EAFE9A4B012273
:101590001A709A4B1B68187B15F008FC984915F0D7
:1015A00059FC984915F04EFB14F010FD964B9449E8
:1015B0001860884B186915F04DFC944B1860079B18
:1015C000188915F0F3FB0146914815F0F7FC914995
:1015D00015F0F4FC904B186012F022FD8F4B1E2288
:1015E000FF21184618F03CFE03468D4901220A707F
:1015F000002202708B48D8F800E002688146184645
:101600000B4612F4800F01BF022119701B2141709B
:101610001EF0020F0ED019784FF0010C00F801C037
:1016200001F1020C013183F800C0C9B24FF0020C85
:1016300000F801C01EF0040F06D0197801F1010C6A
:1016400083F800C0032343541EF00A0F12D0DFF8C2
:10165000D0E104219EF800304FF0050CC154591C14
:10166000C9B200F801C0D91C02338EF80010DBB2F9
:101670000621C15412F4007F694B08D0197801F19A
:10168000010E83F800E04FF0150E00F801E0D105DF
:1016900008D5197801F1010E83F800E04FF01A0E19
:1016A00000F801E09AF805E0BEF1080F02D0BEF1A3
:1016B0000E0F08D1197801F1010C83F800C04FF02A
:1016C0000B0C00F801C019784FF00C0B01F1010C64
:1016D0005FFA8CFC00F801B0D00383F800C006D597
:1016E0004F48023101704D490E2001F80C0012F4F0
:1016F000002F4A4906D0187800F1010C83F800C089
:1017000019230B54464B4FF01D0B187812F4805FD1
:1017100000F1010C5FFA8CFC83F800C001F800B006
:1017200006D0023018703D484FF01C0B00F80CB08A
:10173000900608D5187800F1010C83F800C04FF02E
:10174000070C01F800C0500708D5187800F1010C0B
:1017500083F800C04FF0100C01F800C0500308D50A
:10176000187800F1010C83F800C04FF0120C01F85A
:1017700000C0520507D59AF8D02222B11A78501C21
:10178000187013208854BEF1180F0ED11A78162045
:101790008854501CC0B24FF0170C01F800C0D01C88
:1017A0000232D2B2187001F802E0982200211E48DD
:1017B00018F056FD13F048FB1C4A1D4BB6F8DE101E
:1017C0001A601C4BDFF878B019801B4900230B808E
:1017D00038E000BF3024002061B8000891E4000820
:1017E00079E4000890C1793D3804002028240020C5
:1017F000A02300200C25002068380020C8150020F8
:1018000035FA8E3CDB0FC93FE42D0020D42D00209B
:101810000AE81C4100401C46183800204A2D0020D0
:10182000492D00207C1200201C360020EC320020C4
:10183000A80D0020A60D0020B0120020B43000201A
:10184000801200208B70A049DFF8E4C20A609F4A32
:10185000DFF8E0E21370B6F8482211B2DCF80000BD
:101860002BF8131000F596704EF823000133122B5D
:10187000974EF3D1D9F80000C30458BFBAF95412F7
:10188000F180944901F1500E91F89D34FBB991F823
:101890009FC491F8A0349C4519D2BCF1000F08D028
:1018A0000CF1FF3C0CEB8C0C0CEB8C0C0CF561730D
:1018B00006E0013303EB830303EB830303F561735A
:1018C00091F89EC49BB20CF1040C26F81C30043134
:1018D0007145D9D1030740F15F819AF84062082E23
:1018E00000F25481DFE816F009000C0013004400F8
:1018F000650086008600C8002A0145F2F05201E02A
:1019000042F6F822744B1A8013F023FB3DE142F6B5
:10191000F821714B120119800A2392FBF3F26F49EF
:10192000A2F5B062002341F823200133122BFAD133
:101930006B496C4A402011606B4A13700BF0B4F88D
:101940000646002800F022810EF03AFC9AF8413257
:1019500096F900E0002B0CBF0622072200280CBFDE
:1019600001230323019200930646604B604AA2E0E4
:1019700042F6F822584B40201A805E4A594B1A60B2
:10198000594B10221A700BF08FF80646002800F011
:10199000FD800EF015FC00280CBF0123032300225C
:1019A00096F900E00192009306464FF4E133524A63
:1019B00081E042F6F822484B40201A804F4A494BBA
:1019C0001A60494B08221A700BF06EF80646002880
:1019D00000F0DC800EF0F4FB00280CBF0123032391
:1019E000002296F900E00192009306464FF4E1339D
:1019F000434A60E042F6F822374B4FF00C0E1A8053
:101A0000394B40484049414A83F800E0062E4FF0E8
:101A1000000303700B7013700BD03D4B1B221A7028
:101A20003C4B052283F800E03B4B4FF4E13A1A703F
:101A300009E0374B21221A70364BDFF8FCA083F8FF
:101A400000E0354B1E70354A264B40201A600BF0E3
:101A50002BF80646002800F099800EF0B1FB002814
:101A60000CBF01230323002296F900E001920093AA
:101A7000064653462A4A1EE044F62062164B402092
:101A80001A80284A174B1A60174B0A221A700BF05B
:101A90000BF80646002879D00EF092FB00280CBF08
:101AA0000123032396F900E00646002201921E4A14
:101AB00000934FF4E133402170460AF061FF002E9D
:101AC00060D01A4B18605DE078120020740D002081
:101AD00080120020B43000208A090020C0100020AD
:101AE000B995000870040020E0360020A0860100AF
:101AF0001598000879950008199700086195000865
:101B0000D19600084E10002025110020241100203D
:101B1000261100204D10002027110020A19400085C
:101B2000FD950008FD100108ED110108E8360020C0
:101B3000AC1200202C0D002090D0030041F27C520A
:101B4000764B00261A80764A764B40201A60764BF8
:101B500010221A70754B28221E70754B1A700AF0ED
:101B6000A3FF98B1032390F90000724A01960093F5
:101B70004021714B0AF004FF704E012130600DF0DE
:101B8000E2FB3068003018BF012028B9082006F0B9
:101B9000C9FC6B4A634B1A6042F20103D9F800207A
:101BA000614913408BB144F620605C4B9604188069
:101BB00004D508230B7063485A4B1860D00704D52E
:101BC0000C230B706048574B18600B78043B4B702C
:101BD000910552D55D4A4FF00A0A9369002643F0F9
:101BE0000103936195F8240006F0A2F9584A1221E6
:101BF00010600222C27180F806A0067206F0BEF9DB
:101C000095F8250006F094F983460123C37180F806
:101C100006A006720621C5F8300106F0AFF94D4B5B
:101C20004D498022C5F834315846102306F0BAFBDE
:101C3000584613F0D5F8494B494A1B6849483C3B84
:101C40001360D8F80030C82243F01003C8F8003001
:101C50004FF4C873A5F83831434B1A8014F0B6F925
:101C6000424B4349186015F0F5F815F0CFFA414B97
:101C70004FF0FF321880404B1A60404B404EDFF867
:101C800014A1C6F83C31D9F800300025DA038AF8EF
:101C9000005040F1108113F097FD4FF0010840F221
:101CA0002A32294606F5A0708AF8008018F0D8FA82
:101CB000DFF898A0334BDAF81410D3F8882015A871
:101CC0000A43CAF81420304AC3F88C50C3F8802065
:101CD00093F885308DF855808DF854308DF8565036
:101CE0008DF8578012F066FF162006F021F91622B3
:101CF00082710222C27105721B21C6F86C0406F0C3
:101D00003DF922482249EB0001F1BC0E5EF8352076
:101D1000824241D10B4493F8C00041E08A0900207F
:101D2000E910010870040020E0360020282B002074
:101D3000292B00200D11010848E801007C0E00202D
:101D4000E9950008DD100108ED950008001002403B
:101D500040380020CDB400081C060020AC12002042
:101D60003C380020D253FB3FF8370020F0370020EA
:101D70000000C84300380020F437002098330020CA
:101D8000E804002088030020C9AF000800040040D8
:101D900088A30108F03800200135042DB2D10020BD
:101DA00012F0EAFEC24BC3491B68C34DB3FBF1F30B
:101DB0002988013B21F45C710904090C29804FF04A
:101DC000010B9BB21D21A9852B85A5F814B02B8C86
:101DD0004FF0000823F001031B041B0C2B842B8CF9
:101DE000A888298B23F0020321F0730109041B0446
:101DF000090C1B0C41F0600180B243EA0B03A88080
:101E00002983A5F834802B842B8B23F008031B0433
:101E10001B0C43F008032B83B5F844306FEA4343AF
:101E20006FEA53439BB2A5F84430DAF8143043EA22
:101E30000B03CAF81430DFF8CCA2504607F0ECFED2
:101E400015A807F0BEFE9D4B15A915939C4B504657
:101E500016931023179340F22A33189380231A9372
:101E60004FF480731B934FF400531E93CDF864809E
:101E7000CDF87080CDF87480CDF87C8007F0AEFE90
:101E8000AB8990499BB243F40073AB81DAF8003020
:101E9000FF2243F00203CAF8003086F870B47B18C2
:101EA00027F801800437802F9A70DA70F7D109F093
:101EB00085FE09F083FED9F800305B0553D5824FCB
:101EC000824B3A6804201A600AF0EEFD0421C6F83D
:101ED00074040AF0BFFD3A687D4B86F87804082048
:101EE0001A600AF0E1FD7B4B082118600AF0B2FD90
:101EF000794D002186F879042C22284618F0B0F993
:101F00007C232B708E236B70E023EB707D233A686B
:101F100085F82B30714B20201A600AF0C5FD202176
:101F2000C6F87C040AF096FD86F8800410200AF0BA
:101F3000BBFD1021C6F884040AF08CFD684B3B22DF
:101F40001A7001225A703A221A719F229A711E2227
:101F50001A72A4225A7200229A72DA721A7386F8DE
:101F600088040EF03AF95F4B5F4D1B78022B7AD153
:101F70002F88002F77D10F23A3710E231321E37134
:101F800020462772C6F88C4405F0F8FF204606F07C
:101F9000D8F9564A3220138823F040031B041B0C47
:101FA0001380138823F038031B041B0C1380138841
:101FB0009BB243F0400313809F238DF834308DF89B
:101FC00035708DF836708DF8377012F019FA20469A
:101FD0008DF8557006F0B0F904220DA915A812F07D
:101FE0009BFE204606F0ADF99DF856309DF8552031
:101FF0001B0243EA02429DF8573013433C4A934286
:1020000017D00CDC3B4A934215D00132934217D0D3
:10201000A2F51A42033A934220D120230CE0364A1B
:10202000934208D0013293420AD0344A934215D1E8
:1020300001E0402300E080232B804FF4807302E016
:102040004FF480732B806B80AB882A881B02AB60B7
:102050005343EB60012386F8903404E000232B8087
:102060006B80AB60EB60ED68002D4DD0ED0A2E4625
:1020700000270DF15408AF4208DA7C1964101022D1
:102080004146E00209F05EFD0F2805DC0BF024F864
:102090001B4BF6021E6037E0002358F82320013264
:1020A00040F084800133042BF7D125462646E2E731
:1020B0004004002000366E0100040040340400405B
:1020C00028060020F2380020A0150020F40D002082
:1020D000340E0020500E0020040E0020680E002058
:1020E000B4360020A92300206003002000380040FF
:1020F0001620C20017BA20001740EF001720C200B8
:102100000C1300206C000240704C714AB4F8DC31B2
:102110005269013B9BB2052B9EBF012384F8EA3133
:1021200084F8DE3194F8EA3153436A4A1360D9F8EF
:102130000030694A13F4002318BF01231370637938
:10214000052B02BF654B4FF4C8721A8007F002FEE0
:10215000634BC8221A80634A137843F00803137054
:10216000614A137823F00203137040F602025F4BBA
:1021700019680A406AB15E495E4A11605E4A0321ED
:1021800011705E4A012111705D4900220A805D498B
:102190000A80A2681A605C4B01221A705B4A1378AD
:1021A00063F07F03137021B0BDE8F08F671C3446E5
:1021B0007CE7574B00221A7000B214F0F7FD554926
:1021C00014F048FE414D0746B5F9D00114F0EEFD7C
:1021D000504914F03FFE0646B5F9D40114F0E6FD6F
:1021E0004C4914F037FE4C490546384614F02AFD98
:1021F00013F0ECFE8146384613F0E8FE46490746E8
:10220000304614F01FFD13F0E1FE8046304613F017
:10221000DDFE41490646284614F014FD13F0D6FEB3
:102220008346284613F0D2FE49468246584614F0AB
:1022300011FE49460290504614F00CFE5946039098
:10224000384614F007FE51460490384614F002FE5A
:1022500041460590584614F0FDFD304D514628602A
:1022600008F1004014F0F6FD04996860AE60304655
:1022700014F0F0FD039914F0E5FC0599E860304690
:1022800014F0E8FD0146029814F0DAFC414628619A
:1022900007F1004014F0DEFD02996861304614F049
:1022A000D9FD0146059814F0CBFC0399A86130468E
:1022B00014F0D0FD049914F0C5FC4946E86140468D
:1022C00014F0C8FD2862FEF7B9BF00BFB43000208B
:1022D000302400206C13002046150020BC0D002087
:1022E000DC370020790E0020482D00207C120020D1
:1022F000CA320020E0110020902B00203C04002076
:102300007C2E00207E2E0020200C0020A023002008
:102310008400002035FA8E3CDB0FC93FBC11002041
:102320002DE9F04FAC4BA3B01B68AC4CD3F8288020
:1023300012F028F82368AA4EC01A308012F022F852
:10234000A84D20602B78012B05D1A74B32881A802D
:10235000A64A12885A8012F015F8A54F0646B946CB
:10236000FB685BB912F00EF82368D9F81420C3EBB0
:102370000803184450329042F2D302E098470028F4
:10238000F0D02B78072B04D111F0FCFF964B801B6B
:1023900018802379002B01F09D8011F0F3FF944BFE
:1023A00008909B680BB193489847934B93491B68DF
:1023B00013F0080F059339D0914B924A9C8804F191
:1023C0000E039BB21C2B904BB3F904302AD88F48D4
:1023D0000088460726D50A2093FBF0F012888C4B24
:1023E000801A80B202B212F1B30FBCBF00F5B47014
:1023F00002B2B32A1B78C4BFA2F5B47212B21D0791
:1024000014D591F9D801834B404242431B6812B264
:102410005B7A5A436FF01D0392FBF3F3784A23442F
:10242000938003E00A2093FBF0F313807A4BB3F917
:1024300006607A4B1D68688986420CDBB6F5FA6F38
:102440002A7ABFBF331A5343C0F5FA6293FBF2F204
:10245000C2F1640200E0642291F82632B1F84872B9
:10246000069391F82732DFF89881079391F9D831D4
:1024700000245B429BB2099340F2E631684B4FEA7D
:10248000440AE254644B33F91490C7EB090000F29C
:10249000F3138B423BD80028B8BF4042022C3AD0FD
:1024A000069B984202DD069BC01A00E000200B92BA
:1024B00014F07CFC5B4914F081FD8346A87814F08D
:1024C00071FC59460A90584614F0C4FC564914F061
:1024D000B7FB0A9B0146184614F0BCFC534914F0A4
:1024E000B1FB594614F0B6FC8346287814F05AFC28
:1024F0000146584614F0AEFC4C4914F05FFD14F050
:1025000085FEB94528F80A000B9A3BDB3FE0022C18
:102510004FF4FA70C7D1079B0B928342B4BFC01A25
:10252000002014F043FC3F4914F048FD8346687ACC
:1025300014F038FC59460A90584614F08BFC3A497E
:1025400014F07EFB0A9B0146184614F083FC3749C1
:1025500014F078FB594614F07DFC8346687814F03B
:1025600021FC0146584614F075FC304914F026FD54
:1025700014F04CFE099BB94500FB03F00B9AA8F838
:10258000040008DA3AF808305B422AF808300134CF
:10259000032C7FF471AF264B184C186810F4805050
:1025A0000ED0B6F57A7F06DBB6F5FA6F3246A8BFD5
:1025B0004FF4FA6201E04FF47A72A2F57A7242E0C7
:1025C000B4F84A128E4235DBB6F5FA6F3246A8BF30
:1025D0004FF4FA622FE000BF701200208009002043
:1025E0008E2B002002120020041200200C1000206C
:1025F000302400208609002028240020B430002048
:102600004C130020C20D002054130020402D002048
:10261000790E0020101300208012002004100020EA
:10262000681300200000C8420000C84100401C455B
:102630007C1200200A46521A4FF47A735A43C1F5AD
:10264000FA61B2FBF1F2642392FBF3F1DFF828E3C5
:1026500001F1010C3EF911503EF91CE06FF0630CE2
:102660000CFB0121C5EB0E0E01FB0EF292FBF3F207
:102670005319A54A9BB2D380A8B1A4490968C800E0
:1026800011D5A349C97871B9A3F57A731BB24FF478
:102690007A711B0393FBF1F3C7F5FA6109B24B435F
:1026A00007EB2337D7809B4B1F88790644D59A4B7D
:1026B0000A20B3F9043093FBF0F0984B1B88C01A42
:1026C00000B214F073FB964914F0C4FB954905461B
:1026D00014F0B8FA13F07AFC8246284613F076FC20
:1026E000894D8046B5F9020014F060FB8146B5F9CA
:1026F000000014F05BFB5146834614F0ABFB4946E7
:102700000690404614F0A6FB069B0146184614F0BE
:1027100097FA14F07BFD51462880484614F09AFB46
:1027200059468146404614F095FB0146484614F050
:1027300089FA14F06BFD6880059B7B4D13F0140F34
:1027400069D017F4027F66D0784B6F4A1B7803F08C
:10275000100303F0FF0043B1754B94F99802196818
:10276000538800FB0133538055E0724B72491B685C
:1027700093F803E09B78BEF1000F20D0B1F900E0A0
:10278000CEEB06010029B8BF494299420CDD6B49E6
:10279000764508604FF001012972C8BF5B42D188BD
:1027A0009BB20B44D38036E02B7A23B1644B287262
:1027B0001968644B19605E4B1B68734420E0B1F9E3
:1027C0000000311A81EAE17CACEBE17C9C4509DD3B
:1027D000022391FBF3F15C4B19605C4B01211970F2
:1027E00029720AE02B7A43B1554B85F808E0196845
:1027F000544B1960554B83F800E04D4B1B68034464
:1028000053490868018840888B4203DB984201469F
:10281000A8BF1946D1804F4B1B78B3B1B4F84A32E8
:10282000B34212DB4C4B5B79012B01D0192B02D147
:1028300094F893224AB90E2B07D0082B05D0324BBF
:1028400000229A80454B00229A6094F81482B8F1D5
:10285000000F2DD0BA072BD0414B42491E6A30469B
:1028600014F0A0FCF8B9304615F0C6FA3E4B1968D2
:1028700014F0F0FA15F046FAB0F5617FA8BF4FF4F6
:10288000617014F093FA394914F098FB13F09EFB31
:102890000646404614F08AFA314614F0DBFA15F089
:1028A00031FA00B200E00020174AD3881844D080E3
:1028B00094F84E322E4A23B916490988002900F0AF
:1028C000AE801278104F002A00F08C80022B09D0C5
:1028D000032B53D194F84F32C3EB431203EB820323
:1028E000DB000FE0234BD3F8F820B2F57A7F05DB4D
:1028F00044F620639342A8BF134601E04FF47A7375
:1029000003F57A739BB23AE04C130020442D00206B
:10291000B0120020402D002054130020C40D0020D0
:1029200035FA8E3CDB0FC93F80090020790E00206C
:1029300034380020E0150020C80D00203038002079
:102940001C38002024380020283800203838002087
:10295000E415002080030020B43000204013002044
:102960001C3000208FC2753CD4150020EFB6B04457
:10297000C60D0020880000202E1500206B89B34A68
:102980001068B34AB3FBF0F01278461C36B2092A3D
:10299000AE8105D1AF4A3988D380118079885180C2
:1029A000B5F90EA0DFF8C8B20023DFF8ACE23BF9BE
:1029B00013800EF1100939F913100EF1180C0AFBEF
:1029C00001F191FBF6F13CF813202CF81380C2EBD7
:1029D00008020A4429F813200133042BE5D1AEF88C
:1029E0000E0002E0EB89013BEB819B4A0023B2F928
:1029F0000E60002E11DDB2F90CE01832974932F862
:102A0000130031F91310714391FBFEF1411A27F8BD
:102A100013100133042BF1D106E0D38104E01378C5
:102A2000E981002B00F0858094F8500220B18C4B96
:102A30001B689B0001F134838A4B00261B6803F45A
:102A400000030593884BD3F80080884B1B6893F8EC
:102A500000B0874B4FEA860A33F91650059B08EB06
:102A60000607002B01F08B83022E41F07A83002DA4
:102A7000CCBF2846684214F099F9814698F80100C5
:102A800014F094F97B4914F099FA7B4914F0E2F9B7
:102A90000146484614F092FA8146784A42F80A0004
:102AA000787914F083F9734914F088FA494614F0E0
:102AB000D1F901464FF07E5014F0C2F87049074634
:102AC00014F066FB002841F057834FF07E513846E2
:102AD00014F07CFB08B14FF07E571B20684314F0C4
:102AE00065F94FF0765114F0B5F9394605464FF0C7
:102AF0007E5014F063FA0146284614F0ABF90546FF
:102B0000BBF1000F41F064835E4914F041FB0028E3
:102B100041F070835C49284614F058FB00B15A4DCF
:102B20005A4B0136032E43F80A5092D1584B0022DB
:102B30001A70584B484D1878002840F0BF84494F10
:102B40003B681E0340F1BA84534E3378033B052B98
:102B50001AD894F8493533B1012B08D108F008FF91
:102B6000C0F17F0003E0A86A03689B689847EB6A9E
:102B700095F830201344B3F5807FA8BF4FF48073DD
:102B80008342D4BFEB62E8623378023B092B00F248
:102B90009084DFE813F00A00130042008E048E04D4
:102BA00089009A004504680473040023EB626B6398
:102BB0003A4B1B68AB63032300F07ABC374B1A68AF
:102BC000AB6B6433934280F07484402012F054FE67
:102BD000002840F06E84DFF8C8801F4C40276B6BE4
:102BE00018F8030058B112F021FFE36A013F03F126
:102BF000FF33E362636B03F101036363EFD16A6B3D
:102C00002749154B8A5C002A40F053845A634FF0E1
:102C1000FF329A63042300F04BBC224A5021A2F1F8
:102C20000C0301932A23029200934920A2F10A0384
:102C3000163A0AF0A1F9002840F03B844FF0FF3328
:102C4000AB636863072300F033BC00BF6C13002044
:102C500002120020041200208009002090090020A8
:102C6000442D00207C1200200410002010130020AE
:102C70004C1300200000C8420000FA43AC140020AE
:102C80000AD7233C00F0FFC500F0FF4540130020A9
:102C9000C60D00200813002046150020AC120020AD
:102CA000F4A401086AA5010805230093A74B00219D
:102CB00002910191A3F1080253200AF05DF9002866
:102CC00040F0F78368630823F2E3402012F0D4FD5C
:102CD000002840F0EE836A6B9D4B4C2A01F29082F3
:102CE000DFE812F04D005000550059005C00620012
:102CF00066006A006D0071007C008400880094000A
:102D000097009B009F00AE00BD00CC00DB00EA00F6
:102D1000F900080117012A017E018B019801A50124
:102D2000B201BF01CC01D901E601EF01FE010702AA
:102D3000180229023A024B0254025D0266026F0237
:102D4000780281028A0293029C02A502AE02B702B7
:102D5000C002C902D202D602DA02DE02E202EE02AA
:102D6000FA0206031003140318031C0376037A0304
:102D70007E03820386038A038E03920396037549BA
:102D8000754847E3754B764A76497748A5E1774A17
:102D90007749784837E0784978483BE394F8482504
:102DA00094F8471576482EE0B4F8D010754831E312
:102DB000B4F8D21074482DE3196974482AE3744BAF
:102DC0007448198926E3EB6BD90403D594F81612DD
:102DD00071481FE3714B0B225A631DE394F81932BB
:102DE00094F81B2294F81A126D4876E1B5F8401059
:102DF0006C480FE33B681A0540F10E83B4F91E22BC
:102E0000B4F82012684812F0ECFE05E359696748EF
:102E100000E394F8DE116648FCE294F8EA11654894
:102E2000F8E294F89C2464235343E21892F81224A5
:102E30000C2101FB02331C4494F814145E48E9E2AF
:102E400094F89C2464235343E21892F812240C2132
:102E500001FB02331C4494F816145848DAE294F843
:102E60009C2464235343E21892F812240C2101FBA2
:102E700002331C4494F815145148CBE294F89C2476
:102E800064235343E21892F812240C2101FB02330D
:102E90001C4494F81D144B48BCE294F89C24642311
:102EA0005343E21892F812240C2101FB02331C4414
:102EB00094F817144448ADE294F89C2464235343D7
:102EC000E21892F812240C2101FB02331C4494F8FE
:102ED00018143E489EE294F89C2464235343E2185D
:102EE00092F812240C2101FB02331C4494F81C14A8
:102EF00037488FE294F89C2464235343E21892F8F5
:102F000012240C2101FB02331C44B4F81E14314876
:102F100080E294F89C2464235343E21892F812242C
:102F20000C2101FB02331C4494F81B3494F81A243E
:102F300094F819142848D0E094F89C34642202FBD9
:102F40000344264894F8D41364E200BF54A7010850
:102F50003024002070C601087CC601088DC6010817
:102F600092C601089AC60108A0C60108C8C6010891
:102F7000D1C60108DDC601080A360020F1C60108E5
:102F8000FFC6010810C701081FC701082EC70108A6
:102F9000AC2300203EC7010848C701088009002073
:102FA00055C701086EC7010879C701088CC7010819
:102FB00098C70108ABC70108C0C70108CAC7010804
:102FC000D4C70108E1C70108EEC70108F8C7010826
:102FD00003C8010810C8010822C8010831C8010847
:102FE00094F89C34642202FB0344CE4894F8E933FD
:102FF00094F8DF2394F8D5136FE094F89C3464229E
:1030000002FB0344C84894F8EA3394F8E02394F8A8
:10301000D61362E094F89C34642202FB0344C34854
:1030200094F8EB3394F8E12394F8D71355E094F82F
:103030009C34642202FB0344BD4894F8EC3394F8BA
:10304000E22394F8D81348E094F89C34642202FBFD
:103050000344B84894F8ED3394F8E32394F8D91373
:103060003BE094F89C34642202FB0344B24894F899
:10307000EE3394F8E42394F8DA132EE094F89C34B9
:10308000642202FB0344AD4894F8EF3394F8E5233F
:1030900094F8DB1321E094F89C34642202FB03448F
:1030A000A74894F8F03394F8E62394F8DC1314E07E
:1030B00094F89C34642202FB0344A24894F8DD1384
:1030C000A8E194F89C34642202FB03449E4894F8DF
:1030D000F23394F8E82394F8DE1312F082FD9BE1BA
:1030E00094F89C34642202FB0344984894F8F31348
:1030F00090E194F89C34642202FB0344B4F8F40396
:1031000013F054FE924913F0A5FE14F07FF8014627
:1031100090487FE194F89C34642202FB0344B4F8A5
:10312000F60313F043FE8A4913F094FE14F06EF890
:10313000014689486EE194F89C34642202FB034402
:10314000B4F8F80313F032FE814913F083FE14F053
:103150005DF8014681485DE194F89C34642202FBED
:103160000344B4F8FA0313F021FE794913F072FE18
:1031700014F04CF801467A484CE194F89C346422EF
:1031800002FB0344774894F8FC1343E194F89C3421
:10319000642202FB03447448B4F8FE133AE194F845
:1031A0009C34642202FB03447048B4F8001431E1FB
:1031B00094F89C34642202FB03446D48B4F8021472
:1031C00028E194F89C34642202FB0344694894F893
:1031D00004141FE194F89C34642202FB0344664803
:1031E00094F8051416E194F89C34642202FB03441D
:1031F000624894F806140DE194F89C34642202FBB2
:1032000003445F4894F8071404E194F89C34642262
:1032100002FB03445B4894F80814FBE094F89C34E8
:10322000642202FB0344584894F80914F2E094F82D
:103230009C34642202FB0344544894F80A14E9E0E5
:1032400094F89C34642202FB0344514894F80B1414
:10325000E0E094F89C34642202FB03444D4894F867
:103260000C14D7E094F89C34642202FB03444A48CF
:10327000B4F80E14CEE094F89C34642202FB0344AC
:103280004648B4F81014C5E094F826124448C1E04A
:1032900094F827124348BDE0B4F8DC114248B9E085
:1032A00094F8DF114148B5E094F8E00113F07EFD99
:1032B000274913F0CFFD13F0A9FF01463C48A9E0D0
:1032C000B4F8E20113F072FD214913F0C3FD13F0CD
:1032D0009DFF014637489DE0B4F8E40113F066FD18
:1032E0001B4913F0B7FD13F091FF0146324891E0FE
:1032F0001749D4F8F80113F0ADFD13F087FF01462C
:103300002E4887E094F8D9112D4883E094F8EE1107
:103310002C487FE094F8ED112B487BE094F88D1257
:103320002A4877E042C8010853C8010865C8010867
:1033300075C8010885C8010895C80108A6C8010814
:10334000B7C80108C9C80108B9C80108D3C801082D
:103350000000C842E8C80108F8C8010806C9010809
:1033600018C901082EC901083DC9010859C9010839
:103370006FC901087EC9010895C90108AEC90108D5
:10338000C2C90108D3C90108EDC9010808CA01086A
:103390001DCA010834CA01084BCA010860CA0108E5
:1033A00076CA010872CA010882CA01088ECA0108D9
:1033B000A0CA0108B3CA0108C4CA0108D9CA0108D1
:1033C000E7CA0108F7CA010808CB010818CB0108B1
:1033D00094F84E1291481DE094F84F12904819E06D
:1033E000B4F852128F4815E094F840128E4811E05C
:1033F00094F8E5108D480DE094F8E4108C4809E04D
:10340000B4F8E0108B4805E094F8EB118A4801E02D
:10341000A1688A4812F0E5FB6B6B01336B6348E0EF
:10342000874B1B689B011BD5B5F84430854CBBB955
:10343000854BD4F8488045201F6812F0F7FA0E201B
:1034400012F0F4FA404612F0ACFB384612F0A9FB39
:103450004FF48053A4F842300A23337009F092FEEF
:1034600009F06CFD25E095F84C30002BF6D0744B3C
:103470001B689F01F2D409233370F1E7734B1A687C
:10348000AB6BC833934203D294F849457CB904E04E
:1034900012F038FA0028F7D10BE0A86A09F05CFABC
:1034A00095F84D30AC62022B01D111F0CDFC012317
:1034B000337012F011FA08B101233370644B1B789A
:1034C000072B05D110F05EFF089BC01A614B588096
:1034D00000232B71604C13AD636828469847A046C3
:1034E000002800F050815A4A5A4F147807925B4ADC
:1034F0000023032C08BF52F823004FEA830108BFC2
:1035000027F8130035F913000133032B534E5050A5
:10351000EFD1534B51491A78084606F02FFC514B16
:103520001B88002B00F0CB804F4B504D1B6805F1E2
:103530000C041B78002705934A4BD8F814201B88ED
:1035400056F8270006934FF47A73B3FBF2F3C3EBFC
:10355000431203EB8203DB00069A9BB29A4202BF3E
:1035600000232B6023612B684FEA870A03442B60FA
:1035700013F01CFC226902F10109B9F1010FC4F832
:10358000109004D1002360602060A36022E02268D4
:1035900009901146089213F053FB8346484613F0F6
:1035A00005FC0146584613F009FD089A114613F030
:1035B00049FB099B014681466060184613F040FBB9
:1035C000594613F047FCA16813F03CFBC4F8009087
:1035D000E060A060264A002346F80A304AF802302C
:1035E000069B012B5AD12069012807DD013813F011
:1035F000DDFB0146E06813F0E1FC00E0002014F080
:1036000041FE059B8146ABB3184613F0CFFB4946FC
:1036100013F0BEFD70B306F09DFB50E031CB010806
:1036200045CB010862CB01087FCB010894CB010890
:10363000A9CB0108BECB0108D0CB0108DECB010825
:10364000442D002080090020D4370020AC12002037
:103650000212002004120020302400205C130020FD
:1036600014250020AC1100209C150020D00900205A
:10367000180A0020D8F814204FF47A73B3FBF2F341
:10368000C3EB431203EB8203DB002A689BB202EB1D
:10369000530292FBF3F3A44A42F80A300137032F96
:1036A00005F1040504F114047FF446AF9F4C208813
:1036B000012801D109F0E2FA2388013B23809A48CE
:1036C000002356F8232050F82310994C521A46F83C
:1036D00023200133032BF4D1964B974F1A78984649
:1036E000002A44D0DFF8A8B2DFF87C92002456F814
:1036F000240013F05BFB914BA5001B8801462BB106
:103700001C2000FB04B012F0CFFC0146079B1B7885
:10371000082B0DD1022C0BD07259084625F8092030
:10372000059114F0EFFA05EB090A0599AAF80200D1
:10373000834B1B78012B06D1824B1C2000FB0430ED
:1037400012F0B2FC0AE0804B80484FF00C0E1B6870
:1037500098F800200EFB040012F092FD7851785981
:1037600014F0D0FA0134032C7051C0D10BE0206862
:1037700013F01CFB3860606813F018FB7860A068D9
:1037800013F014FBB860724A92F8C830144623B1A3
:10379000013B82F8C83000F03FBD6E4B93F8E0214A
:1037A0001E4622B193F8EA31013BDBB200E001236F
:1037B00084F8C83010F0E6FD674B684DD3F8008000
:1037C000674BB6F82A12A3F1460207462868C0479D
:1037D000644B1A781E46072A04D110F0D3FD624BC1
:1037E000C01B988010F0CEFD96F800A00690BAF1AC
:1037F000010F0AD15D49D4F8CC305B4A0968C31A7D
:1038000093805B1AD380C4F8CC00594B2A681B689C
:10381000E3B192F83140D4B1564A1268940718D5F2
:10382000554A1278012A14D9DB7854495A43098839
:10383000D31A994215B203DB91420B46A8BF134637
:103840002D031BB295FBF3F5012405E01C4625462C
:1038500002E001244FF48055494BDB780E932CB1E4
:10386000BDF954306B431B13ADF854304FF00008D2
:1038700046464746434BDFF81C911B780593424B65
:10388000B3F902200992B3F90020B3F904300A9287
:103890003E4A07931268344B0892059A97427BD2AE
:1038A00009980B9313F082FAD9F8081013F0D2FAA2
:1038B00083460A9813F07AFAD9F8041013F0CAFA7A
:1038C0000146584613F0BEF9089B834693F9000061
:1038D000079B4042584313F069FAD9F80C1013F0D3
:1038E000B9FA0146584613F0ADF913F08FFC15AA4A
:1038F00000B20B9B0CB16843001322F8170015AA05
:1039000032F91720B24203DC9045A8BF904600E090
:103910001646BAF1050F03D1042F98BF23F81720DC
:10392000013709F11009B8E7180A0020AC1100208E
:103930005C13002048240020A01400205024002004
:10394000A8240020AC24002000250020240A002008
:1039500080090020B43000208403002010130020D0
:10396000EC32002002120020041200206C13002010
:10397000E01100207C1200203C0400202C120020CA
:10398000B01200206B13002088130020B015002017
:1039900054240020500A0020864BC8EB06081A6801
:1039A0000FFA88F812F4805308938349834C39D076
:1039B000834B84481B78B1F9066013F0040F01BFF4
:1039C00003681D8A804BA3F8905103687E481F8AC4
:1039D0007E4B1B68D9887D1AAE4205DCB3F9001016
:1039E0002368B3F9004008E039448E42734C07DB8A
:1039F0002168B3F90240B1F90210A0F8906118E013
:103A0000B0F990118D42ABBFB3F900102168236863
:103A1000B3F90240A7BFB3F900400E46B1F9021056
:103A2000264606E02368B1F90660B3F90040B3F911
:103A3000021089B2A4B20B1B1BB29845624819DD73
:103A40001F0397FBF8F70021C0F89471059D8D4284
:103A500009D90DF1540E3EF911507D432D132EF866
:103A600011500131F2E7022193FBF1F31C4424B21F
:103A70000B9408E0022398FBF3F8C8EB01014444DF
:103A80000BB224B20B93B0F990314C490D930F68EF
:103A90004C4B4B49D3F800A00D784C4B4C49D3F814
:103AA00000B0B1F9063005F004050C93059BDFF872
:103AB00038815B000F9302F01003EDB24FF0000964
:103AC00010930F9B99454CD015AA39F80220304627
:103AD000119213F06BF93F4B53F8391013F0BAF908
:103AE00013F094FBA0422146119A04DB0B9B834206
:103AF000A8BF034619460A440E9B12B228F8022FAB
:103B00000BB1B98811E0089B73B1BAF81010BBF87B
:103B100006000D9B091A8B4203DC3988BBF80000B4
:103B200004E0BBF8021000E0398878888A4203DBA1
:103B300090420146A8BF1146109BA8F800106BB137
:103B400065B1089B53B909F073F838B9BAF8122077
:103B50000C9B9342BCBFBA88A8F8002009F1020967
:103B6000AFE715B91C4B1D4A06E0174B93F8982197
:103B7000192A00F2418108E00599A942F5D932F8E5
:103B8000151023F815100135F6E7012303FA02F2A8
:103B9000134B1340002B00F02F81124B1B88D805CC
:103BA00024D5054B1A88ADF86C205A889B88ADF84F
:103BB0006E2030E07C1200204C130020902F00205B
:103BC000482D0020B4150020800900208C2F0020F3
:103BD00080120020500A0020D02E00204C300020FF
:103BE00032413003402D0020CE2E0020BDF8283079
:103BF000ADF86C30BDF82430ADF86E30BDF81C3037
:103C0000ADF87030089B43B1BAF810300C9A9A4264
:103C100003DA079B5B42ADF87030AA484FF47A7222
:103C2000B0F902304FF4616103F5E163534393FB54
:103C3000F1F3A3F5FA73ADF88430B0F9003003F571
:103C4000E1635A4392FBF1F29F4BA2F5FA721B8893
:103C5000ADF88620A3F2DC53ADF872309B4B9C4A42
:103C60001B6811881B8AC91AADF874105188C91ACB
:103C7000ADF876109188C91AADF87810D188C91AB4
:103C8000ADF87A101189C91AADF87C105189C91A9A
:103C9000ADF87E109189D289C91AD31AADF8823055
:103CA0000023ADF8801019468A4A22F81310013318
:103CB000082BFAD1884B89491B68894D0593894B9C
:103CC000DFF810A21B684FF0640E0793864B4FF08D
:103CD00001091B78C3EBC303CB180A930A9B8B42E1
:103CE00070D00B782BB11533059A09FA03F3134002
:103CF00064D0079B11F806CC0E2202FB0C38B8F9F1
:103D00000230B8F9002011F9010C9A1A11F9023C9D
:103D100092B2534393FBFEF34FEA520B11F8057C2A
:103D2000CBEB0303099011F8030C1BB208937E0040
:103D300028B922A8064436F81C0C288019E022ABCA
:103D40001E44B5F9004036F91C6CB44208DA204430
:103D5000844203DC86423446A8BF04462C8008E037
:103D600007DD201AB04203DB8442A8BF0446264682
:103D70002E80D8F80A0009FA07F73842B5F9006032
:103D800011F9040C089B00FB06F090FBFEF00CBF41
:103D900001244FF0FF34984209DB099B5A4392FB00
:103DA000FEF2CBEB02031BB28342A8BF03463AF8F4
:103DB0001CB004FB03B32AF81C3000E02B80023552
:103DC00007318BE7474B494ED3F8008000254FF071
:103DD0000E09642709FB058393F9064036F9023F73
:103DE000E8B25C4394FBF7F4348010F0FFF801353F
:103DF0002044082D3080EDD13D4EDFF8E880336857
:103E000013F0200F31D0002010F0F0F8314C0546AF
:103E10002080012010F0EAF82F4B60801B68190603
:103E200023D5344B274A1B681B78012B23D1D8F8A4
:103E300000C0B2F902109CF906304FF0320E5B421E
:103E40004B4393FBFEF3B2F900209FB29CF9143070
:103E50006FF03101534393FBF1F193FBFEF33944CF
:103E6000691A3B44218018446080D8F800301F4A0A
:103E700003F1700419E0D8F80070B2F9023097F934
:103E800006105943322391FBF3F12944218097F91D
:103E90001450B2F9001001FB05F292FBF3F210444A
:103EA000E2E70E339C42118026D032F9020FB3F9BB
:103EB0000010B3F902508842F3DB85422946A8BFBF
:103EC0000146EEE754130020D02E0020B415002048
:103ED00080120020400C0020442D00209B2F002049
:103EE0001A0B00200C300020942F00203E0C0020E4
:103EF0007C120020AC150020A54FA64D3B6893F91D
:103F00000430ABB995F8988108F1FF33182B00F213
:103F10009280DFE803F05090906B909090649090C6
:103F20009090907690909090906B839090765000C7
:103F3000A9460023DFF864B2A5F8BA31B5F9BA4151
:103F4000072CDFDC99F8BC21DFF87CA272B93A6853
:103F5000508812F027FF904A01461C20126800FB8F
:103F600004A012F059F9012289F8BC213BF9140090
:103F700012F01CFF01461C2000FB04A012F094F874
:103F800013F0C0FED8F800100E2202FB041200B29B
:103F90002BF81400B2F90010B2F90220884203DBBA
:103FA0008242A8BF024611467C4B23F8141001340C
:103FB000A5F8BA41C2E73B685B781BB1774B00209C
:103FC000598908E0764B1B7803F0040303F0FF01E6
:103FD000002BF3D1084603F08FFF01242CE06F4C37
:103FE0000020E18803F088FF218905E06B4C002068
:103FF000218903F081FF6189012003F07DFF022404
:104000001AE0664F0224A01E37F81410C0B2013423
:1040100003F072FF082CF6D106240DE05F4F032455
:10402000E01E37F81410C0B2013403F065FF072C0E
:10403000F6D1042400E0002433689A0602D4B8F1D3
:10404000050F0BD1554F2046398803F055FF601CF2
:104050007988C0B203F050FF0234E4B23368DB0267
:1040600005D495F8A03273B10FF016FF0BE04D4F59
:104070000026A01937F8021FC0B203F03DFF0D2E35
:10408000EFD00136F5E7484B1B78072B05D110F030
:1040900079F9069BC01A454BD88001232B71BBE0F0
:1040A000434B1B885F063EF5C7AC3A4E414F96F82E
:1040B0002030834211D086F8200012F077FE3E496E
:1040C00012F0C8FE3D49804612F0BCFD11F07EFFA3
:1040D0003860404611F07AFF7062394BB3F9000046
:1040E00012F064FE364B0646B3F9040012F05EFE91
:1040F0003F6880463946304612F0ACFE6D6A814614
:104100002946404612F0A6FE0146484612F098FDA8
:1041100013F07CF8DFF8B490B0F5FA7FA8BF4FF445
:10412000FA704845B8BF4846254B41461880384686
:1041300012F090FE29460746304612F08BFE0146EB
:10414000384612F07FFD13F061F8B0F5FA7FA8BF92
:104150004FF4FA704845B8BF4846194B9880FEF7AF
:104160006BBC002DCCBF2846684212F01FFE814672
:1041700098F80000FEF784BC124FFEF7AEBC7879C9
:104180001B30684312F012FE4FF07651FEF7B5BCBB
:10419000B0150020800900206C130020400C002086
:1041A000482D002086120020021200200412002058
:1041B000402D00200000002035FA8E3CDB0FC93F67
:1041C0004C1300200AD7233C400B00200CFEFFFFBD
:1041D000134912F0F3FE1349054612F0D9FF60B9F6
:1041E0001149284612F0F2FF00283EF499AC0E4D1A
:1041F000FEF796BC0D4DFEF793BC0A4DFEF790BC42
:1042000011F080FB00283FF454A94FF48053A5F827
:1042100042300A23FFF74CB923B0BDE8F08F00BF4E
:104220003333834000A0F9C400A0F94400F0FFC577
:104230002DE9F04F914BADB01D780093002D00F0AB
:10424000A7808F4B1868002801F0108704F030F920
:10425000DFF85C92DFF85C82D9F800000BF07CF8A4
:10426000002801F00387D9F800000BF072F8092844
:10427000844C01D03F2855D14FF0000A574655468F
:1042800026680AEB080B36B132465AF808107E4809
:1042900016F02AF820B90DB15F4601E05D465F4691
:1042A0000AF1080ABAF5907FEBD1F5B1D5F800A074
:1042B000D7F800B0DFF8D0C123681AF803001BF864
:1042C0000310814211D15A1CDFF8BCE149B92D2BF2
:1042D00007D86C48026020200EF803000EF8021088
:1042E00003E00CF803002260E6E723680BB1BD424F
:1042F0000FD0664810F056FABD4207D855F8080BA3
:1043000010F050FA092010F0D3F8F5E70EF0DAF8C3
:1043100000265D4D23689E429ED2A85D10F0C8F82D
:104320000136F7E723686BB9042804D1564805F035
:10433000A7FF01F09BBE0C2841F09486544810F072
:1043400031FA22E00C28F9D00A2841F03F864E4E7F
:10435000504810F027FA2321304615F0B6FF3546B5
:1043600008B1801B206023680022002B41F03286B8
:10437000002A41F04A8630220021434815F070FFA0
:10438000009B1B78002B01F071860EF09BF863E711
:10439000414B03F13007414BEA18EB58002B01F079
:1043A0005A803F4C3F4922603F4A26468946924602
:1043B0000B60059300238DF819303C4814238DF8C9
:1043C000183004AB04920360D9F80000DFF8D48001
:1043D0000AF0C2FF002801F02A80D8F800000AF095
:1043E000B8FF3368834693F8481019B9242863D17D
:1043F00001221DE0012903D14D2808BF022204E05B
:10440000022907D13C2808BF032218BF002283F8E5
:10441000482085E003290ED140284FF0000102D941
:1044200083F84810D0E758711971D9719871042236
:1044300083F84820C8E7042907D1997983F849000F
:1044400080EA01029A710522F2E7052968D15879BC
:1044500019798842987908D98BEA00009871481C2C
:1044600018710B4483F808B0AEE7584503D1062213
:1044700083F848205AE00022DAE700BF0813002042
:104480004830002004130020D4120020BECC0108C4
:10449000C3CC010898E1010874A701081C3600206C
:1044A000682D0020702D002065F300086C2D002081
:1044B0006430002070C40108BF490B7803F0040386
:1044C00003F0FF0E002B7FF47FAF23281DD1009A4D
:1044D0000123D8F800001370B84B01911860B84B55
:1044E0001860B84B586010201872B748C3F800A085
:1044F000036083F809E0B54810F054F90DF0E2FFCD
:1045000001990B7843F002030B70B14B1B681B78C9
:104510005B4505D1AF4BB04A1A60B04BB04ADA6088
:10452000336893F84820062A7FF44EAF93F8498009
:10453000B8F1520F00F0898600F2D880B8F1340F3C
:1045400000F0518467D8B8F1240F00F0D7842DD83B
:10455000B8F1040F00F0378215D8B8F1020F00F05F
:10456000188200F22582B8F1010F40F0A5870320E0
:104570000DF0B6FA00200DF06EFA40460DF06BFA21
:10458000142000F030BFB8F10A0F00F05A82B8F1E1
:10459000220F00F00784B8F1050F40F08D871A2034
:1045A0000DF09EFA0026DFF854821DE2B8F12C0FC0
:1045B00000F0FA841BD8B8F1280F00F0DC84B8F1C1
:1045C0002A0F00F0EB84B8F1260F40F07587854E76
:1045D00006200DF085FAB6F8CC010DF084FAB6F895
:1045E000D0010DF080FAB6F8D40100F0F9BEB8F1B0
:1045F000300F00F08F85B8F1320F00F03385B8F13D
:104600002E0F40F05987774E40200DF069FA06F1E1
:10461000400800F06FBDB8F1450F00F01B8636D89A
:10462000B8F13B0F00F0B78319D8B8F1380F00F09C
:104630008F84B8F13A0F00F02A83B8F1360F40F0BA
:104640003B87694B674E187806F12808C0EBC0001D
:10465000C0B20DF045FADFF8A89100F047BDB8F1FF
:10466000400F00F00685B8F1420F00F01285B8F156
:104670003D0F40F021875B4E02200DF031FA96F895
:104680008F020DF0E8F996F88E0200F0ACBEB8F19A
:104690004B0F00F0B48410D8B8F1470F00F08F85AD
:1046A000C0F07985B8F1490F40F0068702200DF07F
:1046B00017FA4E4B988A00F093BEB8F14F0F00F0F6
:1046C000B785B8F1500F00F0A185B8F14D0F40F05B
:1046D000F386474EDFF82C8130784FF0000900EB6D
:1046E0004000C0B20DF0FCF900F0A4BCB8F1700FAE
:1046F00000F0298300F28A80B8F1660F00F0DD81B6
:104700002CD8B8F15E0F00F032860DD8B8F15A0FF0
:1047100000F0ED85B8F15C0F00F00886B8F1540F99
:1047200040F0CA8600F091BDB8F1640F00F07981C5
:1047300000F29981B8F1600F40F0BE86294E032047
:104740000DF0CEF996F8D9010DF085F996F8EE0145
:104750000DF081F996F8ED0100F045BEB8F16C0F4F
:1047600000F0858216D8B8F1680F00F06782C0F0BB
:10477000D181B8F1690F40F09F86DFF87480002680
:1047800098F80000DFF88090400000F0FE000DF087
:10479000A7F961E2B8F16E0F00F07E8200F2A1820B
:1047A00006200DF09DF9134B18680DF0A5F9124B7A
:1047B000188800F015BE00BF482D0020643000208E
:1047C00060150020240C002048300020EECC0108A9
:1047D00020250020F04F0020EFBEADDE00ED00E010
:1047E0000400FA05B43000202C15002030240020ED
:1047F000E03600201C380020E40D0020D1C601085E
:10480000242500200C33002080120020B8F17D0FF9
:1048100000F043855BD8B8F1750F00F0B0823ED848
:10482000B8F1730F00F0438300F2AE80B8F1720F5D
:1048300040F04286D94E16200DF052F9B6F84802E3
:104840000DF051F9B6F8D0000DF04DF9B6F8D200E0
:104850000DF049F9B6F8D4000DF045F9B6F89C0210
:104860000DF041F900200DF0F6F800200DF0F3F8FE
:1048700000200DF0F0F896F823020DF0ECF896F811
:1048800044020DF0E8F800200DF0E5F8B6F9F0313B
:104890000A2093FBF0F080B20DF025F95CE3B8F14B
:1048A000780F00F04681B8F17C0F00F0E784B8F192
:1048B000770F40F00186DFF81483002698F8000097
:1048C0000DF00EF9DFF808A3DFF80893E5E2B8F180
:1048D000A00F00F005833FD8B8F17F0F00F02784C8
:1048E000C0F0F684B8F1960F40F0E6850F200DF089
:1048F000F7F8AB4B18880DF0F6F8AA4B188880B281
:104900000DF0F1F8A84B1B68C3F3C000C3F380029D
:10491000800040EA4200C3F340021043C3F3401258
:1049200040EAC20003F0100318430DF0DCF80CF06D
:10493000BFFF0DF0E1F8994B93F89C040DF08BF854
:104940009A4B18886428A8BF64200DF0CCF8022088
:104950000DF081F8964B23E2B8F1F10F00F0488199
:10496000B8F1FE0F00F0AE82B8F1F00F40F0A48570
:104970008A4E04200DF0B4F8B6F8F4010DF0B3F847
:10498000B6F8F20100F02CBD4FF000094FF0010B1A
:1049900055E204200DF0A4F8DFF83C82002618F858
:1049A000060001360DF057F8042EF8D100F039BD9D
:1049B00003200DF095F803200DF04DF800200DF0C8
:1049C0004AF800F045BC06200DF08AF8DFF80C82AA
:1049D000002618F8060001360DF03DF8042EF8D137
:1049E000744B187800F0FCBC18F8060001360DF086
:1049F00032F80B2EF8D1DFF8E881002618F806000F
:104A000001360DF028F8082EF8D1DFF8D8810026FD
:104A100018F8060001360DF01EF8072EF8D100F048
:104A200000BD07200DF05CF8E7200DF014F85B4B9B
:104A300058790DF010F800200DF00DF8042000F06A
:104A40001ABC5D4811F04EFC5FFA80F840460DF04C
:104A500047F85A4EB044B04500F0E38416F8010F11
:104A60000CF0F9FFF7E70B200DF03AF84C4B1888E3
:104A70000DF039F84B4B188880B20DF034F84A4BE2
:104A80001B68C3F3C000C3F38002800040EA420009
:104A9000C3F340021043C3F3401240EAC20003F0E4
:104AA000100318430DF01FF80CF002FF0DF024F86E
:104AB0003A4B93F89C0400F096BC12200DF010F8CD
:104AC0003F4BDFF824911B890026B3F5007F94BF8C
:104AD0004FF001084FF0040859F82600013690FB0A
:104AE000F8F080B20CF0FFFF032EF5D1354E308880
:104AF0000CF0F9FFB0880CF0F6FF3089324E0CF064
:104B0000F2FF30880CF0EFFFB0880CF0ECFF30893A
:104B100000F066BC10200CF0E3FFDFF8D080002628
:104B200018F8060001360CF096FF102EF8D100F0B0
:104B300078BC1A4E70200CF0D3FFB0464FF0000A3C
:104B40004FF00E09B6F856010CF0CDFFB6F858013B
:104B50000CF0C9FFB6F85A010CF0C5FF96F85C01DD
:104B60000CF079FF96F85D010CF075FF96F85E0188
:104B70000CF071FF96F85F010CF06DFF09FB0A83E2
:104B80000AF1010AD3F860010CF0B6FFBAF1080F80
:104B900006F10E06D6D100F044BC00BFB4300020B0
:104BA0008E2B0020B0300020282400200C10002084
:104BB000382D0020A92300200A36002009360020C5
:104BC000AC2300205C1300204C380020492D00202D
:104BD0004A2D002074A7010826CD01082BCD01081D
:104BE000C8C6010892C60108D80D0020400C00205C
:104BF00070200CF075FFC44E06F1700896F8E600C0
:104C00000CF029FF96F8E7000CF025FF96F8E80075
:104C10000CF021FF96F8E9000CF01DFF96F8EA0071
:104C20000CF019FF96F8EB000CF015FF073696F81C
:104C3000E5000CF010FFB045E0D1F2E310200CF0DD
:104C40004FFFDFF80483002618F8060001360CF049
:104C500002FF102EF8D1E4E398F800309E4280F075
:104C6000E08339F816000CF03EFF0136F4E7A74E5A
:104C700006200CF035FF30880CF035FF70880CF002
:104C800032FFB6F904300A2093FBF0F024E0042050
:104C90000CF026FF9E4B2FE107200CF021FF9D4BCF
:104CA0001888FF28A8BFFF20C0B20CF0D4FE9A4B92
:104CB000186880F3100080B20CF015FF974B18882D
:104CC0000CF011FF904B93F82322954B18682AB1F2
:104CD0000A23584380F3100080B281E300F30F00F1
:104CE000FAE7904E0C200CF0FBFE3368B0461878C3
:104CF0000CF0B1FE33684FF0000998780CF0ABFE71
:104D0000D8F80030874E4B44587909F101090CF06E
:104D1000A2FEB9F1030FF3D13368187A0CF09BFEB1
:104D20003368D8780CF097FE336818790CF093FE4E
:104D3000336858890CF0D7FE3368587A0CF08BFE34
:104D4000336858784FE31E200CF0CAFEDFF8DC8190
:104D50000026D8F80030334458780CF07CFED8F8A0
:104D600000303344D87A0CF076FED8F80030334463
:104D7000587D01360CF06FFE0A2EEAD151E32F2048
:104D80000CF0AEFE684E16F8010F002800F04983C3
:104D90000CF061FEF7E701200CF0A2FE634B1B68EC
:104DA000187820E350200CF09BFE574E4FF00C0972
:104DB00006F150085E4A96F89D34043609FB032339
:104DC00093F838000CF047FE96F89A040CF043FE76
:104DD00096F89B040CF03FFE96F89C040CF03BFE0A
:104DE000B045E7D11DE35A200CF07AFE464E06F19D
:104DF0005A0896F8F2040CF02EFE96F8ED040CF02A
:104E00002AFE96F8EE040CF026FE96F8EF040CF05D
:104E100022FE96F8F0040CF01EFE063696F8EB041F
:104E20000CF019FE4645E4D1FBE2BBF1000F00F0A7
:104E3000F8825FFA89F00CF053FE4FF0000B002669
:104E40003C4B1B789E42F0DA3B4B0021F05C4FF06C
:104E50000C0E0EFB01F313F807C0844503D001319B
:104E60001F29F6D10CE0324A1344D3F834A050463F
:104E700011F038FA0146BBF1000F00F0F2828944CC
:104E80000136DDE700FB02F313F807E08E4500F082
:104E9000F58201321F2AF5D1013698F800309E4282
:104EA00080F0BF8216F80A1000220C20EAE70820E2
:104EB0000CF016FE0126F0B201360CF0CCFD092EE6
:104EC000F9D1AEE208200CF00BFEDFF8808000265E
:104ED00038F8160001360CF006FE042EF8D1A0E2D8
:104EE0000C200CF0FDFD154B18680CF005FE144B62
:104EF00018680CF001FE134B1868BCE104200CF09C
:104F0000EFFD014B9868B6E1B43000205413002047
:104F1000F43700202C120020983900209C39002002
:104F2000F80D00200410002073A7010810130020C2
:104F300074A70108492D00204A2D0020E8F7FF1F23
:104F4000ECF7FF1FF0F7FF1FD02E00200412002007
:104F500004200CF0C5FDDA4E96F816020CF07BFD2D
:104F600096F81A020CF077FD96F819020CF073FD12
:104F700096F81B0237E2D24E07200CF0B1FDB6F8CE
:104F80001E020CF0B0FDB6F820020CF0ACFD96F855
:104F900022020CF060FDB6F8240221E201200CF0A0
:104FA0009FFDC74B58791EE2C54E10200CF098FDAE
:104FB00096F840020CF04FFDB6F84C020CF093FD51
:104FC000B6F848020CF08FFDB6F84A020CF08BFDE3
:104FD00096F842020CF03FFDB6F854020CF083FD47
:104FE000B6F856020CF07FFD96F84E020CF033FD39
:104FF00096F84F020CF02FFDB6F85202F0E1B04ED9
:1050000008200CF06DFD96F89A020CF024FD96F83D
:105010009B020CF020FDB6F89C020CF064FD96F8A3
:105020009E020CF018FDB6F8A0020CF05CFD96F89C
:10503000A202D8E1337808F10208994580F0F181A5
:1050400018F8020C0CF007FD18F8010C09F1010921
:1050500000EB800000EB800000F2EE2080B20CF04C
:1050600042FDE7E701200CF03BFD954B93F844022D
:10507000B9E108200CF034FDDFF84482002606EB8D
:10508000080393F8380201360CF0E5FC082EF6D13F
:10509000C7E18B4E10200CF023FD70790CF0DBFC87
:1050A000B0680CF029FD96F840020CF0D4FCB6F87C
:1050B000CC010CF018FDB6F8D0010CF014FDB6F8D8
:1050C000D4010CF010FDB6F81E020CF00CFDB6F881
:1050D000200285E113F90920824200F0D5810C33CA
:1050E0003C2BF7D10836B04500F09B8196F9A6021B
:1050F0000023EFE7B6F864030CF0F5FC96F86603BE
:105100000CF0A9FC043696F863030CF0A4FCB0453F
:10511000F0D186E180200CF0E3FC6A4E06F18008B5
:1051200056F8040F0CF0E8FCB045F9D179E18D2078
:105130000CF0D6FC00264FF0060A0AFB06F94FF0E9
:10514000000B5FFA86F840460CF085FC5FFA8BF0A6
:105150000CF081FC5A4B0BEB0901194491F8A403A4
:105160000BF1010B0CF077FCBBF1060FEBD1013614
:10517000062EE2D1002606200CF06DFCF0B20CF0F9
:105180006AFC4F4B334493F8C80301360CF063FCC0
:105190000B2EF0D145E10D200CF0A2FC06F0F8FB3F
:1051A000494E40F00200C0B20CF055FC30880CF0C3
:1051B000A3FCF0680CF0A0FC08F0AAFA5BE00CF08D
:1051C00041FC064684200CF08BFC30460CF094FC2D
:1051D0003D4B0DF13008DA6806F1800393428CBF35
:1051E000C6EB02094FF0800907F076FF4A463046C9
:1051F000414606F0A7FC814600264E4580F211810B
:1052000018F806000CF027FC0136F6E72C4E0420B7
:105210000CF066FC01200CF01EFC96F849050CF021
:105220001AFC96F847050CF016FC96F84805DAE0EB
:105230000B200CF055FC00200CF00DFC00200CF0B5
:105240000AFC00200CF007FC11E001200CF048FCE7
:105250000020C8E013200CF043FCDFF8708000262B
:1052600018F8060001360CF0F6FB0B2EF8D10020E2
:105270000CF042FC00200CF03FFCD2E0104E062067
:105280000CF02EFCB6F8D8000CF02DFCB6F8DA00C5
:105290000CF029FCB6F8DC00A2E0094E05200CF069
:1052A0001FFC96F826020CF0D6FB96F827020CF0AD
:1052B000D2FB96F828020CF0CEFBB6F8DE008FE0A9
:1052C000B43000209433002060030020D1C60108D0
:1052D000C94E03200CF004FC96F8C7010CF0BBFB90
:1052E00096F8C8010CF0B7FB96F8C9017BE0C24EF6
:1052F00006200CF0F5FBB6F8DC3123B108200CF0E9
:10530000AAFB012005E096F8DE010CF0A4FB96F85C
:10531000EA010CF0A0FB96F8E5000CF09CFB96F877
:10532000E4000CF098FBB6F8E00059E0DFF8C88222
:10533000B24E0D200CF0D4FB98F8E0010CF08BFB82
:105340003368188C0CF0CFFB3368588C0CF0CBFB17
:10535000B8F8E2010CF0C7FBB8F8E4010CF0C3FBAD
:105360003368988C0CF0BFFB3368D88C38E0A34EC0
:1053700011200CF0B5FB3368588D0CF0B4FB33688A
:10538000988D0CF0B0FB3368D88D0CF0ACFB336813
:1053900093F828000CF05FFB336893F831000CF0B1
:1053A0005AFB336893F837000CF055FB336893F8D9
:1053B00038000CF050FB336893F833000CF04BFBD3
:1053C000336893F834000CF046FB336893F83600EA
:1053D0000CF041FB3368988F0CF085FB3368588FD5
:1053E0000CF081FB1DE00CF036FB1AE040F22C843F
:1053F000B8F1D00F00F04684B8F1D20F40F016811A
:105400000CF00AFB020600F14A847D4B1B785B0717
:1054100004D4022828BF002003F054F900200CF027
:105420005FFB0CF029FB2368002283F84820754BB2
:10543000754C186803F03CF894F82C305BB1734B52
:10544000585907F061FA0EF0C4FF002384F82C309D
:105450006F4A704BDA604C35982D00F00786FEF7E6
:105460009ABFD046CAEB08008842BFF609AD18F8CB
:10547000010B01910CF0EFFA0199F3E74B4493F81B
:1054800038000CF0E8FA07E5C0B20CF0E4FAB6F820
:10549000A8020CF028FB96F8AA020CF0DCFA96F8A9
:1054A000AB020CF0D8FA96F8AD020CF0D4FA96F8EC
:1054B000AC020CF0D0FA15E6B8F15B0F15D10CF088
:1054C000ABFA4D4E86F8DE010CF0A6FA86F8EA013A
:1054D0000CF0A2FA86F8E5000CF09EFA86F8E400DB
:1054E0000CF0A6FAA6F8E00098E700F26082B8F1A6
:1054F000370F32D15B794FF00708B3FBF8F8C8EBF0
:10550000C8029B1A13F0FF0F02D00BF02FFD85E7A6
:105510005FFA88F8B8F1000F80D00CF07DFA4FFAEE
:1055200080F9484607F082FA06460028EDD080F858
:1055300000900CF07DFA70800CF06EFA30710CF077
:105540006BFA70710CF068FAF0710CF065FA08F102
:10555000FF385FFA88F8B071DCE700F22881B8F113
:105560002B0F04D10CF058FA234B587156E700F278
:105570008680B8F1250F08D11F4E0023B3600CF0D0
:1055800061FAB3681843B06048E752D8B8F10B0F1E
:1055900019D111220021204814F062FEDFF8589042
:1055A0004FF0000833685B79102B28BF1023984513
:1055B000BFF434AF0CF030FA08EB090383F856055A
:1055C00008F10108EEE7B8F1230F2FD10CF024FA0F
:1055D0001328064699D80CF01FFA00220C2101FB73
:1055E00002F307EB030E9EF808E0864500F0C9843D
:1055F00001321F2AF3D188E7B430002010130020B5
:10560000482D00206C2D0020240C00201C3600208A
:105610000400FA0500ED00E00A360020B8F1FA0FA8
:1056200004D1CD4B1B785A0740F133830BF09EFC1D
:10563000F7E6B8F1270F0DD10CF0FAF9C74EC6F80E
:10564000CC010CF0F5F9C6F8D0010CF0F1F9C6F870
:10565000D401E3E6B8F1290FE8D10CF0E9F9BF4E27
:10566000A6F81E020CF0E4F9A6F820020CF0D4F91A
:1056700086F822020CF0DCF9A6F82402CEE6B8F196
:10568000310F14D10CF0C8F91F2806463FF63DAF84
:1056900023685B79052B7FF438AF0CF0D3F9AF4B5F
:1056A00003EB8603C3F8E40210F08EF8B6E64BD89D
:1056B000B8F12D0F32D10CF0AFF9A84E86F84002A8
:1056C0000CF0B6F9A6F84C020CF0B2F9A6F84802B4
:1056D0000CF0AEF9A6F84A020CF09EF9236886F8A1
:1056E00042025B79082B07D90CF0A2F9A6F8540204
:1056F0000CF09EF9A6F8560223685B790C2B7FF616
:105700008DAE0CF089F986F84E020CF085F986F81A
:105710004F020CF08DF9A6F852027FE6B8F12F0F78
:1057200084D18E4E06F140080CF082F9A6F864038D
:105730000CF072F986F866030CF06EF9043686F800
:1057400063034645F0D169E6B8F1330F05D10CF09B
:1057500063F9824B83F8440260E6B8F1350F7FF4B9
:1057600065AF0CF059F90E2880463FF6CEAE0CF02E
:1057700053F903283FF6C9AE784B062606FB0836D8
:1057800086F8F2040CF048F986F8ED040CF044F9C0
:1057900086F8EE040CF040F986F8EF040CF03CF9C2
:1057A00086F8F0040CF038F986F8F10436E6B8F122
:1057B000440F04D16A4B012283F82C202EE672D8C4
:1057C000B8F13E0F09D10CF027F9644E86F88F022C
:1057D0000CF022F986F88E0220E62CD8B8F1390FA9
:1057E00011D10CF019F95D4E86F816020CF014F97F
:1057F00086F81A020CF010F986F819020CF00CF970
:1058000086F81B020AE6B8F13C0F7FF40FAF554E45
:10581000D6F800800CF000F90128A8BF012088F814
:10582000000033681B78012B18BF4F4A4F4B08BF4D
:105830004F4A1A60F2E5B8F1410F0CD1DFF81C8134
:1058400000260CF0E9F806EB08030136082E83F871
:105850003802F6D1E2E5B8F1430F7FF4E7AE0CF081
:10586000DBF83E4E0023B36070710CF0EBF8B368C8
:105870001843B0600CF0D0F886F840020CF0D8F86D
:10588000C6F8CC010CF0D4F8C6F8D0010CF0D0F872
:10589000C6F8D4010CF0CCF8A6F81E020CF0C8F83B
:1058A000A6F82002BAE5B8F14C0F19D10CF0B4F803
:1058B0002A4E86F89A020CF0AFF886F89B020CF09C
:1058C000B7F8A6F89C020CF0A7F886F89E020CF038
:1058D000AFF8A6F8A0020CF09FF886F8A2029DE5AA
:1058E00013D8B8F1480F09D106F056F9214A002320
:1058F0001370214A1370214A13608FE5B8F14A0FE3
:105900007FF494AE0CF094F888E5B8F14E0F37D1DF
:105910000CF082F8112880463FF6F7AD0CF07CF8C9
:105920000E4E08F5967806F818000CF081F840F253
:10593000ED23984205DD40F6CA039842A8BF1846F9
:1059400001E040F2EE20A0F2EE20192390FBF3F0EC
:1059500006EB4806707061E5482D0020B430002049
:10596000240C00201013002025BE00088403002012
:105970004DC10008091300200A1300200C13002059
:10598000B8F1510F7FF452AEDC4B1B78012B3FF680
:1059900045AD0CF041F8DA4E86F849050CF03CF8BC
:1059A00086F847050CF038F886F8480536E5B8F172
:1059B000D30F04D10CF03CF8D24B18802EE500F246
:1059C0007781B8F1CC0F51D15B79092B7FF69DAD72
:1059D000CD4ED6F800800CF01FF888F80000D6F8FD
:1059E00000800CF019F888F802000CF015F8336804
:1059F0006428A8BF642058710CF00EF8336864283E
:105A0000A8BF642098710CF007F83368FF28A8BF7E
:105A1000FF20D8710CF000F8D6F80080642828BF69
:105A2000642088F808000BF0F7FF88F80300D6F828
:105A300000800BF0F1FF88F80400D6F800800BF02E
:105A4000F7FF2368A8F80A005B790A2B05D9D6F876
:105A500000800BF0E1FF88F8090023685B790B2BCD
:105A60007FF6DCAC36680BF0D7FF73E700F2B2804C
:105A7000B8F1610F0DD10BF0CFFFA14E86F8D9011F
:105A80000BF0CAFF86F8EE010BF0C6FF86F8ED01B9
:105A9000C4E479D8B8F15D0F2AD10BF0BDFF9B4E5D
:105AA000DFF85C82D6F8009088F8E0010BF0C0FFC8
:105AB000A9F82000D6F800900BF0BAFF2368A9F8E7
:105AC00022005B79052B7FF6A9AC0BF0B1FFA8F89B
:105AD000E2010BF0ADFFA8F8E401D6F800800BF06E
