:020000040800F2
:1000000000A00020D56F0108B5100108595801085B
:10001000B3100108B1100108AF1001080000000082
:10002000000000000000000000000000AD1001080A
:10003000AB10010800000000A9100108D537010825
:100040003D7001083D7001083D7001083D700108D8
:100050003D7001083D700108130D01081D0D0108D8
:100060001B0D0108190D0108170D0108697F000813
:10007000597F0008497F0008397F0008297F000860
:10008000157F0008017F00083D7001083D700108E0
:100090007D1101083D7001083D700108150D010832
:1000A000C1340108FD340108B134010825350108C7
:1000B000F1340108E1340108D13401083D70010830
:1000C0003D7001083D7001083D7001083D70010858
:1000D0003D7001083D7E0008317E0008257E000845
:1000E000110D01083D7001089B1001083D700108C9
:1000F0003D7001083D7001083D7001083D70010828
:100100000000000000000000000000003D70010839
:100110003D7001083D7001083D7001083D70010807
:10012000ED7E0008D97E0008C57E0008B17E00087B
:100130009D7E00083D7001080000000000000000E6
:100140003D7001083D7001083D700108000000008D
:10015000000000000000000000000000000000009F
:1001600000000000000000003D7001083D70010823
:100170003D700108000000000000000000000000C9
:08018000000000003D700108C1
:100188002DE9F04FA34BA44A2DED088B1A60A34B21
:10019800ADB000221A600BF093FB18B90BF0A6FF64
:1001A80010F0BEFE0BF0B0FB9D4A137843F001033C
:1001B80013709C4A9C4B116899424FF0000309D177
:1001C800136062B6994B1B6883F30888984B1B68C9
:1001D8009847FEE7974A984C4FF47001C2F8881088
:1001E8000A930B93236843F480332360236803F452
:1001F80000330B930A9B01330A930B9B1BB90A9B91
:10020800B3F5A04FF2D1236813F4003318BF0123CC
:100218000B930B9B012B52D0DFF81882874BC8F841
:100228000C30874F666A3E60636A43F0807363628E
:10023800636943F4FC032CAD636103238DF86230DA
:1002480041F6FF7325F8503D4FF09040294607F0DE
:10025800F7FD4FF6FF7329467A48ADF8603007F08E
:10026800EFFD2946784807F0EBFD2946774807F067
:10027800E7FD2946764807F0E3FD2946754807F06B
:10028800DFFD28460AF0D8FF734A189BB3FBF2F348
:10029800724A00211360381D102219F019FB704AA8
:1002A800704B5360F02388F82330072100239360B4
:1002B800DFF8E0E111604FF0010C6B4928E06B4B6F
:1002C80012221A606368636063686360636843F45A
:1002D80080636360636823F47C136360636843F43A
:1002E800E8136360236843F0807323602268524BED
:1002F8009501FBD55A6822F003025A605A6842F009
:1003080002025A60636803F00C03082BFAD183E7F2
:1003180098023EF8135000F19040002245FA02F886
:1003280018F0010F18BF0CFA02F802F101021EBF03
:100338000860A1F804800C31102AEFD10133062B94
:10034800E6D14B4D4B4B95F8EB21DFF84C911A70E9
:100358000020AB68C9F8003013F0AEFB464A92F8AB
:1003680000B000234FF0170A0BEB0301434A52F881
:10037800210003F1010840B1022380F806A0C371EF
:1003880080F80880012110F07FFB4346032BEBD156
:10039800002013F091FBA369394843F00103A361DE
:1003A8004022002119F094FA364B4FF0FF321A60C0
:1003B800C3F80320D9F800301C0711D595F840324E
:1003C800012B0DD816F0805600F0768608E093F8D9
:1003D8004322012A04D1002283F8422210F04EFE63
:1003E800642013F0B3F94FF48C7200212648274E8D
:1003F80019F06EFA0024B046A1590023244850F899
:10040800330081424FEAC30248D108EB020393F854
:10041800D00047E0F0200020BDB80008F4200020FC
:10042800DD3E0020FC9F0020EFBEADDE00D8FF1FA0
:1004380004D8FF1F00ED00E0001002400005FA0597
:10044800B00500200004004800080048000C0048DF
:10045800001000480014004840420F00F03400200B
:1004680010E000E03F190100F834002000200240AD
:10047800C0360020E21F002094B8010898B801088F
:10048800B8300020BC310020203300202C9A01080D
:10049800F89A01080CB80108A423002001330A2B9C
:1004A800ACD100200C3413F099F9CC2CA4D16F4CAA
:1004B80004F1CC06207910F057FA0C3414F8032C08
:1004C80014F8041C10F0A4FAA642F3D1684BDFF824
:1004D800C881684AD9F800401A604FF005093C22E3
:1004E8000021654888F8009019F0F2F9002240468A
:1004F800DFF8A8C1DFF880814B4604F04006964635
:100508004FF0FF091CF9011F02F8081002EB080A56
:1005180056B91E39C9B201299FBF03F1FF338AF8C2
:100528000090DBB24FF0010E0C323C2AEAD1BEF14A
:10053800000F00D00370514B95F8058083F80080B8
:100548004F4B50497B61A00603F1D8030B6058BF9D
:100558004D4B4E4A56BF03EBC80301235B789361AA
:100568004B4A002340F2DC5122F813100133082BC8
:10057800FAD100211C2211A819F0AAF9A1050AD55F
:100588002022212301213A777B778DF850108DF8AE
:100598005E208DF85F30B8F10E0F04D008F0EF0838
:1005A800B8F1080F02D101238DF8583001200EF060
:1005B8008BFA18B14088003018BF012000F0010004
:1005C8008DF8490002200EF07FFA18B140880030FB
:1005D80018BF0120C4F340038DF84C30C4F34033F6
:1005E80000368DF84430C4F3C03318BF012600F03C
:1005F80001008DF8473014F400638DF84A008DF837
:100608004E6004D095F822325A1E534253418DF859
:100618004830C4F300438DF84F30C4F3C0038DF85D
:100628004630BB69003318BF01238DF85130C4F33D
:1006380000538DF85230B5F8D230ADF85630B5F8D1
:10064800E030ADF8543095F8E33004F001088DF847
:10065800458004F008061BBB0E4B93F8E23013F0FC
:10066800FB0F0CBF012300231BE000BF2C9A0108DD
:100678008C3C002064390020903C0020FC0E0020B7
:10068800CC360020B43400204CA50108B005002069
:1006980024100020C0360020341000201DA10108BD
:1006A800012395F8E220079312F0FB0F14BF0121F4
:1006B80000218DF84D108DF8592013B1A94BB3F8CE
:1006C800DE30ADF85A30B5F8D030ADF85C30E30420
:1006D80042BFA44BB3F8DA30ADF85C30042A06D137
:1006E8004FF4805010F0F4FB0023ADF85C309E4BC3
:1006F80095F88C221A70002164229C4819F0E8F8B9
:100708009DF85830002B14BF02220022B8F1000FC8
:1007180000D106B10132964B954CDFF8808203EB8D
:100728008203D3F81C319A1E2033089300230592C4
:1007380003930493059B33F8022F05934FF6FF7339
:100748009A4200F0D0819DF84A10D3B2120AD7B26B
:1007580039B10C2101FB034109792A39012940F2F9
:10076800BD819DF84E1031B10C2159436058814923
:10077800884200F0B3819DF84F1059B10C215943BC
:10078800601865587C498D4200F0A88101791829C4
:1007980000F0A4819DF84C1031B10C2101FB0341FC
:1007A8000979142900F09A819DF8471031B10C217C
:1007B80001FB03410979222900F090819DF8481036
:1007C80031B10C2101FB03410979152900F086811B
:1007D8009DF8501069B10C2101FB03419DF85E00A2
:1007E8000979884200F07A819DF85F00884200F01C
:1007F8007581022A02D19DF8442003E0012A04D120
:100808009DF84520002A00F069819DF851206AB1C1
:100818009DF8582052B9A3F10E02012A06D80C22DD
:100828005A43A158554A914208BF04279DF85220BF
:100838000C2505FB034532B19DF858201AB91A1F3B
:10084800032A40F22C81012F43D14FF00C0B0BFBF4
:1008580003FB04EB0B0954F80B3003930026484BB9
:1008680099F8040088F82060FF22C8F82C501E7000
:100878005E609E60DE601E6483F8442083F8452035
:1008880083F8466083F8476083F8486010F06CF896
:1008980002228271C771067299F8081010F0F4F8F4
:1008A800324699F80510039808F074FD3A46314627
:1008B800284612F0E3FE334B334AC8F83030334B46
:1008C800C8F83430C8F83860111F284612F02EFED8
:1008D80004E1022F64D19DF8102009921C264FF0E4
:1008E8000C0B0BFB03FB06FB02F108EB010704EB07
:1008F8000B064FF0010A4FF0000987F821203079E4
:1009080087F8229087F82A9087F820A0FD62069140
:1009180010F02AF8099A80F806A05244027280F86A
:1009280007A0317A10F0B0F84A46717954F80B00F4
:1009380008F030FD52464946284612F09FFE144BF7
:100948003B63144B7B63069BC7F8389003F1100197
:10095800114B19440A1D284612F0E8FD049B534424
:100968000493BBE0C0360020C81E002038100020C9
:100978002C9A010800040040002C0140004001406E
:1009880074170020298C0008E4050020858D0008D4
:10099800D9930008038C0008D0050020B00500207A
:1009A800032F7AD19DF8452072B19DF859205AB18C
:1009B8004FF00C0B0BFB03FB039954F80B308B42E5
:1009C80002D1284608F0D1FC9DF84D309DF85920F9
:1009D800B14EBDF85A0073B3022A96F801A0BDF8CB
:1009E8005C3009D0032AAD4AAD4F0EBF4FF0480E18
:1009F80017464FF0080E02E0AA4F4FF0180E5FFAA4
:100A08008EF1DFF8AC9230B1A74A02FB0EF2B2FBCE
:100A1800F0F292B202E003464FF6FF72284610F059
:100A280059F849F82A0059F82A30DF60B3781922B2
:100A380006EBC30327E0042A777811D19B4AB2FB5F
:100A4800F0F2182192B2284610F044F8984B43F877
:100A58002700984BC360B3780D2206EBC30312E05E
:100A6800BDF85C30904AB2FBF0F2012192B2284600
:100A780010F030F88E4B43F827008F4BC360B378E3
:100A8800092206EBC3035A71B378727806EBC301E7
:100A98000A7101328D6072701EE0042F1ED17E4EE5
:100AA800BDF85420B378377806EBC30301211F71D2
:100AB80028467D4B93FBF2F2BDF8563092B210F007
:100AC80009F87E4B43F82700B37806EBC3020A21E6
:100AD80051713278013232700133B370089B059A34
:100AE80093427FF427AE079B754F83F00102754B45
:100AF8001A70754B1E78A6F117030024022B3C7060
:100B08001DD8DFF8C8C1DFF8F4E1DCF8143023445D
:100B1800D3ED007AF5EE407AF1EE10FA03D16B4D81
:100B2800AB6963BB24E00FCB04EB0E0585E80F002F
:100B38003B7810340133C02C3B70E6D1EFE7644BAF
:100B480013F836E087F800E003EBC603D3F804C0D7
:100B5800BCF1000FE3D0DFF8A4817445DFDA23018C
:100B680003EB080563440FCB013485E80F00F4E775
:100B7800584B03931A6812F4805F26D11FE0564B36
:100B8800564A13F83600107003EBC6035C68002C55
:100B9800EED0DFF86CE100238342E9DAC3EBC3014E
:100BA800621801EB0E0CD2F8008041F80E80918893
:100BB800ACF8041092798CF806200133ECE706F0C3
:100BC800EF03082B464B1FD120E03A78012AF6D9CB
:100BD800444B03EB02121032F6EE007A10339A42BD
:100BE800EDD013ED047A27EE277A03ED047A13ED9E
:100BF800057A27EE277A03ED057A13ED037A27EEB7
:100C0800277A03ED037AE9E70E2E08D11A7842F025
:100C180010021A70182E08D112F086FB05E01A7817
:100C280022F010021A70192EF5E72F4C12F05EFB15
:100C380023783F2043F0040323700FF095FE2B4ADE
:100C4800059410602A4A0121117038B1112282716D
:100C58000222C271002202720FF016FF254C0020FA
:100C680008F094F9207E12F0B9FD237E03F01F01ED
:100C78005B090122022B02FA01F208D0032B41D0B2
:100C8800012B43D11C498B6A1A438A623EE01A49F8
:100C9800CB681A43CA6039E038100020758F000805
:100CA800118F0008498F000840420F0000366E017E
:100CB800D4320020C58D0008B58D0008CC1E002058
:100CC8003B2400201C330020FC0E0020B00500202F
:100CD8004CA50108A4230020ECA101084034002001
:100CE80065170020240E0020DD3E0020C4170020D8
:100CF800C817002008050020001002401C0E002024
:100D080041340020AA490B691A430A61607D0FF03B
:100D18002BFE0C260B230227C37186710772E07D18
:100D28000FF022FE4FF00D08867180F807800772D9
:100D3800A07D0FF019FE8671C6710772607D0FF0F5
:100D480013FE627E0E210FF063FEE07D0FF00CFEB5
:100D5800627E0E210FF05CFEA07D0FF005FE627E24
:100D68000E210FF055FE207D30B10FF0FDFD914BA7
:100D780041465A7E0FF04CFE22698F4B9A420AD1A7
:100D880003F56043D96841F48051D960D96821F4EA
:100D98008051D96019E0894B9A4209D103F5EC33A7
:100DA800196941F480411961196921F480410BE006
:100DB800834B9A4209D103F5EA33196941F400419A
:100DC8001961196921F400411961237F13B10023C6
:100DD800184601E001230220918821F4805109047A
:100DE800090C9180918889B241F4805191802269DF
:100DF800118801F4415141F445710B4303431380B9
:100E0800938823F470631B041B0C43F4E063938002
:100E1800938B23F400631B041B0C93830723138217
:100E2800226913889BB243F040031380207D18B1D8
:100E38000FF09AFD0FF0C1FD039B1B6803F41073BC
:100E4800B3F5107F67D026200FF08EFD07462720C8
:100E58000FF08AFD564C0646752012F0BFFC236B36
:100E680023F010032363236B43F0100323634FF035
:100E780001084FF00D09092387F80690FB7187F8E0
:100E88000880384604221E210FF0C2FD0A2386F886
:100E98000690F37186F80880304604221E210FF070
:100EA800B7FD484B484E1A6822F001021A601968CB
:100EB800464A0A401A60464A1A611A68002142EAFC
:100EC80008021A609960D96099609A6842F40042F1
:100ED8009A601A681A605A6822F0784222F400422E
:100EE8005A601A6822F400321A601A6842EA080244
:100EF8001A60039B1427D3F800A03A46304618F02E
:100F0800E7FC1AF0020F0AF400490AF400683046B8
:100F180018D0377016E02F492F4C0A78002318464E
:100F2800FF261F571F2F04BF1E5502F1FF3203F182
:100F38000C0304BFD2B201203C2BF2D1002882D08E
:100F48000A7080E7B9F1000F01D022234371B8F18C
:100F5800000F01D01523C373204EDFF888A04FF08F
:100F68000F0900274FF0060816F8010C002847D093
:100F78000FF0FAFC4FF0000B80F8068080F807901D
:100F880080F808B016F8010C0FF0EEFC13210FF0F2
:100F98007BFD16F8011C5B46114810F813008842C7
:100FA8004FEA430220D10AEB020393F82D311FE0E8
:100FB80000100240080500200030014000380040C1
:100FC800003C004000540040C41F0020FFE0CF0058
:100FD800300E500034100020903C0020C51F002027
:100FE800589B01082C9A01080133272BD4D10023E0
:100FF80007223370F2707B1C01227770B270DFB267
:1010080009F101095FFA89F9B9F1130F06F105062B
:10101800AAD1E36A23F4F873E362E36A43F4D8736A
:10102800E3623C2012F0DAFB212012F0D7FB7E4865
:101038007D4C0AF088F818A80AF05AF87B4B1893E8
:101048007B4B1993022F4FF0000334BF1A468022BE
:101058001D924FF480721E924FF480621F922022DC
:101068002046209218A94FF400521A931C932192FB
:101078002293ADF86C700AF048F8236843F0010336
:1010880023606C4CA36823F04053A360A36843F02B
:101098008053A3600A2012F059FBA36823F0804311
:1010A800A360A368A360A36843F00043A360A36898
:1010B800604A002B38DAFAE75F4B93F84232013B7B
:1010C800092B3FF68DA92B200FF04EFC18238371B6
:1010D8000223C371044606720121C7F8A8040FF061
:1010E800D3FC204601210FF06DFC3C2012F02EFBB2
:1010F80095F84222504B9642BFF669A9002012F09B
:10110800DBFC002120460FF05DFC782012F0FCFA91
:10111800012012F0D1FC012120460FF053FC782069
:1011280012F0F2FA0136E3E79368444923F040539A
:101138009360936843F0005393608868404B034082
:1011480043F468338B60D1683E4B3F480B4043F40F
:101158000053D360136B013F23F00F031F43176342
:1011680000F1140801234FF0380C4FF0070B4FF033
:10117800060E1F24C178002978D05E1C042B417804
:101188000779F6B20ED803EB4303D2F830905B0030
:1011980004FA03FA29EA0A0901FA03F343EA0903FC
:1011A80013632FE0092B0ED8053BD2F834900EFBC1
:1011B80003F304FA03FA29EA0A0901FA03F343EAF2
:1011C800090353631EE00E2B0ED80A3BD2F8389061
:1011D8000EFB03F304FA03FA29EA0A0901FA03F3F6
:1011E80043EA090393630DE00F3BD2F83C900EFBF2
:1011F80003F304FA03FA29EA0A0901FA03F343EAB2
:101208000903D363092921D90A399369936901EB41
:1012180041010BFA01F923EA09039361936907FA7B
:1012280001F11943916120E0080402404001005097
:10123800D81F002000010050C036002000030050D5
:10124800E010FCFF07C0FFFDC41F002001395369EF
:10125800536901EB41010CFA01F923EA09035361CF
:10126800536903318F401F4357613346053040456A
:1012780080D1B24B9A6842F001029A601A4611680E
:10128800AE4BCF07FBD5DA68AD4C22F00202DA602C
:10129800DA6842F00202DA60DA6842F00102DA60E3
:1012A8009A6842F004029A60D4F8C831002B41F0E1
:1012B8005B80D4F8CC21002A41F05680D4F8D021A4
:1012C800002A41F05180039B1B689E031BD5C82050
:1012D80012F03CFAAE2014F005FB08B113F02EFB17
:1012E800984E85F80001C82012F030FA00233360C8
:1012F8007360B3600223F37009F0A6F912F0E8F9FD
:10130800914B0344B360DFF87482B4F9F031DFF82D
:10131800509204930026B4F8D831C8F80060182217
:101328003146C8F80460C8F808608848069394F8FD
:10133800D5A194F8EE7194F8DAB118F0C9FA3146EB
:101348001822A5F8016109F5827018F0C1FA804ADF
:10135800C5F81C21232012F0F9F90CAA01217520E7
:1013680006F05EFA80B37B4AC9F808217A4AC9F8C0
:101378000C21432289F80421012118AA304606F0DD
:101388004FFA9DF8602002F07E028DF8602040B18F
:10139800682A06D1012289F801211D2289F8042131
:1013A80012E09DF8303003F07E03682B8DF8303062
:1013B80005D1022385F8013106F0F1FC04E0702B19
:1013C80004BF042385F8013195F801216349644E6F
:1013D8000023022A0B7040F087815C4B614818603B
:1013E800614858606148D860614818616148027076
:1013F800614A04230B70116841F0010313604FF038
:10140800010C53460B2B28BF00230CFA03FE40F2B5
:10141800B2750EEA0505BDB91EF04D0F14D0574B35
:10142800574D1D60574D5D6096F80231002B14BF73
:101438006E236F2388F80A30534B04251D7003234D
:1014480019434370116006E0012B4FF0000AD8D809
:101458004D4B83F800A0042F38D8DFE807F003408D
:101468000303030096F820713D4D002F40F0768766
:10147800142012F06BF905F221130122D0217620F5
:1014880012F036FA95F82131582B28D105F59273C8
:1014980018228821762012F02BFA3122F4217620A6
:1014A80012F0BAF9012385F82031384B384A9A608E
:1014B800384A5A6045F6D8125A80374ADA60374AAD
:1014C8001A61374A1F805A6100F048BF012F06D0C1
:1014D800284B294A9F70136843F004031360264B76
:1014E8001A6812F0020F9A4605D024484FF4807308
:1014F800038103689847069B13F0FF0007D007286D
:1015080016BF4FF47A737D234FF0010B00E07D2363
:101518000E4D0BF1FF3203FB0BF386F840216B6194
:101528002B6898471F4B1A789946002A3ED11E4BC4
:101538001A889946002A69D15FE000BF000100506F
:10154800C0360020B0110020404B4C00741F002012
:10155800A69B0108297800083F780008AC0A0020FB
:10156800B00500209D78000899740008817400086F
:1015780090C1793DCD040020882300208C230020D1
:101588000D790008E17400084C3200206C3D002001
:1015980071740008A57D000835780008DF77000819
:1015A800BB72000894200020962000206B69002B55
:1015B800BDD0DFF82CB13F4B9FED3F8A00279BF849
:1015C8000020012A0DD1069399F800303B4869693B
:1015D80000EE103A3844B8EE400A14F019FE069BA3
:1015E80007E0D5ED057AF8EE677A67EE887AC3EDFD
:1015F800007A1C37542FE2D199E7314B1B882BB95D
:1016080094F8C53163B32F4A137029E06B69002B36
:10161800F6D02D4BDFF8CCB00027B9F80020D3ED79
:10162800000A6969069300EE102A0BEB07000122F5
:10163800B8EE400A14F085FD214A2449138824484D
:10164800D1ED000A696900EE103A38440122B8EE7B
:10165800400A1C3714F075FD542F069BDDD1CFE7E7
:1016680094F8C6310BB11B4A1370DAF800301A49E6
:1016780013F0080F1AD00498049BDFED186A64224F
:1016880093FBF2F302FB130212B207EE902AB8EEB4
:10169800E77A07EE903AF8EEE77AE7EE267AB2EEC6
:1016A800047A67EE877AC1ED007A20E000230B60A8
:1016B8001DE000BF580B0020BD378635040B002005
:1016C80098200020AC0A00209C200020A0200020A8
:1016D800C00D00204C3200203C3200208988883C14
:1016E8009A2000206C0D0020012012F039F8059B8B
:1016F800059A1B78002043F00203137012F0DCF9FE
:101708000A2512F0CCF9192012F020F8D4F8AC35DB
:10171800D80302D4012007F039FC192012F016F87A
:10172800002007F033FC013DEBD1284612F0C4F944
:10173800C84B9FEDC98A1B689FEDC80A1B7BDFF861
:101748006893C74F07EE103AB8EEC77AA7EE080AB3
:1017580014F050FCC34BD9ED047A83ED000A67EE10
:10176800887AC14B9FEDC17AC3ED007AB8F808308A
:1017780007EE903AF8EEE77ABD4BC7EE276AC846FF
:101788009FEDBC7AC6EE877AC3ED007A11F00EFEA3
:10179800FF211E22384618F09BF8B74B3D700122F6
:1017A8001A70039A126812F4800F01BF022119708F
:1017B8001B2179703846B14FD7F800E01EF0020FB0
:1017C8000ED019784FF0010C00F801C001F1020C9D
:1017D8000131C9B283F800C04FF0020C00F801C013
:1017E8001EF0040F08D0197801F1010C83F800C02D
:1017F8004FF0030C00F801C01EF00A0F16D019783C
:101808004FF0040E00F801E001F1010E5FFA8EFEC0
:101818004FF0050C00F80EC001F1030E0231C9B2F9
:1018280083F800E04FF0060E00F801E0910508D5B6
:10183800197801F1010E83F800E04FF0150E00F859
:1018480001E0D10508D5197801F1010E83F800E00F
:101858004FF01A0E00F801E094F805E0BEF1080F09
:1018680002D0BEF10E0F08D1197801F1010C83F8EE
:1018780000C04FF00B0C00F801C0197801F1010C01
:101888005FFA8CFC4FF00C0912F4803F83F800C01B
:1018980000F8019009D0DFF8E091023189F80010D2
:1018A8006F494FF00E0901F80C90110308D519780B
:1018B80001F1010C83F800C04FF0190C00F801C0C9
:1018C800197801F1010C5FFA8CFC4FF01D0912F434
:1018D800805F83F800C000F8019009D0DFF8989184
:1018E800023189F800105E494FF01C0901F80C908C
:1018F800910608D5197801F1010C83F800C04FF062
:10190800070C00F801C0510708D5197801F1010C3E
:1019180083F800C04FF0100C00F801C0510308D53F
:10192800197801F1010C83F800C04FF0120C00F88F
:1019380001C0520507D594F8D02222B11A78511C5B
:10194800197013218154BEF1180F0ED11A7816217F
:101958008154511CC9B24FF0170C00F801C0D11CBA
:101968000232D2B2197000F802E0982200214448ED
:10197800DFF838A1DFF8389117F0AAFF0EF098FDCC
:10198800404B414A1A60414BB4F8DC101980404979
:10199800404800230B808B703F490A603F4A137010
:1019A800B4F848220FFA82FCD9F800102AF813C0BC
:1019B80001F5967140F823100133122BDFF8ECE0A3
:1019C800F2D1374B3749186810F4805F08BFB4F973
:1019D80054C2AEF806C0994601F1500C91F8FB3498
:1019E800FBB991F8FDA491F8FE349A4519D2BAF1E1
:1019F800000F08D00AF1FF3A0AEB8A0A0AEB8A0AB2
:101A08000AF5617306E0013303EB830303EB8303F9
:101A180003F5617391F8FCA40AF1040A9BB22EF84D
:101A28001A3004316145D9D1000740F1898194F811
:101A38004032082B00F27E81DFE813F009003C00F9
:101A4800430075009600B700B700FB00540145F24B
:101A5800F05231E0CC20002035FA8E3CDB0FC93F34
:101A6800E6230020403200202C3200200AE81C41E6
:101A7800B03E002000401C46E523002088230020BB
:101A8800A42F002098110020F8380020961100207B
:101A9800B02300201C110020A02300206411002086
:101AA800A4230020C0360020741F00203C300020F2
:101AB8008023002042F6F822724B1A800EF0DFFDD8
:101AC80037E1704B42F6F82119806F490A23120159
:101AD80092FBF3F20023A2F5B06241F82320013310
:101AE800122BFAD1694A6A4911606A4A4020137078
:101AF8000DF028F80446002800F01C8108F048FC86
:101B0800654B94F900E093F84132002B0CBF062294
:101B1800072200280CBF01230323019200930446E7
:101B28005E4B5F4AA4E0574B42F6F8221A80574BA7
:101B38005C4A1A60574B102240201A700DF002F8C8
:101B48000446002800F0F68008F022FC0022002855
:101B58000CBF0123032394F900E00192009304468B
:101B68004FF4E133504A83E0464B42F6F8221A809C
:101B7800464B4E4A1A60474B082240201A700CF018
:101B8800E1FF0446002800F0D58008F001FC00229F
:101B980000280CBF0123032394F900E0019200936D
:101BA80004464FF4E133424A62E0364ADFF82CE15A
:101BB800404C414842F6F821118036490C22062B48
:101BC8000A700FD000238EF80030237003703B4B4F
:101BD8001B2119703A4B1A703A4B05221A704FF4B0
:101BE800E13A0DE0002101708EF8001021703349B0
:101BF800DFF8ECA02120087031490A70314A1370CF
:101C0800224B314A1A6040200CF09CFF0446002801
:101C180000F0908008F0BCFB002200280CBF0123D4
:101C2800032394F900E00192009304465346274A9F
:101C38001EE0144B44F620621A80144B244A1A60A2
:101C4800144B0A2240201A700CF07CFF044600282E
:101C580070D008F09DFB002294F900E00192002862
:101C68000CBF012303231B4A009304464FF4E133BE
:101C7800402170460CF0D2FE002C57D0164B18604D
:101C880054E000BF640A0020BC210020FC040020AE
:101C98000DD300088C300020C0360020A08601003B
:101CA800B5D50008CDD20008B9D40008B5D20008CF
:101CB80071D400088D2200208C2200208E22002062
:101CC800492100208F220020F5D100089DD300086B
:101CD8008DD30008F5D60008943000204A21002052
:101CE80090D00300874B41F27C521A80864B874A7A
:101CF8001A60874B10221A70864B00241C70864B82
:101D0800282240201A700CF01DFF98B1032390F987
:101D18000000824A019400934021814B814C0CF0D1
:101D28007DFE0121206007F0F3FA2068003018BF1B
:101D3800012028B908200FF0CBF8734B7A4A1A60B3
:101D4800D9F80030724A13F4804F04D01221117070
:101D58006D497648086042F20101194003F001001C
:101D680003F4005481B1674944F6206EA1F800E0FD
:101D780024B10821117064496D4C0C6020B10C210C
:101D8800117061496B4808601178043951709905E0
:101D980056D5694A936943F001039361307F0EF089
:101DA800E3FD664A4FF0000A10604FF00A0B02226A
:101DB800C271012180F806B080F808A00EF064FE18
:101DC800707F0EF0D1FD0123C37180F806B080F852
:101DD80008A051460446C6F844010EF055FE584B7B
:101DE8005849C6F848318022102320460EF093FF48
:101DF800204611F069FE544B544A1B689FED540A63
:101E08003C3B13603B6843F010033B604FF4C873DE
:101E1800A6F84C314F4BC8221A8014F0EBF84E4B01
:101E2800DFED4E7A83ED000A20EE270A4C4AFDEEDC
:101E3800C07A17EE903A13804A4B4FF0FF321A607F
:101E4800494BC6F85031D9F80030DFF838A1474E71
:101E5800002413F4803F8AF8004000F0018112F05A
:101E680009FD012740F22A32214606F5AA708AF8B0
:101E7800007017F02DFD30493D4B48699A6A0243BE
:101E88004A613C4A1A62DC6218A893F825308DF83A
:101E980060308DF861708DF863708DF8624011F0D4
:101EA800A1FD18200EF060FD16238371324FDFF874
:101EB800D0E0C6F880040223C371047206F5AA7A3A
:101EC80057F834202D4972454FEAC40301F1CC0B71
:101ED80003D10B4493F8D12003E001340A2CEFD14D
:101EE80000222E210EF094FD254800235BF83310C4
:101EF800234F81424FEAC30246D1204B134493F843
:101F0800D00045E0640A0020FC04002075D30008D6
:101F18008C30002018230020192300200DD600083B
:101F280048E801006817002041D3000865D300087D
:101F380055D3000845D3000800100240D83E0020C1
:101F4800E1750008F806002080230020D43E002018
:101F5800D253FB3F903E0020883E00200000C8433B
:101F6800983E00208C3E0020A4390020B0050020B7
:101F78008400002097750008F89A01082C9A010837
:101F8800002C0140643F002001330A2BAED1002011
:101F980011F024FC3B88B048DFF800B323F45C73ED
:101FA8001B041B0C3B801D23FB6202233B85002482
:101FB80001233C860CA97B616022ADF83430039381
:101FC8000C92ADF836400E94ADF83C40ADF83E406A
:101FD800ADF84040ADF8424009F038F8BA6942F02F
:101FE8000802BA617A6C42F400427A64584609F0F1
:101FF800AAF818A809F07CF8984A189210221A92A0
:1020080040F22A32ADF86C2080221D924FF4807283
:102018001E9218A94FF4005258462192CDF864A098
:102028001C941F942094229409F06FF8FA68039B7B
:102038008B4942F40072FA60DBF8002042F0020299
:10204800CBF8002086F88434FF226B186C520435D4
:10205800802D9A70DA70F8D105F07EFD05F07CFDD0
:10206800D9F800305A0553D57E4D7F4B2A681A603F
:1020780004200CF067FD0421C6F888040CF038FD34
:102088007A4B2A6886F88C0408201A600CF05AFDEE
:10209800774B784C186008210CF02AFD002186F84F
:1020A8008D042C22204617F013FC7C2323708E23EA
:1020B8006370E023E3707D2384F82B306E4B2A682D
:1020C8001A6020200CF03EFD2021C6F890040CF088
:1020D8000FFD86F8940410200CF034FD1021C6F88A
:1020E80098040CF005FD654B86F89C043B221A7099
:1020F80001225A703A221A719F229A711E221A726C
:10210800A4225A7200229A72DA721A7308F04DF9F0
:102118005B4C2788002F7AD12C200EF025FC0F234A
:1021280083710E230D210546C3710772C6F8A004FA
:102138000EF0AAFC28460EF040FC524A138823F001
:1021480040031B041B0C1380138823F038031B0463
:102158001B0C138013889BB243F04003138032207A
:102168009F238DF830308DF831708DF832708DF8EE
:10217800337011F0EBFA28468DF861700EF018FCF8
:1021880004220CA918A811F0B1FC28460EF015FC81
:102198009DF862309DF861201B0243EA02429DF8D7
:1021A80063301343384A934217D00CDC374A9342C2
:1021B80015D00132934217D0A2F51A42033A93423E
:1021C80020D120230CE0324A934208D001329342B6
:1021D8000AD0304A934215D101E0402300E0802321
:1021E80023804FF4807302E04FF480732380638070
:1021F800A38822881B02A3605343E360012386F867
:10220800A43404E0002323806380A360E360E468CF
:10221800002C45D0E40A264600270DF1600AA742A3
:1022280008DA3D196D1010225146E80212F030F814
:102238000F2805DC11F0EEFF174BF6021E602FE0A9
:1022480000235AF82320013240F08B800133042BFD
:10225800F7D12E462C46E2E7002C0140342C0140F1
:10226800663F0020A4200020E01600202017002050
:102278003C170020F0160020541700206030002082
:10228800BC040020003800401620C20017BA200005
:102298001740EF001720C200FC2000201C0002405D
:1022A8006B4CD8F81420B4F8D831013B9BB2052BFD
:1022B8009EBF012384F8EA3184F8DA3194F8EA31D0
:1022C8005343644A1360D9F80030634A13F4002377
:1022D80018BF012313706379052B02BF5F4B4FF4BE
:1022E800C8721A8009F05DF95D4BC8221A805D4AF0
:1022F800137843F0080313705B4A137823F0020342
:102308001370D9F8002040F6020313406BB1574B05
:1023180057491960574B03211970574B0121197000
:10232800564900230B8056490B80930306D5554B1D
:1023380005221A71DA7842F00102DA70A368C9F846
:102348000030514B01221A70504A137863F07F0312
:1023580013702DB0BDEC088BBDE8F08F0427FFF794
:10236800B7B86F1C254675E71BB208EE103AB4F9EA
:10237800CC31DFED477A9FED47BA474A09EE103A6C
:10238800B4F9D031B8EEC88A08EE903A28EE278A18
:10239800B8EEC99AF8EEE88A002138EE0B0A29EE61
:1023A800279A68EEA78A117013F024FEF0EE40AA6F
:1023B800B0EE480A13F01EFEF0EE409A39EE0B0A12
:1023C80013F018FEB0EE408AB0EE490A13F012FE80
:1023D800B0EE40AA38EE8B0A13F00CFEB0EE409A2D
:1023E800B0EE680A13F006FE60EE2A6A69EE897A92
:1023F800F0EE665AEAEE275A284B29EE2A6A29EEA9
:10240800807AC3ED035AB0EE465AF1EE4A5AA5EE69
:10241800875AEAEE267AA5EE867A29EE089A28EEF9
:10242800400A69EEC89A28EE2A8A83ED009A83ED5D
:10243800010A83ED02AA83ED045AC3ED059A83EDE0
:10244800067AC3ED077A83ED088AFEF73CBF00BF22
:10245800C03600203C240020F6270020AC110020C4
:10246800743E002065170020E4230020BC1F0020D4
:10247800D638002084230020CC0400200432002019
:1024880006320020B011002004100020DD3E00209C
:1024980035FA8E3CDB0FC93FD8010020981F002079
:1024A8002DE9F04FBA4B1B689A6ABA4B2DED028B97
:1024B8001A80B94B1978A3B00129059304D1B74BF9
:1024C8001A80B74A12885A80B64C2378002B01F03C
:1024D800748011F0FDF8B44B07909B680BB1A01CF9
:1024E8009847B24BB3F90670B14B1B685A899742AB
:1024F8000CDB197AB7F5FA6FBFBFBB1A4B43C2F5AD
:10250800FA6193FBF1F1C1F1640100E06421A94B88
:10251800A94EB3F8480293F8268293F8279293F9C4
:10252800D4315B421FFA83FB002240F2E63AA34B08
:10253800D1549E4B33F912E0C0EB0E0303F2F315AE
:1025480055454FEA420C9C4D11D8002BB8BF5B4251
:10255800022A069310D0434503DD069BC8EB03030C
:1025680000E00023864526F80C3010DB14E04FF419
:10257800FA73022A0693F0D1069B9945B4BFC9EBBA
:102588000303002313FB0BF38645B38007DA36F801
:102598000C305B4226F80C300132032AC7D1884B35
:1025A800844E1B6813F4805E0ED0B7F57A7F06DB85
:1025B800B7F5FA6F3A46A8BF4FF4FA6201E04FF454
:1025C8007A72A2F57A7213E0B6F84A128F4206DBE5
:1025D800B7F5FA6F3A46A8BF4FF4FA6200E00A4628
:1025E800521A4FF47A735A43C1F5FA61B2FBF1F209
:1025F8006423DFF8108292FBF3F101F1010938F945
:1026080011C038F919806FF06309CCEB080809FB91
:10261800012101FB08F292FBF3F202EB0C039BB2DF
:10262800EB80BEF1000F16D0664A1268D20012D5B0
:10263800654AD2787AB9A3F57A731BB24FF47A72E5
:102648001B0393FBF2F3C0F5FA6212B2534300EB9B
:102658002330594BD8805D4BB3F800A01AF0400FD7
:1026680098463AD05A4BDFED5B7AB3F904309FEDC8
:102678005A0A0A2293FBF2F3A2889B1A1BB208EEAD
:10268800103AB8EEC88A28EE278A38EE000A13F006
:10269800B1FCF0EE408AB0EE480A13F0ABFCB5F995
:1026A800023007EE103AB5F90030B8EEC77A06EEF8
:1026B800903A67EE407AF8EEE66AE6EEA87A20EEFF
:1026C800260AFDEEE77AA7EE280A17EE903AFDEE05
:1026D800C07A2B8017EE903A6B80404BDFF8C4909D
:1026E8001B6813F0140F00F0A8801AF4027F00F0A2
:1026F800A4803B4B1B7803F0100303F0FF004BB1A1
:10270800384B96F99822B3F900106B8801FB023315
:102718006B8092E0344B354A1B68D9789B7819B3A3
:10272800B2F90020C2EB070E8EEAEE71A1EBEE7152
:1027380099420CDD2E49974208604FF00101A171C2
:10274800C8BF5B42E9889BB20B44EB8075E099F8FF
:1027580006302BB1274B89F806001968264B1960FB
:10276800204B1B6813445DE0B2F900003A1A82EA74
:10277800E27EAEEBE27E9E4546DD022392FBF3F25B
:102788001E4B1A601E4A0123137089F8063046E072
:10279800102000209A230020E21F0020E41F0020C0
:1027A800082100205C0A0020741F00203C30002013
:1027B800C4310020C03600201C240020382400200A
:1027C800A4230020E0230020B0230020DC230020E5
:1027D8002424002035FA8E3CDB0FC93F88230020D3
:1027E80065170020CC3E0020E4200020C211002004
:1027F800C83E0020B43E0020BC3E0020C03E002061
:10280800D03E0020DE27002099F806303BB1744BFB
:1028180089F806101A68734B1A60734B1970734B5A
:102828001B680344724A11680A884988934203DB8B
:1028380099420A46A8BF1A46EA806E4B1B78ABB18C
:10284800B6F84A32BB4211DB6B4B5B79012B01D0E6
:10285800192B02D196F8932242B90E2B06D0082BD9
:1028680004D00023AB80654B00229A6096F814725E
:1028780097B31AF0030F2FD0614BDFED627A93ED17
:10288800080AB4EEE70AF1EE10FA21D914F076FF3F
:102898005D4BD3ED007A20EE270A14F0DDFEB0F58B
:1028A800617FA8BF4FF4617007EE900AB8EEE77A2F
:1028B800DFED567A87EE270A13F09CFB07EE907A35
:1028C800F8EEE77A27EE800A14F0C6FE00B200E0C0
:1028D8000020EB881844E88096F84E324C4A23B919
:1028E800B8F80010002900F0A1801278002A52D010
:1028F800022B09D0032B19D196F84F32C3EB4312A0
:1029080003EB8203DB000FE0424BD3F8F820B2F56B
:102918007A7F05DB44F620639342A8BF134601E0A3
:102928004FF47A7303F57A739BB201E0B9F8083073
:10293800394A1068059AB3FBF0F01278471C3FB289
:10294800092A678105D1354A29881180698851800B
:10295800D380B9F90CA0DFF8CCB00023DFF8C0E0D1
:102968003BF913800EF1160C0EF10E093CF81320FA
:1029780039F913102CF81380C2EB080201FB0AF195
:1029880091FBF7F10A4429F813200133042BE5D110
:10299800AEF80C0004E0B9F80C30013BA9F80C3093
:1029A8001F4AB2F90C0000284FF0000315DDDFF8CC
:1029B80074E0B2F90A700E32DFF86CC032F9131005
:1029C8003CF813C0414391FBF7F1C1EB0C012EF821
:1029D80013100133042BEFD12DE093812BE000BFBE
:1029E800B43E0020BC3E0020D03E0020CC3E00205B
:1029F800E8200020B4040020C03600201024002065
:102A0800C83400208FC2753CD8200020EFB6B044EF
:102A1800C0110020DC0100203C240020E41F00201D
:102A28005C0A00201C240020720A00201378A1816F
:102A3800002B00F09F809F4B93F8503223B19E4AA1
:102A48001268910001F10A849C4B9D481A68059B05
:102A58009C4F93F800E09C4BDFF8B4821B689FED15
:102A68009B5ADFED9B4A9FED9B4ADFED9B3A9FED1A
:102A78009B3ADFF8A09293F800C0F7EE005A151DB4
:102A88000023F0EE652A022B14BF92F800B092F8EA
:102A980001B038F9131007EE10BAB8EEC77A06EE8F
:102AA800901AC7EE057A14BF9178517A4FEA430A13
:102AB800B0EE007AF4EEC77AF1EE10FAF8EEE66AB4
:102AC800C4BF37EEC77AE7EE247A86EE847AB5EE8D
:102AD800C07AF1EE10FAD4BFF1EE476AF0EE476A19
:102AE800E7EC016A89B106EE101AB8EEC66A86EEFE
:102AF800052A26EEA66A66EE866A35EEC26A66EE94
:102B0800876A26EE077AA2EE267A15F8011F67EE85
:102B1800A37A67EE877A002941F0F983BEF10C0F9A
:102B280002BFBDEEE77A17EE101A2AF80910BCF1B9
:102B3800000F41F014849FED6A7A67EE877A9FED63
:102B4800697AF4EEC77AF1EE10FA01F11A849FED72
:102B5800667AF4EE477AF1EE10FAC8BFF0EE477ADB
:102B68000133032BC0ED007A00F104008BD15F4BD9
:102B780000221A705E4B1878002840F011855D4FCE
:102B88003B681B0340F10C855B4D2B78033B052B01
:102B98001BD8484B93F8A73533B1012B08D111F056
:102BA80051FAC0F17F0003E0606A03689B689847A8
:102BB800A36A94F82C201344B3F5807FA8BF4FF480
:102BC80080738342D4BFA362A0622B78023B092B97
:102BD80000F29384DFE813F00A0013004300910425
:102BE80091045B00A0004204650475040023A362FD
:102BF8002363424B1B686363032300F07DBC3F4B98
:102C08001A68636B6433934280F07784402012F033
:102C18007AFE002840F07184DFF8E890384E4FF0D3
:102C28004008236B19F8030058B112F045FFB36A46
:102C3800013BB362336BB8F1010803F1010333635D
:102C4800EFD1226B2F492E4B8A5C002A40F0558425
:102C58001A634FF0FF325A63042300F04DBC2A4A2E
:102C68000292A2F10C030193272300935021A2F1B1
:102C78000A034920163A0DF07FFA002840F03D84F7
:102C88004FF0FF3363632063072300F035BC05234F
:102C980000931E4B002102910191A3F108025320D9
:102CA8000DF06AFA002840F028842063082300F019
:102CB80023BC00BFC0360020E0230020C431002020
:102CC8001024002070270020002100200000C842A6
:102CD800D7A368410000FA43000048430AD7233CC1
:102CE8003333834000F0FFC500F0FF45C0110020DA
:102CF800503D0020A4230020F62700208023002038
:102D08005C0A0020249C01089A9C0108609E010826
:102D18001C240020E41F0020402012F0F4FD0028AD
:102D280040F0EB83A34A136B9046492B01F22D83A5
:102D3800DFE813F04A004D005200560059006000C9
:102D480065006A006E0072007E0089008C009700A2
:102D58009B00A000A500B600C700D800E900FA0053
:102D68000B011C012D0188019201A001AE01BC01DB
:102D7800CA01D801E601F40102020C021A02240277
:102D88002E02380242024C02560260026A027402A3
:102D98007E02880292029C02A602B002BA02C40213
:102DA800C902CE02D302D802DD02E402ED02FA0221
:102DB800FF0204035C03610366036B03700375037E
:102DC8007A037F03840389037B497C483EE37C4B79
:102DD8007C4A7D497D4833E07D4A7E497E4893E2BE
:102DE8007E497F4832E37F4B7F4893F8A62593F8C6
:102DF800A51589E27B4B7D48B3F8CC1026E3794BC7
:102E08007B48B3F8CE1021E37A4B7B4819691DE360
:102E18007A4B7B48198919E3A36BDE0404D5714BFF
:102E2800784893F8161211E3624B0B221A630FE3EA
:102E38006C49754891F8193291F81B2291F81A12C9
:102E480012F014FF04E3A18F7048FFE23B681805F5
:102E580040F1FE82634B6E48B3F91E22B3F820128C
:102E680052E2644B6B485969F0E25E4B6A4893F84A
:102E7800DA11EBE25B4B694893F8EA11E6E259484C
:102E880090F8FA34622202FB03F1431893F81024F5
:102E98000C2303FB02130344614893F81214D5E290
:102EA800504890F8FA34622202FB03F1431893F871
:102EB80010240C2303FB021303445A4893F81414F8
:102EC800C4E2484890F8FA34622202FB03F143183E
:102ED80093F810240C2303FB02130344524893F87D
:102EE8001314B3E23F4890F8FA34622202FB03F16C
:102EF800431893F810240C2303FB021303444B4894
:102F080093F81B14A2E2374890F8FA34622202FBC5
:102F180003F1431893F810240C2303FB0213034412
:102F2800434893F8151491E22E4890F8FA34622237
:102F380002FB03F1431893F810240C2303FB02133C
:102F480003443C4893F8161480E2264890F8FA3473
:102F5800622202FB03F1431893F810240C2303FBAD
:102F680002130344344893F81A146FE21D4890F88A
:102F7800FA34622202FB03F1431893F810240C235D
:102F880003FB021303442D48B3F81C145EE296F8C1
:102F9800FA242B4862235343F2180C2192F8102488
:102FA80001FB02331E4496F8193496F8182496F853
:102FB800171445E75C0A002088C1010894C101087C
:102FC800A5C10108AAC10108B2C10108B8C1010818
:102FD800E0C10108E9C10108F5C10108763C0020FB
:102FE80009C20108C036002017C2010828C201081A
:102FF80037C20108741F002046C201088C23002034
:1030080056C2010860C201086DC2010886C20108E3
:1030180091C20108A4C20108B0C20108C3C20108D4
:10302800D8C20108E2C20108ECC20108F9C20108CD
:1030380006C3010810C301081BC3010828C30108FF
:103048003AC30108C04BC14893F8FA24622101FB36
:10305800023393F8D413F9E1BB4ABD4892F8FA3425
:10306800622101FB032191F8E93391F8DF2391F8FC
:10307800D513E5E6B44AB74892F8FA34622101FB61
:10308800032191F8EA3391F8E02391F8D613D7E6B3
:10309800AD4AB14892F8FA34622101FB032191F854
:1030A800EB3391F8E12391F8D713C9E6A64AAB4868
:1030B80092F8FA34622101FB032191F8EC3391F87C
:1030C800E22391F8D813BBE69F4AA54892F8FA3450
:1030D800622101FB032191F8ED3391F8E32391F884
:1030E800D913ADE6984A9F4892F8FA34622101FB59
:1030F800032191F8EE3391F8E42391F8DA139FE66F
:10310800914A994892F8FA34622101FB032191F817
:10311800EF3391F8E52391F8DB1391E68A4A934857
:1031280092F8FA34622101FB032191F8F03391F807
:10313800E62391F8DC1383E6834B8D4893F8FA2451
:10314800622101FB023393F8DD137FE17E4A89484F
:1031580092F8FA34622101FB032191F8F23391F8D5
:10316800E82391F8DE136BE6774B834893F8FA244B
:10317800622101FB023393F8F31367E1724B7F4836
:1031880093F8FA24622101FB0233B3F8F4135DE1EA
:103198006D4B7B4893F8FA24622101FB0233B3F8A4
:1031A800F61353E1684B774893F8FA24622101FB40
:1031B8000233B3F8F81349E1634B734893F8FA24E0
:1031C800622101FB0233B3F8FA133FE15E4B6F480B
:1031D80093F8FA24622101FB023393F8FC1335E1DA
:1031E800594B6B4893F8FA24622101FB0233B3F878
:1031F800FE132BE1544B674893F8FA24622101FB34
:103208000233B3F8001421E14F4B634893F8FA24D2
:10321800622101FB0233B3F8021417E14A4B5F48FD
:1032280093F8FA24622101FB023393F806140DE1A6
:10323800454B5B4893F8FA24622101FB023393F86B
:10324800071403E1404B574893F8FA24622101FB25
:10325800023393F80814F9E03B4B534893F8FA24E7
:10326800622101FB023393F80914EFE0364B4F4813
:1032780093F8FA24622101FB023393F80A14E5E07B
:10328800314B4B4893F8FA24622101FB023393F83F
:103298000B14DBE02C4B474893F8FA24622101FB1E
:1032A8000233B3F80C14D1E0274B434893F8FA24BF
:1032B800622101FB0233B3F80E14C7E0224B3F48EA
:1032C80093F82612C2E0204B3D4893F82712BDE040
:1032D8001D4B3C48B3F8D811B8E01B4B3A4893F85B
:1032E800DB11B3E0184B394893F8DC11AEE0164B0C
:1032F8003748B3F8E221B3F8DE1105E0124B354840
:10330800B3F8E421B3F8E01112F0B0FCA0E00E4BE2
:103318009FED317AD3ED7E7A304867EE877AFDEEFD
:10332800E77A17EE901A91E0074B2D4893F8D511DC
:103338008CE0054B2B4893F8EE1187E0024B2A48A6
:1033480093F8ED1182E000BFC036002049C30108A0
:103358005AC301086BC301087DC301088DC3010866
:103368009DC30108ADC30108BEC30108CFC301084E
:10337800E1C30108D1C30108EBC3010800C4010877
:1033880010C401081EC4010830C4010846C401085D
:1033980055C4010871C4010887C4010896C401080E
:1033A800ADC40108C6C40108DAC40108EFC40108A5
:1033B80005C501081CC5010831C5010847C5010834
:1033C80043C5010853C501085FC5010871C5010857
:1033D80084C5010898C501080000C842B0C50108A5
:1033E800BEC50108CEC50108DFC50108A14BA2482A
:1033F80093F88D122AE09F4BA04893F84E1225E0CF
:103408009C4B9F4893F84F1220E09A4B9D48B3F885
:1034180052121BE0974B9C4893F8401216E0954BCC
:103428009A4893F8E31011E0924B994893F8E21008
:103438000CE0904B9748B3F8DE1007E08D4B9648A8
:1034480093F8EB1102E08B4B9448996812F00EFC4C
:10345800D8F830300133C8F830304EE0904B1B6854
:1034680099011BD58F4EB6F84030BBB98E4BD6F8B4
:103478004490D3F80080452012F01EFB0E2012F075
:103488001BFB484612F0D2FB404612F0CFFB4FF42C
:103498008053F3870A232B700CF0BAFB0CF04AFE1A
:1034A8002BE0804B93F84820002AF5D07C4A12681C
:1034B8009201F1D493F84930002BEDD109232B70F8
:1034C800ECE77A4B1A68636BC833934204D2694BB2
:1034D80093F8A7657EB904E012F05AFA0028F6D1ED
:1034E8000BE0606A0BF085FA94F84A306662022BAA
:1034F80001D10CF0DDFF01232B7012F033FA50B12B
:1035080001232B70674B93F84920002A48D00022EA
:1035180083F8492044E0574B93F8A8251946002A18
:103528003ED03B68DE044FF000074CBFB1F8DA200C
:10353800B1F8D0205E4E3B4636F913000133904275
:1035480018BF47F001070C2BF6D1564E574B2FB139
:103558001B6803F59C530833F36403E01A68F36CA3
:10356800934213D92B78012B1AD196F84930BBB95D
:1035780091F8A7352BB110F053FB012386F8493099
:103588000EE080200CF08CFF50B9F4E72B78012B6B
:1035980006D096F849301BB10CF09EFE86F84970AB
:1035A800059B1B78072B05D110F092F8079BC01AD2
:1035B800404B58803B4B00221A703F4D13A86B6854
:1035C8009847A946002800F07C813C4EBDF94C3054
:1035D8003360BDF94E30736094F85020BDF9503017
:1035E800B3603146304607F0EBFF354B1A889B46EF
:1035F800002A00F0DA80334B334F1B68DFED338A43
:103608001B784FF0000808EE103A07F10C05C24687
:1036180007F148014FF47A72D9F81430B2FBF3F38A
:10362800C3EB431203EB8203BBF800E0DB009BB261
:103638009E4508BFC7F800A03B6808BFC5F810A0A2
:10364800184656F82830184456F82830386007EEDF
:10365800903A2B690133012B4FEA8802F8EEE77A9A
:103668002B6135D1C5ED017AC5ED007AC5ED028A29
:103678004AE000BFC0360020EFC5010808C60108AF
:103688001CC6010839C6010856C601086BC60108E0
:1036980080C6010895C60108A7C60108B5C6010875
:1036A800E02300205C0A00206C3E002080230020DC
:1036B800FE3C0020E41F0020741F00202C24002062
:1036C800721F002090200020B00A00200000000097
:1036D800D5ED005A07EE103A37EEE56AF8EEC76AFC
:1036E80086EE267AD5ED026A37EE257A77EEC77A26
:1036F80085ED017AE6EE276A85ED007AF0EE667AC6
:10370800C5ED036AC5ED026ABEF1010F46F802A0D5
:1037180042F801A034D12B690791012BC3BF03F1F3
:10372800FF3307EE903A95ED037A1FED180A0692DB
:10373800C4BFF8EEE77A87EE270A14F091FA069AE2
:10374800079918EE103A4BB1F8EEC87AF4EEC07A41
:10375800F1EE10FA02D507F024FF26E04FF47A7054
:10376800D9F81430B0FBF3F3C3EB431003EB800339
:10377800DB0098B23B6803EB500393FBF0F3535024
:1037880008F10108B8F1030F07F1040705F1140562
:103798007FF440AFBBF80000012801D10BF0BEFA5E
:1037A800BBF80030013BABF80030AA4D002256F8B8
:1037B800221055F82200A84B091A46F822100132A7
:1037C800032AF4D1A54AA64D11789046002966D05F
:1037D800DFF8BC92DFF8E4A2DFF8E4B21E1F00278E
:1037E800059B1B78032B04BF736829F817309AF8D8
:1037F8000030012B0AD1D6ED017A9A4B1C20B8EE85
:10380800E70A00FB073012F079FC18E073B9D6ED2F
:10381800017A954BD4ED3F0A98F800100C20B8EEC9
:10382800E70A00FB073012F023FD08E0D6ED017A25
:10383800A420B8EEE70A00FB07B012F03BFC059B9A
:1038480085ED000A1B78082B05D195ED000A13F0C9
:1038580003FF29F81700854B1B884BB1844B95ED66
:10386800000A1C2000FB073012F048FC85ED000A16
:10387800804B1B884BB1804B95ED000A1C2000FB48
:10388800073012F03BFC85ED000AB5EC010A13F095
:10389800E3FE0137032F46F8040FA1D111E0D3ED61
:1038A800007AF8EEE77AC5ED007AD3ED017AF8EE02
:1038B800E77AC5ED017AD3ED027AF8EEE77AC5ED3D
:1038C800027A6E4A92F8B83323B1013B82F8B833D2
:1038D80000F088BD6A4B93F8DC211E4622B193F8AC
:1038E800EA31013BDBB200E0012384F8B8330FF082
:1038F800EFFE644B644DD3F80080644BB6F82A128F
:10390800A3F1460207462868C047059B1B78072B8A
:1039180004D10FF0DDFE5E4BC01B98800FF0D8FE7F
:10392800059B069093F800A0BAF1010F0AD15949F6
:10393800D4F8BC33564A0968C4F8BC03C31A938048
:103948005B1AD380544B2A681B68EBB192F833207A
:10395800CAB1524A1268940718D5514A11780129F8
:1039680014D9DB784F4859430088CB1A98420AB2D9
:1039780003DB88420346A8BF0B461BB2120392FB27
:10398800F3F2012305E013461A4602E001234FF43F
:1039980080524549C9780D912BB1BDF95410514356
:1039A8000913ADF854104149414E91F8008041493E
:1039B800DFF8DC90B1F902000890B1F90000099035
:1039C8003D48B1F90410D0F800C0059100252946FA
:1039D8002846404576D29CF90040059FD6ED016AFD
:1039E80096ED026A64427C4307EE904AB8EEE77AA5
:1039F800DDED097AF8EEE77A0DF1540E67EEA67A56
:103A0800DDED086AF8EEE66AE6EE867AD6ED036A38
:103A1800E7EE267AFDEEE77ACDED077ABDF91C4090
:103A28000BB1544324132EF8104015AC34F9104050
:103A38008C4203DCA542A8BF254600E02146BAF126
:103A4800050F03D1042898BF29F81040013010361B
:103A5800BFE700BFF80A00202C2400209420002093
:103A680058270020040B00205C0B00209620002023
:103A78006C0D002098200020C00D00205C0A00205A
:103A8800C0360020B804002000210020F8380020AB
:103A9800E41F00203C240020BC1F0020A423002099
:103AA800CC0400200C200020B02300203B24002060
:103AB8001C0E0020BC260020B42000209A200020E4
:103AC800800B0020A44BA54C1868491B10F48052A9
:103AD80009B240D0A24BA34D1B78DFF890E2A24F69
:103AE80013F0040F01BF2B681E8AA04BA3F8806453
:103AF800B4F906609E4C2B6824681B8AE588C5EBE0
:103B0800030C664508DCB4F900303C68AEF8806404
:103B1800B4F9004035440AE02B449E4209DB3B6877
:103B2800B4F90240B3F90230AEF88064751B2DB2C7
:103B380019E0BEF980349C45ABBFB4F900303B684E
:103B48003C68B4F90240ABBFB4F90040B3F90230A5
:103B58001D46254607E0844BB4F906501B68B3F9A7
:103B68000040B3F90230814E9BB2A4B2C4EB030A01
:103B78000FFA8AFA51451ADD4FEA0A33002793FBF8
:103B8800F1F1C6F88414B8450AD915AB33F917E032
:103B980001FB0EFE4FEA2E3E23F817E00137F2E74D
:103BA80002239AFBF3F31C4424B20A9407E0022789
:103BB80091FBF7F15B1A0C441BB224B20A93B6F9D5
:103BC8008034694E0C933768654E664B3678684981
:103BD800DFF8B8E11B680968DFF8B49106F004065D
:103BE800F6B2079600F01000BEF906600B964FF08B
:103BF800000B0E90D84559D915A807EE905A30F801
:103C08001BC05C4800EB0B1090ED007AF8EEE77AE9
:103C1800A64667EE877AFDEEE77A17EE900AA0428D
:103C280004DB0A9E8642A8BF0646B6460CEB0E0089
:103C38000D9E00B229F8020F16B1B7F804E013E0A0
:103C480082B1B3F810E0B1F806C00C9ECCEB0E0EB2
:103C5800764504DCB7F800E0B1F800C006E0B1F83A
:103C680002E001E0B7F800E0B7F802C0704503DBF6
:103C78008445E646A8BF86460E98A9F800E090B1AC
:103C8800079880B17AB9119210910F930BF020F830
:103C98000F9B1099119A30B9588A0B9E8642BCBF67
:103CA800B888A9F800000BF1010BA3E73C894CB3D5
:103CB80031494FF47A700968B0FBF1F1B4FBF1F1C6
:103CC800012905D942F210708142A8BF014600E0DF
:103CD800022109B28A4515DD284D24483C8835F96A
:103CE80018E000EB4807A645B7F9887403DB7C1891
:103CF8007445A8BF744624B200EB480025F8184064
:103D0800A0F88844079919B90E461D481B4906E0D2
:103D1800164991F8A004192800F2448107E0B0453B
:103D2800F6D930F8164021F816400136F7E7012198
:103D380001FA00F013490140002900F033811249CB
:103D48000988C80526D5054B1A88ADF86C205A880D
:103D5800ADF86E209B8830E0A42300201C240020AE
:103D6800E4230020B82000203C3400205C0A002016
:103D7800383400201C0E00203C240020043300208E
:103D8800FE3C002032413003DC2300203C30002080
:103D980002330020BDF82410ADF86C10BDF82010D7
:103DA800ADF86E10BDF81410ADF870103AB11B8A5A
:103DB8000B9A9A4203DA059B5B42ADF87030AD4826
:103DC800B0F902304FF47A7203F5E1634FF46161A0
:103DD800534393FBF1F3A3F5FA73ADF88430B0F9CC
:103DE800003003F5E1635A43A34B92FBF1F21B88C1
:103DF800A3F2DC53ADF87230A04BA2F5FA72ADF81D
:103E080086201B689E4A1B8A1188C91AADF874104F
:103E18005188C91AADF876109188C91AADF878108A
:103E2800D188C91AADF87A101189C91AADF87C1071
:103E38005189C91AADF87E109189D289C91AD31A45
:103E4800ADF882308F4AADF880100023194622F869
:103E580013100133082BFAD18B4A8C4B1268059248
:103E68008B4A1B7812688B490792072202FB0313BF
:103E7800894DDFF810A20A934FF064084FF001094A
:103E88000A9B8B4273D00B782BB11533059A09FA2C
:103E980003F3134067D011F806EC079B11F9010CE6
:103EA80011F805CCCEEBCE0703EB47074FEA4C06DB
:103EB800B7F90230B7F9002009909A1A92B211F9AD
:103EC800023C11F8030C4FEA520B534393FBF8F3EF
:103ED800CBEB03031BB2089328B922A8064436F893
:103EE8001C0C288019E022AB1E44B5F9004036F9B5
:103EF8001C6CB44208DA2044844203DC864234460F
:103F0800A8BF04462C8008E007DD201AB04203DB76
:103F18008442A8BF044626462E80D7F80A0011F925
:103F2800046C089B09FA0CFC10EA0C0FB5F90000A8
:103F38000CBF01244FF0FF3416FB00F090FBF8F0A3
:103F4800984209DB099B534393FBF8F3CBEB03033C
:103F58001BB28342A8BF03463AF81EB004FB03B362
:103F68002AF81E3000E02B800235073188E7484BDD
:103F78004A4ED3F8008000254FF00E09642709FB4C
:103F88000583E8B293F9064036F9023F14FB03F4BF
:103F980094FBF7F434800FF0EFF901352044082D35
:103FA8003080ECD13E4C3A4D236813F0200F33D0CB
:103FB80000200FF0E1F9334E0746308001200FF062
:103FC800DBF9314B70801B68190625D5354B294A1A
:103FD8001B681B78012B24D1D5F80080B2F9021098
:103FE80098F90630B2F900205B424B434FF0320C8F
:103FF80093FBFCF31FFA83FE98F914306FF031013C
:1040080013FB02F393FBF1F17144791A93FBFCF370
:1040180073443180184470802B68204A03F170067D
:104028001AE0D5F800E0B2F902309EF9061011FB4B
:1040380003F1322391FBF3F1394431809EF9147076
:10404800B2F9001017FB01F292FBF3F21044E2E719
:104058000E339E42118027D032F9020FB3F90010B7
:10406800B3F902708842F3DB87423946A8BF01469C
:10407800EEE700BF2424002004330020B8200020ED
:104088003C30002024100020E02300204034002091
:10409800B834002047340020FE0E002022100020F3
:1040A800A4230020B0200020BD4BBE4E1A6892F910
:1040B80004209A46A2B996F8A0747B1E182B00F229
:1040C8009980DFE803F054979770979797699797C7
:1040D8009797977B9797979797708997977B5400AF
:1040E800DFF8CCB20023A6F8C234B046D946B6F9F8
:1040F800C274072FDFDC98F8C424AB4B92B9DAF806
:1041080000200593528800EE102AA84A1C20116846
:1041180000FB0730B8EE400A12F07AF80122059B3E
:1041280088F8C4243BF9172000EE102A1C2000FB55
:104138000730B8EEC00A11F0E1FF13F08DFA2A68D3
:1041480000B2C7EBC7032BF8170002EB4303B3F920
:104158000020B3F90230904203DB8342A8BF034634
:104168001A4629F817200137A6F8C274BFE7DAF80B
:1041780000305B781BB18E4B0020598908E08D4BCD
:104188001B7803F0040303F0FF01002BF3D108466A
:1041980005F04AF901252EE0854D0020E98805F053
:1041A80043F9298905E0824D0020298905F03CF969
:1041B8006989012005F038F902251CE0DFF8F08153
:1041C8000225A81E38F81510C0B2013505F02CF9E3
:1041D800082DF6D106250EE0DFF8D4810325E81E68
:1041E80038F81510C0B2013505F01EF9072DF6D1C3
:1041F800042500E0002523689A0601D4052F0BD179
:104208006B4F2846398805F00FF9681C7988C0B2C9
:1042180005F00AF90235EDB22368DB0205D496F8F9
:10422800A83573B10FF000F80BE0634F002428198C
:1042380037F8021FC0B205F0F7F80D2CEFD00134A3
:10424800F5E75E4B1B78072B05D10FF041FA069B6B
:10425800C01A5B4BD88001233370C3E0594A1288D7
:1042680052063EF5F1ABDFF83C81574F98F81E2017
:104278009A4217D007EE903A9FED548A9FED540A60
:1042880088F81E30F8EEE77A27EE888A38EE000ABA
:1042980011F0B0FE87ED000AB0EE480A11F0AAFE50
:1042A80088ED080AB5F90030D4ED085A97ED006A90
:1042B800484A07EE903AB5F9043006EE903AF8EE1F
:1042C800E66AF8EEE77A25EEE67AA7EE867A67EEF2
:1042D800A57ABDEEC77AE6EE267A17EE103AB3F560
:1042E800FA7FA8BF4FF4FA739342FDEEE77AB8BF9E
:1042F80013462B8017EE903AB3F5FA7FA8BF4FF418
:10430800FA739342B8BF1346AB80FEF79DBB06EE27
:10431800901AF8EEE66AB5EEC07A86EE856AF1EE96
:1043280010FAD8BFB1EE477AF0EE656AE6EE476A52
:10433800F4EEC36AF1EE10FAB0EE667A07D4F4EE42
:10434800656AF1EE10FAC8BFB0EE657A01E09FED3C
:10435800227AC2EE876A67EEA67AFEF7DFBB9FED88
:104368001F7AF4EEC77AF1EE10FA0AD49FED1C7AA0
:10437800F4EEC77AF1EE10FAC8BFF0EE477AFEF70E
:10438800EFBBF0EE477AFEF7EBBB11F001FB00281C
:104398003FF4B3A84FF48053E3870A23FFF7ACB880
:1043A800B42000205C0A0020240F00203C240020B8
:1043B80024100020E423002042300020E21F0020C7
:1043C800E41F0020DC2300200000002035FA8E3C8A
:1043D800DB0FC93F0CFEFFFF0AD7233C00C0F9C41E
:1043E80000C0F94423B0BDEC028BBDE8F08F00BFDC
:1043F8002DE9F04F914BADB01D780093002D00F0E2
:10440800A7808F4B1868002801F05E870CF024FD08
:10441800DFF85C92DFF85C82D9F8000004F081FFD5
:10442800002801F05187D9F80000864C04F076FF87
:10443800092801D03F2855D14FF0000A2668574671
:1044480055460AEB080B36B132465AF808107E4832
:1044580015F082FA20B90DB15F4601E05D465F466E
:104468000AF1100ABAF5107FEBD1F5B1D5F800A022
:10447800D7F800B0DFF8D0C123681AF803001BF89A
:104488000310814211D15A1CDFF8BCE149B92D2B28
:1044980007D86C48026020200EF803000EF80210BE
:1044A80003E00CF803002260E6E723680BB1BD4285
:1044B8000FD0664810F060FCBD4207D855F8100BC5
:1044C80010F05AFC092010F0B3FAF5E705F064FB88
:1044D80000265D4D23689E429ED2A85D10F0A8FA82
:1044E8000136F7E723686BB9042804D1564810F061
:1044F80043FE01F0E9BE0C2841F0E286544810F072
:104508003BFC22E00C28F9D00A2841F06C864E4E7C
:10451800504810F031FC2321304615F00EFA35468C
:1045280008B1801B206023680022002B41F05F86C1
:10453800002A41F0778630220021434815F0C8F957
:10454800009B1B78002B01F0BF8605F025FB63E775
:10455800414B03F13007414BEA18EB58002B01F0AF
:1045680058803F493F4C0B600593002322608DF82B
:1045780019303D4A3D48049214238DF8183004AB95
:104588000360264689469246D9F80000DFF8D080B5
:1045980004F0C7FE002801F02880D8F8000004F0D5
:1045A800BDFE336893F84810834619B9242863D1AF
:1045B80001221DE0012903D14D2808BF022204E091
:1045C800022907D13C2808BF032218BF002283F81C
:1045D800482085E003290ED140284FF0000102D978
:1045E80083F84810D0E758711971D971987104226D
:1045F80083F84820C8E7042907D1997983F8490046
:1046080080EA01029A710522F2E7052968D15879F2
:1046180019798842987908D98BEA00009871481C62
:1046280018710B4483F808B0AEE7584503D1062249
:1046380083F848205AE00022DAE700BF503D002006
:10464800F83C00204C3D00201C3D002088C7010894
:104658008DC7010861CE0108809E0108A42F0020A3
:104668000C2400200424002037930008082400208C
:10467800183D0020A0BA0108BF490B7803F00403D5
:1046880003F0FF0E002B7FF47FAF23281DD1009A83
:10469800D8F80000019101231370B84B1860B84B8B
:1046A8001860B84B586010201872B748C3F800A0BB
:1046B800036083F809E0B54810F05EFB05F06CFA7A
:1046C80001990B7843F002030B70B14B1B681B7800
:1046D8005B4505D1AF4BB04A1A60B04BB04ADA60BF
:1046E800336893F84820062A7FF44EAF93F8498040
:1046F800B8F1520F00F07F8600F2D980B8F1340F7C
:1047080000F0478467D8B8F1240F00F0CD842DD885
:10471800B8F1040F00F0368215D8B8F1020F00F096
:10472800168200F22382B8F1010F40F0A38703201C
:1047380009F012FC002009F0CAFB404609F0C7FB4B
:10474800152000F02EBFB8F10A0F00F05682B8F11C
:10475800220F00F0FD83B8F1050F40F08B871A2077
:1047680009F0FAFB0026DFF8508219E2B8F12C0FA5
:1047780000F0F0841BD8B8F1280F00F0D284B8F10B
:104788002A0F00F0E184B8F1260F40F07387854EB8
:10479800062009F0E1FBB6F8C80109F0E0FBB6F81D
:1047A800CC0109F0DCFBB6F8D00100F0F7BEB8F197
:1047B800300F00F08585B8F1320F00F02985B8F187
:1047C8002E0F40F05787774E402009F0C5FB06F1C1
:1047D800400800F065BDB8F1450F00F0118637D8E4
:1047E800B8F13B0F00F0AD831AD8B8F1380F00F0DC
:1047F8008584B8F13A0F00F02083B8F1360F40F005
:104808003987604B674E93F82C00DFF8B091C0EB06
:10481800C000C0B209F0A0FB06F1280800F03CBDBA
:10482800B8F1400F00F0FB84B8F1420F00F00785A3
:10483800B8F13D0F40F01E875A4E022009F08CFB5C
:1048480096F88F0209F043FB96F88E0200F0A9BE95
:10485800B8F14B0F00F0A98410D8B8F1470F00F059
:104868008485C0F06E85B8F1490F40F003870220B7
:1048780009F072FB4C4B988A00F090BEB8F14F0FCC
:1048880000F0AC85B8F1500F00F09685B8F14D0FE7
:1048980040F0F086454EDFF82881307800EB400084
:1048A800C0B209F059FB4FF0000900F099BCB8F10B
:1048B800700F00F01E8300F28780B8F1660F00F0D9
:1048C800D8812CD8B8F15E0F00F033860DD8B8F136
:1048D8005A0F00F0E285B8F15C0F00F0FD85B8F1E1
:1048E800540F40F0C78600F086BDB8F1640F00F0A1
:1048F800748100F29481B8F1600F40F0BB86294EB4
:10490800032009F029FB96F8D50109F0E0FA96F89A
:10491800EE0109F0DCFA96F8ED0100F042BEB8F1BC
:104928006C0F00F07A8216D8B8F1680F00F05C823C
:10493800C0F0CB81B8F1690F40F09C86DFF86C803D
:10494800DFF8809098F80000400000F0FE0009F0C1
:1049580003FB002656E2B8F16E0F00F0738200F2F6
:104968009682062009F0F8FA114B186809F000FB46
:10497800104B188800F012BEE4230020183D0020D8
:104988005420002008100020F83C0020B8C7010877
:104998008C3C0020FC9F0020EFBEADDE00ED00E067
:1049A8000400FA05C0360020741F00208C30002057
:1049B800B43E0020D4160020E9C10108903C002034
:1049C800183900203C300020B8F17D0F00F03B85FD
:1049D8005BD8B8F1750F00F0A8823ED8B8F1730F14
:1049E80000F03B8300F2AE80B8F1720F40F04286CF
:1049F800D74E162009F0B0FAB6F8480209F0AFFA17
:104A0800B6F8CC0009F0ABFAB6F8CE0009F0A7FA70
:104A1800B6F8D00009F0A3FAB6F89C0209F09FFA9C
:104A2800002009F054FA002009F051FA002009F09A
:104A38004EFA96F8230209F04AFA96F8440209F069
:104A480046FA002009F043FAB6F9F0310A2093FB40
:104A5800F0F080B209F083FA54E3B8F1780F00F06F
:104A68004381B8F17C0F00F0DF84B8F1770F40F094
:104A78000186DFF80083DFF800A398F80000DFF86C
:104A8800FC9209F069FA0026DDE2B8F1A00F00F007
:104A9800FD823FD8B8F17F0F00F01F84C0F0EE848C
:104AA800B8F1960F40F0E6850F2009F055FAA94BAA
:104AB800188809F054FAA84B188880B209F04FFA00
:104AC800A64B1B68C3F3C000C3F38002800040EA12
:104AD8004200C3F340021043C3F3401240EAC2004D
:104AE80003F01003184309F03AFA09F01DF909F028
:104AF8003FFA974B93F8FA0409F0E9F9984B1888AC
:104B08006428A8BF642009F02AFA032009F0DFF915
:104B1800944B1BE2B8F1F10F00F04081B8F1FE0FA1
:104B280000F0A682B8F1F00F40F0A485884E04206A
:104B380009F012FAB6F8F40109F011FAB6F8F20120
:104B480000F02CBD4FF000094FF0010B4DE204209E
:104B580009F002FADFF82882002618F80600013664
:104B680009F0B5F9042EF8D100F039BD032009F099
:104B7800F3F9032009F0ABF9002009F0A8F90120A6
:104B880000F00FBD062009F0E7F9DFF8F8810026EC
:104B980018F80600013609F09AF9042EF8D191E0C8
:104BA80018F80600013609F092F90B2EF8D1DFF853
:104BB800D881002618F80600013609F088F9082E71
:104BC800F8D1DFF8C881002618F80600013609F088
:104BD8007EF9072EF8D100F002BD072009F0BCF9D4
:104BE800E72009F074F95A4B587909F070F9002058
:104BF80009F06DF9042000F014BC5B48DFF89081DF
:104C080011F062FBC6B2304609F0A6F94644B04539
:104C180000F0E58418F8010F09F059F9F7E70B20BF
:104C280009F09AF94B4B188809F099F94A4B1888FA
:104C380080B209F094F9494B1B68C3F3C000C3F371
:104C48008002800040EA4200C3F340021043C3F3ED
:104C5800401240EAC20003F01003184309F07FF93C
:104C680009F062F809F084F9394B93F8FA0400F076
:104C780098BC122009F070F93C4BDFF818911B8999
:104C8800B3F5007F94BF4FF001084FF004080026E9
:104C980059F8260090FBF8F0013680B209F05FF968
:104CA800032EF5D1324E308809F059F9B08809F051
:104CB80056F9308909F053F9002009F050F900201D
:104CC80009F04DF9002000F069BC102009F044F902
:104CD800DFF8C480002618F80600013609F0F7F856
:104CE800102EF8D100F07BBC7020194E09F034F971
:104CF8004FF0000AB0464FF00E09B6F8540109F01B
:104D08002EF9B6F8560109F02AF9B6F8580109F053
:104D180026F996F85A0109F0DAF896F85B0109F0D5
:104D2800D6F896F85C0109F0D2F896F85D0109F01A
:104D3800CEF809FB0A830AF1010AD3F85E0109F0EB
:104D480017F9BAF1080F06F10E06D6D100F047BCE4
:104D5800C03600209A2300209823002088230020B2
:104D680008210020FC3C0020763C00208C230020F9
:104D78002C240020E5230020E6230020809E010843
:104D8800F0C70108A5C10108E0C10108AAC10108CE
:104D9800753C0020C8160020241000207020C54E45
:104DA80009F0DAF806F1700896F8E40009F08FF8CF
:104DB80096F8E50009F08BF896F8E60009F087F810
:104DC80096F8E70009F083F896F8E80009F07FF80C
:104DD80096F8E90009F07BF8073696F8E30009F041
:104DE80076F8B045E0D1FAE3102009F0B5F8DFF81D
:104DF8000483002618F80600013609F068F8102E1A
:104E0800F8D1ECE398F800309E4280F0E88339F856
:104E1800160009F0A4F80136F4E7A74E062009F0B9
:104E28009BF8308809F09BF8708809F098F8B6F973
:104E380004300A2093FBF0F024E0042009F08CF8F9
:104E48009E4B2FE1072009F087F89D4B1888FF2813
:104E5800A8BFFF20C0B209F03AF89A4B186880F34F
:104E6800100080B209F07BF8974B188809F077F8A2
:104E7800904B93F82322954B18682AB10A2358437C
:104E880080F3100080B289E300F30F00FAE7904E38
:104E98000C2009F061F83368187809F018F83368BD
:104EA800987809F014F84FF00009B046D8F80030A7
:104EB800874E4B4409F10109587909F008F8B9F10E
:104EC800030FF3D13368187A09F001F83368D878FA
:104ED80008F0FDFF3368187908F0F9FF336858893E
:104EE80009F03DF83368587A08F0F1FF33685878CC
:104EF80057E31E2009F030F8DFF8DC810026D8F8E7
:104F080000303344587808F0E2FFD8F800303344D2
:104F1800D87A08F0DCFFD8F8003033440136587DE1
:104F280008F0D5FF0A2EEAD159E32F2009F014F82A
:104F3800684E16F8010F002800F0518308F0C7FFEB
:104F4800F7E7012009F008F8634B1B68187828E395
:104F58005020584E09F000F806F150084FF00C099F
:104F68005E4A96F8FB3409FB0323043693F83800AD
:104F780008F0ADFF96F8F80408F0A9FF96F8F904D0
:104F880008F0A5FF96F8FA0408F0A1FFB045E7D1AC
:104F980025E35A20474E08F0DFFF06F15A0896F835
:104FA800500508F094FF96F84B0508F090FF96F826
:104FB8004C0508F08CFF96F84D0508F088FF96F828
:104FC8004E0508F084FF063696F8490508F07FFF7D
:104FD8004645E4D103E3BBF1000F00F000835FFA1C
:104FE80089F008F0B9FF4FF0000B00263C4B1B7806
:104FF8009E42F0DA3B4BF05C00214FF00C0E0EFBAA
:1050080001F313F807C0844503D001311F29F6D1F5
:105018000CE0324A1344D3F834A0504611F054F946
:105028000146BBF1000F00F0FA8289440136DDE742
:1050380000FB02F313F807E08E4500F0FD82013211
:105048001F2AF5D1013698F800309E4280F0C782B9
:1050580016F80A1000220C20EAE7082008F07CFF66
:105068000126F0B2013608F032FF092EF9D1B6E276
:10507800082008F071FFDFF88080002638F8160055
:10508800013608F06CFF042EF8D1A8E20C2008F0D5
:1050980063FF154B186808F06BFF144B186808F08D
:1050A80067FF134B1868BCE1042008F055FF014B5B
:1050B8009868B6E1C0360020242400208C3E0020E9
:1050C8000C200020C01F00200C400020E416002007
:1050D800C43100207F9E010800210020809E010825
:1050E800E5230020E6230020ACF7FF1FB0F7FF1FE1
:1050F800B4F7FF1F04330020E41F0020042008F049
:105108002BFFDA4E96F8160208F0E1FE96F81A021E
:1051180008F0DDFE96F8190208F0D9FE96F81B0291
:105128003FE2D24E072008F017FFB6F81E0208F03B
:1051380016FFB6F8200208F012FF96F8220208F0CF
:10514800C6FEB6F8240229E2012008F005FFC74B85
:10515800587926E2C54E102008F0FEFE96F8400267
:1051680008F0B5FEB6F84C0208F0F9FEB6F84802A9
:1051780008F0F5FEB6F84A0208F0F1FE96F8420289
:1051880008F0A5FEB6F8540208F0E9FEB6F8560293
:1051980008F0E5FE96F84E0208F099FE96F84F02E0
:1051A80008F095FEB6F85202F8E1B04E082008F073
:1051B800D3FE96F89A0208F08AFE96F89B0208F049
:1051C80086FEB6F89C0208F0CAFE96F89E0208F021
:1051D8007EFEB6F8A00208F0C2FE96F8A202E0E150
:1051E8003378994508F1020880F0F98118F8020C23
:1051F80008F06DFE18F8010C00EB800000EB800051
:1052080000F2EE2080B208F0AAFE09F10109E7E7F2
:10521800012008F0A1FE954B93F84402C1E1082053
:1052280008F09AFEDFF84482002606EB08030136F0
:1052380093F8380208F04BFE082EF6D1CFE18B4EDA
:10524800102008F089FE707908F041FEB06808F077
:105258008FFE96F8400208F03AFEB6F8C80108F04A
:105268007EFEB6F8CC0108F07AFEB6F8D00108F058
:1052780076FEB6F81E0208F072FEB6F820028DE13E
:1052880013F90920824200F0DD810C333C2BF7D161
:105298000836B04500F0A38196F9A6020023EFE78F
:1052A800B6F8640308F05BFE96F8660308F00FFE94
:1052B800043696F8630308F00AFE4645F0D18EE1FD
:1052C80080206B4E08F048FE06F1800856F8040F5F
:1052D80008F04EFEB045F9D181E18D2008F03CFE82
:1052E80000264FF0060A0AFB06F94FF0000B5FFA9A
:1052F80086F8404608F0EBFD5FFA8BF008F0E7FD12
:105308005A4B0BEB090119440BF1010B91F8A4035B
:1053180008F0DDFDBBF1060FEBD10136062EE2D118
:105328000026062008F0D3FDF0B208F0D0FD4F4B60
:105338003344013693F8C80308F0C9FD0B2EF0D1A9
:105348004DE10D2008F008FE0EF08CFE494E40F0AD
:105358000200C0B208F0BBFD308808F009FEF06812
:1053680008F006FE0EF05EFE5BE008F0A7FD0646BC
:10537800842008F0F1FD304608F0FAFD3D4BDA686C
:1053880006F1800393428CBFC6EB02094FF08009F7
:105398000DF130080EF03EFF4A46304641460EF009
:1053A80077FF002681464E4580F2198118F80600DD
:1053B80008F08DFD0136F6E72C4E042008F0CCFDF0
:1053C800012008F084FD96F8A70508F080FD96F8FE
:1053D800A50508F07CFD96F8A605E2E00B2008F08C
:1053E800BBFD002008F073FD002008F070FD0020D0
:1053F80008F06DFD11E0012008F0AEFD0020D0E0BE
:10540800132008F0A9FDDFF87080002618F80600C0
:10541800013608F05CFD0B2EF8D1002008F0A8FD3D
:10542800002008F0A5FDDAE0104E062008F094FDF3
:10543800B6F8D60008F093FDB6F8D80008F08FFD4E
:10544800B6F8DA00AAE0094E052008F085FD96F8BE
:10545800260208F03CFD96F8270208F038FD96F879
:10546800280208F034FDB6F8DC0097E0C0360020CA
:10547800A0390020BC040020E9C10108CD4E03205A
:1054880008F06AFD96F8C50108F021FD96F8C601F6
:1054980008F01DFD96F8C70183E0C64E062008F007
:1054A8005BFDB6F8D83123B1082008F010FD0120C3
:1054B80005E096F8DA0108F00AFD96F8EA0108F026
:1054C80006FD96F8E30008F002FD96F8E20008F001
:1054D800FEFCB6F8DE0061E0B64EDFF8DC82112093
:1054E80008F03AFD96F8DC0108F0F1FCD8F8003035
:1054F800188C08F034FDD8F80030588C08F02FFDCF
:10550800B6F8DE0108F02BFDB6F8E00108F027FD3B
:10551800D8F80030988C08F022FDD8F80030D88CE4
:1055280008F01DFDB6F8E20108F019FDB6F8E4012F
:1055380034E0A14E112008F00FFD3368588D08F0B3
:105548000EFD3368988D08F00AFD3368D88D08F091
:1055580006FD336893F8280008F0B9FC336893F81F
:10556800330008F0B4FC336893F8360008F0AFFC59
:10557800336893F8370008F0AAFC002008F0A7FC6D
:10558800002008F0A4FC336893F8350008F09FFC6D
:105598003368588F08F0E3FC3368188F08F0DFFC95
:1055A8001DE008F094FC1AE040F25984B8F1D00FDD
:1055B80000F08684B8F1D20F40F0168108F068FC3C
:1055C800020600F18A847D4B1B785B0704D403280C
:1055D80028BF00200BF040FD002008F0BDFC08F0BB
:1055E80087FC2368002283F84820754B754C18689F
:1055F8000BF032FC94F82D305BB1734B585909F01D
:10560800EDF90EF08CF8002384F82D306F4B704ABA
:10561800DA604C35982D00F05786FEF79CBFD046CF
:10562800CAEB08008842BFF601AD18F8010B0191DA
:1056380008F04DFC0199F3E74B4493F8380008F063
:1056480046FCFFE4C0B208F042FCB6F8A80208F035
:1056580086FC96F8AA0208F03AFC96F8AB0208F025
:1056680036FC96F8AD0208F032FC96F8AC0208F069
:105678002EFC0DE6B8F15B0F15D108F009FC4D4E74
:1056880086F8DA0108F004FC86F8EA0108F000FC64
:1056980086F8E30008F0FCFB86F8E20008F004FC5A
:1056A800A6F8DE0098E700F26282B8F1370F32D12F
:1056B8005B794FF00708B3FBF8F8C8EBC8029B1AF0
:1056C80013F0FF0F02D00BF03BF885E75FFA88F87C
:1056D800B8F1000F80D008F0DBFB4FFA80F948469C
:1056E80009F0F2F906460028EDD080F8009008F09D
:1056F800DBFB708008F0CCFB307108F0C9FB7071DF
:1057080008F0C6FBF07108F0C3FB08F1FF385FFA38
:1057180088F8B071DCE700F22881B8F12B0F04D1CA
:1057280008F0B6FB234B587156E700F28680B8F1B3
:10573800250F08D11F4E0023B36008F0BFFBB368E4
:105748001843B06048E752D8B8F10B0F19D11122AD
:1057580000212048DFF85C9014F0BAF84FF00008F8
:1057680033685B79102B28BF10239845BFF434AFFA
:1057780008F08EFB08EB090308F1010883F8B60569
:10578800EEE7B8F1230F2FD108F082FB1328064665
:1057980099D808F07DFB00220C2101FB02F307EBEE
:1057A800030E9EF808E0864500F0F88401321F2AAF
:1057B800F3D188E7C036002000210020E423002030
:1057C8000824002008100020A42F002000ED00E08D
:1057D8000400FA05763C0020B8F1FA0F04D1CE4B4C
:1057E8001B785A0740F173830AF0AAFFF7E6B8F16D
:1057F800270F0DD108F058FBC84EC6F8C80108F0AD
:1058080053FBC6F8CC0108F04FFBC6F8D001E3E61D
:10581800B8F1290FE8D108F047FBC04EA6F81E02E0
:1058280008F042FBA6F8200208F032FB86F82202B4
:1058380008F03AFBA6F82402CEE6B8F1310F14D1ED
:1058480008F026FB1F2806463FF63DAF23685B7924
:10585800052B7FF438AF08F031FBB04B03EB860320
:10586800C3F8E4020FF006F8B6E64BD8B8F12D0FEE
:1058780032D108F00DFBA94E86F8400208F014FB5F
:10588800A6F84C0208F010FBA6F8480208F00CFB3A
:10589800A6F84A0208F0FCFA236886F842025B7907
:1058A800082B07D908F000FBA6F8540208F0FCFA08
:1058B800A6F8560223685B790C2B7FF68DAE08F0AC
:1058C800E7FA86F84E0208F0E3FA86F84F0208F085
:1058D800EBFAA6F852027FE6B8F12F0F84D18F4E6B
:1058E80006F1400808F0E0FAA6F8640308F0D0FAD8
:1058F80086F8660308F0CCFA043686F86303464552
:10590800F0D169E6B8F1330F05D108F0C1FA834B3D
:1059180083F8440260E6B8F1350F7FF465AF08F00C
:10592800B7FA0E2880463FF6CEAE08F0B1FA032843
:105938003FF6C9AE794B062606FB083686F85005B1
:1059480008F0A6FA86F84B0508F0A2FA86F84C0586
:1059580008F09EFA86F84D0508F09AFA86F84E0582
:1059680008F096FA86F84F0536E6B8F1440F04D1E8
:105978006B4B012283F82D202EE671D8B8F13E0F2B
:1059880009D108F085FA654E86F88F0208F080FA8A
:1059980086F88E0220E62BD8B8F1390F11D108F01D
:1059A80077FA5E4E86F8160208F072FA86F81A023E
:1059B80008F06EFA86F8190208F06AFA86F81B02EF
:1059C8000AE6B8F13C0F7FF40FAF564ED6F80080C8
:1059D80008F05EFA0128A8BF012088F800003368A3
:1059E8001B78012B504B14BF504A514A1A60F3E5FB
:1059F800B8F1410F0CD1DFF82481002608F048FAED
:105A080006EB08030136082E83F83802F6D1E3E5E1
:105A1800B8F1430F7FF4E8AE404E08F039FA00239E
:105A2800B360707108F04AFAB3681843B06008F0C0
:105A38002FFA86F8400208F037FAC6F8C80108F0CD
:105A480033FAC6F8CC0108F02FFAC6F8D00108F0EE
:105A58002BFAA6F81E0208F027FAA6F82002BBE5E2
:105A6800B8F14C0F19D108F013FA2C4E86F89A02A7
:105A780008F00EFA86F89B0208F016FAA6F89C02BF
:105A880008F006FA86F89E0208F00EFAA6F8A002B8
:105A980008F0FEF986F8A2029EE513D8B8F1480F7F
:105AA80009D10EF01FFC234A00231370224A1370F9
:105AB800224A136090E5B8F14A0F7FF495AE08F0DA
:105AC800F3F989E5B8F14E0F3AD108F0E1F9112858
