:020000040800F2
:1000000000A00020FD6E0108A5100108CD570108D1
:10001000A3100108A11001089F10010800000000B2
:100020000000000000000000000000009D1001081A
:100030009B1001080000000099100108854201088A
:10004000656F0108656F0108656F0108656F01083C
:10005000656F0108656F0108030D01080D0D0108AA
:100060000B0D0108090D0108070D0108057F0008A7
:10007000F57E0008E57E0008D57E0008C57E0008F4
:10008000B17E00089D7E0008656F0108656F01085C
:100090006D110108656F0108656F0108050D010804
:1000A000713F0108AD3F0108613F0108D53F0108DC
:1000B000A13F0108913F0108813F0108656F0108D8
:1000C000656F0108656F0108656F0108656F0108BC
:1000D000656F0108D97D0008CD7D0008C37D00084B
:1000E000010D0108656F01088B100108656F01089B
:1000F000656F0108656F0108656F0108656F01088C
:10010000000000000000000000000000656F010812
:10011000656F0108656F0108656F0108656F01086B
:10012000897E0008757E0008617E00084D7E00080B
:10013000397E0008656F0108000000000000000023
:10014000656F0108656F0108656F01080000000018
:10015000000000000000000000000000000000009F
:100160000000000000000000656F0108656F0108D5
:10017000656F0108000000000000000000000000A2
:0801800000000000656F01089A
:100188002DE9F04F9B4B9C4A2DED088B1A609B4B39
:10019800AFB000221A600DF0E1FF18B90EF0D4FBE1
:1001A80010F0B6FE0DF0FEFF954A964C137843F01A
:1001B80001031370944B4FF47002C3F88820002396
:1001C8000C930D93236843F480332360236803F46E
:1001D80000330D930C9B01330C930D9B1BB90C9BA7
:1001E800B3F5A04FF2D1236813F4003318BF0123ED
:1001F8000D930D9B012B52D0DFF80C82834BC8F86E
:100208000C30834F666A3E60636A43F080736362B2
:10021800636943F4FC032EAD636103238DF86A30F0
:1002280041F6FF7325F8503D4FF09040294607F0FE
:10023800D5FD4FF6FF7329467648ADF8683007F0CC
:10024800CDFD2946744807F0C9FD2946734807F0D3
:10025800C5FD2946724807F0C1FD2946714807F0D7
:10026800BDFD28460AF0B2FF6F4A1A9BB3FBF2F3B2
:100278006E4A00211360381D102219F0BDFA6C4A2D
:100288006C4B5360F02388F82330072100239360D8
:10029800DFF8D0E111604FF0010C674928E0674BA7
:1002A80012221A606368636063686360636843F47A
:1002B80080636360636823F47C136360636843F45A
:1002C800E8136360236843F08073236022684D4B12
:1002D8009501FBD55A6822F003025A605A6842F029
:1002E80002025A60636803F00C03082BFAD183E713
:1002F80098023EF8135000F19040002245FA02F8A7
:1003080018F0010F18BF0CFA02F802F101021EBF23
:100318000860A1F804800C31102AEFD10133062BB4
:10032800E6D1474D474B95F8E721DFF83C911A7025
:100338000020AB68C9F8003012F0C8FF424A92F8B2
:1003480000B000234FF0170A0BEB03013F4A52F8A5
:10035800210003F1010840B1022380F806A0C3710F
:1003680080F80880012110F087FB4346032BEBD16E
:10037800002012F0ABFFA369354843F00103A361E5
:100388004022002119F038FA324B4FF0FF321A6040
:10039800C3F80320D9F80030180711D595F83C3276
:1003A800012B0DD816F0805600F0478608E093F828
:1003B8003F22012A04D1002283F83E2210F056FE83
:1003C800642013F01BFF4FF48C7200212248234E47
:1003D80019F012FA0024B046A1590023204850F819
:1003E800330081424FEAC30240D108EB020393F87D
:1003F800D0003FE0C423002059E10008C8230020B2
:100408009D3A00200010024000ED00E00005FA05CA
:10041800B00500200004004800080048000C00480F
:10042800001000480014004840420F00A83800207F
:1004380010E000E03F190100982E00200020024043
:10044800603000208E1D0020ACB70108B0B701084D
:10045800802C0020842D0020D836002054990108D3
:10046800209A010824B70108C022002001330A2B72
:10047800B4D100200C3412F0BBFDCC2CACD1C14C53
:1004880004F1CC06207910F067FA0C3414F8032C28
:1004980014F8041C10F0B4FAB442F3D1BA4BDFF8E4
:1004A8002083BA4AD9F800401A604FF005093C2267
:1004B8000021B74888F8009019F09EF900224046BC
:1004C800DFF800C3DFF8C8824B4604F040069646C2
:1004D8004FF0FF091CF9011F02F8081002EB080A87
:1004E80056B91E39C9B201299FBF03F1FF338AF8F3
:1004F8000090DBB24FF0010E0C323C2AEAD1BEF17B
:10050800000F00D00370A34B95F8058083F8008096
:10051800A14BA2497B61D6330B60A10658BFA04B03
:10052800A04A56BF03EBC80301235B7893619E4A38
:10053800002340F2DC5122F813100133082BFAD1C2
:100548001C22002113A819F057F9A3050AD5202267
:10055800212301213A777B778DF858108DF8662092
:100568008DF86730B8F10E0F04D008F0EF08B8F135
:10057800080F02D101238DF8603002200CF040FDF5
:1005880018B14088003018BF0120C4F340038DF82B
:100598005430C4F3403300368DF84C30C4F3C033C4
:1005A80018BF012600F001008DF84F3014F40063E5
:1005B8008DF852008DF8566007D095F81E3203F179
:1005C800FF3EDEF1000343EB0E038DF85030C4F319
:1005D80000438DF85730C4F3C0038DF84E30BB6923
:1005E800003318BF01238DF85930C4F300538DF838
:1005F8005A30B5F8D230ADF85E30B5F8DE30ADF827
:100608005C3095F8E13004F001088DF84D8004F075
:10061800080643B9654B93F8E03013F0FB0F0CBFA5
:100628000123002300E0012395F8E020079312F04E
:10063800FB0F14BF012100218DF855108DF86120A2
:1006480013B15A4BB3F8DC30ADF86230E704B5F8B3
:10065800D030ADF8643042BF544BB3F8D830ADF861
:100668006430042A06D14FF4805010F029FC00238E
:10067800ADF864304E4B95F888221A700021642238
:100688004C4819F0B9F89DF86030002B14BF0222CD
:100698000022B8F1000F00D106B10132394B394CB4
:1006A800DFF8008103EB8203D3F81C319A1E203354
:1006B80008930023059203930493059B33F8022FB4
:1006C80005934FF6FF739A4200F0D0819DF85210BF
:1006D800D3B2120AD7B239B10C2101FB034109790F
:1006E8002A39012940F2BD819DF8561031B10C21FB
:1006F800594360583049884200F0B3819DF857103B
:1007080059B10C215943601865582C498D4200F0A5
:10071800A8810179182900F0A4819DF8541031B1FD
:100728000C2101FB03410979142900F09A819DF8F5
:100738004F1031B10C2101FB03410979222900F046
:1007480090819DF8501031B10C2101FB03410979CA
:10075800152900F086819DF8581069B10C2101FB1C
:1007680003419DF866000979884200F07A819DF876
:100778006700884200F07581022A25D19DF84C2037
:1007880026E000BF549901082C36002000330020D1
:1007980030360020A40C00206C3000206C3800207B
:1007A80078A40108B0050020CC0D0020603000209E
:1007B800741C0020E00D002000040040002C0140C3
:1007C800DC0D0020FBA30108012A04D19DF84D206F
:1007D800002A00F046819DF859206AB19DF86020F2
:1007E80052B9A3F10E02012A06D80C225A43A15885
:1007F800B54A914208BF04279DF85A200C2505FBED
:10080800034532B19DF860201AB91A1F032A40F235
:100818000981012F43D14FF00C0B0BFB03FB04EBB9
:100828000B0954F80B3003930026A84B99F80400E1
:1008380088F82060FF22C8F82C501E705E609E6009
:10084800DE601E6483F8442083F8452083F8466000
:1008580083F8476083F8486010F07EF802228271BE
:10086800C771067299F8081010F006F9324699F81F
:100878000510039808F05AFD3A463146284613F009
:1008880055FC934B934AC8F83030934BC8F8343032
:10089800C8F83860111F284613F0A0FBE1E0022FCA
:1008A80046D19DF8102009921C264FF00C0B0BFB2B
:1008B80003FB06FB02F108EB010704EB0B064FF004
:1008C800010A4FF0000987F82120307987F8229033
:1008D80087F82A9087F820A0FD62069110F03CF86E
:1008E800099A80F806A05244027280F807A0317A6B
:1008F80010F0C2F84A46717954F80B0008F016FD5A
:1009080052464946284613F011FC744B3B63744B1E
:100918007B63069BC7F8389003F11001714B1944AB
:100928000A1D284613F05AFB049B5344049398E08D
:10093800032F75D19DF84D2072B19DF861205AB1F1
:100948004FF00C0B0BFB03FB039954F80B30994247
:1009580002D1284608F0D5FC9DF855309DF8612055
:10096800614EBDF862004BB3022A96F801A007D089
:100978005E4B5F4F032A16BF1F464822082201E03C
:100988005C4F1822D1B2DFF8789138B15A4B5A43EC
:10099800BDF86430B2FBF0F292B202E003464FF6C3
:1009A800FF72284610F08EF849F82A0059F82A30C4
:1009B800DF60B378192206EBC30327E0042A7778AF
:1009C80011D14E4AB2FBF0F2182192B2284610F02B
:1009D80079F84B4B43F827004A4BC360B3780D2294
:1009E80006EBC30312E0BDF86430434AB2FBF0F2F1
:1009F800012192B2284610F065F8414B43F82700D0
:100A0800414BC360B378092206EBC3035A71B3782C
:100A1800727806EBC3010A7101328D6072701EE0B4
:100A2800042F1ED1304EBDF85C20B378377806EB22
:100A3800C30301211F7128462F4B93FBF2F2BDF827
:100A48005E3092B210F03EF8304B43F82700B3788E
:100A580006EBC3020A215171327801323270013338
:100A6800B370089B059A93427FF427AE079B284FE3
:100A780083F00102274B1A70274B1E78A6F1170343
:100A88000024022B3C704DD8DFF890C0DFF890E0CE
:100A9800DCF814302344D3ED007AF5EE407AF1EE19
:100AA80010FA04D11D4DAB69002B5BD153E00FCB7D
:100AB80004EB0E0585E80F003B7810340133C02C99
:100AC8003B70E5D1EEE700BF004001402015002053
:100AD800C18B0008E40500201D8D000871930008F3
:100AE8009B8B0008D0050020E00D00200D8F00082A
:100AF800A98E0008E18E000840420F0000366E0102
:100B08008C3600205D8D00084D8D0008781C002073
:100B1800371E0020D4360020A40C0020B005002089
:100B2800DC0B00208A4B13F836E087F800E003EB73
:100B3800C603D3F804C0BCF1000FB3D0DFF8488275
:100B48007445AFDA230103EB080563440FCB013486
:100B580085E80F00F4E77F4B03931A6812F4805F6F
:100B680026D11FE07C4B7D4A13F83600107003EB4A
:100B7800C6035C68002CEED0DFF810E20023834245
:100B8800E9DAC3EBC301621801EB0E0CD2F800805E
:100B980041F80E809188ACF8041092798CF8062000
:100BA8000133ECE706F0EF03082B6D4B1FD120E073
:100BB8003A78012AF6D96B4B03EB02121032F6EEA3
:100BC800007A10339342EDD013ED047A27EE277A9A
:100BD80003ED047A13ED057A27EE277A03ED057AFB
:100BE80013ED037A27EE277A03ED037AE9E70E2E51
:100BF80008D11A7842F010021A70182E08D113F092
:100C0800EBF805E01A7822F010021A70192EF5E7B1
:100C1800554C13F0C3F823783F2043F004032370A6
:100C28000FF09AFE514A05941060514A0121117043
:100C380038B1112282710222C271002202720FF0B1
:100C48001BFF4C4C002008F06DF9207E12F0D0F903
:100C5800237E03F01F015B090122022B02FA01F235
:100C680008D0032B0BD0012B0DD143498B6A1A43B3
:100C78008A6208E04049CB681A43CA6003E03E49EB
:100C88000B691A430A61607D0FF066FE0C260B2380
:100C98000227C37186710772E07D0FF05DFE4FF089
:100CA8000D08867180F807800772A07D0FF054FE4A
:100CB8008671C6710772607D0FF04EFE627E0E214E
:100CC8000FF09EFEE07D0FF047FE627E0E210FF0D2
:100CD80097FEA07D0FF040FE627E0E210FF090FE81
:100CE800207D30B10FF038FE224B41465A7E0FF07E
:100CF80087FE2269214B9A420AD103F56043D968DD
:100D080041F48051D960D96821F48051D96019E043
:100D18001B4B9A4209D103F5EC33196941F4804120
:100D28001961196921F480410BE0164B9A4209D1E7
:100D380003F5EA33196941F400411961196921F48D
:100D480000411961237F1BB30023184622E000BF2E
:100D580078A40108C0220020A8A00108F8370020C4
:100D680011150020E40B00209D3A0020701500208A
:100D780074150020040500200010024000300140D6
:100D880000380040003C0040DC0B0020F937002010
:100D980001230220918821F480510904090C9180D3
:100DA800918889B241F4805191802269118801F4B7
:100DB800415141F445710B4303431380938823F455
:100DC80070631B041B0C43F4E0639380938B23F440
:100DD80000631B041B0C9383072313822269138867
:100DE8009BB243F040031380207D18B10FF0B4FD8F
:100DF8000FF0DBFD039B1B6803F41073B3F5107F42
:100E080067D026200FF0A8FD074627200FF0A4FD85
:100E1800A64C0646752012F0EBF8236B23F010035E
:100E28002363236B43F0100323634FF001084FF053
:100E38000D09092387F80690FB7187F80880384662
:100E480004221E210FF0DCFD0A2386F80690F371B8
:100E580086F80880304604221E210FF0D1FD944BFD
:100E6800944E1A6822F001021A601968924A0A40E0
:100E78001A60924A1A611A68002142EA08021A6046
:100E88009960D96099609A6842F400429A601A6839
:100E98001A605A6822F0784222F400425A601A68AE
:100EA80022F400321A601A6842EA08021A60039BA8
:100EB8001427D3F800A03A46304618F09DFC1AF0E3
:100EC800020F0AF400490AF40068304618D0377057
:100ED80016E07B497B4C0A7800231846FF261F57EB
:100EE8001F2F04BF1E5502F1FF3203F10C0304BF8C
:100EF800D2B201203C2BF2D1002882D00A7080E7C0
:100F0800B9F1000F01D022234371B8F1000F01D0CD
:100F18001523C3736C4EDFF8CCA14FF00F090027DF
:100F28004FF0060816F8010C58B30FF015FD4FF0F6
:100F3800000B80F8068080F8079080F808B016F853
:100F4800010C0FF009FD13210FF096FD16F8011C96
:100F58005B465E4810F8130088424FEA430204D10A
:100F68000AEB020393F82D3103E00133272BF0D16C
:100F7800002307223370F2707B1C01227770B27055
:100F8800DFB209F101095FFA89F9B9F1130F06F126
:100F98000506C7D1E36A23F4F873E362E36A43F40E
:100FA800D873E3623C2012F023F8212012F020F8D5
:100FB8004748474C0AF091F81AA80AF063F8454BDD
:100FC8001A93454B1B93022F4FF0000334BF1A4668
:100FD80080221F924FF4807220924FF480622192F7
:100FE8002022204622921AA94FF400521C931E93E5
:100FF80023922493ADF874700AF051F8236843F0F3
:1010080001032360354CA36823F04053A360A36811
:1010180043F08053A3600A2013F0F0F8A36823F08C
:101028008043A360A368A360A36843F00043A36060
:10103800A3682A4A002B57DAFAE7294B93F83E327D
:10104800013B092B3FF6BCA92B200FF085FC182388
:1010580083710223C371044606720121C7F8A804EC
:101068000FF00AFD204601210FF0A4FC3C2013F0EC
:10107800C5F895F83E221A4B9642BFF698A900206B
:1010880012F024F9002120460FF094FC782013F088
:1010980093F8012012F01AF9012120460FF08AFC7A
:1010A800782013F089F80136E3E700BF001002400A
:1010B80000540040701D0020FFE0CF00300E5000AB
:1010C800DC0D002030360020711D0020809A0108B8
:1010D8000804024040010050841D00200001005017
:1010E80060300020549901089368B64923F04053B2
:1010F8009360936843F0005393608868B24B034051
:1011080043F468338B60D168B04BB1480B4043F46B
:101118000053D360136B013F23F00F031F43176382
:1011280000F1140801234FF0380C4FF0070B4FF073
:10113800060E1F24C178002966D05E1C042B417856
:101148000779F6B20ED803EB4303D2F830905B0070
:1011580004FA03FA29EA0A0901FA03F343EA09033C
:1011680013632FE0092B0ED8053BD2F834900EFB01
:1011780003F304FA03FA29EA0A0901FA03F343EA32
:10118800090353631EE00E2B0ED80A3BD2F83890A1
:101198000EFB03F304FA03FA29EA0A0901FA03F336
:1011A80043EA090393630DE00F3BD2F83C900EFB32
:1011B80003F304FA03FA29EA0A0901FA03F343EAF2
:1011C8000903D36309290FD90A399369936901EB94
:1011D80041010BFA01F923EA09039361936907FABC
:1011E80001F1194391610EE001395369536901EB2B
:1011F80041010CFA01F923EA0903536153690331E8
:101208008F401F43576133460530804592D1714B5B
:101218009A6842F001029A601A4611686D4BCC0731
:10122800FBD5DA686C4C22F00202DA60DA6842F028
:101238000202DA60DA6842F00102DA609A6842F083
:1012480004029A60D4F8C831002B41F08B80D4F89E
:10125800CC21002A41F08680D4F8D021002A41F020
:101268008180039B1B6898031BD5C82012F0C6FF1A
:10127800AE2014F0F1FA08B113F01AFB574E85F8B6
:101288000001C82012F0BAFF002333607360B36016
:101298000223F37009F0A2F912F072FF504B0344D5
:1012A800B360B4F9EC3104934E4BDFF84CB14E48BF
:1012B800069300271F605F609F601822394694F8E4
:1012C800D59194F8EA61B4F8D88194F8DAA118F0C5
:1012D80093FA39461822A5F801710BF5827018F0B7
:1012E8008BFA424AC5F81C21232012F087FF0DF122
:1012F8002E020121752006F0A1FA002800F0838053
:101308003B4BCBF808313B4BCBF80C310DF12F029E
:101318004323012138468BF8043106F08FFA9DF8F3
:101328002F3003F07E038DF82F3040B1682B06D1A3
:1013380001238BF801311D238BF8043163E09DF8FC
:101348002E3003F07E03682B8DF82E3056D1022301
:10135800062185F801311AAAD5F8083108469847B8
:101368009DF86D209DF86B3092005B0003F002033E
:1013780002F004021A439DF8693003F00103134395
:1013880011D0012B01D1002302E0022B03D101234C
:1013980085F8023137E003F00303032BF7D003206D
:1013A80012F036FF2FE0144B0EAAD3F808310121B2
:1013B8000C2098479DF8383013F00F03EFD0042B1A
:1013C800E5D1E0E700030050E010FCFF07C0FFFD97
:1013D800701D00200001005060300020580F0020D0
:1013E800404B4C00A8220020201D0020CE9A010866
:1013F800457800085B780008B0050020702B04BF12
:10140800042385F8013195F801218A498A4D002382
:10141800022A0B7040F04A81884B89481860894835
:1014280058608948D8608948186189480270894A93
:1014380004230B70116841F0010313604FF0010C95
:101448004B460B2B28BF00230CFA03FE40F2B27761
:101458000EEA0707B7B91EF04D0F13D07E4B7F4F2A
:101468001F607F4F5F6095F80271002F14BF6E27D1
:101478006F279F727B4B04271F7003231943437008
:10148800116006E0012B4FF00009D9D8754B83F89D
:101498000090042E38D8DFE806F003400303030069
:1014A80095F82071644E002F40F05587142012F0F3
:1014B800A5FE06F221130122D021762011F022FE8A
:1014C80096F82131582B28D106F5927318228821D5
:1014D800762011F017FE3122F421762011F0A6FDB6
:1014E800012386F82031604B604A9A60604A5A604E
:1014F80045F6D8125A805F4ADA605F4A1A615F4A35
:101508001F805A6100F027BF012E06D0504B514A68
:101518009E70136843F0040313604E4B1A6812F070
:10152800020F994605D04C484FF480730381036835
:10153800984718F0FF0007D0072816BF4FF47A73B2
:101548007D234FF0010A00E07D233C4E0AF1FF3273
:1015580003FB0AF385F84021736133689847484BC9
:101568001A7898463AB9474B93F8C321002A38D0DD
:1015780030490A7035E07369002BF4D0DFF828B1E0
:101588000027B246BBF800303F48716900EE103AB8
:101598003E4B0122D3ED000AB8EE400A384414F05D
:1015A80064FD3B4A1278012A0CD198F8003039487A
:1015B800DAF8141000EE103A3844B8EE400A14F085
:1015C800BBFD0AE0DAED057A9FED337A334AF8EE8F
:1015D800677A67EE877AC2ED007A1C37542FD1D12B
:1015E800C1E793F8C4310BB11E4A1370D9F8003023
:1015F8002B4913F0080F1AD00498049BDFED296AD1
:10160800642293FBF2F302FB130212B207EE902A54
:10161800B8EEE77A07EE903AF8EEE77AE7EE267A40
:10162800B2EE047A67EE877AC1ED007A41E00023D2
:101638000B603EE0AC0A0020B0050020201D002011
:10164800B9780008B57400089D74000890C1793D08
:10165800C9040020A4220020A8220020297900081B
:10166800FD740008142E0020303900208D74000805
:10167800C17D000851780008FB770008D772000880
:101688006C23002060300020040B0020742300200D
:1016980070230020580B0020BD378635AC0B002086
:1016A800042E00208988883C6E230020012012F037
:1016B800AFFD059B059A1B78C44F43F00203002039
:1016C800137011F003FE0A2611F0F3FD192012F031
:1016D80095FDD7F8AC35DFF8F48213F4803F02D1DA
:1016E800012007F01FFC192012F088FD002007F0E8
:1016F80019FC013EE8D1304611F0E8FDB44B9FEDEE
:10170800B58A1B689FEDB40A1B7BB44F07EE103AED
:10171800B8EEC77AB946A7EE080A14F023FCD7ED4D
:10172800047AAF4B9FEDAF7A83ED000A67EE887AB3
:10173800AD4BAE4FC3ED007A069B1B8907EE903A7E
:10174800F8EEE77AAA4BC7EE276A9FEDAA7AC6EEAB
:10175800877AC3ED007A12F081FBA74B1E22FF2186
:10176800184618F049F8A549D7F800E00670012294
:101778000A70039A12680B4612F4800F01BF022107
:1017880019701B2141701EF0020F0ED019784FF00E
:10179800010C00F801C001F1020C0131C9B283F853
:1017A80000C04FF0020C00F801C01EF0040F08D072
:1017B800197801F1010C83F800C04FF0030C00F810
:1017C80001C01EF00A0F16D019784FF0040E00F869
:1017D80001E001F1010E5FFA8EFE4FF0050C00F8F2
:1017E8000EC001F1030E0231C9B283F800E04FF0D8
:1017F800060E00F801E0910508D5197801F1010EEF
:1018080083F800E04FF0150E00F801E0D10508D587
:10181800197801F1010E83F800E04FF01A0E00F874
:1018280001E098F805E0BEF1080F02D0BEF10E0FF6
:1018380008D1197801F1010C83F800C04FF00B0CA6
:1018480000F801C0197801F1010C5FFA8CFC4FF027
:101858000C0A12F4803F83F800C000F801A009D0F8
:10186800DFF898A102318AF8001063494FF00E0A98
:1018780001F80CA0110308D5197801F1010C83F8BF
:1018880000C04FF0190C00F801C0197801F1010CE3
:101898005FFA8CFC4FF01D0A12F4805F83F800C0D9
:1018A80000F801A009D0DFF854A102318AF800102D
:1018B80051494FF01C0A01F80CA0910608D5197877
:1018C80001F1010C83F800C04FF0070C00F801C0CB
:1018D800510708D5197801F1010C83F800C04FF0C1
:1018E800100C00F801C0510308D5197801F1010C5A
:1018F80083F800C04FF0120C00F801C0520507D55C
:1019080098F8CC2222B11A78511C197013218154ED
:10191800BEF1180F0ED11A7816218154511CC9B284
:101928004FF0170C00F801C0D11C0232D2B2197066
:1019380000F802E0982200213148DFF8ECA017F007
:101948005BFF0EF0ADFD2F4B2F4A1A602F4BB4F8FA
:10195800DA1019802E492F4800230B808B702E49EE
:101968000A602E4A1370B4F844222D4C0FFA82FCF8
:1019780021682AF813C001F5967140F82310013345
:10198800122BDFF8A4E0F3D1264C10492068C304D9
:1019980058BFB8F950C2AEF806C001F1500C91F822
:1019A800FD34002B50D191F8FFA491F800359A45E9
:1019B8004AD2BAF1000F39D00AF1FF3A0AEB8A0A83
:1019C8000AEB8A0A0AF5617337E000BF603000202D
:1019D800A023002035FA8E3CDB0FC93F201D0020D4
:1019E800082E00200AE81C41F42D0020A422002023
:1019F800703A002000401C460223002001230020EA
:101A08006C2B0020400F0020943200203E0F002055
:101A1800CC220020C40E0020BC2200200C0F002085
:101A28009C220020C0220020042C0020013303EB5C
:101A3800830303EB830303F5617391F8FEA40AF1B2
:101A4800040A9BB22EF81A3004316145A7D1000769
:101A580040F1608198F83C32082B00F25581DFE8AC
:101A680013F009000C00130044006500860086008E
:101A7800CD00250145F2F05201E042F6F822744B00
:101A88001A800EF0F4FD3EE1714B42F6F821198000
:101A980070490A23120192FBF3F20023A2F5B06207
:101AA80041F823200133122BFAD16B4A6B4911609C
:101AB8006B4A402013700BF0E1FA8246002800F0D0
:101AC800238108F02FFC98F83D329AF900E0002BAA
:101AD8000CBF0622072200280CBF01230323019212
:101AE800009380465F4B604AA7E0594B42F6F822C4
:101AF8001A80594B5D4A1A60594B102240201A70BF
:101B08000BF0BCFA8046002800F0FE8008F00AFCC2
:101B1800002200280CBF0123032398F900E001925A
:101B2800009380464FF4E133514A86E0484B42F631
:101B3800F8221A80484B4F4A1A60494B0822402025
:101B48001A700BF09BFA8046002800F0DD8008F040
:101B5800E9FB002200280CBF0123032398F900E0C9
:101B68000192009380464FF4E133434A65E0384AD6
:101B7800DFF82CC1DFF82CE1404842F6F82111804B
:101B880037490C22062B0A7010D000238CF800303D
:101B98008EF8003003703A4B1B211970394B1A70BC
:101BA800394B05221A704FF4E13A0EE0002101701A
:101BB8008CF800108EF800103149DFF8ECA02120D5
:101BC800087030490A70304A1370234B2F4A1A6044
:101BD80040200BF053FA8046002800F0958008F06A
:101BE800A1FB002200280CBF0123032398F900E081
:101BF8000192009380465346254A1EE0144B44F652
:101C080020621A80144B234A1A60154B0A2240207E
:101C18001A700BF033FA8046002875D008F082FB62
:101C2800002298F900E0019200280CBF0123032349
:101C3800194A009380464FF4E133402170460BF077
:101C480089F9B8F1000F5BD0144B186058E000BF59
:101C5800640A0020D8200020FC04002045D4000895
:101C6800542C0020A0860100EDD6000805D40008F9
:101C7800F1D50008EDD30008A9D50008A821002057
:101C8800AA21002065200020AB2100202DD30008C8
:101C9800D5D40008C5D400082DD800085C2C002035
:101CA80066200020A921002090D003008D4B41F22E
:101CB8007C521A808C4B8D4A1A608D4B10221A70F8
:101CC8008C4B4FF0000883F800808B4B2822402073
:101CD8001A700BF0D3F9B8B1032390F90000874AC2
:101CE800CDF8048000934021854BDFF870820BF01B
:101CF80031F90121C8F8000007F0D6FAD8F8000039
:101D0800003018BF012028B908200FF0D9F8764B09
:101D18007C4A1A602368764A13F4804F04D0122153
:101D2800117071497848086042F20101194003F0C6
:101D3800010003F4005EA1B16A4944F6206CA1F8E1
:101D480000C0BEF1000F06D0082111706649DFF807
:101D580010E2C1F800E020B10C21117062496B4813
:101D68000860117804395170990556D5684A936905
:101D780043F001039361287F0EF0EEFD654A4FF0B2
:101D8800000A10604FF00A0B0222C271012180F88C
:101D980006B080F808A00EF06FFE687F0EF0DCFD3C
:101DA8000123C37180F806B080F808A05146804628
:101DB800C5F844010EF060FE574B5849C5F8483144
:101DC8008022102340460EF09EFF404611F086FA0E
:101DD800534B544A1B689FED540A3C3B13603B68C5
:101DE80043F010033B604FF4C873A5F84C314F4BD8
:101DF800C8221A8014F0B6F84D4BDFED4E7A83ED09
:101E0800000A20EE270A4C4AFDEEC07A17EE903AF7
:101E180013804A4B4FF0FF321A60494BC5F85031D6
:101E28002368DFF840A1474F002513F4803F8AF864
:101E3800005000F0118112F0D9FC4FF0010840F277
:101E48002A32294607F5AA708AF8008017F0D4FCD0
:101E58002F493D4B48699A6A02434A613B4A1A62D4
:101E6800DD621AA893F825308DF868308DF86980FE
:101E78008DF86A508DF86B8011F0BEF918200EF0BD
:101E88006BFD16238371324ADFF8CCC0C7F8800493
:101E98000223C371057207F5AA7A52F835302D4925
:101EA80063454FEAC50E01F1CC0B04D10EEB0103DB
:101EB80093F8D12003E001350A2DEED100222E211E
:101EC8000EF09EFD244800235BF83310DFF888806D
:101ED80081424FEAC30247D11E4B134493F8D00006
:101EE80046E000BF640A0020FC040020ADD40008CE
:101EF800542C0020342200203522002045D7000829
:101F080048E8010079D400089DD400087DD4000871
:101F180000100240983A0020FD750008F8060020DD
:101F28009C220020943A0020D253FB3F503A0020D4
:101F3800483A00200000C843583A00204C3A002094
:101F480040330020B005002084000020B37500084D
:101F5800209A010854990108002C0140141500200A
:101F68008DD40008243B002001330A2BACD100207B
:101F780011F03EF8B8F80030B748DFF820B323F482
:101F88005C731B041B0CA8F800301D23C8F82C3008
:101F98000223A8F8283000250123A8F830500EA9FC
:101FA800C8F814306022ADF83C3003930E92ADF8B7
:101FB8003E501095ADF84450ADF84650ADF8485035
:101FC800ADF84A5009F00CF8D8F8182042F0080289
:101FD800C8F81820D8F8442042F40042C8F8442031
:101FE800584609F07AF81AA809F04CF89B4A1A9250
:101FF80010221C9240F22A32ADF8742080221F92DF
:102008004FF4807220921AA94FF400525846239236
:10201800CDF86CA01E9521952295249509F03FF8DE
:10202800D8F80C20039B8E4942F40072C8F80C20A3
:10203800DBF8002042F00202CBF8002087F8843455
:10204800FF22731875520436802E9A70DA70F8D110
:1020580005F090FD05F08EFD23685A0553D5814E95
:10206800814B32681A6004200BF008F80421C7F885
:1020780088040AF0D9FF7D4B326887F88C04082061
:102088001A600AF0FBFF7A4B7A4D186008210AF0B3
:10209800CBFF002187F88D042C22284617F0ACFBD3
:1020A8007C232B708E236B70E023EB707D2385F8E7
:1020B8002B30714B32681A6020200AF0DFFF202194
:1020C800C7F890040AF0B0FF87F8940410200AF0CB
:1020D800D5FF1021C7F898040AF0A6FF674B87F8C8
:1020E8009C043B221A7001225A703A221A719F22CC
:1020F8009A711E221A72A4225A7200229A72DA72F5
:102108001A7308F01CF95E4DB5F80080B8F1000F9D
:102118007BD12C200EF020FC0F2383710E230D2180
:102128000646C37180F80880C7F8A0040EF0A4FC26
:1021380030460EF03AFC534A138823F040031B0440
:102148001B0C1380138823F038031B041B0C13800B
:1021580013889BB243F04003138032209F238DF8ED
:1021680038308DF839808DF83A808DF83B8012F040
:1021780045F830468DF869800EF012FC04220EA94D
:102188001AA811F0BDF830460EF00FFC9DF86A3021
:102198009DF869201B0243EA02429DF86B30134305
:1021A800394A934217D00CDC384A934215D0013291
:1021B800934217D0A2F51A42033A934220D1202322
:1021C8000CE0334A934208D0013293420AD0314A94
:1021D800934215D101E0402300E080232B804FF487
:1021E800807302E04FF480732B806B80AB882A8861
:1021F8001B02AB605343EB60012387F8A43404E06F
:1022080000232B806B80AB60EB60ED68002D47D01E
:10221800ED0A2F464FF000080DF1680AA84509DAC3
:1022280008EB0506761010225146F00211F03AFC30
:102238000F2805DC11F0F8FB174BFF021F602FE099
:1022480000235AF82320013240F088800133042B00
:10225800F7D137463546E1E7002C0140342C0140E0
:10226800263B0020782300208C140020CC1400206A
:10227800E81400209C14002000150020282C0020C1
:10228800B4040020003800401620C20017BA20000D
:102298001740EF001720C200041E00201C00024057
:1022A8006A4DD9F81420B5F8D831013B9BB2052BFB
:1022B8009EBF012385F8E63185F8DA3195F8E631D5
:1022C8005343634A13602368624A13F4002318BF18
:1022D800012313706B79052B02BF5F4B4FF4C87253
:1022E8001A8009F028F95D4BC8221A805C4A1378D5
:1022F80043F0080313705B4A137823F0020313704A
:10230800226840F6020313406BB1574B57491960D6
:10231800574B03211970574B012119705649002357
:102328000B8056490B80930306D5554B05221A712D
:10233800DA7842F00102DA70AB682360514B01226F
:102348001A70514A137863F07F0313702FB0BDECF5
:10235800088BBDE8F08F0426FFF7D8B806F101080E
:102368002E4677E71BB208EE103AB4F9CC31DFED10
:10237800477A9FED47BA474A09EE103AB4F9D03187
:10238800B8EEC88A08EE903A28EE278AB8EEC99ABD
:10239800F8EEE88A002138EE0B0A29EE279A68EE53
:1023A800A78A117013F0DEFDF0EE40AAB0EE480ADD
:1023B80013F0D8FDF0EE409A39EE0B0A13F0D2FD77
:1023C800B0EE408AB0EE490A13F0CCFDB0EE40AA58
:1023D80038EE8B0A13F0C6FDB0EE409AB0EE680AEC
:1023E80013F0C0FD60EE2A6A69EE897AF0EE665A4B
:1023F800EAEE275A284B29EE2A6A29EE807AC3ED9D
:10240800035AB0EE465AF1EE4A5AA5EE875AEAEE5A
:10241800267AA5EE867A29EE089A28EE400A69EE11
:10242800C89A28EE2A8A83ED009A83ED010A83ED83
:1024380002AA83ED045AC3ED059A83ED067AC3ED2B
:10244800077A83ED088AFEF70CBF00BF60300020D2
:10245800381E002012200020540F0020343A00209B
:102468001115002000230020681D00207232002072
:10247800A0220020C8040020CC2D0020CE2D002052
:10248800580F0020AC0D00209D3A002035FA8E3CF4
:10249800DB0FC93FD8010020441D00202DE9F04F73
:1024A800BA4B1B689A6ABA4B2DED028B1A80B94B4E
:1024B8001978A1B00129049304D1B74B1A80B74AFF
:1024C80012885A80B64C2378002B01F00E8111F047
:1024D80057FEB44B06909B680BB1A01C9847B24BB3
:1024E800B3F90670B14B1B685A8997420CDB197A0D
:1024F800B7F5FA6FBFBFBB1A4B43C2F5FA6193FB3E
:10250800F1F1C1F1640100E06421A94BA94EB3F8CF
:10251800440293F8228293F8239293F9D4315B42D0
:102528001FFA83FB002240F2E63AA34BD1549E4B9C
:1025380033F912E0C0EB0E0303F2F31555454FEAE9
:10254800420C9C4D11D8002BB8BF5B42022A059360
:1025580010D0434503DD059BC8EB030300E00023CF
:10256800864526F80C3010DB14E04FF4FA73022A83
:102578000593F0D1059B9945B4BFC9EB030300232C
:1025880013FB0BF38645B38007DA36F80C305B4251
:1025980026F80C300132032AC7D1884B844E1B68B9
:1025A80013F4805E0ED0B7F57A7F06DBB7F5FA6FC5
:1025B8003A46A8BF4FF4FA6201E04FF47A72A2F5E6
:1025C8007A7213E0B6F846128F4206DBB7F5FA6F57
:1025D8003A46A8BF4FF4FA6200E00A46521A4FF48E
:1025E8007A735A43C1F5FA61B2FBF1F26423DFF85A
:1025F800108292FBF3F101F1010938F911C038F9A1
:1026080019806FF06309CCEB080809FB012101FB75
:1026180008F292FBF3F202EB0C039BB2EB80BEF1E3
:10262800000F16D0664A1268D20012D5654AD278D1
:102638007AB9A3F57A731BB24FF47A721B0393FB32
:10264800F2F3C0F5FA6212B2534300EB2330594B50
:10265800D8805D4BB3F800A01AF0400F98463AD0E6
:102668005A4BDFED5B7AB3F904309FED5A0A0A2220
:1026780093FBF2F3A2889B1A1BB208EE103AB8EE4D
:10268800C88A28EE278A38EE000A13F06BFCF0EEB1
:10269800408AB0EE480A13F065FCB5F9023007EE3F
:1026A800103AB5F90030B8EEC77A06EE903A67EE00
:1026B800407AF8EEE66AE6EEA87A20EE260AFDEE03
:1026C800E77AA7EE280A17EE903AFDEEC07A2B803B
:1026D80017EE903A6B80404BDFF8C4901B6813F0FC
:1026E800140F00F0A8801AF4027F00F0A4803B4B7E
:1026F8001B7803F0100303F0FF004BB1384B96F939
:102708009422B3F900106B8801FB02336B8092E0CE
:10271800344B354A1B68D9789B7819B3B2F9002035
:10272800C2EB070E8EEAEE71A1EBEE7199420CDD59
:102738002E49974208604FF00101A171C8BF5B4262
:10274800E9889BB20B44EB8075E099F806302BB111
:10275800274B89F806001968264B1960204B1B681F
:1027680013445DE0B2F900003A1A82EAE27EAEEB69
:10277800E27E9E4546DD022392FBF3F21E4B1A6071
:102788001E4A0123137089F8063046E0BC1D00205C
:10279800B62200208E1D0020901D0020242000203D
:1027A8005C0A0020201D0020042C00208C2D002015
:1027B80060300020181E0020341E0020C022002097
:1027C800FC220020CC220020F8220020201E00201D
:1027D80035FA8E3CDB0FC93FA422002011150020DA
:1027E8008C3A0020B82300206A0F0020883A002085
:1027F800743A00207C3A0020803A0020903A002069
:10280800FA1F002099F806303BB1744B89F806107E
:102818001A68734B1A60734B1970734B1B68034427
:10282800724A11680A884988934203DB99420A462A
:10283800A8BF1A46EA806E4B1B78ABB1B6F8463291
:10284800BB4211DB6B4B5B79012B01D0192B02D1F9
:1028580096F88F2242B90E2B06D0082B04D00023FD
:10286800AB80654B00229A6096F8107297B31AF005
:10287800030F2FD0614BDFED627A93ED080AB4EEB7
:10288800E70AF1EE10FA21D914F00CFF5D4BD3EDF5
:10289800007A20EE270A14F073FEB0F5617FA8BF16
:1028A8004FF4617007EE900AB8EEE77ADFED567ADA
:1028B80087EE270A13F056FB07EE907AF8EEE77AD0
:1028C80027EE800A14F05CFE00B200E00020EB88DE
:1028D8001844E88096F84A324C4A23B9B8F80010F0
:1028E800002900F0A1801278002A52D0022B09D0CA
:1028F800032B19D196F84B32C3EB431203EB820337
:10290800DB000FE0424BD3F8F820B2F57A7F05DB05
:1029180044F620639342A8BF134601E04FF47A734C
:1029280003F57A739BB201E0B9F80830394A1068A8
:10293800049AB3FBF0F01278471C3FB2092A67816A
:1029480005D1354A2988118069885180D380B9F921
:102958000CA0DFF8CCB00023DFF8C0E03BF913800F
:102968000EF1160C0EF10E093CF8132039F913106C
:102978002CF81380C2EB080201FB0AF191FBF7F176
:102988000A4429F813200133042BE5D1AEF80C00D2
:1029980004E0B9F80C30013BA9F80C301F4AB2F931
:1029A8000C0000284FF0000315DDDFF874E0B2F9E1
:1029B8000A700E32DFF86CC032F913103CF813C0FD
:1029C800414391FBF7F1C1EB0C012EF813100133D1
:1029D800042BEFD12DE093812BE000BF743A002047
:1029E8007C3A0020903A00208C3A0020BC2300203A
:1029F800D0040020603000200C1E00208038002009
:102A08008FC2753CAC230020EFB6B044680F00209D
:102A1800DC010020381E0020901D00205C0A0020E8
:102A2800181E0020720A00201378A181002B00F0E4
:102A38009E809E4B93F84C3223B19D4A12689100B8
:102A480001F139849B4B9C481A68049B9B4F93F86F
:102A580000E09B4BDFF8B0821B689FED9A5A9FED10
:102A68009A4ADFED9A3A9FED9A3ADFED9A2ADFF813
:102A78009C9293F800C0F7EE005A151D0023B0EEA3
:102A8800652A022B14BF92F800B092F801B038F909
:102A9800131007EE90BAF8EEE77A06EE901A87EE72
:102AA800857A14BF9178517A4FEA430AF0EE007A9A
:102AB800B4EEE77AF1EE10FAC8BF77EE677AF8EE6F
:102AC800E66AC8BFA7EE847AC6EEA37AF5EEC07AA6
:102AD800F1EE10FAD4BFB1EE676AB0EE676AA7EC00
:102AE800016A89B106EE901AF8EEE66A66EE064AC1
:102AF800C6EE851A64EE864A75EEE16A66EE866A67
:102B0800E1EEA46A67EEA67A27EE037A15F8011FAC
:102B180067EE276A002941F02784BEF10C0F02BF37
:102B2800FDEEE67A17EE901A2AF80910BCF1000FAC
:102B380041F039849FED687A66EE877A9FED677A6F
:102B4800F4EEC77AF1EE10FA01F142849FED647A4F
:102B5800F4EE477AF1EE10FAC8BFF0EE477A013387
:102B6800032BE0EC017A8CD15E4B00221A705E4B8D
:102B78001878002840F0AC855C4F3B681B0340F197
:102B8800A7855B4D2B78033B052B1BD8474B93F848
:102B9800A93533B1012B08D110F05EFEC0F17F00DA
:102BA80003E0606A03689B689847A36A94F82C203E
:102BB8001344B3F5807FA8BF4FF480738342D4BF1A
:102BC800A362A0622B78023B092B00F2F784DFE8AE
:102BD80013F00A0013004300F504F5045B009F009E
:102BE800A604C904D9040023A3622363414B1B68CC
:102BF8006363032300F0E1BC3E4B1A68636B6433E4
:102C0800934280F0DB84402012F037FE002840F029
:102C1800D584DFF8E890384E4FF04008236B19F858
:102C2800030058B112F002FFB36A013BB362336B81
:102C3800B8F1010803F101033363EFD1226B2F4987
:102C48002D4B8A5C002A40F0B9841A634FF0FF329A
:102C58005A63042300F0B1BC294A0292A2F10C0382
:102C68000193272300935021A2F10A034920163A21
:102C78000DF07AFA002840F0A1844FF0FF33636327
:102C88002063072300F099BC052300931D4B002106
:102C980002910191A3F1080253200DF065FA002872
:102CA80040F08C842063082300F087BC603000204B
:102CB800FC2200208C2D00200C1E0020781F0020F4
:102CC800081E00200000C842D7A368410000FA434C
:102CD800000048430AD7233C3333834000F0FFC544
:102CE80000F0FF45680F002014390020C0220020A2
:102CF800122000209C2200205C0A00204C9B010826
:102D0800C29B0108889D0108181E0020901D002004
:102D1800402012F0B2FD002840F05084A54A136B01
:102D280090464C2B01F25883DFE813F04D00500019
:102D3800550059005C00630068006D007100750063
:102D480081008A008D009A009E00A300A800B900A7
:102D5800CA00DB00EC00FD000E011F0130018C01F0
:102D68009601A401B201C001CE01DC01EA01F8011B
:102D78000602100220022A02400256026C02820257
:102D88008C029602A002AA02B402BE02C802D202B3
:102D9800DC02E602F002FA0204030E0318031D0324
:102DA80068036D03720383039403A503B203B70397
:102DB800BC03C103C603CB03D003D503DA03DF0387
:102DC800E403E903EE037C497C48A0E37C4B7D4A9D
:102DD8007D497E48C7E17E4A7E497F483DE07F497C
:102DE8007F4894E37F4B804893F8A82593F8A7156C
:102DF80033E07C4B7D48B3F8CC1088E3794B7C48B2
:102E0800B3F8CE1083E37B4B7B4819697FE37B4B98
:102E18007B4819897BE3A36BDE0404D5714B7948A1
:102E280093F8121273E3634B0B221A6371E36D4933
:102E3800754891F8153291F8172291F8161292E117
:102E4800A18F724863E33B68180540F16283654BC4
:102E58006F48B3F91A22B3F81C1212F0C1FE58E3F6
:102E6800644B6C48596952E35E4B6B4893F8DA112E
:102E78004DE35C4B694893F8E61148E3594890F8EC
:102E8800FC34642202FB03F1431893F80E240C234C
:102E980003FB02130344624893F8101437E35148C4
:102EA80090F8FC34642202FB03F1431893F80E24D3
:102EB8000C2303FB021303445A4893F8121426E325
:102EC800484890F8FC34642202FB03F1431893F855
:102ED8000E240C2303FB02130344534893F81114E4
:102EE80015E3404890F8FC34642202FB03F14318D0
:102EF80093F80E240C2303FB021303444B4893F866
:102F0800191404E3374890F8FC34642202FB03F1F7
:102F1800431893F80E240C2303FB0213034444487C
:102F280093F81314F3E22F4890F8FC34642202FB60
:102F380003F1431893F80E240C2303FB02130344F4
:102F48003C4893F81414E2E2264890F8FC346422D2
:102F580002FB03F1431893F80E240C2303FB02131E
:102F68000344354893F81814D1E21E4890F8FC340D
:102F7800642202FB03F1431893F80E240C2303FB8D
:102F8800021303442D48B3F81A14C0E296F8FC243F
:102F98002B4864235343F2180C2192F80E2401FBAA
:102FA80002331E4496F8173496F8162496F815142A
:102FB800D9E000BF5C0A00209CC00108A8C0010835
:102FC800B9C00108BEC00108C6C00108CCC00108CC
:102FD800F4C00108FDC0010809C101081636002027
:102FE8001DC10108603000202BC101083CC1010847
:102FF8004BC10108201D00205AC10108A822002049
:103008006AC1010874C1010881C101089AC1010897
:10301800A5C10108B8C10108C4C10108D7C1010888
:10302800ECC10108F6C1010800C201080DC201087F
:103038001AC2010824C201082FC201083CC20108B3
:103048004EC20108CA4BCB4893F8FC24642101FB0B
:10305800023393F8D0135AE2C54AC74892F8FC34B1
:10306800642101FB032191F8E53391F8DB2391F802
:10307800D11378E0BE4AC14892F8FC34642101FBC0
:10308800032191F8E63391F8DC2391F8D2136AE032
:10309800B74ABB4892F8FC34642101FB032191F83C
:1030A800E73391F8DD2391F8D3135CE0B04AB548D3
:1030B80092F8FC34642101FB032191F8E83391F87C
:1030C800DE2391F8D4134EE0A94AAF4892F8FC34B5
:1030D800642101FB032191F8E93391F8DF2391F88A
:1030E800D51340E0A24AA94892F8FC34642101FBB8
:1030F800032191F8EA3391F8E02391F8D61332E0EE
:103108009B4AA34892F8FC34642101FB032191F8FF
:10311800EB3391F8E12391F8D71324E0944A9D48C2
:1031280092F8FC34642101FB032191F8EC3391F807
:10313800E22391F8D81316E08D4B974893F8FC24B6
:10314800642101FB023393F8D913E0E1884A9348DC
:1031580092F8FC34642101FB032191F8EE3391F8D5
:10316800E42391F8DA1312F03BFDD2E1804B8C484E
:1031780093F8FC24642101FB023393F8EF13C6E1B2
:103188007B4B9FED887A93F8FC248748642101FBE8
:103198000233B3F8F03307EE903AF8EEE77A67EEC9
:1031A800877AFDEEE77A17EE901AB0E1704B9FED43
:1031B8007D7A93F8FC247D48642101FB0233B3F83F
:1031C800F23307EE903AF8EEE77A67EE877AFDEE8B
:1031D800E77A17EE901A9AE1654B9FED727A93F8A9
:1031E800FC247348642101FB0233B3F8F43307EE7F
:1031F800903AF8EEE77A67EE877AFDEEE77A17EE0F
:10320800901A84E15A4B9FED677A93F8FC24694839
:10321800642101FB0233B3F8F63307EE903AF8EE77
:10322800E77A67EE877AFDEEE77A17EE901A6EE195
:103238004F4B614893F8FC24642101FB023393F857
:10324800F81364E14A4B5D4893F8FC24642101FBC0
:103258000233B3F8FA135AE1454B594893F8FC2462
:10326800642101FB0233B3F8FC1350E1404B55488D
:1032780093F8FC24642101FB0233B3F8FE1346E102
:103288003B4B514893F8FC24642101FB023393F82B
:1032980000143CE1364B4D4893F8FC24642101FBB3
:1032A800023393F8011432E1314B494893F8FC2476
:1032B800642101FB023393F8021428E12C4B4548A2
:1032C80093F8FC24642101FB023393F803141EE1F4
:1032D800274B414893F8FC24642101FB023393F8FF
:1032E800041414E1224B3D4893F8FC24642101FBAB
:1032F800023393F805140AE11D4B394893F8FC246E
:10330800642101FB023393F8061400E1184B354899
:1033180093F8FC24642101FB023393F80714F6E0C8
:10332800134B314893F8FC24642101FB023393F8D2
:103338000814ECE00E4B2D4893F8FC24642101FBA3
:103348000233B3F80A14E2E0094B294893F8FC2445
:10335800642101FB0233B3F80C14D8E0044B254870
:1033680093F82212D3E0024B234893F82312CEE0BD
:10337800603000205DC201086EC201087FC20108EA
:1033880091C20108A1C20108B1C20108C1C2010865
:10339800D2C20108E3C20108F5C20108E5C201086A
:1033A800FFC201080000C84214C3010824C3010871
:1033B80032C3010844C301085AC3010869C301089C
:1033C80085C301089BC30108AAC30108C1C301083A
:1033D800DAC30108EEC30108FFC3010819C40108D4
:1033E80034C4010849C4010860C4010877C401084D
:1033F8008CC40108A2C401089EC40108954B9648D4
:10340800B3F8D81183E0934B944893F8DB117EE02E
:10341800904B9FED937A93F8DC31924807EE903AFF
:10342800F8EEE77A67EE877AFDEEE77A17EE901AFC
:103438006DE0884B9FED8A7AB3F8DE318A4807EE53
:10344800903AF8EEE77A67EE877AFDEEE77A17EEBC
:10345800901A5CE07F4B9FED827AB3F8E0318348A5
:1034680007EE903AF8EEE77A67EE877AFDEEE77AAC
:1034780017EE901A4BE0774B9FED797AD3ED7D7A72
:103488007B4867EE877AFDEEE77A17EE901A3EE002
:10349800704B784893F8D51139E06E4B764893F81D
:1034A800EA1134E06B4B754893F8E9112FE0694B4A
:1034B800734893F889122AE0664B724893F84A12C7
:1034C80025E0644B704893F84B1220E0614B6F483D
:1034D800B3F84E121BE05F4B6D4893F83C1216E0B0
:1034E8005C4B6C4893F8E11011E05A4B6A4893F82A
:1034F800E0100CE0574B6948B3F8DC1007E0554B77
:10350800674893F8E71102E0524B6648996812F051
:1035180067FBD8F830300133C8F830304EE0624BE2
:103528001B6899011BD5614EB6F84030BBB9604B9A
:10353800D6F84490D3F80080452012F077FA0E2090
:1035480012F074FA484612F02BFB404612F028FBA2
:103558004FF48053F3870A232B700CF051FB0CF0C7
:10356800E1FD2BE0514B93F84820002AF5D04E4A54
:1035780012689201F1D493F84930002BEDD1092358
:103588002B70ECE74B4B1A68636BC833934204D239
:10359800304B93F8A9657EB904E012F0B3F900281E
:1035A800F6D10BE0606A09F0C0FC94F84A30666214
:1035B800022B01D10CF074FF01232B7012F08CF94F
:1035C80050B101232B70394B93F84920002A7FD042
:1035D800002283F849207BE01E4B93F8AA25194660
:1035E800002A75D03B68DE044FF000074CBFB1F8E5
:1035F800D820B1F8D020304E3B4636F913000133BD
:10360800904218BF47F001070C2BF6D1274E294BE3
:103618002FB11B6803F59C530833F36403E01A6861
:10362800F36C93424AD92B78012B51D196F8493043
:10363800002B4DD191F8A9352BB10FF0FBFE0123DA
:1036480086F8493044E080200CF022FF00283FD162
:10365800F3E700BF60300020AEC40108BAC4010817
:103668000000C842CCC40108DFC40108F0C4010846
:1036780005C5010813C5010823C5010834C501089B
:1036880044C501085DC5010871C501088EC501085A
:10369800ABC50108C0C50108D5C50108EAC50108C0
:1036A800FCC501080AC60108FC2200205C0A0020AB
:1036B8002C3A00209C220020C23800202B78012BB5
:1036C80006D096F849301BB10CF0FEFD86F849701B
:1036D800049B1B78072B05D110F052FD069BC01ADE
:1036E800B04B5880B04B00221A70B04D11AE6B68C9
:1036F80030469847A946002800F04181049BAC4A0F
:10370800DFF8A0E21D780023032D04BF52F8231030
:103718002EF81310980036F91310A54F11500133E5
:10372800032BF1D1A24994F85020084607F012FF64
:10373800A04B1A889B46002A00F0AB809E4B9F4EF8
:103748001B68DFED9F8A1B784FF0000808EE103ADF
:1037580006F10C05C24606F148014FF47A72D9F811
:103768001430B2FBF3F3C3EB431203EB8203BBF851
:1037780000E0DB009BB29E4508BFC6F800A0336896
:1037880008BFC5F810A0184657F82830184457F84D
:103798002830306007EE903A2B690133012B4FEA4D
:1037A8008802F8EEE77A2B6106D1C5ED017AC5EDFE
:1037B800007AC5ED028A1BE0D5ED005A07EE103AF3
:1037C80037EEE56AF8EEC76A86EE267AD5ED026A24
:1037D80037EE257A77EEC77A85ED017AE6EE276A25
:1037E80085ED007AF0EE667AC5ED036AC5ED026AEA
:1037F800BEF1010F47F802A042F801A034D12B69AD
:103808000691012BC3BF03F1FF3307EE903A95ED04
:10381800037A9FED6B0A0592C4BFF8EEE77A87EE4C
:10382800270A14F0B1F9059A069918EE103A4BB127
:10383800F8EEC87AF4EEC07AF1EE10FA02D507F085
:103848007AFE26E04FF47A70D9F81430B0FBF3F31F
:10385800C3EB431003EB8003DB0098B2336803EB40
:10386800500393FBF0F3535008F10108B8F1030F2C
:1038780006F1040605F114057FF46FAFBBF80000EC
:10388800012801D109F0E6FCBBF80030013BABF898
:1038980000304C4D002357F8231055F82300444AB4
:1038A800091A47F823100133032BF4D1464B474D2F
:1038B80019789846002950D0DFF8E8904FF0000AB0
:1038C80057F82A3007EE903A414B1A884FEA8A0691
:1038D800B8EEE78A4AB13F4B1C20B0EE480A00FB1D
:1038E8000A3012F09FFBB0EE408A049B1A78082A2F
:1038F8000DD1BAF1020F0AD0B95926F80910B0EE65
:10390800480A13F03DFE06EB090BABF80200324AF9
:103918001278012A08D1314A1C20B0EE480A00FB6F
:103928000A2012F07FFB0BE02D4AD4ED540A98F8D8
:1039380000100C20B0EE480A00FB0A2012F02CFC04
:1039480085ED000AB5EC010A13F01AFE0AF1010A26
:10395800BAF1030FB851B3D111E0D2ED007AF8EE05
:10396800E77AC5ED007AD2ED017AF8EEE77AC5ED8F
:10397800017AD2ED027AF8EEE77AC5ED027A0A4AC0
:1039880092F8783123B1013B82F8783100F02FBDED
:10399800144B93F8DC211E4632B393F8E631013B11
:1039A800DBB222E0901D00205C0A0020201D0020D0
:1039B800281E00201E1D002068230020B00A0020B9
:1039C80000000000F80A00206C2300206C1F002073
:1039D8006E230020040B002070230020580B0020C9
:1039E800B00B002060300020012384F8783110F0FB
:1039F800C7FBB44BB44DD3F80080B44BB6F82612CD
:103A0800A3F1460207462868C047049B1B78072B8A
:103A180004D110F0B5FBAE4BC01B988010F0B0FB82
:103A2800049B05901F78012F0AD1AA49D4F87C314C
:103A3800A74A0968C4F87C01C31A93805B1AD3802B
:103A4800A54B2A681B68EBB192F83120CAB1A34A8A
:103A58001268940718D5A24A1178012914D9DB787D
:103A6800A04859430088CB1A98420AB203DB88421F
:103A78000346A8BF0B461BB2120392FBF3F20123C5
:103A880005E013461A4602E001234FF48052964996
:103A9800C9780B912BB1BDF94C1051430913ADF8FE
:103AA8004C109249924E91F800A09249DFF820827A
:103AB800B1F902000790B1F9000008908E48B1F9F9
:103AC80004B0D0F800C000252946284650453CD20D
:103AD8009CF90040D6ED016A96ED026A64420BFB40
:103AE80004F407EE904AB8EEE77ADDED087AF8EECE
:103AF800E77A0DF14C0E67EEA67ADDED076AF8EE6F
:103B0800E66AE6EE867AD6ED036AE7EE267AFDEEF9
:103B1800E77ACDED047ABDF910400BB15443241374
:103B28002EF8104013AC34F910408C4203DCA54247
:103B3800A8BF254600E02146052F03D1042898BFD9
:103B480028F8104001301036C0E7644B6B4C1868F9
:103B5800491B10F4805309B240D0694A694D127864
:103B6800DFF8A8E1684F12F0040F01BF2A68168A2F
:103B7800664AA2F84062B4F90660654C2A6824686F
:103B8800128AE588C5EB020C664508DCB4F900200A
:103B98003C68AEF84062B4F9004035440AE02A4473
:103BA800964209DB3A68B4F90240B2F90220AEF84D
:103BB8004062751B2DB219E0BEF940229445ABBF97
:103BC800B4F900203A683C68B4F90240ABBFB4F9D4
:103BD8000040B2F902201546254607E04A4AB4F9E2
:103BE80006501268B2F90040B2F90220474F92B26B
:103BF800A4B2161B36B2B1421BDD32034FF0000EE1
:103C080092FBF1F1C7F84412F2450BD913AA32F925
:103C18001EC001FB0CFC4FEA2C3C22F81EC00EF122
:103C2800010EF1E7022296FBF2F6344424B209941D
:103C380007E0022691FBF6F1521A0C4412B224B2A4
:103C480009923149B7F940220F682D490A920E7836
:103C58002C4ADFF8C4801268049206F00406F1B218
:103C68002B4A06912B491268B1F9061000F0100092
:103C78004FF000090C90CA4540F2878013A807EE60
:103C8800905A30F819C01A4800EB091090ED007AE4
:103C9800F8EEE77AA64667EE877AFDEEE77A17EE42
:103CA800900AA04204DB099E8642A8BF0646B64693
:103CB8000CEB0E000B9E00B228F8020F76B3B7F893
:103CC80004E040E0D4040020081E002094320020C4
:103CD800901D0020381E0020681D0020C0220020F2
:103CE800C8040020B81D0020CC220020371E002068
:103CF800DC0B0020D01E002088230020181E002086
:103D0800002300208C230020F43700205C0A0020C8
:103D1800F0370020042C0020BA3600208BB1049E16
:103D2800B2F806C0B6F810E00A9ECCEB0E0E764547
:103D380004DCB7F800E0B2F800C006E0B2F802E030
:103D480001E0B7F800E0B7F802C0704503DB84452E
:103D5800E646A8BF86460C98A8F800E090B10698F9
:103D680080B17BB90F930E910D9209F04DFA0D9A1F
:103D78000E990F9B30B90498408A8142BCBFB8881D
:103D8800A8F8000009F1010975E7069A1AB916465C
:103D9800C148C24A06E0C24A92F84802192800F20D
:103DA800248107E0B245F6D930F8164022F81640CB
:103DB8000136F7E7012202FA00F0BA4A0240002A67
:103DC80000F01381B84A1288D00508D5B74B1A8875
:103DD800ADF864205A88ADF866209B8810E0BDF8DD
:103DE8002020ADF86420BDF81C20ADF86620ADF8A1
:103DF80068B03BB1049B1B8A994203DACBF10003FC
:103E0800ADF86830AA48B0F902304FF47A7203F579
:103E1800E1634FF46161534393FBF1F3A3F5FA7344
:103E2800ADF87C30B0F9003003F5E1635A439B4BA1
:103E380092FBF1F21B88A3F2DC53ADF86A309D4B7C
:103E4800A2F5FA72ADF87E201B689B4A1B8A11887E
:103E5800C91AADF86C105188C91AADF86E1091885E
:103E6800C91AADF87010D188C91AADF87210118945
:103E7800C91AADF874105189C91AADF8761091892C
:103E8800D289C91AD31AADF87A308C4AADF87810AD
:103E98000023194622F813100133082BFAD1884A57
:103EA800884B12680492884A1B78126887490692E0
:103EB800072202FB0313864DDFF800A209934FF097
:103EC80064084FF00109099B8B4273D00B782BB122
:103ED8001533049A09FA03F3134067D011F806EC76
:103EE800069B11F9010C11F805CCCEEBCE0703EBBC
:103EF80047074FEA4C06B7F90230B7F90020089097
:103F08009A1A92B211F9023C11F8030C4FEA520BBB
:103F1800534393FBF8F3CBEB03031BB2079328B986
:103F280020A8064436F81C0C288019E020AB1E4453
:103F3800B5F9004036F91C6CB44208DA20448442D2
:103F480003DC86423446A8BF04462C8008E007DD1F
:103F5800201AB04203DB8442A8BF044626462E80BE
:103F6800D7F80A0011F9046C079B09FA0CFC10EA4F
:103F78000C0FB5F900000CBF01244FF0FF3416FBFD
:103F880000F090FBF8F0984209DB089B534393FB41
:103F9800F8F3CBEB03031BB28342A8BF03463AF8FE
:103FA8001EB004FB03B32AF81E3000E02B80023554
:103FB800073188E7444B474ED3F8008000254FF07F
:103FC8000E09642709FB0583E8B293F9064036F920
:103FD800023F14FB03F494FBF7F434800FF024FF42
:103FE80001352044082D3080ECD13B4C364D2368F8
:103FF80013F0200F33D000200FF016FF2F4E074686
:10400800308001200FF010FF2D4B70801B681906BF
:1040180025D5324B264A1B681B78012B24D1D5F8AD
:104028000080B2F9021098F90630B2F900205B421C
:104038004B434FF0320C93FBFCF31FFA83FE98F9C5
:1040480014306FF0310113FB02F393FBF1F171446B
:10405800791A93FBFCF373443180184470802B6801
:104068001C4A03F170063FE0D5F800E0B2F90230CF
:104078009EF9061011FB03F1322391FBF3F1394449
:1040880031809EF91470B2F9001017FB01F292FB0F
:10409800F3F21044E2E700BFC2380020BC3600202B
:1040A8005C0A002032413003F8220020181E00204C
:1040B800201E00208C230020042C0020CC0D002082
:1040C800FC220020F837002070380020FF3700203D
:1040D800A60C0020CA0D0020C02200208423002046
:1040E8000E339E4211800CD032F9020FB3F9001042
:1040F800B3F902708842F3DB87423946A8BF01460C
:10410800EEE7BD4BBD4E1A6892F904209A46A2B953
:1041180096F848727B1E182B00F29980DFE803F0AE
:10412800549797709797976997979797977B9797CB
:10413800979797708997977B5400DFF8CCB2002344
:10414800A6F86A32B046D946B6F96A72072FDFDC9C
:1041580098F86C22AA4B92B9DAF800200493528896
:1041680000EE102AA74A1C20116800FB0730B8EEA1
:10417800400A11F0E1FF0122049B88F86C223BF908
:10418800172000EE102A1C2000FB0730B8EEC00AEA
:1041980011F048FF13F0F4F92A6800B2C7EBC7031F
:1041A8002BF8170002EB4303B3F90020B3F90230F0
:1041B800904203DB8342A8BF03461A4629F817201A
:1041C8000137A6F86A72BFE7DAF800305B781BB1EE
:1041D8008D4B0020598908E08C4B1B7803F00403B1
:1041E80003F0FF01002BF3D1084605F0E9F801259B
:1041F8002EE0854D0020E98805F0E2F8298905E0E0
:10420800814D0020298905F0DBF86989012005F036
:10421800D7F802251CE0DFF8F0810225A81E38F83F
:104228001510C0B2013505F0CBF8082DF6D10625DA
:104238000EE0DFF8D4810325E81E38F81510C0B267
:10424800013505F0BDF8072DF6D1042500E000255D
:1042580023689A0601D4052F0BD16B4F284639885D
:1042680005F0AEF8681C7988C0B205F0A9F80235E7
:10427800EDB22368DB0205D496F8503373B10FF022
:104288002BFD0BE0624F0024281937F8021FC0B23B
:1042980005F096F80D2CEFD00134F5E75D4B1B784F
:1042A800072B05D10FF06CFF059BC01A5A4BD8801D
:1042B800012333709BE0594A128852063EF5C2AB7F
:1042C800DFF83881564F98F81E209A4217D007EE2B
:1042D800903A9FED548A9FED540A88F81E30F8EE04
:1042E800E77A27EE888A38EE000A11F03BFE87ED60
:1042F800000AB0EE480A11F035FE88ED080AB5F953
:104308000030D4ED085A97ED006A484A07EE903A13
:10431800B5F9043006EE903AF8EEE66AF8EEE77A78
:1043280025EEE67AA7EE867A67EEA57ABDEEC77A1D
:10433800E6EE267A17EE103AB3F5FA7FA8BF4FF4E7
:10434800FA739342FDEEE77AB8BF13462B8017EE57
:10435800903AB3F5FA7FA8BF4FF4FA739342B8BF07
:104368001346AB80FEF76EBB07EE901AF8EEE77ABD
:1043780087EE857AF0EE657AE6EE477AF4EEE27A31
:10438800F1EE10FA07D4F4EE657AF1EE10FAC8BF30
:10439800F0EE657A01E0DFED267A82EE277A66EEA6
:1043A800876AFEF7BABBDFED237AF4EEE76AF1EE2F
:1043B80010FA3EF5D4AB9FED207AF4EEC76AF1EE21
:1043C80010FAD4BFF0EE667AF0EE477AFEF7C7BB74
:1043D800F0EE477AFEF7C3BB11F094FA00283FF4D9
:1043E800EDA84FF48053E3870A23FFF7E6B821B01E
:1043F800BDEC028BBDE8F08F882300205C0A00200A
:10440800CC0C0020381E0020CC0D002000230020FA
:104418000A2C00208E1D0020901D0020F82200206C
:104428000000002035FA8E3CDB0FC93F0CFEFFFF71
:104438000AD7233C00C0F9C400C0F9442DE9F04F65
:10444800914BADB01D780093002D00F0A7808F4BE5
:104458001868002801F04F870CF0F6FCDFF85C9232
:10446800DFF85C82D9F8000004F027FF002801F08B
:104478004287D9F80000864C04F01CFF092801D0B7
:104488003F2855D14FF0000A2668574655460AEB93
:10449800080B36B132465AF808107E4815F0F0F984
:1044A80020B90DB15F4601E05D465F460AF1100A8A
:1044B800BAF5107FEBD1F5B1D5F800A0D7F800B068
:1044C800DFF8D0C123681AF803001BF803108142F3
:1044D80011D15A1CDFF8BCE149B92D2B07D86C481B
:1044E800026020200EF803000EF8021003E00CF81A
:1044F80003002260E6E723680BB1BD420FD066488F
:1045080010F0F4FBBD4207D855F8100B10F0EEFB85
:10451800092010F047FAF5E705F008FB00265D4D85
:1045280023689E429ED2A85D10F03CFA0136F7E758
:1045380023686BB9042804D1564810F0D7FD01F060
:10454800DABE0C2841F0D386544810F0CFFB22E0A5
:104558000C28F9D00A2841F05B864E4E504810F0DE
:10456800C5FB2321304615F07CF9354608B1801B80
:10457800206023680022002B41F04E86002A41F07B
:10458800668630220021434815F036F9009B1B78D7
:10459800002B01F0B08605F0C9FA63E7414B03F13F
:1045A8003007414BEA18EB58002B01F050803F4987
:1045B8003F4C0B600593002322608DF819303D4A6B
:1045C8003D48049214238DF8183004AB0360264646
:1045D80089469246D9F80000DFF8D08004F06DFED5
:1045E800002801F02080D8F8000004F063FE33684A
:1045F80093F84810834619B9242863D101221DE095
:10460800012903D14D2808BF022204E0022907D15D
:104618003C2808BF032218BF002283F8482085E001
:1046280003290ED140284FF0000102D983F8481021
:10463800D0E758711971D9719871042283F848200C
:10464800C8E7042907D1997983F8490080EA01026B
:104658009A710522F2E7052968D1587919798842B3
:10466800987908D98BEA00009871481C18710B4496
:1046780083F808B0AEE7584503D1062283F84820EE
:104688005AE00022DAE700BF14390020BC380020C5
:1046980010390020E0380020DDC60108E2C6010814
:1046A80086CD0108A89D01086C2B00202823002036
:1046B80020230020CF92000824230020DC3800208B
:1046C800B8B90108BF490B7803F0040303F0FF0EE3
:1046D800002B7FF47FAF23281DD1009AD8F8000063
:1046E800019101231370B84B1860B84B1860B84B90
:1046F800586010201872B748C3F800A0036083F808
:1047080009E0B54810F0F2FA05F010FA01990B78B3
:1047180043F002030B70B14B1B681B785B4505D156
:10472800AF4BB04A1A60B04BB04ADA60336893F8BE
:104738004820062A7FF44EAF93F84980B8F1520F0B
:1047480000F07F8600F2D980B8F1340F00F047847A
:1047580067D8B8F1240F00F0CD842DD8B8F1040F34
:1047680000F0358215D8B8F1020F00F0168200F279
:104778002382B8F1010F40F09B87032009F088FCE1
:10478800002009F040FC404609F03DFC142000F0F0
:1047980026BFB8F10A0F00F05582B8F1220F00F0D9
:1047A800FD83B8F1050F40F083871A2009F070FCEB
:1047B8000026DFF8508218E2B8F12C0F00F0F084E0
:1047C8001BD8B8F1280F00F0D284B8F12A0F00F0F6
:1047D800E184B8F1260F40F06B87854E062009F07A
:1047E80057FCB6F8C80109F056FCB6F8CC0109F038
:1047F80052FCB6F8D00100F0EFBEB8F1300F00F06F
:104808008585B8F1320F00F02985B8F12E0F40F0F8
:104818004F87774E402009F03BFC06F1400800F036
:1048280065BDB8F1450F00F0118637D8B8F13B0FD8
:1048380000F0AD831AD8B8F1380F00F08584B8F1CC
:104848003A0F00F02083B8F1360F40F03187604B03
:10485800674E93F82C00DFF8B091C0EBC000C0B2EF
:1048680009F016FC06F1280800F03CBDB8F1400F2D
:1048780000F0FB84B8F1420F00F00785B8F13D0F56
:1048880040F016875A4E022009F002FC96F88B0277
:1048980009F0B9FB96F88A0200F0A1BEB8F14B0FF7
:1048A80000F0A98410D8B8F1470F00F08485C0F053
:1048B8006E85B8F1490F40F0FB86022009F0E8FB4D
:1048C8004C4B988A00F088BEB8F14F0F00F0AC85C9
:1048D800B8F1500F00F09685B8F14D0F40F0E8861A
:1048E800454EDFF82881307800EB4000C0B209F06F
:1048F800CFFB4FF0000900F099BCB8F1700F00F041
:104908001E8300F28780B8F1660F00F0D7812CD89B
:10491800B8F15E0F00F027860DD8B8F15A0F00F0F5
:10492800E285B8F15C0F00F0FD85B8F1540F40F056
:10493800BF8600F086BDB8F1640F00F0738100F205
:104948009381B8F1600F40F0B386294E032009F037
:104958009FFB96F8D50109F056FB96F8EA0109F095
:1049680052FB96F8E90100F03ABEB8F16C0F00F07E
:104978007A8216D8B8F1680F00F05C82C0F0CA815C
:10498800B8F1690F40F09486DFF86C80DFF880900A
:1049980098F80000400000F0FE0009F079FB0026BE
:1049A80056E2B8F16E0F00F0738200F2968206208C
:1049B80009F06EFB114B186809F076FB104B18884C
:1049C80000F00ABE00230020DC3800202C23002041
:1049D800B00D0020BC3800200DC701082C3600207F
:1049E800FC9F0020EFBEADDE00ED00E00400FA05FC
:1049F80060300020201D0020542C0020743A002034
:104A08007C140020FDC0010830360020B43200209C
:104A1800042C0020B8F17D0F00F03B855BD8B8F17D
:104A2800750F00F0A8823ED8B8F1730F00F03B83F1
:104A380000F2AE80B8F1720F40F03A86D74E1620D9
:104A480009F026FBB6F8440209F025FBB6F8CC00BD
:104A580009F021FBB6F8CE0009F01DFBB6F8D0002E
:104A680009F019FBB6F8980209F015FB002009F0C7
:104A7800CAFA002009F0C7FA002009F0C4FA96F82B
:104A88001F0209F0C0FA96F8400209F0BCFA0020AB
:104A980009F0B9FAB6F9EC310A2093FBF0F080B2CC
:104AA80009F0F9FA54E3B8F1780F00F04281B8F14F
:104AB8007C0F00F0DF84B8F1770F40F0F985DFF85C
:104AC8000483DFF804A398F80000DFF8009309F0E6
:104AD800DFFA0026DDE2B8F1A00F00F0FD823FD832
:104AE800B8F17F0F00F01F84C0F0EE84B8F1960F84
:104AF80040F0DE850F2009F0CBFAA94B188809F0A1
:104B0800CAFAA84B188880B209F0C5FAA64B1B68E8
:104B1800C3F3C000C3F38002800040EA4200C3F33D
:104B280040021043C3F3401240EAC20003F01003EE
:104B3800184309F0B0FA09F093F909F0B5FA974B60
:104B480093F8FC0409F05FFA984B18886428A8BF0A
:104B5800642009F0A0FA032009F055FA944B1BE2EF
:104B6800B8F1F10F00F04081B8F1FE0F00F0A68215
:104B7800B8F1F00F40F09C85884E042009F088FABF
:104B8800B6F8F00109F087FAB6F8EE0100F024BD96
:104B98004FF000094FF0010B4DE2042009F078FABC
:104BA800DFF82C82002618F80600013609F02BFAE7
:104BB800042EF8D100F031BD032009F069FA032072
:104BC80009F021FA002009F01EFA00F03DBC062089
:104BD80009F05EFADFF8FC81002618F806000136B5
:104BE80009F011FA042EF8D191E018F80600013600
:104BF80009F009FA0B2EF8D1DFF8DC81002618F845
:104C08000600013609F0FFF9082EF8D1DFF8CC814B
:104C1800002618F80600013609F0F5F9072EF8D134
:104C280000F0FBBC072009F033FAE72009F0EBF9A4
:104C38005A4B587909F0E7F9002009F0E4F9042003
:104C480000F015BC5B485C4E11F0D2FA5FFA80F8B0
:104C5800404609F01DFAB044B04500F0DE8416F86D
:104C6800010F09F0D0F9F7E70B2009F011FA4C4BC6
:104C7800188809F010FA4B4B188880B209F00BFA23
:104C8800494B1B68C3F3C000C3F38002800040EAAD
:104C98004200C3F340021043C3F3401240EAC2008B
:104CA80003F01003184309F0F6F909F0D9F809F0F0
:104CB800FBF93A4B93F8FC0400F091BC122009F080
:104CC800E7F93E4BDFF818911B89B3F5007F94BFD5
:104CD8004FF001084FF00408002659F8260090FB11
:104CE800F8F0013680B209F0D6F9032EF5D1344E2A
:104CF800308809F0D0F9B08809F0CDF9308909F089
:104D0800CAF9002009F0C7F9002009F0C4F9002009
:104D180000F062BC102009F0BBF9DFF8C88000265B
:104D280018F80600013609F06EF9102EF8D100F0D7
:104D380074BC7020194E09F0ABF94FF0000AB04668
:104D48004FF00E09B6F8520109F0A5F9B6F854016A
:104D580009F0A1F9B6F8560109F09DF996F858013D
:104D680009F051F996F8590109F04DF996F85A01E8
:104D780009F049F996F85B0109F045F909FB0A833E
:104D88000AF1010AD3F85C0109F08EF9BAF1080FAB
:104D980006F10E06D6D100F040BC00BF60300020FE
:104DA800B6220020B4220020A422002024200020C3
:104DB800C03800201636002015360020A822002012
:104DC800281E00200123002002230020A89D01089E
:104DD80045C70108B9C00108F4C00108BEC00108F0
:104DE80070140020CC0D00207020C54E09F050F939
:104DF80006F1700896F8E20009F005F996F8E30064
:104E080009F001F996F8E40009F0FDF896F8E500D4
:104E180009F0F9F896F8E60009F0F5F896F8E700D1
:104E280009F0F1F8073696F8E10009F0ECF8B0451A
:104E3800E0D1F2E3102009F02BF9DFF80483002613
:104E480018F80600013609F0DEF8102EF8D1E4E370
:104E580098F800309E4280F0E08339F8160009F097
:104E68001AF90136F4E7A74E062009F011F930883F
:104E780009F011F9708809F00EF9B6F904300A2022
:104E880093FBF0F024E0042009F002F99E4B2FE197
:104E9800072009F0FDF89D4B1888FF28A8BFFF20C0
:104EA800C0B209F0B0F89A4B186880F3100080B2CD
:104EB80009F0F1F8974B188809F0EDF8904B93F842
:104EC8001F22954B18682AB10A23584380F3100013
:104ED80080B281E300F30F00FAE7904E0C2009F04E
:104EE800D7F83368187809F08EF83368987809F09D
:104EF8008AF84FF00009B046D8F80030874E4B4486
:104F080009F10109587909F07EF8B9F1030FF3D1D5
:104F18003368187A09F077F83368D87809F073F8A5
:104F28003368187909F06FF83368588909F0B3F8CD
:104F38003368587A09F067F8336858784FE31E20C9
:104F480009F0A6F8DFF8DC810026D8F800303344F1
:104F5800587809F058F8D8F800303344D87A09F06E
:104F680052F8D8F8003033440136587D09F04BF830
:104F78000A2EEAD151E32F2009F08AF8684E16F874
:104F8800010F002800F0498309F03DF8F7E70120F8
:104F980009F07EF8634B1B68187820E35020584EC0
:104FA80009F076F806F150084FF00C095E4A96F8B9
:104FB800FD3409FB0323043693F8380009F023F87D
:104FC80096F8FA0409F01FF896F8FB0409F01BF8A4
:104FD80096F8FC0409F017F8B045E7D11DE35A200C
:104FE800474E09F055F806F15A0896F8520509F0A7
:104FF8000AF896F84D0509F006F896F84E0509F0F6
:1050080002F896F84F0508F0FEFF96F8500508F0EC
:10501800FAFF063696F84B0508F0F5FF4645E4D149
:10502800FBE2BBF1000F00F0F8825FFA89F009F0AB
:105038002FF84FF0000B00263C4B1B789E42F0DA0D
:105048003B4BF05C00214FF00C0E0EFB01F313F804
:1050580007C0844503D001311F29F6D10CE0324A3C
:105068001344D3F834A0504611F0C2F80146BBF1FE
:10507800000F00F0F28289440136DDE700FB02F3FD
:1050880013F807E08E4500F0F58201321F2AF5D1AA
:10509800013698F800309E4280F0BF8216F80A1058
:1050A80000220C20EAE7082008F0F2FF0126F0B2FF
:1050B800013608F0A8FF092EF9D1AEE2082008F061
:1050C800E7FFDFF88080002638F81600013608F080
:1050D800E2FF042EF8D1A0E20C2008F0D9FF154B0E
:1050E800186808F0E1FF144B186808F0DDFF134B4F
:1050F8001868BCE1042008F0CBFF014B9868B6E1C2
:1051080060300020201E00204C3A0020B81D0020EE
:105118006C1D0020CC3B0020901400208C2D00201A
:10512800A79D0108081E0020A89D01080123002052
:1051380002230020ACF7FF1FB0F7FF1FB4F7FF1FD3
:10514800BC360020901D0020042008F0A1FFDA4E94
:1051580096F8120208F057FF96F8160208F053FF67
:1051680096F8150208F04FFF96F8170237E2D24E6C
:10517800072008F08DFFB6F81A0208F08CFFB6F881
:105188001C0208F088FF96F81E0208F03CFFB6F8EB
:10519800200221E2012008F07BFFC74B58791EE26C
:1051A800C54E102008F074FF96F83C0208F02BFF5B
:1051B800B6F8480208F06FFFB6F8440208F06BFF33
:1051C800B6F8460208F067FF96F83E0208F01BFFA3
:1051D800B6F8500208F05FFFB6F8520208F05BFF1D
:1051E80096F84A0208F00FFF96F84B0208F00BFFFA
:1051F800B6F84E02F0E1B04E082008F049FF96F8E4
:10520800960208F000FF96F8970208F0FCFEB6F840
:10521800980208F040FF96F89A0208F0F4FEB6F8F3
:105228009C0208F038FF96F89E02D8E13378994539
:1052380008F1020880F0F18118F8020C08F0E3FE8A
:1052480018F8010C00EB800000EB800000F2EE2063
:1052580080B208F020FF09F10109E7E7012008F012
:1052680017FF954B93F84002B9E1082008F010FFAA
:10527800DFF84482002606EB0803013693F834026F
:1052880008F0C1FE082EF6D1C7E18B4E102008F0B9
:10529800FFFE707908F0B7FEB06808F005FF96F8D1
:1052A8003C0208F0B0FEB6F8C80108F0F4FEB6F803
:1052B800CC0108F0F0FEB6F8D00108F0ECFEB6F824
:1052C8001A0208F0E8FEB6F81C0285E113F9092075
:1052D800824200F0D5810C333C2BF7D10836B0451B
:1052E80000F09B8196F9A2020023EFE7B6F860036D
:1052F80008F0D1FE96F8620308F085FE043696F8A9
:105308005F0308F080FE4645F0D186E180206B4EB1
:1053180008F0BEFE06F1800856F8040F08F0C4FE37
:10532800B045F9D179E18D2008F0B2FE00264FF0A2
:10533800060A0AFB06F94FF0000B5FFA86F84046AA
:1053480008F061FE5FFA8BF008F05DFE5A4B0BEB3C
:10535800090119440BF1010B91F8A00308F053FE61
:10536800BBF1060FEBD10136062EE2D1002606204E
:1053780008F049FEF0B208F046FE4F4B33440136C0
:1053880093F8C40308F03FFE0B2EF0D145E10D2041
:1053980008F07EFE0EF070FA494E40F00200C0B2EE
:1053A80008F031FE308808F07FFEF06808F07CFED7
:1053B8000EF042FA5BE008F01DFE0646842008F075
:1053C80067FE304608F070FE3D4BDA6806F1800350
:1053D80093428CBFC6EB02094FF080090DF13008EB
:1053E8000EF022FB4A46304641460EF05BFB002693
:1053F80081464E4580F2118118F8060008F003FE38
:105408000136F6E72C4E042008F042FE012008F091
:10541800FAFD96F8A90508F0F6FD96F8A70508F034
:10542800F2FD96F8A805DAE00B2008F031FE00201E
:1054380008F0E9FD002008F0E6FD002008F0E3FD93
:1054480011E0012008F024FE0020C8E0132008F035
:105458001FFEDFF87080002618F80600013608F0F5
:10546800D2FD0B2EF8D1002008F01EFE002008F017
:105478001BFED2E0104E062008F00AFEB6F8D40053
:1054880008F009FEB6F8D60008F005FEB6F8D80010
:10549800A2E0094E052008F0FBFD96F8220208F06C
:1054A800B2FD96F8230208F0AEFD96F8240208F043
:1054B800AAFDB6F8DA008FE0603000203C33002007
:1054C800B4040020FDC00108C94E032008F0E0FD27
:1054D80096F8C30108F097FD96F8C40108F093FD0B
:1054E80096F8C5017BE0C24E062008F0D1FDB6F85B
:1054F800D83123B1082008F086FD012005E096F890
:10550800DA0108F080FD96F8E60108F07CFD96F8CF
:10551800E10008F078FD96F8E00008F074FDB6F8B0
:10552800DC0059E0DFF8C882B24E0D2008F0B0FD6B
:1055380098F8DC0108F067FD3368188C08F0ABFDBB
:105548003368588C08F0A7FDB8F8DE0108F0A3FD11
:10555800B8F8E00108F09FFD3368988C08F09BFDCF
:105568003368D88C38E0A34E112008F091FD3368D9
:10557800588D08F090FD3368988D08F08CFD3368DD
:10558800D88D08F088FD336893F8280008F03BFDB3
:10559800336893F8310008F036FD336893F8370024
:1055A80008F031FD336893F8380008F02CFD3368B3
:1055B80093F8330008F027FD336893F8340008F0B7
:1055C80022FD336893F8360008F01DFD3368988F84
:1055D80008F061FD3368588F08F05DFD1DE008F0A4
:1055E80012FD1AE040F25184B8F1D00F00F06B843C
:1055F800B8F1D20F40F0168108F0E6FC020600F17F
:1056080081847D4B1B785B0704D4032828BF0020C6
:105618000BF01AFD002008F03BFD08F005FD23689B
:10562800002283F84820754B754C18680BF00CFC69
:1056380094F82D305BB1734B585907F06BFC0EF0A2
:10564800C6FD002384F82D306F4B704ADA604C3564
:10565800982D00F05086FEF7A4BFD046CAEB08008C
:105668008842BFF609AD18F8010B019108F0CBFC90
:105678000199F3E74B4493F8380008F0C4FC07E5B8
:10568800C0B208F0C0FCB6F8A40208F004FD96F811
:10569800A60208F0B8FC96F8A70208F0B4FC96F841
:1056A800A90208F0B0FC96F8A80208F0ACFC15E6D0
:1056B800B8F15B0F15D108F087FC4D4E86F8DA017A
:1056C80008F082FC86F8E60108F07EFC86F8E10026
:1056D80008F07AFC86F8E00008F082FCA6F8DC0006
:1056E80098E700F26082B8F1370F32D15B794FF05A
:1056F8000708B3FBF8F8C8EBC8029B1A13F0FF0FB2
:1057080002D00BF015F885E75FFA88F8B8F1000FBA
:1057180080D008F059FC4FFA80F9484607F070FC31
:1057280006460028EDD080F8009008F059FC7080FB
:1057380008F04AFC307108F047FC707108F044FC2E
:10574800F07108F041FC08F1FF385FFA88F8B07191
:10575800DCE700F22781B8F12B0F04D108F034FC04
:10576800234B587156E700F28680B8F1250F08D10F
:105778001F4E0023B36008F03DFCB3681843B060C7
:1057880048E752D8B8F10B0F19D11122002120484F
:10579800DFF85C9014F030F84FF0000833685B795C
:1057A800102B28BF10239845BFF434AF08F00CFC29
:1057B80008EB090308F1010883F8B605EEE7B8F12C
:1057C800230F2FD108F000FC1328064699D808F0BB
:1057D800FBFB00220C2101FB02F307EB030E9EF8F2
:1057E80008E0864500F0EF8401321F2AF3D188E7EC
:1057F80060300020081E0020002300202423002001
:10580800B00D00206C2B002000ED00E00400FA052C
:1058180016360020B8F1FA0F04D1CD4B1B785A0781
:1058280040F158830AF084FFF7E6B8F1270F0DD14D
:1058380008F0D6FBC74EC6F8C80108F0D1FBC6F879
:10584800CC0108F0CDFBC6F8D001E3E6B8F1290F8A
:10585800E8D108F0C5FBBF4EA6F81A0208F0C0FB55
:10586800A6F81C0208F0B0FB86F81E0208F0B8FB88
:10587800A6F82002CEE6B8F1310F13D108F0A4FB48
:105888001F2806463FF63DAF23685B79052B7FF45A
:1058980038AF08F0AFFBB836AE4B43F826000EF031
:1058A800A5FFB7E64BD8B8F12D0F32D108F08CFB25
:1058B800A84E86F83C0208F093FBA6F8480208F0C8
:1058C8008FFBA6F8440208F08BFBA6F8460208F006
:1058D8007BFB236886F83E025B79082B07D908F022
:1058E8007FFBA6F8500208F07BFBA6F8520223685B
:1058F8005B790C2B7FF68EAE08F066FB86F84A02C1
:1059080008F062FB86F84B0208F06AFBA6F84E0224
:1059180080E6B8F12F0F85D18E4E06F1400808F0C9
:105928005FFBA6F8600308F04FFB86F8620308F0F7
:105938004BFB043686F85F034645F0D16AE6B8F1BA
:10594800330F05D108F040FB824B83F8400261E633
:10595800B8F1350F7FF466AF08F036FB0E288046A5
:105968003FF6CFAE08F030FB03283FF6CAAE794BBE
:10597800062606FB083686F8520508F025FB86F849
:105988004D0508F021FB86F84E0508F01DFB86F84A
:105998004F0508F019FB86F8500508F015FB86F846
:1059A800510537E6B8F1440F04D16B4B012283F857
:1059B8002D202FE671D8B8F13E0F09D108F004FB6D
:1059C800644E86F88B0208F0FFFA86F88A0221E610
:1059D8002BD8B8F1390F11D108F0F6FA5D4E86F8D8
:1059E800120208F0F1FA86F8160208F0EDFA86F8C5
:1059F800150208F0E9FA86F817020BE6B8F13C0F31
:105A08007FF410AF554ED6F8008008F0DDFA012873
:105A1800A8BF012088F8000033681B78012B504B81
:105A280014BF504A504A1A60F4E5B8F1410F0CD13E
:105A3800DFF82081002608F0C7FA06EB08030136D4
:105A4800082E83F83402F6D1E4E5B8F1430F7FF469
:105A5800E9AE404E08F0B8FA0023B360707108F060
:105A6800C9FAB3681843B06008F0AEFA86F83C0289
:105A780008F0B6FAC6F8C80108F0B2FAC6F8CC01C0
:105A880008F0AEFAC6F8D00108F0AAFAA6F81A0289
:105A980008F0A6FAA6F81C02BCE5B8F14C0F19D11B
:105AA80008F092FA2B4E86F8960208F08DFA86F8DE
:105AB800970208F095FAA6F8980208F085FA86F891
:105AC8009A0208F08DFAA6F89C0208F07DFA86F88A
