:020000040800F2
:1000000000500020DD750108797601080908010813
:1000100079760108797601087976010800000000F8
:1000200000000000000000000000000079760108D8
:10003000797601080000000079760108294401085A
:1000400079760108797601087976010879760108D0
:100050007976010879760108258300082F83000846
:100060002D8300082B8300082983000805F700086A
:10007000F5F60008E5F60008D5F60008C5F6000814
:10008000B1F600089DF60008797601087976010836
:1000900079760108797601087976010827830008C6
:1000A000797601085D410108797601084D41010822
:1000B000414101083141010821410108EDF90008E1
:1000C000F1F90008E5F90008E9F900087976010876
:1000D0007976010859EB000851EB000849EB00085C
:1000E0002383000879760108797601080000000072
:1000F0000000000000000000000000000000000000
:0C01000000000000000000005FF808F1A3
:100110002DE9F04F604A614BA1B01A60604B00229C
:100120001A600DF01BFB18B90DF024FF08F0E8F978
:100130000DF036FB5B4A5C4E137843F001031370FD
:10014000002309930A930B934FF4E0130C93336845
:1001500043F480333360B36943F01003B361336811
:1001600003F400330A93099B013309930A9B1BB9DB
:10017000099BB3F5A06FF2D133684B4913F40033F8
:1001800001D0022315E00A6842F001020A600993D7
:10019000336803F002030A93099B013309930A9B16
:1001A0001BB9099BB3F5A06FF2D133689D0739D510
:1001B00001230B933D4B3E4F1A6842F010021A6028
:1001C0001A6822F003021A601A6842F002021A60EA
:1001D0007368736073687360736843F480637360FB
:1001E000344B1A68043B22F070425A60324A3A603B
:1001F000726822F47C1272605A6842F000425A60BF
:10020000DA6822F40042DA609B681C0449BF2B4B79
:100210004FF4E0133B604FF480130C930B9B012BC6
:1002200001D108E0FEE7022B09D10C9A7368134351
:1002300043F4803302E0736843F4601373603368FF
:1002400043F0807333603268174B9001FBD55A68D6
:1002500022F003025A605A6842F002025A60736840
:10026000114A03F00C03082BF9D15368144C03F026
:100270000C03042B03D0082B03D00F4B2BE03B685F
:1002800029E053685168C3F38343C90303F10203B0
:100290001AD40C4A1EE000BF51D70008EC1500200C
:1002A000F0150020A0230020001002400020024092
:1002B000800000200410014000127A00001BB700EB
:1002C0004004002000093D00526812F4003F3A68E3
:1002D00018BF5208534323607368BB4AC3F3031328
:1002E00013449A782368DFF858B3D3404FF6FF726F
:1002F0002360B64BDFF83CA3CBF80C30B3690DF1AB
:10030000800943F00103B361736A0025CAF8003025
:100310000393736A0DF1800843F080737362B369CD
:1003200043F01C03B36129F82C2D02F1804202F640
:1003300001021046494602928DF856500FF073F9AB
:100340004946A3480FF06FF94946A2480FF06BF9F0
:1003500010218DF83A100221029A8DF83B104FF4CB
:10036000007128F8481D1046116141460FF05BF9F5
:10037000994948464A6842F000724A6009F08CFB8D
:10038000964A159B2946B3FBF2F3954A0AF10400FD
:100390001360182219F02AFF23684FF47A72B3FB16
:1003A000F2F3904A013B5360F0238BF82330294647
:1003B0009560554607238C48DFF888E213604FF0BC
:1003C000010C8A0202F180423EF8114002F58432AB
:1003D000002344FA03FA1AF0010F18BF0CFA03FACB
:1003E00003F101031EBF0260A0F804A00C30102B23
:1003F000EFD101310329E4D17C4C7D4B94F8EB2102
:100400001A703B687B4A934201D1012203E07A4A89
:10041000934202D10222794B1A70A368784F0021CF
:1004200008463B6007F062FF0021012007F05EFFF5
:100430000297744F00234FF0170A4FF0020B57F842
:100440002300013348B1037280F806A080F807B09A
:100450001221049307F058FD049B032BEFD10021D8
:10046000084607F043FF0021012007F03FFFB36972
:10047000402243F00103B3610021634819F0B6FE46
:10048000624B4FF0FF321A60C3F80320029B1B68D7
:100490001A0715D594F84032012B11D8039A534B03
:1004A00012F0805693F8423200F06D8608E093F81F
:1004B0004322012A04D1002283F8422208F0DAF80C
:1004C000642013F063FFA0220021514819F08EFE32
:1004D000504F0026A7F11409F15900234E48DA00C5
:1004E00050F83300814204D109EB020393F8C000B5
:1004F00003E00133042BF1D100200C3614F002FB91
:10050000A82EE9D1029B454A1F68454BDFF838A168
:100510001A60052600213C2242488AF8006019F042
:1005200065FE002318463146DFF820E13D4E07F016
:1005300040094FF0FF0C1EF9012F03EB060B9A55F3
:10054000B9F1000F09D11E3AD2B2012A9FBF01F1C1
:10055000FF318BF800C0C9B201200C333C2BEAD12B
:1005600008B18AF8001061792F4B30481970304B70
:10057000304AEB61D6330360BB0656BF2E4B0123D6
:1005800003EBC10340F2DC5158BF5B7813622B4A86
:10059000002322F813100133082BFAD11C2200216A
:1005A000404619F023FEBE0563D517F4015F05D15F
:1005B000380594F822324BD5012B49D1282385F8F0
:1005C0002430292348E000BF14A301080005FA05E0
:1005D000000C0140001001400000014040420F00AB
:1005E0004430002010E000E0942B0020B4300020C4
:1005F0000212002000127A00001BB700A92300207D
:100600007C1200200CA90108D80E0020FC0F00204D
:10061000EC2E002028A30108D0A3010858330020A5
:100620002025002024250020180B00200830002061
:10063000C4300020E804002040A90108400C00203C
:1006400000ED00E018A901082C1500207BB101087D
:10065000202385F82430212385F8253001238DF8C7
:10066000443095F824308DF8523095F825308DF8C7
:10067000533063790E2B03D003F0EF03082B01D125
:10068000012300E0002301208DF84C300CF094F998
:1006900018B14088003018BF0120029B00F0010013
:1006A0001B688DF83D00C3F340028DF84020C3F372
:1006B00080128DF84220C3F340328DF83820C3F306
:1006C000C0328DF83B2013F4006204D094F822224B
:1006D000511E4A424A418DF83C20C3F300428DF836
:1006E0004320C3F3C0028DF83A202A6A03F00107C1
:1006F000003218BF01228DF84520C3F300528DF857
:100700004620B4F8D6208DF83970ADF84A20B4F8F8
:10071000E22003F00806ADF8482094F8E52042B93D
:10072000B44A92F8E42012F0FB0F0CBF0122002221
:1007300000E0012294F8E410049211F0FB0F14BFC2
:10074000012000208DF841008DF84D1012B1A94A0A
:10075000B2F8E020DB0448BFA64BADF84E2048BFFE
:10076000B3F8DC30B4F8D420ADF8502048BFADF871
:100770005030042906D14FF4805007F099FE002331
:10078000ADF8503094F88C229B4B00211A709B4896
:10079000642219F02BFD9DF84C30002B14BF02236E
:1007A000002307B906B10133954ADFF8848202EBD2
:1007B0008303D3F8DC304FF00009991E1A330593F8
:1007C00002F1140303910693039B33F8022F039362
:1007D0004FF6FF739A4200F0A3819DF83D10D3B20B
:1007E000120AD7B219B1991E012940F294819DF8DD
:1007F000421041B182480C2101FB03014869814943
:10080000884200F088819DF8431041B17C4C0C2057
:1008100000FB034044697B48844200F07C819DF8E2
:10082000400038B1764C0C2000FB0340007E1428B9
:1008300000F071819DF8440070B1714C0C2000FBF8
:1008400003409DF85240007E844200F064819DF890
:100850005340844200F05F81022A02D19DF8382083
:1008600003E0012A04D19DF83920002A00F05381C9
:100870009DF845207AB19DF84C2062B9A3F1080299
:10088000012A08D85E480C2202FB030250695E4A26
:10089000904208BF0427069A0C2505FB03259DF806
:1008A00046205AB19DF84C2042B919B1A3F10C026F
:1008B000012A01E01A1F032A40F20E81012F3BD1C9
:1008C000524A0026FF21167056609660D660166464
:1008D00082F8441082F8451082F8466082F847603A
:1008E00082F84860464A0C2404FB032488F82860F8
:1008F000207EC8F8345007F0E1FA02228271C771F5
:100900000672217F07F000FB3246617E60690EF0BF
:100910000DFD3A463146284613F0D0FC3C4B3D4A8B
:10092000C8F838303C4BC8F84060C8F83C30111F5C
:10093000284613F015FCEEE0022F3FD15FFA89F252
:100940002F491C2656430C2404FB031408EB06070E
:100950004FF0010B4FF0000A87F82920207E87F81E
:100960002AA087F832A087F828B07D63079207F0A5
:10097000A5FA079A80F806B002EB0B03037280F821
:1009800007B0217F07F0C0FA5246617E60690EF021
:10099000CDFC5A465146284613F090FC1F4B06F1F9
:1009A0001001BB631E4BC7F840A0FB631D4B2846DC
:1009B00019440A1D13F0D4FBD944ACE0032F40F0D6
:1009C00089809DF841300D4CBDF84E209DF84D10AA
:1009D000002B4DD0022994F801A0BDF8503029D049
:1009E00003291149114E0EBF4FF0480E0E464FF02D
:1009F000080E22E0B4300020B4210020540C002066
:100A000014A3010800040040002C0140880E0020BF
:100A1000A17B000824050020FD7C0008617D000802
:100A2000797B0008100500201D7E0008BD7D0008B0
:100A3000E8040020B24E4FF0180E5FFA8EF1B14F6D
:100A400032B1B14800FB0EF0B0FBF2F292B202E01C
:100A500013464FF6FF72284607F0BCFA47F82A0003
:100A600057F82A301922DE60A37804EBC30327E08D
:100A70000429667811D1A5492846B1FBF2F2182164
:100A800092B207F0A7FA9F4B0D2243F82600A04B25
:100A9000C360A37804EBC30312E09B4B0121B3FBBB
:100AA000F2F22846BDF8503092B207F093FA954B17
:100AB000092243F82600974BC360A37804EBC303D5
:100AC0005A71A378627804EBC3010A7101328D6018
:100AD00062701EE0042F1ED18F4CBDF84820A37811
:100AE000267804EBC3031E71874B012193FBF2F2BE
:100AF0002846BDF84A3092B207F06CFA874B0A21BB
:100B000043F82600A37804EBC30251712278013226
:100B100022700133A370039B059A93427FF454AE75
:100B2000049B7F4E83F001027E4B00241A707E4BA3
:100B300034701D78A5F11703022B1ED8DFF8ECA145
:100B4000DFF82092DAF81C300021185903EB040872
:100B500016F0DAFA20B1754B1A6A06935ABB25E0F3
:100B600004EB090798E80F0087E80F00337810348A
:100B70000133C02C3370E5D1EDE76D4B13F835E050
:100B800003EBC503D3F804C086F800E0BCF1000F06
:100B9000E1D0DFF8D0817445DDDA230103EB0807EB
:100BA00063440FCB013487E80F00F4E7029B1B6816
:100BB000DF0425D41EE05F4B5F4A13F8350003EBDA
:100BC000C5035C681070002CF0D05C4F002383429A
:100BD000ECDAC3EBC3016218D2F800C001EB070ED8
:100BE00041F807C091880133AEF8041092798EF86D
:100BF0000620ECE705F0EF03082B514B24D125E04C
:100C00003378012BF6D94F4C04EB031303F1100694
:100C10001034A642EED04FF07C5154F8100C16F070
:100C2000DFF84FF07C5144F8100C54F8140C16F017
:100C3000D7F84FF07C5144F8140C54F80C0C16F013
:100C4000CFF844F80C0CE3E70E2D08D11A78182DD4
:100C500042F010021A7008D113F066F905E01A7814
:100C6000192D22F010021A70F5E713F03FF9364AF9
:100C7000364D13781C2043F0040313702B78012B9E
:100C80008BBF012600260024012407F017F9304A03
:100C90001060304A167058B1112282710222C2715E
:100CA0000022944202720CBF1221162107F02CF987
:100CB00000200EF0FDF8222007F000F91522264C46
:100CC000827101260222C27106721221206007F091
:100CD0001BF92068214C002107F0FEFA207E13F05A
:100CE00011FF237E03F01F025B09022B06FA02F6B6
:100CF0003AD0032B3CD11A4A13691E43166137E0E0
:100D0000F17D0008A02E002040420F0000366E0149
:100D10003D7D00082D7D0008540C0020180F002098
:100D20006B130020E82E0020180B0020E8040020A0
:100D300040A90108C8AF0108942F0020952F00207A
:100D4000790E0020580A0020A0230020A9230020AB
:100D5000B01A0020B41A0020AC1A00205004002061
:100D600000100240500A0020924AD3681E43D66009
:100D7000607D07F0A3F80C260B230227C371867150
:100D80000772E07D07F09AF80D23C3718671077230
:100D9000A07D07F093F88671C6710772607D07F039
:100DA0008DF81B2107F0B0F8E07D07F087F80721E8
:100DB00007F0AAF8A07D07F081F81B2107F0A4F83E
:100DC000207D20B107F07AF8132107F09DF8216902
:100DD000794B99420AD103F56043DA6842F48052B4
:100DE000DA60DA6822F48052DA6019E0734B9942D3
:100DF00009D103F5EC331A6942F480421A611A6989
:100E000022F480420BE06E4B994209D103F5EA339C
:100E10001A6942F400421A611A6922F400421A6106
:100E2000237F13B10023184601E0012302200A8822
:100E300002F4415242F44572134303430B808B8BFF
:100E4000207D23F400631B041B0C8B8307230B8280
:100E50000B889BB243F040030B8018B107F02EF8CB
:100E600007F035FA2C2007F029F80446069BC3F852
:100E700008019F238DF83430322000238DF835305F
:100E80008DF836308DF8373013F080FA204607F0B1
:100E900019FA04220DA915A813F004FF204607F043
:100EA00016FA9DF856309DF855201B0243EA02437E
:100EB0009DF857201343434A93421AD0322013F02F
:100EC00065FA204607F0FEF9F52013F027FFFF2012
:100ED00013F024FF8DF85400204607F0F8F99DF830
:100EE0005430702B05D12B78022B02BF364B0322D6
:100EF0001A702B78032B0CBF1F2002200BF0D5FC9F
:100F00002B78032B03D001200EF004FC07E0022015
:100F10000BF052FD0028F6D04388002BF3D02B4B6A
:100F200095F800A02A4D1E6814273A46002128464D
:100F300019F05CF906F4004916F0020F06F4006897
:100F4000284618BF2F70B9F1000F01D011236B7123
:100F5000BAF1010F84BF15238372B8F1000F01D0DD
:100F60002123C3731B4DDFF874A04FF00F08002737
:100F70004FF0060915F8010C00283DD006F09EFF41
:100F8000002680F8069080F80780067215F8010C9C
:100F900006F094FF314606F0B7FF314615F8012CF4
:100FA0000D484B0010F81100904219D1534493F8AA
:100FB000ED3019E0001002400030014000380040E0
:100FC000003C004015202000A92300207C120020B6
:100FD000E4110020E511002000A4010814A3010879
:100FE00001310A29DCD1002307222B70EA707B1C17
:100FF00001226F70AA70DFB208F101085FFA88F869
:10100000B8F1130F05F10505B4D1B74A492053686B
:10101000B64D43F44043536013F074FD202013F0A9
:1010200071FDB24808F0BEFD15A808F090FDB04B68
:10103000022F1593AF4B28BF802216934FF0000369
:1010400038BF1A461A924FF480721B924FF4806296
:101050001C92202228461D9215A94FF400521E9280
:101060001793189719931F9308F07EFD2B68A248D9
:1010700043F001032B604368012F23F4702394BFD6
:101080000022012223F4807343EA02234360826832
:101090009A4B9B4D134043F4602343F0020383605B
:1010A000C36A05F1140C23F470027B1EDBB242EA22
:1010B0000353C3621F2701234FF0070EEA78002A6B
:1010C0004CD095F801805E1CB8F1090FF6B295F886
:1010D00004900DD9A8F10A02C16802EB42020EFA8F
:1010E00002FA21EA0A0109FA02F20A43C2600AE09E
:1010F000016908EB48020EFA02FA21EA0A0109FA2C
:1011000002F20A430261062B0CD8591E426B01EB16
:10111000810107FA01F322EA030208FA01F11143FF
:1011200041631AE00C2B0CD8DA1F016B02EB820230
:1011300007FA02F321EA030308FA02F21A430263F0
:101140000BE00D3BC26A03EB830107FA01F322EACD
:10115000030208FA01F31343C362334605356545BC
:10116000ACD1654B9A6842F480729A609A6842F0FA
:1011700001029A609A6842F008029A6099685E4A91
:101180000D073FD5FAE7013B092B3FF699A901214D
:10119000084607F0ABF8132006F090FE0746182328
:1011A00083710223C37106721221C5F8940406F0FC
:1011B000ABFE0121384607F08FF83C2013F0E6F82B
:1011C0003146012007F092F894F842224D4B9642A6
:1011D000BFF66DA90021084607F088F800213846BF
:1011E00007F07AF8782013F0AFF80121002007F01B
:1011F0007DF80121384607F06FF8782013F0A4F845
:101200000136E1E7936843F00403936093683A4939
:101210005807FBD48B6843F4A0038B60394BD3F899
:10122000CC01002840F0C587D3F8D021002A40F037
:10123000C087D3F8D431002B40F0BB87314E324DFC
:1012400096F8D93100270293B6F9F0312F60039355
:1012500096F8DC316F60049396F8DE31AF601822A7
:1012600039462A48059396F8ED8196F8EE9118F0E4
:10127000BDFF274B274A1B780795012B8CBF934650
:10128000A2F1010BDFF89CA0234D18223946AAF8E1
:10129000007005F5867018F0A9FF069B2320C3F89F
:1012A00024B113F073F80DF12202012175200DF025
:1012B000F9F9D346C0B3194B0DF12302C5F810312B
:1012C000174B0121C5F814313846432385F80C31FA
:1012D0000DF0E8F99DF8233003F07E038DF82330FC
:1012E00000285ED166E000BF001002400800024006
:1012F0004C240140F811002000240140FDF7F1FFCB
:10130000E4110020B4300020AC2300203024002061
:10131000A923002015A30108E8040020A5E6000881
:1013200029E60008B823002095F82831FBB91422DB
:10133000A2710E22E271237213212046C5F82C41BE
:1013400006F0E2FD504A138823F040031B041B0CF7
:101350001380138823F038031B041B0C138013889D
:101360009BB243F040031380012385F8283115AA6E
:10137000012175200AF044F89DF85430A3F1700261
:10138000012A01D9AF2B5CD105238BF80030432310
:1013900085F80C313D4BC5F810313D4BC5F8143183
:1013A0004FE0682B06D101238AF800301D2385F811
:1013B0000C3146E09DF82230364A03F07E03682B5C
:1013C0008DF8223039D1344F02230621137008469C
:1013D000D7F8103115AA98479DF859209DF8573035
:1013E00092005B0003F0020302F004021A439DF82E
:1013F000553003F00103134311D0012B01D100221A
:1014000002E0022B03D10122224B5A7019E003F0B3
:101410000303032BF7D0032012F0C2FF11E0D7F82B
:1014200010310DAA01210C2098479DF8343013F09B
:101430000F03F0D0042BE6D1E1E7702B04BF0423A7
:101440001370164900230B70124B1B78022B0BD123
:10145000134A14481060144850601448D06014486F
:10146000106101220A7038E0012B27D10C4A114883
:101470000B7010600C48042350600F4890600B48BC
:10148000D0600B48106128E00038004001B400082B
:1014900031B40008B8230020E804002014250020FF
:1014A00030240020BDEA00081DE4000805E400081F
:1014B00090C1793DE3E50008D1E30008043B012B2E
:1014C0001DD8C44BC44A1A60C44A5A60C44ADA6080
:1014D000C44A1A6101230B700723C34A41461370A3
:1014E000C24A0298136843F001031360059B4A4601
:1014F0000193049B0093039B0FF0BCF910B90120EA
:1015000012F04EFFBA4A01211378084643F0020355
:10151000137006F0EBFE0021084606F0E7FEDFF848
:101520001C830A27012006F0BBFC002006F0B8FC53
:10153000192012F02BFFD8F84C35DFF800A313F474
:10154000803F02D101200DF0B3FC192012F01EFFE4
:1015500000200DF0ADFC013FE4D13946384606F0DD
:10156000C5FE3946012006F0C1FEA04B1A68984618
:1015700012F0080F0DD00121084606F0B7FE9D4B72
:101580001B6898473946012006F0B0FE9A4B0122AD
:101590001A709A4B1B68187B15F0CEFB984915F012
:1015A0001FFC984915F014FB14F0D6FC964B944997
:1015B0001860884B186915F013FC944B1860079B52
:1015C000188915F0B9FB0146914815F0BDFC914909
:1015D00015F0BAFC904B186012F0E8FC8F4B1E22FD
:1015E000FF21184618F002FE03468D4901220A70B9
:1015F000002202708B48D8F800E002688146184645
:101600000B4612F4800F01BF022119701B2141709B
:101610001EF0020F0ED019784FF0010C00F801C037
:1016200001F1020C013183F800C0C9B24FF0020C85
:1016300000F801C01EF0040F06D0197801F1010C6A
:1016400083F800C0032343541EF00A0F12D0DFF8C2
:10165000D0E104219EF800304FF0050CC154591C14
:10166000C9B200F801C0D91C02338EF80010DBB2F9
:101670000621C15412F4007F694B08D0197801F19A
:10168000010E83F800E04FF0150E00F801E0D105DF
:1016900008D5197801F1010E83F800E04FF01A0E19
:1016A00000F801E09AF805E0BEF1080F02D0BEF1A3
:1016B0000E0F08D1197801F1010C83F800C04FF02A
:1016C0000B0C00F801C019784FF00C0B01F1010C64
:1016D0005FFA8CFC00F801B0D00383F800C006D597
:1016E0004F48023101704D490E2001F80C0012F4F0
:1016F000002F4A4906D0187800F1010C83F800C089
:1017000019230B54464B4FF01D0B187812F4805FD1
:1017100000F1010C5FFA8CFC83F800C001F800B006
:1017200006D0023018703D484FF01C0B00F80CB08A
:10173000900608D5187800F1010C83F800C04FF02E
:10174000070C01F800C0500708D5187800F1010C0B
:1017500083F800C04FF0100C01F800C0500308D50A
:10176000187800F1010C83F800C04FF0120C01F85A
:1017700000C0520507D59AF8D02222B11A78501C21
:10178000187013208854BEF1180F0ED11A78162045
:101790008854501CC0B24FF0170C01F800C0D01C88
:1017A0000232D2B2187001F802E0982200211E48DD
:1017B00018F01CFD13F00EFB1C4A1D4BB6F8DE1092
:1017C0001A601C4BDFF878B019801B4900230B808E
:1017D00038E000BF30240020EDB700081DE4000809
:1017E00005E4000890C1793D380400202824002039
:1017F000A02300200C25002068380020C8150020F8
:1018000035FA8E3CDB0FC93FE42D0020D42D00209B
:101810000AE81C4100401C46183800204A2D0020D0
:10182000492D00207C1200201C360020EC320020C4
:10183000A80D0020A60D0020B0120020B43000201A
:10184000801200208B70A049DFF8E4C20A609F4A32
:10185000DFF8E0E21370B6F8482211B2DCF80000BD
:101860002BF8131000F596704EF823000133122B5D
:10187000974EF3D1D9F80000C30458BFBAF95412F7
:10188000F180944901F1500E91F89D34FBB991F823
:101890009FC491F8A0349C4519D2BCF1000F08D028
:1018A0000CF1FF3C0CEB8C0C0CEB8C0C0CF561730D
:1018B00006E0013303EB830303EB830303F561735A
:1018C00091F89EC49BB20CF1040C26F81C30043134
:1018D0007145D9D1030740F15F819AF84062082E23
:1018E00000F25481DFE816F009000C0013004400F8
:1018F000650086008600C8002A0145F2F05201E02A
:1019000042F6F822744B1A8013F0E9FA3DE142F6F0
:10191000F821714B120119800A2392FBF3F26F49EF
:10192000A2F5B062002341F823200133122BFAD133
:101930006B496C4A402011606B4A13700BF07AF8C7
:101940000646002800F022810EF000FC9AF8413291
:1019500096F900E0002B0CBF0622072200280CBFDE
:1019600001230323019200930646604B604AA2E0E4
:1019700042F6F822584B40201A805E4A594B1A60B2
:10198000594B10221A700BF055F80646002800F04B
:10199000FD800EF0DBFB00280CBF01230323002297
:1019A00096F900E00192009306464FF4E133524A63
:1019B00081E042F6F822484B40201A804F4A494BBA
:1019C0001A60494B08221A700BF034F806460028BA
:1019D00000F0DC800EF0BAFB00280CBF01230323CB
:1019E000002296F900E00192009306464FF4E1339D
:1019F000434A60E042F6F822374B4FF00C0E1A8053
:101A0000394B40484049414A83F800E0062E4FF0E8
:101A1000000303700B7013700BD03D4B1B221A7028
:101A20003C4B052283F800E03B4B4FF4E13A1A703F
:101A300009E0374B21221A70364BDFF8FCA083F8FF
:101A400000E0354B1E70354A264B40201A600AF0E4
:101A5000F1FF0646002800F099800EF077FB002881
:101A60000CBF01230323002296F900E001920093AA
:101A7000064653462A4A1EE044F62062164B402092
:101A80001A80284A174B1A60174B0A221A700AF05C
:101A9000D1FF0646002879D00EF058FB00280CBF75
:101AA0000123032396F900E00646002201921E4A14
:101AB00000934FF4E133402170460AF027FF002ED7
:101AC00060D01A4B18605DE078120020740D002081
:101AD00080120020B43000208A090020C0100020AD
:101AE0004595000870040020E0360020A086010023
:101AF000A197000805950008A5960008ED94000838
:101B00005D9600084E1000202511002024110020B1
:101B1000261100204D100020271100202D940008D0
:101B2000899500088910010879110108E83600201C
:101B3000AC1200202C0D002090D0030041F27C520A
:101B4000764B00261A80764A764B40201A60764BF8
:101B500010221A70754B28221E70754B1A700AF0ED
:101B600069FF98B1032390F90000724A019600932F
:101B70004021714B0AF0CAFE704E012130600DF019
:101B8000A8FB3068003018BF012028B9082006F0F3
:101B90008FFC6B4A634B1A6042F20103D9F80020B4
:101BA000614913408BB144F620605C4B9604188069
:101BB00004D508230B7063485A4B1860D00704D52E
:101BC0000C230B706048574B18600B78043B4B702C
:101BD000910552D55D4A4FF00A0A9369002643F0F9
:101BE0000103936195F8240006F068F9584A122120
:101BF00010600222C27180F806A0067206F084F915
:101C000095F8250006F05AF983460123C37180F840
:101C100006A006720621C5F8300106F075F94D4B95
:101C20004D498022C5F834315846102306F080FB18
:101C3000584613F09BF8494B494A1B6849483C3BBE
:101C40001360D8F80030C82243F01003C8F8003001
:101C50004FF4C873A5F83831434B1A8014F07CF95F
:101C6000424B4349186015F0BBF815F095FA414B0B
:101C70004FF0FF321880404B1A60404B404EDFF867
:101C800014A1C6F83C31D9F800300025DA038AF8EF
:101C9000005040F1108113F05DFD4FF0010840F25B
:101CA0002A32294606F5A0708AF8008018F09EFABC
:101CB000DFF898A0334BDAF81410D3F8882015A871
:101CC0000A43CAF81420304AC3F88C50C3F8802065
:101CD00093F885308DF855808DF854308DF8565036
:101CE0008DF8578012F02CFF162006F0E7F8162228
:101CF00082710222C27105721B21C6F86C0406F0C3
:101D000003F922482249EB0001F1BC0E5EF83520B0
:101D1000824241D10B4493F8C00041E08A0900207F
:101D20007510010870040020E0360020282B0020E8
:101D3000292B00209910010848E801007C0E0020A2
:101D40007595000869100108799500080010024097
:101D50004038002059B400081C060020AC120020B6
:101D60003C380020D253FB3FF8370020F0370020EA
:101D70000000C84300380020F437002098330020CA
:101D8000E80400208803002055AF0008000400404C
:101D900014A30108F03800200135042DB2D1002031
:101DA00012F0B0FEC24BC3491B68C34DB3FBF1F345
:101DB0002988013B21F45C710904090C29804FF04A
:101DC000010B9BB21D21A9852B85A5F814B02B8C86
:101DD0004FF0000823F001031B041B0C2B842B8CF9
:101DE000A888298B23F0020321F0730109041B0446
:101DF000090C1B0C41F0600180B243EA0B03A88080
:101E00002983A5F834802B842B8B23F008031B0433
:101E10001B0C43F008032B83B5F844306FEA4343AF
:101E20006FEA53439BB2A5F84430DAF8143043EA22
:101E30000B03CAF81430DFF8CCA2504607F0B2FE0C
:101E400015A807F084FE9D4B15A915939C4B504691
:101E500016931023179340F22A33189380231A9372
:101E60004FF480731B934FF400531E93CDF864809E
:101E7000CDF87080CDF87480CDF87C8007F074FECA
:101E8000AB8990499BB243F40073AB81DAF8003020
:101E9000FF2243F00203CAF8003086F870B47B18C2
:101EA00027F801800437802F9A70DA70F7D109F093
:101EB0004BFE09F049FED9F800305B0553D5824F3F
:101EC000824B3A6804201A600AF0B4FD0421C6F877
:101ED00074040AF085FD3A687D4B86F87804082082
:101EE0001A600AF0A7FD7B4B082118600AF078FD04
:101EF000794D002186F879042C22284618F076F9CD
:101F00007C232B708E236B70E023EB707D233A686B
:101F100085F82B30714B20201A600AF08BFD2021B0
:101F2000C6F87C040AF05CFD86F8800410200AF0F4
:101F300081FD1021C6F884040AF052FD684B3B2253
:101F40001A7001225A703A221A719F229A711E2227
:101F50001A72A4225A7200229A72DA721A7386F8DE
:101F600088040EF000F95F4B5F4D1B78022B7AD18D
:101F70002F88002F77D10F23A3710E231321E37134
:101F800020462772C6F88C4405F0BEFF204606F0B6
:101F90009EF9564A3220138823F040031B041B0C81
:101FA0001380138823F038031B041B0C1380138841
:101FB0009BB243F0400313809F238DF834308DF89B
:101FC00035708DF836708DF8377012F0DFF92046D5
:101FD0008DF8557006F076F904220DA915A812F0B7
:101FE00061FE204606F073F99DF856309DF85520A5
:101FF0001B0243EA02429DF8573013433C4A934286
:1020000017D00CDC3B4A934215D00132934217D0D3
:10201000A2F51A42033A934220D120230CE0364A1B
:10202000934208D0013293420AD0344A934215D1E8
:1020300001E0402300E080232B804FF4807302E016
:102040004FF480732B806B80AB882A881B02AB60B7
:102050005343EB60012386F8903404E000232B8087
:102060006B80AB60EB60ED68002D4DD0ED0A2E4625
:1020700000270DF15408AF4208DA7C1964101022D1
:102080004146E00209F024FD0F2805DC0AF0EAFFD2
:102090001B4BF6021E6037E0002358F82320013264
:1020A00040F084800133042BF7D125462646E2E731
:1020B0004004002000366E0100040040340400405B
:1020C00028060020F2380020A0150020F40D002082
:1020D000340E0020500E0020040E0020680E002058
:1020E000B4360020A92300206003002000380040FF
:1020F0001620C20017BA20001740EF001720C200B8
:102100000C1300206C000240704C714AB4F8DC31B2
:102110005269013B9BB2052B9EBF012384F8EA3133
:1021200084F8DE3194F8EA3153436A4A1360D9F8EF
:102130000030694A13F4002318BF01231370637938
:10214000052B02BF654B4FF4C8721A8007F0C8FD1B
:10215000634BC8221A80634A137843F00803137054
:10216000614A137823F00203137040F602025F4BBA
:1021700019680A406AB15E495E4A11605E4A0321ED
:1021800011705E4A012111705D4900220A805D498B
:102190000A80A2681A605C4B01221A705B4A1378AD
:1021A00063F07F03137021B0BDE8F08F671C3446E5
:1021B0007CE7574B00221A7000B214F0BDFD554960
:1021C00014F00EFE414D0746B5F9D00114F0B4FDF0
:1021D000504914F005FE0646B5F9D40114F0ACFDE3
:1021E0004C4914F0FDFD4C490546384614F0F0FC0E
:1021F00013F0B2FE8146384613F0AEFE464907465C
:10220000304614F0E5FC13F0A7FE8046304613F08C
:10221000A3FE41490646284614F0DAFC13F09CFE62
:102220008346284613F098FE49468246584614F0E5
:10223000D7FD49460290504614F0D2FD594603900E
:10224000384614F0CDFD51460490384614F0C8FDD0
:1022500041460590584614F0C3FD304D5146286064
:1022600008F1004014F0BCFD04996860AE6030468F
:1022700014F0B6FD039914F0ABFC0599E860304604
:1022800014F0AEFD0146029814F0A0FC414628610E
:1022900007F1004014F0A4FD02996861304614F083
:1022A0009FFD0146059814F091FC0399A861304602
:1022B00014F096FD049914F08BFC4946E861404601
:1022C00014F08EFD2862FEF7B9BF00BFB4300020C5
:1022D000302400206C13002046150020BC0D002087
:1022E000DC370020790E0020482D00207C120020D1
:1022F000CA320020E0110020902B00203C04002076
:102300007C2E00207E2E0020200C0020A023002008
:102310008400002035FA8E3CDB0FC93FBC11002041
:102320002DE9F04FAC4BA3B01B68AC4CD3F8288020
:1023300011F0EEFF2368AA4EC01A308011F0E8FFBA
:10234000A84D20602B78012B05D1A74B32881A802D
:10235000A64A12885A8011F0DBFFA54F0646B946FF
:10236000FB685BB911F0D4FF2368D9F81420C3EBE4
:102370000803184450329042F2D302E098470028F4
:10238000F0D02B78072B04D111F0C2FF964B801BA5
:1023900018802379002B01F09D8011F0B9FF944B38
:1023A00008909B680BB193489847934B93491B68DF
:1023B00013F0080F059339D0914B924A9C8804F191
:1023C0000E039BB21C2B904BB3F904302AD88F48D4
:1023D0000088460726D50A2093FBF0F012888C4B24
:1023E000801A80B202B212F1B30FBCBF00F5B47014
:1023F00002B2B32A1B78C4BFA2F5B47212B21D0791
:1024000014D591F9D801834B404242431B6812B264
:102410005B7A5A436FF01D0392FBF3F3784A23442F
:10242000938003E00A2093FBF0F313807A4BB3F917
:1024300006607A4B1D68688986420CDBB6F5FA6F38
:102440002A7ABFBF331A5343C0F5FA6293FBF2F204
:10245000C2F1640200E0642291F82632B1F84872B9
:10246000069391F82732DFF89881079391F9D831D4
:1024700000245B429BB2099340F2E631684B4FEA7D
:10248000440AE254644B33F91490C7EB090000F29C
:10249000F3138B423BD80028B8BF4042022C3AD0FD
:1024A000069B984202DD069BC01A00E000200B92BA
:1024B00014F042FC5B4914F047FD8346A87814F001
:1024C00037FC59460A90584614F08AFC564914F0D5
:1024D0007DFB0A9B0146184614F082FC534914F018
:1024E00077FB594614F07CFC8346287814F020FCD6
:1024F0000146584614F074FC4C4914F025FD14F0C4
:102500004BFEB94528F80A000B9A3BDB3FE0022C52
:102510004FF4FA70C7D1079B0B928342B4BFC01A25
:10252000002014F009FC3F4914F00EFD8346687A40
:1025300014F0FEFB59460A90584614F051FC3A49F3
:1025400014F044FB0A9B0146184614F049FC374935
:1025500014F03EFB594614F043FC8346687814F0AF
:10256000E7FB0146584614F03BFC304914F0ECFC04
:1025700014F012FE099BB94500FB03F00B9AA8F872
:10258000040008DA3AF808305B422AF808300134CF
:10259000032C7FF471AF264B184C186810F4805050
:1025A0000ED0B6F57A7F06DBB6F5FA6F3246A8BFD5
:1025B0004FF4FA6201E04FF47A72A2F57A7242E0C7
:1025C000B4F84A128E4235DBB6F5FA6F3246A8BF30
:1025D0004FF4FA622FE000BF701200208009002043
:1025E0008E2B002002120020041200200C1000206C
:1025F000302400208609002028240020B430002048
:102600004C130020C20D002054130020402D002048
:10261000790E0020101300208012002004100020EA
:10262000681300200000C8420000C84100401C455B
:102630007C1200200A46521A4FF47A735A43C1F5AD
:10264000FA61B2FBF1F2642392FBF3F1DFF828E3C5
:1026500001F1010C3EF911503EF91CE06FF0630CE2
:102660000CFB0121C5EB0E0E01FB0EF292FBF3F207
:102670005319A54A9BB2D380A8B1A4490968C800E0
:1026800011D5A349C97871B9A3F57A731BB24FF478
:102690007A711B0393FBF1F3C7F5FA6109B24B435F
:1026A00007EB2337D7809B4B1F88790644D59A4B7D
:1026B0000A20B3F9043093FBF0F0984B1B88C01A42
:1026C00000B214F039FB964914F08AFB954905468F
:1026D00014F07EFA13F040FC8246284613F03CFCCE
:1026E000894D8046B5F9020014F026FB8146B5F904
:1026F000000014F021FB5146834614F071FB49465B
:102700000690404614F06CFB069B0146184614F0F8
:102710005DFA14F041FD51462880484614F060FBF4
:1027200059468146404614F05BFB0146484614F08A
:102730004FFA14F031FD6880059B7B4D13F0140FA8
:1027400069D017F4027F66D0784B6F4A1B7803F08C
:10275000100303F0FF0043B1754B94F99802196818
:10276000538800FB0133538055E0724B72491B685C
:1027700093F803E09B78BEF1000F20D0B1F900E0A0
:10278000CEEB06010029B8BF494299420CDD6B49E6
:10279000764508604FF001012972C8BF5B42D188BD
:1027A0009BB20B44D38036E02B7A23B1644B287262
:1027B0001968644B19605E4B1B68734420E0B1F9E3
:1027C0000000311A81EAE17CACEBE17C9C4509DD3B
:1027D000022391FBF3F15C4B19605C4B01211970F2
:1027E00029720AE02B7A43B1554B85F808E0196845
:1027F000544B1960554B83F800E04D4B1B68034464
:1028000053490868018840888B4203DB984201469F
:10281000A8BF1946D1804F4B1B78B3B1B4F84A32E8
:10282000B34212DB4C4B5B79012B01D0192B02D147
:1028300094F893224AB90E2B07D0082B05D0324BBF
:1028400000229A80454B00229A6094F81482B8F1D5
:10285000000F2DD0BA072BD0414B42491E6A30469B
:1028600014F066FCF8B9304615F08CFA3E4B196846
:1028700014F0B6FA15F00CFAB0F5617FA8BF4FF46A
:10288000617014F059FA394914F05EFB13F064FBDF
:102890000646404614F050FA314614F0A1FA15F0FD
:1028A000F7F900B200E00020174AD3881844D0801E
:1028B00094F84E322E4A23B916490988002900F0AF
:1028C000AE801278104F002A00F08C80022B09D0C5
:1028D000032B53D194F84F32C3EB431203EB820323
:1028E000DB000FE0234BD3F8F820B2F57A7F05DB4D
:1028F00044F620639342A8BF134601E04FF47A7375
:1029000003F57A739BB23AE04C130020442D00206B
:10291000B0120020402D002054130020C40D0020D0
:1029200035FA8E3CDB0FC93F80090020790E00206C
:1029300034380020E0150020C80D00203038002079
:102940001C38002024380020283800203838002087
:10295000E415002080030020B43000204013002044
:102960001C3000208FC2753CD4150020EFB6B04457
:10297000C60D0020880000202E1500206B89B34A68
:102980001068B34AB3FBF0F01278461C36B2092A3D
:10299000AE8105D1AF4A3988D380118079885180C2
:1029A000B5F90EA0DFF8C8B20023DFF8ACE23BF9BE
:1029B00013800EF1100939F913100EF1180C0AFBEF
:1029C00001F191FBF6F13CF813202CF81380C2EBD7
:1029D00008020A4429F813200133042BE5D1AEF88C
:1029E0000E0002E0EB89013BEB819B4A0023B2F928
:1029F0000E60002E11DDB2F90CE01832974932F862
:102A0000130031F91310714391FBFEF1411A27F8BD
:102A100013100133042BF1D106E0D38104E01378C5
:102A2000E981002B00F0858094F8500220B18C4B96
:102A30001B689B0001F134838A4B00261B6803F45A
:102A400000030593884BD3F80080884B1B6893F8EC
:102A500000B0874B4FEA860A33F91650059B08EB06
:102A60000607002B01F08B83022E41F07A83002DA4
:102A7000CCBF2846684214F05FF9814698F80100FF
:102A800014F05AF97B4914F05FFA7B4914F0A8F965
:102A90000146484614F058FA8146784A42F80A003E
:102AA000787914F049F9734914F04EFA494614F054
:102AB00097F901464FF07E5014F088F870490746A8
:102AC00014F02CFB002841F057834FF07E5138461C
:102AD00014F042FB08B14FF07E571B20684314F0FE
:102AE0002BF94FF0765114F07BF9394605464FF03B
:102AF0007E5014F029FA0146284614F071F9054673
:102B0000BBF1000F41F064835E4914F007FB00281D
:102B100041F070835C49284614F01EFB00B15A4D09
:102B20005A4B0136032E43F80A5092D1584B0022DB
:102B30001A70584B484D1878002840F0BF84494F10
:102B40003B681E0340F1BA84534E3378033B052B98
:102B50001AD894F8493533B1012B08D108F0CEFECC
:102B6000C0F17F0003E0A86A03689B689847EB6A9E
:102B700095F830201344B3F5807FA8BF4FF48073DD
:102B80008342D4BFEB62E8623378023B092B00F248
:102B90009084DFE813F00A00130042008E048E04D4
:102BA00089009A004504680473040023EB626B6398
:102BB0003A4B1B68AB63032300F07ABC374B1A68AF
:102BC000AB6B6433934280F07484402012F01AFEA1
:102BD000002840F06E84DFF8C8801F4C40276B6BE4
:102BE00018F8030058B112F0E7FEE36A013F03F161
:102BF000FF33E362636B03F101036363EFD16A6B3D
:102C00002749154B8A5C002A40F053845A634FF0E1
:102C1000FF329A63042300F04BBC224A5021A2F1F8
:102C20000C0301932A23029200934920A2F10A0384
:102C3000163A0AF067F9002840F03B844FF0FF3362
:102C4000AB636863072300F033BC00BF6C13002044
:102C500002120020041200208009002090090020A8
:102C6000442D00207C1200200410002010130020AE
:102C70004C1300200000C8420000FA43AC140020AE
:102C80000AD7233C00F0FFC500F0FF4540130020A9
:102C9000C60D00200813002046150020AC120020AD
:102CA00080A40108F6A4010805230093A74B002186
:102CB00002910191A3F1080253200AF023F90028A0
:102CC00040F0F78368630823F2E3402012F09AFD96
:102CD000002840F0EE836A6B9D4B4C2A01F29082F3
:102CE000DFE812F04D005000550059005C00620012
:102CF00066006A006D0071007C008400880094000A
:102D000097009B009F00AE00BD00CC00DB00EA00F6
:102D1000F900080117012A017E018B019801A50124
:102D2000B201BF01CC01D901E601EF01FE010702AA
:102D3000180229023A024B0254025D0266026F0237
:102D4000780281028A0293029C02A502AE02B702B7
:102D5000C002C902D202D602DA02DE02E202EE02AA
:102D6000FA0206031003140318031C0376037A0304
:102D70007E03820386038A038E03920396037549BA
:102D8000754847E3754B764A76497748A5E1774A17
:102D90007749784837E0784978483BE394F8482504
:102DA00094F8471576482EE0B4F8D010754831E312
:102DB000B4F8D21074482DE3196974482AE3744BAF
:102DC0007448198926E3EB6BD90403D594F81612DD
:102DD00071481FE3714B0B225A631DE394F81932BB
:102DE00094F81B2294F81A126D4876E1B5F8401059
:102DF0006C480FE33B681A0540F10E83B4F91E22BC
:102E0000B4F82012684812F0B2FE05E35969674829
:102E100000E394F8DE116648FCE294F8EA11654894
:102E2000F8E294F89C2464235343E21892F81224A5
:102E30000C2101FB02331C4494F814145E48E9E2AF
:102E400094F89C2464235343E21892F812240C2132
:102E500001FB02331C4494F816145848DAE294F843
:102E60009C2464235343E21892F812240C2101FBA2
:102E700002331C4494F815145148CBE294F89C2476
:102E800064235343E21892F812240C2101FB02330D
:102E90001C4494F81D144B48BCE294F89C24642311
:102EA0005343E21892F812240C2101FB02331C4414
:102EB00094F817144448ADE294F89C2464235343D7
:102EC000E21892F812240C2101FB02331C4494F8FE
:102ED00018143E489EE294F89C2464235343E2185D
:102EE00092F812240C2101FB02331C4494F81C14A8
:102EF00037488FE294F89C2464235343E21892F8F5
:102F000012240C2101FB02331C44B4F81E14314876
:102F100080E294F89C2464235343E21892F812242C
:102F20000C2101FB02331C4494F81B3494F81A243E
:102F300094F819142848D0E094F89C34642202FBD9
:102F40000344264894F8D41364E200BFE0A60108C5
:102F500030240020FCC5010808C6010819C6010874
:102F60001EC6010826C601082CC6010854C6010861
:102F70005DC6010869C601080A3600207DC6010841
:102F80008BC601089CC60108ABC60108BAC6010879
:102F9000AC230020CAC60108D4C60108800900205D
:102FA000E1C60108FAC6010805C7010818C70108EB
:102FB00024C7010837C701084CC7010856C70108D4
:102FC00060C701086DC701087AC7010884C70108F6
:102FD0008FC701089CC70108AEC70108BDC701081B
:102FE00094F89C34642202FB0344CE4894F8E933FD
:102FF00094F8DF2394F8D5136FE094F89C3464229E
:1030000002FB0344C84894F8EA3394F8E02394F8A8
:10301000D61362E094F89C34642202FB0344C34854
:1030200094F8EB3394F8E12394F8D71355E094F82F
:103030009C34642202FB0344BD4894F8EC3394F8BA
:10304000E22394F8D81348E094F89C34642202FBFD
:103050000344B84894F8ED3394F8E32394F8D91373
:103060003BE094F89C34642202FB0344B24894F899
:10307000EE3394F8E42394F8DA132EE094F89C34B9
:10308000642202FB0344AD4894F8EF3394F8E5233F
:1030900094F8DB1321E094F89C34642202FB03448F
:1030A000A74894F8F03394F8E62394F8DC1314E07E
:1030B00094F89C34642202FB0344A24894F8DD1384
:1030C000A8E194F89C34642202FB03449E4894F8DF
:1030D000F23394F8E82394F8DE1312F048FD9BE1F4
:1030E00094F89C34642202FB0344984894F8F31348
:1030F00090E194F89C34642202FB0344B4F8F40396
:1031000013F01AFE924913F06BFE14F045F80146D5
:1031100090487FE194F89C34642202FB0344B4F8A5
:10312000F60313F009FE8A4913F05AFE14F034F83E
:10313000014689486EE194F89C34642202FB034402
:10314000B4F8F80313F0F8FD814913F049FE14F0C8
:1031500023F8014681485DE194F89C34642202FB27
:103160000344B4F8FA0313F0E7FD794913F038FE8D
:1031700014F012F801467A484CE194F89C34642229
:1031800002FB0344774894F8FC1343E194F89C3421
:10319000642202FB03447448B4F8FE133AE194F845
:1031A0009C34642202FB03447048B4F8001431E1FB
:1031B00094F89C34642202FB03446D48B4F8021472
:1031C00028E194F89C34642202FB0344694894F893
:1031D00004141FE194F89C34642202FB0344664803
:1031E00094F8051416E194F89C34642202FB03441D
:1031F000624894F806140DE194F89C34642202FBB2
:1032000003445F4894F8071404E194F89C34642262
:1032100002FB03445B4894F80814FBE094F89C34E8
:10322000642202FB0344584894F80914F2E094F82D
:103230009C34642202FB0344544894F80A14E9E0E5
:1032400094F89C34642202FB0344514894F80B1414
:10325000E0E094F89C34642202FB03444D4894F867
:103260000C14D7E094F89C34642202FB03444A48CF
:10327000B4F80E14CEE094F89C34642202FB0344AC
:103280004648B4F81014C5E094F826124448C1E04A
:1032900094F827124348BDE0B4F8DC114248B9E085
:1032A00094F8DF114148B5E094F8E00113F044FDD3
:1032B000274913F095FD13F06FFF01463C48A9E044
:1032C000B4F8E20113F038FD214913F089FD13F041
:1032D00063FF014637489DE0B4F8E40113F02CFD8C
:1032E0001B4913F07DFD13F057FF0146324891E072
:1032F0001749D4F8F80113F073FD13F04DFF0146A0
:103300002E4887E094F8D9112D4883E094F8EE1107
:103310002C487FE094F8ED112B487BE094F88D1257
:103320002A4877E0CEC70108DFC70108F1C70108C6
:1033300001C8010811C8010821C8010832C80108E4
:1033400043C8010855C8010845C801085FC80108FD
:103350000000C84274C8010884C8010892C8010866
:10336000A4C80108BAC80108C9C80108E5C801080D
:10337000FBC801080AC9010821C901083AC90108A6
:103380004EC901085FC9010879C9010894C901083B
:10339000A9C90108C0C90108D7C90108ECC90108B9
:1033A00002CA0108FEC901080ECA01081ACA0108AA
:1033B0002CCA01083FCA010850CA010865CA0108A1
:1033C00073CA010883CA010894CA0108A4CA010883
:1033D00094F84E1291481DE094F84F12904819E06D
:1033E000B4F852128F4815E094F840128E4811E05C
:1033F00094F8E5108D480DE094F8E4108C4809E04D
:10340000B4F8E0108B4805E094F8EB118A4801E02D
:10341000A1688A4812F0ABFB6B6B01336B6348E029
:10342000874B1B689B011BD5B5F84430854CBBB955
:10343000854BD4F8488045201F6812F0BDFA0E2055
:1034400012F0BAFA404612F072FB384612F06FFBE7
:103450004FF48053A4F842300A23337009F058FE29
:1034600009F032FD25E095F84C30002BF6D0744B76
:103470001B689F01F2D409233370F1E7734B1A687C
:10348000AB6BC833934203D294F849457CB904E04E
:1034900012F0FEF90028F7D10BE0A86A09F022FA31
:1034A00095F84D30AC62022B01D111F093FC012351
:1034B000337012F0D7F908B101233370644B1B78D5
:1034C000072B05D110F024FF089BC01A614B5880D0
:1034D00000232B71604C13AD636828469847A046C3
:1034E000002800F050815A4A5A4F147807925B4ADC
:1034F0000023032C08BF52F823004FEA830108BFC2
:1035000027F8130035F913000133032B534E5050A5
:10351000EFD1534B51491A78084606F0F5FB514B51
:103520001B88002B00F0CB804F4B504D1B6805F1E2
:103530000C041B78002705934A4BD8F814201B88ED
:1035400056F8270006934FF47A73B3FBF2F3C3EBFC
:10355000431203EB8203DB00069A9BB29A4202BF3E
:1035600000232B6023612B684FEA870A03442B60FA
:1035700013F0E2FB226902F10109B9F1010FC4F86D
:10358000109004D1002360602060A36022E02268D4
:1035900009901146089213F019FB8346484613F030
:1035A000CBFB0146584613F0CFFC089A114613F0A6
:1035B0000FFB099B014681466060184613F006FB2D
:1035C000594613F00DFCA16813F002FBC4F80090FB
:1035D000E060A060264A002346F80A304AF802302C
:1035E000069B012B5AD12069012807DD013813F011
:1035F000A3FB0146E06813F0A7FC00E0002014F0F4
:1036000007FE059B8146ABB3184613F095FB494670
:1036100013F084FD70B306F063FB50E0BDCA0108EF
:10362000D1CA0108EECA01080BCB010820CB010862
:1036300035CB01084ACB01085CCB01086ACB0108F5
:10364000442D002080090020D4370020AC12002037
:103650000212002004120020302400205C130020FD
:1036600014250020AC1100209C150020D00900205A
:10367000180A0020D8F814204FF47A73B3FBF2F341
:10368000C3EB431203EB8203DB002A689BB202EB1D
:10369000530292FBF3F3A44A42F80A300137032F96
:1036A00005F1040504F114047FF446AF9F4C208813
:1036B000012801D109F0A8FA2388013B23809A4808
:1036C000002356F8232050F82310994C521A46F83C
:1036D00023200133032BF4D1964B974F1A78984649
:1036E000002A44D0DFF8A8B2DFF87C92002456F814
:1036F000240013F021FB914BA5001B8801462BB140
:103700001C2000FB04B012F095FC0146079B1B78BF
:10371000082B0DD1022C0BD07259084625F8092030
:10372000059114F0B5FA05EB090A0599AAF802000B
:10373000834B1B78012B06D1824B1C2000FB0430ED
:1037400012F078FC0AE0804B80484FF00C0E1B68AA
:1037500098F800200EFB040012F058FD78517859BB
:1037600014F096FA0134032C7051C0D10BE020689C
:1037700013F0E2FA3860606813F0DEFA7860A0684F
:1037800013F0DAFAB860724A92F8C830144623B1DE
:10379000013B82F8C83000F03FBD6E4B93F8E0214A
:1037A0001E4622B193F8EA31013BDBB200E001236F
:1037B00084F8C83010F0ACFD674B684DD3F800803A
:1037C000674BB6F82A12A3F1460207462868C0479D
:1037D000644B1A781E46072A04D110F099FD624BFB
:1037E000C01B988010F094FD96F800A00690BAF1E6
:1037F000010F0AD15D49D4F8CC305B4A0968C31A7D
:1038000093805B1AD380C4F8CC00594B2A681B689C
:10381000E3B192F83140D4B1564A1268940718D5F2
:10382000554A1278012A14D9DB7854495A43098839
:10383000D31A994215B203DB91420B46A8BF134637
:103840002D031BB295FBF3F5012405E01C4625462C
:1038500002E001244FF48055494BDB780E932CB1E4
:10386000BDF954306B431B13ADF854304FF00008D2
:1038700046464746434BDFF81C911B780593424B65
:10388000B3F902200992B3F90020B3F904300A9287
:103890003E4A07931268344B0892059A97427BD2AE
:1038A00009980B9313F048FAD9F8081013F098FA16
:1038B00083460A9813F040FAD9F8041013F090FAEE
:1038C0000146584613F084F9089B834693F900009B
:1038D000079B4042584313F02FFAD9F80C1013F00D
:1038E0007FFA0146584613F073F913F055FC15AAF8
:1038F00000B20B9B0CB16843001322F8170015AA05
:1039000032F91720B24203DC9045A8BF904600E090
:103910001646BAF1050F03D1042F98BF23F81720DC
:10392000013709F11009B8E7180A0020AC1100208E
:103930005C13002048240020A01400205024002004
:10394000A8240020AC24002000250020240A002008
:1039500080090020B43000208403002010130020D0
:10396000EC32002002120020041200206C13002010
:10397000E01100207C1200203C0400202C120020CA
:10398000B01200206B13002088130020B015002017
:1039900054240020500A0020864BC8EB06081A6801
:1039A0000FFA88F812F4805308938349834C39D076
:1039B000834B84481B78B1F9066013F0040F01BFF4
:1039C00003681D8A804BA3F8905103687E481F8AC4
:1039D0007E4B1B68D9887D1AAE4205DCB3F9001016
:1039E0002368B3F9004008E039448E42734C07DB8A
:1039F0002168B3F90240B1F90210A0F8906118E013
:103A0000B0F990118D42ABBFB3F900102168236863
:103A1000B3F90240A7BFB3F900400E46B1F9021056
:103A2000264606E02368B1F90660B3F90040B3F911
:103A3000021089B2A4B20B1B1BB29845624819DD73
:103A40001F0397FBF8F70021C0F89471059D8D4284
:103A500009D90DF1540E3EF911507D432D132EF866
:103A600011500131F2E7022193FBF1F31C4424B21F
:103A70000B9408E0022398FBF3F8C8EB01014444DF
:103A80000BB224B20B93B0F990314C490D930F68EF
:103A90004C4B4B49D3F800A00D784C4B4C49D3F814
:103AA00000B0B1F9063005F004050C93059BDFF872
:103AB00038815B000F9302F01003EDB24FF0000964
:103AC00010930F9B99454CD015AA39F80220304627
:103AD000119213F031F93F4B53F8391013F080F97C
:103AE00013F05AFBA0422146119A04DB0B9B834240
:103AF000A8BF034619460A440E9B12B228F8022FAB
:103B00000BB1B98811E0089B73B1BAF81010BBF87B
:103B100006000D9B091A8B4203DC3988BBF80000B4
:103B200004E0BBF8021000E0398878888A4203DBA1
:103B300090420146A8BF1146109BA8F800106BB137
:103B400065B1089B53B909F039F838B9BAF81220B1
:103B50000C9B9342BCBFBA88A8F8002009F1020967
:103B6000AFE715B91C4B1D4A06E0174B93F8982197
:103B7000192A00F2418108E00599A942F5D932F8E5
:103B8000151023F815100135F6E7012303FA02F2A8
:103B9000134B1340002B00F02F81124B1B88D805CC
:103BA00024D5054B1A88ADF86C205A889B88ADF84F
:103BB0006E2030E07C1200204C130020902F00205B
:103BC000482D0020B4150020800900208C2F0020F3
:103BD00080120020500A0020D02E00204C300020FF
:103BE00032413003402D0020CE2E0020BDF8283079
:103BF000ADF86C30BDF82430ADF86E30BDF81C3037
:103C0000ADF87030089B43B1BAF810300C9A9A4264
:103C100003DA079B5B42ADF87030AA484FF47A7222
:103C2000B0F902304FF4616103F5E163534393FB54
:103C3000F1F3A3F5FA73ADF88430B0F9003003F571
:103C4000E1635A4392FBF1F29F4BA2F5FA721B8893
:103C5000ADF88620A3F2DC53ADF872309B4B9C4A42
:103C60001B6811881B8AC91AADF874105188C91ACB
:103C7000ADF876109188C91AADF87810D188C91AB4
:103C8000ADF87A101189C91AADF87C105189C91A9A
:103C9000ADF87E109189D289C91AD31AADF8823055
:103CA0000023ADF8801019468A4A22F81310013318
:103CB000082BFAD1884B89491B68894D0593894B9C
:103CC000DFF810A21B684FF0640E0793864B4FF08D
:103CD00001091B78C3EBC303CB180A930A9B8B42E1
:103CE00070D00B782BB11533059A09FA03F3134002
:103CF00064D0079B11F806CC0E2202FB0C38B8F9F1
:103D00000230B8F9002011F9010C9A1A11F9023C9D
:103D100092B2534393FBFEF34FEA520B11F8057C2A
:103D2000CBEB0303099011F8030C1BB208937E0040
:103D300028B922A8064436F81C0C288019E022ABCA
:103D40001E44B5F9004036F91C6CB44208DA204430
:103D5000844203DC86423446A8BF04462C8008E037
:103D600007DD201AB04203DB8442A8BF0446264682
:103D70002E80D8F80A0009FA07F73842B5F9006032
:103D800011F9040C089B00FB06F090FBFEF00CBF41
:103D900001244FF0FF34984209DB099B5A4392FB00
:103DA000FEF2CBEB02031BB28342A8BF03463AF8F4
:103DB0001CB004FB03B32AF81C3000E02B80023552
:103DC00007318BE7474B494ED3F8008000254FF071
:103DD0000E09642709FB058393F9064036F9023F73
:103DE000E8B25C4394FBF7F4348010F0C5F8013579
:103DF0002044082D3080EDD13D4EDFF8E880336857
:103E000013F0200F31D0002010F0B6F8314C0546E9
:103E10002080012010F0B0F82F4B60801B6819063D
:103E200023D5344B274A1B681B78012B23D1D8F8A4
:103E300000C0B2F902109CF906304FF0320E5B421E
:103E40004B4393FBFEF3B2F900209FB29CF9143070
:103E50006FF03101534393FBF1F193FBFEF33944CF
:103E6000691A3B44218018446080D8F800301F4A0A
:103E700003F1700419E0D8F80070B2F9023097F934
:103E800006105943322391FBF3F12944218097F91D
:103E90001450B2F9001001FB05F292FBF3F210444A
:103EA000E2E70E339C42118026D032F9020FB3F9BB
:103EB0000010B3F902508842F3DB85422946A8BFBF
:103EC0000146EEE754130020D02E0020B415002048
:103ED00080120020400C0020442D00209B2F002049
:103EE0001A0B00200C300020942F00203E0C0020E4
:103EF0007C120020AC150020A54FA64D3B6893F91D
:103F00000430ABB995F8988108F1FF33182B00F213
:103F10009280DFE803F05090906B909090649090C6
:103F20009090907690909090906B839090765000C7
:103F3000A9460023DFF864B2A5F8BA31B5F9BA4151
:103F4000072CDFDC99F8BC21DFF87CA272B93A6853
:103F5000508812F0EDFE904A01461C20126800FBCA
:103F600004A012F01FF9012289F8BC213BF91400CA
:103F700012F0E2FE01461C2000FB04A012F05AF8E9
:103F800013F086FED8F800100E2202FB041200B2D5
:103F90002BF81400B2F90010B2F90220884203DBBA
:103FA0008242A8BF024611467C4B23F8141001340C
:103FB000A5F8BA41C2E73B685B781BB1774B00209C
:103FC000598908E0764B1B7803F0040303F0FF01E6
:103FD000002BF3D1084603F055FF01242CE06F4C71
:103FE0000020E18803F04EFF218905E06B4C0020A2
:103FF000218903F047FF6189012003F043FF022478
:104000001AE0664F0224A01E37F81410C0B2013423
:1040100003F038FF082CF6D106240DE05F4F03248F
:10402000E01E37F81410C0B2013403F02BFF072C48
:10403000F6D1042400E0002433689A0602D4B8F1D3
:10404000050F0BD1554F2046398803F01BFF601C2C
:104050007988C0B203F016FF0234E4B23368DB02A1
:1040600005D495F8A03273B10FF0DCFE0BE04D4F94
:104070000026A01937F8021FC0B203F003FF0D2E6F
:10408000EFD00136F5E7484B1B78072B05D110F030
:104090003FF9069BC01A454BD88001232B71BBE02A
:1040A000434B1B885F063EF5C7AC3A4E414F96F82E
:1040B0002030834211D086F8200012F03DFE3E49A8
:1040C00012F08EFE3D49804612F082FD11F044FF51
:1040D0003860404611F040FF7062394BB3F9000080
:1040E00012F02AFE364B0646B3F9040012F024FE05
:1040F0003F6880463946304612F072FE6D6A81464E
:104100002946404612F06CFE0146484612F05EFD1C
:1041100013F042F8DFF8B490B0F5FA7FA8BF4FF47F
:10412000FA704845B8BF4846254B41461880384686
:1041300012F056FE29460746304612F051FE01465F
:10414000384612F045FD13F027F8B0F5FA7FA8BF06
:104150004FF4FA704845B8BF4846194B9880FEF7AF
:104160006BBC002DCCBF2846684212F0E5FD8146AD
:1041700098F80000FEF784BC124FFEF7AEBC7879C9
:104180001B30684312F0D8FD4FF07651FEF7B5BCF6
:10419000B0150020800900206C130020400C002086
:1041A000482D002086120020021200200412002058
:1041B000402D00200000002035FA8E3CDB0FC93F67
:1041C0004C1300200AD7233C400B00200CFEFFFFBD
:1041D000134912F0B9FE1349054612F09FFF60B96A
:1041E0001149284612F0B8FF00283EF499AC0E4D54
:1041F000FEF796BC0D4DFEF793BC0A4DFEF790BC42
:1042000011F046FB00283FF454A94FF48053A5F861
:1042100042300A23FFF74CB923B0BDE8F08F00BF4E
:104220003333834000A0F9C400A0F94400F0FFC577
:104230002DE9F04F914BADB01D780093002D00F0AB
:10424000A7808F4B1868002801F0108704F0F6F85B
:10425000DFF85C92DFF85C82D9F800000BF042F8DE
:10426000002801F00387D9F800000BF038F809287E
:10427000844C01D03F2855D14FF0000A574655468F
:1042800026680AEB080B36B132465AF808107E4809
:1042900015F0F0FF20B90DB15F4601E05D465F46C5
:1042A0000AF1080ABAF5907FEBD1F5B1D5F800A074
:1042B000D7F800B0DFF8D0C123681AF803001BF864
:1042C0000310814211D15A1CDFF8BCE149B92D2BF2
:1042D00007D86C48026020200EF803000EF8021088
:1042E00003E00CF803002260E6E723680BB1BD424F
:1042F0000FD0664810F01CFABD4207D855F8080BDD
:1043000010F016FA092010F099F8F5E70EF0A0F871
:1043100000265D4D23689E429ED2A85D10F08EF867
:104320000136F7E723686BB9042804D1564805F035
:104330006DFF01F09BBE0C2841F09486544810F0AC
:10434000F7F922E00C28F9D00A2841F03F864E4EBA
:10435000504810F0EDF92321304615F07CFF35462A
:1043600008B1801B206023680022002B41F03286B8
:10437000002A41F04A8630220021434815F036FFDA
:10438000009B1B78002B01F071860EF061F863E74B
:10439000414B03F13007414BEA18EB58002B01F079
:1043A0005A803F4C3F4922603F4A26468946924602
:1043B0000B60059300238DF819303C4814238DF8C9
:1043C000183004AB04920360D9F80000DFF8D48001
:1043D0000AF088FF002801F02A80D8F800000AF0CF
:1043E0007EFF3368834693F8481019B9242863D1B7
:1043F00001221DE0012903D14D2808BF022204E05B
:10440000022907D13C2808BF032218BF002283F8E5
:10441000482085E003290ED140284FF0000102D941
:1044200083F84810D0E758711971D9719871042236
:1044300083F84820C8E7042907D1997983F849000F
:1044400080EA01029A710522F2E7052968D15879BC
:1044500019798842987908D98BEA00009871481C2C
:1044600018710B4483F808B0AEE7584503D1062213
:1044700083F848205AE00022DAE700BF0813002042
:104480004830002004130020D41200204ACC010838
:104490004FCC010824E1010800A701081C360020C8
:1044A000682D0020702D0020F1F200086C2D0020F6
:1044B00064300020FCC30108BF490B7803F00403FB
:1044C00003F0FF0E002B7FF47FAF23281DD1009A4D
:1044D0000123D8F800001370B84B01911860B84B55
:1044E0001860B84B586010201872B748C3F800A085
:1044F000036083F809E0B54810F01AF90DF0A8FF41
:1045000001990B7843F002030B70B14B1B681B78C9
:104510005B4505D1AF4BB04A1A60B04BB04ADA6088
:10452000336893F84820062A7FF44EAF93F8498009
:10453000B8F1520F00F0898600F2D880B8F1340F3C
:1045400000F0518467D8B8F1240F00F0D7842DD83B
:10455000B8F1040F00F0378215D8B8F1020F00F05F
:10456000188200F22582B8F1010F40F0A5870320E0
:104570000DF07CFA00200DF034FA40460DF031FACF
:10458000142000F030BFB8F10A0F00F05A82B8F1E1
:10459000220F00F00784B8F1050F40F08D871A2034
:1045A0000DF064FA0026DFF854821DE2B8F12C0FFA
:1045B00000F0FA841BD8B8F1280F00F0DC84B8F1C1
:1045C0002A0F00F0EB84B8F1260F40F07587854E76
:1045D00006200DF04BFAB6F8CC010DF04AFAB6F809
:1045E000D0010DF046FAB6F8D40100F0F9BEB8F1EA
:1045F000300F00F08F85B8F1320F00F03385B8F13D
:104600002E0F40F05987774E40200DF02FFA06F11B
:10461000400800F06FBDB8F1450F00F01B8636D89A
:10462000B8F13B0F00F0B78319D8B8F1380F00F09C
:104630008F84B8F13A0F00F02A83B8F1360F40F0BA
:104640003B87694B674E187806F12808C0EBC0001D
:10465000C0B20DF00BFADFF8A89100F047BDB8F139
:10466000400F00F00685B8F1420F00F01285B8F156
:104670003D0F40F021875B4E02200DF0F7F996F8D0
:104680008F020DF0AEF996F88E0200F0ACBEB8F1D4
:104690004B0F00F0B48410D8B8F1470F00F08F85AD
:1046A000C0F07985B8F1490F40F0068702200DF07F
:1046B000DDF94E4B988A00F093BEB8F14F0F00F031
:1046C000B785B8F1500F00F0A185B8F14D0F40F05B
:1046D000F386474EDFF82C8130784FF0000900EB6D
:1046E0004000C0B20DF0C2F900F0A4BCB8F1700FE8
:1046F00000F0298300F28A80B8F1660F00F0DD81B6
:104700002CD8B8F15E0F00F032860DD8B8F15A0FF0
:1047100000F0ED85B8F15C0F00F00886B8F1540F99
:1047200040F0CA8600F091BDB8F1640F00F07981C5
:1047300000F29981B8F1600F40F0BE86294E032047
:104740000DF094F996F8D9010DF04BF996F8EE01B9
:104750000DF047F996F8ED0100F045BEB8F16C0F89
:1047600000F0858216D8B8F1680F00F06782C0F0BB
:10477000D181B8F1690F40F09F86DFF87480002680
:1047800098F80000DFF88090400000F0FE000DF087
:104790006DF961E2B8F16E0F00F07E8200F2A18245
:1047A00006200DF063F9134B18680DF06BF9124BEE
:1047B000188800F015BE00BF482D0020643000208E
:1047C00060150020240C0020483000207ACC01081D
:1047D00020250020F04F0020EFBEADDE00ED00E010
:1047E0000400FA05B43000202C15002030240020ED
:1047F000E03600201C380020E40D00205DC60108D2
:10480000242500200C33002080120020B8F17D0FF9
:1048100000F043855BD8B8F1750F00F0B0823ED848
:10482000B8F1730F00F0438300F2AE80B8F1720F5D
:1048300040F04286D94E16200DF018F9B6F848021D
:104840000DF017F9B6F8D0000DF013F9B6F8D20054
:104850000DF00FF9B6F8D4000DF00BF9B6F89C0284
:104860000DF007F900200DF0BCF800200DF0B9F8AC
:1048700000200DF0B6F896F823020DF0B2F896F885
:1048800044020DF0AEF800200DF0ABF8B6F9F031AF
:104890000A2093FBF0F080B20DF0EBF85CE3B8F186
:1048A000780F00F04681B8F17C0F00F0E784B8F192
:1048B000770F40F00186DFF81483002698F8000097
:1048C0000DF0D4F8DFF808A3DFF80893E5E2B8F1BB
:1048D000A00F00F005833FD8B8F17F0F00F02784C8
:1048E000C0F0F684B8F1960F40F0E6850F200DF089
:1048F000BDF8AB4B18880DF0BCF8AA4B188880B2F5
:104900000DF0B7F8A84B1B68C3F3C000C3F38002D7
:10491000800040EA4200C3F340021043C3F3401258
:1049200040EAC20003F0100318430DF0A2F80CF0A7
:1049300085FF0DF0A7F8994B93F89C040DF051F802
:104940009A4B18886428A8BF64200DF092F80220C2
:104950000DF047F8964B23E2B8F1F10F00F04881D3
:10496000B8F1FE0F00F0AE82B8F1F00F40F0A48570
:104970008A4E04200DF07AF8B6F8F4010DF079F8BB
:10498000B6F8F20100F02CBD4FF000094FF0010B1A
:1049900055E204200DF06AF8DFF83C82002618F892
:1049A000060001360DF01DF8042EF8D100F039BDD7
:1049B00003200DF05BF803200DF013F800200DF03C
:1049C00010F800F045BC06200DF050F8DFF80C821E
:1049D000002618F8060001360DF003F8042EF8D171
:1049E000744B187800F0FCBC18F8060001360CF087
:1049F000F8FF0B2EF8D1DFF8E881002618F8060042
:104A000001360CF0EEFF082EF8D1DFF8D881002631
:104A100018F8060001360CF0E4FF072EF8D100F07C
:104A200000BD07200DF022F8E7200CF0DAFF5B4B09
:104A300058790CF0D6FF00200CF0D3FF042000F0D2
:104A40001ABC5D4811F014FC5FFA80F840460DF086
:104A50000DF85A4EB044B04500F0E38416F8010F4B
:104A60000CF0BFFFF7E70B200DF000F84C4B188857
:104A70000CF0FFFF4B4B188880B20CF0FAFF4A4B4A
:104A80001B68C3F3C000C3F38002800040EA420009
:104A9000C3F340021043C3F3401240EAC20003F0E4
:104AA000100318430CF0E5FF0CF0C8FE0CF0EAFF11
:104AB0003A4B93F89C0400F096BC12200CF0D6FF01
:104AC0003F4BDFF824911B890026B3F5007F94BF8C
:104AD0004FF001084FF0040859F82600013690FB0A
:104AE000F8F080B20CF0C5FF032EF5D1354E3088BA
:104AF0000CF0BFFFB0880CF0BCFF3089324E0CF0D8
:104B0000B8FF30880CF0B5FFB0880CF0B2FF3089E8
:104B100000F066BC10200CF0A9FFDFF8D080002662
:104B200018F8060001360CF05CFF102EF8D100F0EA
:104B300078BC1A4E70200CF099FFB0464FF0000A76
:104B40004FF00E09B6F856010CF093FFB6F8580175
:104B50000CF08FFFB6F85A010CF08BFF96F85C0151
:104B60000CF03FFF96F85D010CF03BFF96F85E01FC
:104B70000CF037FF96F85F010CF033FF09FB0A8356
:104B80000AF1010AD3F860010CF07CFFBAF1080FBA
:104B900006F10E06D6D100F044BC00BFB4300020B0
:104BA0008E2B0020B0300020282400200C10002084
:104BB000382D0020A92300200A36002009360020C5
:104BC000AC2300205C1300204C380020492D00202D
:104BD0004A2D002000A70108B2CC0108B7CC01087B
:104BE00054C601081EC60108D80D0020400C002044
:104BF00070200CF03BFFC44E06F1700896F8E600FA
:104C00000CF0EFFE96F8E7000CF0EBFE96F8E800EB
:104C10000CF0E7FE96F8E9000CF0E3FE96F8EA00E7
:104C20000CF0DFFE96F8EB000CF0DBFE073696F892
:104C3000E5000CF0D6FEB045E0D1F2E310200CF018
:104C400015FFDFF80483002618F8060001360CF083
:104C5000C8FE102EF8D1E4E398F800309E4280F0B0
:104C6000E08339F816000CF004FF0136F4E7A74E94
:104C700006200CF0FBFE30880CF0FBFE70880CF078
:104C8000F8FEB6F904300A2093FBF0F024E004208B
:104C90000CF0ECFE9E4B2FE107200CF0E7FE9D4B45
:104CA0001888FF28A8BFFF20C0B20CF09AFE9A4BCC
:104CB000186880F3100080B20CF0DBFE974B188868
:104CC0000CF0D7FE904B93F82322954B18682AB12D
:104CD0000A23584380F3100080B281E300F30F00F1
:104CE000FAE7904E0C200CF0C1FE3368B0461878FD
:104CF0000CF077FE33684FF0000998780CF071FEE5
:104D0000D8F80030874E4B44587909F101090CF06E
:104D100068FEB9F1030FF3D13368187A0CF061FE25
:104D20003368D8780CF05DFE336818790CF059FEC2
:104D3000336858890CF09DFE3368587A0CF051FEA8
:104D4000336858784FE31E200CF090FEDFF8DC81CA
:104D50000026D8F80030334458780CF042FED8F8DA
:104D600000303344D87A0CF03CFED8F8003033449D
:104D7000587D01360CF035FE0A2EEAD151E32F2082
:104D80000CF074FE684E16F8010F002800F04983FD
:104D90000CF027FEF7E701200CF068FE634B1B6860
:104DA000187820E350200CF061FE574E4FF00C09AC
:104DB00006F150085E4A96F89D34043609FB032339
:104DC00093F838000CF00DFE96F89A040CF009FEEA
:104DD00096F89B040CF005FE96F89C040CF001FE7E
:104DE000B045E7D11DE35A200CF040FE464E06F1D7
:104DF0005A0896F8F2040CF0F4FD96F8ED040CF065
:104E0000F0FD96F8EE040CF0ECFD96F8EF040CF0D3
:104E1000E8FD96F8F0040CF0E4FD063696F8EB0495
:104E20000CF0DFFD4645E4D1FBE2BBF1000F00F0E2
:104E3000F8825FFA89F00CF019FE4FF0000B0026A3
:104E40003C4B1B789E42F0DA3B4B0021F05C4FF06C
:104E50000C0E0EFB01F313F807C0844503D001319B
:104E60001F29F6D10CE0324A1344D3F834A050463F
:104E700011F0FEF90146BBF1000F00F0F282894407
:104E80000136DDE700FB02F313F807E08E4500F082
:104E9000F58201321F2AF5D1013698F800309E4282
:104EA00080F0BF8216F80A1000220C20EAE70820E2
:104EB0000CF0DCFD0126F0B201360CF092FD092E5B
:104EC000F9D1AEE208200CF0D1FDDFF88080002699
:104ED00038F8160001360CF0CCFD042EF8D1A0E213
:104EE0000C200CF0C3FD154B18680CF0CBFD144BD7
:104EF00018680CF0C7FD134B1868BCE104200CF0D7
:104F0000B5FD014B9868B6E1B43000205413002081
:104F1000F43700202C120020983900209C39002002
:104F2000F80D002004100020FFA601081013002037
:104F300000A70108492D00204A2D0020E8F7FF1F97
:104F4000ECF7FF1FF0F7FF1FD02E00200412002007
:104F500004200CF08BFDDA4E96F816020CF041FDA1
:104F600096F81A020CF03DFD96F819020CF039FD86
:104F700096F81B0237E2D24E07200CF077FDB6F808
:104F80001E020CF076FDB6F820020CF072FD96F8C9
:104F900022020CF026FDB6F8240221E201200CF0DA
:104FA00065FDC74B58791EE2C54E10200CF05EFD22
:104FB00096F840020CF015FDB6F84C020CF059FDC5
:104FC000B6F848020CF055FDB6F84A020CF051FD57
:104FD00096F842020CF005FDB6F854020CF049FDBB
:104FE000B6F856020CF045FD96F84E020CF0F9FCAE
:104FF00096F84F020CF0F5FCB6F85202F0E1B04E14
:1050000008200CF033FD96F89A020CF0EAFC96F8B2
:105010009B020CF0E6FCB6F89C020CF02AFD96F818
:105020009E020CF0DEFCB6F8A0020CF022FD96F811
:10503000A202D8E1337808F10208994580F0F181A5
:1050400018F8020C0CF0CDFC18F8010C09F101095C
:1050500000EB800000EB800000F2EE2080B20CF04C
:1050600008FDE7E701200CF001FD954B93F84402A1
:10507000B9E108200CF0FAFCDFF84482002606EBC8
:10508000080393F8380201360CF0ABFC082EF6D179
:10509000C7E18B4E10200CF0E9FC70790CF0A1FCFC
:1050A000B0680CF0EFFC96F840020CF09AFCB6F8F1
:1050B000CC010CF0DEFCB6F8D0010CF0DAFCB6F84E
:1050C000D4010CF0D6FCB6F81E020CF0D2FCB6F8F7
:1050D000200285E113F90920824200F0D5810C33CA
:1050E0003C2BF7D10836B04500F09B8196F9A6021B
:1050F0000023EFE7B6F864030CF0BBFC96F86603F8
:105100000CF06FFC043696F863030CF06AFCB045B3
:10511000F0D186E180200CF0A9FC6A4E06F18008EF
:1051200056F8040F0CF0AEFCB045F9D179E18D20B2
:105130000CF09CFC00264FF0060A0AFB06F94FF023
:10514000000B5FFA86F840460CF04BFC5FFA8BF0E0
:105150000CF047FC5A4B0BEB0901194491F8A403DE
:105160000BF1010B0CF03DFCBBF1060FEBD101364E
:10517000062EE2D1002606200CF033FCF0B20CF033
:1051800030FC4F4B334493F8C80301360CF029FC34
:105190000B2EF0D145E10D200CF068FC06F0BEFBB3
:1051A000494E40F00200C0B20CF01BFC30880CF0FD
:1051B00069FCF0680CF066FC08F070FA5BE00CF03B
:1051C00007FC064684200CF051FC30460CF05AFCDB
:1051D0003D4B0DF13008DA6806F1800393428CBF35
:1051E000C6EB02094FF0800907F03CFF4A46304603
:1051F000414606F06DFC814600264E4580F2118145
:1052000018F806000CF0EDFB0136F6E72C4E0420F2
:105210000CF02CFC01200CF0E4FB96F849050CF096
:10522000E0FB96F847050CF0DCFB96F84805DAE061
:105230000B200CF01BFC00200CF0D3FB00200CF02A
:10524000D0FB00200CF0CDFB11E001200CF00EFC97
:105250000020C8E013200CF009FCDFF87080002665
:1052600018F8060001360CF0BCFB0B2EF8D100201C
:105270000CF008FC00200CF005FCD2E0104E0620DB
:105280000CF0F4FBB6F8D8000CF0F3FBB6F8DA003B
:105290000CF0EFFBB6F8DC00A2E0094E05200CF0A4
:1052A000E5FB96F826020CF09CFB96F827020CF022
:1052B00098FB96F828020CF094FBB6F8DE008FE01D
:1052C000B430002094330020600300205DC6010844
:1052D000C94E03200CF0CAFB96F8C7010CF081FB05
:1052E00096F8C8010CF07DFB96F8C9017BE0C24E30
:1052F00006200CF0BBFBB6F8DC3123B108200CF023
:1053000070FB012005E096F8DE010CF06AFB96F8D0
:10531000EA010CF066FB96F8E5000CF062FB96F8EB
:10532000E4000CF05EFBB6F8E00059E0DFF8C8825C
:10533000B24E0D200CF09AFB98F8E0010CF051FBF6
:105340003368188C0CF095FB3368588C0CF091FB8B
:10535000B8F8E2010CF08DFBB8F8E4010CF089FB21
:105360003368988C0CF085FB3368D88C38E0A34EFA
:1053700011200CF07BFB3368588D0CF07AFB3368FE
:10538000988D0CF076FB3368D88D0CF072FB336887
:1053900093F828000CF025FB336893F831000CF0EB
:1053A00020FB336893F837000CF01BFB336893F84D
:1053B00038000CF016FB336893F833000CF011FB47
:1053C000336893F834000CF00CFB336893F8360024
:1053D0000CF007FB3368988F0CF04BFB3368588F49
:1053E0000CF047FB1DE00CF0FCFA1AE040F22C84B4
:1053F000B8F1D00F00F04684B8F1D20F40F016811A
:105400000CF0D0FA020600F14A847D4B1B785B0752
:1054100004D4022828BF002003F01AF900200CF061
:1054200025FB0CF0EFFA2368002283F84820754B27
:10543000754C186803F002F894F82C305BB1734B8C
:10544000585907F027FA0EF08AFF002384F82C3011
:105450006F4A704BDA604C35982D00F00786FEF7E6
:105460009ABFD046CAEB08008842BFF609AD18F8CB
:10547000010B01910CF0B5FA0199F3E74B4493F855
:1054800038000CF0AEFA07E5C0B20CF0AAFAB6F894
:10549000A8020CF0EEFA96F8AA020CF0A2FA96F81E
:1054A000AB020CF09EFA96F8AD020CF09AFA96F860
:1054B000AC020CF096FA15E6B8F15B0F15D10CF0C2
:1054C00071FA4D4E86F8DE010CF06CFA86F8EA01AE
:1054D0000CF068FA86F8E5000CF064FA86F8E4004F
:1054E0000CF06CFAA6F8E00098E700F26082B8F1E0
:1054F000370F32D15B794FF00708B3FBF8F8C8EBF0
:10550000C8029B1A13F0FF0F02D00BF0F5FC85E7E1
:105510005FFA88F8B8F1000F80D00CF043FA4FFA28
:1055200080F9484607F048FA06460028EDD080F892
:1055300000900CF043FA70800CF034FA30710CF0EB
:1055400031FA70710CF02EFAF0710CF02BFA08F1B0
:10555000FF385FFA88F8B071DCE700F22881B8F113
:105560002B0F04D10CF01EFA234B587156E700F2B2
:105570008680B8F1250F08D11F4E0023B3600CF0D0
:1055800027FAB3681843B06048E752D8B8F10B0F58
:1055900019D111220021204814F028FEDFF858907C
:1055A0004FF0000833685B79102B28BF1023984513
:1055B000BFF434AF0CF0F6F908EB090383F8560595
:1055C00008F10108EEE7B8F1230F2FD10CF0EAF94A
:1055D0001328064699D80CF0E5F900220C2101FBAE
:1055E00002F307EB030E9EF808E0864500F0C9843D
:1055F00001321F2AF3D188E7B430002010130020B5
:10560000482D00206C2D0020240C00201C3600208A
:105610000400FA0500ED00E00A360020B8F1FA0FA8
:1056200004D1CD4B1B785A0740F133830BF064FC57
:10563000F7E6B8F1270F0DD10CF0C0F9C74EC6F848
:10564000CC010CF0BBF9C6F8D0010CF0B7F9C6F8E4
:10565000D401E3E6B8F1290FE8D10CF0AFF9BF4E61
:10566000A6F81E020CF0AAF9A6F820020CF09AF98E
:1056700086F822020CF0A2F9A6F82402CEE6B8F1D0
:10568000310F14D10CF08EF91F2806463FF63DAFBE
:1056900023685B79052B7FF438AF0CF099F9AF4B99
:1056A00003EB8603C3F8E40210F054F8B6E64BD8D7
:1056B000B8F12D0F32D10CF075F9A84E86F84002E2
:1056C0000CF07CF9A6F84C020CF078F9A6F8480228
:1056D0000CF074F9A6F84A020CF064F9236886F815
:1056E00042025B79082B07D90CF068F9A6F854023E
:1056F0000CF064F9A6F8560223685B790C2B7FF650
:105700008DAE0CF04FF986F84E020CF04BF986F88E
:105710004F020CF053F9A6F852027FE6B8F12F0FB2
:1057200084D18E4E06F140080CF048F9A6F86403C7
:105730000CF038F986F866030CF034F9043686F874
:1057400063034645F0D169E6B8F1330F05D10CF09B
:1057500029F9824B83F8440260E6B8F1350F7FF4F3
:1057600065AF0CF01FF90E2880463FF6CEAE0CF068
:1057700019F903283FF6C9AE784B062606FB083612
:1057800086F8F2040CF00EF986F8ED040CF00AF934
:1057900086F8EE040CF006F986F8EF040CF002F936
:1057A00086F8F0040CF0FEF886F8F10436E6B8F15D
:1057B000440F04D16A4B012283F82C202EE672D8C4
:1057C000B8F13E0F09D10CF0EDF8644E86F88F0267
:1057D0000CF0E8F886F88E0220E62CD8B8F1390FE4
:1057E00011D10CF0DFF85D4E86F816020CF0DAF8F5
:1057F00086F81A020CF0D6F886F819020CF0D2F8E6
:1058000086F81B020AE6B8F13C0F7FF40FAF554E45
:10581000D6F800800CF0C6F80128A8BF012088F84F
:10582000000033681B78012B18BF4F4A4F4B08BF4D
:105830004F4A1A60F2E5B8F1410F0CD1DFF81C8134
:1058400000260CF0AFF806EB08030136082E83F8AB
:105850003802F6D1E2E5B8F1430F7FF4E7AE0CF081
:10586000A1F83E4E0023B36070710CF0B1F8B3683C
:105870001843B0600CF096F886F840020CF09EF8E1
:10588000C6F8CC010CF09AF8C6F8D0010CF096F8E6
:10589000C6F8D4010CF092F8A6F81E020CF08EF8AF
:1058A000A6F82002BAE5B8F14C0F19D10CF07AF83D
:1058B0002A4E86F89A020CF075F886F89B020CF0D6
:1058C0007DF8A6F89C020CF06DF886F89E020CF0AC
:1058D00075F8A6F8A0020CF065F886F8A2029DE51E
:1058E00013D8B8F1480F09D106F01CF9214A00235A
:1058F0001370214A1370214A13608FE5B8F14A0FE3
:105900007FF494AE0CF05AF888E5B8F14E0F37D119
:105910000CF048F8112880463FF6F7AD0CF042F83D
:105920000E4E08F5967806F818000CF047F840F28D
:10593000ED23984205DD40F6CA039842A8BF1846F9
:1059400001E040F2EE20A0F2EE20192390FBF3F0EC
:1059500006EB4806707061E5482D0020B430002049
:10596000240C002010130020B1BD00088403002087
:10597000D9C00008091300200A1300200C130020CE
:10598000B8F1510F7FF452AEDC4B1B78012B3FF680
:1059900045AD0CF007F8DA4E86F849050CF002F830
:1059A00086F847050BF0FEFF86F8480536E5B8F1A6
:1059B000D30F04D10CF002F8D24B18802EE500F280
:1059C0007781B8F1CC0F51D15B79092B7FF69DAD72
:1059D000CD4ED6F800800BF0E5FF88F80000D6F831
:1059E00000800BF0DFFF88F802000BF0DBFF33686C
:1059F0006428A8BF642058710BF0D4FF3368642872
:105A0000A8BF642098710BF0CDFF3368FF28A8BFB2
:105A1000FF20D8710BF0C6FFD6F80080642828BF9D
:105A2000642088F808000BF0BDFF88F80300D6F862
:105A300000800BF0B7FF88F80400D6F800800BF068
:105A4000BDFF2368A8F80A005B790A2B05D9D6F8B0
:105A500000800BF0A7FF88F8090023685B790B2B07
:105A60007FF6DCAC36680BF09DFF73E700F2B28086
:105A7000B8F1610F0DD10BF095FFA14E86F8D90159
:105A80000BF090FF86F8EE010BF08CFF86F8ED012D
:105A9000C4E479D8B8F15D0F2AD10BF083FF9B4E97
:105AA000DFF85C82D6F8009088F8E0010BF086FF02
:105AB000A9F82000D6F800900BF080FF2368A9F821
:105AC00022005B79052B7FF6A9AC0BF077FFA8F8D5
:105AD000E2010BF073FFA8F8E401D6F800800BF0A8
