:020000040800F2
:1000000000A00020AD6E01084D1001087D570108C9
:100010004B100108491001084710010800000000BA
:100020000000000000000000000000004510010872
:100030004310010800000000411001082D42010892
:10004000156F0108156F0108156F0108156F01087C
:10005000156F0108156F0108AB0C0108B50C0108FC
:10006000B30C0108B10C0108AF0C0108E17F0008D6
:10007000D17F0008C17F0008B17F0008A17F000880
:100080008D7F0008797F0008156F0108156F010842
:1000900015110108156F0108156F0108AD0C010855
:1000A000193F0108553F0108093F01087D3F01083C
:1000B000493F0108393F0108293F0108156F010830
:1000C000156F0108156F0108156F0108156F0108FC
:1000D000156F0108B57E0008A97E00089D7E000806
:1000E000A90C0108156F010833100108156F0108EC
:1000F000156F0108156F0108156F0108156F0108CC
:10010000000000000000000000000000156F010862
:10011000156F0108156F0108156F0108156F0108AB
:10012000657F0008517F00083D7F0008297F000897
:10013000157F0008156F0108000000000000000096
:10014000156F0108156F0108156F01080000000008
:10015000000000000000000000000000000000009F
:100160000000000000000000156F0108156F010875
:10017000156F0108000000000000000000000000F2
:0801800000000000156F0108EA
:100188002DE9F04FA34BA44A2DED088B1A60A34B21
:10019800ADB000221A600DF0C9F818B90DF0B4FC22
:1001A80010F08AFE0DF0E6F89D4A137843F001033B
:1001B80013709C4A9C4B116899424FF0000309D177
:1001C800136062B6994B1B6883F30888984B1B68C9
:1001D8009847FEE7974A984C4FF47001C2F8881088
:1001E8000A930B93236843F480332360236803F452
:1001F80000330B930A9B01330A930B9B1BB90A9B91
:10020800B3F5A04FF2D1236813F4003318BF0123CC
:100218000B930B9B012B52D0DFF81882874BC8F841
:100228000C30874F666A3E60636A43F0807363628E
:10023800636943F4FC032CAD636103238DF86230DA
:1002480041F6FF7325F8503D4FF09040294607F0DE
:1002580033FE4FF6FF7329467A48ADF8603007F051
:100268002BFE2946784807F027FE2946774807F0ED
:1002780023FE2946764807F01FFE2946754807F0F1
:100288001BFE28460AF0A8FB734A189BB3FBF2F33F
:10029800724A00211360381D102219F085FA704A3D
:1002A800704B5360F02388F82330072100239360B4
:1002B800DFF8E0E111604FF0010C6B4928E06B4B6F
:1002C80012221A606368636063686360636843F45A
:1002D80080636360636823F47C136360636843F43A
:1002E800E8136360236843F0807323602268524BED
:1002F8009501FBD55A6822F003025A605A6842F009
:1003080002025A60636803F00C03082BFAD183E7F2
:1003180098023EF8135000F19040002245FA02F886
:1003280018F0010F18BF0CFA02F802F101021EBF03
:100338000860A1F804800C31102AEFD10133062B94
:10034800E6D14B4D4B4B95F8E721DFF84C911A70ED
:100358000020AB68C9F8003012F08CFF464A92F8CA
:1003680000B000234FF0170A0BEB0301434A52F881
:10037800210003F1010840B1022380F806A0C371EF
:1003880080F80880012110F04BFB4346032BEBD18A
:10039800002012F06FFFA369394843F00103A361FD
:1003A8004022002119F000FA364B4FF0FF321A6054
:1003B800C3F80320D9F800301C0711D595F83C3252
:1003C800012B0DD816F0805600F05D8608E093F8F2
:1003D8003F22012A04D1002283F83E2210F01AFE9F
:1003E800642013F0DFFE4FF48C7200212648274E5C
:1003F80019F0DAF90024B046A1590023244850F82E
:10040800330081424FEAC30248D108EB020393F854
:10041800D00047E0C421002029D30008C8210020CB
:10042800853A0020FC9F0020EFBEADDE00D8FF1FFC
:1004380004D8FF1F00ED00E0001002400005FA0597
:10044800B00500200004004800080048000C0048DF
:10045800001000480014004840420F008C3800206B
:1004680010E000E03F190100882E00200020024023
:10047800503000202616002034B7010838B701088C
:10048800742C0020782D0020BC3600200499010827
:10049800D0990108ACB60108C020002001330A2B0E
:1004A800ACD100200C3412F077FDCC2CA4D1C04C78
:1004B80004F1CC06207910F023FA0C3414F8032C3C
:1004C80014F8041C10F070FAB442F3D1B94BDFF8F9
:1004D8001C83B94AD9F800401A604FF005093C223C
:1004E8000021B64888F8009019F05EF900224046CD
:1004F800DFF8FCC2DFF8C4824B4604F0400696469B
:100508004FF0FF091CF9011F02F8081002EB080A56
:1005180056B91E39C9B201299FBF03F1FF338AF8C2
:100528000090DBB24FF0010E0C323C2AEAD1BEF14A
:10053800000F00D00370A24B95F8058083F8008067
:10054800A04BA1497B61A00603F1D8030B6058BFFB
:100558009E4B9F4A56BF03EBC80301235B78936108
:100568009C4A002340F2DC5122F813100133082B77
:10057800FAD100211C2211A819F016F9A1050AD5F3
:100588002022212301213A777B778DF850108DF8AE
:100598005E208DF85F30B8F10E0F04D008F0EF0838
:1005A800B8F1080F02D101238DF8583002200EF05F
:1005B80059FA18B14088003018BF0120C4F340032D
:1005C8008DF84C30C4F3403300368DF84430C4F312
:1005D800C03318BF012600F001008DF8473014F42D
:1005E80000638DF84A008DF84E6004D095F81E32ED
:1005F8005A1E534253418DF84830C4F300438DF8D6
:100608004F30C4F3C0038DF84630BB69003318BFC0
:1006180001238DF85130C4F300538DF85230B5F8EA
:10062800D230ADF85630B5F8E030ADF8543095F822
:10063800E33004F001088DF8458004F0080643B95A
:10064800654B93F8E23013F0FB0F0CBF0123002336
:1006580000E0012395F8E220079312F0FB0F14BF86
:10066800012100218DF84D108DF8592013B15A4BF6
:10067800B3F8DE30ADF85A30B5F8D030ADF85C30AC
:10068800E30442BF544BB3F8DA30ADF85C30042AC7
:1006980006D14FF4805010F0E7FB0023ADF85C3032
:1006A8004E4B95F888221A70002164224C4819F0A4
:1006B8007BF89DF85830002B14BF02220022B8F1B5
:1006C800000F00D106B10132394B394CDFF80081F7
:1006D80003EB8203D3F81C319A1E203308930023BE
:1006E800059203930493059B33F8022F05934FF665
:1006F800FF739A4200F0DF819DF84A10D3B2120AC4
:10070800D7B239B10C2101FB034109792A390129F2
:1007180040F2CC819DF84E1031B10C2159436058FC
:100728003049884200F0C2819DF84F1059B10C2120
:100738005943601865582C498D4200F0B7810179FA
:10074800182900F0B3819DF84C1031B10C2101FB40
:1007580003410979142900F0A9819DF8471031B1A6
:100768000C2101FB03410979222900F09F819DF8A2
:10077800481031B10C2101FB03410979152900F01A
:1007880095819DF8501069B10C2101FB03419DF83A
:100798005E000979884200F089819DF85F008842EF
:1007A80000F08481022A25D19DF8442026E000BF6C
:1007B8000499010810360020F03200201436002079
:1007C800BC0C00205C3000205038002028A4010810
:1007D800B0050020E40D002050300020F01D00205E
:1007E800F80D002000040040002C0140F40D00200A
:1007F800ABA30108012A04D19DF84520002A00F086
:1008080055819DF851206AB19DF8582052B9A3F13D
:100818000E02012A06D80C225A43A158BC4A91421A
:1008280008BF04279DF852200C2505FB034532B16B
:100838009DF858201AB91A1F032A40F21881012F6F
:1008480043D14FF00C0B0BFB03FB04EB0B0954F8E3
:100858000B3003930026AF4B99F8040088F820600A
:10086800FF22C8F82C501E705E609E60DE601E6419
:1008780083F8442083F8452083F8466083F847606E
:1008880083F8486010F03CF802228271C771067242
:1008980099F8081010F0C4F8324699F80510039832
:1008A8000AF08BFF3A463146284613F013FC9A4B60
:1008B8009A4AC8F830309A4BC8F83430C8F83860CB
:1008C800111F284613F05EFBF0E0022F46D19DF879
:1008D800102009921C264FF00C0B0BFB03FB06FBA8
:1008E80002F108EB010704EB0B064FF0010A4FF089
:1008F800000987F82120307987F8229087F82A9014
:1009080087F820A0FD6206910FF0FAFF099A80F897
:1009180006A05244027280F807A0317A10F080F8DD
:100928004A46717954F80B000AF047FF5246494687
:10093800284613F0CFFB7B4B3B637B4B7B63069BCB
:10094800C7F8389003F11001784B19440A1D28465E
:1009580013F018FB049B53440493A7E0032F40F0C3
:1009680084809DF845109DF85920B9B1B2B14FF077
:100978000C0B0BFB03FB039954F80B3099420DD178
:10098800531E032B0AD8DFE803F0020604060821E9
:1009980002E0482100E01821654B19709DF84D30A0
:1009A800644EBDF85A0073B3022A96F801A0BDF848
:1009B8005C3009D0032A604A604F0EBF4FF0480EE2
:1009C80017464FF0080E02E05D4F4FF0180E5FFA21
:1009D8008EF1DFF8789130B15A4A02FB0EF2B2FB81
:1009E800F0F292B202E003464FF6FF72284610F08A
:1009F8003DF849F82A0059F82A30DF60B3781922FF
:100A080006EBC30327E0042A777811D14E4AB2FBDC
:100A1800F0F2182192B2284610F028F84B4B43F810
:100A280027004B4BC360B3780D2206EBC30312E0DB
:100A3800BDF85C30434AB2FBF0F2012192B228467D
:100A480010F014F8414B43F82700424BC360B378C9
:100A5800092206EBC3035A71B378727806EBC30117
:100A68000A7101328D6072701EE0042F1ED1314E62
:100A7800BDF85420B378377806EBC30301211F7102
:100A88002846304B93FBF2F2BDF8563092B20FF085
:100A9800EDFF314B43F82700B37806EBC3020A2178
:100AA80051713278013232700133B370089B059A64
:100AB80093427FF418AE079B284F83F00102284B1E
:100AC8001A70284B1E78A6F117030024022B3C70DD
:100AD8004ED8DFF894C0DFF894E0DCF814302344F3
:100AE800D3ED007AF5EE407AF1EE10FA04D11E4DFE
:100AF800AB69002B5CD154E00FCB04EB0E0585E805
:100B08000F003B7810340133C02C3B70E5D1EEE781
:100B1800004001409C16002079B00008E405002040
:100B2800D5B1000801B8000853B00008D00500206E
:100B380090030020F80D0020C5B3000861B3000839
:100B480099B3000840420F0000366E01703600204D
:100B580015B2000805B20008F41D0020F721002096
:100B6800B8360020BC0C0020B0050020DC0B0020AB
:100B78008A4B13F836E087F800E003EBC603D3F896
:100B880004C0BCF1000FB2D0DFF848827445AEDA79
:100B9800230103EB080563440FCB013485E80F00FC
:100BA800F4E77F4B03931A6812F4805F26D11FE0A5
:100BB8007C4B7D4A13F83600107003EBC6035C6863
:100BC800002CEED0DFF810E200238342E9DAC3EB11
:100BD800C301621801EB0E0CD2F8008041F80E80B8
:100BE8009188ACF8041092798CF806200133ECE770
:100BF80006F0EF03082B6D4B1FD120E03A78012A4D
:100C0800F6D96B4B03EB02121032F6EE007A103372
:100C18009342EDD013ED047A27EE277A03ED047A98
:100C280013ED057A27EE277A03ED057A13ED037A9B
:100C380027EE277A03ED037AE9E70E2E08D11A7812
:100C480042F010021A70182E08D113F099F805E036
:100C58001A7822F010021A70192EF5E7554C13F085
:100C680071F823783F2043F0040323700FF048FE07
:100C7800514A05941060514A0121117038B111226E
:100C880082710222C271002202720FF0C9FE4C4C1E
:100C980000200AF0A3FB207E12F07EF9237E03F0E9
:100CA8001F015B090122022B02FA01F208D0032B73
:100CB8000BD0012B0DD143498B6A1A438A6208E095
:100CC8004049CB681A43CA6003E03E490B691A439E
:100CD8000A61607D0FF014FE0C260B230227C371F6
:100CE80086710772E07D0FF00BFE4FF00D088671DC
:100CF80080F807800772A07D0FF002FE8671C6712A
:100D08000772607D0FF0FCFD627E0E210FF04CFE35
:100D1800E07D0FF0F5FD627E0E210FF045FEA07D0F
:100D28000FF0EEFD627E0E210FF03EFE207D30B109
:100D38000FF0E6FD224B41465A7E0FF035FE226940
:100D4800214B9A420AD103F56043D96841F4805196
:100D5800D960D96821F48051D96019E01B4B9A42B7
:100D680009D103F5EC33196941F480411961196916
:100D780021F480410BE0164B9A4209D103F5EA337E
:100D8800196941F400411961196921F40041196197
:100D9800237F1BB30023184622E000BF28A40108C4
:100DA800C020002058A00108DC37002025150020AD
:100DB800E40B0020853A0020EC160020F0160020F5
:100DC80004050020001002400030014000380040B7
:100DD800003C0040DC0B0020DD370020012302200E
:100DE800918821F480510904090C9180918889B275
:100DF80041F4805191802269118801F4415141F4F4
:100E080045710B4303431380938823F470631B04D9
:100E18001B0C43F4E0639380938B23F400631B045F
:100E28001B0C938307231382226913889BB243F018
:100E380040031380207D18B10FF062FD0FF089FD8B
:100E4800039B1B6803F41073B3F5107F67D026204B
:100E58000FF056FD074627200FF052FDA64C064618
:100E6800752012F099F8236B23F010032363236B8A
:100E780043F0100323634FF001084FF00D090923D5
:100E880087F80690FB7187F80880384604221E21EF
:100E98000FF08AFD0A2386F80690F37186F8088019
:100EA800304604221E210FF07FFD944B944E1A68A1
:100EB80022F001021A601968924A0A401A60924A9E
:100EC8001A611A68002142EA08021A609960D9601A
:100ED80099609A6842F400429A601A681A605A68DF
:100EE80022F0784222F400425A601A6822F4003252
:100EF8001A601A6842EA08021A60039B1427D3F89A
:100F080000A03A46304618F04FFC1AF0020F0AF4D7
:100F180000490AF40068304618D0377016E07B495B
:100F28007B4C0A7800231846FF261F571F2F04BF43
:100F38001E5502F1FF3203F10C0304BFD2B20120A7
:100F48003C2BF2D1002882D00A7080E7B9F1000F5B
:100F580001D022234371B8F1000F01D01523C373C8
:100F68006C4EDFF8CCA14FF00F0900274FF00608B0
:100F780016F8010C58B30FF0C3FC4FF0000B80F8C3
:100F8800068080F8079080F808B016F8010C0FF07A
:100F9800B7FC13210FF044FD16F8011C5B465E48B0
:100FA80010F8130088424FEA430204D10AEB020307
:100FB80093F82D3103E00133272BF0D100230722CA
:100FC8003370F2707B1C01227770B270DFB209F1C6
:100FD80001095FFA89F9B9F1130F06F10506C7D1BE
:100FE800E36A23F4F873E362E36A43F4D873E362D1
:100FF8003C2011F0D1FF212011F0CEFF4748474C8B
:1010080009F071FC18A809F043FC454B1893454BAF
:101018001993022F4FF0000334BF1A4680221D9205
:101028004FF480721E924FF480621F922022204655
:10103800209218A94FF400521A931C9321922293DC
:10104800ADF86C7009F031FC236843F001032360AC
:10105800354CA36823F04053A360A36843F0805342
:10106800A3600A2013F09EF8A36823F08043A360CE
:10107800A368A360A36843F00043A360A3682A4A57
:10108800002B57DAFAE7294B93F83E32013B092B3C
:101098003FF6A6A92B200FF033FC182383710223F7
:1010A800C371044606720121C7F8A8040FF0B8FC02
:1010B800204601210FF052FC3C2013F073F895F8FC
:1010C8003E221A4B9642BFF682A9002012F0D2F8AF
:1010D800002120460FF042FC782013F041F801204F
:1010E80012F0C8F8012120460FF038FC782013F0E0
:1010F80037F80136E3E700BF001002400054004013
:1011080008160020FFE0CF00300E5000F40D00203C
:101118001436002009160020309A010808040240FD
:10112800400100501C1600200001005050300020E3
:101138000499010893689C4923F04053936093688D
:1011480043F0005393608868984B034043F4683336
:101158008B60D168964B97480B4043F40053D3609B
:10116800136B013F23F00F031F43176300F11408AB
:1011780001234FF0380C4FF0070B4FF0060E1F24D9
:10118800C178002966D05E1C042B41780779F6B235
:101198000ED803EB4303D2F830905B0004FA03FA4D
:1011A80029EA0A0901FA03F343EA090313632FE062
:1011B800092B0ED8053BD2F834900EFB03F304FA42
:1011C80003FA29EA0A0901FA03F343EA0903536314
:1011D8001EE00E2B0ED80A3BD2F838900EFB03F314
:1011E80004FA03FA29EA0A0901FA03F343EA0903AC
:1011F80093630DE00F3BD2F83C900EFB03F304FA27
:1012080003FA29EA0A0901FA03F343EA0903D36353
:1012180009290FD90A399369936901EB41010BFA3E
:1012280001F923EA09039361936907FA01F1194364
:1012380091610EE001395369536901EB41010CFAE0
:1012480001F923EA09035361536903318F401F43AE
:10125800576133460530804592D1574B9A6842F022
:1012680001029A601A461168534BCF07FBD5DA681A
:10127800524C22F00202DA60DA6842F00202DA60C6
:10128800DA6842F00102DA609A6842F004029A6071
:10129800D4F8C831002B41F04580D4F8CC21002A7D
:1012A80041F04080D4F8D021002A41F03B80039BD4
:1012B8001B689E031BD5C82012F074FFAE2014F0E3
:1012C800A3FA08B113F0CAFA3D4E85F80001C82008
:1012D80012F068FF002333607360B3600223F37079
:1012E80008F082FD12F020FF364B0344B360B4F9D6
:1012F800EC310493344BDFF8E4B0344806934FF0F4
:10130800000AC3F800A0C3F804A0C3F808A0182274
:10131800514694F8D58194F8EA61B4F8D87194F8F4
:10132800DA9118F041FA51461822A5F801A10BF5F7
:10133800827018F039FA264AC5F81C21232012F0C9
:1013480031FF0CAA0121752006F0A6FA00284CD01E
:10135800204BCBF80831204BCBF80C3118AA43238B
:10136800012150468BF8043106F096FA9DF860305A
:1013780003F07E038DF8603040B1682B06D101235D
:101388008BF801311D238BF804312EE09DF83030A5
:1013980003F07E03682B8DF8303021D1022385F8C5
:1013A800013106F038FD20E000030050E010FCFF9A
:1013B80007C0FFFD08160020000100505030002033
:1013C800700F0020404B4C00A8200020B8150020CA
:1013D8007E9A0108A1780008B7780008B0050020B7
:1013E800702B04BF042385F8013195F80121904939
:1013F800904D0023022A0B7040F054818E4B8F4889
:1014080018608F4858608F48D8608F4818618F4897
:1014180002708F4A04230B70116841F001031360B6
:1014280093464FF0010A43460B2B28BF00230AFAC4
:1014380003FC40F2B27E0CEA0E0EBEF1000F1ED184
:101448001CF04D0F1BD0834BDFF84CE2C3F800E0D3
:10145800DFF848E2C3F804E095F80231069A002B59
:1014680014BF6E236F2393727B4B4FF0040E83F8E7
:1014780000E0032319434370CBF8001006E0012B6A
:101488004FF00008CFD8744B83F80080042E3AD868
:10149800DFE806F003420303030095F82081654E58
:1014A800B8F1000F40F03887142012F07BFE06F2E6
:1014B80021130122D021762011F0F8FD96F8213170
:1014C800582B29D106F5927318228821762011F01D
:1014D800EDFD3122F421762011F07CFD012386F800
:1014E80020315E4B5E4A9A605E4A5A6045F6D812D1
:1014F8005A805D4ADA605D4A1A615D4AA3F8008045
:101508005A6100F009BF012E06D0504B504A9E7018
:10151800136843F0040313604D4B1A6812F0020F6E
:10152800984605D04B484FF4807303810368984769
:1015380017F0FF0007D0072816BF4FF47A737D23F2
:101548004FF0010900E07D233B4E09F1FF3203FB18
:1015580009F385F84021736133689847454B1A7839
:10156800994632B994F8C531002B38D0304A1370F7
:1015780035E07369002BF5D0DFF824B10027B246B7
:10158800BBF800303C48716900EE103A3B4B012231
:10159800D3ED000AB8EE400A384414F03EFD384A4C
:1015A8001278012A0CD199F800303648DAF814106C
:1015B80000EE103A3844B8EE400A14F095FD0AE0FF
:1015C800DAED057A9FED307A304AF8EE677A67EE01
:1015D800877AC2ED007A1C37542FD1D1C2E794F82C
:1015E800C6310BB11C4A1370D8F80030284913F0E3
:1015F800080F1AD00498049BDFED266A642293FB37
:10160800F2F302FB130212B207EE902AB8EEE77A61
:1016180007EE903AF8EEE77AE7EE267AB2EE047A29
:1016280067EE877AC1ED007A3FE000230B603CE06B
:10163800AC0A0020B0050020B81500201579000874
:1016480011750008F974000890C1793DC50400209F
:10165800A4200020A8200020042E002014390020F7
:10166800E97400081D7E0008AD7800085778000866
:10167800337300086C210020800B002074210020A7
:1016880070210020040B0020BD378635580B002040
:10169800F42D00208988883C857900085975000850
:1016A8006E210020012012F087FD059B059A1B780A
:1016B800002043F00203137011F0DCFD0A2611F03C
:1016C800CCFD192012F06EFDD4F8A035D80302D451
:1016D800012009F083FE192012F064FD002009F0B2
:1016E8007DFE013EEBD1304611F0C4FDC84B9FEDA5
:1016F800C98A1B689FEDC80A1B7BDFF86883C74F40
:1017080007EE103AB8EEC77AA7EE080A14F002FC02
:10171800C34BD8ED047A83ED000A67EE887AC14B93
:101728009FEDC17AC3ED007A069B1B8907EE903ABC
:10173800F8EEE77ABD4BC7EE276A9FEDBD7AC6EE95
:10174800877AC3ED007A12F05DFBFF211E2238462E
:1017580018F02AF8B74B3E7001221A70039A1268E3
:1017680012F4800F01BF022119701B2179703846CD
:10177800B14FD7F800E01EF0020F0ED019784FF0E5
:10178800010C00F801C001F1020C0131C9B283F863
:1017980000C04FF0020C00F801C01EF0040F08D082
:1017A800197801F1010C83F800C04FF0030C00F820
:1017B80001C01EF00A0F16D019784FF0040E00F879
:1017C80001E001F1010E5FFA8EFE4FF0050C00F802
:1017D8000EC001F1030E0231C9B283F800E04FF0E8
:1017E800060E00F801E0910508D5197801F1010EFF
:1017F80083F800E04FF0150E00F801E0D10508D598
:10180800197801F1010E83F800E04FF01A0E00F884
:1018180001E094F805E0BEF1080F02D0BEF10E0F0A
:1018280008D1197801F1010C83F800C04FF00B0CB6
:1018380000F801C0197801F1010C5FFA8CFC4FF037
:101848000C0912F4803F83F800C000F8019009D019
:10185800DFF8E091023189F8001070494FF00E0965
:1018680001F80C90110308D5197801F1010C83F8DF
:1018780000C04FF0190C00F801C0197801F1010CF3
:101888005FFA8CFC4FF01D0912F4805F83F800C0EA
:1018980000F8019009D0DFF89C91023189F8001016
:1018A8005E494FF01C0901F80C90910608D519788B
:1018B80001F1010C83F800C04FF0070C00F801C0DB
:1018C800510708D5197801F1010C83F800C04FF0D1
:1018D800100C00F801C0510308D5197801F1010C6A
:1018E80083F800C04FF0120C00F801C0520507D56C
:1018F80094F8CC2222B11A78511C19701321815402
:10190800BEF1180F0ED11A7816218154511CC9B294
:101918004FF0170C00F801C0D11C0232D2B2197076
:1019280000F802E0982200214448DFF83CA1DFF8E3
:101938003C9117F039FF0EF087FD414B414A1A6080
:10194800414BB4F8DC1019804049414800230B8012
:101958008B7040490A60404A1370B4F844220FFA69
:1019680082FCD9F800102AF813C001F5967140F8E6
:1019780023100133122BDFF8F0E0F2D1374B38494E
:10198800186810F4805F08BFB4F950C2AEF806C0FA
:10199800994601F1500C91F8F134FBB991F8F3A490
:1019A80091F8F4349A4519D2BAF1000F08D00AF127
:1019B800FF3A0AEB8A0A0AEB8A0A0AF5617306E01B
:1019C800013303EB830303EB830303F5617391F89E
:1019D800F2A40AF1040A9BB22EF81A3004316145C8
:1019E800D9D1000740F18A8194F83C32082B00F2E3
:1019F8007F81DFE813F009003D004400760097007E
:101A0800B800B800FC00550145F2F05232E000BFC2
:101A1800A021002035FA8E3CDB0FC93F02210020AF
:101A2800F82D0020E42D00200AE81C41583A002037
:101A380000401C4601210020A4200020602B00202B
:101A4800580F002084320020560F0020CC200020A0
:101A5800DC0E0020BC200020240F0020C020002025
:101A680050300020B8150020F82B00209C200020C2
:101A780042F6F822724B1A800EF0CDFD37E1704B1A
:101A880042F6F82119806F490A23120192FBF3F2FA
:101A98000023A2F5B06241F823200133122BFAD1BA
:101AA800694A6A4911606A4A402013700DF018F8B3
:101AB8000446002800F01C8108F03AF8654B94F9B8
:101AC80000E093F83D32002B0CBF062207220028C5
:101AD8000CBF012303230192009304465E4B5F4A27
:101AE800A4E0574B42F6F8221A80574B5C4A1A601A
:101AF800574B102240201A700CF0F2FF04460028C1
:101B080000F0F68008F014F8002200280CBF01232A
:101B1800032394F900E00192009304464FF4E13363
:101B2800504A83E0464B42F6F8221A80464B4E4A0A
:101B38001A60474B082240201A700CF0D1FF044667
:101B4800002800F0D58007F0F3FF002200280CBF22
:101B58000123032394F900E00192009304464FF413
:101B6800E133424A62E0364ADFF82CE1404C414812
:101B780042F6F821118036490C22062B0A700FD044
:101B880000238EF80030237003703B4B1B21197023
:101B98003A4B1A703A4B05221A704FF4E13A0DE0AD
:101BA800002101708EF8001021703349DFF8ECA095
:101BB8002120087031490A70314A1370224B314A8A
:101BC8001A6040200CF08CFF0446002800F090803A
:101BD80007F0AEFF002200280CBF0123032394F96D
:101BE80000E00192009304465346274A1EE0144B36
:101BF80044F620621A80144B244A1A60144B0A22B5
:101C080040201A700CF06CFF0446002870D007F0D2
:101C18008FFF002294F900E0019200280CBF0123F5
:101C280003231B4A009304464FF4E13340217046D6
:101C38000CF0C2FE002C57D0164B186054E000BFC1
:101C4800640A0020D81E0020FC04002015C60008E5
:101C5800482C002050300020A0860100BDC8000894
:101C6800D5C50008C1C70008BDC5000879C7000868
:101C7800A91F0020A81F0020AA1F0020651E002001
:101C8800AB1F0020FDC40008A5C6000895C60008C3
:101C9800FDC90008502C0020661E002090D00300CB
:101CA800874B41F27C521A80864B874A1A60874BD1
:101CB80010221A70864B00241C70864B2822402064
:101CC8001A700CF00DFF98B1032390F90000824AB6
:101CD800019400934021814B814C0CF06DFE012151
:101CE800206009F03DFD2068003018BF012028B9A8
:101CF80008200FF0B9F8734B7A4A1A60D9F8003007
:101D0800724A13F4804F04D0122111706D4976483D
:101D1800086042F20101194003F0010003F4005485
:101D280081B1674944F6206EA1F800E024B108218A
:101D3800117064496D4C0C6020B10C21117061491F
:101D48006B480860117804395170990556D5694A6D
:101D5800936943F001039361287F0EF0D1FD664A31
:101D68004FF0000A10604FF00A0B0222C2710121E5
:101D780080F806B080F808A00EF052FE687F0EF0DA
:101D8800BFFD0123C37180F806B080F808A0514652
:101D98000446C5F844010EF043FE584B5849C5F8AF
:101DA80048318022102320460EF081FF204611F092
:101DB80069FA544B544A1B689FED540A3C3B136024
:101DC8003B6843F010033B604FF4C873A5F84C31EF
:101DD8004F4BC8221A8014F09DF84E4BDFED4E7A17
:101DE80083ED000A20EE270A4C4AFDEEC07A17EE72
:101DF800903A13804A4B4FF0FF321A60494BC5F8AE
:101E08005031D9F80030DFF838A1474D002413F4D9
:101E1800803F8AF8004000F0018112F0BBFC0127E6
:101E280040F22A32214605F5AA708AF8007017F0A8
:101E3800BBFC30493D4B48699A6A02434A613C4AB7
:101E48001A62DC6218A893F825308DF860308DF896
:101E580061708DF863708DF8624011F0A1F9182057
:101E68000EF04EFD16238371324FDFF8D0E0C5F82F
:101E780080040223C371047205F5AA7A57F8342046
:101E88002D4972454FEAC40301F1CC0B03D10B4431
:101E980093F8D12003E001340A2CEFD100222E213F
:101EA8000EF082FD254800235BF83310234F814252
:101EB8004FEAC30246D1204B134493F8D00045E0C3
:101EC800640A0020FC0400207DC60008482C00207D
:101ED800342000203520002015C9000848E80100FA
:101EE8002815002049C600086DC600085DC6000810
:101EF8004DC6000800100240803A002059760008BC
:101F0800F80600209C2000207C3A0020D253FB3F9A
:101F1800383A0020303A00200000C843403A0020F8
:101F2800343A002030330020B0050020940300200C
:101F38000F760008D099010804990108002C014087
:101F48000C3B002001330A2BAED1002011F024F8FD
:101F58003B88B048DFF800B323F45C731B041B0C08
:101F68003B801D23FB6202233B85002401233C8622
:101F78000CA97B616022ADF8343003930C92ADF864
:101F880036400E94ADF83C40ADF83E40ADF84040C8
:101F9800ADF8424008F02AFCBA6942F00802BA617A
:101FA8007A6C42F400427A64584608F09CFC18A8FF
:101FB80008F06EFC984A189210221A9240F22A32BF
:101FC800ADF86C2080221D924FF480721E9218A9E1
:101FD8004FF4005258462192CDF864A01C941F94E7
:101FE8002094229408F061FCFA68039B8B4942F420
:101FF8000072FA60DBF8002042F00202CBF8002001
:1020080085F88434FF22731874520436802E9A702F
:10201800DA70F8D105F0DCFD05F0DAFDD9F800300A
:102028005A0553D57E4E7F4B32681A6004200CF057
:1020380057FD0421C5F888040CF028FD7A4B326856
:1020480085F88C0408201A600CF04AFD774B784C10
:10205800186008210CF01AFD002185F88D042C2247
:10206800204617F0A1FB7C2323708E236370E023A6
:10207800E3707D2384F82B306E4B32681A60202081
:102088000CF02EFD2021C5F890040CF0FFFC85F81B
:10209800940410200CF024FD1021C5F898040CF0CD
:1020A800F5FC654B85F89C043B221A7001225A7096
:1020B8003A221A719F229A711E221A72A4225A7207
:1020C80000229A72DA721A7307F03FFD5B4C278878
:1020D800002F7AD12C200EF013FC0F2383710E23CE
:1020E8000D210646C3710772C5F8A0040EF098FCCE
:1020F80030460EF02EFC524A138823F040031B048E
:102108001B0C1380138823F038031B041B0C13804B
:1021180013889BB243F04003138032209F238DF82D
:1021280030308DF831708DF832708DF8337012F0D0
:1021380039F830468DF861700EF006FC04220CA9BF
:1021480018A811F0B1F830460EF003FC9DF8623083
:102158009DF861201B0243EA02429DF86330134355
:10216800384A934217D00CDC374A934215D00132D3
:10217800934217D0A2F51A42033A934220D1202362
:102188000CE0324A934208D0013293420AD0304AD6
:10219800934215D101E0402300E0802323804FF4CF
:1021A800807302E04FF4807323806380A3882288C1
:1021B8001B02A3605343E360012385F8A43404E0C1
:1021C800002323806380A360E360E468002C45D08B
:1021D800E40A264600270DF1600AA74208DA3D19ED
:1021E8006D1010225146E80211F030FC0F2805DC72
:1021F80011F0EEFB174BF6021E602FE000235AF891
:102208002320013240F08B800133042BF7D12E4676
:102218002C46E2E7002C0140342C01400E3B002004
:1022280078210020A0140020E0140020FC140020D5
:10223800B0140020141500201C2C0020B404002029
:10224800003800401620C20017BA20001740EF00DF
:102258001720C200181E00201C0002406B4CD8F842
:102268001420B4F8D831013B9BB2052B9EBF012343
:1022780084F8E63184F8DA3194F8E6315343644A55
:102288001360D9F80030634A13F4002318BF012300
:1022980013706379052B02BF5F4B4FF4C8721A8025
:1022A80008F04FFD5D4BC8221A805D4A137843F051
:1022B800080313705B4A137823F002031370D9F8EC
:1022C800002040F6020313406BB1574B5749196081
:1022D800574B03211970574B012119705649002398
:1022E8000B8056490B80930306D5554B05221A716E
:1022F800DA7842F00102DA70A368C9F80030514B6D
:1023080001221A70504A137863F07F0313702DB0BE
:10231800BDEC088BBDE8F08F0426FFF7F6B86F1CFC
:10232800254675E71BB208EE103AB4F9CC31DFED5B
:10233800477A9FED47BA474A09EE103AB4F9D031C7
:10234800B8EEC88A08EE903A28EE278AB8EEC99AFD
:10235800F8EEE88A002138EE0B0A29EE279A68EE93
:10236800A78A117013F0D6FDF0EE40AAB0EE480A25
:1023780013F0D0FDF0EE409A39EE0B0A13F0CAFDC7
:10238800B0EE408AB0EE490A13F0C4FDB0EE40AAA0
:1023980038EE8B0A13F0BEFDB0EE409AB0EE680A34
:1023A80013F0B8FD60EE2A6A69EE897AF0EE665A93
:1023B800EAEE275A284B29EE2A6A29EE807AC3EDDD
:1023C800035AB0EE465AF1EE4A5AA5EE875AEAEE9B
:1023D800267AA5EE867A29EE089A28EE400A69EE52
:1023E800C89A28EE2A8A83ED009A83ED010A83EDC4
:1023F80002AA83ED045AC3ED059A83ED067AC3ED6C
:10240800077A83ED088AFEF752BF00BF50300020DC
:10241800F8210020BE2300206C0F00201C3A002069
:10242800251500200021002000160020623200201F
:10243800A0200020C4040020BC2D0020BE2D0020B8
:10244800700F0020C40D0020853A002035FA8E3C1C
:10245800DB0FC93FB4000020DC1500202DE9F04F48
:10246800BA4B1B689A6ABA4B2DED028B1A80B94B8E
:102478001978A3B00129059304D1B74B1A80B74A3C
:1024880012885A80B64E3378002B01F0168111F06D
:102498004BFEB44B9B6883460BB1B01C9847B24BBC
:1024A800B3F90650B14B1B685A8995420CDB197A6F
:1024B800B5F5FA6FBFBFAB1A4B43C2F5FA6193FB90
:1024C800F1F1C1F1640100E06421A94BA94FB3F80F
:1024D800440293F8228293F8239293F9D4315B4211
:1024E8009BB206930022A44BD1549F4B33F912E0C0
:1024F800C0EB0E0303F2F31440F2E63A54454FEAF8
:10250800420C9C4C10D883EAE37A022AAAEBE37ABD
:102518000ED0C24502DDC8EB0A0300E00023864561
:1025280027F80C3011DB15E0022A4FF4FA7AF2D1C1
:10253800D145B8BFC9EB0A03BDF818A0A8BF00234E
:1025480013FB0AF38645BB8007DA37F80C305B4289
:1025580027F80C300132032AC5D1884B844F1B68F9
:1025680013F4805E0ED0B5F57A7F06DBB5F5FA6F09
:102578002A46A8BF4FF4FA6201E04FF47A72A2F536
:102588007A7213E0B7F846128D4206DBB5F5FA6F9A
:102598002A46A8BF4FF4FA6200E00A46521A4FF4DE
:1025A8007A735A43C1F5FA61B2FBF1F26423DFF89A
:1025B800108292FBF3F101F1010938F911C038F9E1
:1025C80019806FF06309CCEB080809FB012101FBB6
:1025D80008F292FBF3F202EB0C039BB2E380BEF12C
:1025E800000F16D0664A1268D10012D5654AD27813
:1025F8007AB9A3F57A731BB24FF47A721B0393FB73
:10260800F2F3C0F5FA6212B2534300EB2330594B90
:10261800D8805D4BB3F800A01AF0400F98463AD026
:102628005A4BDFED5B7AB3F904309FED5A0A0A2260
:1026380093FBF2F3B2889B1A1BB208EE103AB8EE7D
:10264800C88A28EE278A38EE000A13F063FCF0EEF9
:10265800408AB0EE480A13F05DFCB4F9023007EE88
:10266800103AB4F90030B8EEC77A06EE903A67EE41
:10267800407AF8EEE66AE6EEA87A20EE260AFDEE43
:10268800E77AA7EE280A17EE903AFDEEC07A238083
:1026980017EE903A6380404BDFF8C4901B6813F044
:1026A800140F00F0A8801AF4027F00F0A4803B4BBE
:1026B8001B7803F0100303F0FF004BB1384B97F978
:1026C8009422B3F90010638801FB0233638092E01F
:1026D800344B354A1B68D9789B7819B3B2F9002076
:1026E800C2EB050E8EEAEE71A1EBEE7199420CDD9C
:1026F8002E49954208604FF00101B171C8BF5B4295
:10270800E1889BB20B44E38075E099F806302BB161
:10271800274B89F806001968264B1960204B1B685F
:1027280013445DE0B2F900002A1A82EAE27EAEEBB9
:10273800E27E9E4546DD022392FBF3F21E4B1A60B1
:102748001E4A0123137089F8063046E0541600200B
:10275800B62000202616002028160020241E00205F
:102768005C0A0020B8150020F82B0020802D0020DE
:1027780050300020D8210020F4210020C020002063
:10278800FC200020CC200020F8200020E0210020A0
:1027980035FA8E3CDB0FC93FA42000202515002008
:1027A800743A0020B8210020820F0020703A0020DF
:1027B8005C3A0020643A0020683A0020783A002009
:1027C800A623002099F806303BB1724B89F8061011
:1027D8001A68714B1A60714B1970714B1B6803446E
:1027E800704A11680A884988934203DB99420A466D
:1027F800A8BF1A46E2806C4B1B78ABB1B7F84632DB
:10280800AB4211DB694B5B79012B01D0192B02D14B
:1028180097F88F2242B90E2B06D0082B04D000233C
:10282800A380634B00229A6097F8105295B31AF070
:10283800030F2FD05F4BDFED607A93ED080AB4EEFB
:10284800E70AF1EE10FA21D914F004FF5B4BD3ED3F
:10285800007A20EE270A14F06BFEB0F5617FA8BF5E
:102868004FF4617007EE900AB8EEE77ADFED547A1C
:1028780087EE270A13F04EFB07EE905AF8EEE77A38
:1028880027EE800A14F054FE00B200E00020E3882E
:102898001844E08097F84A324A4A23B9B8F8001039
:1028A800002900F09D801278002A50D0022B09D010
:1028B800032B19D197F84B32C3EB431203EB820376
:1028C800DB000FE0404BD3F8F820B2F57A7F05DB48
:1028D80044F620639342A8BF134601E04FF47A738D
:1028E80003F57A739BB201E0B9F80830374A1068EB
:1028F800059AB3FBF0F01278451C2DB2092A7581B0
:1029080005D1334A2188118061885180D380B9F973
:102918000C90DFF8C8A000232E4F3AF913C007F136
:10292800160E07F10E083EF8132038F913102EF88A
:1029380013C0C2EB0C0201FB09F191FBF5F10A444B
:1029480028F813200133042BE6D1B88104E0B9F844
:102958000C30013BA9F80C301E4AB2F90C50002D7E
:102968004FF0000313DDDFF874E0B2F90A700E329D
:10297800194832F9131030F81300694391FBF7F145
:10298800411A2EF813100133042BF1D12DE0938155
:102998002BE000BF5C3A0020643A0020783A00201F
:1029A800743A0020BC210020CC04002050300020C4
:1029B800CC210020643800208FC2753CAC21002057
:1029C800EFB6B044800F0020B8000020F8210020A6
:1029D800281600205C0A0020720A0020D821002056
:1029E8001378B181002B00F0CC80B84BB84D93F828
:1029F8004C3223B1B74A1268920001F18984B64B70
:102A08002F881A68B54BB6481C68059B94F800C017
:102A1800B449DFF81C839FEDB46A9FEDB44ADFED3B
:102A2800B43A9FEDB43ADFEDB42ADFEDB44A93F837
:102A380000E0F7EE005A161D0023B0EE652A022BBF
:102A480014BF92F8009092F8019038F9135007EEED
:102A5800909AF8EEE77A06EE905A87EE867A14BFD7
:102A68009578557A4FEA430AF0EE007AB4EEE77AA1
:102A7800F1EE10FAC8BF77EE677AF8EEE66AC8BFDB
:102A8800A7EE847AC6EEA37AF5EEC07AF1EE10FAD4
:102A9800D4BFF1EE676AF0EE676A8DB105EE105AA1
:102AA800B8EEC55AC5EE061A26EEA65A66EE856A2F
:102AB80035EEE15A66EEA76A65EE277AE1EEA67A68
:102AC80016F8019F257827EE037A27EE277AB9F1C1
:102AD800000F01F0A58406EE909AF8EEE66AF5EE8E
:102AE800C07A86EE865AF1EE10FAD8BFF1EE677A10
:102AF800F0EE656AE5EE676AF4EEE26AF1EE10FA66
:102B080001F15E84F4EE656AF1EE10FAC8BFF0EEEA
:102B1800656AC2EE267A012D67EE277A01F05484A1
:102B2800BEF10C0F01BFBDEEE77ADFF8089217EE91
:102B3800105A2AF80950BCF1000F41F07D849FED2E
:102B4800707A67EE877A9FED6F7AF4EEC77AF1EEC6
:102B580010FA01F16D849FED6C7AF4EE477AF1EE8C
:102B680010FAC8BFF0EE477A0133032BC0ED007AA4
:102B780001F1040100F104007FF461AF634B00220E
:102B88001A70634B1878002840F08A85614E3368C4
:102B98001C0340F18585604C2378033B052B1CD82A
:102BA8004A4B5E4D93F89D3533B1012B08D110F097
:102BB80027FEC0F17F0003E0686A03689B689847B6
:102BC800AB6A95F82C201344B3F5807FA8BF4FF467
:102BD80080738342D4BFAB62A8622378023B092B7F
:102BE80000F2DD84DFE813F00A0014004500DB047E
:102BF800DB045E00A8008C04AE04BE04474B002230
:102C08009A621A63464A12685A63032300F0C6BCE4
:102C1800434B424D1A686B6B6433934280F0BF8418
:102C2800402012F002FE002840F0B984DFF8F4904A
:102C38004FF040082F462B6B19F8030058B112F0DB
:102C4800CDFEBB6A013BBB623B6BB8F1010803F1E7
:102C580001033B63EFD12A6B3249304B8A5C002A6F
:102C680040F09D841A634FF0FF325A63042300F04A
:102C780095BC2D4A0292A2F10C03019327230093DD
:102C88005021A2F10A034920163A0DF041FA002812
:102C980040F08584214B4FF0FF3218635A630723B5
:102CA80000F07CBC05230093204B00210291019188
:102CB800A3F1080253200DF02BFA002840F06F848E
:102CC800164B1863082300F069BC00BF5030002081
:102CD800F8200020FC200020802D00201C1E002051
:102CE800CC210020DC2200200000C842D7A3684184
:102CF8000000FA43000048430AD7233C00C0F9C447
:102D08003333834000F0FFC500F0FF45800F0020FB
:102D1800F8380020C0200020BE2300205C0A0020D4
:102D28009C200020FC9A0108729B0108389D01082C
:102D3800D821002028160020402012F076FD002817
:102D480040F02D84A34D2B6B492B01F28983DFE8DA
:102D580013F04A004D00520056005900600065000B
:102D68006A006E0072007E0087008A0097009B0050
:102D7800A000A500B600C700D800E900FA000B01C2
:102D88001C012D0189019301A101AF01BD01CB01F6
:102D9800D901E701F50103020D021D0227023D02D8
:102DA800530269027F02890293029D02A702B102BF
:102DB800BB02C502CF02D902E302ED02F702FC0210
:102DC800010306030B03630374038503920397034C
:102DD8009C03A103A603AB03B003B503BA03BF0367
:102DE800C403C903CE037C497C4883E37C4B7D4AFA
:102DF8007D497E48C7E17E4A7E497F483DE07F495C
:102E08007F4877E37F4B804893F89C2593F89B1580
:102E180033E07C4B7D48B3F8CC106BE3794B7C48AE
:102E2800B3F8CE1066E37B4B7B48196962E37B4BB2
:102E38007B4819895EE3AB6BD90404D5714B79489B
:102E480093F8121256E3634B0B221A6354E36D494D
:102E5800754891F8153291F8172291F8161292E1F7
:102E6800A98F724846E333681A0540F14583654BDC
:102E78006F48B3F91A22B3F81C1212F089FE3BE32B
:102E8800644B6C48596935E35E4B6B4893F8DA112B
:102E980030E35C4B694893F8E6112BE3594890F806
:102EA800F034602202FB03F1431893F80A240C2340
:102EB80003FB02130344624893F80C141AE35148C5
:102EC80090F8F034602202FB03F1431893F80A24C7
:102ED8000C2303FB021303445A4893F80E1409E326
:102EE800484890F8F034602202FB03F1431893F845
:102EF8000A240C2303FB02130344534893F80D14CC
:102F0800F8E2404890F8F034602202FB03F14318DD
:102F180093F80A240C2303FB021303444B4893F849
:102F28001514E7E2374890F8F034602202FB03F109
:102F3800431893F80A240C2303FB02130344444860
:102F480093F80F14D6E22F4890F8F034602202FB71
:102F580003F1431893F80A240C2303FB02130344D8
:102F68003C4893F81014C5E2264890F8F0346022E3
:102F780002FB03F1431893F80A240C2303FB021302
:102F88000344354893F81414B4E21E4890F8F0341A
:102F9800602202FB03F1431893F80A240C2303FB75
:102FA800021303442D48B3F81614A3E2154890F809
:102FB800F01460234B43C2180C2192F80A2401FB39
:102FC8000233C118264891F8133491F8122491F865
:102FD8001114D8E05C0A002024C0010830C00108A0
:102FE80041C0010846C001084EC0010854C001088C
:102FF8007CC0010885C0010891C00108FA3500208D
:10300800A5C0010850300020B3C00108C4C00108A1
:10301800D3C00108B8150020E2C00108A82000208C
:10302800F2C00108FCC0010809C1010822C1010859
:103038002DC1010840C101084CC101085FC1010848
:1030480074C101087EC1010888C1010895C1010841
:10305800A2C10108ACC10108B7C10108C4C1010877
:10306800D6C10108C94BCA4893F8F024602101FB76
:10307800023393F8D0133DE2C44AC64892F8F034BC
:10308800602101FB032191F8E53391F8DB2391F8E6
:10309800D11378E0BD4AC04892F8F034602101FBB2
:1030A800032191F8E63391F8DC2391F8D2136AE012
:1030B800B64ABA4892F8F034602101FB032191F82E
:1030C800E73391F8DD2391F8D3135CE0AF4AB448B5
:1030D80092F8F034602101FB032191F8E83391F86C
:1030E800DE2391F8D4134EE0A84AAE4892F8F034A3
:1030F800602101FB032191F8E93391F8DF2391F86E
:10310800D51340E0A14AA84892F8F034602101FBA9
:10311800032191F8EA3391F8E02391F8D61332E0CD
:103128009A4AA24892F8F034602101FB032191F8F1
:10313800EB3391F8E12391F8D71324E0934A9C48A4
:1031480092F8F034602101FB032191F8EC3391F8F7
:10315800E22391F8D81316E08C4B964893F8F024A4
:10316800602101FB023393F8D913C3E1874A9248DF
:1031780092F8F034602101FB032191F8EE3391F8C5
:10318800E42391F8DA1312F003FDB5E17F4B8B4885
:1031980093F8F024602101FB023393F8EF13A9E1BF
:1031A8007A4B9FED877A93F8F0248648602101FBDB
:1031B8000233B3F8F03307EE903AF8EEE77A67EEA9
:1031C800877AFDEEE77A17EE901A93E16F4B9FED41
:1031D8007C7A93F8F0247C48602101FB0233B3F831
:1031E800F23307EE903AF8EEE77A67EE877AFDEE6B
:1031F800E77A17EE901A7DE1644B9FED717A93F8A8
:10320800F0247248602101FB0233B3F8F43307EE6F
:10321800903AF8EEE77A67EE877AFDEEE77A17EEEE
:10322800901A67E1594B9FED667A93F8F024684845
:10323800602101FB0233B3F8F63307EE903AF8EE5B
:10324800E77A67EE877AFDEEE77A17EE901A51E192
:103258004E4B604893F8F024602101FB023393F849
:10326800F81347E1494B5C4893F8F024602101FBCF
:103278000233B3F8FA133DE1444B584893F8F0246D
:10328800602101FB0233B3F8FC1333E13F4B544890
:1032980093F8F024602101FB0233B3F8FE1329E10F
:1032A8003A4B504893F8F024602101FB023393F81D
:1032B80000141FE1354B4C4893F8F024602101FBC2
:1032C800023393F8011415E1304B484893F8F02481
:1032D800602101FB023393F802140BE12B4B4448A5
:1032E80093F8F024602101FB023393F8031401E101
:1032F800264B404893F8F024602101FB023393F8F1
:103308000414F7E0214B3C4893F8F024602101FBBA
:10331800023393F80514EDE01C4B384893F8F02479
:10332800602101FB0233B3F80614E3E0174B34487D
:1033380093F8F024602101FB0233B3F80814D9E0B4
:10334800124B304893F82212D4E0104B2E4893F8D1
:103358002312CFE00D4B2D48B3F8D811CAE00B4B20
:103368002B4893F8DB11C5E0084B9FED157A93F8CD
:10337800DC31284807EE903AF8EEE77A67EE877A6C
:10338800FDEEE77A17EE901AB4E000BF5030002047
:10339800E5C10108F6C1010807C2010819C2010800
:1033A80029C2010839C2010849C201085AC20108E4
:1033B8006BC201087DC201086DC2010887C20108FD
:1033C8000000C8429CC20108ACC20108BAC2010888
:1033D800CCC20108E2C20108F1C201080DC301080C
:1033E80023C3010832C3010849C3010862C30108A5
:1033F80076C301088BC301089FC30108B6C301083F
:10340800CBC30108E1C30108DDC30108EDC301080E
:10341800F9C301080BC40108854B9FED867AB3F800
:10342800DE31854807EE903AF8EEE77A67EE877A5C
:10343800FDEEE77A17EE901A5CE07D4B9FED7D7A02
:10344800B3F8E0317D4807EE903AF8EEE77A67EE98
:10345800877AFDEEE77A17EE901A4BE0744B9FEDF2
:10346800757AD3ED7D7A764867EE877AFDEEE77A4E
:1034780017EE901A3EE06E4B724893F8D51139E07A
:103488006B4B714893F8EA1134E0694B6F4893F835
:10349800E9112FE0664B6E4893F889122AE0644BD5
:1034A8006C4893F84A1225E0614B6B4893F84B122D
:1034B80020E05F4B6948B3F84E121BE05C4B68484C
:1034C80093F83C1216E05A4B664893F8E31011E063
:1034D800574B654893F8E2100CE0554B6348B3F836
:1034E800DE1007E0524B624893F8E71102E0504BB8
:1034F8006048996812F04CFB2B6B01332B634EE04C
:103508005D4B1B689B011AD55C4DB5F84030B3B9CB
:103518005B4BD5F844801F68452012F05FFA0E20F7
:1035280012F05CFA404612F013FB384612F010FB1A
:103538004FF48053EB870A2323700CF035FB0CF013
:10354800C5FD2CE04D4B93F84820002AF5D04A4A97
:1035580012689701F1D493F84930002BEDD1092373
:103568002370ECE7474B454D1A686B6BC8339342A1
:1035780004D22F4B93F89D757FB904E012F09AF9A5
:103588000028F6D10BE0686A0BF001FA95F84A308A
:103598006F62022B01D10CF057FF0123237012F048
:1035A80073F950B101232370344B93F84920002A52
:1035B80076D0002283F8492072E01D4B93F89E25AF
:1035C8001946002A6CD03368DD044FF000064CBF62
:1035D800B1F8DA20B1F8D0202B4D334635F9130075
:1035E8000133904218BF46F001060C2BF6D1254B4B
:1035F800224D1B6826B103F59C530833EB6402E0A7
:10360800EA6C9A4242D92378012B49D195F849307E
:10361800002B45D191F89D352BB10FF0DFFE01232A
:1036280085F849303CE080200CF006FFC0BBF4E789
:10363800503000200000C8421EC401082FC40108F1
:1036480044C4010852C4010862C4010873C40108D3
:1036580083C401089CC40108B0C40108CDC4010892
:10366800EAC40108FFC4010814C5010829C50108F6
:103678003BC5010849C50108FC2000205C0A002060
:10368800143A00209C200020A63800202378012B23
:1036980006D095F849301BB10CF0EAFD85F8496071
:1036A800059B1B78072B05D110F03EFDAE4BCBEBED
:1036B80000005880AD4B00221A70AD4CAB4E6368C9
:1036C80013A89847A146002800F03A81A94DBDF9F2
:1036D8004C302B60BDF94E306B6096F85020BDF928
:1036E8005030AB602946284607F03AFBA24B1A88AF
:1036F8009B46002A00F0AC80A04BDFEDA18A1B6836
:103708001B78002708EE103A06F1540806F1600409
:10371800BA4606F19C014FF47A72D9F81430B2FB1C
:10372800F3F3C3EB431203EB8203BBF800E0DB00C7
:103738009BB29E4508BFC8F800A0D8F8003008BF63
:10374800C4F810A0184655F82730184455F8273003
:10375800C8F8000007EE903A23690133012B4FEABD
:103768008702F8EEE77A236106D1C4ED017AC4ED49
:10377800007AC4ED028A1BE0D4ED005A07EE103A35
:1037880037EEE56AF8EEC76A86EE267AD4ED026A65
:1037980037EE257A77EEC77A84ED017AE6EE276A66
:1037A80084ED007AF0EE667AC4ED036AC4ED026A2D
:1037B800BEF1010F45F802A042F801A035D12369F6
:1037C8000791012BC3BF03F1FF3307EE903A94ED45
:1037D800037A9FED6B0A0692C4BFF8EEE77A87EE8C
:1037E800270A14F0A9F9069A079918EE103A4BB16E
:1037F800F8EEC87AF4EEC07AF1EE10FA02D507F0C6
:10380800A0FA25E04FF47A70D9F81430B0FBF3F33E
:10381800C3EB431003EB8003DB0098B2D8F8003009
:1038280003EB500393FBF0F353500137032F08F1D8
:10383800040804F114047FF46EAFBBF800000128FB
:1038480001D10BF039FABBF80030013BABF800307E
:103858004C4C002355F8231054F82300454A091A04
:1038680045F823100133032BF4D1474F474C3B78DD
:10387800002B53D0DFF8F090DFF828B14FF0000AA2
:10388800059B1A78424B032A04BF55F82A2029F8C9
:103898001A201A78012A4FEA8A080CD155F80830FC
:1038A8003C4A07EE903A1C20B8EEE70A00FB0A20D3
:1038B80012F090FB0DE055F80830D6ED3F0A397844
:1038C80007EE903A0C20B8EEE70A00FB0AB012F0B7
:1038D8003BFC059B84ED000A1A78082A05D194ED73
:1038E800000A13F025FE29F81A002B4A12884AB15B
:1038F8002A4A94ED000A1C2000FB0A2012F06AFBF9
:1039080084ED000AB4EC010A13F012FE0AF1010A70
:10391800BAF1030F45F80800B2D111E0D2ED007AF0
:10392800F8EEE77AC4ED007AD2ED017AF8EEE77A9C
:10393800C4ED017AD2ED027AF8EEE77AC4ED027AA4
:1039480096F878312BB1094A013B82F8783100F0BA
:1039580092BD134B93F8DC211D462AB393F8E63148
:10396800013BDBB221E000BF281600205C0A0020E2
:10397800B8150020E8210020B61500206821002095
:1039880000000000F80A00206C2100202C230020F1
:1039980070210020040B00206E210020800B0020E5
:1039A800503000205C0B0020012386F8783110F09D
:1039B800BBFBB74BB74CD3F80080B74BB5F8261212
:1039C800A3F1460207462068C047059B1B78072BD2
:1039D80004D110F0A9FBB14BC01B988010F0A4FBD8
:1039E800059B069093F800A0BAF1010F0AD1AC49E3
:1039F800D6F87C31A94A0968C6F87C01C31A9380B5
:103A08005B1AD380A74B22681B68EBB192F8312070
:103A1800CAB1A54A1268940718D5A44A1178012991
:103A280014D9DB78A24859430088CB1A98420AB2C5
:103A380003DB88420346A8BF0B461BB2120392FB66
:103A4800F3F2012305E013461A4602E001234FF47E
:103A580080529849C9780D912BB1BDF95410514342
:103A68000913ADF854109449944E91F80080944984
:103A7800DFF82892B1F902000890B1F90000099026
:103A88009048B1F90410D0F800C0059100252946E6
:103A9800284640453DD29CF90040059FD6ED016A75
:103AA80096ED026A64427C4307EE904AB8EEE77AE4
:103AB800DDED097AF8EEE77A0DF1540E67EEA67A95
:103AC800DDED086AF8EEE66AE6EE867AD6ED036A78
:103AD800E7EE267AFDEEE77ACDED077ABDF91C40D0
:103AE8000BB1544324132EF8104015AC34F9104090
:103AF8008C4203DCA542A8BF254600E02146BAF166
:103B0800050F03D1042898BF29F81040013010365A
:103B1800BFE7654B6C4C1868491B10F4805209B21A
:103B280040D06A4B6A4D1B78DFF8ACE1694F13F05F
:103B3800040F01BF2B681E8A674BA3F84062B4F9D3
:103B48000660664C2B6824681B8AE588C5EB030C65
:103B5800664508DCB4F900303C68AEF84062B4F958
:103B6800004035440AE02B449E4209DB3B68B4F927
:103B78000240B3F90230AEF84062751B2DB219E06D
:103B8800BEF940329C45ABBFB4F900303B683C6895
:103B9800B4F90240ABBFB4F90040B3F902301D4696
:103BA800254607E04B4BB4F906501B68B3F90040B3
:103BB800B3F90230484E9BB2A4B2C4EB030A0FFA21
:103BC8008AFA51451ADD4FEA0A33002793FBF1F1CF
:103BD800C6F84412B8450AD915AB33F917E001FB0A
:103BE8000EFE4FEA2E3E23F817E00137F2E70223D4
:103BF8009AFBF3F31C4424B20A9407E0022791FBD2
:103C0800F7F15B1A0C441BB224B20A93B6F940329E
:103C1800304E0C9337682D4E2D4B36782F49DFF8F0
:103C2800C0E01B680968DFF8BC9006F00406F6B22D
:103C3800079600F01000BEF906600B964FF0000BD7
:103C48000E90D84540F2868015A807EE905A30F8B5
:103C58001BC01A4800EB0B1090ED007AF8EEE77ADB
:103C6800A64667EE877AFDEEE77A17EE900AA0423D
:103C780004DB0A9E8642A8BF0646B6460CEB0E0039
:103C88000D9E00B229F8020F76B3B7F804E03FE0C2
:103C9800D00400201C1E002084320020281600209A
:103CA800F821002000160020C0200020C4040020B5
:103CB80050160020CC200020F7210020DC0B00202B
:103CC8009022002088210020D821002000210020F7
:103CD8008C210020D83700205C0A0020D43700202F
:103CE800F82B00209E36002082B1B3F810E0B1F81E
:103CF80006C00C9ECCEB0E0E764504DCB7F800E04F
:103D0800B1F800C006E0B1F802E001E0B7F800E061
:103D1800B7F802C0704503DB8445E646A8BF86466F
:103D28000E98A9F800E090B1079880B17AB911927D
:103D380010910F930AF09AFF0F9B1099119A30B9BE
:103D4800588A0B9E8642BCBFB888A9F800000BF1C0
:103D5800010B76E73C894CB3A0494FF47A700968A7
:103D6800B0FBF1F1B4FBF1F1012905D942F2107071
:103D78008142A8BF014600E0022109B28A4515DD4B
:103D8800974D98483C8835F918E000EB4807A64558
:103D9800B7F9487203DB7C187445A8BF744624B28F
:103DA80000EB480025F81840A0F84842079919B9CF
:103DB8000E468D488A4906E08A4991F8600219281A
:103DC80000F2478107E0B045F6D930F8164021F8EF
:103DD80016400136F7E7012101FA00F08349014056
:103DE800002900F0368182490988C80508D5814B29
:103DF8001A88ADF86C205A88ADF86E209B8812E0BE
:103E0800BDF82410ADF86C10BDF82010ADF86E1098
:103E1800BDF81410ADF870103AB11B8A0B9A9A428B
:103E280003DA059B5B42ADF870307348B0F9023095
:103E38004FF47A7203F5E1634FF46161534393FBE6
:103E4800F1F3A3F5FA73ADF88430B0F9003003F557
:103E5800E1635A43624B92FBF1F21B88A3F2DC53F5
:103E6800ADF87230654BA2F5FA72ADF886201B6882
:103E7800634A1B8A1188C91AADF874105188C91A87
:103E8800ADF876109188C91AADF87810D188C91A9A
:103E9800ADF87A101189C91AADF87C105189C91A80
:103EA800ADF87E109189D289C91AD31AADF882303B
:103EB800544AADF880100023194622F81310013334
:103EC800082BFAD1504A514B12680592504A1B7878
:103ED800126850490792072202FB03134E4DDFF880
:103EE80024A10A934FF064084FF001090A9B8B4202
:103EF80000F094800B782BB11533059A09FA03F377
:103F0800134067D011F806EC079B11F9010C11F862
:103F180005CCCEEBCE0703EB47074FEA4C06B7F9C3
:103F28000230B7F9002009909A1A92B211F9023CAE
:103F380011F8030C4FEA520B534393FBF8F3CBEB06
:103F480003031BB2089328B922A8064436F81C0CB0
:103F5800288019E022AB1E44B5F9004036F91C6CE4
:103F6800B44208DA2044844203DC86423446A8BFBF
:103F780004462C8008E007DD201AB04203DB8442A7
:103F8800A8BF044626462E80D7F80A0011F9046C0B
:103F9800089B09FA0CFC10EA0C0FB5F900000CBFDD
:103FA80001244FF0FF3416FB00F090FBF8F0984224
:103FB80009DB099B534393FBF8F3CBEB03031BB2D9
:103FC8008342A8BF03463AF81EB004FB03B32AF89D
:103FD8001E3000E02B800235073187E7F8210020EA
:103FE800A03600205C0A0020A638002032413003A9
:103FF800F8200020D8210020E02100208C2100207A
:10400800F82B0020E40D0020FC200020DC370020E5
:1040180054380020E3370020BE0C0020AD4BAE4ED4
:10402800D3F8008000254FF00E09642709FB0583AB
:10403800E8B293F9064036F9023F14FB03F494FB07
:10404800F7F434800FF0C4FE01352044082D308089
:10405800ECD1A24C9F4D236813F0200F33D00020E1
:104068000FF0B6FE9E4E0746308001200FF0B0FEDE
:104078009C4B70801B68190625D59B4B9B4A1B6877
:104088001B78012B24D1D5F80080B2F9021098F9D9
:104098000630B2F900205B424B434FF0320C93FBE1
:1040A800FCF31FFA83FE98F914306FF0310113FB0B
:1040B80002F393FBF1F17144791A93FBFCF3734417
:1040C8003180184470802B68834A03F170061AE027
:1040D800D5F800E0B2F902309EF9061011FB03F1A1
:1040E800322391FBF3F1394431809EF91470B2F90F
:1040F800001017FB01F292FBF3F21044E2E70E33D3
:104108009E4211800CD032F9020FB3F90010B3F9B6
:1041180002708842F3DB87423946A8BF0146EEE7C2
:10412800734B744E1A6892F904209A46A2B996F80D
:1041380060727B1E182B00F29980DFE803F0549719
:1041480097709797976997979797977B9797979768
:1041580097708997977B5400DFF884B10023A6F8FD
:104168008232B046D946B6F98272072FDFDC98F85A
:104178008422614B92B9DAF800200593528800EE48
:10418800102A5E4A1C20116800FB0730B8EE400A6E
:1041980011F0AAFF0122059B88F884223BF9172019
:1041A80000EE102A1C2000FB0730B8EEC00A11F000
:1041B80011FF13F0BDF92A6800B2C7EBC7032BF84B
:1041C800170002EB4303B3F90020B3F90230904221
:1041D80003DB8342A8BF03461A4629F81720013794
:1041E800A6F88272BFE7DAF800305B781BB13C4B67
:1041F8000020598908E0424B1B7803F0040303F0C0
:10420800FF01002BF3D1084607F022FB01252EE021
:10421800334D0020E98807F01BFB298905E0304D64
:104228000020298907F014FB6989012007F010FB99
:1042380002251CE0DFF8A8800225A81E38F8151012
:10424800C0B2013507F004FB082DF6D106250EE0B3
:10425800DFF88C800325E81E38F81510C0B2013548
:1042680007F0F6FA072DF6D1042500E000252368AB
:104278009A0601D4052F0BD1194F2846398807F023
:10428800E7FA681C7988C0B207F0E2FA0235EDB2A5
:104298002368DB0205D496F8683373B10FF0F0FC9D
:1042A8000BE0184F0024281937F8021FC0B207F096
:1042B800CFFA0D2CEFD00134F5E7134B1B78072B01
:1042C80005D10FF031FF069BC01A104BD88001238F
:1042D8003370D0E054380020E20D0020C0200020C8
:1042E800E40D0020FC20002084210020E021002093
:1042F800882100205C0A0020E40C0020F82100201E
:1043080000210020FE2B0020261600202816002061
:104318002A8857063EF573ABDFF88081584F98F826
:104328001E209A4217D007EE903A9FED568A9FEDCD
:10433800560A88F81E30F8EEE77A27EE888A38EEB3
:10434800000A11F0E7FD87ED000AB0EE480A11F007
:10435800E1FD88ED080AB4F90030D6ED085A97ED6A
:10436800006A4A4A07EE903AB4F9043006EE903AE9
:10437800F8EEE66AF8EEE77A25EEE67AA7EE867AB0
:1043880067EEA57ABDEEC77AE6EE267A17EE103A02
:10439800B3F5FA7FA8BF4FF4FA739342FDEEE77ABC
:1043A800B8BF1346238017EE903AB3F5FA7FA8BF3B
:1043B8004FF4FA739342B8BF1346A380FEF71FBBAE
:1043C800DFED336AFEF7A5BBF4EEE47AF1EE10FAFE
:1043D80009D4DFED306AF4EE667AF1EE10FAC8BF60
:1043E800F0EE667A01E0DFED2C7AC1ED007A94F800
:1043F8003450632D3EF694AB022B3EF491AB002F64
:104408007EF48EAB06EE905AF8EEE66A86EE865A91
:10441800F0EE476AD7EE856A77EE267AFEF780BB1C
:10442800012D08BF81ED007AF0EE477AFEF778BBE0
:10443800F0EE477AFEF798BBF4EEE47AF1EE10FA64
:104448000AD49FED147AF4EEC77AF1EE10FAC8BFD9
:10445800F0EE477AFEF788BBDFED0F7AFEF784BBF4
:1044680011F028FA00283FF49AA84FF48053EB87FC
:104478000A23FFF793B823B0BDEC028BBDE8F08F99
:104488000000002035FA8E3CDB0FC93F0CFEFFFF11
:104498000AD7233C00C0F94400C0F9C45C0A0020D4
:1044A8002DE9F04F914BADB01D780093002D00F031
:1044B800A7808F4B1868002801F026870CF098FC1D
:1044C800DFF85C92DFF85C82D9F8000007F051F958
:1044D800002801F01987D9F80000864C07F046F942
:1044E800092801D03F2855D14FF0000A26685746C1
:1044F80055460AEB080B36B132465AF808107E4882
:1045080015F096F920B90DB15F4601E05D465F46AA
:104518000AF1100ABAF5107FEBD1F5B1D5F800A071
:10452800D7F800B0DFF8D0C123681AF803001BF8E9
:104538000310814211D15A1CDFF8BCE149B92D2B77
:1045480007D86C48026020200EF803000EF802100D
:1045580003E00CF803002260E6E723680BB1BD42D4
:104568000FD0664810F098FBBD4207D855F8100BDD
:1045780010F092FB092010F0EBF9F5E704F0DCFEEF
:1045880000265D4D23689E429ED2A85D10F0E0F99A
:104598000136F7E723686BB9042804D1564810F0B0
:1045A8007DFD01F0B1BE0C2841F0AA86544810F0F8
:1045B80073FB22E00C28F9D00A2841F055864E4EAC
:1045C800504810F069FB2321304615F022F9354692
:1045D80008B1801B206023680022002B41F0488628
:1045E800002A41F0608630220021434815F0DCF8AB
:1045F800009B1B78002B01F0878604F09DFE63E783
:10460800414B03F13007414BEA18EB58002B01F0FE
:104618004C803F493F4C0B600593002322608DF886
:1046280019303D4A3D48049214238DF8183004ABE4
:104638000360264689469246D9F80000DFF8D08004
:1046480007F097F8002801F01C80D8F8000007F060
:104658008DF8336893F84810834619B9242863D134
:1046680001221DE0012903D14D2808BF022204E0E0
:10467800022907D13C2808BF032218BF002283F86B
:10468800482085E003290ED140284FF0000102D9C7
:1046980083F84810D0E758711971D97198710422BC
:1046A80083F84820C8E7042907D1997983F8490095
:1046B80080EA01029A710522F2E7052968D1587942
:1046C80019798842987908D98BEA00009871481CB2
:1046D80018710B4483F808B0AEE7584503D1062299
:1046E80083F848205AE00022DAE700BFF8380020B3
:1046F800A0380020F4380020C43800201CC6010867
:1047080021C60108C5CC0108589D0108602B00206E
:10471800282100202021002087B70008242100201C
:10472800C038002040B90108BF490B7803F00403E2
:1047380003F0FF0E002B7FF47FAF23281DD1009AD2
:10474800D8F80000019101231370B84B1860B84BDA
:104758001860B84B586010201872B748C3F800A00A
:10476800036083F809E0B54810F096FA04F0E4FD18
:1047780001990B7843F002030B70B14B1B681B784F
:104788005B4505D1AF4BB04A1A60B04BB04ADA600E
:10479800336893F84820062A7FF44EAF93F849808F
:1047A800B8F1520F00F07F8600F2D980B8F1340FCB
:1047B80000F0478467D8B8F1240F00F0CD842DD8D5
:1047C800B8F1040F00F0368215D8B8F1020F00F0E6
:1047D800168200F22382B8F1010F40F09787032078
:1047E80008F03EFD002008F0F6FC404608F0F3FC17
:1047F800142000F022BFB8F10A0F00F05682B8F179
:10480800220F00F0FD83B8F1050F40F07F871A20D2
:1048180008F026FD0026DFF8508219E2B8F12C0FC7
:1048280000F0F0841BD8B8F1280F00F0D284B8F15A
:104838002A0F00F0E184B8F1260F40F06787854E13
:10484800062008F00DFDB6F8C80108F00CFDB6F812
:10485800CC0108F008FDB6F8D00100F0EBBEB8F1C5
:10486800300F00F08585B8F1320F00F02985B8F1D6
:104878002E0F40F04B87774E402008F0F1FC06F1F0
:10488800400800F065BDB8F1450F00F0118637D833
:10489800B8F13B0F00F0AD831AD8B8F1380F00F02B
:1048A8008584B8F13A0F00F02083B8F1360F40F054
:1048B8002D87604B674E93F82C00DFF8B091C0EB62
:1048C800C000C0B208F0CCFC06F1280800F03CBDDE
:1048D800B8F1400F00F0FB84B8F1420F00F00785F3
:1048E800B8F13D0F40F012875A4E022008F0B8FC8C
:1048F80096F88B0208F06FFC96F88A0200F09DBECD
:10490800B8F14B0F00F0A98410D8B8F1470F00F0A8
:104918008485C0F06E85B8F1490F40F0F786022013
:1049280008F09EFC4C4B988A00F084BEB8F14F0FFB
:1049380000F0AC85B8F1500F00F09685B8F14D0F36
:1049480040F0E486454EDFF82881307800EB4000DF
:10495800C0B208F085FC4FF0000900F099BCB8F12E
:10496800700F00F01E8300F28780B8F1660F00F028
:10497800D8812CD8B8F15E0F00F027860DD8B8F191
:104988005A0F00F0E285B8F15C0F00F0FD85B8F130
:10499800540F40F0BB8600F086BDB8F1640F00F0FC
:1049A800748100F29481B8F1600F40F0AF86294E0F
:1049B800032008F055FC96F8D50108F00CFC96F891
:1049C800EA0108F008FC96F8E90100F036BEB8F1F3
:1049D8006C0F00F07A8216D8B8F1680F00F05C828C
:1049E800C0F0CB81B8F1690F40F09086DFF86C8099
:1049F800DFF8809098F80000400000F0FE0008F012
:104A08002FFC002656E2B8F16E0F00F0738200F218
:104A18009682062008F024FC114B186808F02CFC3C
:104A2800104B188800F006BE00210020C038002076
:104A38002C210020C80D0020A03800204CC60108F9
:104A480010360020FC9F0020EFBEADDE00ED00E038
:104A58000400FA0550300020B8150020482C00202A
:104A68005C3A00209414002085C001081436002008
:104A7800A4320020F82B0020B8F17D0F00F03B8510
:104A88005BD8B8F1750F00F0A8823ED8B8F1730F63
:104A980000F03B8300F2AE80B8F1720F40F036862A
:104AA800D74E162008F0DCFBB6F8440208F0DBFB12
:104AB800B6F8CC0008F0D7FBB6F8CE0008F0D3FB68
:104AC800B6F8D00008F0CFFBB6F8980208F0CBFB98
:104AD800002008F080FB002008F07DFB002008F093
:104AE8007AFB96F81F0208F076FB96F8400208F069
:104AF80072FB002008F06FFBB6F9EC310A2093FB3B
:104B0800F0F080B208F0AFFB54E3B8F1780F00F092
:104B18004381B8F17C0F00F0DF84B8F1770F40F0E3
:104B2800F585DFF80483DFF804A398F80000DFF8C0
:104B3800009308F095FB0026DDE2B8F1A00F00F025
:104B4800FD823FD8B8F17F0F00F01F84C0F0EE84DB
:104B5800B8F1960F40F0DA850F2008F081FBA94BD9
:104B6800188808F080FBA84B188880B208F07BFBF7
:104B7800A64B1B68C3F3C000C3F38002800040EA61
:104B88004200C3F340021043C3F3401240EAC2009C
:104B980003F01003184308F066FB08F049FA08F020
:104BA8006BFB974B93F8F00408F015FB984B1888AB
:104BB8006428A8BF642008F056FB032008F00BFB0C
:104BC800944B1BE2B8F1F10F00F04081B8F1FE0FF1
:104BD80000F0A682B8F1F00F40F09885884E0420C6
:104BE80008F03EFBB6F8F00108F03DFBB6F8EE0120
:104BF80000F020BD4FF000094FF0010B4DE20420FA
:104C080008F02EFBDFF82C82002618F80600013683
:104C180008F0E1FA042EF8D100F02DBD032008F0C9
:104C28001FFB032008F0D7FA002008F0D4FA01206F
:104C380000F003BD062008F013FBDFF8FC81002616
:104C480018F80600013608F0C6FA042EF8D191E0EB
:104C580018F80600013608F0BEFA0B2EF8D1DFF876
:104C6800DC81002618F80600013608F0B4FA082E90
:104C7800F8D1DFF8CC81002618F80600013608F0D4
:104C8800AAFA072EF8D100F0F6BC072008F0E8FAD7
:104C9800E72008F0A0FA5A4B587908F09CFA00204F
:104CA80008F099FA042000F014BC5B485B4E11F040
:104CB80077FA5FFA80F8404608F0D2FAB044B04577
:104CC80000F0D98416F8010F08F085FAF7E70B20F1
:104CD80008F0C6FA4B4B188808F0C5FA4A4B1888F2
:104CE80080B208F0C0FA494B1B68C3F3C000C3F395
:104CF8008002800040EA4200C3F340021043C3F33D
:104D0800401240EAC20003F01003184308F0ABFA5F
:104D180008F08EF908F0B0FA394B93F8F00400F077
:104D28008CBC122008F09CFA3D4BDFF818911B89C7
:104D3800B3F5007F94BF4FF001084FF00408002638
:104D480059F8260090FBF8F0013680B208F08BFA8B
:104D5800032EF5D1334E308808F085FAB08808F074
:104D680082FA308908F07FFA002008F07CFA0020E7
:104D780008F079FA002000F05DBC102008F070FA05
:104D8800DFF8C480002618F80600013608F023FA78
:104D9800102EF8D100F06FBC7020194E08F060FAA0
:104DA8004FF0000AB0464FF00E09B6F8540108F06B
:104DB8005AFAB6F8560108F056FAB6F8580108F04B
:104DC80052FA96F85A0108F006FA96F85B0108F0CC
:104DD80002FA96F85C0108F0FEF996F85D0108F011
:104DE800FAF909FB0A830AF1010AD3F85E0108F00F
:104DF80043FABAF1080F06F10E06D6D100F03BBC13
:104E080050300020B6200020B4200020A42000202C
:104E1800241E0020A4380020FA350020F93500208F
:104E2800A8200020E82100200121002002210020E4
:104E3800589D010884C6010841C001087CC00108CA
:104E480046C0010888140020E40D00207020C54EDB
:104E580008F006FA06F1700896F8E40008F0BBF9C5
:104E680096F8E50008F0B7F996F8E60008F0B3F907
:104E780096F8E70008F0AFF996F8E80008F0ABF903
:104E880096F8E90008F0A7F9073696F8E30008F065
:104E9800A2F9B045E0D1EEE3102008F0E1F9DFF81F
:104EA8000483002618F80600013608F094F9102E3D
:104EB800F8D1E0E398F800309E4280F0DC8339F8BE
:104EC800160008F0D0F90136F4E7A74E062008F0DE
:104ED800C7F9308808F0C7F9708808F0C4F9B6F93E
:104EE80004300A2093FBF0F024E0042008F0B8F91D
:104EF8009E4B2FE1072008F0B3F99D4B1888FF2837
:104F0800A8BFFF20C0B208F066F99A4B186880F372
:104F1800100080B208F0A7F9974B188808F0A3F999
:104F2800904B93F81F22954B18682AB10A235843CF
:104F380080F3100080B27DE300F30F00FAE7904E93
:104F48000C2008F08DF93368187808F044F93368B4
:104F5800987808F040F94FF00009B046D8F80030CA
:104F6800874E4B4409F10109587908F034F9B9F131
:104F7800030FF3D13368187A08F02DF93368D8781D
:104F880008F029F93368187908F025F93368588941
:104F980008F069F93368587A08F01DF933685878C9
:104FA8004BE31E2008F05CF9DFF8DC810026D8F816
:104FB80000303344587808F00EF9D8F800303344FC
:104FC800D87A08F008F9D8F8003033440136587D0B
:104FD80008F001F90A2EEAD14DE32F2008F040F934
:104FE800684E16F8010F002800F0458308F0F3F822
:104FF800F7E7012008F034F9634B1B6818781CE3C5
:105008005020584E08F02CF906F150084FF00C09C2
:105018005E4A96F8F13409FB0323043693F8380006
:1050280008F0D9F896F8EE0408F0D5F896F8EF04E9
:1050380008F0D1F896F8F00408F0CDF8B045E7D1BB
:1050480019E35A20474E08F00BF906F15A0896F86A
:10505800460508F0C0F896F8410508F0BCF896F83F
:10506800420508F0B8F896F8430508F0B4F896F841
:10507800440508F0B0F8063696F83F0508F0ABF896
:105088004645E4D1F7E2BBF1000F00F0F4825FFA85
:1050980089F008F0E5F84FF0000B00263C4B1B7830
:1050A8009E42F0DA3B4BF05C00214FF00C0E0EFBF9
:1050B80001F313F807C0844503D001311F29F6D145
:1050C8000CE0324A1344D3F834A0504611F068F883
:1050D8000146BBF1000F00F0EE8289440136DDE79E
:1050E80000FB02F313F807E08E4500F0F18201326D
:1050F8001F2AF5D1013698F800309E4280F0BB8215
:1051080016F80A1000220C20EAE7082008F0A8F890
:105118000126F0B2013608F05EF8092EF9D1AAE2AC
:10512800082008F09DF8DFF88080002638F816007F
:10513800013608F098F8042EF8D19CE20C2008F00B
:105148008FF8154B186808F097F8144B186808F092
:1051580093F8134B1868BCE1042008F081F8014B60
:105168009868B6E150300020E0210020343A002051
:105178005016002004160020B43B0020A414002080
:10518800802D0020579D01081C1E0020589D0108F5
:105198000121002002210020ACF7FF1FB0F7FF1FFC
:1051A800B4F7FF1FA036002028160020042008F0BE
:1051B80057F8DA4E96F8120208F00DF896F816022B
:1051C80008F009F896F8150208F005F896F817029D
:1051D80033E2D24E072008F043F8B6F81A0208F076
:1051E80042F8B6F81C0208F03EF896F81E0207F0DE
:1051F800F2FFB6F820021DE2012008F031F8C74B93
:1052080058791AE2C54E102008F02AF896F83C02A0
:1052180007F0E1FFB6F8480208F025F8B6F84402AE
:1052280008F021F8B6F8460208F01DF896F83E0294
:1052380007F0D1FFB6F8500208F015F8B6F8520298
:1052480008F011F896F84A0207F0C5FF96F84B02E5
:1052580007F0C1FFB6F84E02ECE1B04E082007F0A7
:10526800FFFF96F8960207F0B6FF96F8970207F048
:10527800B2FFB6F8980207F0F6FF96F89A0207F020
:10528800AAFFB6F89C0207F0EEFF96F89E02D4E15A
:105298003378994508F1020880F0ED8118F8020C7E
:1052A80007F099FF18F8010C00EB800000EB800074
:1052B80000F2EE2080B207F0D6FF09F10109E7E716
:1052C800012007F0CDFF954B93F84002B5E1082087
:1052D80007F0C6FFDFF84482002606EB0803013614
:1052E80093F8340207F077FF082EF6D1C3E18B4E0E
:1052F800102007F0B5FF707907F06DFFB06807F070
:10530800BBFF96F83C0207F066FFB6F8C80107F045
:10531800AAFFB6F8CC0107F0A6FFB6F8D00107F04F
:10532800A2FFB6F81A0207F09EFFB6F81C0281E148
:1053380013F90920824200F0D1810C333C2BF7D1BC
:105348000836B04500F0978196F9A2020023EFE7EE
:10535800B6F8600307F087FF96F8620307F03BFF93
:10536800043696F85F0307F036FF4645F0D182E130
:1053780080206B4E07F074FF06F1800856F8040F82
:1053880007F07AFFB045F9D175E18D2007F068FF85
:1053980000264FF0060A0AFB06F94FF0000B5FFAE9
:1053A80086F8404607F017FF5FFA8BF007F013FF07
:1053B8005A4B0BEB090119440BF1010B91F8A003AF
:1053C80007F009FFBBF1060FEBD10136062EE2D13B
:1053D8000026062007F0FFFEF0B207F0FCFE4F4B58
:1053E8003344013693F8C40307F0F5FE0B2EF0D1D1
:1053F80041E10D2007F034FF0EF012FA494E40F05B
:105408000200C0B207F0E7FE308807F035FFF06809
:1054180007F032FF0EF0E4F95BE007F0D3FE064632
:10542800842007F01DFF304607F026FF3D4BDA6861
:1054380006F1800393428CBFC6EB02094FF0800946
:105448000DF130080EF0C4FA4A46304641460EF0D7
:10545800FDFA002681464E4580F20D8118F80600B7
:1054680007F0B9FE0136F6E72C4E042007F0F8FEE7
:10547800012007F0B0FE96F89D0507F0ACFE96F8FF
:105488009B0507F0A8FE96F89C05D6E00B2007F0D0
:10549800E7FE002007F09FFE002007F09CFE00209A
:1054A80007F099FE11E0012007F0DAFE0020C4E0C1
:1054B800132007F0D5FEDFF87080002618F80600E4
:1054C800013607F088FE0B2EF8D1002007F0D4FE35
:1054D800002007F0D1FECEE0104E062007F0C0FEF7
:1054E800B6F8D60007F0BFFEB6F8D80007F0BBFE46
:1054F800B6F8DA009EE0094E052007F0B1FE96F8EE
:10550800220207F068FE96F8230207F064FE96F878
:10551800240207F060FEB6F8DC008BE05030002073
:105528002C330020B404002085C00108CF4E03208E
:1055380007F096FE96F8C50107F04DFE96F8C601ED
:1055480007F049FE96F8C70177E0C84E062007F035
:1055580087FEB6F8D83123B1082007F03CFE0120B9
:1055680005E096F8DA0107F036FE96F8E60107F04E
:1055780032FE96F8E30007F02EFE96F8E20007F0F8
:105588002AFEB6F8DE0055E0DFF8E082B84E0D20BE
:1055980007F066FE98F8DC0107F01DFE3368188CEA
:1055A80007F061FE3368588C07F05DFEB8F8DE013D
:1055B80007F059FEB8F8E00107F055FE3368988CFB
:1055C80007F051FE3368D88C34E0A94E112007F05B
:1055D80047FE3368588D07F046FE3368988D07F00C
:1055E80042FE3368D88D07F03EFE336893F82800F2
:1055F80007F0F1FD336893F8310007F0ECFD3368EC
:1056080093F8340007F0E7FD336893F8350007F0A6
:10561800E2FD002007F0DFFD002007F0DCFD336825
:1056280093F8330007F0D7FD3368188F07F01BFE97
:105638003368D88E07F017FE1DE007F0CCFD1AE09E
:1056480040F24F84B8F1D00F00F06984B8F1D20F5E
:1056580040F0408107F0A0FD020600F16D84854B03
:105668001B785B0704D4032828BF00200BF0C0FC7C
:10567800002007F0F5FD07F0BFFD2368002283F83E
:1056880048207D4B7D4C18680BF0B2FB94F82D3008
:105698005BB17B4B585909F06FF90EF06CFD002394
:1056A80084F82D30774B784ADA604C35982D00F025
:1056B8002B86FEF7A8BFD046CAEB08008842BFF683
:1056C8000DAD18F8010B019107F085FD0199F3E77D
:1056D8004B4493F8380007F07EFD0BE5C0B207F0A5
:1056E8007AFDB6F8A40207F0BEFD96F8A60207F008
:1056F80072FD96F8A70207F06EFD96F8A90207F06A
:105708006AFD96F8A80207F066FD19E6B8F15B0F86
:1057180015D107F041FD554E86F8DA0107F03CFD3A
:1057280086F8E60107F038FD86F8E30007F034FD57
:1057380086F8E20007F03CFDA6F8DE0098E700F2E4
:105748006782B8F1370F32D15B794FF00708B3FBA6
:10575800F8F8C8EBC8029B1A13F0FF0F02D00AF042
:10576800BBFF85E75FFA88F8B8F1000F80D007F033
:1057780013FD4FFA80F9484609F074F906460028E7
:10578800EDD080F8009007F013FD708007F004FD5D
:10579800307107F001FD707107F0FEFCF07107F041
:1057A800FBFC08F1FF385FFA88F8B071DCE700F21B
:1057B8005181B8F12B0F2DD107F0EEFC2B4B27E0D0
:1057C80040F2E181B8F14E0F40F0F48107F0E4FCBB
:1057D80011280646C3D8DFF8948007F0DDFC06F5EB
:1057E800947608EB4603187107F0E2FC40F2ED23CB
:1057F8009842424640F3DB8140F6CA039842A8BF6C
:10580800184602EB4603A0F2EE20192290FBF2F0B4
:1058180058712DE700F28780B8F1250F08D1134E93
:105828000023B36007F0CEFCB3681843B0601FE7ED
:1058380053D8B8F10B0F2BD1112200211348DFF8F0
:105848002C9013F0B1FF4FF0000833685B79102BF0
:1058580028BF10239845BFF40BAF07F09DFC08EB59
:10586800090308F1010883F8AA05EEE75030002083
:105878001C1E00200021002024210020C80D00202B
:10588800602B002000ED00E00400FA05FA35002046
:10589800B8F1230F1ED107F07FFC132806463FF608
:1058A8005EAF07F079FC00220C2101FB02F307EB45
:1058B800030E9EF808E0864500F0B18401321F2AE5
:1058C800F3D14CE7B8F1FA0F04D1C64B1B785A074D
:1058D80040F12C830AF000FFCDE6B8F1270F0DD177
:1058E80007F066FCC04EC6F8C80107F061FCC6F8B0
:1058F800CC0107F05DFCC6F8D001B9E6B8F1290F74
:10590800E8D107F055FCB84EA6F81A0207F050FC8B
:10591800A6F81C0207F040FC86F81E0207F048FCB7
:10592800A6F82002A4E6B8F1310F13D107F034FC31
:105938001F2806463FF613AF23685B79052B7FF4D3
:105948000EAF07F03FFCB836A74B43F826000EF021
:1059580021FF8DE64BD8B8F12D0F32D107F01CFC92
:10596800A14E86F83C0207F023FCA6F8480207F08F
:105978001FFCA6F8440207F01BFCA6F8460207F035
:105988000BFC236886F83E025B79082B07D907F0E1
:105998000FFCA6F8500207F00BFCA6F85202236889
:1059A8005B790C2B7FF664AE07F0F6FB86F84A02AB
:1059B80007F0F2FB86F84B0207F0FAFBA6F84E0256
:1059C80056E6B8F12F0F85D1874E06F1400807F04B
:1059D800EFFBA6F8600307F0DFFB86F8620307F029
:1059E800DBFB043686F85F034645F0D140E6B8F1A4
:1059F800330F05D107F0D0FB7B4B83F8400237E625
:105A0800B8F1350F7FF466AF07F0C6FB0E28804665
:105A18003FF6A5AE07F0C0FB03283FF6A0AE724BD9
:105A2800062606FB083686F8460507F0B5FB86F815
:105A3800410507F0B1FB86F8420507F0ADFB86F893
:105A4800430507F0A9FB86F8440507F0A5FB86F88F
:105A580045050DE6B8F1440F04D1644B012283F8E3
:105A68002D2005E671D8B8F13E0F09D107F094FB57
:105A78005D4E86F88B0207F08FFB86F88A02F7E501
:105A88002BD8B8F1390F11D107F086FB564E86F89E
:105A9800120207F081FB86F8160207F07DFB86F8F4
:105AA800150207F079FB86F81702E1E5B8F13C0F1B
:105AB8007FF410AF4E4ED6F8008007F06DFB01283A
:105AC800A8BF012088F8000033681B78012B494BD8
