:020000040800F2
:1000000000500020B17501084D760108895B010898
:100010004D7601084D7601084D760108000000007C
:100020000000000000000000000000004D76010804
:100030004D760108000000004D7601084D4F010883
:100040004D7601084D7601084D7601084D76010880
:100050004D7601084D760108D90A0108E30A010826
:10006000E10A0108DF0A0108DD0A0108AD7700088E
:100070009D7700088D7700087D7700086D77000870
:1000800059770008477700084D7601084D7601083A
:100090004D7601084D7601084D760108DB0A01080E
:1000A0004D760108814C01084D760108714C01081C
:1000B000654C0108554C0108454C0108977A000829
:1000C0009D7A00088D7A0008937A00084D76010821
:1000D0004D760108A1AB000895AB00088BAB00087A
:1000E000D70A01084D7601084D760108000000008E
:1000F0000000000000000000000000000000000000
:0C01000000000000000000005FF808F1A3
:100110002DE9F04F604A614BA1B01A60604B00229C
:100120001A600EF033F918B90EF02AFD10F03CFDFC
:100130000EF050F95B4A5C4C137843F001031370E6
:10014000002309930A930B934FF4E0130C93236855
:1001500043F480332360A36943F01003A361236851
:1001600003F400330A93099B013309930A9B1BB9DB
:10017000099BB3F5A06FF2D123684B4913F4003308
:1001800001D0022315E00A6842F001020A600993D7
:10019000236803F002030A93099B013309930A9B26
:1001A0001BB9099BB3F5A06FF2D123689E0739D51F
:1001B00001230B933D4B3E4F1A6842F010021A6028
:1001C0001A6822F003021A601A6842F002021A60EA
:1001D0006368636063686360636843F4806363605B
:1001E000344B1A68043B22F070425A60324A3A603B
:1001F000626822F47C1262605A6842F000425A60DF
:10020000DA6822F40042DA609B681D0449BF2B4B78
:100210004FF4E0133B604FF480130C930B9B012BC6
:1002200001D108E0FEE7022B09D10C9A6368134361
:1002300043F4803302E0636843F46013636023682F
:1002400043F0807323602268174B9001FBD55A68F6
:1002500022F003025A605A6842F002025A60636850
:10026000114A03F00C03082BF9D15368DFF85480CE
:1002700003F00C03042B03D0082B03D00E4B2AE011
:100280003B6828E053685168C3F38343C90303F113
:10029000020319D40A4A1DE081E30008F018002087
:1002A000F4180020493800200010024000200240CD
:1002B000A00000200410014000127A00001BB700CB
:1002C00000093D005C030020526812F4003F3A68C8
:1002D00018BF52085343C8F800306368864AC3F316
:1002E000031313449A78D8F80030DFF86092D340B3
:1002F000C8F80030814A824B0DF1800ADA60A269A9
:10030000039342F00102A261656A0026C9F8005019
:10031000626A0DF1800B42F080726262A26942F063
:100320001C02A2614FF6FF722AF82C2D02F18042C6
:1003300002F601021046514602928DF8566007F00F
:10034000C7F951466F4807F0C3F951466E4807F0A8
:10035000BFF910218DF83A100221029A8DF83B1056
:100360004FF400712BF8481D10461161594607F0F3
:10037000AFF9664950464A6842F000724A600AF096
:10038000AFFF6349159A09F10400B2FBF1F261492C
:100390000A601822314619F007FFD8F800204FF400
:1003A0007A71B2FBF1F25C49039B013A4A60F02298
:1003B00083F8232007238E600B604F4B5749DFF8EB
:1003C00090E102934FF0010CB20202F180423EF83C
:1003D000160002F58432002340FA03F818F0010FEA
:1003E00018BF0CFA03F803F101031EBF0A60A1F85D
:1003F00004800C31102BEFD10136032EE4D1484E8E
:10040000484B96F8E7211A703B68474A934201D15E
:10041000012203E0454A934202D10222444B1A7062
:10042000B3680021DFF82C810846C8F8003010F0CE
:1004300037FB0021012010F033FB3E4A00274FF02C
:10044000170A022352F82700013750B1C37180F810
:1004500006A0077212210492039310F033F9049A54
:10046000039B032FEED10021084610F019FB002159
:10047000012010F015FBA369402243F00103A361A2
:1004800000212D4819F090FE2C4B4FF0FF321A60DE
:10049000C3F80320D8F800301A0714D596F83C3278
:1004A000012B10D81E4B15F0805593F83E3200F00A
:1004B000598608E093F83F22012A04D1002283F8EC
:1004C0003E2210F029FC642014F0F2FCA02200214E
:1004D0001B4819F069FE1B4D0024A5F11407615952
:1004E00000231948DA0050F83300814234D1BB1898
:1004F00093F8C00034E000BFF8A201080005FA0537
:1005000000ED00E0000C014000100140000001403F
:1005100040420F005836002010E000E05C1A002036
:10052000082F00209A15002000127A00001BB70047
:1005300031250020ECC40108C02E0020002F00202F
:10054000003500200CA30108B4A30108B00400206A
:10055000F8C40108C41900200133042BC1D10020C4
:100560000C3413F017FFA82CB9D1A34BA34AD8F829
:100570000040DFF8BC821A60052700213C22A04819
:1005800088F8007019F010FE002318463946DFF88D
:10059000A4E29B4F04F040054FF0FF0C1EF9012F21
:1005A00003EB070ADA554DB91E3AD2B2012A9FBFB2
:1005B00001F1FF318AF800C0C9B201200C333C2B95
:1005C000ECD108B188F8001077798E4B8E491F70F6
:1005D0008E4B8F4AC9F81C30D6330B6040F2DC5189
:1005E000A30657BF8B4B012303EBC7035B78136252
:1005F000894A002322F813100133082BFAD11A225A
:100600000021584619F0D0FD0E2F03D007F0EF035C
:10061000082B02D101238DF84A3001200DF0E6FCB1
:1006200018B14088003018BF0120C4F340038DF892
:100630004030C4F3403300358DF83830C4F3C03354
:1006400018BF012500F001008DF83B3014F4006361
:100650008DF83D008DF8425004D096F81E32581E99
:10066000434243418DF83C30C4F300438DF843309E
:10067000C4F3C0038DF83A30D9F8203004F00107F4
:10068000003318BF01238DF84430C4F300538DF8B4
:100690004530B6F8D2308DF83970ADF84830B6F83C
:1006A000DE3004F00805ADF8463096F8E13043B985
:1006B0005A4B93F8E03013F0FB0F0CBF01230023DB
:1006C00000E0012396F8E020049312F0FB0F14BF22
:1006D000012100218DF841108DF84B2013B14F4BB3
:1006E000B3F8DC30ADF84C30B6F8D030E104ADF8FA
:1006F0004E3042BF494BB3F8D830ADF84E30042AE3
:1007000006D14FF4805010F027FA0023ADF84E3098
:1007100096F88822424B00211A704248642219F050
:1007200043FD9DF84A30002B14BF4FF0020B4FF0F1
:10073000000B07B90DB10BF1010B4FF00009CA46D0
:10074000029BDFF8CC8003EB8B0BDBF8DC309A1ECE
:100750001A3302920593029A32F8023F02924FF640
:10076000FF72934200F0C0819DF83D10DAB21B0A7F
:10077000DFB219B1911E012940F2B1819DF84210FA
:1007800041B129480C2101FB0201486927498842EF
:1007900000F0A5819DF8431041B1234C0C2000FBD3
:1007A000024044692148844200F099819DF840004C
:1007B00038B11D4C0C2000FB0240007E142800F0D4
:1007C0008E819DF83B0038B1174C0C2000FB024095
:1007D000007E112800F083819DF83C0038B1124C56
:1007E0000C2000FB0240007E212800F07881022BC3
:1007F00022D19DF8383023E070340020A831002049
:1008000074340020D00A00201C360020142F002051
:10081000B004002004BA0108F80B0020082F0020C3
:100820000C2300200C0C0020F8A20108000400405A
:100830003C18002099C00108012B04D19DF83930E3
:10084000002B00F04C819DF844307BB19DF84A307C
:1008500063B9A2F10803012B08D8B4480C2303FBA9
:1008600002035869B24B984208BF0427B14B0C25CC
:1008700005FB02359DF845305BB19DF84A3043B920
:1008800019B1A2F10C03012B01E0131F032B40F25D
:100890000781012F3DD1A54B0C2404FB0234002617
:1008A000A54BFF22207E88F82460C8F830501E70C7
:1008B0005E609E60DE601E6483F8442083F84520FD
:1008C00083F8466083F8476083F848600FF0D4FEF1
:1008D000D4F8149002228271C7710672217F0FF042
:1008E000F1FE3246617E48460FF008FD3A46314639
:1008F000284614F075FA914B914AC8F83430914B60
:10090000C8F83C60C8F83830111F284614F0BAF90E
:10091000E5E0022F3ED15FFA8AF11C26834806FBF0
:1009200001F30C2404FB020408EB030701264FF03B
:10093000000B87F82510207E87F826B087F82EB0A8
:1009400087F824603D63039306910FF095FE0699A6
:1009500086718A190272C671217F0FF0B3FE5A4662
:10096000617E60690FF0CAFC32465946284614F091
:1009700037FA754BC7F83CB07B63744B2846BB63B2
:10098000039BB24403F11001714B19440A1D14F08A
:1009900079F9A4E0032F40F081809DF839309DF86B
:1009A0004B10ABB1A1B1614B0C2404FB0234636961
:1009B0004B450DD14B1E032B0AD8DFE803F002068E
:1009C0000406082202E0482200E01822614B1A7057
:1009D0009DF84130604CBDF84C206BB3022994F86F
:1009E00001B0BDF84E3009D003295C495C4E0EBF02
:1009F0004FF0480E0E464FF0080E02E0594E4FF0F1
:100A0000180E5FFA8EF1584F32B1584800FB0EF0C5
:100A1000B0FBF2F292B202E013464FF6FF722846A4
:100A20000FF0B6FE47F82B0057F82B301922DE6086
:100A3000A37804EBC30327E00429667811D14C495D
:100A40002846B1FBF2F2182192B20FF0A1FE464BFC
:100A50000D2243F82600474BC360A37804EBC30381
:100A600012E0424B0121B3FBF2F22846BDF84E30B2
:100A700092B20FF08DFE3C4B092243F826003E4B0C
:100A8000C360A37804EBC3035A71A378627804EBC4
:100A9000C3010A7101328D6062701EE0042F1ED105
:100AA0002D4CBDF84620A378267804EBC3031E71B5
:100AB0002E4B012193FBF2F22846BDF8483092B24A
:100AC0000FF066FE2D4B0A2143F82600A37804EBB5
:100AD000C30251712278013222700133A370059B49
:100AE000029A93427FF437AE049B254F83F00102B4
:100AF000244B00241A70244B3C701D78A5F1170379
:100B0000022B54D8DFF884A0DFF88490DAF81C3088
:100B10000021185903EB040816F0E0FA002839D038
:100B20001A4B1A6A0693002A5FD159E0F8A201080D
:100B3000002C01400CA301081423002061030108CC
:100B4000E8040020BD04010821050108390301085B
:100B5000D4040020080400200C0C0020DD0501084E
:100B60007D050108B1050108B434002040420F00A2
:100B700000366E01FD040108ED0401086423002025
:100B80007B160020FC340020D00A0020B004002096
:100B9000080A002004EB090698E80F0086E80F0019
:100BA0003B7810340133C02C3B70AFD1B8E7944B85
:100BB00013F835E003EBC503D3F804C087F800E071
:100BC000BCF1000FACD0DFF87C827445A8DA2301B9
:100BD00003EB080663440FCB013486E80F00F4E70B
:100BE000884E3368DB0425D41EE0874B874A13F810
:100BF000350003EBC5035C681070002CF0D0844E08
:100C000000238342ECDAC3EBC3016218D2F800C0C0
:100C100001EB060E41F806C091880133AEF80410CE
:100C200092798EF80620ECE705F0EF03082B794B5C
:100C300024D125E03B78012BF6D9774C04EB031344
:100C400003F110071034A742EED04FF07C5154F856
:100C5000100C16F0AFF84FF07C5144F8100C54F81B
:100C6000140C16F0A7F84FF07C5144F8140C54F80B
:100C70000C0C16F09FF844F80C0CE3E70E2D08D18D
:100C80001A78182D42F010021A7008D113F0DEFE07
:100C900005E01A78192D22F010021A70F5E713F00A
:100CA000B7FE5E4A5E4D13781C2043F004031370B8
:100CB0002B78012B8BBF01270027002401240FF084
:100CC000DBFC584A1060584A177058B111228271E3
:100CD0000222C2710022944202720CBF122116211C
:100CE0000FF0F0FC00200FF0CBF822200FF0C4FC36
:100CF00015224E4C827101270222C2710772122105
:100D000020600FF0DFFC2068494C00210FF0BEFE90
:100D1000207E13F03FFB237E03F01F025B09022BB2
:100D200007FA02F706D0032B08D1424A13691F4382
:100D3000176103E03F4AD3681F43D760607D0FF01F
:100D40009BFC0C270B234FF00208C371877180F8BE
:100D50000880E07D0FF090FC0D23C371877180F84F
:100D60000880A07D0FF088FC8771C77180F808802B
:100D7000607D0FF081FC1B210FF0A4FCE07D0FF0E3
:100D80007BFC07210FF09EFCA07D0FF075FC1B2162
:100D90000FF098FC207D20B10FF06EFC13210FF0B6
:100DA00091FC2169244B99420AD103F56043DA682A
:100DB00042F48052DA60DA6822F48052DA6019E094
:100DC0001E4B994209D103F5EC331A6942F4804273
:100DD0001A611A6922F480420BE0194B994209D139
:100DE00003F5EA331A6942F400421A611A6922F4DF
:100DF00000421A61237F3BB30023184626E000BF60
:100E000004BA0108C419002020B90108A83500203F
:100E1000A9350020E1120020100A002049380020E6
:100E200031250020081C00200C1C0020041C002080
:100E3000180400200010024000300140003800403B
:100E4000003C0040080A0020012302200A8802F426
:100E5000415242F44572134303430B808B8B207D38
:100E600023F400631B041B0C8B8307230B820B886A
:100E70009BB243F040030B8018B10FF0FDFB0FF065
:100E800000FE2C200FF0F8FB8346069BC3F80401FC
:100E90009F238DF83430322000238DF835308DF8C3
:100EA00036308DF8373014F003F858460FF0E4FD73
:100EB00004220DA915A813F03DFB58460FF0E1FDE3
:100EC0009DF856309DF855201B0243EA02439DF8D9
:100ED00057201343C34A93421AD0322013F0E8FF3D
:100EE00058460FF0C9FDF52013F060FBFF2013F00A
:100EF0005DFB8DF8540058460FF0C3FD9DF854304B
:100F0000702B05D12B78022B02BFB74B03221A702E
:100F10002B78032B0CBF1F2002200CF0E0FF2B7856
:100F2000032B03D0012006F049FC07E002200DF05E
:100F30005DF80028F6D04388002BF3D0AB4C366820
:100F400095F8009014252A460021204619F02CF926
:100F500006F4004816F0020F06F40067204618BF9A
:100F60002570B8F1000F01D011236371B9F1010FA1
:100F700084BF152383720FB12123C3739C4CDFF808
:100F800094920F2700264FF0060814F8010C30B396
:100F90000FF072FB002580F80680C771057214F807
:100FA000010C0FF069FB29460FF08CFB294614F861
:100FB000012C90484B0010F81100904203D14B4493
:100FC00093F8ED3003E001310A29F2D10023072222
:100FD0002370E270731C01226670A270DEB20137CA
:100FE000FFB2132F04F10504CFD1834A492053687F
:100FF000824C43F44043536013F0CCF9202013F0AB
:10100000C9F97E480AF0F8F915A80AF0CAF97C4B2C
:10101000022E15937B4B28BF802216934FF00003BE
:1010200038BF1A461A924FF480721B924FF48062B6
:101030001C92202220461D9215A94FF400521E92A8
:101040001793189619931F930AF0B8F923686E48FE
:1010500043F0010323604368012E23F4702394BFFF
:101060000022012223F4807343EA02234360826852
:10107000664B5E4C134043F4602343F002038360ED
:10108000C36A04F1140E23F47002731EDBB242EA49
:101090000353C3621F2601230727E278002A4CD09E
:1010A00094F801C05D1CBCF1090FEDB294F8048006
:1010B0000DD9ACF10A02C16802EB420207FA02F94B
:1010C00021EA090108FA02F20A43C2600AE0016952
:1010D0000CEB4C0207FA02F921EA090108FA02F2C4
:1010E0000A430261062B0CD8591E426B01EB8101A9
:1010F00006FA01F322EA03020CFA01F111434163FB
:101100001AE00C2B0CD8DA1F016B02EB820206FAF4
:1011100002F321EA03030CFA02F21A4302630BE022
:101120000D3BC26A03EB830106FA01F322EA0302D4
:101130000CFA01F31343C3622B4605347445ACD15A
:10114000314B9A6842F480729A609A6842F00102C8
:101150009A609A6842F008029A6099682A4A0C07D5
:101160005AD5FAE7013B092B3FF6ADA90121084604
:101170000FF096FC13200FF07FFA044618238371BA
:101180000223C37105721221C9F884040FF09AFA80
:10119000012120460FF07AFC3C2013F089FE2946FD
:1011A00001200FF07DFC96F83E22194B9542BFF6C8
:1011B00081A9002108460FF073FC002120460FF0A2
:1011C00065FC782013F052FE012100200FF068FC2E
:1011D000012120460FF05AFC782013F047FE01351C
:1011E000E1E700BF15202000312500207C150020FC
:1011F0007D150020E4A30108001002400800024011
:101200004C2401409015002000240140FDF7F1FF1F
:10121000082F0020F8A20108936843F004039360AC
:1012200093688E495807FBD48B6843F4A0038B6006
:101230008B4BD3F8C801002840F05587D3F8CC2158
:10124000002A40F05087D3F8D031002B40F04B8774
:10125000834D844F95F8D53100260293B5F9EC31D2
:101260003E60039395F8D8317E60049395F8DA31A7
:10127000BE60182231467C48059395F8E98195F8BF
:10128000EA9118F091FF794B794C1B78DFF8FCA1BB
:10129000012B98BF013C0797764F182231460AF57B
:1012A00084703E8018F080FF069B2320C3F8204105
:1012B00013F0FEFD0DF122020121752009F024FA40
:1012C0005446BA46B8B16C4B0DF12302C4F80C3148
:1012D0006A4B0121C4F810313046432384F80831A9
:1012E00009F012FA9DF8233003F07E038DF82330C5
:1012F000002840D147E094F8243113BB14228BF826
:1013000006200E228BF807208BF808301321584650
:10131000C4F828B10FF0D6F9594A138823F04003D6
:101320001B041B0C1380138823F038031B041B0CB5
:10133000138013889BB243F040031380012384F889
:10134000243115AA0121752009F098FA9DF854302E
:10135000A3F17002012A01D9AF2B5BD105238AF8D2
:101360000030432384F80831464BC4F80C31464B17
:10137000C4F810314EE0682B05D101233B701D23CA
:1013800084F8083146E09DF822303A4A03F07E03A3
:10139000682B8DF8223039D13C4E02230621137080
:1013A0000846D6F80C3115AA98479DF859209DF8A3
:1013B000573092005B0003F0020302F004021A436C
:1013C0009DF8553003F00103134311D0012B01D1D7
:1013D000002202E0022B03D10122264B5A7019E0B1
:1013E00003F00303032BF7D0032013F06BFD11E090
:1013F000D6F80C310DAA01210C2098479DF8343005
:1014000013F00F03F0D0042BE6D1E1E7702B04BFFB
:10141000042313701E4900230B70164B1B78022BFC
:101420000BD1114A1B4810601B4850601B48D0600C
:101430001B48106101220A7047E0012B36D10A4A8D
:1014400018480B70106014480423506016489060D0
:101450001248D0601248106137E000BF00240140FC
:10146000082F002034250020B82500203125002039
:10147000F9A201084025002009A70008F7A30008E9
:10148000003800407DA80008ADA80008B004002086
:101490009C26002055AA000819A3000801A30008F3
:1014A00090C1793DD5A80008CDA20008043B012BCE
:1014B0001DD8CB4BCB4A1A60CB4A5A60CB4ADA6074
:1014C000CB4A1A6101230B700723CA4A41461370A5
:1014D000C94A0298136843F001031360059B4A460A
:1014E0000193049B0093039B10F0E8F910B90120CD
:1014F00013F0E8FCC14A01211378084643F00203C7
:1015000013700FF0CDFA002108460FF0C9FABC4F56
:101510000A2601200FF0A2F800200FF09FF81920F2
:1015200013F0C6FCD7F84835DFF8D4A213F4803F97
:1015300002D101200EF0A4FC192013F0B9FC002008
:101540000EF09EFC013EE4D1314630460FF0A8FA81
:10155000314601200FF0A4FAA74B1A68984612F002
:10156000080F0DD0012108460FF09AFAA54B1B6811
:101570009847314601200FF093FAA34B01221A70CD
:10158000A24BDFF85C921B68A14F187B15F0BEFBE5
:10159000A04915F00FFCA04915F004FB14F0C6FC9F
:1015A0009E4B9C491860D9F8100015F003FC9C4B29
:1015B0001860079B188915F0A9FB0146994815F09A
:1015C000ADFC994915F0AAFC984B186013F080FA0D
:1015D000974B1E22FF21184618F0E6FD0346954A58
:1015E00001211170002101703968D8F800E011F470
:1015F000800F01BF022010701B2058701EF0020FD8
:10160000CDF808900ED010784FF0010C03F800C010
:1016100000F1020C013082F800C0C0B24FF0020CA1
:1016200003F800C01EF0040F06D0107800F1010C82
:1016300082F800C003221A541EF00A0F12D0DFF8FD
:10164000F4E104209EF800204FF0050C9854501C43
:10165000C0B203F800C0D01C02328EF80000D2B233
:101660000620985411F4807FDFF8C8E106D09EF878
:101670000020501C8EF800001A2098549AF805009B
:10168000082801D00E2809D19EF8002002F1010C93
:101690008EF800C04FF00B0C03F802C09EF800203B
:1016A0004FF00C0802F1010C5FFA8CFC03F8028089
:1016B000CB038EF800C006D5931C5E4A13705C4BBA
:1016C0000E2203F80C2011F4002F594A09D09EF87D
:1016D000003003F1010C8EF800C04FF0190E02F833
:1016E00003E0544B4FF01D0893F800E011F4805FC5
:1016F0000EF1010C5FFA8CFC83F800C002F80E803A
:1017000009D00EF1020E83F800E0DFF824E14FF07B
:101710001C080EF80C8011F0200F09D093F800E09F
:101720000EF1010C83F800C04FF0070C02F80EC058
:1017300011F0040F09D093F800E00EF1010C83F8CA
:1017400000C04FF0100C02F80EC011F4802F09D029
:1017500093F800E00EF1010C83F800C04FF0120C7A
:1017600002F80EC049050BD59AF8CC1241B1197890
:1017700001F1010E83F800E04FF0130E02F801E0D2
:10178000182813D119784FF0160E02F801E001F174
:10179000010E5FFA8EFE4FF0170C02F80EC001F139
:1017A000030E0231C9B283F800E0505498220021A0
:1017B000214818F0F9FC0FF079FF204A204BB5F8CA
:1017C000DA101A601F4BDFF8888019801E49002349
:1017D0000B808B701D49DFF87CC00A603CE000BFC5
:1017E000B82500206DA9000819A3000801A300086E
:1017F00090C1793D10040020B02500204938002018
:10180000082F00209426002044380020CC18002007
:10181000C419002035FA8E3CDB0FC93FD02D0020C3
:10182000C02D00200AE81C4100401C460038002062
:101830002E1A00202D1A0020602400203C310020A8
:10184000600D00205E0D0020F81900200C1600200D
:10185000C8190020F41900209D4ADFF8D8E213705F
:10186000B5F8442211B2DCF8000028F8131000F596
:1018700096704EF823000133122B964DF3D1386841
:10188000C30458BFBAF95012E980934901F1500ED0
:1018900091F89934FBB991F89BC491F89C349C451C
:1018A00019D2BCF1000F08D00CF1FF3C0CEB8C0CF2
:1018B0000CEB8C0C0CF5617306E0013303EB830336
:1018C00003EB830303F5617391F89AC49BB20CF1A7
:1018D000040C25F81C3004317145D9D1030740F1BF
:1018E0005B819AF83C52082D00F25081DFE815F038
:1018F00009000C0013004400650086008600C80043
:10190000260145F2F05201E042F6F822734B1A80AC
:101910000FF085FF39E142F6F821704B1201198072
:101920000A2392FBF3F26E49A2F5B062002341F85C
:1019300023200133122BFAD16A496B4A40201160EF
:101940006A4A13700CF090FB0546002800F01E81D7
:1019500010F036FF9AF83D3295F900E0002B0CBFED
:101960000622072200280CBF0123032301920093C3
:1019700005465F4B5F4AA2E042F6F822574B4020F3
:101980001A805D4A584B1A60584B10221A700CF09E
:101990006BFB0546002800F0F98010F011FF0028CD
:1019A0000CBF01230323002295F900E0019200936C
:1019B00005464FF4E133514A81E042F6F822474BA5
:1019C00040201A804E4A484B1A60484B08221A7031
:1019D0000CF04AFB0546002800F0D88010F0F0FE1D
:1019E00000280CBF01230323002295F900E0019297
:1019F000009305464FF4E133424A60E042F6F82294
:101A0000364B4FF00C0E1A80384B3F483F49404A46
:101A100083F800E0062D4FF0000303700B70137085
:101A20000BD03C4B1B221A703B4B052283F800E085
:101A30003A4B4FF4E1381A7009E0364B21221A7004
:101A4000354BDFF8F48083F800E0344B1D70344AE6
:101A5000254B40201A600CF007FB0546002800F0DB
:101A6000958010F0ADFE00280CBF01230323002257
:101A700095F900E00192009305464346294A1EE08D
:101A800044F62062154B40201A80274A164B1A60F4
:101A9000164B0A221A700CF0E7FA0546002875D09A
:101AA00010F08EFE00280CBF0123032395F900E0FF
:101AB0000546002201921D4A00934FF4E133402174
:101AC00070460CF03DFA002D5CD0194B186059E0BF
:101AD0002C0D0020C8190020082F00203E090020EE
:101AE0006C1400200DAD00080C04002024250020FB
:101AF000A086010055AF0008CDAC000859AE000823
:101B0000B5AC000811AE0008FA130020B91400208B
:101B1000B8140020BA140020F9130020BB140020D0
:101B2000F5AB00083DAD000811F0000801F1000818
:101B30002C250020E40C002090D0030041F27C52C0
:101B40004B4B00251A804B4A4B4B40201A604B4BA5
:101B500010221A704A4B28221D704A4B1A700CF042
:101B600083FA98B1032390F90000474A0195009346
:101B70004021464B0CF0E4F9454D012128600EF060
:101B800090FB2868003018BF012028B908200EF00B
:101B9000E3FF404A384B1A6042F201033968374A82
:101BA0000B408BB144F62060314B8D04188004D576
:101BB000082313703848304B1860C80704D50C232D
:101BC000137036482C4B186013780025043B537073
:101BD000334A344B11F4803FC2F82C31324B9046DB
:101BE0001D7000F0FD80039313F012FA039B4FF079
:101BF000010940F22A32294608F5987083F80090CE
:101C000018F0D2FA294B2A495869D1F888200243A2
:101C10005A61284AC1F88C50C1F8802091F885207B
:101C200015A803938DF854208DF855908DF85650D3
:101C30008DF8579012F0CCFB16200EF01DFD1621EA
:101C400081710221C17105721B21C8F85C040EF07C
:101C500039FD039B18481949EA0001F1BC0E5EF8F2
:101C600035E086452CD10A4492F8C0002CE000BF34
:101C70003E090020F9EF00080C0400202425002074
:101C80005C1900205D19002021F0000848E80100DF
:101C9000E4120020DDEF0008EDEF0008E1EF00089E
:101CA000B0040020E831002050380020001002402D
:101CB000600300201193000800040040F8A201080E
:101CC0000135042DC7D10020039312F063FBBF4AF6
:101CD000BF491268BF4DB2FBF1F22988013A21F4E5
:101CE0005C710904090C298092B21D21A9852A85FD
:101CF0000122AA82298C049221F001010904090C15
:101D00002984298CB5F804E0288B21F0020120F009
:101D1000730000040904000C090C11434FF0000982
:101D20001FFA8EFE40F06000A5F804E02883A5F8B5
:101D300034902984298B039B21F008010904090CA4
:101D400041F008012983B5F844106FEA41416FEA78
:101D5000514189B2A5F844105969114359619E4B0C
:101D60001846039309F048FB15A809F01AFB9B4994
:101D7000039B15919A49184616911021179140F22C
:101D80002A31189180211A914FF480711B914FF4E0
:101D900000511E9115A9CDF86490CDF87090CDF842
:101DA0007490CDF87C9009F009FBA989039B89B256
:101DB00041F40071A9811968049A41F00201196087
:101DC000884988F86024FF22731826F801900436A9
:101DD000802E9A70DA70F7D107F02CFF07F02AFFF7
:101DE0003B685B0553D5804E804B326804201A60F7
:101DF0000CF03AF90421C4F864040CF00BF93268D1
:101E00007B4B84F8680408201A600CF02DF9794B9C
:101E1000082118600CF0FEF8774D002184F8690461
:101E20002C22284618F0C0F97C232B708E236B706F
:101E3000E023EB707D23326885F82B306F4B202038
:101E40001A600CF011F92021C4F86C040CF0E2F8CF
:101E500084F8700410200CF007F91021C4F8740401
:101E60000CF0D8F8664B3B221A7001225A703A22C5
:101E70001A719F229A711E221A72A4225A7200228B
:101E80009A72DA721A7384F8780410F0A6FC5D4B2B
:101E90005D4C1B78022B7DD12588002D7AD10F2334
:101EA0008BF806300E2313218BF8073058468BF839
:101EB0000850C8F87CB40EF005FC58460EF0E1FD61
:101EC000524A3220138823F040031B041B0C13805A
:101ED000138823F038031B041B0C138013889BB258
:101EE00043F0400313809F238DF834308DF8355034
:101EF0008DF836508DF8375012F0DAFF58468DF8CD
:101F000055500EF0B9FD04220DA915A812F012FBD0
:101F100058460EF0B6FD9DF856309DF855201B0230
:101F200043EA02429DF857301343394A934217D08F
:101F30000CDC384A934215D00132934217D0A2F5F7
:101F40001A42033A934220D120230CE0324A9342B2
:101F500008D0013293420AD0304A934215D101E0B1
:101F6000402300E0802323804FF4807302E04FF48D
:101F7000807323806380A38822881B02A36053435D
:101F8000E360012388F8803404E000232380638029
:101F9000A360E360E568002D4FD0ED0A2E464FF0B8
:101FA00000080DF15409A84509DA08EB050464108E
:101FB00010224946E00207F001FE0F2832DC07F04C
:101FC000BFFD174BF6021E6037E000BF5C03002028
:101FD00000366E01000400406C00024034040040F2
:101FE000E005002052380020A41800205C120020D8
:101FF0009C120020B81200206C120020D012002089
:10200000F824002031250020840000200038004002
:102010001620C20017BA20001740EF001720C20098
:1020200008130020002359F82320013257D101332F
:10203000042BF8D125462646B5E7BAF8D831704AC0
:10204000013B9BB2052B9EBF012382F8E63182F84B
:10205000DA31029A9AF8E63152695343694A1360B9
:102060003B68694A13F4002318BF01231370644BC3
:102070005A791C46052A02BF644B4FF4C8721A8075
:1020800009F058FA624BC8221A80624A137843F06A
:1020900008031370604A137823F00203137040F6AC
:1020A00002033A6813406BB15C4A5D4B1A605D4BAA
:1020B00003221A705C4B01221A705C4A00231380C1
:1020C0005B4A1380A36801223B605A4B1A705A4A3C
:1020D000137863F07F03137021B0BDE8F08F04F133
:1020E00001083446A7E7554B00221A7000B214F0DD
:1020F0000DFE534914F05EFE414C0646B4F9CC0186
:1021000014F004FE4E4914F055FE0546B4F9D00112
:1021100014F0FCFD4A4914F04DFE4A49044630468D
:1021200014F040FD13F002FF8046304613F0FEFE2F
:1021300044490646284614F035FD13F0F7FE0746DD
:10214000284613F0F3FE3F490546204614F02AFDC9
:1021500013F0ECFE8246204613F0E8FE414681462D
:10216000504614F027FE41460290484614F022FEE5
:1021700051460390304614F01DFE49460490304607
:1021800014F018FE39460590504614F013FE2E4CFC
:102190004946206007F1004014F00CFE049960608D
:1021A000A560284614F006FE039914F0FBFC05997F
:1021B000E060284614F0FEFD0146029814F0F0FCA1
:1021C0003946206106F1004014F0F4FD0299606187
:1021D000284614F0EFFD0146059814F0E1FC039940
:1021E000A061284614F0E6FD049914F0DBFC41469A
:1021F000E061384614F0DEFD2062FFF729B800BF29
:10220000082F00207C16002056180020740D002096
:10221000D8370020E11200202C1A00201A310020AB
:1022200074150020021C0020580300206C2E002092
:102230006E2E0020D80B002049380020A40000207A
:1022400035FA8E3CDB0FC93F50150020694B2DE954
:10225000F04F1B68A3B09A6A674B1A80674B1978D6
:102260000793012904D1664B1A80664A12885A8066
:10227000654B1A780593002A01F0268112F0DAFDE9
:10228000624B06909B6813B1059A901C9847604B6F
:10229000604DD3F8008018F0080F38D05E485F4AD0
:1022A000848804F10E039BB21C2B5D4BB3F9043000
:1022B00029D85C4909884E0725D50A2193FBF1F1FD
:1022C0001288594B891A89B20AB212F1B30FBCBFF6
:1022D00001F5B4710AB2B32A1B78C4BFA2F5B47277
:1022E00012B2190713D595F9D411504B49424A43FC
:1022F0001B6812B25B7A5A436FF01D0392FBF3F333
:102300002344838003E00A2193FBF1F31380484BBD
:10231000B3F90640474B1B685A8994420CDB197A83
:10232000B4F5FA6FBFBFA31A4B43C2F5FA6193FB32
:10233000F1F1C1F1640100E0642140F2E63995F960
:10234000D431B5F8440295F822E295F823C25B42F5
:10235000314D1FFA83FB0022374B5700D154344BC9
:1023600033F91260331A03F2F31ACA450ED8002B60
:10237000B8BF5B42022A0DD0734502DDCEEB0303EA
:1023800000E000238642EB530EDB10E0022A4FF4FC
:10239000FA73F3D16345CCBFCCEB0303002303FBFB
:1023A0000BF38642AB8005DAEB5B5B42EB53013209
:1023B000032AD1D1214B1D6815F480550ED0B4F5F8
:1023C0007A7F06DBB4F5FA6F2246A8BF4FF4FA62B3
:1023D00001E04FF47A72A2F57A723AE00D4BB3F84D
:1023E00046128C422CDBB4F5FA6F2246A8BF4FF49C
:1023F000FA6226E004160020001C00209A15002036
:102400009C150020B813002038090020B8250020B2
:10241000B0250020082F00205C1600207A0D002037
:1024200064160020241A0020E11200204813002026
:10243000C81900204824002078160020C419002064
:102440000A46521A4FF47A735A43C1F5FA61B2FB45
:10245000F1F2642392FBF3F1A34F01F1010E37F97E
:10246000116037F91E706FF0630E0EFB0121BF1B68
:1024700001FB07F292FBF3F293199C4A9BB2D380C3
:10248000B5B19B4A1268D20012D59A4AD2787AB96D
:10249000A3F57A731BB24FF47A721B0393FBF2F32A
:1024A000C0F5FA6212B2534300EB23308F4BD88051
:1024B000914D2F887B0645D5904B0A20B3F9043007
:1024C00093FBF0F08E4B1B88C01A00B214F01EFC78
:1024D0008C4914F06FFC8C49064614F063FB13F032
:1024E00025FD8346304613F021FD804E8146B6F926
:1024F000020014F00BFC8246B6F9000014F006FC52
:102500005946099014F056FC51460890484614F07C
:1025100051FC089A0146104614F042FB14F026FEC6
:1025200059463080504614F045FC099B82461946B6
:10253000484614F03FFC0146504614F033FB14F0BB
:1025400015FE708018F0140F704EDFF8F08166D021
:1025500017F4027F63D06E4B644A1B7803F01003BC
:1025600003F0FF0E43B16B4B98F99402196853883E
:1025700000FB0133538052E0674B68491B68D878F1
:102580009B7808B3B1F90010601A0028B8BF404228
:1025900098420DDD62488C42C0F800E04FF0010027
:1025A0003071C8BF5B42D0889BB20344D38036E011
:1025B00033792BB15B4B86F804E018685A4B1860EE
:1025C000544B1B680B441FE0B1F900E0CEEB040153
:1025D00081EAE17CACEBE17C9C4509DD022391FBC7
:1025E000F3F1524B1960524901230B70337108E02B
:1025F000337933B14B4B307119684B4B19604C4BED
:102600001870444B1B6873444A4908680188408825
:102610008B4203DB98420146A8BF1946D180464B46
:102620001B78B3B1B8F84632A34212DB434B5B7957
:10263000012B01D0192B02D198F88F224AB90E2B09
:1026400007D0082B05D0294B00229A803C4B002252
:102650009A6098F810426CB3BF072BD0394B3A49B7
:102660001F6A384614F04EFDF8B9384615F068FB7D
:10267000364B196814F09EFB15F0E8FAB0F5617F4F
:10268000A8BF4FF4617014F041FB314914F046FCCF
:1026900013F04CFC0746204614F038FB394614F082
:1026A00089FB15F0D3FA00B200E000200F4AD3886E
:1026B0001844D08098F84A32264A1BB92988002944
:1026C00000F0AB801278094D002A00F08980022BBF
:1026D00042D0032B52D198F84B32C3EB431203EB99
:1026E0008203DB0048E000BF3E1800205C1600209B
:1026F000281A0020F8190020241A0020641600204F
:102700007C0D002035FA8E3CDB0FC93F38090020D4
:10271000E11200201C380020E4180020800D002069
:1027200018380020043800200C3800201038002011
:1027300020380020E818002050030020082F002037
:1027400050160020303600208FC2753CD81800206B
:10275000EFB6B0447E0D0020AB4BD3F8F820B2F5B5
:102760007A7F05DB44F620639342A8BF134601E05D
:102770004FF47A7303F57A739BB200E0F388A34AAF
:102780001068A34AB3FBF0F01278441C24B2092A63
:10279000348105D19F4A2988D3801180698851806E
:1027A000B6F90A80DFF8889200239B4E39F913E0CE
:1027B00006F10C0C3CF9131006F1140708FB01F1AB
:1027C00091FBF4F137F8132027F813E0C2EB0E0267
:1027D0000A442CF813200133042BE6D1708102E067
:1027E0007389013B73818C4A0023B2F90A40002CA3
:1027F00011DDB2F908601432884932F8130031F95A
:102800001310614391FBF6F1411A25F813100133BF
:10281000042BF1D106E0538104E013787181002B81
:1028200000F0AA807E4B93F84C0220B17D4B1B68D0
:102830009E0001F125847C4B00241F68079B07F153
:1028400004091B780593794B1B681B780793022CAE
:10285000774B15BF3878787897F8028097F8098019
:1028600033F9145014F052FA724914F057FB4FF038
:1028700080414FEA440B064614F058FC60B14FF01B
:102880008041304614F08CF96B4914F093FA0146FC
:10289000304614F087F90646284614F037FA67499F
:1028A00014F03CFB0021824614F040FC002841F06B
:1028B00045840AF10045624AA300089342F8245077
:1028C000B8F1000F23D0404614F020FA594914F013
:1028D00025FB80462946284614F06CFA294614F058
:1028E00069FA414614F066FA414608904FF07E506E
:1028F00014F056F9294614F05DFA089A014610467C
:1029000014F050F90146504614F054FA82464D49ED
:10291000304614F04FFA514614F04CFA064619F8B6
:10292000010F002841F00D84059B0C2B05D130468A
:1029300014F01CFC374B23F80B00079B002B41F0D5
:102940004A844149304614F035FA4049064614F0AD
:10295000CFFB002841F04E843D49304614F0E6FBA1
:1029600000B13B4EA2003B4B0134032CD6507FF408
:102970006EAF394B00221A70384B1878002840F09F
:102980009685374E33681C0340F19185354C23788A
:10299000033B052B1CD8224B1F4D93F8453533B113
:1029A000012B08D106F0E2FFC0F17F0003E0686A66
:1029B00003689B689847AB6A95F82C201344B3F5DD
:1029C000807FA8BF4FF480738342D4BFAB62A862FC
:1029D0002378023B092B00F2CF84DFE813F00A00D2
:1029E00047007900CD04CD049200A5007E04A00428
:1029F000B004094B00229A621A631B4A12685A6398
:102A0000032300F0B8BC00BFA80000207C16002003
:102A10009A1500209C150020380900204409002048
:102A2000082F0020281A00204824002048130020E6
:102A30005C1600200000C842D7A368410000FA439A
:102A4000BC170020000048433333834000F0FFC52B
:102A500000F0FF45501600207E0D0020441300209A
:102A6000C419002056180020F41900209A4B9B4DE1
:102A70001A686B6B6433934280F07E84402012F0BE
:102A800029FB002840F078842F46DFF854924FF05D
:102A900040082B6B19F8030060B112F0F5FBBB6A1C
:102AA000B8F1010803F1FF33BB623B6B03F1010393
:102AB0003B63EED12A6B8A49884B8A5C002A40F03E
:102AC0005B841A634FF0FF325A63042300F053BC57
:102AD000844A5021A2F10C0301932923029200930E
:102AE0004920A2F10A03163A10F032FA002840F009
:102AF00043847A4B4FF0FF3218635A63072300F088
:102B00003ABC05230093784B002102910191A3F177
:102B10000802532010F01CFA002840F02D846F4B5F
:102B20001863082300F027BC402012F0D3FA0028D5
:102B300040F02284694D2B6B4C2B01F26183DFE85E
:102B400013F04D005000550059005C006300680010
:102B50006D007100750081008A008D009A009E0052
:102B6000A300A800B9000D011E012F014001510171
:102B700062017301870191019F01AD01BB01C90190
:102B8000D701E501F30101020B021B022502370206
:102B900049025B026D02770281028B0295029F025D
:102BA000E702F102FB0205030F03190323032D03C0
:102BB0003703410346034B035003550362036F037E
:102BC0007C0387038C03910396039B03A003A50357
:102BD000AA03AF03B403B903BE03C3034349444884
:102BE00075E3444B444A45494548C2E1454A464994
:102BF00046483DE04649474869E3474B474893F814
:102C0000442593F8431533E0434B4548B3F8CC10C3
:102C10005DE3414B4348B3F8CE1058E3424B434881
:102C2000196954E3424B4348198950E3AB6BD9040B
:102C300004D5394B404893F8121248E3274B0B2236
:102C40001A6346E334493D4891F8153291F817224A
:102C500091F816128DE1A98F394838E333681A05C7
:102C600040F137832C4B3748B3F91A22B3F81C12C2
:102C700012F0E5FB2DE32C4B3348596927E3264B33
:102C8000324893F8DA1122E3234B314893F8E611E6
:102C90001DE32148642290F8983402FB03F14318A5
:102CA00093F80E240C2303FB0213034493F810142F
:102CB00028480CE31848642290F8983402FB03F18A
:102CC000431893F80E240C2303FB0213034493F8D8
:102CD00012142148FBE200BFF4190020380900203B
:102CE00064A40108DAA40108B8A60108ECC501082B
:102CF000F8C5010809C601080EC6010816C6010874
:102D00001CC6010844C601084DC6010859C6010881
:102D10005A3400206DC60108082F00207BC6010828
:102D20008CC601089BC60108B8250020AAC6010868
:102D300034250020BAC60108C4C60108D1C601085E
:102D4000EAC60108F5C6010808C7010814C701084A
:102D500027C701083CC7010846C70108CD486422BF
:102D600090F8983402FB03F1431893F80E240C23D7
:102D700003FB0213034493F81114C748A7E2C548A4
:102D8000642290F8983402FB03F1431893F80E2460
:102D90000C2303FB0213034493F81914BF4896E273
:102DA000BC48642290F8983402FB03F1431893F86E
:102DB0000E240C2303FB0213034493F81314B848A6
:102DC00085E2B448642290F8983402FB03F143187A
:102DD00093F80E240C2303FB0213034493F81414FA
:102DE000B04874E2AB48642290F8983402FB03F1D7
:102DF000431893F80E240C2303FB0213034493F8A7
:102E00001814A94863E2A348642290F8983402FB9E
:102E100003F1431893F80E240C2303FB021303441D
:102E2000B3F81A14A14852E29A48642390F898140F
:102E30004B43C21892F80E240C2101FB0233C11837
:102E400091F8173491F81624994891F8151490E0E8
:102E5000904B642193F89824964801FB023393F831
:102E6000D01334E28B4A642192F89834924801FBE3
:102E7000032191F8E53391F8DB2391F8D11378E041
:102E8000844A642192F898348C4801FB032191F81C
:102E9000E63391F8DC2391F8D2136AE07D4A64218D
:102EA00092F89834864801FB032191F8E73391F8B2
:102EB000DD2391F8D3135CE0764A642192F89834CC
:102EC000804801FB032191F8E83391F8DE2391F863
:102ED000D4134EE06F4A642192F898347A4801FB8B
:102EE000032191F8E93391F8DF2391F8D51340E0FD
:102EF000684A642192F89834744801FB032191F8E0
:102F0000EA3391F8E02391F8D61332E0614A642164
:102F100092F898346E4801FB032191F8EB3391F855
:102F2000E12391F8D71324E05A4A642192F89834A7
:102F3000684801FB032191F8EC3391F8E22391F802
:102F4000D81316E0534B642193F89824624801FB90
:102F5000023393F8D913BAE14E4A642192F89834B7
:102F60005E4801FB032191F8EE3391F8E42391F8D8
:102F7000DA1312F064FAACE1464B642193F898241A
:102F8000574801FB023393F8EF13A0E1414B642152
:102F900093F8982401FB0233B3F8F00313F0B6FE64
:102FA000504913F007FF14F0E1F801464E488EE156
:102FB000384B642193F8982401FB0233B3F8F203F1
:102FC00013F0A4FE474913F0F5FE14F0CFF80146C4
:102FD00046487CE12F4B642193F8982401FB02338F
:102FE000B3F8F40313F092FE3E4913F0E3FE14F03D
:102FF000BDF801463E486AE1264B642193F89824C7
:1030000001FB0233B3F8F60313F080FE354913F0E9
:10301000D1FE14F0ABF80146364858E11D4B64214F
:1030200093F89824344801FB023393F8F8134EE1E7
:10303000184B642193F89824304801FB0233B3F80D
:10304000FA1344E1134B642193F898242C4801FBB4
:103050000233B3F8FC133AE10E4B642193F8982441
:10306000284801FB0233B3F8FE1330E1094B642119
:1030700093F89824244801FB023393F8001426E1C6
:10308000044B642193F89824204801FB023393F801
:1030900001141CE1082F002050C701085DC701087A
:1030A0006AC7010874C701087FC701088CC70108F7
:1030B0009EC70108ADC70108BEC70108CFC70108F8
:1030C000E1C70108F1C7010801C8010811C80108DA
:1030D00022C8010833C8010845C8010835C80108DD
:1030E0004FC801080000C84264C8010874C801083C
:1030F00082C8010894C80108AAC80108B9C8010813
:10310000D5C80108EBC80108FAC8010811C90108AF
:10311000A14B642193F89824A04801FB023393F853
:103120000214D4E09C4B642193F898249C4801FB42
:10313000023393F80314CAE0974B642193F8982460
:10314000984801FB023393F80414C0E0924B6421C9
:1031500093F89824944801FB023393F80514B6E0E1
:103160008D4B642193F89824904801FB023393F827
:103170000614ACE0884B642193F898248C4801FB3A
:10318000023393F80714A2E0834B642193F8982448
:10319000884801FB023393F8081498E07E4B6421C1
:1031A00093F89824844801FB0233B3F80A148EE0A4
:1031B000794B642193F89824804801FB0233B3F8DB
:1031C0000C1484E0744B7E4893F822127FE0724B1B
:1031D0007C4893F823127AE06F4B7B48B3F8D81100
:1031E00075E06D4B794893F8DB1170E06A4B93F80A
:1031F000DC0113F08BFD764913F0DCFD13F0B6FF14
:103200000146744863E0644BB3F8DE0113F07EFDC1
:103210006F4913F0CFFD13F0A9FF01466E4856E049
:103220005D4BB3F8E00113F071FD694913F0C2FD85
:1032300013F09CFF0146694849E0574B6449D3F8B5
:10324000F40113F0B7FD13F091FF014664483EE02E
:10325000514B644893F8D51139E04F4B624893F8CD
:10326000EA1134E04C4B614893F8E9112FE04A4BE6
:103270005F4893F889122AE0474B5E4893F84A1258
:1032800025E0454B5C4893F84B1220E0424B5B48ED
:10329000B3F84E121BE0404B594893F83C1216E02D
:1032A0003D4B584893F8E11011E03B4B564893F8DA
:1032B000E0100CE0384B5548B3F8DC1007E0364B13
:1032C000534893F8E71102E0334B5248996812F0E3
:1032D000B6F82B6B01332B634EE04F4B1B689B0101
:1032E0001AD54E4DB5F84030B3B94D4BD5F84480A2
:1032F00045201F6811F0C8FF0E2011F0C5FF4046A1
:1033000012F07DF8384612F07AF84FF48053EB87CC
:103310000A2323700FF05AFB0FF0F8FD2CE03F4B0F
:1033200093F84820002AF5D03B4A12689701F1D45F
:1033300093F84930002BEDD109232370ECE7394B8A
:10334000364D1A686B6BC833934204D2124B93F814
:1033500045757FB904E011F003FF0028F6D10BE0BA
:10336000686A0AF0D9FD95F84A306F62022B01D1E4
:103370000EF09CF90123237011F0DCFE002853D0DD
:1033800001232370254B93F84920002A00F08F80F9
:10339000002283F849208AE0082F00202AC901086A
:1033A0003EC901084FC9010869C9010884C901085B
:1033B00099C90108B0C90108C7C90108DCC90108D9
:1033C000F2C90108EEC90108FEC901080ACA0108CC
:1033D0000000C8421CCA01082FCA010840CA0108DF
:1033E00055CA010863CA010873CA010884CA0108E2
:1033F00094CA0108ADCA0108C1CA0108DECA0108A1
:10340000FBCA010810CB010825CB01083ACB010803
:103410004CCB01085ACB0108281A0020380900209B
:10342000D0370020F4190020794B93F8462519462F
:10343000002A3CD033680026DD0433464CBFB1F887
:10344000D820B1F8D020734D35F9130001339042E4
:1034500018BF46F001060C2BF6D16F4B6F4D1B6861
:1034600026B103F59C530833EB6402E0EA6C9A4200
:1034700013D92378012B1AD195F84930BBB991F8AB
:1034800045352BB106F060F8012385F849300EE090
:1034900080200EF003F950B9F4E72378012B06D011
:1034A00095F849301BB106F021F885F849605C4B6E
:1034B0001B78072B05D111F0BDFC069BC01A594B98
:1034C0005880564B00221A70574C13AD636828463B
:1034D0009847A046002800F03E81514A514F147889
:1034E0000792524A0023032C08BF52F823004FEAE8
:1034F000830108BF27F8130035F913000133032BAC
:103500004A4E5050EFD14A4B48491A78084608F0C5
:1035100025F8484B1B88002B00F0B980464B474DDF
:103520001B6805F10C041B7800270593414BD8F864
:1035300014201B8856F8270006934FF47A73B3FBC8
:10354000F2F3C3EB431203EB8203DB00069A9BB258
:103550009A4202BF00232B6023612B684FEA870A3F
:1035600003442B6013F0D2FB226902F10109B9F187
:10357000010FC4F8109004D1002360602060A360A4
:1035800022E0226809901146089213F009FB834655
:10359000484613F0BBFB0146584613F0BFFC089A9F
:1035A000114613F0FFFA099B0146814660601846F8
:1035B00013F0F6FA594613F0FDFBA16813F0F2FA86
:1035C000C4F80090E060A0601D4A002346F80A306D
:1035D0004AF80230069B012B48D12069012807DDFB
:1035E000013813F093FB0146E06813F097FC00E00C
:1035F000002014F0EBFD059B81461BB3184613F029
:1036000085FB494613F074FDE0B107F093FF3EE0FF
:10361000082F0020EC120020F419002038090020A7
:103620009A1500209C150020B82500206C1600205B
:103630009C26002040150020A018002088090020AA
:10364000D0090020D8F814204FF47A73B3FBF2F3BA
:10365000C3EB431203EB8203DB002A689BB202EB4D
:10366000530292FBF3F3A44A42F80A300137032FC6
:1036700005F1040504F114047FF458AF9F4C208831
:10368000012801D10AF0DAFD2388013B23809A4802
:10369000002356F8232050F82310994C521A46F86C
:1036A00023200133032BF4D1964B974F1A78984679
:1036B000002A44D0DFF8A8B2DFF87C92002456F844
:1036C000240013F023FB914BA5001B8801462BB16E
:1036D0001C2000FB04B012F097FC0146079B1B78EE
:1036E000082B0DD1022C0BD07259084625F8092061
:1036F000059114F0ABFA05EB090A0599AAF8020046
:10370000834B1B78012B06D1824B1C2000FB04301D
:1037100012F07AFC0AE0804B80484FF00C0E1B68D8
:1037200098F800200EFB040012F05AFD78517859E9
:1037300014F08CFA0134032C7051C0D10BE02068D6
:1037400013F0E4FA3860606813F0E0FA7860A0687B
:1037500013F0DCFAB860724A92F8C830144623B10C
:10376000013B82F8C83000F056BD6E4B93F8DC2167
:103770001E4622B193F8E631013BDBB200E00123A3
:1037800084F8C83011F056FB674B684DD3F80080C1
:10379000674BB6F82612A3F1460207462868C047D1
:1037A000644B1A781E46072A04D111F043FB624B82
:1037B000C01B988011F03EFB96F800A00690BAF16D
:1037C000010F0AD15D49D4F8CC305B4A0968C31AAD
:1037D00093805B1AD380C4F8CC00594B2A681B68CD
:1037E000E3B192F83140D4B1564A1268940718D523
:1037F000554A1278012A14D9DB7854495A4309886A
:10380000D31A994215B203DB91420B46A8BF134667
:103810002D031BB295FBF3F5012405E01C4625465C
:1038200002E001244FF48055494BDB780E932CB114
:10383000BDF954306B431B13ADF854304FF0000802
:1038400046464746434BDFF81C911B780593424B95
:10385000B3F902200992B3F90020B3F904300A92B7
:103860003E4A07931268344B0892059A97427BD2DE
:1038700009980B9313F04AFAD9F8081013F09AFA42
:1038800083460A9813F042FAD9F8041013F092FA1A
:103890000146584613F086F9089B834693F90000C9
:1038A000079B4042584313F031FAD9F80C1013F03B
:1038B00081FA0146584613F075F913F057FC15AA22
:1038C00000B20B9B0CB16843001322F8170015AA35
:1038D00032F91720B24203DC9045A8BF904600E0C1
:1038E0001646BAF1050F03D1042F98BF23F817200D
:1038F000013709F11009B8E7D00900204015002070
:103900006C160020D0250020B0170020D8250020FC
:10391000302600203426002088260020DC090020E4
:1039200038090020082F00205403002048130020ED
:103930003C3100209A1500209C1500207C160020A8
:1039400074150020C419002058030020C41500205D
:10395000F81900207B16002014170020B41800204E
:10396000DC250020080A00208A4BC8EB06061968EF
:1039700036B211F480530893874A40D0874B884869
:103980001B78B2F9062013F0040F08BF0368854FB7
:1039900002BF1C8A834BA3F89041036882481B8AAC
:1039A0000068824CC588C5EB030E724508DCB0F98F
:1039B00000302068A7F89021B0F9004015440AE0D3
:1039C0002B449A4209DB2368B0F90240B3F9023074
:1039D000A7F89021551B2DB219E0B7F990319E45FB
:1039E000B3BF2368B0F900302268B0F90240A7BF26
:1039F000B2F900401D46B3F90230254607E06B4B93
:103A0000B2F906501B68B3F90040B3F902309BB21B
:103A1000A4B21A1B12B2964262481BDD4FEA02386A
:103A200098FBF6F60027C0F89461059BBB420AD9C3
:103A300015AB33F917E006FB0EFE4FEA2E3E23F8D6
:103A400017E00137F1E7022392FBF3F2144424B2AA
:103A50000B9408E04FF0020896FBF8F69B1B3444E9
:103A60001BB224B20B93B0F99031504A0D931768F2
:103A70004B4B4A4AD3F800A016784B4B4C4AD3F82C
:103A800000B0B2F9063006F004060C93059BDFF88F
:103A900038815B000F9301F01003F6B24FF000097C
:103AA00010930F9B99454CD015AA39F8022028464F
:103AB000119213F02BF93F4B53F8391013F07AF9A8
:103AC00013F054FBA0422146119A04DB0B9B834266
:103AD000A8BF034619460A440E9B12B228F8022FCB
:103AE0000BB1B98811E0089B73B1BAF81010BBF89C
:103AF00006000D9B091A8B4203DC3988BBF80000D5
:103B000004E0BBF8021000E0398878888A4203DBC1
:103B100090420146A8BF1146109BA8F800106BB157
:103B200066B1089B53B90AF063FB38B9BAF81220A2
:103B30000C9B9342BCBFBA88A8F8002009F1020987
:103B4000AFE716B91C4B1D4A06E0164B93F89821B7
:103B5000192A00F2418108E00599B142F5D932F8FD
:103B6000161023F816100136F6E7012303FA02F2C5
:103B7000134B1340002B00F02F81124B1B88D805EC
:103B800024D5054B1A88ADF86C205A889B88ADF86F
:103B90006E2030E0C41900205C1600202C1A002092
:103BA000B818002038090020A0350020A4350020D6
:103BB000C8190020080A0020E4340020EC1200207C
:103BC00032413003241A0020E2340020BDF82830AE
:103BD000ADF86C30BDF82430ADF86E30BDF81C3057
:103BE000ADF87030089B43B1BAF810300C9A9A4285
:103BF00003DA079B5B42ADF87030AA484FF47A7243
:103C0000B0F902304FF4616103F5E163534393FB74
:103C1000F1F3A3F5FA73ADF88430B0F9003003F591
:103C2000E1635A4392FBF1F29F4BA2F5FA721B88B3
:103C3000ADF88620A3F2DC53ADF872309B4B9C4A62
:103C40001B6811881B8AC91AADF874105188C91AEB
:103C5000ADF876109188C91AADF87810D188C91AD4
:103C6000ADF87A101189C91AADF87C105189C91ABA
:103C7000ADF87E109189D289C91AD31AADF8823075
:103C80000023ADF8801019468A4A22F81310013338
:103C9000082BFAD1884B89491B68894D0593894BBC
:103CA000DFF810A21B684FF0640E0793864B4FF0AD
:103CB00001091B78C3EBC303CB180A930A9B8B4201
:103CC00070D00B782BB11533059A09FA03F3134022
:103CD00064D0079B11F806CC0E2202FB0C38B8F911
:103CE0000230B8F9002011F9010C9A1A11F9023CBE
:103CF00092B2534393FBFEF34FEA520B11F8057C4B
:103D0000CBEB0303099011F8030C1BB208937E0060
:103D100028B922A8064436F81C0C288019E022ABEA
:103D20001E44B5F9004036F91C6CB44208DA204450
:103D3000844203DC86423446A8BF04462C8008E057
:103D400007DD201AB04203DB8442A8BF04462646A2
:103D50002E80D8F80A0009FA07F73842B5F9006052
:103D600011F9040C089B00FB06F090FBFEF00CBF61
:103D700001244FF0FF34984209DB099B5A4392FB20
:103D8000FEF2CBEB02031BB28342A8BF03463AF814
:103D90001CB004FB03B32AF81C3000E02B80023572
:103DA00007318BE7474B494ED3F8008000254FF091
:103DB0000E09642709FB058393F9064036F9023F93
:103DC000E8B25C4394FBF7F4348010F067FE0135F1
:103DD0002044082D3080EDD13D4EDFF8E880336877
:103DE00013F0200F31D0002010F058FE314C054662
:103DF0002080012010F052FE2F4B60801B681906B6
:103E000023D5344B274A1B681B78012B23D1D8F8C4
:103E100000C0B2F902109CF906304FF0320E5B423E
:103E20004B4393FBFEF3B2F900209FB29CF9143090
:103E30006FF03101534393FBF1F193FBFEF33944EF
:103E4000691A3B44218018446080D8F800301F4A2A
:103E500003F1700419E0D8F80070B2F9023097F954
:103E600006105943322391FBF3F12944218097F93D
:103E70001450B2F9001001FB05F292FBF3F210446A
:103E8000E2E70E339C42118026D032F9020FB3F9DB
:103E90000010B3F902508842F3DB85422946A8BFDF
:103EA0000146EEE764160020E4340020B818002034
:103EB000C8190020F80B0020281A0020AF35002078
:103EC000D20A002020360020A8350020F60B002062
:103ED000C4190020B0180020A74FA84D3B6893F9E3
:103EE0000430ABB995F8988108F1FF33182B00F234
:103EF0009280DFE803F05090906B909090649090E7
:103F00009090907690909090906B839090765000E7
:103F1000A9460023DFF86CB2A5F8BA31B5F9BA4169
:103F2000072CDFDC99F8BC21DFF888A272B93A6867
:103F3000508812F0E7FE924A01461C20126800FBEE
:103F400004A012F019F9012289F8BC213BF91400F0
:103F500012F0DCFE01461C2000FB04A012F054F815
:103F600013F074FED8F800100E2202FB041200B207
:103F70002BF81400B2F90010B2F90220884203DBDA
:103F80008242A8BF024611467E4B23F8141001342A
:103F9000A5F8BA41C2E73B685B781BB1794B0020BA
:103FA000598908E0784B1B7803F0040303F0FF0104
:103FB000002BF3D108460CF045FB01242CE0714C9A
:103FC0000020E1880CF03EFB218905E06D4C0020CB
:103FD00021890CF037FB618901200CF033FB0224AE
:103FE0001AE0684F0224A01E37F81410C0B2013442
:103FF0000CF028FB082CF6D106240DE0614F0324B9
:10400000E01E37F81410C0B201340CF01BFB072C73
:10401000F6D1042400E0002433689A0602D4B8F1F3
:10402000050F0BD1574F204639880CF00BFB601C55
:104030007988C0B20CF006FB0234E4B23368DB02CC
:1040400005D495F8A03273B110F07EFC0BE04F4F11
:104050000026A01937F8021FC0B20CF0F3FA0D2E9B
:10406000EFD00136F5E74A4B1B78072B05D110F04E
:10407000E1FE069BC01A474BD88001232B70CAE093
:10408000454B1B885D063EF5D6AB3C4C434E237F2B
:10409000834210D0207712F039FE414912F08AFE97
:1040A0004049054612F07EFD11F040FF3060284681
:1040B00011F03CFF20623C4CB4F9000012F026FEE7
:1040C0000546B4F9040012F021FE3668059B074648
:1040D00031462846D3F8208012F06CFE41468146D6
:1040E000384612F067FE0146484612F059FD13F0BB
:1040F0003DF8DFF8C490B0F5FA7FA8BF4FF4FA702E
:104100004845B8BF484639462080304612F052FE36
:1041100041460646284612F04DFE0146304612F052
:1041200041FD13F023F8B0F5FA7FA8BF4FF4FA7001
:104130004845B8BF4846A080FEF77DBB5546FEF710
:10414000BABB12F0E3FD194912F0E8FE294612F05D
:1041500031FE01464FF07E5012F022FD1449054613
:1041600012F0C6FF50BB4FF07E51284612F0DEFF22
:1041700028B34FF07E5522E0B41800203809002003
:104180007C160020F80B00202C1A0020CE190020ED
:104190009A1500209C150020241A00200000002001
:1041A00035FA8E3CDB0FC93F5C1600200000C84288
:1041B0000AD7233CF80A00200CFEFFFF174D2946C2
:1041C0004FF07E5012F0AAFE0146304612F0F2FD8A
:1041D0000646FEF7A9BB1249304612F089FF60B9C6
:1041E0001049304612F0A2FF00283EF4BBAB0D4E42
:1041F000FEF7B8BB0C4EFEF7B5BB094EFEF7B2BBDF
:1042000010F0AEFF00283FF4B7A84FF48053EB87BF
:104210000A23FFF7B0B823B0BDE8F08F0AD7233CDC
:1042200000C0F9C400C0F94400F0FFC52DE9F04F0B
:10423000914BADB01D780093002D00F0A7808F4BFF
:104240001868002801F010870CF04CFCDFF85C9235
:10425000DFF85C82D9F800000CF02CF8002801F09F
:104260000387D9F800000CF022F80928844C01D00B
:104270003F2855D14FF0000A5746554626680AEBAD
:10428000080B36B132465AF808107E4815F0D0FFB8
:1042900020B90DB15F4601E05D465F460AF1080AAC
:1042A000BAF5907FEBD1F5B1D5F800A0D7F800B002
:1042B000DFF8D0C123681AF803001BF8031081420D
:1042C00011D15A1CDFF8BCE149B92D2B07D86C4835
:1042D000026020200EF803000EF8021003E00CF834
:1042E00003002260E6E723680BB1BD420FD06648A9
:1042F00004F0DAFABD4207D855F8080B04F0D4FAF6
:1043000009200BF008F9F5E707F0A8FF00265D4D3E
:1043100023689E429ED2A85D0BF0FDF80136F7E7B8
:1043200023686BB9042804D1564804F0DDFC01F081
:104330009BBE0C2841F09486544804F0B5FA22E064
:104340000C28F9D00A2841F03F864E4E504804F020
:10435000ABFA2321304615F05CFF354608B1801BCF
:10436000206023680022002B41F03286002A41F0B1
:104370004A8630220021434815F016FF009B1B7827
:10438000002B01F0718607F069FF63E7414B03F1F1
:104390003007414BEA18EB58002B01F058803F4C96
:1043A0003F4922603F4A2646894692460B60059364
:1043B00000238DF819303C4814238DF8183004ABD5
:1043C00004920360D9F80000DFF8D4800BF072FF8C
:1043D000002801F02880D8F800000BF068FF33684F
:1043E000834693F8481019B9242863D101221DE0AF
:1043F000012903D14D2808BF022204E0022907D178
:104400003C2808BF032218BF002283F8482085E01B
:1044100003290ED140284FF0000102D983F848103B
:10442000D0E758711971D9719871042283F8482026
:10443000C8E7042907D1997983F8490080EA010285
:104440009A710522F2E7052968D1587919798842CD
:10445000987908D98BEA00009871481C18710B44B0
:1044600083F808B0AEE7584503D1062283F8482008
:104470005AE00022DAE700BF44130020581A002057
:10448000401300201013002031CC010836CC010865
:104490007CD00108D8A60108602400204C1A002016
:1044A000541A0020C1020108501A00200C130020E9
:1044B00068AA0108BF490B7803F0040303F0FF0E5C
:1044C000002B7FF47FAF23281DD1009A0123D8F859
:1044D00000001370B84B01911860B84B1860B84BCE
:1044E000586010201872B748C3F800A0036083F822
:1044F00009E0B54804F0D8F907F0B0FE01990B784F
:1045000043F002030B70B14B1B681B785B4505D170
:10451000AF4BB04A1A60B04BB04ADA60336893F8D8
:104520004820062A7FF44EAF93F84980B8F1520F25
:1045300000F0878600F2D880B8F1340F00F0508484
:1045400067D8B8F1240F00F0D6842DD8B8F1040F45
:1045500000F0378215D8B8F1020F00F0188200F28F
:104560002582B8F1010F40F0A38703200AF0BEFFB7
:1045700000200AF076FF40460AF073FF142000F096
:104580002EBFB8F10A0F00F05A82B8F1220F00F0E6
:104590000684B8F1050F40F08B871A200AF0A6FFB9
:1045A0000026DFF854821DE2B8F12C0F00F0F884E9
:1045B0001BD8B8F1280F00F0DA84B8F12A0F00F008
:1045C000E984B8F1260F40F07387854E06200AF083
:1045D0008DFFB6F8C8010AF08CFFB6F8CC010AF0DE
:1045E00088FFB6F8D00100F0F7BEB8F1300F00F048
:1045F0008D85B8F1320F00F03185B8F12E0F40F003
:104600005787774E40200AF071FF06F1400800F00E
:104610006DBDB8F1450F00F0198636D8B8F13B0FE3
:1046200000F0B68319D8B8F1380F00F08D84B8F1D6
:104630003A0F00F02A83B8F1360F40F03987694B02
:10464000674E187806F12808C0EBC000C0B20AF027
:104650004DFFDFF8A89100F045BDB8F1400F00F024
:104660000485B8F1420F00F01085B8F13D0F40F01D
:104670001F875B4E02200AF039FF96F88B020AF082
:10468000F0FE96F88A0200F0AABEB8F14B0F00F0D7
:10469000B28410D8B8F1470F00F08D85C0F077854F
:1046A000B8F1490F40F0048702200AF01FFF4E4B7B
:1046B000988A00F091BEB8F14F0F00F0B585B8F1BF
:1046C000500F00F09F85B8F14D0F40F0F186474E36
:1046D000DFF82C8130784FF0000900EB4000C0B2C9
:1046E0000AF004FF00F0A2BCB8F1700F00F02883BC
:1046F00000F28A80B8F1660F00F0DD812CD8B8F1A5
:104700005E0F00F030860DD8B8F15A0F00F0EB853F
:10471000B8F15C0F00F00686B8F1540F40F0C8867F
:1047200000F08FBDB8F1640F00F0798100F299813B
:10473000B8F1600F40F0BC86294E03200AF0D6FE87
:1047400096F8D5010AF08DFE96F8EA010AF089FE86
:1047500096F8E90100F043BEB8F16C0F00F08582D5
:1047600016D8B8F1680F00F06782C0F0D181B8F1B7
:10477000690F40F09D86DFF87480002698F80000ED
:10478000DFF88090400000F0FE000AF0AFFE61E22A
:10479000B8F16E0F00F07D8200F2A08206200AF0D0
:1047A000A5FE134B18680AF0ADFE124B188800F0F6
:1047B00013BE00BF2C1A00200C1300206418002028
:1047C000DC0B0020581A002061CC01087034002056
:1047D000F04F0020EFBEADDE00ED00E00400FA0572
:1047E000082F00203C180020B82500202425002098
:1047F00004380020501200204DC6010874340020F7
:104800005C310020C8190020B8F17D0F00F041850F
:104810005BD8B8F1750F00F0AF823ED8B8F1730FD6
:1048200000F0428300F2AE80B8F1720F40F0408693
:10483000D94E16200AF05AFEB6F844020AF059FE84
:10484000B6F8CC000AF055FEB6F8CE000AF051FEDC
:10485000B6F8D0000AF04DFEB6F898020AF049FE0C
:1048600000200AF0FEFD00200AF0FBFD00200AF007
:10487000F8FD96F81F020AF0F4FD96F840020AF0DF
:10488000F0FD00200AF0EDFDB6F9EC310A2093FBB3
:10489000F0F080B20AF02DFE5AE3B8F1780F00F084
:1048A0004681B8F17C0F00F0E584B8F1770F40F055
:1048B000FF85DFF81483002698F800000AF016FE42
:1048C000DFF808A3DFF80893E4E2B8F1A00F00F0E6
:1048D00004833FD8B8F17F0F00F02584C0F0F48442
:1048E000B8F1960F40F0E4850F200AF0FFFDAB4BC6
:1048F00018880AF0FEFDAA4B188880B20AF0F9FD6C
:10490000A84B1B68C3F3C000C3F38002800040EAD9
:104910004200C3F340021043C3F3401240EAC20016
:1049200003F0100318430AF0E4FD0AF0C7FC0AF094
:10493000E9FD994B93F898040AF093FD9A4B188877
:104940006428A8BF64200AF0D4FD02200AF089FD83
:10495000964B22E2B8F1F10F00F04881B8F1FE0F5A
:1049600000F0AD82B8F1F00F40F0A2858A4E04202D
:104970000AF0BCFDB6F8F0010AF0BBFDB6F8EE0196
:1049800000F02ABD4FF000094FF0010B54E2042063
:104990000AF0ACFDDFF83C82002618F8060001366C
:1049A0000AF05FFD042EF8D100F037BD03200AF0B5
:1049B0009DFD03200AF055FD00200AF052FD00F095
:1049C00043BC06200AF092FDDFF80C82002618F89E
:1049D000060001360AF045FD042EF8D1744B187814
:1049E00000F0FABC18F8060001360AF03AFD0B2E6A
:1049F000F8D1DFF8E881002618F8060001360AF041
:104A000030FD082EF8D1DFF8D881002618F806000E
:104A100001360AF026FD072EF8D100F0FEBC072073
:104A20000AF064FDE7200AF01CFD5B4B58790AF0A0
:104A300018FD00200AF015FD042000F018BC5D48A8
:104A400011F000FC5FFA80F840460AF04FFD5A4E24
:104A5000B044B04500F0E18416F8010F0AF001FD02
:104A6000F7E70B200AF042FD4C4B18880AF041FD95
:104A70004B4B188880B20AF03CFD4A4B1B68C3F3CD
:104A8000C000C3F38002800040EA4200C3F340024A
:104A90001043C3F3401240EAC20003F0100318436E
:104AA0000AF027FD0AF00AFC0AF02CFD3A4B93F8B5
:104AB000980400F094BC12200AF018FD3F4BDFF878
:104AC00024911B890026B3F5007F94BF4FF00108A5
:104AD0004FF0040859F82600013690FBF8F080B238
:104AE0000AF007FD032EF5D1354E30880AF001FD9E
:104AF000B0880AF0FEFC3089324E0AF0FAFC3088A9
:104B00000AF0F7FCB0880AF0F4FC308900F064BCCD
:104B100010200AF0EBFCDFF8D080002618F8060021
:104B200001360AF09EFC102EF8D100F076BC1A4E29
:104B300070200AF0DBFCB0464FF0000A4FF00E097F
:104B4000B6F852010AF0D5FCB6F854010AF0D1FCCF
:104B5000B6F856010AF0CDFC96F858010AF081FC2F
:104B600096F859010AF07DFC96F85A010AF079FC92
:104B700096F85B010AF075FC09FB0A830AF1010A49
:104B8000D3F85C010AF0BEFCBAF1080F06F10E067C
:104B9000D6D100F042BC00BF082F0020001C00202E
:104BA000BC2E0020B0250020B8130020031C0020DC
:104BB000312500205A3400205934002034250020AB
:104BC0006C160020283800202D1A00202E1A0020F4
:104BD000D8A6010899CC01089ECC010844C601085A
:104BE0000EC6010844120020F80B002070200AF0C5
:104BF0007DFCC44E06F1700896F8E2000AF031FC24
:104C000096F8E3000AF02DFC96F8E4000AF029FC7F
:104C100096F8E5000AF025FC96F8E6000AF021FC7B
:104C200096F8E7000AF01DFC073696F8E1000AF056
:104C300018FCB045E0D1F0E310200AF057FCDFF893
:104C40000083002618F8060001360AF00AFC102E30
:104C5000F8D1E2E398F800309E4280F0DE8339F824
:104C600016000AF046FC0136F4E7A74E06200AF0CB
:104C70003DFC30880AF03DFC70880AF03AFCB6F939
:104C800004300A2093FBF0F023E004200AF02EFC0D
:104C9000ECE207200AF02AFC9C4B1888FF28A8BFEA
:104CA000FF20C0B20AF0DDFB994B186880F31000BA
:104CB00080B20AF01EFC974B18880AF01AFC914B40
:104CC00093F81F22944B18682AB10A23584380F3A3
:104CD000100080B280E300F30F00FAE78F4E0C2043
:104CE0000AF004FC3368B04618780AF0BAFB33685F
:104CF0004FF0000998780AF0B4FBD8F80030874EDE
:104D00004B44587909F101090AF0ABFBB9F1030FE3
:104D1000F3D13368187A0AF0A4FB3368D8780AF024
:104D2000A0FB336818790AF09CFB336858890AF0B5
:104D3000E0FB3368587A0AF094FB336858784EE306
:104D40001E200AF0D3FBDFF8DC810026D8F8003003
:104D5000334458780AF085FBD8F800303344D87AC9
:104D60000AF07FFBD8F800303344587D01360AF052
:104D700078FB0A2EEAD150E32F200AF0B7FB684EE9
:104D800016F8010F002800F048830AF06AFBF7E7E5
:104D900001200AF0ABFB634B1B6818781FE350201F
:104DA0000AF0A4FB574E4FF00C0906F150085E4A7A
:104DB00096F89934043609FB032393F838000AF077
:104DC00050FB96F896040AF04CFB96F897040AF00C
:104DD00048FB96F898040AF044FBB045E7D11CE381
:104DE0005A200AF083FB474E06F15A0896F8EE0463
:104DF0000AF037FB96F8E9040AF033FB96F8EA0468
:104E00000AF02FFB96F8EB040AF02BFB96F8EC0463
:104E10000AF027FB063696F8E7040AF022FB46451F
:104E2000E4D1FAE2BBF1000F00F0F7825FFA89F0FB
:104E30000AF05CFB4FF0000B00263C4B1B789E42B7
:104E4000F0DA3B4B0021F05C4FF00C0E0EFB01F34F
:104E500013F807C0844503D001311F29F6D10CE0B7
:104E6000314A1344D3F834A0504611F0EBF901460F
:104E7000BBF1000F00F0F18289440136DDE700FB51
:104E800002F313F807E08E4500F0F48201321F2A86
:104E9000F5D1013698F800309E4280F0BE8216F8B7
:104EA0000A1000220C20EAE708200AF01FFB012666
:104EB000F0B201360AF0D5FA092EF9D1ADE2082098
:104EC0000AF014FBDFF87C80002638F81600013663
:104ED0000AF00FFB042EF8D19FE20C200AF006FB2B
:104EE000144B18680AF00EFB134B18680AF00AFB03
:104EF000124B1868BBE104200AF0F8FA014B9868DD
:104F0000B5E100BF082F002064160020C415002062
:104F100078150020F8380020601200204824002076
:104F2000D7A6010848130020D8A601082D1A002092
:104F30002E1A0020E8F7FF1FECF7FF1FF0F7FF1F06
:104F4000E43400209C15002004200AF0CFFADA4E49
:104F500096F812020AF085FA96F816020AF081FA1B
:104F600096F815020AF07DFA96F8170237E2D24E4B
:104F700007200AF0BBFAB6F81A020AF0BAFAB6F835
:104F80001C020AF0B6FA96F81E020AF06AFAB6F89F
:104F9000200221E201200AF0A9FAC74B58791EE24B
:104FA000C54E10200AF0A2FA96F83C020AF059FA0F
:104FB000B6F848020AF09DFAB6F844020AF099FAE7
:104FC000B6F846020AF095FA96F83E020AF049FA57
:104FD000B6F850020AF08DFAB6F852020AF089FAD1
:104FE00096F84A020AF03DFA96F84B020AF039FAAE
:104FF000B6F84E02F0E1B04E08200AF077FA96F8C3
:1050000096020AF02EFA96F897020AF02AFAB6F8F3
:1050100098020AF06EFA96F89A020AF022FAB6F8A6
:105020009C020AF066FA96F89E02D8E1337808F1FD
:105030000208994580F0F18118F8020C0AF011FA83
:1050400018F8010C09F1010900EB800000EB800069
:1050500000F2EE2080B20AF04CFAE7E701200AF0F5
:1050600045FA954B93F84002B9E108200AF03EFA60
:10507000DFF84482002606EB080393F83402013679
:105080000AF0EFF9082EF6D1C7E18B4E10200AF096
:105090002DFA70790AF0E5F9B0680AF033FA96F85B
:1050A0003C020AF0DEF9B6F8C8010AF022FAB6F8B6
:1050B000CC010AF01EFAB6F8D0010AF01AFAB6F8D6
:1050C0001A020AF016FAB6F81C0285E113F9092053
:1050D000824200F0D5810C333C2BF7D10836B04525
:1050E00000F09B8196F9A2020023EFE7B6F8600377
:1050F0000AF0FFF996F862030AF0B3F9043696F85D
:105100005F030AF0AEF9B045F0D186E180200AF0E5
:10511000EDF96A4E06F1800856F8040F0AF0F2F92C
:10512000B045F9D179E18D200AF0E0F900264FF081
:10513000060A0AFB06F94FF0000B5FFA86F84046B4
:105140000AF08FF95FFA8BF00AF08BF95A4B0BEBF0
:105150000901194491F8A0030BF1010B0AF081F940
:10516000BBF1060FEBD10136062EE2D10026062058
:105170000AF077F9F0B20AF074F94F4B334493F820
:10518000C40301360AF06DF90B2EF0D145E10D2074
:105190000AF0ACF904F0FAFB494E40F00200C0B24C
:1051A0000AF05FF930880AF0ADF9F0680AF0AAF960
:1051B00004F0CCFB5BE00AF04BF9064684200AF0D1
:1051C00095F930460AF09EF93D4B0DF13008DA684A
:1051D00006F1800393428CBFC6EB02094FF08009B1
:1051E00004F0AEFC4A463046414604F0E7FC8146F6
:1051F00000264E4580F2118118F806000AF031F9B8
:105200000136F6E72C4E04200AF070F901200AF06E
:1052100028F996F845050AF024F996F843050AF0AE
:1052200020F996F84405DAE00B200AF05FF9002037
:105230000AF017F900200AF014F900200AF011F919
:1052400011E001200AF052F90020C8E013200AF012
:105250004DF9DFF87080002618F8060001360AF0D4
:1052600000F90B2EF8D100200AF04CF900200AF0CA
:1052700049F9D2E0104E06200AF038F9B6F8D40009
:105280000AF037F9B6F8D6000AF033F9B6F8D800C4
:10529000A2E0094E05200AF029F996F822020AF048
:1052A000E0F896F823020AF0DCF896F824020AF0F7
:1052B000D8F8B6F8DA008FE0082F0020E43100209B
:1052C000840000204DC60108C94E03200AF00EF9E3
:1052D00096F8C3010AF0C5F896F8C4010AF0C1F8BF
:1052E00096F8C5017BE0C24E06200AF0FFF8B6F83A
:1052F000D83123B108200AF0B4F8012005E096F86F
:10530000DA010AF0AEF896F8E6010AF0AAF896F883
:10531000E1000AF0A6F896F8E0000AF0A2F8B6F864
:10532000DC0059E0DFF8C882B24E0D200AF0DEF84A
:1053300098F8DC010AF095F83368188C0AF0D9F86F
:105340003368588C0AF0D5F8B8F8DE010AF0D1F8C5
:10535000B8F8E0010AF0CDF83368988C0AF0C9F883
:105360003368D88C38E0A34E11200AF0BFF83368B8
:10537000588D0AF0BEF83368988D0AF0BAF8336891
:10538000D88D0AF0B6F8336893F828000AF069F867
:10539000336893F831000AF064F8336893F8370003
:1053A0000AF05FF8336893F838000AF05AF8336867
:1053B00093F833000AF055F8336893F834000AF094
:1053C00050F8336893F836000AF04BF83368988F3A
:1053D0000AF08FF83368588F0AF08BF81DE00AF056
:1053E00040F81AE040F22D84B8F1D00F00F0478465
:1053F000B8F1D20F40F016810AF014F8020600F15D
:105400004B847D4B1B785B0704D4022828BF002007
:105410000BF070FC00200AF069F80AF033F82368FA
:10542000002283F84820754B754C18680BF05AFB26
:1054300094F82C305BB1734B585908F045FD0FF0D0
:1054400020FD002384F82C306F4A704BDA604C3515
:10545000982D00F00986FEF79CBFD046CAEB0800E5
:105460008842BFF60AAD18F8010B019109F0F9FF67
:105470000199F3E74B4493F8380009F0F2FF08E58F
:10548000C0B209F0EEFFB6F8A4020AF032F896F8BE
:10549000A60209F0E6FF96F8A70209F0E2FF96F8E7
:1054A000A90209F0DEFF96F8A80209F0DAFF15E676
:1054B000B8F15B0F15D109F0B5FF4D4E86F8DA0152
:1054C00009F0B0FF86F8E60109F0ACFF86F8E100CC
:1054D00009F0A8FF86F8E00009F0B0FFA6F8DC00AC
:1054E00098E700F26082B8F1370F32D15B794FF064
:1054F0000708B3FBF8F8C8EBC8029B1A13F0FF0FBC
:1055000002D00CF021FD85E75FFA88F8B8F1000FB2
:1055100080D009F087FF4FFA80F9484608F066FD11
:1055200006460028EDD080F8009009F087FF7080D3
:1055300009F078FF307109F075FF707109F072FFA2
:10554000F07109F06FFF08F1FF385FFA88F8B07169
:10555000DCE700F22781B8F12B0F04D109F062FFDC
:10556000234B587156E700F28680B8F1250F08D119
:105570001F4E0023B36009F06BFFB3681843B0609F
:1055800048E752D8B8F10B0F19D111220021204859
:1055900014F00AFEDFF858904FF0000833685B798A
:1055A000102B28BF10239845BFF434AF09F03AFF01
:1055B00008EB090383F8520508F10108EEE7B8F19A
:1055C000230F2FD109F02EFF1328064699D809F092
:1055D00029FF00220C2101FB02F307EB030E9EF8CA
:1055E00008E0864500F0CB8401321F2AF3D188E71A
:1055F000082F0020481300202C1A0020501A0020E9
:10560000DC0B0020602400200400FA0500ED00E01F
:105610005A340020B8F1FA0F04D1CD4B1B785A0749
:1056200040F134830CF090FCF7E6B8F1270F0DD170
:1056300009F004FFC74EC6F8C80109F0FFFEC6F81E
:10564000CC0109F0FBFEC6F8D001E3E6B8F1290F62
:10565000E8D109F0F3FEBF4EA6F81A0209F0EEFEFB
:10566000A6F81C0209F0DEFE86F81E0209F0E6FE2E
:10567000A6F82002CEE6B8F1310F13D109F0D2FE20
:105680001F2806463FF63DAF23685B79052B7FF464
:1056900038AF09F0DDFEAF4BB83643F826000FF007
:1056A000B7FCB7E64BD8B8F12D0F32D109F0BAFEEE
:1056B000A84E86F83C0209F0C1FEA6F8480209F09F
:1056C000BDFEA6F8440209F0B9FEA6F8460209F0AC
:1056D000A9FE236886F83E025B79082B07D909F0FA
:1056E000ADFEA6F8500209F0A9FEA6F85202236802
:1056F0005B790C2B7FF68EAE09F094FE86F84A0299
:1057000009F090FE86F84B0209F098FEA6F84E02CA
:1057100080E6B8F12F0F85D18E4E06F1400809F0D2
:105720008DFEA6F8600309F07DFE86F8620309F09D
:1057300079FE043686F85F034645F0D16AE6B8F193
:10574000330F05D109F06EFE824B83F8400261E60B
:10575000B8F1350F7FF466AF09F064FE0E2880467D
:105760003FF6CFAE09F05EFE03283FF6CAAE794B96
:10577000062606FB083686F8EE0409F053FE86F886
:10578000E90409F04FFE86F8EA0409F04BFE86F8BA
:10579000EB0409F047FE86F8EC0409F043FE86F8B6
:1057A000ED0437E6B8F1440F04D16B4B012283F8C6
:1057B0002C202FE672D8B8F13E0F09D109F032FE45
:1057C000644E86F88B0209F02DFE86F88A0221E6E7
:1057D0002CD8B8F1390F11D109F024FE5D4E86F8AE
:1057E000120209F01FFE86F8160209F01BFE86F869
:1057F000150209F017FE86F817020BE6B8F13C0F08
:105800007FF410AF554ED6F8008009F00BFE01284A
:10581000A8BF012088F8000033681B78012B18BF4F
:105820004F4A504B08BF504A1A60F3E5B8F1410F98
:105830000CD1DFF82081002609F0F4FD06EB080307
:105840000136082E83F83402F6D1E3E5B8F1430FB0
:105850007FF4E8AE09F0E6FD3E4E0023B3607071C0
:1058600009F0F6FDB3681843B06009F0DBFD86F877
:105870003C0209F0E3FDC6F8C80109F0DFFDC6F8F7
:10588000CC0109F0DBFDC6F8D00109F0D7FDA6F880
:105890001A0209F0D3FDA6F81C02BBE5B8F14C0FC3
:1058A00019D109F0BFFD2B4E86F8960209F0BAFD1A
:1058B00086F8970209F0C2FDA6F8980209F0B2FD39
:1058C00086F89A0209F0BAFDA6F89C0209F0AAFD32
:1058D00086F89E029EE513D8B8F1480F09D104F06E
:1058E00097F9224A00231370214A1370214A13604A
:1058F00090E5B8F14A0F7FF495AE09F09FFD89E578
:10590000B8F14E0F38D109F08DFD112880463FF6D1
:10591000F8AD09F087FD0F4E08F5947806EB4803C3
:10592000187109F08BFD40F2ED23984205DD40F639
:10593000CA039842A8BF184601E040F2EE20A0F248
:10594000EE20192390FBF3F006EB4806707161E539
:105950002C1A0020082F0020DC0B00204813002008
:10596000E9D30008540300200DD7000804130020D9
:105970000513002008130020B8F1510F7FF452AE38
:10598000DD4B1B78012B3FF645AD09F04BFDDB4E9F
:1059900086F8450509F046FD86F8430509F042FD05
:1059A00086F8440536E5B8F1D30F04D109F046FD79
:1059B000D34B18802EE500F27881B8F1CC0F52D18C
:1059C0005B79092B7FF69DADCE4ED6F8008009F0AD
:1059D00029FD88F80000D6F8008009F023FD88F83A
:1059E000020009F01FFD33686428A8BF64205871C5
:1059F00009F018FD33686428A8BF6420987109F085
:105A000011FD3368FF28A8BFFF20D87109F00AFDF7
:105A1000D6F80080642828BF642088F8080009F0C0
:105A200001FD88F80300D6F8008009F0FBFC88F837
:105A30000400D6F8008009F001FD2368A8F80A00E8
:105A40005B790A2B05D9D6F8008009F0EBFC88F8C1
:105A5000090023685B790B2B7FF6DCAC366809F014
:105A6000E1FC7070D6E400F2B280B8F1610F0DD1A4
:105A700009F0D8FCA14E86F8D50109F0D3FC86F8D0
:105A8000EA0109F0CFFC86F8E901C3E479D8B8F15E
:105A90005D0F2AD109F0C6FC9B4EDFF86082D6F874
:105AA000009088F8DC0109F0C9FCA9F82000D6F8BC
:105AB000009009F0C3FC2368A9F822005B79052B4C
:105AC0007FF6A8AC09F0BAFCA8F8DE0109F0B6FC34
:105AD000A8F8E001D6F8008009F0B0FCA8F824008E
