:020000040800F2
:10000000005000209D75010839760108315B010818
:1000100039760108397601083976010800000000B8
:100020000000000000000000000000003976010818
:10003000397601080000000039760108F54E010804
:1000400039760108397601083976010839760108D0
:100050003976010839760108810A01088B0A0108FE
:10006000890A0108870A0108850A0108AD77000896
:100070009D7700088D7700087D7700086D77000870
:100080005977000847770008397601083976010862
:10009000397601083976010839760108830A0108A2
:1000A00039760108294C010839760108194C0108F4
:1000B0000D4C0108FD4B0108ED4B0108977A000833
:1000C0009D7A00088D7A0008937A00083976010835
:1000D00039760108F1B80008E5B80008DBB8000877
:1000E0007F0A01083976010839760108000000000E
:1000F0000000000000000000000000000000000000
:0C01000000000000000000005FF808F1A3
:100110002DE9F04F604A614BA1B01A60604B00229C
:100120001A600EF033F918B90EF02AFD10F010FD28
:100130000EF050F95B4A5C4C137843F001031370E6
:10014000002309930A930B934FF4E0130C93236855
:1001500043F480332360A36943F01003A361236851
:1001600003F400330A93099B013309930A9B1BB9DB
:10017000099BB3F5A06FF2D123684B4913F4003308
:1001800001D0022315E00A6842F001020A600993D7
:10019000236803F002030A93099B013309930A9B26
:1001A0001BB9099BB3F5A06FF2D123689E0739D51F
:1001B00001230B933D4B3E4F1A6842F010021A6028
:1001C0001A6822F003021A601A6842F002021A60EA
:1001D0006368636063686360636843F4806363605B
:1001E000344B1A68043B22F070425A60324A3A603B
:1001F000626822F47C1262605A6842F000425A60DF
:10020000DA6822F40042DA609B681D0449BF2B4B78
:100210004FF4E0133B604FF480130C930B9B012BC6
:1002200001D108E0FEE7022B09D10C9A6368134361
:1002300043F4803302E0636843F46013636023682F
:1002400043F0807323602268174B9001FBD55A68F6
:1002500022F003025A605A6842F002025A60636850
:10026000114A03F00C03082BF9D15368DFF85480CE
:1002700003F00C03042B03D0082B03D00E4B2AE011
:100280003B6828E053685168C3F38343C90303F113
:10029000020319D40A4A1DE081E30008181900205E
:1002A0001C190020453800200010024000200240A8
:1002B000A00000200410014000127A00001BB700CB
:1002C00000093D0004040020526812F4003F3A681F
:1002D00018BF52085343C8F800306368864AC3F316
:1002E000031313449A78D8F80030DFF86092D340B3
:1002F000C8F80030814A824B0DF1800ADA60A269A9
:10030000039342F00102A261656A0026C9F8005019
:10031000626A0DF1800B42F080726262A26942F063
:100320001C02A2614FF6FF722AF82C2D02F18042C6
:1003300002F601021046514602928DF8566007F00F
:10034000C7F951466F4807F0C3F951466E4807F0A8
:10035000BFF910218DF83A100221029A8DF83B1056
:100360004FF400712BF8481D10461161594607F0F3
:10037000AFF9664950464A6842F000724A600AF096
:100380000BF96349159A09F10400B2FBF1F26149D6
:100390000A601822314619F0FDFED8F800204FF40B
:1003A0007A71B2FBF1F25C49039B013A4A60F02298
:1003B00083F8232007238E600B604F4B5749DFF8EB
:1003C00090E102934FF0010CB20202F180423EF83C
:1003D000160002F58432002340FA03F818F0010FEA
:1003E00018BF0CFA03F803F101031EBF0A60A1F85D
:1003F00004800C31102BEFD10136032EE4D1484E8E
:10040000484B96F8E7211A703B68474A934201D15E
:10041000012203E0454A934202D10222444B1A7062
:10042000B3680021DFF82C810846C8F8003010F0CE
:100430000BFB0021012010F007FB3E4A00274FF084
:10044000170A022352F82700013750B1C37180F810
:1004500006A0077212210492039310F007F9049A80
:10046000039B032FEED10021084610F0EDFA002186
:10047000012010F0E9FAA369402243F00103A361CF
:1004800000212D4819F086FE2C4B4FF0FF321A60E8
:10049000C3F80320D8F800301A0714D596F83C3278
:1004A000012B10D81E4B15F0805593F83E3200F00A
:1004B000598608E093F83F22012A04D1002283F8EC
:1004C0003E2210F0FDFB642014F0C6FCA0220021A7
:1004D0001B4819F05FFE1B4D0024A5F1140761595C
:1004E00000231948DA0050F83300814234D1BB1898
:1004F00093F8C00034E000BFE4A201080005FA054B
:1005000000ED00E0000C014000100140000001403F
:1005100040420F005836002010E000E06821002023
:10052000082F00206E15002000127A00001BB70073
:1005300031250020D8C40108C02E0020002F002043
:1005400000350020F8A20108A0A30108B004002093
:10055000E4C40108E41500200133042BC1D10020BC
:100560000C3413F0EBFEA82CB9D1A34BA34AD8F856
:100570000040DFF8BC821A60052700213C22A04819
:1005800088F8007019F006FE002318463946DFF897
:10059000A4E29B4F04F040054FF0FF0C1EF9012F21
:1005A00003EB070ADA554DB91E3AD2B2012A9FBFB2
:1005B00001F1FF318AF800C0C9B201200C333C2B95
:1005C000ECD108B188F8001077798E4B8E491F70F6
:1005D0008E4B8F4AC9F81C30D6330B6040F2DC5189
:1005E000A30657BF8B4B012303EBC7035B78136252
:1005F000894A002322F813100133082BFAD11A225A
:100600000021584619F0C6FD0E2F03D007F0EF0366
:10061000082B02D101238DF84A3001200DF0E6FCB1
:1006200018B14088003018BF0120C4F340038DF892
:100630004030C4F3403300358DF83830C4F3C03354
:1006400018BF012500F001008DF83B3014F4006361
:100650008DF83D008DF8425004D096F81E32581E99
:10066000434243418DF83C30C4F300438DF843309E
:10067000C4F3C0038DF83A30D9F8203004F00107F4
:10068000003318BF01238DF84430C4F300538DF8B4
:100690004530B6F8D2308DF83970ADF84830B6F83C
:1006A000DE3004F00805ADF8463096F8E13043B985
:1006B0005A4B93F8E03013F0FB0F0CBF01230023DB
:1006C00000E0012396F8E020049312F0FB0F14BF22
:1006D000012100218DF841108DF84B2013B14F4BB3
:1006E000B3F8DC30ADF84C30B6F8D030E104ADF8FA
:1006F0004E3042BF494BB3F8D830ADF84E30042AE3
:1007000006D14FF4805010F0FBF90023ADF84E30C5
:1007100096F88822424B00211A704248642219F050
:1007200039FD9DF84A30002B14BF4FF0020B4FF0FB
:10073000000B07B90DB10BF1010B4FF00009CA46D0
:10074000029BDFF8CC8003EB8B0BDBF8DC309A1ECE
:100750001A3302920593029A32F8023F02924FF640
:10076000FF72934200F0C0819DF83D10DAB21B0A7F
:10077000DFB219B1911E012940F2B1819DF84210FA
:1007800041B129480C2101FB0201486927498842EF
:1007900000F0A5819DF8431041B1234C0C2000FBD3
:1007A000024044692148844200F099819DF840004C
:1007B00038B11D4C0C2000FB0240007E142800F0D4
:1007C0008E819DF83B0038B1174C0C2000FB024095
:1007D000007E112800F083819DF83C0038B1124C56
:1007E0000C2000FB0240007E212800F07881022BC3
:1007F00022D19DF8383023E070340020A831002049
:1008000074340020D00A00201C360020142F002051
:10081000B0040020F0B90108F80B0020082F0020D8
:10082000282000200C0C0020E4A201080004004055
:100830006418002085C00108012B04D19DF83930CF
:10084000002B00F04C819DF844307BB19DF84A307C
:1008500063B9A2F10803012B08D8B4480C2303FBA9
:1008600002035869B24B984208BF0427B14B0C25CC
:1008700005FB02359DF845305BB19DF84A3043B920
:1008800019B1A2F10C03012B01E0131F032B40F25D
:100890000781012F3DD1A54B0C2404FB0234002617
:1008A000A54BFF22207E88F82460C8F830501E70C7
:1008B0005E609E60DE601E6483F8442083F84520FD
:1008C00083F8466083F8476083F848600FF0A8FE1D
:1008D000D4F8149002228271C7710672217F0FF042
:1008E000C5FE3246617E48460EF094FE3A463146D9
:1008F000284614F049FA914B914AC8F83430914B8C
:10090000C8F83C60C8F83830111F284614F08EF93A
:10091000E5E0022F3ED15FFA8AF11C26834806FBF0
:1009200001F30C2404FB020408EB030701264FF03B
:10093000000B87F82510207E87F826B087F82EB0A8
:1009400087F824603D63039306910FF069FE0699D2
:1009500086718A190272C671217F0FF087FE5A468E
:10096000617E60690EF056FE32465946284614F004
:100970000BFA754BC7F83CB07B63744B2846BB63DE
:10098000039BB24403F11001714B19440A1D14F08A
:100990004DF9A4E0032F40F081809DF839309DF897
:1009A0004B10ABB1A1B1614B0C2404FB0234636961
:1009B0004B450DD14B1E032B0AD8DFE803F002068E
:1009C0000406082202E0482200E01822614B1A7057
:1009D0009DF84130604CBDF84C206BB3022994F86F
:1009E00001B0BDF84E3009D003295C495C4E0EBF02
:1009F0004FF0480E0E464FF0080E02E0594E4FF0F1
:100A0000180E5FFA8EF1584F32B1584800FB0EF0C5
:100A1000B0FBF2F292B202E013464FF6FF722846A4
:100A20000FF08AFE47F82B0057F82B301922DE60B2
:100A3000A37804EBC30327E00429667811D14C495D
:100A40002846B1FBF2F2182192B20FF075FE464B28
:100A50000D2243F82600474BC360A37804EBC30381
:100A600012E0424B0121B3FBF2F22846BDF84E30B2
:100A700092B20FF061FE3C4B092243F826003E4B38
:100A8000C360A37804EBC3035A71A378627804EBC4
:100A9000C3010A7101328D6062701EE0042F1ED105
:100AA0002D4CBDF84620A378267804EBC3031E71B5
:100AB0002E4B012193FBF2F22846BDF8483092B24A
:100AC0000FF03AFE2D4B0A2143F82600A37804EBE1
:100AD000C30251712278013222700133A370059B49
:100AE000029A93427FF437AE049B254F83F00102B4
:100AF000244B00241A70244B3C701D78A5F1170379
:100B0000022B54D8DFF884A0DFF88490DAF81C3088
:100B10000021185903EB040816F0D6FA002839D042
:100B20001A4B1A6A0693002A5FD159E0E4A2010821
:100B3000002C0140F8A20108142300200903010839
:100B4000E804002065040108C9040108E102010865
:100B5000D4040020080400200C0C002085050108A6
:100B60002505010859050108B434002040420F0052
:100B700000366E01A50401089504010864230020D5
:100B8000A3160020FC340020D00A0020B00400206E
:100B9000080A002004EB090698E80F0086E80F0019
:100BA0003B7810340133C02C3B70AFD1B8E7944B85
:100BB00013F835E003EBC503D3F804C087F800E071
:100BC000BCF1000FACD0DFF87C827445A8DA2301B9
:100BD00003EB080663440FCB013486E80F00F4E70B
:100BE000884E3368DB0425D41EE0874B874A13F810
:100BF000350003EBC5035C681070002CF0D0844E08
:100C000000238342ECDAC3EBC3016218D2F800C0C0
:100C100001EB060E41F806C091880133AEF80410CE
:100C200092798EF80620ECE705F0EF03082B794B5C
:100C300024D125E03B78012BF6D9774C04EB031344
:100C400003F110071034A742EED04FF07C5154F856
:100C5000100C16F0A5F84FF07C5144F8100C54F825
:100C6000140C16F09DF84FF07C5144F8140C54F815
:100C70000C0C16F095F844F80C0CE3E70E2D08D197
:100C80001A78182D42F010021A7008D113F0B2FE33
:100C900005E01A78192D22F010021A70F5E713F00A
:100CA0008BFE5E4A5E4D13781C2043F004031370E4
:100CB0002B78012B8BBF01270027002401240FF084
:100CC000AFFC584A1060584A177058B1112282710F
:100CD0000222C2710022944202720CBF122116211C
:100CE0000FF0C4FC00200EF057FA22200FF098FC01
:100CF00015224E4C827101270222C2710772122105
:100D000020600FF0B3FC2068494C00210FF092FEE8
:100D1000207E13F013FB237E03F01F025B09022BDE
:100D200007FA02F706D0032B08D1424A13691F4382
:100D3000176103E03F4AD3681F43D760607D0FF01F
:100D40006FFC0C270B234FF00208C371877180F8EA
:100D50000880E07D0FF064FC0D23C371877180F87B
:100D60000880A07D0FF05CFC8771C77180F8088057
:100D7000607D0FF055FC1B210FF078FCE07D0FF03B
:100D80004FFC07210FF072FCA07D0FF049FC1B21E6
:100D90000FF06CFC207D20B10FF042FC13210FF00E
:100DA00065FC2169244B99420AD103F56043DA6856
:100DB00042F48052DA60DA6822F48052DA6019E094
:100DC0001E4B994209D103F5EC331A6942F4804273
:100DD0001A611A6922F480420BE0194B994209D139
:100DE00003F5EA331A6942F400421A611A6922F4DF
:100DF00000421A61237F3BB30023184626E000BF60
:100E0000F0B90108E41500200CB90108A83500204C
:100E1000A9350020E5120020100A002045380020E6
:100E20003125002024190020281900202019002035
:100E3000180400200010024000300140003800403B
:100E4000003C0040080A0020012302200A8802F426
:100E5000415242F44572134303430B808B8B207D38
:100E600023F400631B041B0C8B8307230B820B886A
:100E70009BB243F040030B8018B10FF0D1FB0FF091
:100E8000D4FD2C200FF0CCFB8346069BC3F8040155
:100E90009F238DF83430322000238DF835308DF8C3
:100EA00036308DF8373013F0D7FF58460FF0B8FDC5
:100EB00004220DA915A813F011FB58460FF0B5FD3B
:100EC0009DF856309DF855201B0243EA02439DF8D9
:100ED00057201343C34A93421AD0322013F0BCFF69
:100EE00058460FF09DFDF52013F034FBFF2013F062
:100EF00031FB8DF8540058460FF097FD9DF85430A3
:100F0000702B05D12B78022B02BFB74B03221A702E
:100F10002B78032B0CBF1F2002200CF0E0FF2B7856
:100F2000032B03D0012006F049FC07E002200DF05E
:100F30005DF80028F6D04388002BF3D0AB4C366820
:100F400095F8009014252A460021204619F022F930
:100F500006F4004816F0020F06F40067204618BF9A
:100F60002570B8F1000F01D011236371B9F1010FA1
:100F700084BF152383720FB12123C3739C4CDFF808
:100F800094920F2700264FF0060814F8010C30B396
:100F90000FF046FB002580F80680C771057214F833
:100FA000010C0FF03DFB29460FF060FB294614F8B9
:100FB000012C90484B0010F81100904203D14B4493
:100FC00093F8ED3003E001310A29F2D10023072222
:100FD0002370E270731C01226670A270DEB20137CA
:100FE000FFB2132F04F10504CFD1834A492053687F
:100FF000824C43F44043536013F0A0F9202013F0D7
:101000009DF97E4809F054FB15A809F026FB7C4B9E
:10101000022E15937B4B28BF802216934FF00003BE
:1010200038BF1A461A924FF480721B924FF48062B6
:101030001C92202220461D9215A94FF400521E92A8
:101040001793189619931F9309F014FB23686E48A1
:1010500043F0010323604368012E23F4702394BFFF
:101060000022012223F4807343EA02234360826852
:10107000664B5E4C134043F4602343F002038360ED
:10108000C36A04F1140E23F47002731EDBB242EA49
:101090000353C3621F2601230727E278002A4CD09E
:1010A00094F801C05D1CBCF1090FEDB294F8048006
:1010B0000DD9ACF10A02C16802EB420207FA02F94B
:1010C00021EA090108FA02F20A43C2600AE0016952
:1010D0000CEB4C0207FA02F921EA090108FA02F2C4
:1010E0000A430261062B0CD8591E426B01EB8101A9
:1010F00006FA01F322EA03020CFA01F111434163FB
:101100001AE00C2B0CD8DA1F016B02EB820206FAF4
:1011100002F321EA03030CFA02F21A4302630BE022
:101120000D3BC26A03EB830106FA01F322EA0302D4
:101130000CFA01F31343C3622B4605347445ACD15A
:10114000314B9A6842F480729A609A6842F00102C8
:101150009A609A6842F008029A6099682A4A0C07D5
:101160005AD5FAE7013B092B3FF6ADA90121084604
:101170000FF06AFC13200FF053FA04461823837112
:101180000223C37105721221C9F884040FF06EFAAC
:10119000012120460FF04EFC3C2013F05DFE294655
:1011A00001200FF051FC96F83E22194B9542BFF6F4
:1011B00081A9002108460FF047FC002120460FF0CE
:1011C00039FC782013F026FE012100200FF03CFCB2
:1011D000012120460FF02EFC782013F01BFE013574
:1011E000E1E700BF15202000312500205015002028
:1011F00051150020D0A30108001002400800024051
:101200004C2401406415002000240140FDF7F1FF4B
:10121000082F0020E4A20108936843F004039360C0
:1012200093688E495807FBD48B6843F4A0038B6006
:101230008B4BD3F8C801002840F05587D3F8CC2158
:10124000002A40F05087D3F8D031002B40F04B8774
:10125000834D844F95F8D53100260293B5F9EC31D2
:101260003E60039395F8D8317E60049395F8DA31A7
:10127000BE60182231467C48059395F8E98195F8BF
:10128000EA9118F087FF794B794C1B78DFF8FCA1C5
:10129000012B98BF013C0797764F182231460AF57B
:1012A00084703E8018F076FF069B2320C3F820410F
:1012B00013F0D2FD0DF12202012175200AF0CCF8C5
:1012C0005446BA46B8B16C4B0DF12302C4F80C3148
:1012D0006A4B0121C4F810313046432384F80831A9
:1012E0000AF0BAF89DF8233003F07E038DF823301E
:1012F000002840D147E094F8243113BB14228BF826
:1013000006200E228BF807208BF808301321584650
:10131000C4F828B10FF0AAF9594A138823F0400302
:101320001B041B0C1380138823F038031B041B0CB5
:10133000138013889BB243F040031380012384F889
:10134000243115AA012175200AF040F99DF8543086
:10135000A3F17002012A01D9AF2B5BD105238AF8D2
:101360000030432384F80831464BC4F80C31464B17
:10137000C4F810314EE0682B05D101233B701D23CA
:1013800084F8083146E09DF822303A4A03F07E03A3
:10139000682B8DF8223039D13C4E02230621137080
:1013A0000846D6F80C3115AA98479DF859209DF8A3
:1013B000573092005B0003F0020302F004021A436C
:1013C0009DF8553003F00103134311D0012B01D1D7
:1013D000002202E0022B03D10122264B5A7019E0B1
:1013E00003F00303032BF7D0032013F03FFD11E0BC
:1013F000D6F80C310DAA01210C2098479DF8343005
:1014000013F00F03F0D0042BE6D1E1E7702B04BFFB
:10141000042313701E4900230B70164B1B78022BFC
:101420000BD1114A1B4810601B4850601B48D0600C
:101430001B48106101220A7047E0012B36D10A4A8D
:1014400018480B70106014480423506016489060D0
:101450001248D0601248106137E000BF00240140FC
:10146000082F002034250020B82500203125002039
:10147000E5A201084025002059B4000847B1000842
:1014800000380040CDB50008FDB50008B0040020CC
:101490009C260020A5B7000869B0000851B00008DC
:1014A00090C1793D25B600081DB00008043B012B12
:1014B0001DD8CB4BCB4A1A60CB4A5A60CB4ADA6074
:1014C000CB4A1A6101230B700723CA4A41461370A5
:1014D000C94A0298136843F001031360059B4A460A
:1014E0000193049B0093039B10F0BCF910B90120F9
:1014F00013F0BCFCC14A01211378084643F00203F3
:1015000013700FF0A1FA002108460FF09DFABC4FAE
:101510000A2601200FF076F800200FF073F819204A
:1015200013F09AFCD7F84835DFF8D4A213F4803FC3
:1015300002D101200DF030FE192013F08DFC0020A7
:101540000DF02AFE013EE4D1314630460FF07CFA20
:10155000314601200FF078FAA74B1A68984612F02E
:10156000080F0DD0012108460FF06EFAA54B1B683D
:101570009847314601200FF067FAA34B01221A70F9
:10158000A24BDFF85C921B68A14F187B15F0B4FBEF
:10159000A04915F005FCA04915F0FAFA14F0BCFCBE
:1015A0009E4B9C491860D9F8100015F0F9FB9C4B34
:1015B0001860079B188915F09FFB0146994815F0A4
:1015C000A3FC994915F0A0FC984B186013F054FA4D
:1015D000974B1E22FF21184618F0DCFD0346954A62
:1015E00001211170002101703968D8F800E011F470
:1015F000800F01BF022010701B2058701EF0020FD8
:10160000CDF808900ED010784FF0010C03F800C010
:1016100000F1020C013082F800C0C0B24FF0020CA1
:1016200003F800C01EF0040F06D0107800F1010C82
:1016300082F800C003221A541EF00A0F12D0DFF8FD
:10164000F4E104209EF800204FF0050C9854501C43
:10165000C0B203F800C0D01C02328EF80000D2B233
:101660000620985411F4807FDFF8C8E106D09EF878
:101670000020501C8EF800001A2098549AF805009B
:10168000082801D00E2809D19EF8002002F1010C93
:101690008EF800C04FF00B0C03F802C09EF800203B
:1016A0004FF00C0802F1010C5FFA8CFC03F8028089
:1016B000CB038EF800C006D5931C5E4A13705C4BBA
:1016C0000E2203F80C2011F4002F594A09D09EF87D
:1016D000003003F1010C8EF800C04FF0190E02F833
:1016E00003E0544B4FF01D0893F800E011F4805FC5
:1016F0000EF1010C5FFA8CFC83F800C002F80E803A
:1017000009D00EF1020E83F800E0DFF824E14FF07B
:101710001C080EF80C8011F0200F09D093F800E09F
:101720000EF1010C83F800C04FF0070C02F80EC058
:1017300011F0040F09D093F800E00EF1010C83F8CA
:1017400000C04FF0100C02F80EC011F4802F09D029
:1017500093F800E00EF1010C83F800C04FF0120C7A
:1017600002F80EC049050BD59AF8CC1241B1197890
:1017700001F1010E83F800E04FF0130E02F801E0D2
:10178000182813D119784FF0160E02F801E001F174
:10179000010E5FFA8EFE4FF0170C02F80EC001F139
:1017A000030E0231C9B283F800E0505498220021A0
:1017B000214818F0EFFC0FF04DFF204A204BB5F800
:1017C000DA101A601F4BDFF8888019801E49002349
:1017D0000B808B701D49DFF87CC00A603CE000BFC5
:1017E000B8250020BDB6000869B0000851B0000857
:1017F00090C1793D10040020B0250020453800201C
:10180000082F00209426002040380020F4180020E3
:10181000E415002035FA8E3CDB0FC93FD02D0020A7
:10182000C02D00200AE81C4100401C46FC37002067
:101830003A21002039210020602400203C31002082
:10184000600D00205E0D002004210020E015002026
:10185000E8150020002100209D4ADFF8D8E213702F
:10186000B5F8442211B2DCF8000028F8131000F596
:1018700096704EF823000133122B964DF3D1386841
:10188000C30458BFBAF95012E980934901F1500ED0
:1018900091F89934FBB991F89BC491F89C349C451C
:1018A00019D2BCF1000F08D00CF1FF3C0CEB8C0CF2
:1018B0000CEB8C0C0CF5617306E0013303EB830336
:1018C00003EB830303F5617391F89AC49BB20CF1A7
:1018D000040C25F81C3004317145D9D1030740F1BF
:1018E0005B819AF83C52082D00F25081DFE815F038
:1018F00009000C0013004400650086008600C80043
:10190000260145F2F05201E042F6F822734B1A80AC
:101910000FF059FF39E142F6F821704B120119809E
:101920000A2392FBF3F26E49A2F5B062002341F85C
:1019300023200133122BFAD16A496B4A40201160EF
:101940006A4A13700CF090FB0546002800F01E81D7
:1019500010F00AFF9AF83D3295F900E0002B0CBF19
:101960000622072200280CBF0123032301920093C3
:1019700005465F4B5F4AA2E042F6F822574B4020F3
:101980001A805D4A584B1A60584B10221A700CF09E
:101990006BFB0546002800F0F98010F0E5FE0028FA
:1019A0000CBF01230323002295F900E0019200936C
:1019B00005464FF4E133514A81E042F6F822474BA5
:1019C00040201A804E4A484B1A60484B08221A7031
:1019D0000CF04AFB0546002800F0D88010F0C4FE49
:1019E00000280CBF01230323002295F900E0019297
:1019F000009305464FF4E133424A60E042F6F82294
:101A0000364B4FF00C0E1A80384B3F483F49404A46
:101A100083F800E0062D4FF0000303700B70137085
:101A20000BD03C4B1B221A703B4B052283F800E085
:101A30003A4B4FF4E1381A7009E0364B21221A7004
:101A4000354BDFF8F48083F800E0344B1D70344AE6
:101A5000254B40201A600CF007FB0546002800F0DB
:101A6000958010F081FE00280CBF01230323002283
:101A700095F900E00192009305464346294A1EE08D
:101A800044F62062154B40201A80274A164B1A60F4
:101A9000164B0A221A700CF0E7FA0546002875D09A
:101AA00010F062FE00280CBF0123032395F900E02B
:101AB0000546002201921D4A00934FF4E133402174
:101AC00070460CF03DFA002D5CD0194B186059E0BF
:101AD0002C0D0020E8150020082F00203E090020D2
:101AE00044140020C59F00080C0400202425002079
:101AF000A08601000DA20008859F000811A1000822
:101B00006D9F0008C9A00008D21300209114002086
:101B10009014002092140020D11300209314002070
:101B2000AD9E0008F59F000885F6000875F70008CF
:101B30002C250020E40C002090D0030041F27C52C0
:101B40004B4B00251A804B4A4B4B40201A604B4BA5
:101B500010221A704A4B28221D704A4B1A700CF042
:101B600083FA98B1032390F90000474A0195009346
:101B70004021464B0CF0E4F9454D012128600DF061
:101B80001CFD2868003018BF012028B908200EF07D
:101B9000B7FF404A384B1A6042F201033968374AAE
:101BA0000B408BB144F62060314B8D04188004D576
:101BB000082313703848304B1860C80704D50C232D
:101BC000137036482C4B186013780025043B537073
:101BD000334A344B11F4803FC2F82C31324B9046DB
:101BE0001D7000F0FD80039313F0E6F9039B4FF0A6
:101BF000010940F22A32294608F5987083F80090CE
:101C000018F0C8FA294B2A495869D1F888200243AC
:101C10005A61284AC1F88C50C1F8802091F885207B
:101C200015A803938DF854208DF855908DF85650D3
:101C30008DF8579012F0A0FB16200EF0F1FC162143
:101C400081710221C17105721B21C8F85C040EF07C
:101C50000DFD039B18481949EA0001F1BC0E5EF81E
:101C600035E086452CD10A4492F8C0002CE000BF34
:101C70003E0900206DF600080C04002024250020F9
:101C8000902000209120002095F6000848E80100EF
:101C9000E812002051F6000861F6000855F6000829
:101CA000B0040020E83100204C3800200010024031
:101CB000580300200593000800040040E4A2010836
:101CC0000135042DC7D10020039312F037FBBF4A22
:101CD000BF491268BF4DB2FBF1F22988013A21F4E5
:101CE0005C710904090C298092B21D21A9852A85FD
:101CF0000122AA82298C049221F001010904090C15
:101D00002984298CB5F804E0288B21F0020120F009
:101D1000730000040904000C090C11434FF0000982
:101D20001FFA8EFE40F06000A5F804E02883A5F8B5
:101D300034902984298B039B21F008010904090CA4
:101D400041F008012983B5F844106FEA41416FEA78
:101D5000514189B2A5F844105969114359619E4B0C
:101D60001846039308F0A4FC15A808F076FC9B49DC
:101D7000039B15919A49184616911021179140F22C
:101D80002A31189180211A914FF480711B914FF4E0
:101D900000511E9115A9CDF86490CDF87090CDF842
:101DA0007490CDF87C9008F065FCA989039B89B2FA
:101DB00041F40071A9811968049A41F00201196087
:101DC000884988F86024FF22731826F801900436A9
:101DD000802E9A70DA70F7D107F026FF07F024FF03
:101DE0003B685B0553D5804E804B326804201A60F7
:101DF0000CF03AF90421C4F864040CF00BF93268D1
:101E00007B4B84F8680408201A600CF02DF9794B9C
:101E1000082118600CF0FEF8774D002184F8690461
:101E20002C22284618F0B6F97C232B708E236B7079
:101E3000E023EB707D23326885F82B306F4B202038
:101E40001A600CF011F92021C4F86C040CF0E2F8CF
:101E500084F8700410200CF007F91021C4F8740401
:101E60000CF0D8F8664B3B221A7001225A703A22C5
:101E70001A719F229A711E221A72A4225A7200228B
:101E80009A72DA721A7384F8780410F07AFC5D4B57
:101E90005D4C1B78022B7DD12588002D7AD10F2334
:101EA0008BF806300E2313218BF8073058468BF839
:101EB0000850C8F87CB40EF0D9FB58460EF0B5FDBA
:101EC000524A3220138823F040031B041B0C13805A
:101ED000138823F038031B041B0C138013889BB258
:101EE00043F0400313809F238DF834308DF8355034
:101EF0008DF836508DF8375012F0AEFF58468DF8F9
:101F000055500EF08DFD04220DA915A812F0E6FA29
:101F100058460EF08AFD9DF856309DF855201B025C
:101F200043EA02429DF857301343394A934217D08F
:101F30000CDC384A934215D00132934217D0A2F5F7
:101F40001A42033A934220D120230CE0324A9342B2
:101F500008D0013293420AD0304A934215D101E0B1
:101F6000402300E0802323804FF4807302E04FF48D
:101F7000807323806380A38822881B02A36053435D
:101F8000E360012388F8803404E000232380638029
:101F9000A360E360E568002D4FD0ED0A2E464FF0B8
:101FA00000080DF15409A84509DA08EB050464108E
:101FB00010224946E00207F0FBFD0F2832DC07F053
:101FC000B9FD174BF6021E6037E000BF0404002085
:101FD00000366E01000400406C00024034040040F2
:101FE000E00500204E380020CC18002060120020B0
:101FF000A0120020BC12002070120020D412002079
:10200000F824002031250020840000200038004002
:102010001620C20017BA20001740EF001720C20098
:102020000C130020002359F82320013257D101332B
:10203000042BF8D125462646B5E7BAF8D831704AC0
:10204000013B9BB2052B9EBF012382F8E63182F84B
:10205000DA31029A9AF8E63152695343694A1360B9
:102060003B68694A13F4002318BF01231370644BC3
:102070005A791C46052A02BF644B4FF4C8721A8075
:1020800008F0B4FB624BC8221A80624A137843F00E
:1020900008031370604A137823F00203137040F6AC
:1020A00002033A6813406BB15C4A5D4B1A605D4BAA
:1020B00003221A705C4B01221A705C4A00231380C1
:1020C0005B4A1380A36801223B605A4B1A705A4A3C
:1020D000137863F07F03137021B0BDE8F08F04F133
:1020E00001083446A7E7554B00221A7000B214F0DD
:1020F00003FE534914F054FE414C0646B4F9CC019A
:1021000014F0FAFD4E4914F04BFE0546B4F9D00127
:1021100014F0F2FD4A4914F043FE4A4904463046A1
:1021200014F036FD13F0F8FE8046304613F0F4FE4E
:1021300044490646284614F02BFD13F0EDFE0746F1
:10214000284613F0E9FE3F490546204614F020FDDD
:1021500013F0E2FE8246204613F0DEFE4146814641
:10216000504614F01DFE41460290484614F018FEF9
:1021700051460390304614F013FE49460490304611
:1021800014F00EFE39460590504614F009FE2E4C10
:102190004946206007F1004014F002FE0499606097
:1021A000A560284614F0FCFD039914F0F1FC059994
:1021B000E060284614F0F4FD0146029814F0E6FCB5
:1021C0003946206106F1004014F0EAFD0299606191
:1021D000284614F0E5FD0146059814F0D7FC039954
:1021E000A061284614F0DCFD049914F0D1FC4146AE
:1021F000E061384614F0D4FD2062FFF729B800BF33
:10220000082F0020A41600207E180020740D002046
:10221000D4370020E5120020382100201A31002098
:102220004C1500200E230020000400206C2E0020FE
:102230006E2E0020D80B002045380020A40000207E
:1022400035FA8E3CDB0FC93F28150020694B2DE97C
:10225000F04F1B68A3B09A6A674B1A80674B1978D6
:102260000793012904D1664B1A80664A12885A8066
:10227000654B1A780593002A01F0268112F0AEFD15
:10228000624B06909B6813B1059A901C9847604B6F
:10229000604DD3F8008018F0080F38D05E485F4AD0
:1022A000848804F10E039BB21C2B5D4BB3F9043000
:1022B00029D85C4909884E0725D50A2193FBF1F1FD
:1022C0001288594B891A89B20AB212F1B30FBCBFF6
:1022D00001F5B4710AB2B32A1B78C4BFA2F5B47277
:1022E00012B2190713D595F9D411504B49424A43FC
:1022F0001B6812B25B7A5A436FF01D0392FBF3F333
:102300002344838003E00A2193FBF1F31380484BBD
:10231000B3F90640474B1B685A8994420CDB197A83
:10232000B4F5FA6FBFBFA31A4B43C2F5FA6193FB32
:10233000F1F1C1F1640100E0642140F2E63995F960
:10234000D431B5F8440295F822E295F823C25B42F5
:10235000314D1FFA83FB0022374B5700D154344BC9
:1023600033F91260331A03F2F31ACA450ED8002B60
:10237000B8BF5B42022A0DD0734502DDCEEB0303EA
:1023800000E000238642EB530EDB10E0022A4FF4FC
:10239000FA73F3D16345CCBFCCEB0303002303FBFB
:1023A0000BF38642AB8005DAEB5B5B42EB53013209
:1023B000032AD1D1214B1D6815F480550ED0B4F5F8
:1023C0007A7F06DBB4F5FA6F2246A8BF4FF4FA62B3
:1023D00001E04FF47A72A2F57A723AE00D4BB3F84D
:1023E00046128C422CDBB4F5FA6F2246A8BF4FF49C
:1023F000FA6226E0D81500200C2300206E1500207C
:10240000701500209013002038090020B825002006
:10241000B0250020082F0020841600207A0D00200F
:102420008C16002030210020E51200204C130020E3
:10243000E815002048240020A0160020E415002004
:102440000A46521A4FF47A735A43C1F5FA61B2FB45
:10245000F1F2642392FBF3F1A34F01F1010E37F97E
:10246000116037F91E706FF0630E0EFB0121BF1B68
:1024700001FB07F292FBF3F293199C4A9BB2D380C3
:10248000B5B19B4A1268D20012D59A4AD2787AB96D
:10249000A3F57A731BB24FF47A721B0393FBF2F32A
:1024A000C0F5FA6212B2534300EB23308F4BD88051
:1024B000914D2F887B0645D5904B0A20B3F9043007
:1024C00093FBF0F08E4B1B88C01A00B214F014FC82
:1024D0008C4914F065FC8C49064614F059FB13F046
:1024E0001BFD8346304613F017FD804E8146B6F93A
:1024F000020014F001FC8246B6F9000014F0FCFB67
:102500005946099014F04CFC51460890484614F086
:1025100047FC089A0146104614F038FB14F01CFEE4
:1025200059463080504614F03BFC099B82461946C0
:10253000484614F035FC0146504614F029FB14F0CF
:102540000BFE708018F0140F704EDFF8F08166D02B
:1025500017F4027F63D06E4B644A1B7803F01003BC
:1025600003F0FF0E43B16B4B98F99402196853883E
:1025700000FB0133538052E0674B68491B68D878F1
:102580009B7808B3B1F90010601A0028B8BF404228
:1025900098420DDD62488C42C0F800E04FF0010027
:1025A0003071C8BF5B42D0889BB20344D38036E011
:1025B00033792BB15B4B86F804E018685A4B1860EE
:1025C000544B1B680B441FE0B1F900E0CEEB040153
:1025D00081EAE17CACEBE17C9C4509DD022391FBC7
:1025E000F3F1524B1960524901230B70337108E02B
:1025F000337933B14B4B307119684B4B19604C4BED
:102600001870444B1B6873444A4908680188408825
:102610008B4203DB98420146A8BF1946D180464B46
:102620001B78B3B1B8F84632A34212DB434B5B7957
:10263000012B01D0192B02D198F88F224AB90E2B09
:1026400007D0082B05D0294B00229A803C4B002252
:102650009A6098F810426CB3BF072BD0394B3A49B7
:102660001F6A384614F044FDF8B9384615F05EFB91
:10267000364B196814F094FB15F0DEFAB0F5617F63
:10268000A8BF4FF4617014F037FB314914F03CFCE3
:1026900013F042FC0746204614F02EFB394614F096
:1026A0007FFB15F0C9FA00B200E000200F4AD38882
:1026B0001844D08098F84A32264A1BB92988002944
:1026C00000F0AB801278094D002A00F08980022BBF
:1026D00042D0032B52D198F84B32C3EB431203EB99
:1026E0008203DB0048E000BF66180020841600204B
:1026F0003421002004210020302100208C160020ED
:102700007C0D002035FA8E3CDB0FC93F38090020D4
:10271000E5120020183800200C190020800D002040
:102720001438002000380020083800200C38002021
:102730001C3800201019002050030020082F002012
:1027400078160020303600208FC2753C001900201A
:10275000EFB6B0447E0D0020AB4BD3F8F820B2F5B5
:102760007A7F05DB44F620639342A8BF134601E05D
:102770004FF47A7303F57A739BB200E0F388A34AAF
:102780001068A34AB3FBF0F01278441C24B2092A63
:10279000348105D19F4A2988D3801180698851806E
:1027A000B6F90A80DFF8889200239B4E39F913E0CE
:1027B00006F10C0C3CF9131006F1140708FB01F1AB
:1027C00091FBF4F137F8132027F813E0C2EB0E0267
:1027D0000A442CF813200133042BE6D1708102E067
:1027E0007389013B73818C4A0023B2F90A40002CA3
:1027F00011DDB2F908601432884932F8130031F95A
:102800001310614391FBF6F1411A25F813100133BF
:10281000042BF1D106E0538104E013787181002B81
:1028200000F0AA807E4B93F84C0220B17D4B1B68D0
:102830009E0001F125847C4B00241F68079B07F153
:1028400004091B780593794B1B681B780793022CAE
:10285000774B15BF3878787897F8028097F8098019
:1028600033F9145014F048FA724914F04DFB4FF04C
:1028700080414FEA440B064614F04EFC60B14FF025
:102880008041304614F082F96B4914F089FA014610
:10289000304614F07DF90646284614F02DFA6749B3
:1028A00014F032FB0021824614F036FC002841F07F
:1028B00045840AF10045624AA300089342F8245077
:1028C000B8F1000F23D0404614F016FA594914F01D
:1028D0001BFB80462946284614F062FA294614F06C
:1028E0005FFA414614F05CFA414608904FF07E5082
:1028F00014F04CF9294614F053FA089A0146104690
:1029000014F046F90146504614F04AFA82464D4901
:10291000304614F045FA514614F042FA064619F8CA
:10292000010F002841F00D84059B0C2B05D130468A
:1029300014F012FC374B23F80B00079B002B41F0DF
:102940004A844149304614F02BFA4049064614F0B7
:10295000C5FB002841F04E843D49304614F0DCFBB5
:1029600000B13B4EA2003B4B0134032CD6507FF408
:102970006EAF394B00221A70384B1878002840F09F
:102980009685374E33681C0340F19185354C23788A
:10299000033B052B1CD8224B1F4D93F8453533B113
:1029A000012B08D106F0DCFFC0F17F0003E0686A6C
:1029B00003689B689847AB6A95F82C201344B3F5DD
:1029C000807FA8BF4FF480738342D4BFAB62A862FC
:1029D0002378023B092B00F2CF84DFE813F00A00D2
:1029E00047007900CD04CD049200A5007E04A00428
:1029F000B004094B00229A621A631B4A12685A6398
:102A0000032300F0B8BC00BFA8000020A4160020DB
:102A10006E150020701500203809002044090020A0
:102A2000082F002034210020482400204C130020CF
:102A3000841600200000C842D7A368410000FA4372
:102A4000E4170020000048433333834000F0FFC503
:102A500000F0FF45781600207E0D0020481300206E
:102A6000E41500207E180020002100209A4B9B4D89
:102A70001A686B6B6433934280F07E84402012F0BE
:102A8000FDFA002840F078842F46DFF854924FF08A
:102A900040082B6B19F8030060B112F0C9FBBB6A48
:102AA000B8F1010803F1FF33BB623B6B03F1010393
:102AB0003B63EED12A6B8A49884B8A5C002A40F03E
:102AC0005B841A634FF0FF325A63042300F053BC57
:102AD000844A5021A2F10C0301932923029200930E
:102AE0004920A2F10A03163A10F006FA002840F035
:102AF00043847A4B4FF0FF3218635A63072300F088
:102B00003ABC05230093784B002102910191A3F177
:102B10000802532010F0F0F9002840F02D846F4B8C
:102B20001863082300F027BC402012F0A7FA002801
:102B300040F02284694D2B6B4C2B01F26183DFE85E
:102B400013F04D005000550059005C006300680010
:102B50006D007100750081008A008D009A009E0052
:102B6000A300A800B9000D011E012F014001510171
:102B700062017301870191019F01AD01BB01C90190
:102B8000D701E501F30101020B021B022502370206
:102B900049025B026D02770281028B0295029F025D
:102BA000E702F102FB0205030F03190323032D03C0
:102BB0003703410346034B035003550362036F037E
:102BC0007C0387038C03910396039B03A003A50357
:102BD000AA03AF03B403B903BE03C3034349444884
:102BE00075E3444B444A45494548C2E1454A464994
:102BF00046483DE04649474869E3474B474893F814
:102C0000442593F8431533E0434B4548B3F8CC10C3
:102C10005DE3414B4348B3F8CE1058E3424B434881
:102C2000196954E3424B4348198950E3AB6BD9040B
:102C300004D5394B404893F8121248E3274B0B2236
:102C40001A6346E334493D4891F8153291F817224A
:102C500091F816128DE1A98F394838E333681A05C7
:102C600040F137832C4B3748B3F91A22B3F81C12C2
:102C700012F0B9FB2DE32C4B3348596927E3264B5F
:102C8000324893F8DA1122E3234B314893F8E611E6
:102C90001DE32148642290F8983402FB03F14318A5
:102CA00093F80E240C2303FB0213034493F810142F
:102CB00028480CE31848642290F8983402FB03F18A
:102CC000431893F80E240C2303FB0213034493F8D8
:102CD00012142148FBE200BF002100203809002027
:102CE00050A40108C6A40108A4A60108D8C501087B
:102CF000E4C50108F5C50108FAC5010802C60108C6
:102D000008C6010830C6010839C6010845C60108D1
:102D10005A34002059C60108082F002067C6010850
:102D200078C6010887C60108B825002096C60108A4
:102D300034250020A6C60108B0C60108BDC601089A
:102D4000D6C60108E1C60108F4C6010800C701089B
:102D500013C7010828C7010832C70108CD486422FB
:102D600090F8983402FB03F1431893F80E240C23D7
:102D700003FB0213034493F81114C748A7E2C548A4
:102D8000642290F8983402FB03F1431893F80E2460
:102D90000C2303FB0213034493F81914BF4896E273
:102DA000BC48642290F8983402FB03F1431893F86E
:102DB0000E240C2303FB0213034493F81314B848A6
:102DC00085E2B448642290F8983402FB03F143187A
:102DD00093F80E240C2303FB0213034493F81414FA
:102DE000B04874E2AB48642290F8983402FB03F1D7
:102DF000431893F80E240C2303FB0213034493F8A7
:102E00001814A94863E2A348642290F8983402FB9E
:102E100003F1431893F80E240C2303FB021303441D
:102E2000B3F81A14A14852E29A48642390F898140F
:102E30004B43C21892F80E240C2101FB0233C11837
:102E400091F8173491F81624994891F8151490E0E8
:102E5000904B642193F89824964801FB023393F831
:102E6000D01334E28B4A642192F89834924801FBE3
:102E7000032191F8E53391F8DB2391F8D11378E041
:102E8000844A642192F898348C4801FB032191F81C
:102E9000E63391F8DC2391F8D2136AE07D4A64218D
:102EA00092F89834864801FB032191F8E73391F8B2
:102EB000DD2391F8D3135CE0764A642192F89834CC
:102EC000804801FB032191F8E83391F8DE2391F863
:102ED000D4134EE06F4A642192F898347A4801FB8B
:102EE000032191F8E93391F8DF2391F8D51340E0FD
:102EF000684A642192F89834744801FB032191F8E0
:102F0000EA3391F8E02391F8D61332E0614A642164
:102F100092F898346E4801FB032191F8EB3391F855
:102F2000E12391F8D71324E05A4A642192F89834A7
:102F3000684801FB032191F8EC3391F8E22391F802
:102F4000D81316E0534B642193F89824624801FB90
:102F5000023393F8D913BAE14E4A642192F89834B7
:102F60005E4801FB032191F8EE3391F8E42391F8D8
:102F7000DA1312F038FAACE1464B642193F8982446
:102F8000574801FB023393F8EF13A0E1414B642152
:102F900093F8982401FB0233B3F8F00313F0ACFE6E
:102FA000504913F0FDFE14F0D7F801464E488EE16B
:102FB000384B642193F8982401FB0233B3F8F203F1
:102FC00013F09AFE474913F0EBFE14F0C5F80146E2
:102FD00046487CE12F4B642193F8982401FB02338F
:102FE000B3F8F40313F088FE3E4913F0D9FE14F051
:102FF000B3F801463E486AE1264B642193F89824D1
:1030000001FB0233B3F8F60313F076FE354913F0F3
:10301000C7FE14F0A1F80146364858E11D4B642163
:1030200093F89824344801FB023393F8F8134EE1E7
:10303000184B642193F89824304801FB0233B3F80D
:10304000FA1344E1134B642193F898242C4801FBB4
:103050000233B3F8FC133AE10E4B642193F8982441
:10306000284801FB0233B3F8FE1330E1094B642119
:1030700093F89824244801FB023393F8001426E1C6
:10308000044B642193F89824204801FB023393F801
:1030900001141CE1082F00203CC7010849C70108A2
:1030A00056C7010860C701086BC7010878C7010847
:1030B0008AC7010899C70108AAC70108BBC7010848
:1030C000CDC70108DDC70108EDC70108FDC701082C
:1030D0000EC801081FC8010831C8010821C801082D
:1030E0003BC801080000C84250C8010860C8010878
:1030F0006EC8010880C8010896C80108A5C8010863
:10310000C1C80108D7C80108E6C80108FDC8010800
:10311000A14B642193F89824A04801FB023393F853
:103120000214D4E09C4B642193F898249C4801FB42
:10313000023393F80314CAE0974B642193F8982460
:10314000984801FB023393F80414C0E0924B6421C9
:1031500093F89824944801FB023393F80514B6E0E1
:103160008D4B642193F89824904801FB023393F827
:103170000614ACE0884B642193F898248C4801FB3A
:10318000023393F80714A2E0834B642193F8982448
:10319000884801FB023393F8081498E07E4B6421C1
:1031A00093F89824844801FB0233B3F80A148EE0A4
:1031B000794B642193F89824804801FB0233B3F8DB
:1031C0000C1484E0744B7E4893F822127FE0724B1B
:1031D0007C4893F823127AE06F4B7B48B3F8D81100
:1031E00075E06D4B794893F8DB1170E06A4B93F80A
:1031F000DC0113F081FD764913F0D2FD13F0ACFF32
:103200000146744863E0644BB3F8DE0113F074FDCB
:103210006F4913F0C5FD13F09FFF01466E4856E05D
:103220005D4BB3F8E00113F067FD694913F0B8FD99
:1032300013F092FF0146694849E0574B6449D3F8BF
:10324000F40113F0ADFD13F087FF014664483EE042
:10325000514B644893F8D51139E04F4B624893F8CD
:10326000EA1134E04C4B614893F8E9112FE04A4BE6
:103270005F4893F889122AE0474B5E4893F84A1258
:1032800025E0454B5C4893F84B1220E0424B5B48ED
:10329000B3F84E121BE0404B594893F83C1216E02D
:1032A0003D4B584893F8E11011E03B4B564893F8DA
:1032B000E0100CE0384B5548B3F8DC1007E0364B13
:1032C000534893F8E71102E0334B5248996812F0E3
:1032D0008AF82B6B01332B634EE04F4B1B689B012D
:1032E0001AD54E4DB5F84030B3B94D4BD5F84480A2
:1032F00045201F6811F09CFF0E2011F099FF4046F9
:1033000012F051F8384612F04EF84FF48053EB8724
:103310000A2323700FF02EFB0FF0CCFD2CE03F4B67
:1033200093F84820002AF5D03B4A12689701F1D45F
:1033300093F84930002BEDD109232370ECE7394B8A
:10334000364D1A686B6BC833934204D2124B93F814
:1033500045757FB904E011F0D7FE0028F6D10BE0E7
:10336000686A0AF0D9FD95F84A306F62022B01D1E4
:103370000EF070F90123237011F0B0FE002853D035
:1033800001232370254B93F84920002A00F08F80F9
:10339000002283F849208AE0082F002016C901087E
:1033A0002AC901083BC9010855C9010870C90108AB
:1033B00085C901089CC90108B3C90108C8C9010829
:1033C000DEC90108DAC90108EAC90108F6C901081D
:1033D0000000C84208CA01081BCA01082CCA01081B
:1033E00041CA01084FCA01085FCA010870CA010832
:1033F00080CA010899CA0108ADCA0108CACA0108F1
:10340000E7CA0108FCCA010811CB010826CB010854
:1034100038CB010846CB01083421002038090020B0
:10342000CC37002000210020794B93F8462519461F
:10343000002A3CD033680026DD0433464CBFB1F887
:10344000D820B1F8D020734D35F9130001339042E4
:1034500018BF46F001060C2BF6D16F4B6F4D1B6861
:1034600026B103F59C530833EB6402E0EA6C9A4200
:1034700013D92378012B1AD195F84930BBB991F8AB
:1034800045352BB106F05AF8012385F849300EE096
:1034900080200EF0D7F850B9F4E72378012B06D03E
:1034A00095F849301BB106F01BF885F849605C4B74
:1034B0001B78072B05D111F091FC069BC01A594BC4
:1034C0005880564B00221A70574C13AD636828463B
:1034D0009847A046002800F03E81514A514F147889
:1034E0000792524A0023032C08BF52F823004FEAE8
:1034F000830108BF27F8130035F913000133032BAC
:103500004A4E5050EFD14A4B48491A78084607F0C6
:1035100081F9484B1B88002B00F0B980464B474D82
:103520001B6805F10C041B7800270593414BD8F864
:1035300014201B8856F8270006934FF47A73B3FBC8
:10354000F2F3C3EB431203EB8203DB00069A9BB258
:103550009A4202BF00232B6023612B684FEA870A3F
:1035600003442B6013F0C8FB226902F10109B9F191
:10357000010FC4F8109004D1002360602060A360A4
:1035800022E0226809901146089213F0FFFA834660
:10359000484613F0B1FB0146584613F0B5FC089AB3
:1035A000114613F0F5FA099B014681466060184602
:1035B00013F0ECFA594613F0F3FBA16813F0E8FAA4
:1035C000C4F80090E060A0601D4A002346F80A306D
:1035D0004AF80230069B012B48D12069012807DDFB
:1035E000013813F089FB0146E06813F08DFC00E020
:1035F000002014F0E1FD059B81461BB3184613F033
:103600007BFB494613F06AFDE0B107F0EFF83EE0BE
:10361000082F0020F012002000210020380900208F
:103620006E15002070150020B8250020941600208B
:103630009C26002018150020C818002088090020AA
:10364000D0090020D8F814204FF47A73B3FBF2F3BA
:10365000C3EB431203EB8203DB002A689BB202EB4D
:10366000530292FBF3F3A44A42F80A300137032FC6
:1036700005F1040504F114047FF458AF9F4C208831
:10368000012801D10AF0DAFD2388013B23809A4802
:10369000002356F8232050F82310994C521A46F86C
:1036A00023200133032BF4D1964B974F1A78984679
:1036B000002A44D0DFF8A8B2DFF87C92002456F844
:1036C000240013F019FB914BA5001B8801462BB178
:1036D0001C2000FB04B012F08DFC0146079B1B78F8
:1036E000082B0DD1022C0BD07259084625F8092061
:1036F000059114F0A1FA05EB090A0599AAF8020050
:10370000834B1B78012B06D1824B1C2000FB04301D
:1037100012F070FC0AE0804B80484FF00C0E1B68E2
:1037200098F800200EFB040012F050FD78517859F3
:1037300014F082FA0134032C7051C0D10BE02068E0
:1037400013F0DAFA3860606813F0D6FA7860A0688F
:1037500013F0D2FAB860724A92F8C830144623B116
:10376000013B82F8C83000F056BD6E4B93F8DC2167
:103770001E4622B193F8E631013BDBB200E00123A3
:1037800084F8C83011F02AFB674B684DD3F80080ED
:10379000674BB6F82612A3F1460207462868C047D1
:1037A000644B1A781E46072A04D111F017FB624BAE
:1037B000C01B988011F012FB96F800A00690BAF199
:1037C000010F0AD15D49D4F8CC305B4A0968C31AAD
:1037D00093805B1AD380C4F8CC00594B2A681B68CD
:1037E000E3B192F83140D4B1564A1268940718D523
:1037F000554A1278012A14D9DB7854495A4309886A
:10380000D31A994215B203DB91420B46A8BF134667
:103810002D031BB295FBF3F5012405E01C4625465C
:1038200002E001244FF48055494BDB780E932CB114
:10383000BDF954306B431B13ADF854304FF0000802
:1038400046464746434BDFF81C911B780593424B95
:10385000B3F902200992B3F90020B3F904300A92B7
:103860003E4A07931268344B0892059A97427BD2DE
:1038700009980B9313F040FAD9F8081013F090FA56
:1038800083460A9813F038FAD9F8041013F088FA2E
:103890000146584613F07CF9089B834693F90000D3
:1038A000079B4042584313F027FAD9F80C1013F045
:1038B00077FA0146584613F06BF913F04DFC15AA40
:1038C00000B20B9B0CB16843001322F8170015AA35
:1038D00032F91720B24203DC9045A8BF904600E0C1
:1038E0001646BAF1050F03D1042F98BF23F817200D
:1038F000013709F11009B8E7D00900201815002098
:1039000094160020D0250020D8170020D8250020AC
:10391000302600203426002088260020DC090020E4
:1039200038090020082F0020540300204C130020E9
:103930003C3100206E15002070150020A4160020D8
:103940004C150020E41500200004002098150020EC
:1039500004210020A31600203C170020DC180020C2
:10396000DC250020080A00208A4BC8EB06061968EF
:1039700036B211F480530893874A40D0874B884869
:103980001B78B2F9062013F0040F08BF0368854FB7
:1039900002BF1C8A834BA3F89041036882481B8AAC
:1039A0000068824CC588C5EB030E724508DCB0F98F
:1039B00000302068A7F89021B0F9004015440AE0D3
:1039C0002B449A4209DB2368B0F90240B3F9023074
:1039D000A7F89021551B2DB219E0B7F990319E45FB
:1039E000B3BF2368B0F900302268B0F90240A7BF26
:1039F000B2F900401D46B3F90230254607E06B4B93
:103A0000B2F906501B68B3F90040B3F902309BB21B
:103A1000A4B21A1B12B2964262481BDD4FEA02386A
:103A200098FBF6F60027C0F89461059BBB420AD9C3
:103A300015AB33F917E006FB0EFE4FEA2E3E23F8D6
:103A400017E00137F1E7022392FBF3F2144424B2AA
:103A50000B9408E04FF0020896FBF8F69B1B3444E9
:103A60001BB224B20B93B0F99031504A0D931768F2
:103A70004B4B4A4AD3F800A016784B4B4C4AD3F82C
:103A800000B0B2F9063006F004060C93059BDFF88F
:103A900038815B000F9301F01003F6B24FF000097C
:103AA00010930F9B99454CD015AA39F8022028464F
:103AB000119213F021F93F4B53F8391013F070F9BC
:103AC00013F04AFBA0422146119A04DB0B9B834270
:103AD000A8BF034619460A440E9B12B228F8022FCB
:103AE0000BB1B98811E0089B73B1BAF81010BBF89C
:103AF00006000D9B091A8B4203DC3988BBF80000D5
:103B000004E0BBF8021000E0398878888A4203DBC1
:103B100090420146A8BF1146109BA8F800106BB157
:103B200066B1089B53B90AF063FB38B9BAF81220A2
:103B30000C9B9342BCBFBA88A8F8002009F1020987
:103B4000AFE716B91C4B1D4A06E0164B93F89821B7
:103B5000192A00F2418108E00599B142F5D932F8FD
:103B6000161023F816100136F6E7012303FA02F2C5
:103B7000134B1340002B00F02F81124B1B88D805EC
:103B800024D5054B1A88ADF86C205A889B88ADF86F
:103B90006E2030E0E415002084160020382100203B
:103BA000E018002038090020A0350020A4350020AE
:103BB000E8150020080A0020E4340020F01200205C
:103BC0003241300330210020E2340020BDF828309B
:103BD000ADF86C30BDF82430ADF86E30BDF81C3057
:103BE000ADF87030089B43B1BAF810300C9A9A4285
:103BF00003DA079B5B42ADF87030AA484FF47A7243
:103C0000B0F902304FF4616103F5E163534393FB74
:103C1000F1F3A3F5FA73ADF88430B0F9003003F591
:103C2000E1635A4392FBF1F29F4BA2F5FA721B88B3
:103C3000ADF88620A3F2DC53ADF872309B4B9C4A62
:103C40001B6811881B8AC91AADF874105188C91AEB
:103C5000ADF876109188C91AADF87810D188C91AD4
:103C6000ADF87A101189C91AADF87C105189C91ABA
:103C7000ADF87E109189D289C91AD31AADF8823075
:103C80000023ADF8801019468A4A22F81310013338
:103C9000082BFAD1884B89491B68894D0593894BBC
:103CA000DFF810A21B684FF0640E0793864B4FF0AD
:103CB00001091B78C3EBC303CB180A930A9B8B4201
:103CC00070D00B782BB11533059A09FA03F3134022
:103CD00064D0079B11F806CC0E2202FB0C38B8F911
:103CE0000230B8F9002011F9010C9A1A11F9023CBE
:103CF00092B2534393FBFEF34FEA520B11F8057C4B
:103D0000CBEB0303099011F8030C1BB208937E0060
:103D100028B922A8064436F81C0C288019E022ABEA
:103D20001E44B5F9004036F91C6CB44208DA204450
:103D3000844203DC86423446A8BF04462C8008E057
:103D400007DD201AB04203DB8442A8BF04462646A2
:103D50002E80D8F80A0009FA07F73842B5F9006052
:103D600011F9040C089B00FB06F090FBFEF00CBF61
:103D700001244FF0FF34984209DB099B5A4392FB20
:103D8000FEF2CBEB02031BB28342A8BF03463AF814
:103D90001CB004FB03B32AF81C3000E02B80023572
:103DA00007318BE7474B494ED3F8008000254FF091
:103DB0000E09642709FB058393F9064036F9023F93
:103DC000E8B25C4394FBF7F4348010F03BFE01351D
:103DD0002044082D3080EDD13D4EDFF8E880336877
:103DE00013F0200F31D0002010F02CFE314C05468E
:103DF0002080012010F026FE2F4B60801B681906E2
:103E000023D5344B274A1B681B78012B23D1D8F8C4
:103E100000C0B2F902109CF906304FF0320E5B423E
:103E20004B4393FBFEF3B2F900209FB29CF9143090
:103E30006FF03101534393FBF1F193FBFEF33944EF
:103E4000691A3B44218018446080D8F800301F4A2A
:103E500003F1700419E0D8F80070B2F9023097F954
:103E600006105943322391FBF3F12944218097F93D
:103E70001450B2F9001001FB05F292FBF3F210446A
:103E8000E2E70E339C42118026D032F9020FB3F9DB
:103E90000010B3F902508842F3DB85422946A8BFDF
:103EA0000146EEE78C160020E4340020E0180020E4
:103EB000E8150020F80B002034210020AF35002049
:103EC000D20A002020360020A8350020F60B002062
:103ED000E4150020D8180020A74FA84D3B6893F99F
:103EE0000430ABB995F8988108F1FF33182B00F234
:103EF0009280DFE803F05090906B909090649090E7
:103F00009090907690909090906B839090765000E7
:103F1000A9460023DFF86CB2A5F8BA31B5F9BA4169
:103F2000072CDFDC99F8BC21DFF888A272B93A6867
:103F3000508812F0DDFE924A01461C20126800FBF8
:103F400004A012F00FF9012289F8BC213BF91400FA
:103F500012F0D2FE01461C2000FB04A012F04AF829
:103F600013F06AFED8F800100E2202FB041200B211
:103F70002BF81400B2F90010B2F90220884203DBDA
:103F80008242A8BF024611467E4B23F8141001342A
:103F9000A5F8BA41C2E73B685B781BB1794B0020BA
:103FA000598908E0784B1B7803F0040303F0FF0104
:103FB000002BF3D108460CF019FB01242CE0714CC6
:103FC0000020E1880CF012FB218905E06D4C0020F7
:103FD00021890CF00BFB618901200CF007FB022406
:103FE0001AE0684F0224A01E37F81410C0B2013442
:103FF0000CF0FCFA082CF6D106240DE0614F0324E6
:10400000E01E37F81410C0B201340CF0EFFA072CA0
:10401000F6D1042400E0002433689A0602D4B8F1F3
:10402000050F0BD1574F204639880CF0DFFA601C82
:104030007988C0B20CF0DAFA0234E4B23368DB02F9
:1040400005D495F8A03273B110F052FC0BE04F4F3D
:104050000026A01937F8021FC0B20CF0C7FA0D2EC7
:10406000EFD00136F5E74A4B1B78072B05D110F04E
:10407000B5FE069BC01A474BD88001232B70CAE0BF
:10408000454B1B885D063EF5D6AB3C4C434E237F2B
:10409000834210D0207712F02FFE414912F080FEAB
:1040A0004049054612F074FD11F036FF3060284695
:1040B00011F032FF20623C4CB4F9000012F01CFEFB
:1040C0000546B4F9040012F017FE3668059B074652
:1040D00031462846D3F8208012F062FE41468146E0
:1040E000384612F05DFE0146484612F04FFD13F0CF
:1040F00033F8DFF8C490B0F5FA7FA8BF4FF4FA7038
:104100004845B8BF484639462080304612F048FE40
:1041100041460646284612F043FE0146304612F05C
:1041200037FD13F019F8B0F5FA7FA8BF4FF4FA7015
:104130004845B8BF4846A080FEF77DBB5546FEF710
:10414000BABB12F0D9FD194912F0DEFE294612F071
:1041500027FE01464FF07E5012F018FD1449054627
:1041600012F0BCFF50BB4FF07E51284612F0D4FF36
:1041700028B34FF07E5522E0DC18002038090020DB
:10418000A4160020F80B002038210020EE15002096
:104190006E15002070150020302100200000002046
:1041A00035FA8E3CDB0FC93F841600200000C84260
:1041B0000AD7233CF80A00200CFEFFFF174D2946C2
:1041C0004FF07E5012F0A0FE0146304612F0E8FD9E
:1041D0000646FEF7A9BB1249304612F07FFF60B9D0
:1041E0001049304612F098FF00283EF4BBAB0D4E4C
:1041F000FEF7B8BB0C4EFEF7B5BB094EFEF7B2BBDF
:1042000010F082FF00283FF4B7A84FF48053EB87EB
:104210000A23FFF7B0B823B0BDE8F08F0AD7233CDC
:1042200000C0F9C400C0F94400F0FFC52DE9F04F0B
:10423000914BADB01D780093002D00F0A7808F4BFF
:104240001868002801F010870CF020FCDFF85C9261
:10425000DFF85C82D9F800000BF0B8F9002801F013
:104260000387D9F800000BF0AEF90928844C01D07F
:104270003F2855D14FF0000A5746554626680AEBAD
:10428000080B36B132465AF808107E4815F0C6FFC2
:1042900020B90DB15F4601E05D465F460AF1080AAC
:1042A000BAF5907FEBD1F5B1D5F800A0D7F800B002
:1042B000DFF8D0C123681AF803001BF8031081420D
:1042C00011D15A1CDFF8BCE149B92D2B07D86C4835
:1042D000026020200EF803000EF8021003E00CF834
:1042E00003002260E6E723680BB1BD420FD06648A9
:1042F00004F0D4FABD4207D855F8080B04F0CEFA02
:1043000009200BF016FCF5E707F0A8FF00265D4D2D
:1043100023689E429ED2A85D0BF00BFC0136F7E7A6
:1043200023686BB9042804D1564804F0D7FC01F087
:104330009BBE0C2841F09486544804F0AFFA22E06A
:104340000C28F9D00A2841F03F864E4E504804F020
:10435000A5FA2321304615F052FF354608B1801BDF
:10436000206023680022002B41F03286002A41F0B1
:104370004A8630220021434815F00CFF009B1B7831
:10438000002B01F0718607F069FF63E7414B03F1F1
:104390003007414BEA18EB58002B01F058803F4C96
:1043A0003F4922603F4A2646894692460B60059364
:1043B00000238DF819303C4814238DF8183004ABD5
:1043C00004920360D9F80000DFF8D4800BF0FEF807
:1043D000002801F02880D8F800000BF0F4F83368CA
:1043E000834693F8481019B9242863D101221DE0AF
:1043F000012903D14D2808BF022204E0022907D178
:104400003C2808BF032218BF002283F8482085E01B
:1044100003290ED140284FF0000102D983F848103B
:10442000D0E758711971D9719871042283F8482026
:10443000C8E7042907D1997983F8490080EA010285
:104440009A710522F2E7052968D1587919798842CD
:10445000987908D98BEA00009871481C18710B44B0
:1044600083F808B0AEE7584503D1062283F8482008
:104470005AE00022DAE700BF481300206421002040
:1044800044130020141300201DCC010822CC010885
:1044900068D00108C4A6010860240020582100202B
:1044A00060210020D9F500085C21002010130020B5
:1044B00054AA0108BF490B7803F0040303F0FF0E70
:1044C000002B7FF47FAF23281DD1009A0123D8F859
:1044D00000001370B84B01911860B84B1860B84BCE
:1044E000586010201872B748C3F800A0036083F822
:1044F00009E0B54804F0D2F907F0B0FE01990B7855
:1045000043F002030B70B14B1B681B785B4505D170
:10451000AF4BB04A1A60B04BB04ADA60336893F8D8
:104520004820062A7FF44EAF93F84980B8F1520F25
:1045300000F0878600F2D880B8F1340F00F0508484
:1045400067D8B8F1240F00F0D6842DD8B8F1040F45
:1045500000F0378215D8B8F1020F00F0188200F28F
:104560002582B8F1010F40F0A38703200BF0CCFAAD
:1045700000200BF084FA40460BF081FA142000F082
:104580002EBFB8F10A0F00F05A82B8F1220F00F0E6
:104590000684B8F1050F40F08B871A200BF0B4FAAF
:1045A0000026DFF854821DE2B8F12C0F00F0F884E9
:1045B0001BD8B8F1280F00F0DA84B8F12A0F00F008
:1045C000E984B8F1260F40F07387854E06200BF082
:1045D0009BFAB6F8C8010BF09AFAB6F8CC010BF0CA
:1045E00096FAB6F8D00100F0F7BEB8F1300F00F03F
:1045F0008D85B8F1320F00F03185B8F12E0F40F003
:104600005787774E40200BF07FFA06F1400800F004
:104610006DBDB8F1450F00F0198636D8B8F13B0FE3
:1046200000F0B68319D8B8F1380F00F08D84B8F1D6
:104630003A0F00F02A83B8F1360F40F03987694B02
:10464000674E187806F12808C0EBC000C0B20BF026
:104650005BFADFF8A89100F045BDB8F1400F00F01B
:104660000485B8F1420F00F01085B8F13D0F40F01D
:104670001F875B4E02200BF047FA96F88B020BF077
:10468000FEF996F88A0200F0AABEB8F14B0F00F0CE
:10469000B28410D8B8F1470F00F08D85C0F077854F
:1046A000B8F1490F40F0048702200BF02DFA4E4B71
:1046B000988A00F091BEB8F14F0F00F0B585B8F1BF
:1046C000500F00F09F85B8F14D0F40F0F186474E36
:1046D000DFF82C8130784FF0000900EB4000C0B2C9
:1046E0000BF012FA00F0A2BCB8F1700F00F02883B2
:1046F00000F28A80B8F1660F00F0DD812CD8B8F1A5
:104700005E0F00F030860DD8B8F15A0F00F0EB853F
:10471000B8F15C0F00F00686B8F1540F40F0C8867F
:1047200000F08FBDB8F1640F00F0798100F299813B
:10473000B8F1600F40F0BC86294E03200BF0E4F97D
:1047400096F8D5010BF09BF996F8EA010BF097F972
:1047500096F8E90100F043BEB8F16C0F00F08582D5
:1047600016D8B8F1680F00F06782C0F0D181B8F1B7
:10477000690F40F09D86DFF87480002698F80000ED
:10478000DFF88090400000F0FE000BF0BDF961E220
:10479000B8F16E0F00F07D8200F2A08206200BF0CF
:1047A000B3F9134B18680BF0BBF9124B188800F0E3
:1047B00013BE00BF38210020101300208C180020E9
:1047C000DC0B0020642100204DCC01087034002057
:1047D000F04F0020EFBEADDE00ED00E00400FA0572
:1047E000082F002064180020B82500202425002070
:1047F000003800205012002039C60108743400200F
:104800005C310020E8150020B8F17D0F00F04185F3
:104810005BD8B8F1750F00F0AF823ED8B8F1730FD6
:1048200000F0428300F2AE80B8F1720F40F0408693
:10483000D94E16200BF068F9B6F844020BF067F970
:10484000B6F8CC000BF063F9B6F8CE000BF05FF9C8
:10485000B6F8D0000BF05BF9B6F898020BF057F9F8
:1048600000200BF00CF900200BF009F900200BF0F0
:1048700006F996F81F020BF002F996F840020BF0C9
:10488000FEF800200BF0FBF8B6F9EC310A2093FBA0
:10489000F0F080B20BF03BF95AE3B8F1780F00F07A
:1048A0004681B8F17C0F00F0E584B8F1770F40F055
:1048B000FF85DFF81483002698F800000BF024F938
:1048C000DFF808A3DFF80893E4E2B8F1A00F00F0E6
:1048D00004833FD8B8F17F0F00F02584C0F0F48442
:1048E000B8F1960F40F0E4850F200BF00DF9AB4BBB
:1048F00018880BF00CF9AA4B188880B20BF007F956
:10490000A84B1B68C3F3C000C3F38002800040EAD9
:104910004200C3F340021043C3F3401240EAC20016
:1049200003F0100318430BF0F2F80AF0D5FF0BF078
:10493000F7F8994B93F898040BF0A1F89A4B188864
:104940006428A8BF64200BF0E2F802200BF097F86F
:10495000964B22E2B8F1F10F00F04881B8F1FE0F5A
:1049600000F0AD82B8F1F00F40F0A2858A4E04202D
:104970000BF0CAF8B6F8F0010BF0C9F8B6F8EE0182
:1049800000F02ABD4FF000094FF0010B54E2042063
:104990000BF0BAF8DFF83C82002618F80600013662
:1049A0000BF06DF8042EF8D100F037BD03200BF0AA
:1049B000ABF803200BF063F800200BF060F800F078
:1049C00043BC06200BF0A0F8DFF80C82002618F894
:1049D000060001360BF053F8042EF8D1744B18780A
:1049E00000F0FABC18F8060001360BF048F80B2E60
:1049F000F8D1DFF8E881002618F8060001360BF040
:104A00003EF8082EF8D1DFF8D881002618F8060005
:104A100001360BF034F8072EF8D100F0FEBC072069
:104A20000BF072F8E7200BF02AF85B4B58790BF08B
:104A300026F800200BF023F8042000F018BC5D4895
:104A400011F0F6FB5FFA80F840460BF05DF85A4E25
:104A5000B044B04500F0E18416F8010F0BF00FF8F8
:104A6000F7E70B200BF050F84C4B18880BF04FF881
:104A70004B4B188880B20BF04AF84A4B1B68C3F3C3
:104A8000C000C3F38002800040EA4200C3F340024A
:104A90001043C3F3401240EAC20003F0100318436E
:104AA0000BF035F80AF018FF0BF03AF83A4B93F890
:104AB000980400F094BC12200BF026F83F4BDFF86E
:104AC00024911B890026B3F5007F94BF4FF00108A5
:104AD0004FF0040859F82600013690FBF8F080B238
:104AE0000BF015F8032EF5D1354E30880BF00FF88A
:104AF000B0880BF00CF83089324E0BF008F8308893
:104B00000BF005F8B0880BF002F8308900F064BCB7
:104B100010200AF0F9FFDFF8D080002618F8060010
:104B200001360AF0ACFF102EF8D100F076BC1A4E18
:104B300070200AF0E9FFB0464FF0000A4FF00E096E
:104B4000B6F852010AF0E3FFB6F854010AF0DFFFAD
:104B5000B6F856010AF0DBFF96F858010AF08FFF0D
:104B600096F859010AF08BFF96F85A010AF087FF70
:104B700096F85B010AF083FF09FB0A830AF1010A38
:104B8000D3F85C010AF0CCFFBAF1080F06F10E066B
:104B9000D6D100F042BC00BF082F00200C2300201B
:104BA000BC2E0020B0250020901300200F230020F1
:104BB000312500205A3400205934002034250020AB
:104BC0009416002024380020392100203A210020AA
:104BD000C4A6010885CC01088ACC010830C60108AA
:104BE000FAC5010844120020F80B002070200AF0DA
:104BF0008BFFC44E06F1700896F8E2000AF03FFF02
:104C000096F8E3000AF03BFF96F8E4000AF037FF5D
:104C100096F8E5000AF033FF96F8E6000AF02FFF59
:104C200096F8E7000AF02BFF073696F8E1000AF045
:104C300026FFB045E0D1F0E310200AF065FFDFF871
:104C40000083002618F8060001360AF018FF102E1F
:104C5000F8D1E2E398F800309E4280F0DE8339F824
:104C600016000AF054FF0136F4E7A74E06200AF0BA
:104C70004BFF30880AF04BFF70880AF048FFB6F906
:104C800004300A2093FBF0F023E004200AF03CFFFC
:104C9000ECE207200AF038FF9C4B1888FF28A8BFD9
:104CA000FF20C0B20AF0EBFE994B186880F31000A9
:104CB00080B20AF02CFF974B18880AF028FF914B1E
:104CC00093F81F22944B18682AB10A23584380F3A3
:104CD000100080B280E300F30F00FAE78F4E0C2043
:104CE0000AF012FF3368B04618780AF0C8FE33683D
:104CF0004FF0000998780AF0C2FED8F80030874ECD
:104D00004B44587909F101090AF0B9FEB9F1030FD2
:104D1000F3D13368187A0AF0B2FE3368D8780AF013
:104D2000AEFE336818790AF0AAFE336858890AF093
:104D3000EEFE3368587A0AF0A2FE336858784EE3E4
:104D40001E200AF0E1FEDFF8DC810026D8F80030F2
:104D5000334458780AF093FED8F800303344D87AB8
:104D60000AF08DFED8F800303344587D01360AF041
:104D700086FE0A2EEAD150E32F200AF0C5FE684EC7
:104D800016F8010F002800F048830AF078FEF7E7D4
:104D900001200AF0B9FE634B1B6818781FE350200E
:104DA0000AF0B2FE574E4FF00C0906F150085E4A69
:104DB00096F89934043609FB032393F838000AF077
:104DC0005EFE96F896040AF05AFE96F897040AF0EA
:104DD00056FE96F898040AF052FEB045E7D11CE35F
:104DE0005A200AF091FE474E06F15A0896F8EE0452
:104DF0000AF045FE96F8E9040AF041FE96F8EA0446
:104E00000AF03DFE96F8EB040AF039FE96F8EC0441
:104E10000AF035FE063696F8E7040AF030FE4645FD
:104E2000E4D1FAE2BBF1000F00F0F7825FFA89F0FB
:104E30000AF06AFE4FF0000B00263C4B1B789E42A6
:104E4000F0DA3B4B0021F05C4FF00C0E0EFB01F34F
:104E500013F807C0844503D001311F29F6D10CE0B7
:104E6000314A1344D3F834A0504611F0E1F9014619
:104E7000BBF1000F00F0F18289440136DDE700FB51
:104E800002F313F807E08E4500F0F48201321F2A86
:104E9000F5D1013698F800309E4280F0BE8216F8B7
:104EA0000A1000220C20EAE708200AF02DFE012655
:104EB000F0B201360AF0E3FD092EF9D1ADE2082087
:104EC0000AF022FEDFF87C80002638F81600013652
:104ED0000AF01DFE042EF8D19FE20C200AF014FE09
:104EE000144B18680AF01CFE134B18680AF018FEE1
:104EF000124B1868BBE104200AF006FE014B9868CB
:104F0000B5E100BF082F00208C1600209815002066
:104F1000F4380020F83800206412002048240020D3
:104F2000C3A601084C130020C4A6010839210020A3
:104F30003A210020E8F7FF1FECF7FF1FF0F7FF1FF3
:104F4000E43400207015002004200AF0DDFDDA4E64
:104F500096F812020AF093FD96F816020AF08FFDF9
:104F600096F815020AF08BFD96F8170237E2D24E3A
:104F700007200AF0C9FDB6F81A020AF0C8FDB6F813
:104F80001C020AF0C4FD96F81E020AF078FDB6F87D
:104F9000200221E201200AF0B7FDC74B58791EE23A
:104FA000C54E10200AF0B0FD96F83C020AF067FDED
:104FB000B6F848020AF0ABFDB6F844020AF0A7FDC5
:104FC000B6F846020AF0A3FD96F83E020AF057FD35
:104FD000B6F850020AF09BFDB6F852020AF097FDAF
:104FE00096F84A020AF04BFD96F84B020AF047FD8C
:104FF000B6F84E02F0E1B04E08200AF085FD96F8B2
:1050000096020AF03CFD96F897020AF038FDB6F8D1
:1050100098020AF07CFD96F89A020AF030FDB6F884
:105020009C020AF074FD96F89E02D8E1337808F1EC
:105030000208994580F0F18118F8020C0AF01FFD72
:1050400018F8010C09F1010900EB800000EB800069
:1050500000F2EE2080B20AF05AFDE7E701200AF0E4
:1050600053FD954B93F84002B9E108200AF04CFD3E
:10507000DFF84482002606EB080393F83402013679
:105080000AF0FDFC082EF6D1C7E18B4E10200AF085
:105090003BFD70790AF0F3FCB0680AF041FD96F828
:1050A0003C020AF0ECFCB6F8C8010AF030FDB6F894
:1050B000CC010AF02CFDB6F8D0010AF028FDB6F8B4
:1050C0001A020AF024FDB6F81C0285E113F9092042
:1050D000824200F0D5810C333C2BF7D10836B04525
:1050E00000F09B8196F9A2020023EFE7B6F8600377
:1050F0000AF00DFD96F862030AF0C1FC043696F83A
:105100005F030AF0BCFCB045F0D186E180200AF0D4
:10511000FBFC6A4E06F1800856F8040F0AF000FD09
:10512000B045F9D179E18D200AF0EEFC00264FF070
:10513000060A0AFB06F94FF0000B5FFA86F84046B4
:105140000AF09DFC5FFA8BF00AF099FC5A4B0BEBCE
:105150000901194491F8A0030BF1010B0AF08FFC2F
:10516000BBF1060FEBD10136062EE2D10026062058
:105170000AF085FCF0B20AF082FC4F4B334493F8FE
:10518000C40301360AF07BFC0B2EF0D145E10D2063
:105190000AF0BAFC04F0F4FB494E40F00200C0B241
:1051A0000AF06DFC30880AF0BBFCF0680AF0B8FC2D
:1051B00004F0C6FB5BE00AF059FC064684200AF0C6
:1051C000A3FC30460AF0ACFC3D4B0DF13008DA6828
:1051D00006F1800393428CBFC6EB02094FF08009B1
:1051E00004F0A8FC4A463046414604F0E1FC814602
:1051F00000264E4580F2118118F806000AF03FFCA7
:105200000136F6E72C4E04200AF07EFC01200AF05D
:1052100036FC96F845050AF032FC96F843050AF08C
:105220002EFC96F84405DAE00B200AF06DFC002015
:105230000AF025FC00200AF022FC00200AF01FFCE6
:1052400011E001200AF060FC0020C8E013200AF001
:105250005BFCDFF87080002618F8060001360AF0C3
:105260000EFC0B2EF8D100200AF05AFC00200AF0A8
:1052700057FCD2E0104E06200AF046FCB6F8D400E7
:105280000AF045FCB6F8D6000AF041FCB6F8D800A2
:10529000A2E0094E05200AF037FC96F822020AF037
:1052A000EEFB96F823020AF0EAFB96F824020AF0D5
:1052B000E6FBB6F8DA008FE0082F0020E43100208A
:1052C0008400002039C60108C94E03200AF01CFCE6
:1052D00096F8C3010AF0D3FB96F8C4010AF0CFFB9D
:1052E00096F8C5017BE0C24E06200AF00DFCB6F828
:1052F000D83123B108200AF0C2FB012005E096F85E
:10530000DA010AF0BCFB96F8E6010AF0B8FB96F861
:10531000E1000AF0B4FB96F8E0000AF0B0FBB6F842
:10532000DC0059E0DFF8C882B24E0D200AF0ECFB39
:1053300098F8DC010AF0A3FB3368188C0AF0E7FB4D
:105340003368588C0AF0E3FBB8F8DE010AF0DFFBA3
:10535000B8F8E0010AF0DBFB3368988C0AF0D7FB61
:105360003368D88C38E0A34E11200AF0CDFB3368A7
:10537000588D0AF0CCFB3368988D0AF0C8FB33686F
:10538000D88D0AF0C4FB336893F828000AF077FB45
:10539000336893F831000AF072FB336893F83700F2
:1053A0000AF06DFB336893F838000AF068FB336845
:1053B00093F833000AF063FB336893F834000AF083
:1053C0005EFB336893F836000AF059FB3368988F18
:1053D0000AF09DFB3368588F0AF099FB1DE00AF034
:1053E0004EFB1AE040F22D84B8F1D00F00F0478454
:1053F000B8F1D20F40F016810AF022FB020600F14C
:105400004B847D4B1B785B0704D4022828BF002007
:105410000BF044FC00200AF077FB0AF041FB236804
:10542000002283F84820754B754C18680BF02EFB52
:1054300094F82C305BB1734B585908F045FD0FF0D0
:10544000F4FC002384F82C306F4A704BDA604C3542
:10545000982D00F00986FEF79CBFD046CAEB0800E5
:105460008842BFF60AAD18F8010B01910AF007FB5C
:105470000199F3E74B4493F838000AF000FB08E584
:10548000C0B20AF0FCFAB6F8A4020AF040FB96F8A3
:10549000A6020AF0F4FA96F8A7020AF0F0FA96F8D3
:1054A000A9020AF0ECFA96F8A8020AF0E8FA15E662
:1054B000B8F15B0F15D10AF0C3FA4D4E86F8DA0148
:1054C0000AF0BEFA86F8E6010AF0BAFA86F8E100B8
:1054D0000AF0B6FA86F8E0000AF0BEFAA6F8DC0098
:1054E00098E700F26082B8F1370F32D15B794FF064
:1054F0000708B3FBF8F8C8EBC8029B1A13F0FF0FBC
:1055000002D00CF0F5FC85E75FFA88F8B8F1000FDF
:1055100080D00AF095FA4FFA80F9484608F066FD07
:1055200006460028EDD080F800900AF095FA7080C9
:105530000AF086FA30710AF083FA70710AF080FA84
:10554000F0710AF07DFA08F1FF385FFA88F8B0715F
:10555000DCE700F22781B8F12B0F04D10AF070FAD2
:10556000234B587156E700F28680B8F1250F08D119
:105570001F4E0023B3600AF079FAB3681843B06095
:1055800048E752D8B8F10B0F19D111220021204859
:1055900014F000FEDFF858904FF0000833685B7994
:1055A000102B28BF10239845BFF434AF0AF048FAF7
:1055B00008EB090383F8520508F10108EEE7B8F19A
:1055C000230F2FD10AF03CFA1328064699D80AF087
:1055D00037FA00220C2101FB02F307EB030E9EF8C1
:1055E00008E0864500F0CB8401321F2AF3D188E71A
:1055F000082F00204C130020382100205C210020BF
:10560000DC0B0020602400200400FA0500ED00E01F
:105610005A340020B8F1FA0F04D1CD4B1B785A0749
:1056200040F134830CF064FCF7E6B8F1270F0DD19C
:105630000AF012FAC74EC6F8C8010AF00DFAC6F809
:10564000CC010AF009FAC6F8D001E3E6B8F1290F57
:10565000E8D10AF001FABF4EA6F81A020AF0FCF9E6
:10566000A6F81C020AF0ECF986F81E020AF0F4F91A
:10567000A6F82002CEE6B8F1310F13D10AF0E0F916
:105680001F2806463FF63DAF23685B79052B7FF464
:1056900038AF0AF0EBF9AF4BB83643F826000FF0FD
:1056A0008BFCB7E64BD8B8F12D0F32D10AF0C8F910
:1056B000A84E86F83C020AF0CFF9A6F848020AF094
:1056C000CBF9A6F844020AF0C7F9A6F846020AF098
:1056D000B7F9236886F83E025B79082B07D90AF0F0
:1056E000BBF9A6F850020AF0B7F9A6F852022368EF
:1056F0005B790C2B7FF68EAE0AF0A2F986F84A028F
:105700000AF09EF986F84B020AF0A6F9A6F84E02B6
:1057100080E6B8F12F0F85D18E4E06F140080AF0D1
:105720009BF9A6F860030AF08BF986F862030AF089
:1057300087F9043686F85F034645F0D16AE6B8F18A
:10574000330F05D10AF07CF9824B83F8400261E601
:10575000B8F1350F7FF466AF0AF072F90E28804673
:105760003FF6CFAE0AF06CF903283FF6CAAE794B8C
:10577000062606FB083686F8EE040AF061F986F87C
:10578000E9040AF05DF986F8EA040AF059F986F8A6
:10579000EB040AF055F986F8EC040AF051F986F8A2
:1057A000ED0437E6B8F1440F04D16B4B012283F8C6
:1057B0002C202FE672D8B8F13E0F09D10AF040F93B
:1057C000644E86F88B020AF03BF986F88A0221E6DD
:1057D0002CD8B8F1390F11D10AF032F95D4E86F8A4
:1057E00012020AF02DF986F816020AF029F986F855
:1057F00015020AF025F986F817020BE6B8F13C0FFE
:105800007FF410AF554ED6F800800AF019F9012840
:10581000A8BF012088F8000033681B78012B18BF4F
:105820004F4A504B08BF504A1A60F3E5B8F1410F98
:105830000CD1DFF8208100260AF002F906EB0803FC
:105840000136082E83F83402F6D1E3E5B8F1430FB0
:105850007FF4E8AE0AF0F4F83E4E0023B3607071B6
:105860000AF004F9B3681843B0600AF0E9F886F862
:105870003C020AF0F1F8C6F8C8010AF0EDF8C6F8E3
:10588000CC010AF0E9F8C6F8D0010AF0E5F8A6F86C
:105890001A020AF0E1F8A6F81C02BBE5B8F14C0FB9
:1058A00019D10AF0CDF82B4E86F896020AF0C8F806
:1058B00086F897020AF0D0F8A6F898020AF0C0F825
:1058C00086F89A020AF0C8F8A6F89C020AF0B8F81E
:1058D00086F89E029EE513D8B8F1480F09D104F06E
:1058E00091F9224A00231370214A1370214A136050
:1058F00090E5B8F14A0F7FF495AE0AF0ADF889E56E
:10590000B8F14E0F38D10AF09BF8112880463FF6C7
:10591000F8AD0AF095F80F4E08F5947806EB4803B9
:1059200018710AF099F840F2ED23984205DD40F62F
:10593000CA039842A8BF184601E040F2EE20A0F248
:10594000EE20192390FBF3F006EB4806707161E539
:1059500038210020082F0020DC0B00204C130020F1
:10596000E9D30008540300200DD7000808130020D5
:10597000091300200C130020B8F1510F7FF452AE30
:10598000DD4B1B78012B3FF645AD0AF059F8DB4E95
:1059900086F845050AF054F886F843050AF050F8F1
:1059A00086F8440536E5B8F1D30F04D10AF054F86F
:1059B000D34B18802EE500F27881B8F1CC0F52D18C
:1059C0005B79092B7FF69DADCE4ED6F800800AF0AC
:1059D00037F888F80000D6F800800AF031F888F827
:1059E00002000AF02DF833686428A8BF64205871BB
:1059F0000AF026F833686428A8BF642098710AF07A
:105A00001FF83368FF28A8BFFF20D8710AF018F8E4
:105A1000D6F80080642828BF642088F808000AF0BF
:105A20000FF888F80300D6F800800AF009F888F823
:105A30000400D6F800800AF00FF82368A8F80A00DE
:105A40005B790A2B05D9D6F8008009F0F9FF88F8B0
:105A5000090023685B790B2B7FF6DCAC366809F014
:105A6000EFFF7070D6E400F2B280B8F1610F0DD193
:105A700009F0E6FFA14E86F8D50109F0E1FF86F8AE
:105A8000EA0109F0DDFF86F8E901C3E479D8B8F14D
:105A90005D0F2AD109F0D4FF9B4EDFF86082D6F863
:105AA000009088F8DC0109F0D7FFA9F82000D6F8AB
:105AB000009009F0D1FF2368A9F822005B79052B3B
:105AC0007FF6A8AC09F0C8FFA8F8DE0109F0C4FF12
:105AD000A8F8E001D6F8008009F0BEFFA8F824007D
