:020000040800F2
:1000000000A00020016A0108370201081514010848
:100010003502010833020108310201080000000026
:100020000000000000000000000000002F02010896
:100030002D020108000000002B020108353C0108D8
:10004000696A0108696A0108696A0108696A010840
:10005000696A0108696A0108696A0108696A010830
:10006000696A0108696A0108696A0108057100087E
:10007000F5700008E5700008D5700008C57000082C
:10008000B17000089D700008696A0108696A01087A
:10009000FD020108696A0108696A0108696A0108C4
:1000A000213901085D390108113901088539010834
:1000B000513901084139010831390108696A0108DB
:1000C000696A0108696A0108696A0108696A0108C0
:1000D000696A0108D96F0008CD6F0008C36F000876
:1000E000696A0108696A0108714D0108696A0108B5
:1000F000696A0108696A0108696A0108696A010890
:10010000000000000000000000000000696A010813
:10011000696A0108696A0108696A0108696A01086F
:100120008970000875700008617000084D70000843
:1001300039700008696A0108000000000000000032
:10014000696A0108696A0108696A0108000000001B
:10015000000000000000000000000000000000009F
:100160000000000000000000696A0108696A0108D7
:10017000696A0108000000000000000000000000A3
:0801800000000000696A01089B
:100188002DE9F04F944B954A2DED088B1A60944B4E
:10019800AFB000221A600DF0FFFC18B90EF0F8F8A5
:1001A80011F0FAFC0DF01CFD8E4A137843F00103A0
:1001B80013708D4B4FF47002C3F8882000230C9302
:1001C8000D9303F1804303F504331A6842F4803237
:1001D8001A601A6802F400320D920C9A01320C92DD
:1001E8000D9A1AB90C9AB2F5A04FF2D11A6812F406
:1001F800003218BF01220D920D9A012A4FD07A4E73
:100208007A4AF2607A4F5C6A3C605A6A42F08072BD
:100218005A625A6942F4FC025A612EAD03238DF8E2
:100228006A3041F6FF7325F8503D4FF0904029465B
:1002380006F0D4FE4FF6FF7329466E48ADF86830D5
:1002480006F0CCFE29466C4806F0C8FE29466B48E5
:1002580006F0C4FE29466A4806F0C0FE29466948E9
:1002680006F0BCFE284609F0E7FD674A1A9BB3FB77
:10027800F2F3664A00211360381D102219F044F881
:10028800634A644B5360F02386F823300721002328
:100298009360614E11604FF0010E604928E0604A9A
:1002A800122111605A685A605A685A605A6842F4B2
:1002B80080625A605A6822F47C125A605A6842F482
:1002C800E8125A601A6842F080721A601968554A32
:1002D8008C01FBD5516821F003015160516841F050
:1002E800020151605A6802F00C02082AFAD186E726
:1002F800980236F8135000F19040002245FA02FCAB
:100308001CF0010F18BF0EFA02FC02F101021EBF19
:100318000860A1F804C00C31102AEFD10133062B74
:10032800E6D1414D414B95F8EB21414E1A70002022
:10033800AB68336010F076FC3E4ADFF8089192F81B
:1003480000A00023B0464FF0170B0AEB03025E1C17
:1003580059F8220038B1022380F806B0C37106723A
:10036800012111F055FA032E3346EED1002010F08A
:1003780059FCD8F80030180711D595F84032012BF0
:100388000DD814F0805400F02A8608E093F8432230
:10039800012A04D1002283F8422211F0ABFC642028
:1003A80013F004FC4FF48C7200212348DFF88C9082
:1003B80018F0AAFF0024CA4654F809101F4E00235B
:1003C8001F4850F8330081424FEAC3023CD10AEB80
:1003D800020393F8D0003BE01C1C002095DB0008CA
:1003E800201C00201C2E002000ED00E00005FA056E
:1003F800A80500200004004800080048000C004838
:10040800001000480014004840420F006C320020E1
:1004180010E000E03F190100F4A50108982300202E
:10042800002002400010024060250020B215002084
:10043800C4180020D5A501089C3000203C94010870
:1004480008950108D8A5010801330A2BB8D1002066
:100458000C3410F079FACC2CAED1B84C04F1CC099C
:10046800207911F073F90C3414F8032C14F8041CD7
:1004780011F090F94C45F3D1B14BB24ADFF8F8A22C
:100488001A604FF00509D8F80040AF488AF8009084
:1004980000213C2218F038FF0023DFF8E0E2DFF803
:1004A800A8C2494604F0400818464FF0FF091EF953
:1004B800012F03F80C2003EB0C0BB8F1000F09D146
:1004C8001E3AD2B2012A9FBF01F1FF318BF800908A
:1004D800C9B201200C333C2BE9D108B18AF80010CD
:1004E8009A4B95F8059083F80090994B99497B6150
:1004F800D6330B60A10658BF974B984A56BF03EBFB
:10050800C90301235B789361954A002340F2DC51CB
:1005180022F813100133082BFAD11C22002113A84A
:1005280018F0F2FEA3050AD52022212301213A77EB
:100538007B778DF858108DF866208DF86730B9F103
:100548000E0F04D009F0EF09B9F1080F02D1012309
:100558008DF8603002200CF0ABFA18B140880030FA
:1005680018BF0120C4F340038DF85430C4F340335E
:1005780018F100088DF84C30C4F3C03318BF4FF0A1
:10058800010800F001008DF84F3014F400638DF875
:1005980052008DF8568007D095F8223203F1FF3EBD
:1005A800DEF1000343EB0E038DF85030C4F3004333
:1005B8008DF85730C4F3C0038DF84E30BB69003353
:1005C80018BF01238DF85930C4F300538DF85A3001
:1005D800B5F8D630ADF85E30B5F8E230ADF85C303D
:1005E80095F8E53004F001098DF84D9004F00808FD
:1005F80043B95C4B93F8E43013F0FB0F0CBF0123B5
:10060800002300E0012395F8E420069312F0FB0F85
:1006180014BF012100218DF855108DF8612013B108
:10062800504BB3F8E030ADF86230E704B5F8D43099
:10063800ADF8643042BF4B4BB3F8DC30ADF86430F2
:10064800042A06D14FF4805011F07EFA0023ADF849
:100658006430454B95F88C221A7000216422434877
:1006680018F052FE9DF86030002B14BF02230023BF
:10067800B9F1000F02D1B8F1000F00D0013306EB39
:100688008303DFF8B880D3F81C31344F9A1E203327
:100698000793002304920393049B33F8022F0493D7
:1006A8004FF6FF739A4200F0B5819DF85210D3B20D
:1006B800120A5FFA82F939B10C2101FB0361097949
:1006C8002A39012940F2A1819DF8561031B10C2137
:1006D800594370582649884200F097819DF8571071
:1006E80059B10C2159437018745822498C4200F0B2
:1006F8008C810179182900F088819DF8541031B156
:100708000C2101FB03610979142900F07E819DF811
:10071800581069B10C2101FB03619DF86600097945
:10072800884200F072819DF86700884200F06D8170
:10073800022A25D19DF84C2026E000BF3C940108F0
:10074800242C002004280020282C0020940C0020B1
:100758007025002030320020B89C0108A805002030
:10076800BC0D00206025002078230020D00D00203B
:1007780000040040002C0140CC0D0020ADA401086D
:10078800012A04D19DF84D20002A00F03E819DF8F1
:1007980059207AB19DF8602062B9A3F10E02012AAE
:1007A80008D80C225A4358F80210C14A914208BF8F
:1007B8004FF004099DF85A200C2404FB038432B13D
:1007C8009DF860201AB91A1F032A40F2FD80B9F17A
:1007D800010F3ED14FF00C0B0BFB03FB08EB0B0A90
:1007E8000025B44A9AF8040087F82050FF21FC62DB
:1007F800157055609560D560156482F8441082F8CC
:10080800451082F8465082F8475082F8485010F058
:100818009DFF0222827180F8079005729AF80810ED
:1008280010F0F6FF2A469AF8051058F80B000FF05A
:10083800D8FC4A462946204613F050F99E4B9F4A59
:100848003B639F4B7B63BD63111F204613F09EF8EB
:10085800DBE0B9F1020F49D19DF80C2009924FF065
:100868000C0B1C2151430BFB03F37D1808EB030B06
:100878004FF0010A4FF0000985F821209BF8040089
:1008880085F8229085F82A9085F820A0EC620893D4
:10089800059110F05BFF099A80F806A05244027295
:1008A80080F807A09BF8081010F0B2FF089B9BF88F
:1008B800051058F803004A460FF093FC5246494683
:1008C800204613F00BF97F4B2B637F4B6B63059B23
:1008D800C5F8389003F110017C4B19440A1D2046D5
:1008E80013F054F8039B534403938EE0B9F1030FBC
:1008F80067D19DF85530764DBDF862009DF86120AE
:1009080063B3022A95F801B008D0032A714B724AE2
:1009180015BF994691460822482202E0DFF8EC917B
:100928001822D1B2DFF8BCA138B16C4B5A43BDF8DC
:100938006430B2FBF0F292B202E003464FF6FF7267
:10094800204610F08DFF4AF82B005AF82B30C3F8D8
:100958000C90AB78192205EBC30328E0042A95F81C
:10096800019011D15E4AB2FBF0F2182192B22046F2
:1009780010F076FF5B4B43F829005B4BC360AB7804
:100988000D2205EBC30312E0BDF86430534AB2FBF5
:10099800F0F2012192B2204610F062FF514B43F869
:1009A8002900524BC360AB78092205EBC3035A7187
:1009B800AB786A7805EBC3010A7101328C606A7002
:1009C80021E0B9F1040F20D1414DBDF85C20AB788E
:1009D80095F8009005EBC303012183F804902046A5
:1009E8003E4B93FBF2F2BDF85E3092B210F038FF46
:1009F8003F4B43F82900AB7805EBC3020A2151713C
:100A08002A7801322A700133AB70079B049A93420B
:100A18007FF442AE069B374E83F00102364B1A70C4
:100A2800364B1D78A5F117030024022B34701ED80D
:100A3800DFF8CCC0DFF8D8E0DCF814302344D3ED7D
:100A4800007AF5EE407AF1EE10FA04D12C4CA36945
:100A5800002B5FD124E00FCB04EB0E0787E80F00D3
:100A6800337810340133C02C3370E5D1EEE7254BD1
:100A780013F835E086F800E003EBC503D3F804C0AB
:100A8800BCF1000FE2D0DFF888807445DEDA23017C
:100A980003EB080763440FCB013487E80F00F4E742
:100AA800194B03931A6812F4805F59D152E000BFC2
:100AB80000400140282E0020A1140108DC05002078
:100AC800FD1501085D16010879140108C805002004
:100AD800D00D00201D170108B916010840420F006B
:100AE80000366E01503000203D1601082D16010811
:100AF800782E00205B19002098300020940C0020EC
:100B0800A8050020B89C0108C4180020F1160108A7
:100B1800CC0B00207A4B7B4A13F83500107003EB9E
:100B2800C5035F68002FBBD0DFF804E200238342CF
:100B3800B6DAC3EBC3017A1801EB0E0CD2F80080C9
:100B480041F80E809188ACF8041092798CF8062050
:100B58000133ECE705F0EF03082B6B4B1FD120E0C6
:100B68003278012AF6D9694B03EB02121032F6EEFD
:100B7800007A10339A42EDD013ED047A27EE277AE3
:100B880003ED047A13ED057A27EE277A03ED057A4B
:100B980013ED037A27EE277A03ED037AE9E70E2DA2
:100BA80008D11A7842F010021A70182D08D112F0E4
:100BB800EBFD05E01A7822F010021A70192DF5E7FE
:100BC800534D12F0C3FD2B783F2043F004032B70E4
:100BD80010F0BCFD4F4A059510604F4A0121117075
:100BE80038B1112282710222C2710022027210F001
:100BF8000FFE4A4D00200FF011F9287E0FF0A4FED9
:100C08002B7E03F01F015B090122022B02FA01F27D
:100C180008D0032B0BD0012B0DD141498B6A1A4305
:100C28008A6208E03E49CB681A43CA6003E03C493F
:100C38000B691A430A61687D10F088FD0C260B23A6
:100C48000227C37186710772E87D10F07FFD4FF0AF
:100C58000D08867180F807800772A87D10F076FD70
:100C68008671C6710772687D10F070FD6A7E0E216C
:100C780010F090FDE87D10F069FD6A7E0E2110F0FD
:100C880089FDA87D10F062FD6A7E0E2110F082FDBC
:100C9800287D30B110F05AFD204B41465A7E10F0A5
:100CA80079FD2A691F4B9A420AD103F56043D96836
:100CB80041F48051D960D96821F48051D96019E094
:100CC800194B9A4209D103F5EC33196941F4804173
:100CD8001961196921F480410BE0144B9A4209D13A
:100CE80003F5EA33196941F400411961196921F4DE
:100CF800004119612B7FEBB1002318461CE000BFAF
:100D080014A30108BC310020F5140020D40B0020E6
:100D18001C2E0020741C0020781C0020D404002005
:100D2800001002400030014000380040003C004004
:100D3800BD31002001230220918821F4805109044B
:100D4800090C9180918889B241F4805191802A6977
:100D5800118801F4415141F445710B430343138059
:100D6800938823F470631B041B0C43F4E0639380A3
:100D7800938B23F400631B041B0C938307231382B8
:100D88002A6913889BB243F040031380287D18B169
:100D980010F0DCFC10F083FE039B1B6803F4107357
:100DA800B3F5107F67D0262010F0D0FC0746272027
:100DB80010F0CCFCA64D064675200FF0C5FD2B6B38
:100DC80023F010032B632B6B43F010032B634FF0BE
:100DD80001084FF00D09092387F80690FB7187F881
:100DE8000880384604221E2110F0D4FC0A2386F815
:100DF8000690F37186F80880304604221E2110F010
:100E0800C9FC944B944E1A6822F001021A601968C2
:100E1800924A0A401A60924A1A611A68002142EA04
:100E280008021A609960D96099609A6842F4004291
:100E38009A601A681A605A6822F0784222F40042CE
:100E48005A601A6822F400321A601A6842EA0802E4
:100E58001A60039B1427D3F800A03A46304618F0CE
:100E680053FA1AF0020F0AF400490AF400683046EF
:100E780018D0377016E07B497B4D0A780023184656
:100E8800FF265F571F2F04BF5E5502F1FF3203F1A3
:100E98000C0304BFD2B201203C2BF2D1002882D02F
:100EA8000A7080E7B9F1000F01D022234371B8F12D
:100EB800000F01D01523C3736C4EDFF8CCA14FF09F
:100EC8000F0900274FF0060816F8010C58B310F068
:100ED8003DFC4FF0000B80F8068080F8079080F802
:100EE80008B016F8010C10F031FC132110F090FC3A
:100EF80016F8011C5B465E4810F8130088424FEA5A
:100F0800430204D10AEB020393F82D3103E00133C5
:100F1800272BF0D1002307223370F2707B1C0122AB
:100F28007770B270DFB209F101095FFA89F9B9F196
:100F3800130F06F10506C7D1EB6A23F4F873EB62C9
:100F4800EB6A43F4D873EB623C200FF0FDFC2120E0
:100F58000FF0FAFC4748474D08F0F5FE1AA808F0CC
:100F6800C7FE454B1A93454B1B93022F4FF00003C6
:100F780034BF1A4680221F924FF4807220924FF499
:100F8800806221922022284622921AA94FF4005208
:100F98001C931E9323922493ADF8747008F0B5FE49
:100FA8002B6843F001032B60354DAB6823F04053A9
:100FB800AB60AB6843F08053AB600A2012F0F6FDDB
:100FC800AB6823F08043AB60AB68AB60AB6843F0C1
:100FD8000043AB60AB682A4A002B57DAFAE7294B83
:100FE80093F84232013B092B3FF6D9A92B2010F088
:100FF800ADFB182383710223C371064604720121D5
:10100800C7F8A40410F004FC3046012110F04CFD90
:101018003C2012F0CBFD95F842221A4B9442BFF6C1
:10102800B5A900200FF0FEFD0021304610F03CFD70
:10103800782012F099FD01200FF0F4FD01213046CF
:1010480010F032FD782012F08FFD0134E3E700BF85
:10105800001002400054004094150020FFE0CF002B
:10106800300E5000CC0D0020282C002095150020B3
:10107800689501080804024040010050A8150020A6
:1010880000010050602500203C9401089368B7498E
:1010980023F040539360936843F00053936088684B
:1010A800B34B034043F468338B60D168B14BB2480B
:1010B8000B4043F40053D360136B013F23F00F033D
:1010C8001F43176300F1140801234FF0380C4FF049
:1010D800070B4FF0060E1F25C178002966D05E1C4D
:1010E800042B41780779F6B20ED803EB4303D2F804
:1010F80030905B0005FA03FA29EA0A0901FA03F3BA
:1011080043EA090313632FE0092B0ED8053BD2F8F5
:1011180034900EFB03F305FA03FA29EA0A0901FAE7
:1011280003F343EA090353631EE00E2B0ED80A3B70
:10113800D2F838900EFB03F305FA03FA29EA0A09F4
:1011480001FA03F343EA090393630DE00F3BD2F876
:101158003C900EFB03F305FA03FA29EA0A0901FA9F
:1011680003F343EA0903D36309290FD90A399369B9
:10117800936901EB41010BFA01F923EA0903936131
:10118800936907FA01F1194391610EE00139536936
:10119800536901EB41010CFA01F923EA0903536190
:1011A800536903318F401F435761334605308045EB
:1011B80092D1724B9A6842F001029A601A461168FD
:1011C8006E4BCD07FBD5DA686D4E22F00202DA606D
:1011D800DA6842F00202DA60DA6842F00102DA60A4
:1011E8009A6842F004029A60D6F8CC31002B41F09C
:1011F8006780D6F8D021002A41F06280D6F8D42141
:10120800002A41F05D80039B1B6898031BD5C8200A
:1012180012F0CCFCAE2014F095F808B113F01CF8CD
:10122800584D84F80001C82012F0C0FC00232B6040
:101238006B60AB600223EB7008F006F812F078FCE4
:10124800514B0344AB60DFF854B1B6F9F03196F86E
:10125800D98196F8EE51B6F8DC7196F8DE91DFF890
:1012680038A14A480493002618223146CBF800607A
:10127800CBF80460CBF8086018F046F8182231461D
:10128800A4F801610AF5827018F03EF82320C4F82A
:101298001C6112F08BFC0DF12E020121752005F066
:1012A8003BFB002800F08180394BCAF80831394BE4
:1012B800CAF80C310DF12F024323012130468AF878
:1012C800043105F029FB9DF82F3003F07E038DF8DB
:1012D8002F3040B1682B06D101238AF801311D2334
:1012E8008AF8043161E09DF82E3003F07E03682B04
:1012F8008DF82E3054D10223062184F801311AAA20
:10130800D4F80831084698479DF86D209DF86B3051
:1013180092005B0003F0020302F004021A439DF8F6
:10132800693003F00103134311D0012B01D10023CD
:1013380002E0022B03D1012384F8023135E003F0E7
:101348000303032BF7D0032012F03AFC2DE0124BD5
:101358000EAAD3F8083101210C2098479DF838309F
:1013680013F00F03EFD0042BE5D1E0E700030050A2
:10137800E010FCFF07C0FFFD94150020000100509D
:101388006025002034140020404B4C0044150020F8
:101398002169000837690008A8050020AC1800205A
:1013A800702B04BF042384F8013194F80121904E76
:1013B800904C0023022A337040F056818E4B8F499F
:1013C8008F4819608F49596002708F498F4AD960D8
:1013D8008F49196111680423337041F001031360C8
:1013E8004FF0010A43460B2B28BF00230AFA03FCDF
:1013F80040F2B27E0CEA0E0EBEF1000F20D11CF0B6
:101408004D0F1DD0834BDFF858E2C3F800E0DFF83A
:1014180054E2C3F804E094F802E1BEF1000F14BFEF
:101428004FF06E0E4FF06F0E83F80AE07A4B4FF0D4
:10143800040E83F800E0032319434370116006E0AB
:10144800012B4FF00008CDD8734B83F80080042D92
:101458003AD8DFE805F003420303030094F820813B
:10146800644DB8F1000F40F02587142012F09EFB60
:1014780005F221130122D02176200FF0EFFA95F81A
:101488002131582B29D105F592731822882176200D
:101498000FF0E4FA3122F42176200FF073FA0123D9
:1014A80085F820315D4B5E4A9A605E4A5A6045F67F
:1014B800D8125A805C4ADA605C4A1A615C4AA3F81E
:1014C80000805A6100F0F6BE012D06D04C4B4F4A01
:1014D8009D70136843F0040313604C4B1A6812F0B4
:1014E800020F984605D04B484FF480730381036878
:1014F800984717F0FF0007D0072816BF4FF47A73F4
:101508007D234FF0010900E07D233B4D09F1FF32B7
:1015180003FB09F384F840216B612B689847454B1E
:101528001A78994632B9444B93F8C721002A35D026
:10153800327033E06B69002BF5D00027AA463F4B89
:101548003F481B88696900EE103A3E4B0122D3EDF3
:10155800000AB8EE400A384414F009FB3A4A1278F7
:10156800012A0CD199F800303848DAF8141000EE46
:10157800103A3844B8EE400A14F060FB0AE0DAED9D
:10158800057A9FED337A334AF8EE677A67EE877A01
:10159800C2ED007A1C37542FD1D1C4E793F8C83173
:1015A8000BB11D4A1370D8F800302B4913F0080FFF
:1015B8001AD00498049BDFED296A642293FBF2F3A6
:1015C80002FB130212B207EE902AB8EEE77A07EE92
:1015D800903AF8EEE77AE7EE267AB2EE047A67EE0A
:1015E800877AC1ED007A42E000230B603FE000BF3C
:1015F8009E0A0020A805002044150020A9660008BE
:1016080091030020B9640008A3640008A81800200A
:1016180090C1793DAC180020CC2F0020E438002080
:10162800A1640008C16F00082D690008D768000888
:10163800EB620008C41B002060250020C61B0020A8
:10164800F40A0020CC1B0020C81B0020480B0020F7
:10165800BD3786359C0B0020BC2F00208988883C2C
:101668006565000801650008012012F0A9FA059BCC
:10167800059A1B78C54F43F00203002013700FF042
:10168800D1FA0A250FF0C1FA192012F08FFAD7F80B
:10169800B035BE4E13F4803F02D101200EF0BEFBE0
:1016A800192012F083FA00200EF0B8FB013DE9D1B1
:1016B80028460FF0B7FAB64B9FEDB68A1B689FED28
:1016C800B60A1B7BDFF81883B44F07EE103AB8EE62
:1016D800C77AA7EE080A14F0C7F9B14BD8ED047A17
:1016E80083ED000A67EE887AAE4B9FEDAF7AC3EDC3
:1016F800007ABBF8083007EE903AF8EEE77AAB4B81
:10170800C7EE276A9FEDAA7AC6EE877AC3ED007AFC
:1017180012F07CF8FF211E22384617F0F5FDA54B84
:101728003D7001221A70039A126812F4800F01BFEB
:10173800022119701B21797038469F4FD7F800E0B5
:101748001EF0020F0ED019784FF0010C00F801C0FE
:1017580001F1020C0131C9B283F800C04FF0020C4C
:1017680000F801C01EF0040F08D0197801F1010C2F
:1017780083F800C04FF0030C00F801C01EF00A0FF8
:1017880016D019784FF0040E00F801E001F1010EAF
:101798005FFA8EFE4FF0050C00F80EC001F1030E43
:1017A8000231C9B283F800E04FF0060E00F801E0FC
:1017B800910508D5197801F1010E83F800E04FF082
:1017C800150E00F801E0D10508D5197801F1010ED0
:1017D80083F800E04FF01A0E00F801E096F805E0F3
:1017E800BEF1080F02D0BEF10E0F08D1197801F131
:1017F800010C83F800C04FF00B0C00F801C01978F9
:1018080001F1010C5FFA8CFC4FF00C0912F4803FD7
:1018180083F800C000F8019009D0DFF898910231F0
:1018280089F800105D494FF00E0901F80C9011037A
:1018380008D5197801F1010C83F800C04FF0190C94
:1018480000F801C0197801F1010C5FFA8CFC4FF027
:101858001D0912F4805F83F800C000F8019009D0D8
:10186800DFF85091023189F800104C494FF01C09FB
:1018780001F80C90910608D5197801F1010C83F84C
:1018880000C04FF0070C00F801C0510708D51978BF
:1018980001F1010C83F800C04FF0100C00F801C0F2
:1018A800510308D5197801F1010C83F800C04FF0F5
:1018B800120C00F801C0520507D596F8D02222B1C3
:1018C8001A78511C197013218154BEF1180F0ED1CA
:1018D8001A7816218154511CC9B24FF0170C00F820
:1018E80001C0D11C0232D2B2197000F802E098226D
:1018F80000213248DFF8ECA0DFF8EC9017F004FD87
:101908000FF0FAF92E4B2F4A1A602F4BB6F8DE105B
:1019180019802E492E4800230B808B702D490A60B0
:101928002D4A1370B6F848220FFA82FCD9F8001035
:101938002AF813C001F5967140F823100133122BD1
:10194800DFF8A0E0F2D1254B1049186810F4805F49
:1019580008BFB6F954C2AEF806C0994601F1500C5A
:1019680091F80135002B4FD191F803A591F8043572
:101978009A4549D2BAF1000F38D00AF1FF3A0AEB7A
:101988008A0A0AEB8A0A0AF5617336E060250020A4
:10199800F81B002035FA8E3CDB0FC93F06190020E2
:1019A800C02F0020AC2F00200AE81C41243A002058
:1019B80000401C4605190020A81800202C2B0020E8
:1019C8001C140020982700201A140020D01800208A
:1019D800A0130020C0180020E8130020C41800201D
:1019E80044150020C42B0020A0180020013303EB6D
:1019F800830303EB830303F5617391F802A50AF1EE
:101A0800040A9BB22EF81A3004316145A8D10007A8
:101A180040F1568196F84032082B00F24B81DFE8FE
:101A280013F009000C0013004400650086008600CE
:101A3800CA00210145F2F05201E042F6F822724B49
:101A48001A800FF0F0F934E16F4B42F6F821198053
:101A58006E490A23120192FBF3F20023A2F5B06249
:101A680041F823200133122BFAD1694A69491160E0
:101A7800694A402013700BF059F88246002800F09C
:101A8800198107F085FA96F841329AF900E0002B9F
:101A98000CBF0622072200280CBF01230323019252
:101AA800009306465D4B5E4AA4E0574B42F6F82287
:101AB8001A80574B5B4A1A60574B102240201A7005
:101AC8000BF034F80646002800F0F48007F060FABE
:101AD800002200280CBF0123032396F900E001929D
:101AE800009306464FF4E1334F4A83E0464B42F6F3
:101AF800F8221A80464B4D4A1A60474B082240206C
:101B08001A700BF013F80646002800F0D38007F08F
:101B18003FFA002200280CBF0123032396F900E0B6
:101B28000192009306464FF4E133414A62E0364A97
:101B3800DFF828E13F4E404842F6F8211180364947
:101B48000C22062B0A700FD000238EF80030337059
:101B580003703A4B1B211970394B1A70394B052207
:101B68001A704FF4E13A0DE0002101708EF8001070
:101B780031703249DFF8E8A02120087030490A7036
:101B8800304A1370224B304A1A6040200AF0CEFFC8
:101B98000646002800F08E8007F0FAF90022002897
:101BA8000CBF0123032396F900E001920093064637
:101BB8005346264A1EE0144B44F620621A80144B02
:101BC800234A1A60144B0A2240201A700AF0AEFF0A
:101BD800064600286ED007F0DBF9002296F900E0EF
:101BE800019200280CBF012303231A4A00930646DA
:101BF8004FF4E133402170460AF004FF002E55D01F
:101C0800154B186052E000BF5C0A0020DC1600206B
:101C18000405002061A50008142C0020A0860100FE
:101C280009A8000821A500080DA7000809A50008B3
:101C3800C5A60008AD170020AC170020AE1700207D
:101C480069160020AF17002049A40008F1A5000874
:101C5800E1A5000849A900081C2C00206A160020EC
:101C680090D003007F4B41F27C521A807E4B7F4A12
:101C78001A607F4B10221A707E4B00261E707E4B16
:101C8800282240201A700AF051FF98B1032390F9D6
:101C980000007A4A019600934021794B794E0AF068
:101CA800B1FE012130600EF06FFA3068003018BFC5
:101CB800012028B908200FF047FF6B4B724A1A60C1
:101CC800D9F800306A4A13F4804F04D012211170F9
:101CD80065496E48086042F20101194003F00100AD
:101CE80003F4005681B15F4944F6206EA1F800E084
:101CF80026B1082111705C49654E0E6020B10C2197
:101D08001170594963480860117804395170990570
:101D180046D5614A936943F001039361207F0FF030
:101D280015FD5E4A002610604FF00A0A0222C271B1
:101D3800012180F806A006720FF06AFD607F0FF09F
:101D480005FD0122C27180F806A006723146C4F86A
:101D580044010FF05DFD524B524A1B689FED520A39
:101D68003C3B13603B6843F010033B604FF4C8737F
:101D7800A4F848314D4BC8221A8013F075FE4C4B1D
:101D8800DFED4C7A83ED000A20EE270A4A4AFDEE81
:101D9800C07A17EE903A1380484B4FF0FF321A6022
:101DA800474BC4F84C31D9F80030DFF830A1454E24
:101DB800002413F4803F8AF8004000F0FD8012F000
:101DC800F3F9012740F22A32214606F5A8708AF86D
:101DD800007017F099FA30493B4B48699A6A0243F8
:101DE8004A613A4A1A62DC621AA893F825308DF8DB
:101DF80068308DF869708DF86B708DF86A400EF058
:101E0800A7FE18200FF0A2FC16238371304FDFF8CD
:101E1800C8E0C6F87C040223C371047206F5A87AE8
:101E280057F834202B4972454FEAC40301F1CC0B13
:101E380003D10B4493F8D12003E001340A2CEFD1ED
:101E480000222E210FF0A6FC234800235BF8331054
:101E5800214F81424FEAC30242D11E4B134493F8EB
:101E6800D00041E05C0A002004050020C9A5000854
:101E7800142C0020381800203918002061A8000808
:101E880048E80100F814002095A50008B9A5000845
:101E9800A9A5000899A50008001002404C3A0020A6
:101EA800A0180020483A0020D253FB3F043A0020F3
:101EB800FC3900200000C8430C3A0020003A0020FA
:101EC80044280020A8050020B4030020F765000876
:101ED800089501083C940108002C0140D03A0020E4
:101EE80001330A2BB2D100200EF02EFD3B88B048FA
:101EF800DFF800B323F45C731B041B0C3B801D2329
:101F0800FB6202233B85002401233C860EA97B61EA
:101F18006022ADF83C3003930E92ADF83E40109429
:101F2800ADF84440ADF84640ADF84840ADF84A40F9
:101F380007F08CFEBA6942F00802BA617A6C42F482
:101F480000427A64584607F0FEFE1AA807F0D0FE51
:101F5800984A1A9210221C9240F22A32ADF8742044
:101F680080221F924FF4807220921AA94FF40052D7
:101F780058462392CDF86CA01E9421942294249460
:101F880007F0C3FEFA68039B8B4942F40072FA60BB
:101F9800DBF8002042F00202CBF8002086F88034FB
:101FA800FF226B186C520435802D9A70DA70F8D1C4
:101FB80004F0E0FE04F0DEFED9F800305A0553D5EF
:101FC8007E4D7F4B2A681A6004200AF0AFFD042179
:101FD800C6F884040AF080FD7A4B2A6886F88804DB
:101FE80008201A600AF0A2FD774B784C1860082187
:101FF8000AF072FD002186F889042C22204617F089
:1020080083F97C2323708E236370E023E3707D23A0
:1020180084F82B306E4B2A681A6020200AF086FD5F
:102028002021C6F88C040AF057FD86F89004102089
:102038000AF07CFD1021C6F894040AF04DFD654BAA
:1020480086F898043B221A7001225A703A221A71B3
:102058009F229A711E221A72A4225A7200229A7220
:10206800DA721A7306F0A1FF5B4C2788002F7AD129
:102078002C200FF06BFB0F2383710E230D210546D7
:10208800C3710772C6F89C040FF0C2FB28460FF014
:1020980006FD524A138823F040031B041B0C1380CF
:1020A800138823F038031B041B0C138013889BB27E
:1020B80043F04003138032209F238DF838308DF889
:1020C80039708DF83A708DF83B7011F06FFD284625
:1020D8008DF869700FF0DEFC04220EA91AA80EF024
:1020E800A9FD28460FF0DBFC9DF86A309DF86920B1
:1020F8001B0243EA02429DF86B301343384A93426D
:1021080017D00CDC374A934215D00132934217D0CE
:10211800A2F51A42033A934220D120230CE0324A16
:10212800934208D0013293420AD0304A934215D1E3
:1021380001E0402300E0802323804FF4807302E015
:102148004FF4807323806380A38822881B02A360D6
:102158005343E360012386F8A03404E0002323807E
:102168006380A360E360E468002C45D0E40A264657
:1021780000270DF1680AA74208DA3D196D101022F0
:102188005146E80204F0F8FC0F2805DC0CF006FDC7
:10219800174BF6021E602FE000235AF82320013265
:1021A80040F08B800133042BF7D12E462C46E2E712
:1021B800002C0140342C0140D23A0020D01B0020D2
:1021C80070140020B0140020CC14002080140020CB
:1021D800E4140020E82B00209C0300200038004075
:1021E8001620C20017BA20001740EF001720C200BF
:1021F8007C1B00201C0002406B4CD8F81420B4F85B
:10220800DC31013B9BB2052B9EBF012384F8EA31E8
:1022180084F8DE3194F8EA315343644A1360D9F8FC
:102228000030634A13F4002318BF01231370637945
:10223800052B02BF5F4B4FF4C8721A8007F0B1FF3D
:102248005D4BC8221A805D4A137843F00803137067
:102258005B4A137823F002031370D9F8002040F684
:10226800020313406BB1574B57491960574B032171
:102278001970574B01211970564900230B80564994
:102288000B80930306D5554B05221A71DA7842F074
:102298000102DA70A368C9F80030514B01221A70A4
:1022A800504A137863F07F0313702FB0BDEC088B8E
:1022B800BDE8F08F0425FFF709B96F1C254675E7BF
:1022C8001BB208EE103AB6F9D031DFED477A9FED30
:1022D80047BA474A09EE103AB6F9D431B8EEC88A77
:1022E80008EE903A28EE278AB8EEC99AF8EEE88AFE
:1022F800002138EE0B0A29EE279A68EEA78A11709A
:1023080013F0B2FBF0EE40AAB0EE480A13F0ACFBB3
:10231800F0EE409A39EE0B0A13F0A6FBB0EE408AB5
:10232800B0EE490A13F0A0FBB0EE40AA38EE8B0AD3
:1023380013F09AFBB0EE409AB0EE680A13F094FBE3
:1023480060EE2A6A69EE897AF0EE665AEAEE275A52
:10235800284B29EE2A6A29EE807AC3ED035AB0EE9B
:10236800465AF1EE4A5AA5EE875AEAEE267AA5EEC3
:10237800867A29EE089A28EE400A69EEC89A28EE6D
:102388002A8A83ED009A83ED010A83ED02AA83ED80
:10239800045AC3ED059A83ED067AC3ED077A83EDF7
:1023A800088AFEF730BF00BF602500205C190020B6
:1023B800361B002030140020E8390020F5140020D6
:1023C800041900208C15002076270020A41800206E
:1023D80090030020842F0020862F00203414002032
:1023E8009C0D00201C2E002035FA8E3CDB0FC93FC7
:1023F800B4000020681500202DE9F04F864B874C6B
:102408001B68874ED3F82880864D2DED048BA1B02C
:1024180011F08EFB2368C01A308011F089FB2B78ED
:102428002060012B05D1804B32881A807F4A1288A0
:102438005A8011F07DFB7E4F0646B946FB685BB9B2
:1024480011F076FB2368D9F81420C3EB080318446D
:1024580050329042F2D302E098470028F0D02B780F
:10246800072B04D111F064FB6F4B801B1880237974
:10247800002B01F09B8011F05BFB6D4B04909B6877
:102488000BB16C4898476C4BB3F906806B4B1968D5
:102498004A8990450DDBB8F5FA6F087ABFBFC2EBE1
:1024A80008034343C2F5FA6093FBF0F0C0F16400FF
:1024B80000E06420624BDFED635AB3F848E293F81A
:1024C80026C293F8279293F9D8315F4DDFED5F6A02
:1024D8005B429BB205930022BBEE095A5C4BDFEDD1
:1024E800598AD054544B33F91260CEEB060340F2AC
:1024F800E63B03F2F31ADA454FEA4207DFF848B140
:1025080031D883EAE37A022AAAEBE37A2FD0E245AC
:1025180002DDCCEB0A0300E0002307EE903AB8EEA8
:10252800E76A8B7886EE257A7645B0EE456A07EE3F
:10253800903AA7EE076A0B78F8EE677AF0EE664AEB
:10254800E7EE864A07EE903A24EE877AF8EE677A45
:1025580067EE277A87EEA67AFDEEC77A17EE903AED
:10256800EB5332DB34E0022A4FF4FA7AD1D1D14569
:10257800B4BFC9EB0A03002307EE903AB8EEE76A46
:102588004B7ABDF814A086EE257A7645B0EE456AFA
:1025980007EE903AA7EE076A4B78F8EE677AF0EE06
:1025A800664AE7EE864A07EE903A24EE877AF8EE16
:1025B800677A67EE277A87EEA67AFDEEC77A17EE76
:1025C800903A13FB0AF3AB8005DA7B5B5B427B53E3
:1025D8000132032A82D11F4F194D3868059710F42C
:1025E80080500ED0B8F57A7F06DBB8F5FA6F424610
:1025F800A8BF4FF4FA6201E04FF47A72A2F57A723A
:1026080033E0B5F84A32984526DBB8F5FA6F42460A
:10261800A8BF4FF4FA6220E0E0150020500A00201D
:10262800BA180020B2150020B41500202816002082
:1026380044150020560A0020C42B00205C2F0020DF
:10264800602500200000C8423C19002000401C45BD
:1026580058190020C41800201A46D21A4FF47A716B
:102668004A43C3F5FA63B2FBF3F26423B44F92FB17
:10267800F3F101F1010937F9116037F919C06FF069
:102688006309C6EB0C0C09FB012101FB0CF191FB62
:10269800F3F29319AB4E9BB2F380B0B1AA4A126819
:1026A800D20012D5A94AD2787AB9A3F57A731BB2A7
:1026B8004FF47A721B0393FBF2F3CEF5FA6212B26F
:1026C80053430EEB233EA6F806E0A14B1F8817F0F4
:1026D800400F99463CD09F4BDFED9F7AB3F9043009
:1026E8009FED9E0A0A2293FBF2F322899B1A1BB2E2
:1026F80008EE103AB8EEC88A28EE278A38EE000AA3
:1027080013F0B2F9B0EE409AB0EE480A13F0ACF903
:10271800BBF9023007EE103ABBF90030B8EEC77AC1
:1027280006EE903A67EE407AF8EEE66AE6EE897AC7
:1027380020EE260AFDEEE77AA7EE090A17EE903A90
:10274800FDEEC07AABF8003017EE903AABF80230E5
:10275800834BDFF85CA21B6813F0140F74D017F4D6
:10276800027F71D07F4B1B7803F0100303F0FF0248
:102778004BB17D4B95F99822B3F90010738801FB92
:102788000233738060E0794B79481B68D9789B786D
:1027980061B3B0F90010C1EB080E8EEAEE70A0EB41
:1027A800EE7098420BDD7348884502604FF00102D5
:1027B800A272C8BF5B42F2889BB2134443E09AF806
:1027C8000A302BB16C4B8AF80A2018686B4B1860DA
:1027D800654B1B6819446A4B1A68138852889942DA
:1027E80031DB8A421346A8BF0B462CE0B0F9000043
:1027F800C0EB080282EAE27EAEEBE27E9E450ADD8D
:10280800022392FBF3F25F4B1A605F4A01231370B5
:102818008AF80A300AE09AF80A303BB1564B8AF82F
:102828000A101A68554B1A60574B19704E4B1B68A3
:102838001844534B1A6813885288984203DB824223
:102848001346A8BF0346F380504B1B78ABB1B5F8CD
:102858004A32434511DB4E4B5B79012B01D0192BD2
:1028680002D195F8932242B90E2B06D0082B04D03A
:102878000023B380474B00229A6095F81482B8F180
:10288800000F31D0BF072FD0434BDFED447A93EDD3
:10289800080AB4EEE70AF1EE10FA21D914F08AFC1E
:1028A8003F4BD3ED007A20EE270A14F0F1FBB0F588
:1028B800617FA8BF4FF4617007EE900AB8EEE77A1F
:1028C800DFED387A87EE270A13F0CEF807EE908A04
:1028D800F8EEE77A27EE800A14F0DAFB00B200E09F
:1028E8000020F3881844F08095F84E322E4A23B918
:1028F800B9F80010002900F0B4801278002A00F01E
:102908008E80022B09D0032B54D195F84F32C3EB9C
:10291800431203EB8203DB000FE0244BD3F8F820CB
:10292800B2F57A7F05DB44F620639342A8BF1346CD
:1029380001E04FF47A7303F57A739BB23CE000BF71
:102948001E1B00203C19002000190020D018002070
:10295800FC1800204419002035FA8E3CDB0FC93FD3
:10296800A8180020F5140020403A0020101C002070
:10297800461400203C3A0020283A0020303A002033
:10298800141C0020343A0020443A0020AC030020F4
:102998006025002030190020443200208FC2753C89
:1029A800041C0020EFB6B04444140020B8000020F6
:1029B800500A0020BAF80C30BC4A1068BC4AB3FB75
:1029C800F0F0127800F1010E0FFA8EFE092AA4F831
:1029D8000EE005D1B74A3188118071885180D380C3
:1029E800BAF910700023DFF8D0C23BF913900CF14C
:1029F8001A080CF1120A38F813203AF9131028F8BB
:102A08001390C2EB0902794391FBFEF10A442AF8BC
:102A180013200133042BE6D1ACF8100004E0BAF817
:102A28001030013BAAF81030A34AB2F91000002870
:102A38004FF0000313DDB2F90EE01232DFF8D0C216
:102A480032F913103CF813C0414391FBFEF1C1EB7E
:102A58000C0126F813100133042BEFD106E0138282
:102A680004E013782182002B00F09080934B93F8B8
:102A7800503223B1924A1268960001F1B183059B46
:102A8800904F1E68904B91491868914BDFF884C2AB
:102A98001B68DFED905A93F800E09FED8F5A9FED89
:102AA8008F4A9FED8F3ADFED8F2ADFED8F4AF7EEE1
:102AB800006A06F400090022F0EE663A3CF912308A
:102AC80000EB0208B9F1000F01F0F583022A41F08A
:102AD800E283002BDABF5E4207EE906A07EE903A77
:102AE8004678F8EEE77A07EE106AB8EEC77A87EE0E
:102AF800286A26EE056A87EE867A81ED007A98F8CC
:102B0800056007EE906AF8EEE77A87EEA86AF0EEBD
:102B1800667AE7EE467AF4EEC47AF1EE10FAB0EE91
:102B2800677A01F1C483F4EE667AF1EE10FAC8BF51
:102B3800B0EE667A83EE876A03EB430303EBC303C5
:102B480007EE903AF8EEE77A67EEA57A67EE867AAE
:102B5800BEF1000F41F0BD839FED647AF4EEC77AB1
:102B6800F1EE10FA08D49FED627AF4EEC77AF1EE2E
:102B780010FAD8BFB0EE677A0132032AA7EC017ABF
:102B880001F104019AD15B4B00221A705A4B4A4F4B
:102B98001878002840F0FE84584B1A6812F4002F69
:102BA800984600F0F784564E3378033B052B1BD824
:102BB800424B93F8AD3533B1012B08D103F0F4FE45
:102BC800C0F17F0003E0A06A03689B689847E36A46
:102BD80094F830201344B3F5807FA8BF4FF4807376
:102BE8008342D4BFE362E0623378023B092B00F2F0
:102BF800CC84DFE813F00A0013004300CA04CA04B7
:102C08009100A3007F04A304AE040023E36263637E
:102C18003C4B1B68A363032300F0B6BC394B1A680E
:102C2800A36B6433934280F0B084402012F09BFB86
:102C3800002840F0AA84DFF8D0901F4D4FF04008DC
:102C4800636B19F8030058B112F066FCEB6A013B9C
:102C5800EB626B6BB8F1010803F101036B63EFD111
:102C6800626B2949144B8A5C002A40F08E845A63AF
:102C78004FF0FF329A63042300F086BC234A029285
:102C8800A2F10C030193272300935021A2F10A0318
:102C98004920163A0BF0D2FE002840F076844FF017
:102CA800FF33A3636063072300F06EBC5C19002048
:102CB800B2150020B4150020500A0020602500201D
:102CC80000190020301900205C2F00209C1A0020D9
:102CD800801B00200000803D0000FA430AD7233CF7
:102CE8003333834000A0F9C400A0F94400F0FFC5C5
:102CF80000F0FF4544140020781B0020C418002071
:102D0800361B0020A018002034960108AA96010856
:102D18006A0A00203C19002005230093A74B0021D4
:102D280002910191A3F1080253200BF087FE0028BD
:102D380040F02B846063082300F026BC402012F08A
:102D480012FB002840F021847A6B9D4B4C2A01F23B
:102D5800D482DFE812F04D005000550059005C00A5
:102D6800630068006D0070007400800089008D00A9
:102D78009B009E00A300A800B700C600D500E40091
:102D8800F3000201110120017D0187019401A101D5
:102D9800AE01BB01C801D501E201EF01F90108024A
:102DA8001202250238024B025E02680272027C029D
:102DB800860290029A02A402AE02B802C202CC02B3
:102DC800D602E002EA02F402F902FE020303080353
:102DD800610370037F038A038F03940399039E039F
:102DE800A303A803AD03B203B703BC03C103C6031F
:102DF8007449754878E3754B754A76497648AFE16A
:102E0800764A774977483EE0774978486CE3784BCB
:102E1800784893F8AC2593F8AB1534E0744B7648B2
:102E2800B3F8D01060E3724B7448B3F8D2105BE388
:102E38001969734858E3734B7348198954E3E36B72
:102E4800D90404D56A4B714893F816124CE3704BB9
:102E58000B225A634AE366496E4891F8193291F891
:102E68001B2291F81A127BE1B4F840106A483BE340
:102E7800D8F800301A0540F139835D4B6748B3F93B
:102E88001E22B3F8201212F021FC2FE3596964487E
:102E98002AE3574B634893F8DE1125E3544B624805
:102EA80093F8EA1120E395F800256048642353431A
:102EB800EA180C2192F8122401FB02331D4495F8FC
:102EC800141411E395F80025594864235343EA186C
:102ED8000C2192F8122401FB02331D4495F81614B4
:102EE80002E395F80025534864235343EA180C215C
:102EF80092F8122401FB02331D4495F81514F3E2ED
:102F080095F800254C4864235343EA180C2192F89D
:102F1800122401FB02331D4495F81D14E4E295F8D0
:102F28000025464864235343EA180C2192F81224DA
:102F380001FB02331D4495F81714D5E295F80025D6
:102F48003F4864235343EA180C2192F8122401FBEA
:102F580002331D4495F81814C6E295F8002539483F
:102F680064235343EA180C2192F8122401FB02331C
:102F78001D4495F81C14B7E295F8002532486423DF
:102F88005343EA180C2192F8122401FB02331D4422
:102F9800B5F81E14A8E295F800252C48642353437D
:102FA800EA180C2192F8122401FB02331D4495F80B
:102FB8001B3495F81A2495F81914D1E07098010873
:102FC8004415002044BB010850BB010861BB01083F
:102FD80066BB01086EBB010874BB01089CBB0108F5
:102FE800A5BB0108B1BB01081A2B0020C5BB01080D
:102FF80060250020D3BB0108E4BB0108F3BB01082E
:1030080002BC0108AC18002012BC01081CBC010855
:10301800500A002029BC010842BC01084DBC010827
:1030280060BC01086CBC01087FBC010894BC0108A5
:103038009EBC0108A8BC0108B5BC0108C2BC0108B7
:10304800CCBC0108D7BC0108E4BC0108F6BC0108E7
:10305800CC4BCD4893F80025642101FB023393F84B
:10306800D41341E295F80035C848642202FB0355A1
:1030780095F8E93395F8DF2395F8D51370E095F8BE
:103088000035C348642202FB035595F8EA3395F8E6
:10309800E02395F8D61363E095F80035BD4864221F
:1030A80002FB035595F8EB3395F8E12395F8D71310
:1030B80056E095F80035B848642202FB035595F8A8
:1030C800EC3395F8E22395F8D81349E095F80035E4
:1030D800B248642202FB035595F8ED3395F8E323D3
:1030E80095F8D9133CE095F80035AD48642202FB09
:1030F800035595F8EE3395F8E42395F8DA132FE0A5
:1031080095F80035A748642202FB035595F8EF337C
:1031180095F8E52395F8DB1322E095F80035A248E9
:10312800642202FB035595F8F03395F8E62395F8E9
:10313800DC1315E0934B9D4893F80025642101FBAF
:10314800023393F8DD13CFE195F8003598486422EF
:1031580002FB035595F8F23395F8E82395F8DE134A
:1031680012F0B4FAC2E1874B924893F80025642123
:1031780001FB023393F8F313B6E195F800358E4856
:10318800642202FB0355B5F8F43307EE903AF8EEE3
:10319800E77A67EEA88AFDEEE87A17EE901AA3E1BF
:1031A80095F800358548642202FB0355B5F8F633D7
:1031B80007EE903AF8EEE77A67EEA88AFDEEE87A2D
:1031C80017EE901A90E195F800357D48642202FBCD
:1031D8000355B5F8F83307EE903AF8EEE77A67EE5C
:1031E800A88AFDEEE87A17EE901A7DE195F8003589
:1031F8007448642202FB0355B5F8FA3307EE903A97
:10320800F8EEE77A67EEA88AFDEEE87A17EE901AEC
:103218006AE15C4B6C4893F80025642101FB02339A
:1032280093F8FC1360E1574B684893F80025642134
:1032380001FB0233B3F8FE1356E1524B644893F88E
:103248000025642101FB0233B3F800144CE14D4B17
:10325800604893F80025642101FB0233B3F8021497
:1032680042E1484B5C4893F80025642101FB023396
:1032780093F8041438E1434B584893F80025642127
:1032880001FB023393F805142EE13E4B544893F8A2
:103298000025642101FB023393F8061424E1394B1D
:1032A800504893F80025642101FB023393F8071472
:1032B8001AE1344B4C4893F80025642101FB023392
:1032C80093F8081410E12F4B484893F8002564211F
:1032D80001FB023393F8091406E12A4B444893F89A
:1032E8000025642101FB023393F80A14FCE0254B06
:1032F800404893F80025642101FB023393F80B142E
:10330800F2E0204B3C4893F80025642101FB02338E
:1033180093F80C14E8E01B4B384893F80025642117
:1033280001FB0233B3F80E14DEE0164B344893F871
:103338000025642101FB0233B3F81014D4E0114BCB
:10334800304893F82612CFE00E4B2F4893F82712F7
:10335800CAE00C4B2D48B3F8DC11C5E0094B2C48EA
:1033680093F8DF11C0E0074B2A4893F8E03107EEE5
:10337800903AF8EEE77A67EEA88AFDEEE87A17EE5B
:10338800901AB1E06025002005BD010816BD0108AE
:1033980027BD010839BD010849BD010859BD01080B
:1033A80069BD01087ABD01088BBD01089DBD0108F2
:1033B8008DBD0108A7BD0108BCBD0108CCBD010831
:1033C800DABD0108ECBD010802BE010811BE010802
:1033D8002DBE010843BE010852BE010869BE01089E
:1033E80082BE010896BE0108A7BE0108C1BE010839
:1033F800DCBE0108F1BE010808BF01081FBF0108B3
:1034080034BF01084ABF010846BF010856BF01087A
:1034180062BF010874BF0108984B9948B3F8E231BC
:1034280007EE903AF8EEE77A67EEA88AFDEEE87ABA
:1034380017EE901A58E0914B9248B3F8E43107EE32
:10344800903AF8EEE77A67EEA88AFDEEE87A17EE8A
:10345800901A49E0894B8C48D3ED7E7A67EEA88AAA
:10346800FDEEE87A17EE901A3EE0844B874893F811
:10347800D91139E0814B864893F8EE1134E07F4B3F
:10348800844893F8ED112FE07C4B834893F88D1214
:103498002AE07A4B814893F84E1225E0774B804812
:1034A80093F84F1220E0754B7E48B3F852121BE098
:1034B800724B7D4893F8401216E0704B7B4893F8A6
:1034C800E51011E06D4B7A4893F8E4100CE06B4B73
:1034D8007848B3F8E01007E0684B774893F8EB11A9
:1034E80002E0664B7548996812F0F0F87B6B01337F
:1034F8007B634AE0724B1B689B011CD5B7F84430CC
:10350800704DC3B9704BD5F84890D3F8008045206A
:1035180012F002F80E2011F0FFFF484612F0B6F83C
:10352800404612F0B3F84FF48053A5F842300A230E
:1035380033700BF089FB0BF063FA26E097F84C30F8
:10354800002BF6D05E4B1B689D01F2D40923337023
:10355800F1E75E4B1A68A36BC833934204D2474B1A
:1035680093F8AD557DB904E011F042FF0028F6D17B
:103578000BE0A06A09F031FA94F84D30A562022BED
:1035880001D10DF0B9FB0123337011F01BFF08B115
:10359800012333704E4B1B78072B05D110F0C8FA66
:1035A800049BC01A4B4B588000233B714A4D11AE07
:1035B8006B6830469847A946002800F07C81444A49
:1035C80004921578DFF80CE1444A0023032D04BF68
:1035D80052F823102EF81310980036F913103F4FA5
:1035E80011500133032BF1D13C4994F84E20084681
:1035F80006F0E6FD3A4B1A889B46002A00F0E58063
:10360800384B394E1B68DFED398A1B784FF00008BC
:1036180008EE103A06F10C05C24606F148014FF4CF
:103628007A72D9F81430B2FBF3F3C3EB431203EB0D
:103638008203BBF800E0DB009BB29E4508BFC6F8DA
:1036480000A0336808BFC5F810A0184657F82830FE
:10365800184457F82830306007EE903A2B69013348
:10366800012B4FEA8802F8EEE77A2B6140D1C5EDCD
:10367800017AC5ED007AC5ED028A55E06025002083
:1036880087BF010898BF0108ADBF0108BBBF01088B
:10369800CBBF0108DCBF0108ECBF010805C0010869
:1036A80019C0010836C0010853C0010868C00108E4
:1036B8007DC0010892C00108A4C00108B2C0010879
:1036C80000190020500A0020E0390020A01800202E
:1036D800B2150020B4150020441500204C19002014
:1036E80042150020C01B0020A00A00200000000096
:1036F800D5ED005A07EE103A37EEE56AF8EEC76ADC
:1037080086EE267AD5ED026A37EE257A77EEC77A05
:1037180085ED017AE6EE276A85ED007AF0EE667AA5
:10372800C5ED036AC5ED026ABEF1010F47F802A0B4
:1037380042F801A034D12B690691012BC3BF03F1D4
:10374800FF3307EE903A95ED037A1FED180A0592BC
:10375800C4BFF8EEE77A87EE270A13F09DFF059AB3
:10376800069918EE103A4BB1F8EEC87AF4EEC07A22
:10377800F1EE10FA02D506F014FD26E04FF47A7047
:10378800D9F81430B0FBF3F3C3EB431003EB800319
:10379800DB0098B2336803EB500393FBF0F353500C
:1037A80008F10108B8F1030F06F1040605F1140544
:1037B8007FF435AFBBF80000012801D109F0A2FA67
:1037C800BBF80030013BABF80030B64D002357F88A
:1037D800231055F82300B44A091A47F82310013377
:1037E800032BF4D1B14BB24D19789846002950D02B
:1037F800DFF8EC924FF0000A57F82A3007EE903ABB
:10380800AC4B1A884FEA8A06B8EEE78A4AB1AA4B47
:103818001C20B0EE480A00FB0A3012F085F9B0EE21
:10382800408A049B1A78082A0DD1BAF1020F0AD0EF
:10383800B95926F80910B0EE480A13F029FC06EB2E
:10384800090BABF802009D4A1278012A08D19C4A5C
:103858001C20B0EE480A00FB0A2012F065F90BE0C4
:10386800984AD4ED530A98F800100C20B0EE480A94
:1038780000FB0A2012F012FA85ED000AB5EC010AE5
:1038880013F006FC0AF1010ABAF1030FB851B3D1DB
:1038980011E0D2ED007AF8EEE77AC5ED007AD2EDC4
:1038A800017AF8EEE77AC5ED017AD2ED027AF8EE00
:1038B800E77AC5ED027A844A92F8743123B1013B64
:1038C80082F8743100F025BD804B93F8E0211D4645
:1038D80022B193F8EA31013BDBB200E0012384F81E
:1038E800743110F025F97A4B7A4ED3F800807A4B70
:1038F800B5F82A12A3F1460207463068C047774B4D
:103908001A78072A1D4604D110F012F9744BC01B0F
:10391800988010F00DF92F780490012F0AD1714981
:10392800D4F878316E4A0968C4F87801C31A9380CC
:103938005B1AD3806C4B32681B68EBB192F831206C
:10394800CAB16A4A1268940718D5694A11780129D8
:1039580014D9DB78674859430088CB1A98420AB2D1
:1039680003DB88420346A8BF0B461BB2120392FB37
:10397800F3F2012305E013461A4602E001234FF44F
:1039880080525D49C9780B912BB1BDF94C10514358
:103998000913ADF84C105949594E91F800A05949EE
:1039A800DFF83C81B1F902000790B1F900000890F6
:1039B8005548B1F904B0D0F800C00025294628467A
:1039C80050453CD29CF90040D6ED016A96ED026A5A
:1039D80064420BFB04F407EE904AB8EEE77ADDED9B
:1039E800087AF8EEE77A0DF14C0E67EEA67ADDED6F
:1039F800076AF8EEE66AE6EE867AD6ED036AE7EE3F
:103A0800267AFDEEE77ACDED057ABDF914400BB1C3
:103A1800544324132EF8104013AC34F910408C4250
:103A280003DCA542A8BF254600E02146052F03D1A7
:103A3800042898BF28F8104001301036C0E72B4BF7
:103A4800324C1868324F491B10F4805309B279D0B0
:103A5800304A314D127812F0040F01BF2A68168AD5
:103A6800194AA2F83C622A68B4F90660B2F810C094
:103A78002A4A154D1268D488C4EB0C0E764505DC2D
:103A8800B2F900E03A68B2F9004008E06444A6429E
:103A98001F4C45DB2468B4F902E0B2F90240A5F8EE
:103AA8003C6256E0E80A00204C190020C41B0020A4
:103AB800901A0020C61B0020F40A0020C81B002012
:103AC800480B0020A00B0020500A00206025002091
:103AD800B0030020801B002098270020B21500208A
:103AE800B41500205C1900208C150020C418002093
:103AF80090030020DC150020D01800205B1900205E
:103B0800CC0B002078190020E01B00203C19002075
:103B1800B831002004190020E41B0020B431002033
:103B2800B5F93C52AE45B5BF2468B2F900E0B4F926
:103B380002E02268B3BFB2F90240B2F9004076460B
:103B4800264606E03A68B4F90660B2F902E0B2F92E
:103B58000040654D1FFA8EFEA4B2C4EB0E0212B2ED
:103B680091421ADD170397FBF1F10027C5F84012BF
:103B7800BA450BD90DF14C0C3CF917E001FB0EFED0
:103B88004FEA2E3E2CF817E00137F1E7022192FBAD
:103B9800F1F2144424B2099409E0022291FBF2F1F3
:103BA800C1EB0E0E0C440FFA8EF224B209924F4963
:103BB800B5F93C220F684E490A920D784D4ADFF854
:103BC80058811268059205F00405E9B24A4A06913F
:103BD8004A491268B1F9061000F010004FF00009C8
:103BE8000C90CA4555D913A807EE906A30F819C049
:103BF800434800EB091090ED007AF8EEE77AA64604
:103C080067EE877AFDEEE77A17EE900AA04204DBAA
:103C1800099D8542A8BF0546AE46E6440B980FFAB3
:103C28008EFE28F802EF08B1B88810E073B1059845
:103C3800B2F806C0008A0A9DCCEB0000854203DC7E
:103C48003888B2F800C004E0508800E03888B7F837
:103C580002C0864503DBF4456046A8BF7046A8F855
:103C680000000C9890B1069880B17BB90F930E9123
:103C78000D9209F021F80D9A0E990F9B30B905980D
:103C8800408A8142BCBFB888A8F8000009F1010940
:103C9800A7E7069A1AB915461A481B4A06E0124AB7
:103CA80092F84402192800F23F8107E0AA45F6D9A4
:103CB80030F8154022F815400135F7E7012202FADD
:103CC80000F0124A0240002A00F02E81104A1288A1
:103CD800D00523D50F4B1A88ADF864205A88ADF863
:103CE80066209B882BE000BF500A0020B8310020D6
:103CF80004190020E41B0020B4310020C42B00204C
:103D0800CC0B002086320020803000203241300366
:103D1800FC1800203C1900207E300020BDF820202F
:103D2800ADF86420BDF81C20ADF86620ADF868B089
:103D38003BB1059B1B8A994203DACBF10003ADF82E
:103D48006830AD48B0F902304FF47A7203F5E16398
:103D58004FF46161534393FBF1F3A3F5FA73ADF8A4
:103D68007C30B0F9003003F5E1635A43A34B92FB72
:103D7800F1F21B88A3F2DC53ADF86A30A04BA2F530
:103D8800FA72ADF87E201B689E4A1B8A1188C91AF0
:103D9800ADF86C105188C91AADF86E109188C91A1F
:103DA800ADF87010D188C91AADF872101189C91A06
:103DB800ADF874105189C91AADF876109189D28975
:103DC800C91AD31AADF87A308F4AADF878100023A3
:103DD800194622F813100133082BFAD18B4A8C4B61
:103DE800126805928B4A1B7812688B490692072243
:103DF80002FB0313894DDFF810A209934FF0640802
:103E08004FF00109099B8B4273D00B782BB1153306
:103E1800059A09FA03F3134067D011F806EC069BDC
:103E280011F9010C11F805CCCEEBCE0703EB4707CF
:103E38004FEA4C06B7F90230B7F9002008909A1AF1
:103E480092B211F9023C11F8030C4FEA520B53439A
:103E580093FBF8F3CBEB03031BB2079328B920A815
:103E6800064436F81C0C288019E020AB1E44B5F92E
:103E7800004036F91C6CB44208DA2044844203DC62
:103E880086423446A8BF04462C8008E007DD201A85
:103E9800B04203DB8442A8BF044626462E80D7F8EA
:103EA8000A0011F9046C079B09FA0CFC10EA0C0FC4
:103EB800B5F900000CBF01244FF0FF3416FB00F0E9
:103EC80090FBF8F0984209DB089B534393FBF8F307
:103ED800CBEB03031BB28342A8BF03463AF81EB0DC
:103EE80004FB03B32AF81E3000E02B8002350731AB
:103EF80088E7484B4A4ED3F8008000254FF00E095A
:103F0800642709FB0583E8B293F9064036F9023FB6
:103F180014FB03F494FBF7F434800FF05DFC0135D7
:103F28002044082D3080ECD13E4C3A4D236813F0E4
:103F3800200F33D000200FF04FFC334E074630805F
:103F480001200FF049FC314B70801B68190625D5FC
:103F5800354B294A1B681B78012B24D1D5F80080E2
:103F6800B2F9021098F90630B2F900205B424B43CF
:103F78004FF0320C93FBFCF31FFA83FE98F91430D0
:103F88006FF0310113FB02F393FBF1F17144791ADD
:103F980093FBFCF373443180184470802B68204AEB
:103FA80003F170061AE0D5F800E0B2F902309EF984
:103FB800061011FB03F1322391FBF3F139443180F0
:103FC8009EF91470B2F9001017FB01F292FBF3F29C
:103FD8001044E2E70E339E42118027D032F9020FD7
:103FE800B3F90010B3F902708842F3DB874239460F
:103FF800A8BF0146EEE700BF44190020803000202A
:10400800E41B0020C42B0020BC0D00200019002058
:10401800BC31002034320020C3310020960C00202F
:10402800BA0D0020C4180020DC1B0020BB4BBC4E7E
:104038001A6892F904209A46A2B996F844727B1E2F
:10404800182B00F29980DFE803F054979770979740
:10405800976997979797977B979797979770899767
:10406800977B5400DFF8C4B20023A6F86632B04646
:10407800D946B6F96672072FDFDC98F86822A94B93
:1040880092B9DAF800200593528800EE102AA64A61
:104098001C20116800FB0730B8EE400A11F0CEFD75
:1040A8000122059B88F868223BF9172000EE102AA8
:1040B8001C2000FB0730B8EEC00A11F035FD12F0E5
:1040C800E7FF2A6800B2C7EBC7032BF8170002EB1B
:1040D8004303B3F90020B3F90230904203DB834273
:1040E800A8BF03461A4629F817200137A6F86672B2
:1040F800BFE7DAF800305B781BB18C4B0020598998
:1041080008E08B4B1B7803F0040303F0FF01002B3E
:10411800F3D108460DF00EFB01252EE0834D00205B
:10412800E9880DF007FB298905E0804D00202989E1
:104138000DF000FB698901200DF0FCFA02251CE056
:10414800DFF8E8810225A81E38F81510C0B201353D
:104158000DF0F0FA082DF6D106250EE0DFF8CC8137
:104168000325E81E38F81510C0B201350DF0E2FA43
:10417800072DF6D1042500E0002523689A0601D40E
:10418800052F0BD1694F284639880DF0D3FA681CE2
:104198007988C0B20DF0CEFA0235EDB22368DB02A1
:1041A80005D496F84C3373B10FF06EFA0BE0614FFB
:1041B8000024281937F8021FC0B20DF0BBFA0D2CE5
:1041C800EFD00134F5E75C4B1B78072B05D10FF0D6
:1041D800AFFC049BC01A594BD8800123337198E077
:1041E800574A128850063EF54AACDFF83481554EDE
:1041F80098F822209A4217D007EE903A9FED528AFB
:104208009FED520A88F82230F8EEE77A27EE888A7E
:1042180038EE000A11F028FC86ED000AB0EE480AD4
:1042280011F022FC88ED090ABBF90030D4ED095AD7
:1042380096ED006A464A07EE903ABBF9043006EE5E
:10424800903AF8EEE66AF8EEE77A25EEE67AA7EE17
:10425800867A67EEA57ABDEEC77AE6EE267A17EE7D
:10426800103AB3F5FA7FA8BF4FF4FA739342FDEE04
:10427800E77AB8BF1346ABF8003017EE903AB3F5BB
:10428800FA7FA8BF4FF4FA739342B8BF1346ABF84E
:104298000430FEF7F4BB002BDABF5E4207EE906AEB
:1042A80007EE903A0678F8EEE77AFEF71CBC9FED29
:1042B800297AFEF73FBC98F8058008F11B0803FB34
:1042C80008F307EE903AF8EEE77A67EEA57AFEF77C
:1042D8003FBC87EE837AB4EEE27AF1EE10FA08D4A6
:1042E800B4EE647AF1EE10FAC8BFB0EE647AFEF765
:1042F80043BC9FED197AFEF73FBC11F079F800280E
:104308003FF443A94FF48053A4F842300A23FFF73F
:104318003BB921B0BDEC048BBDE8F08FE01B002059
:10432800500A0020BC0C00205C190020BC0D0020A5
:1043380004190020CA2B0020B2150020B415002053
:10434800FC1800200000002035FA8E3CDB0FC93F26
:104358000CFEFFFF0AD7233C00A0F9C42DE9F04F5B
:10436800914BADB01D780093002D00F0A7808F4BC6
:104378001868002801F04D870DF0A9FBDFF85C9262
:10438800DFF85C82D9F800000BF007FF002801F085
:104398004087D9F80000864C0BF0FCFE092801D0B4
:1043A8003F2855D14FF0000A2668574655460AEB74
:1043B800080B36B132465AF808107E4814F0E8FF68
:1043C80020B90DB15F4601E05D465F460AF1100A6B
:1043D800BAF5107FEBD1F5B1D5F800A0D7F800B049
:1043E800DFF8D0C123681AF803001BF803108142D4
:1043F80011D15A1CDFF8BCE149B92D2B07D86C48FC
:10440800026020200EF803000EF8021003E00CF8FA
:1044180003002260E6E723680BB1BD420FD066486F
:1044280010F018F9BD4207D855F8100B10F012F922
:1044380009200FF08BFFF5E70BF068F900265D4DBA
:1044480023689E429ED2A85D0FF080FF0136F7E7F1
:1044580023686BB9042804D1564808F0DBFD01F045
:10446800D8BE0C2841F0D186544810F0F3F822E069
:104478000C28F9D00A2841F059864E4E504810F0C1
:10448800E9F82321304614F074FF354608B1801B43
:10449800206023680022002B41F04C86002A41F05E
:1044A800648630220021434814F02EFF009B1B78BD
:1044B800002B01F0AE860BF029F963E7414B03F1BD
:1044C8003007414BEA18EB58002B01F050803F4968
:1044D8003F4C0B600593002322608DF819303D4A4C
:1044E8003D48049214238DF8183004AB0360264627
:1044F80089469246D9F80000DFF8D0800BF04DFECF
:10450800002801F02080D8F800000BF043FE336843
:1045180093F84810834619B9242863D101221DE075
:10452800012903D14D2808BF022204E0022907D13E
:104538003C2808BF032218BF002283F8482085E0E2
:1045480003290ED140284FF0000102D983F8481002
:10455800D0E758711971D9719871042283F84820ED
:10456800C8E7042907D1997983F8490080EA01024C
:104578009A710522F2E7052968D158791979884294
:10458800987908D98BEA00009871481C18710B4477
:1045980083F808B0AEE7584503D1062283F84820CF
:1045A8005AE00022DAE700BF781B002080320020A2
:1045B800741B0020441B002085C101088AC1010822
:1045C80019D00108909801082C2B00202C190020E4
:1045D80024190020AF01010828190020A03200206A
:1045E8000CA80108BF490B7803F0040303F0FF0E81
:1045F800002B7FF47FAF23281DD1009AD8F8000044
:10460800019101231370B84B1860B84B1860B84B70
:10461800586010201872B748C3F800A0036083F8E8
:1046280009E0B54810F016F80BF070F801990B780E
:1046380043F002030B70B14B1B681B785B4505D137
:10464800AF4BB04A1A60B04BB04ADA60336893F89F
:104658004820062A7FF44EAF93F84980B8F1520FEC
:1046680000F07F8600F2D980B8F1340F00F047845B
:1046780067D8B8F1240F00F0CD842DD8B8F1040F15
:1046880000F0358215D8B8F1020F00F0168200F25A
:104698002382B8F1010F40F09B87032006F076FDD6
:1046A800002006F02EFD404606F02BFD142000F0F9
:1046B80026BFB8F10A0F00F05582B8F1220F00F0BA
:1046C800FD83B8F1050F40F083871A2006F05EFDE0
:1046D8000026DFF8508218E2B8F12C0F00F0F084C1
:1046E8001BD8B8F1280F00F0D284B8F12A0F00F0D7
:1046F800E184B8F1260F40F06B87854E062006F05E
:1047080045FDB6F8CC0106F044FDB6F8D00106F038
:1047180040FDB6F8D40100F0EFBEB8F1300F00F05C
:104728008585B8F1320F00F02985B8F12E0F40F0D9
:104738004F87774E402006F029FD06F1400800F02B
:1047480065BDB8F1450F00F0118637D8B8F13B0FB9
:1047580000F0AD831AD8B8F1380F00F08584B8F1AD
:104768003A0F00F02083B8F1360F40F03187604BE4
:10477800674E93F82C00DFF8B091C0EBC000C0B2D0
:1047880006F004FD06F1280800F03CBDB8F1400F22
:1047980000F0FB84B8F1420F00F00785B8F13D0F37
:1047A80040F016875A4E022006F0F0FC96F88F0269
:1047B80006F0A7FC96F88E0200F0A1BEB8F14B0FE8
:1047C80000F0A98410D8B8F1470F00F08485C0F034
:1047D8006E85B8F1490F40F0FB86022006F0D6FC42
:1047E8004C4B988A00F088BEB8F14F0F00F0AC85AA
:1047F800B8F1500F00F09685B8F14D0F40F0E886FB
:10480800454EDFF82881307800EB4000C0B206F052
:10481800BDFC4FF0000900F099BCB8F1700F00F032
:104828001E8300F28780B8F1660F00F0D7812CD87C
:10483800B8F15E0F00F027860DD8B8F15A0F00F0D6
:10484800E285B8F15C0F00F0FD85B8F1540F40F037
:10485800BF8600F086BDB8F1640F00F0738100F2E6
:104868009381B8F1600F40F0B386294E032006F01B
:104878008DFC96F8D90106F044FC96F8EE0106F096
:1048880040FC96F8ED0100F03ABEB8F16C0F00F06C
:104898007A8216D8B8F1680F00F05C82C0F0CA813D
:1048A800B8F1690F40F09486DFF86C80DFF88090EB
:1048B80098F80000400000F0FE0006F067FC0026B3
:1048C80056E2B8F16E0F00F0738200F2968206206D
:1048D80006F05CFC114B186806F064FC104B188855
:1048E80000F00ABE04190020A0320020841B00201A
:1048F800A00D002080320020B5C10108242C002022
:10490800FC9F0020EFBEADDE00ED00E00400FA05DC
:104918006025002044150020142C0020283A00208F
:1049280060140020A5BB0108282C0020B82700200F
:10493800C42B0020B8F17D0F00F03B855BD8B8F19F
:10494800750F00F0A8823ED8B8F1730F00F03B83D2
:1049580000F2AE80B8F1720F40F03A86D74E1620BA
:1049680006F014FCB6F8480206F013FCB6F8D000BE
:1049780006F00FFCB6F8D20006F00BFCB6F8D4002F
:1049880006F007FCB6F89C0206F003FC002006F0CF
:10499800B8FB002006F0B5FB002006F0B2FB96F845
:1049A800230206F0AEFB96F8440206F0AAFB0020AC
:1049B80006F0A7FBB6F9F0310A2093FBF0F080B2BD
:1049C80006F0E7FB54E3B8F1780F00F04281B8F144
:1049D8007C0F00F0DF84B8F1770F40F0F985DFF83D
:1049E8000483DFF804A398F80000DFF8009306F0CA
:1049F800CDFB0026DDE2B8F1A00F00F0FD823FD824
:104A0800B8F17F0F00F01F84C0F0EE84B8F1960F64
:104A180040F0DE850F2006F0B9FBA94B188806F098
:104A2800B8FBA84B188880B206F0B3FBA64B1B68EE
:104A3800C3F3C000C3F38002800040EA4200C3F31E
:104A480040021043C3F3401240EAC20003F01003CF
:104A5800184306F09EFB06F081FA06F0A3FB974B7D
:104A680093F8000506F04DFB984B18886428A8BFFA
:104A7800642006F08EFB032006F043FB944B1BE2F8
:104A8800B8F1F10F00F04081B8F1FE0F00F0A682F6
:104A9800B8F1F00F40F09C85884E042006F076FBB4
:104AA800B6F8F40106F075FBB6F8F20100F024BD83
:104AB8004FF000094FF0010B4DE2042006F066FBB1
:104AC800DFF82C82002618F80600013606F019FBDC
:104AD800042EF8D100F031BD032006F057FB032067
:104AE80006F00FFB002006F00CFB00F03DBC062092
:104AF80006F04CFBDFF8FC81002618F806000136AA
:104B080006F0FFFA042EF8D191E018F806000136F5
:104B180006F0F7FA0B2EF8D1DFF8DC81002618F83A
:104B28000600013606F0EDFA082EF8D1DFF8CC8140
:104B3800002618F80600013606F0E3FA072EF8D129
:104B480000F0FBBC072006F021FBE72006F0D9FAAD
:104B58005A4B587906F0D5FA002006F0D2FA04200C
:104B680000F015BC5B485C4E11F0C4F85FFA80F8A1
:104B7800404606F00BFBB044B04500F0DE8416F862
:104B8800010F06F0BEFAF7E70B2006F0FFFA4C4BD0
:104B9800188806F0FEFA4B4B188880B206F0F9FA2E
:104BA800494B1B68C3F3C000C3F38002800040EA8E
:104BB8004200C3F340021043C3F3401240EAC2006C
:104BC80003F01003184306F0E4FA06F0C7F906F0FC
:104BD800E9FA3A4B93F8000500F091BC122006F070
:104BE800D5FA3E4BDFF818911B89B3F5007F94BFC7
:104BF8004FF001084FF00408002659F8260090FBF2
:104C0800F8F0013680B206F0C4FA032EF5D1344E1E
:104C1800308806F0BEFAB08806F0BBFA308906F094
:104C2800B8FA002006F0B5FA002006F0B2FA002023
:104C380000F062BC102006F0A9FADFF8C880002650
:104C480018F80600013606F05CFA102EF8D100F0CC
:104C580074BC7020194E06F099FA4FF0000AB0465D
:104C68004FF00E09B6F8560106F093FAB6F8580157
:104C780006F08FFAB6F85A0106F08BFA96F85C013E
:104C880006F03FFA96F85D0106F03BFA96F85E01E9
:104C980006F037FA96F85F0106F033FA09FB0A8343
:104CA8000AF1010AD3F8600106F07CFABAF1080F9C
:104CB80006F10E06D6D100F040BC00BF60250020EA
:104CC800BA180020B8180020A818002028160020BC
:104CD800843200201A2B0020192B0020AC18002049
:104CE8004C19002005190020061900209098010889
:104CF800EDC1010861BB01089CBB010866BB010846
:104D080054140020BC0D00207020C54E06F03EFA59
:104D180006F1700896F8E60006F0F3F996F8E70051
:104D280006F0EFF996F8E80006F0EBF996F8E900D6
:104D380006F0E7F996F8EA0006F0E3F996F8EB00D2
:104D480006F0DFF9073696F8E50006F0DAF9B0451F
:104D5800E0D1F2E3102006F019FADFF80483002608
:104D680018F80600013606F0CCF9102EF8D1E4E365
:104D780098F800309E4280F0E08339F8160006F07B
:104D880008FA0136F4E7A74E062006F0FFF9308846
:104D980006F0FFF9708806F0FCF9B6F904300A202D
:104DA80093FBF0F024E0042006F0F0F99E4B2FE18D
:104DB800072006F0EBF99D4B1888FF28A8BFFF20B5
:104DC800C0B206F09EF99A4B186880F3100080B2C2
:104DD80006F0DFF9974B188806F0DBF9904B93F84B
:104DE8002322954B18682AB10A23584380F31000F0
:104DF80080B281E300F30F00FAE7904E0C2006F032
:104E0800C5F93368187806F07CF93368987806F0A5
:104E180078F94FF00009B046D8F80030874E4B4477
:104E280009F10109587906F06CF9B9F1030FF3D1CA
:104E38003368187A06F065F93368D87806F061F9AE
:104E48003368187906F05DF93368588906F0A1F9D6
:104E58003368587A06F055F9336858784FE31E20BE
:104E680006F094F9DFF8DC810026D8F800303344E6
:104E7800587806F046F9D8F800303344D87A06F066
:104E880040F9D8F8003033440136587D06F039F936
:104E98000A2EEAD151E32F2006F078F9684E16F869
:104EA800010F002800F0498306F02BF9F7E70120ED
:104EB80006F06CF9634B1B68187820E35020584EB5
:104EC80006F064F906F150084FF00C095E4A96F8AE
:104ED800013509FB0323043693F8380006F011F96D
:104EE80096F8FE0406F00DF996F8FF0406F009F9A5
:104EF80096F8000506F005F9B045E7D11DE35A20FC
:104F0800474E06F043F906F15A0896F8560506F09A
:104F1800F8F896F8510506F0F4F896F8520506F0F8
:104F2800F0F896F8530506F0ECF896F8540506F0F4
:104F3800E8F8063696F84F0506F0E3F84645E4D15A
:104F4800FBE2BBF1000F00F0F8825FFA89F006F08F
:104F58001DF94FF0000B00263C4B1B789E42F0DAFF
:104F68003B4BF05C00214FF00C0E0EFB01F313F8E5
:104F780007C0844503D001311F29F6D10CE0324A1D
:104F88001344D3F834A0504610F0B4FE0146BBF1E8
:104F9800000F00F0F28289440136DDE700FB02F3DE
:104FA80013F807E08E4500F0F58201321F2AF5D18B
:104FB800013698F800309E4280F0BF8216F80A1039
:104FC80000220C20EAE7082006F0E0F80126F0B2FB
:104FD800013606F096F8092EF9D1AEE2082006F05F
:104FE800D5F8DFF88080002638F81600013606F07C
:104FF800D0F8042EF8D1A0E20C2006F0C7F8154B23
:10500800186806F0CFF8144B186806F0CBF8134B65
:105018001868BCE1042006F0B9F8014B9868B6E1BD
:105028006025002044190020003A0020DC150020EB
:1050380090150020783B0020741400205C2F00207D
:105048008F980108801B00209098010805190020FE
:1050580006190020ACF7FF1FB0F7FF1FB4F7FF1FBA
:1050680080300020B4150020042006F08FF8DA4EB6
:1050780096F8160206F045F896F81A0206F041F876
:1050880096F8190206F03DF896F81B0237E2D24E60
:10509800072006F07BF8B6F81E0206F07AF8B6F894
:1050A800200206F076F896F8220206F02AF8B6F8FA
:1050B800240221E2012006F069F8C74B58791EE264
:1050C800C54E102006F062F896F8400206F019F86E
:1050D800B6F84C0206F05DF8B6F8480206F059F842
:1050E800B6F84A0206F055F896F8420206F009F8B2
:1050F800B6F8540206F04DF8B6F8560206F049F82C
:1051080096F84E0205F0FDFF96F84F0205F0F9FFFC
:10511800B6F85202F0E1B04E082006F037F896F8DB
:105128009A0205F0EEFF96F89B0205F0EAFFB6F842
:105138009C0206F02EF896F89E0205F0E2FFB6F8FB
:10514800A00206F026F896F8A202D8E1337899452D
:1051580008F1020880F0F18118F8020C05F0D1FF7F
:1051680018F8010C00EB800000EB800000F2EE2044
:1051780080B206F00EF809F10109E7E7012006F010
:1051880005F8954B93F84402B9E1082005F0FEFFB5
:10519800DFF84482002606EB0803013693F838024C
:1051A80005F0AFFF082EF6D1C7E18B4E102005F0B1
:1051B800EDFF707905F0A5FFB06805F0F3FF96F8EC
:1051C800400205F09EFFB6F8CC0105F0E2FFB6F804
:1051D800D00105F0DEFFB6F8D40105F0DAFFB6F825
:1051E8001E0205F0D6FFB6F8200285E113F9092062
:1051F800824200F0D5810C333C2BF7D10836B045FC
:1052080000F09B8196F9A6020023EFE7B6F8640345
:1052180005F0BFFF96F8660305F073FF043696F8AD
:10522800630305F06EFF4645F0D186E180206B4EA2
:1052380005F0ACFF06F1800856F8040F05F0B2FF40
:10524800B045F9D179E18D2005F0A0FF00264FF097
:10525800060A0AFB06F94FF0000B5FFA86F840468B
:1052680005F04FFF5FFA8BF005F04BFF5A4B0BEB45
:10527800090119440BF1010B91F8A40305F041FF52
:10528800BBF1060FEBD10136062EE2D1002606202F
:1052980005F037FFF0B205F034FF4F4B33440136C9
:1052A80093F8C80305F02DFF0B2EF0D145E10D2032
:1052B80005F06CFF01F088FB494E40F00200C0B2D7
:1052C80005F01FFF308805F06DFFF06805F06AFFF4
:1052D80009F062FF5BE005F00BFF0646842005F04D
:1052E80055FF304605F05EFF3D4BDA6806F1800356
:1052F80093428CBFC6EB02094FF080090DF13008CC
:1053080009F04CFC4A463046414601F035FC00267F
:1053180081464E4580F2118118F8060005F0F1FE2D
:105328000136F6E72C4E042005F030FF012005F089
:10533800E8FE96F8AD0505F0E4FE96F8AB0505F035
:10534800E0FE96F8AC05DAE00B2005F01FFF002020
:1053580005F0D7FE002005F0D4FE002005F0D1FEB0
:1053680011E0012005F012FF0020C8E0132005F02D
:105378000DFFDFF87080002618F80600013605F0EA
:10538800C0FE0B2EF8D1002005F00CFF002005F020
:1053980009FFD2E0104E062005F0F8FEB6F8D80056
:1053A80005F0F7FEB6F8DA0005F0F3FEB6F8DC0013
:1053B800A2E0094E052005F0E9FE96F8260205F060
:1053C800A0FE96F8270205F09CFE96F8280205F044
:1053D80098FEB6F8DE008FE0602500204028002007
:1053E8009C030020A5BB0108C94E032005F0CEFE92
:1053F80096F8C70105F085FE96F8C80105F081FE0C
:1054080096F8C9017BE0C24E062005F0BFFEB6F84B
:10541800DC3123B1082005F074FE012005E096F880
:10542800DE0105F06EFE96F8EA0105F06AFE96F8D0
:10543800E50005F066FE96F8E40005F062FEB6F8B1
:10544800E00059E0DFF8C882B24E0D2005F09EFE5C
:1054580098F8E00105F055FE3368188C05F099FEC0
:105468003368588C05F095FEB8F8E20105F091FE16
:10547800B8F8E40105F08DFE3368988C05F089FED4
:105488003368D88C38E0A34E112005F07FFE3368CE
:10549800588D05F07EFE3368988D05F07AFE3368E6
:1054A800D88D05F076FE336893F8280005F029FEBC
:1054B800336893F8310005F024FE336893F8370019
:1054C80005F01FFE336893F8380005F01AFE3368BC
:1054D80093F8330005F015FE336893F8340005F0AF
:1054E80010FE336893F8360005F00BFE3368988F8A
:1054F80005F04FFE3368588F05F04BFE1DE005F0B0
:1055080000FE1AE040F24F84B8F1D00F00F0698431
:10551800B8F1D20F40F0168105F0D4FD020600F173
:105528007F847D4B1B785B0704D4032828BF0020A9
:105538000CF0CEFB002005F029FE05F0F3FD2368F2
:10554800002283F84820754B754C18680CF0BFFA98
:1055580094F82D305BB1734B585907F033FA0EF0BD
:105568000EFB002384F82D306F4B704ADA604C35FF
:10557800982D00F04E86FEF7A4BFD046CAEB08006F
:105588008842BFF609AD18F8010B019105F0B9FD85
:105598000199F3E74B4493F8380005F0B2FD07E5AD
:1055A800C0B205F0AEFDB6F8A80205F0F2FD96F817
:1055B800AA0205F0A6FD96F8AB0205F0A2FD96F842
:1055C800AD0205F09EFD96F8AC0205F09AFD15E6D1
:1055D800B8F15B0F15D105F075FD4D4E86F8DE016B
:1055E80005F070FD86F8EA0105F06CFD86F8E50027
:1055F80005F068FD86F8E40005F070FDA6F8E00007
:1056080098E700F26082B8F1370F32D15B794FF03A
:105618000708B3FBF8F8C8EBC8029B1A13F0FF0F92
:1056280002D00BF097FC85E75FFA88F8B8F1000F15
:1056380080D005F047FD4FFA80F9484607F038FA60
:1056480006460028EDD080F8009005F047FD7080F0
:1056580005F038FD307105F035FD707105F032FD4B
:10566800F07105F02FFD08F1FF385FFA88F8B07186
:10567800DCE700F22881B8F12B0F04D105F022FDF8
:10568800234B587156E700F28680B8F1250F08D1F0
:105698001F4E0023B36005F02BFDB3681843B060BC
:1056A80048E752D8B8F10B0F19D111220021204830
:1056B800DFF85C9013F028FE4FF0000833685B7940
:1056C800102B28BF10239845BFF434AF05F0FAFC1F
:1056D80008EB090308F1010883F8BA05EEE7B8F109
:1056E800230F2FD105F0EEFC1328064699D805F0B4
:1056F800E9FC00220C2101FB02F307EB030E9EF8E4
:1057080008E0864500F0ED8401321F2AF3D188E7CE
:1057180060250020801B0020041900202819002083
:10572800A00D00202C2B002000ED00E00400FA055D
:105738001A2B0020B8F1FA0F04D1CD4B1B785A0769
:1057480040F156830BF006FCF7E6B8F1270F0DD1B0
:1057580005F0C4FCC74EC6F8CC0105F0BFFCC6F87E
:10576800D00105F0BBFCC6F8D401E3E6B8F1290F77
:10577800E8D105F0B3FCBF4EA6F81E0205F0AEFC5A
:10578800A6F8200205F09EFC86F8220205F0A6FC89
:10579800A6F82402CEE6B8F1310F14D105F092FC38
:1057A8001F2806463FF63DAF23685B79052B7FF43B
:1057B80038AF05F09DFCAF4B03EB8603C3F8E4025A
:1057C8000EF0F2FCB6E64BD8B8F12D0F32D105F049
:1057D80079FCA84E86F8400205F080FCA6F84C0239
:1057E80005F07CFCA6F8480205F078FCA6F84A0209
:1057F80005F068FC236886F842025B79082B07D914
:1058080005F06CFCA6F8540205F068FCA6F85602F0
:1058180023685B790C2B7FF68DAE05F053FC86F878
:105828004E0205F04FFC86F84F0205F057FCA6F82B
:1058380052027FE6B8F12F0F84D18E4E06F1400850
:1058480005F04CFCA6F8640305F03CFC86F86603FA
:1058580005F038FC043686F863034645F0D169E65E
:10586800B8F1330F05D105F02DFC824B83F84402C3
:1058780060E6B8F1350F7FF465AF05F023FC0E281C
:1058880080463FF6CEAE05F01DFC03283FF6C9AEB4
:10589800784B062606FB083686F8560505F012FCF6
:1058A80086F8510505F00EFC86F8520505F00AFC4D
:1058B80086F8530505F006FC86F8540505F002FC49
:1058C80086F8550536E6B8F1440F04D16A4B012233
:1058D80083F82D202EE671D8B8F13E0F09D105F0D6
:1058E800F1FB644E86F88F0205F0ECFB86F88E0219
:1058F80020E62BD8B8F1390F11D105F0E3FB5D4E46
:1059080086F8160205F0DEFB86F81A0205F0DAFBC7
:1059180086F8190205F0D6FB86F81B020AE6B8F1EC
:105928003C0F7FF40FAF554ED6F8008005F0CAFB48
:105938000128A8BF012088F8000033681B78012BD4
:105948004F4B14BF4F4A504A1A60F3E5B8F1410F64
:105958000CD1DFF82081002605F0B4FB06EB080324
:105968000136082E83F83802F6D1E3E5B8F1430F83
:105978007FF4E8AE3F4E05F0A5FB0023B3607071DD
:1059880005F0B6FBB3681843B06005F09BFB86F8DA
:10599800400205F0A3FBC6F8CC0105F09FFBC6F852
:1059A800D00105F09BFBC6F8D40105F097FBA6F8DB
:1059B8001E0205F093FBA6F82002BBE5B8F14C0FD8
:1059C80019D105F07FFB2B4E86F89A0205F07AFB79
:1059D80086F89B0205F082FBA6F89C0205F072FB94
:1059E80086F89E0205F07AFBA6F8A00205F06AFB8D
:1059F80086F8A2029EE513D8B8F1480F09D101F044
:105A0800E5F8224A00231370214A1370214A1360D3
:105A180090E5B8F14A0F7FF495AE05F05FFB89E594
:105A2800B8F14E0F38D105F04DFB112880463FF6EE
:105A3800F8AD05F047FB0F4E08F5967806F8180004
:105A480005F04CFB40F2ED23984205DD40F6CA0311
:105A58009842A8BF184601E040F2EE2006EB48063F
:105A6800A0F2EE20192390FBF3F0707062E500BFFE
:105A78000419002060250020A00D0020801B0020B4
:105A8800B0030020F9BE00083DC20008791B0020C1
:105A98007A1B00207C1B0020B8F1510F7FF452AE16
:105AA800D64B1B78012B3FF645AD05F00BFBD44ECA
:105AB80086F8AD0505F006FB86F8AB0505F002FB98
:105AC80086F8AC0536E5B8F1D30FA6D000F2B1815F
