:020000040800F2
:1000000000A0002019730108B1EA000895650108F5
:10001000AFEA0008ADEA0008ABEA00080000000003
:10002000000000000000000000000000A9EA000835
:10003000A7EA000800000000A5EA0008C5080108BA
:1000400081730108817301088173010881730108BC
:1000500081730108817301083719010841190108EA
:100060003F1901083D1901083B1901085D650008A9
:100070004D6500083D6500082D6500081D650008F8
:1000800009650008F564000881730108817301089F
:10009000E9EB00088173010881730108391901082F
:1000A0000106010851060108817301084106010893
:1000B00031060108210601081106010881730108B3
:1000C000817301088173010881730108817301083C
:1000D0008173010831640008256400081B6400086E
:1000E000351901088173010897EA00088173010836
:1000F000817301088173010881730108817301080C
:1001000000000000000000000000000081730108F2
:1001100081730108817301088173010881730108EB
:10012000E1640008CD640008B9640008A564000813
:1001300091640008817301080000000000000000C5
:1001400081730108817301088173010800000000B8
:10015000000000000000000000000000000000009F
:100160000000000000000000817301088173010895
:100170008173010800000000000000000000000082
:0801800000000000817301087A
:100188002DE9F04FB94B1B689A6AB94B2DED048BDA
:100198001A80B84B1978A3B00129059304D1B64B3E
:1001A8001A80B64A12885A80B54C2378002B01F081
:1001B8007F8110F0F7FAB34B07909B680BB1A01C36
:1001C8009847B14BB3F90670B04B1B685A899742F0
:1001D8000CDB197AB7F5FA6FBFBFBB1A4B43C2F5F0
:1001E800FA6193FBF1F1C1F1640100E06421A84BCD
:1001F800A84EB3F8540293F8268293F8279293F9FD
:10020800D4315B421FFA83FB002240F2E63AA24B4C
:10021800D1549D4B33F912E0C0EB0E0303F2F315F2
:1002280055454FEA420C9B4D11D8002BB8BF5B4295
:10023800022A069310D0434503DD069BC8EB03034F
:1002480000E00023864526F80C3010DB14E04FF45C
:10025800FA73022A0693F0D1069B9945B4BFC9EBFD
:100268000303002313FB0BF38645B38007DA36F844
:100278000C305B4226F80C300132032AC7D1874B79
:10028800834E1B6813F4805E0ED0B7F57A7F06DBC9
:10029800B7F5FA6F3A46A8BF4FF4FA6201E04FF497
:1002A8007A72A2F57A7213E0B6F856128F4206DB1C
:1002B800B7F5FA6F3A46A8BF4FF4FA6200E00A466B
:1002C800521A4FF47A735A43C1F5FA61B2FBF1F24C
:1002D8006423DFF8088292FBF3F101F1010938F990
:1002E80011C038F919806FF06309CCEB080809FBD5
:1002F800012101FB08F292FBF3F202EB0C039BB223
:10030800EB80BEF1000F16D0654A1268D20012D5F4
:10031800644AD2787AB9A3F57A731BB24FF47A7229
:100328001B0393FBF2F3C0F5FA6212B2534300EBDE
:100338002330584BD8805C4BB3F800A01AF0400F1C
:10034800984638D0594BDFED5A7AB3F904300A226F
:1003580093FBF2F3A2889B1A1BB208EE103AB8EE90
:10036800C88A28EE278AB0EE480A0EF04FFAF0EE57
:10037800408AB0EE480A0EF0E8F9B5F9023007EE07
:10038800103AB5F90030B8EEC77A06EE903A67EE43
:10039800407AF8EEE66AE8EEA67A20EE260AFDEE46
:1003A800E77AA8EE870A17EE903AFDEEC07A2B801E
:1003B80017EE903A6B803F4BDFF8C4901B6813F040
:1003C800140F00F0A6801AF4027F00F0A2803A4BC6
:1003D8001B7803F0100303F0FF004BB1374B96F97D
:1003E800A422B3F900106B8801FB02336B8090E004
:1003F800334B344A1B68D9789B7819B3B2F900207B
:10040800C2EB070E8EEAEE71A1EBEE7199420CDD9C
:100418002D49974208604FF00101A171C8BF5B42A6
:10042800E9889BB20B44EB8073E099F806302BB156
:10043800264B89F806001968254B19601F4B1B6865
:1004480013445BE0B2F900003A1A82EAE27EAEEBAE
:10045800E27E9E4544DD022392FBF3F21D4B1A60B7
:100468001D4A0123137089F8063044E01016002055
:1004780034210020A2150020A4150020E814002033
:10048800EC0A002034150020C83A0020401400204F
:1004980018340020282E0020482E00201423002085
:1004A80050230020202300204C230020342E00203D
:1004B80035FA8E3C2421002068130020103E0020CD
:1004C800D4140020F21200200C3E00202814002032
:1004D800003E0020043E0020143E0020022E002092
:1004E80099F806303BB1744B89F806101A68734BBB
:1004F8001A60734B1970734B1B680344724A116876
:100508000A884988934203DB99420A46A8BF1A46DB
:10051800EA806E4B1B78ABB1B6F85632BB4211DBA2
:100528006B4B5B79012B01D0192B02D196F89F22D6
:1005380042B90E2B06D0082B04D00023AB80654BA4
:1005480000229A6096F8147297B31AF0030F2FD00E
:10055800614BDFED627A93ED080AB4EEE70AF1EE3B
:1005680010FA21D919F018FB5D4BD3ED007A20EE73
:10057800270A19F07FFAB0F5617FA8BF4FF46170C0
:1005880007EE900AB8EEE77ADFED567A87EE270A8B
:100598000EF0DBF807EE907AF8EEE77A27EE800A9D
:1005A80019F068FA00B200E00020EB881844E880EF
:1005B80096F85A324C4A23B9B8F80010002900F0CE
:1005C800A1801278002A52D0022B09D0032B19D10E
:1005D80096F85B32C3EB431203EB8203DB000FE0B8
:1005E800424BD3F8F820B2F57A7F05DB44F6206356
:1005F8009342A8BF134601E04FF47A7303F57A7368
:100608009BB201E0B9F80830394A1068059AB3FB83
:10061800F0F01278471C3FB2092A678105D1354AA4
:100628002988118069885180D380B9F90CA0DFF836
:10063800CCB00023DFF8C0E03BF913800EF1160CB4
:100648000EF10E093CF8132039F913102CF8138019
:10065800C2EB080201FB0AF191FBF7F10A4429F801
:1006680013200133042BE5D1AEF80C0004E0B9F8EF
:100678000C30013BA9F80C301F4AB2F90C000028D5
:100688004FF0000315DDDFF874E0B2F90A700E329E
:10069800DFF86CC032F913103CF813C0414391FBEA
:1006A800F7F1C1EB0C012EF813100133042BEFD135
:1006B8002DE093812BE000BF28140020003E00208D
:1006C800143E0020103E0020D8140020B000002066
:1006D800183400201C2E0020842D00208FC2753C69
:1006E800C8140020EFB6B044F0120020EC0000203F
:1006F8004C2E0020A4150020EC0A0020282E0020F3
:10070800020B00201378A181002B00F09F80C34BBF
:1007180093F85C3223B1C24A1268970001F10C8544
:10072800C04BC1481A68059BC04F93F800E0C04B06
:10073800DFF84C831B689FEDBF5ADFEDBF4A9FED82
:10074800BF4ADFEDBF3A9FEDBF3ADFF8389393F821
:1007580000C0F7EE005A151D0023F0EE652A022BA3
:1007680014BF92F800B092F801B038F9131007EEF0
:1007780010BAB8EEC77A06EE901AC7EE057A14BF1B
:100788009178517A4FEA430AB0EE007AF4EEC77ACC
:10079800F1EE10FAF8EEE66AC4BF37EEC77AE7EE74
:1007A800247A86EE847AB5EEC07AF1EE10FAD4BFD8
:1007B800F1EE476AF0EE476AE7EC016A89B106EEA6
:1007C800101AB8EEC66A86EE052A26EEA66A66EE06
:1007D800866A35EEC26A66EE876A26EE077AA2EE68
:1007E800267A15F8011F67EEA37A67EE877A002943
:1007F80041F0F984BEF10C0F02BFBDEEE77A17EEA7
:10080800101A2AF80910BCF1000F41F014859FED69
:100818008E7A67EE877A9FED8D7AF4EEC77AF1EEDD
:1008280010FA01F11A859FED8A7AF4EE477AF1EE13
:1008380010FAC8BFF0EE477A0133032BC0ED007AF7
:1008480000F104008BD1834B00221A70824B1B6885
:10085800990640F19E80814B1B8803F03003002BE2
:1008680000F097807E4B1B78DA0740F192807D4B31
:10087800DFED7D7AB3F90430DFF80CA2DFF80C92D3
:100888000A2293FBF2F308EE103AB8EEC88AF2EEA9
:10089800048A28EE278AB0EE480A0DF056FFB0EE1B
:1008A800409AB0EE480A0DF0B1FF704B1B6893F800
:1008B80003B0B0EE408ABBF1000F46D0DFF8D0811C
:1008C800BAF90200B8F90250401B11F03BFCCBF119
:1008D8000007B84203DB5845A8BF584600E0384631
:1008E80005442BB2BAF90000B8F900500693BDF8D8
:1008F8001830A8F80230401B11F024FC874203DCB2
:1009080083455F46A8BF0746DDED067A2F443FB210
:10091800B8EEE77A07EE907AF8EEE77AA8F8007072
:1009280027EEC96A68EE277AA8EE076AE9EE077A21
:10093800C6EE286A87EEA87AFDEEE66AFDEEC77A6B
:1009480016EE903AA9F800301FE0BAF9023007EE27
:10095800103ABAF9003000EE103AB8EEC00AB8EE14
:10096800C77A60EE496AE8EE076A28EE008AC6EEA2
:10097800A87AA9EE078AFDEEE77A17EE903AC8EE54
:10098800287AA9F80030FDEEE77A17EE903AA9F830
:100998000230374B1878002840F07D85354F3B688A
:1009A8001B0340F17885344D2B78033B052B1BD86E
:1009B8001A4B93F8AF3533B1012B08D105F05AFA29
:1009C800C0F17F0003E0606A03689B689847A36AE8
:1009D80094F82C201344B3F5807FA8BF4FF480739C
:1009E8008342D4BFA362A0622B78023B092B00F29A
:1009F800B584DFE813F00A004F007F009F00B300C2
:100A0800CA00DB006404870497040023A3622363FD
:100A18001A4B1B686363032300F09FBC1834002043
:100A280050230020401400201C2E0020CC2B002036
:100A3800581600200000C842D7A368410000FA43B6
:100A4800000048430AD7233C3333834000F0FFC5F6
:100A580000F0FF45F0120020242100204C23002044
:100A680068130020342E002035FA8E3C94140020A0
:100A7800A43E00201423002008310020942A0020DE
:100A8800282E0020A41500209A120020302E0020C5
:100A9800961200209A4B1A68636B6433934280F075
:100AA8005D84402015F002FB002840F05784DFF8F1
:100AB8005892944E4FF04008236B19F8030058B130
:100AC80015F0CEFBB36A013BB362336BB8F1010892
:100AD80003F101033363EFD1226B8B49894B8A5CA5
:100AE800002A40F03B841A634FF0FF325A63042314
:100AF80000F033BC854A0292A2F10C03019326232D
:100B080000935021A2F10A034920163A0BF0DEF8AF
:100B1800002840F023843B684FF0FF3213F0800335
:100B28000FBF236320636263052304BF6263072347
:100B380000F013BC02230093754B00210291019130
:100B4800A3F1080248200BF0C1F8002840F0068401
:100B58004FF0FF33636320630623FEE36D4A02927E
:100B6800A2F10C03072601930096A2F108030021C5
:100B7800143A47200BF0AAF8002840F0EF834FF012
:100B8800FF33206363632E70E8E305230093624B11
:100B9800002102910191A3F1080253200BF096F86D
:100BA800002840F0DB8320630823D6E3402015F0BB
:100BB8007DFA002840F0D283524A136B9046492BA5
:100BC80001F24F83DFE813F04A004D00520056004F
:100BD8005900600065006A006E0072007E0089009E
:100BE8008C009700DA00DF00E400F5000601170129
:100BF800280139014A015B016C017F0189019701D4
:100C0800A501B301C101CF01DD01EB01F901030227
:100C180011021B0225022F02390243024D0257021C
:100C280061026B02B802C202CC02D602E002EA02FA
:100C3800F402FE02030308030D03120317031E0345
:100C48002703340339033E03430348034D03520388
:100C580057035C03610366036B0370032F49304835
:100C680025E3304B304A3149314833E0314A324983
:100C78003248CDE23249334819E3334B334893F8CD
:100C8800AE2593F8AD15C3E22F4B3148B3F8CC101D
:100C98000DE32D4B2F48B3F8CE1008E32E4B2F4809
:100CA800196904E32E4B2F48198900E3A36BDE046E
:100CB80004D5254B2C4893F81612F8E2114B0B2259
:100CC8001A63F6E22049294891F8193291F81B2253
:100CD80091F81A1215F09EFBEBE2A18F2448E6E288
:100CE8003B68180540F1E582174B2248B3F91E22EC
:100CF800B3F820128CE2184B1F485969D7E200BF9D
:100D0800942A0020EC0A0020ACBF010822C0010888
:100D1800DCC10108F8C1010840C20108CFE8010898
:100D2800DBE80108ECE80108F1E80108F9E8010846
:100D3800FFE8010827E9010830E901083CE9010852
:100D4800D639002050E90108183400205EE901086E
:100D58006FE901087EE90108341500208DE90108D2
:100D6800282100209DE90108A7E90108B4E9010844
:100D7800CDE90108D8E90108EBE90108CD4BCE48D7
:100D880093F8DA1193E2CB4BCC4893F8EA118EE250
:100D9800C84890F80235622202FB03F1431893F821
:100DA80018240C2303FB02130344C54893F81A14B0
:100DB8007DE2C04890F80235622202FB03F1431835
:100DC80093F818240C2303FB02130344BD4893F83B
:100DD8001C146CE2B74890F80235622202FB03F15A
:100DE800431893F818240C2303FB02130344B64852
:100DF80093F81B145BE2AF4890F80235622202FBBD
:100E080003F1431893F818240C2303FB021303443B
:100E1800AE4893F823144AE2A64890F802356222B5
:100E280002FB03F1431893F818240C2303FB021365
:100E38000344A74893F81D1439E29E4890F80235F8
:100E4800622202FB03F1431893F818240C2303FBD6
:100E5800021303449F4893F81E1428E2954890F81B
:100E68000235622202FB03F1431893F818240C237D
:100E780003FB02130344984893F8221417E28D48A1
:100E880090F80235622202FB03F1431893F8182404
:100E98000C2303FB021303449048B3F8241406E21E
:100EA80096F802258E4862235343F2180C2192F8D3
:100EB800182401FB02331E4496F8213496F82024A6
:100EC80096F81F1406E77B4B864893F802256221A3
:100ED80001FB023393F8DC13E9E1764A824892F881
:100EE8000235622101FB032191F8F13391F8E723E0
:100EF80091F8DD13EEE66F4A7C4892F802356221DC
:100F080001FB032191F8F23391F8E82391F8DE13FD
:100F1800E0E6684A764892F80235622101FB03212F
:100F280091F8F33391F8E92391F8DF13D2E6614A97
:100F3800704892F80235622101FB032191F8F433DD
:100F480091F8EA2391F8E013C4E65A4A6A4892F8FD
:100F58000235622101FB032191F8F53391F8EB2367
:100F680091F8E113B6E6534A644892F802356221D3
:100F780001FB032191F8F63391F8EC2391F8E21381
:100F8800A8E64C4A5E4892F80235622101FB03212B
:100F980091F8F73391F8ED2391F8E3139AE6454A6F
:100FA800584892F80235622101FB032191F8F83381
:100FB80091F8EE2391F8E4138CE63E4B524893F8EF
:100FC8000225622101FB023393F8E5136FE1394AE8
:100FD8004E4892F80235622101FB032191F8FA3359
:100FE80091F8F02391F8E61374E6324B484893F8E9
:100FF8000225622101FB023393F8FB1357E12D4BC5
:10100800444893F80225622101FB0233B3F8FC132C
:101018004DE1284B404893F80225622101FB023339
:10102800B3F8FE1343E1234B3C4893F802256221B1
:1010380001FB0233B3F8001439E11E4B384893F82A
:101048000225622101FB0233B3F802142FE1194B88
:10105800344893F80225622101FB023393F8041403
:1010680025E1144B304893F80225622101FB023335
:10107800B3F806141BE10F4B2C4893F802256221A4
:1010880001FB0233B3F8081411E10A4B284893F81E
:101098000225622101FB0233B3F80A1407E1054B6C
:1010A800244893F80225622101FB023393F80E14B9
:1010B800FDE000BF18340020F7E901080AEA01083A
:1010C8001FEA010829EA010833EA010840EA010891
:1010D8004DEA010857EA010862EA01086FEA0108C7
:1010E80081EA010890EA0108A1EA0108B2EA0108C8
:1010F800C4EA0108D4EA0108E4EA0108F4EA0108AC
:1011080005EB010816EB010828EB010818EB0108AC
:1011180032EB010847EB010857EB010865EB0108C2
:1011280077EB01088DEB01089CEB0108B8EB01088F
:10113800CEEB0108DDEB0108AC4BAD4893F8022576
:10114800622101FB023393F80F14B0E0A74BA948C2
:1011580093F80225622101FB023393F81014A6E0EC
:10116800A24BA54893F80225622101FB023393F8AC
:1011780011149CE09D4BA14893F80225622101FBC4
:10118800023393F8121492E0984B9D4893F8022585
:10119800622101FB023393F8131488E0934B9948BA
:1011A80093F80225622101FB0233B3F814147EE0A0
:1011B8008E4B954893F80225622101FB0233B3F860
:1011C800161474E0894B914893F826126FE0874B08
:1011D8008F4893F827126AE0844B8E48B3F8D811E9
:1011E80065E0824B8C4893F8DB1160E07F4B8B48BD
:1011F80093F8DC115BE07D4B8948B3F8E221B3F842
:10120800DE1105E0794B8748B3F8E421B3F8E01123
:1012180015F000F94DE0754B9FED837AD3ED7E7A9A
:10122800824867EE877AFDEEE77A17EE901A3EE07D
:101238006E4B7F4893F8D51139E06C4B7D4893F895
:10124800EE1134E0694B7C4893F8ED112FE0674BC1
:101258007A4893F899122AE0644B794893F85A121D
:1012680025E0624B774893F85B1220E05F4B7648A5
:10127800B3F85E121BE05D4B744893F84C1216E00D
:101288005A4B734893F8E31011E0584B714893F8A0
:10129800E2100CE0554B7048B3F8DE1007E0534BF2
:1012A8006E4893F8EB1102E0504B6D48996815F0C1
:1012B800B1F8D8F830300133C8F830304EE0694B17
:1012C8001B6899011BD5684EB6F84030BBB9674B0F
:1012D800D6F84490D3F80080452014F0C1FF0E20C2
:1012E80014F0BEFF484615F075F8404615F072F840
:1012F8004FF48053F3870A232B700AF0EBF90AF0B6
:10130800C3FC2BE0584B93F84820002AF5D0554AE7
:1013180012689201F1D493F84930002BEDD10923DA
:101328002B70ECE7524B1A68636BC833934204D2B4
:101338002E4B93F8AF657EB904E014F0FDFE00284B
:10134800F6D10BE0606A0FF016FB94F84A3066623B
:10135800022B01D111F064FA01232B7014F0D6FE90
:1013680058B101232B70404B93F84920002A00F014
:101378009280002283F849208DE01C4B93F8B02519
:101388001946002A00F087803B68DE044FF000070A
:101398004CBFB1F8DA20B1F8D020364E3B4636F9CA
:1013A80013000133904218BF47F001070C2BF6D108
:1013B8002D4E2F4B2FB11B6803F59C530833F36454
:1013C80003E01A68F36C93425BD92B78012B62D146
:1013D80096F84930002B5ED191F8AF35002B4BD0F1
:1013E80004F03EFB012386F8493054E0183400200D
:1013F800F4EB01080DEC010821EC010836EC0108BA
:101408004CEC010863EC010878EC01088EEC01084B
:101418008AEC01089AEC0108A6EC0108B8EC01086E
:10142800CBEC0108DFEC01080000C842F7EC01082A
:1014380005ED010815ED010826ED010836ED010856
:101448004FED010863ED010880ED01089DED0108ED
:10145800B2ED0108C7ED0108DCED0108EEED010869
:10146800FCED010850230020EC0A0020C83D0020B4
:10147800942A0020583E0020802011F0C9F950B964
:10148800AEE72B78012B06D096F849301BB10AF04D
:10149800CDFC86F84970059B1B78072B05D10FF00A
:1014A80081F9079BC01AB64B5880B64B00221A70B8
:1014B800B54D13A86B689847A946002800F04D81E0
:1014C800B24EBDF94C303360BDF94E30736094F8BC
:1014D8005020BDF95030B3603146304608F02CFA40
:1014E800AB4B1A889B46002A00F0AB80A94BAA4F49
:1014F8001B68DFEDAA8A1B784FF0000808EE103A47
:1015080007F10C05C24607F148014FF47A72D9F881
:101518001430B2FBF3F3C3EB431203EB8203BBF8C3
:1015280000E0DB009BB29E4508BFC7F800A03B68FF
:1015380008BFC5F810A0184656F82830184456F8C1
:101548002830386007EE903A2B690133012B4FEAB7
:101558008802F8EEE77A2B6106D1C5ED017AC5ED70
:10156800007AC5ED028A1BE0D5ED005A07EE103A65
:1015780037EEE56AF8EEC76A86EE267AD5ED026A96
:1015880037EE257A77EEC77A85ED017AE6EE276A97
:1015980085ED007AF0EE667AC5ED036AC5ED026A5C
:1015A800BEF1010F46F802A042F801A034D12B6920
:1015B8000791012BC3BF03F1FF3307EE903A95ED76
:1015C800037A9FED760A0692C4BFF8EEE77A87EEB3
:1015D800270A18F053FD069A079918EE103A4BB1EE
:1015E800F8EEC87AF4EEC07AF1EE10FA02D508F0F7
:1015F80092F926E04FF47A70D9F81430B0FBF3F37F
:10160800C3EB431003EB8003DB0098B23B6803EBAA
:10161800500393FBF0F3535008F10108B8F1030F9E
:1016280007F1040705F114057FF46FAFBBF800005C
:10163800012801D10FF0A6FDBBF80030013BABF843
:101648000030574D002256F8221055F822004F4B13
:10165800091A46F822100132032AF4D1514A524D90
:1016680011789046002966D0DFF81491DFF858A168
:10167800DFF858B11E1F0027059B1B78032B04BFFA
:10168800736829F817309AF80030012B0AD1D6ED83
:10169800017A464B1C20B8EEE70A00FB07300DF034
:1016A800E1F818E073B9D6ED017A414BD4ED3F0A61
:1016B80098F800100C20B8EEE70A00FB07300DF090
:1016C8008BF908E0D6ED017AA420B8EEE70A00FB12
:1016D80007B00DF0A3F8059B85ED000A1B78082BD1
:1016E80005D195ED000A18F0C5F929F81700314B16
:1016F8001B884BB1304B95ED000A1C2000FB0730CE
:101708000DF0B0F885ED000A2C4B1B884BB12C4B23
:1017180095ED000A1C2000FB07300DF0A3F885EDBD
:10172800000AB5EC010A18F0A5F90137032F46F8AD
:10173800040FA1D111E0D3ED007AF8EEE77AC5EDF8
:10174800007AD3ED017AF8EEE77AC5ED017AD3EDA8
:10175800027AF8EEE77AC5ED027A0A4A92F8B833C7
:1017680023B1013B82F8B83300F086BD154B93F8DE
:10177800DC211E4662B393F8EA31013BDBB228E074
:10178800A4150020EC0A0020341500203C2E00206F
:10179800321500207C140020400B002000000000BF
:1017A800880B002080140020B42B0020940B00200C
:1017B800EC0B002082140020FC0D00208414002073
:1017C800500E00201834002086140020100C002031
:1017D800012384F8B8330EF0E5FFB74BB74DD3F8C3
:1017E8000080B74BB6F83612A3F1520207462868B4
:1017F800C047059B1B78072B04D10EF0D3FFB14BD4
:10180800C01B98800EF0CEFF059B069093F800A0B1
:10181800BAF1010F0AD1AC49D4F8BC33A94A096816
:10182800C4F8BC03C31A93805B1AD380A74B2A68F9
:101838001B68EBB192F83320CAB1A54A1268940725
:1018480018D5A44A1178012914D9DB78A24859433C
:101858000088CB1A98420AB203DB88420346A8BF25
:101868000B461BB2120392FBF3F2012305E0134669
:101878001A4602E001234FF480529849C9780D9125
:101888002BB1BDF9541051430913ADF854109449C4
:10189800944E91F800809449DFF82892B1F902003B
:1018A8000890B1F9000009909048B1F90410D0F8F7
:1018B80000C0059100252946284640453DD29CF99F
:1018C8000040059FD6ED016A96ED026A64427C43AA
:1018D80007EE904AB8EEE77ADDED097AF8EEE77A96
:1018E8000DF1540E67EEA67ADDED086AF8EEE66AA9
:1018F800E6EE867AD6ED036AE7EE267AFDEEE77A1B
:10190800CDED077ABDF91C400BB1544324132EF8D2
:10191800104015AC34F910408C4203DCA542A8BF36
:10192800254600E02146BAF1050F03D1042898BFE7
:1019380029F8104001301036BFE7654B6C4C186829
:10194800491B10F4805209B240D06A4B6A4D1B788B
:10195800DFF8ACE1694F13F0040F01BF2B681E8A52
:10196800674BA3F88064B4F90660664C2B6824685A
:101978001B8AE588C5EB030C664508DCB4F9003022
:101988003C68AEF88064B4F9004035440AE02B4462
:101998009E4209DB3B68B4F90240B3F90230AEF865
:1019A8008064751B2DB219E0BEF980349C45ABBF2D
:1019B800B4F900303B683C68B4F90240ABBFB4F9F5
:1019C8000040B3F902301D46254607E04B4BB4F9F9
:1019D80006501B68B3F90040B3F90230484E9BB279
:1019E800A4B2C4EB030A0FFA8AFA51451ADD4FEA8A
:1019F8000A33002793FBF1F1C6F88414B8450AD9D5
:101A080015AB33F917E001FB0EFE4FEA2E3E23F823
:101A180017E00137F2E702239AFBF3F31C4424B2E0
:101A28000A9407E0022791FBF7F15B1A0C441BB2FA
:101A380024B20A93B6F98034304E0C9337682D4E91
:101A48002D4B36782F49DFF8C0E01B680968DFF8AE
:101A5800BC9006F00406F6B2079600F01000BEF936
:101A680006600B964FF0000B0E90D84540F286802A
:101A780015A807EE905A30F81BC01A4800EB0B1057
:101A880090ED007AF8EEE77AA64667EE877AFDEEE3
:101A9800E77A17EE900AA04204DB0A9E8642A8BFA6
:101AA8000646B6460CEB0E000D9E00B229F8020F52
:101AB80076B3B7F804E03FE0B400002058160020E1
:101AC8005C360020A41500204C2E00207C15002038
:101AD80014230020F8040020CC1500202023002027
:101AE8004B2E0020AC0E0020CC300020A414002087
:101AF800282E002054230020A8140020F82C0020B1
:101B0800EC0A0020F42C0020C83A00200E2C0020FB
:101B180082B1B3F810E0B1F806C00C9ECCEB0E0E03
:101B2800764504DCB7F800E0B1F800C006E0B1F88B
:101B380002E001E0B7F800E0B7F802C0704503DB47
:101B48008445E646A8BF86460E98A9F800E090B1FD
:101B5800079880B17AB9119210910F930FF0ECFAAF
:101B68000F9B1099119A30B9588A0B9E8642BCBFB8
:101B7800B888A9F800000BF1010B76E73C894CB353
:101B8800A0494FF47A700968B0FBF1F1B4FBF1F1A8
:101B9800012905D942F210708142A8BF014600E030
:101BA800022109B28A4515DD974D98483C8835F9D8
:101BB80018E000EB4807A645B7F9887403DB7C18E2
:101BC8007445A8BF744624B200EB480025F81840B5
:101BD800A0F88844079919B90E468D488A4906E045
:101BE8008A4991F8A004192800F2478107E0B04516
:101BF800F6D930F8164021F816400136F7E70121EA
:101C080001FA00F083490140002900F03681824939
:101C18000988C80508D5814B1A88ADF86C205A8800
:101C2800ADF86E209B8812E0BDF82410ADF86C105A
:101C3800BDF82010ADF86E10BDF81410ADF8701096
:101C48003AB11B8A0B9A9A4203DA059B5B42ADF8BC
:101C580070307348B0F902304FF47A7203F5E163DB
:101C68004FF46161534393FBF1F3A3F5FA73ADF8B5
:101C78008430B0F9003003F5E1635A43624B92FBBC
:101C8800F1F21B88A3F2DC53ADF87230654BA2F574
:101C9800FA72ADF886201B68634A1B8A1188C91A34
:101CA800ADF874105188C91AADF876109188C91A20
:101CB800ADF87810D188C91AADF87A101189C91A07
:101CC800ADF87C105189C91AADF87E109189D28976
:101CD800C91AD31AADF88230544AADF880100023DF
:101CE800194622F813100133082BFAD1504A514BE8
:101CF80012680592504A1B781268504907920722C9
:101D080002FB03134E4DDFF824A10A934FF0640839
:101D18004FF001090A9B8B4200F094800B782BB19D
:101D28001533059A09FA03F3134067D011F806EC46
:101D3800079B11F9010C11F805CCCEEBCE0703EB8C
:101D480047074FEA4C06B7F90230B7F90020099067
:101D58009A1A92B211F9023C11F8030C4FEA520B8D
:101D6800534393FBF8F3CBEB03031BB2089328B957
:101D780022A8064436F81C0C288019E022AB1E4421
:101D8800B5F9004036F91C6CB44208DA20448442A4
:101D980003DC86423446A8BF04462C8008E007DDF1
:101DA800201AB04203DB8442A8BF044626462E8090
:101DB800D7F80A0011F9046C089B09FA0CFC10EA20
:101DC8000C0FB5F900000CBF01244FF0FF3416FBCF
:101DD80000F090FBF8F0984209DB099B534393FB12
:101DE800F8F3CBEB03031BB28342A8BF03463AF8D0
:101DF8001EB004FB03B32AF81E3000E02B80023526
:101E0800073187E74C2E0020102C0020EC0A002018
:101E1800583E0020324130034C230020282E002059
:101E2800342E0020A8140020C83A0020B410002046
:101E380050230020FC2C0020742D0020032D0020AE
:101E48008E0F0020AD4BAE4ED3F8008000254FF02A
:101E58000E09642709FB0583E8B293F9064036F9B1
:101E6800023F14FB03F494FBF7F434800EF02CFBD0
:101E780001352044082D3080ECD1A24C9F4D2368B9
:101E880013F0200F33D000200EF01EFB9E4E0746A5
:101E9800308001200EF018FB9C4B70801B681906DF
:101EA80025D59B4B9B4A1B681B78012B24D1D5F861
:101EB8000080B2F9021098F90630B2F900205B42AE
:101EC8004B434FF0320C93FBFCF31FFA83FE98F957
:101ED80014306FF0310113FB02F393FBF1F17144FD
:101EE800791A93FBFCF373443180184470802B6893
:101EF800834A03F170061AE0D5F800E0B2F902301F
:101F08009EF9061011FB03F1322391FBF3F13944DA
:101F180031809EF91470B2F9001017FB01F292FBA0
:101F2800F3F21044E2E70E339E4211800CD032F9EE
:101F3800020FB3F90010B3F902708842F3DB87424D
:101F48003946A8BF0146EEE7734B744E1A6892F9FA
:101F580004209A46A2B996F8A0747B1E182B00F2AA
:101F68009980DFE803F05497977097979769979748
:101F78009797977B9797979797708997977B540030
:101F8800DFF884B10023A6F8C234B046D946B6F9C2
:101F9800C274072FDFDC98F8C424614B92B9DAF8D1
:101FA80000200593528800EE102A5E4A1C20116812
:101FB80000FB0730B8EE400A0CF0DEFC0122059B5E
:101FC80088F8C4243BF9172000EE102A1C2000FBD7
:101FD8000730B8EEC00A0CF045FC17F04BFD2A6834
:101FE80000B2C7EBC7032BF8170002EB4303B3F9A2
:101FF8000020B3F90230904203DB8342A8BF0346B6
:102008001A4629F817200137A6F8C274BFE7DAF88C
:1020180000305B781BB13C4B0020598908E0424BEB
:102028001B7803F0040303F0FF01002BF3D10846EB
:102038000FF082FA01252EE0334D0020E9880FF0D9
:102048007BFA298905E0304D002029890FF074FAC0
:10205800698901200FF070FA02251CE0DFF8A880DA
:102068000225A81E38F81510C0B201350FF064FA21
:10207800082DF6D106250EE0DFF88C800325E81E32
:1020880038F81510C0B201350FF056FA072DF6D101
:10209800042500E0002523689A0601D4052F0BD1FA
:1020A800194F284639880FF047FA681C7988C0B25A
:1020B8000FF042FA0235EDB22368DB0205D496F838
:1020C800A83573B10EF056F90BE0184F0024281903
:1020D80037F8021FC0B20FF02FFA0D2CEFD00134E1
:1020E800F5E7134B1B78072B05D10EF05BFB069B1E
:1020F800C01A104BD88001233370BDE0742D002026
:10210800B210002014230020B41000205023002017
:10211800A0140020342E0020A4140020EC0A002073
:10212800B40F00204C2E002054230020CE3A00206B
:10213800A2150020A4150020524A128850063EF528
:10214800EFAADFF85C81504F98F81E209A4215D00C
:1021580007EE903A9FED4D8A88F81E30F8EEE77A40
:1021680027EE888AB0EE480A0CF050FB87ED000A8B
:10217800B0EE480A0CF0E9FA88ED080AB5F9003023
:10218800D4ED085A97ED006A414A07EE903AB5F93E
:10219800043006EE903AF8EEE66AF8EEE77A25EEB5
:1021A800E67AA7EE867A67EEA57ABDEEC77AE6EEFE
:1021B800267A17EE103AB3F5FA7FA8BF4FF4FA73F0
:1021C8009342FDEEE77AB8BF13462B8017EE903A9C
:1021D800B3F5FA7FA8BF4FF4FA739342B8BF13461A
:1021E800AB80FEF79DBA06EE901AF8EEE66AB5EEF9
:1021F800C07A86EE856AF1EE10FAD8BFB1EE477A5A
:10220800F0EE656AE6EE476AF4EEC36AF1EE10FA9C
:10221800B0EE667A07D4F4EE656AF1EE10FAC8BF3C
:10222800B0EE657A01E09FED1B7AC2EE876A67EE31
:10223800A67AFEF7DFBA9FED187AF4EEC77AF1EEC8
:1022480010FA0AD49FED157AF4EEC77AF1EE10FA77
:10225800C8BFF0EE477AFEF7EFBAF0EE477AFEF71E
:10226800EBBA13F069FF00283FF478A84FF48053C5
:10227800E3870A23FFF771B823B0BDEC048BBDE8F0
:10228800F08F00BF4C2300200000002035FA8E3C60
:102298000CFEFFFF0AD7233C00C0F9C400C0F94474
:1022A800EC0A00202DE9F04F914BADB01D7800935A
:1022B800002D00F0A7808F4B1868002802F07D8061
:1022C80005F02CFADFF85C92DFF85C82D9F80000A0
:1022D8000AF078F8002802F07080D9F80000864CDF
:1022E8000AF06DF8092801D03F2855D14FF0000AAF
:1022F8002668574655460AEB080B36B132465AF857
:1023080008107E4819F034FD20B90DB15F4601E090
:102318005D465F460AF1100ABAF5147FEBD1F5B1B4
:10232800D5F800A0D7F800B0DFF8D0C123681AF8B4
:1023380003001BF80310814211D15A1CDFF8BCE1DD
:1023480049B92D2B07D86C48026020200EF80300ED
:102358000EF8021003E00CF803002260E6E7236899
:102368000BB1BD420FD0664813F0A8FABD4207D89A
:1023780055F8100B13F0A2FA092013F001F9F5E74C
:102388000BF0B2FA00265D4D23689E429ED2A85DEE
:1023980013F0F6F80136F7E723686BB9042804D17F
:1023A800564813F069FB02F008B80C2842F0018087
:1023B800544813F083FA22E00C28F9D00A2841F097
:1023C800AC874E4E504813F079FA2321304619F065
:1023D800C0FC354608B1801B206023680022002B12
:1023E80041F09F87002A41F0B787302200214348F7
:1023F80019F07AFC009B1B78002B01F0DE870BF0AC
:1024080073FA63E7414B03F13007414BEA18EB5885
:10241800002B01F00A813F493F4C0B6005930023D4
:1024280022608DF819303D4A3D48049214238DF8F6
:10243800183004AB0360264689469246D9F8000056
:10244800DFF8D08009F0BEFF002801F0DA80D8F864
:10245800000009F0B4FF336893F84810834619B9AF
:10246800242863D101221DE0012903D14D2808BF8A
:10247800022204E0022907D13C2808BF032218BF22
:10248800002283F8482085E003290ED140284FF028
:10249800000102D983F84810D0E758711971D97131
:1024A8009871042283F84820C8E7042907D199794C
:1024B80083F8490080EA01029A710522F2E70529AA
:1024C80068D1587919798842987908D98BEA000037
:1024D8009871481C18710B4483F808B0AEE758454A
:1024E80003D1062283F848205AE00022DAE700BF29
:1024F800A43E0020543E0020A03E0020703E002054
:102508000DEF010812EF010857F6010860C2010833
:10251800203A00207C23002074230020D9C300081F
:1025280078230020403E002024E60108DB490B7890
:1025380003F0040303F0FF0E002B7FF47FAF232882
:102548001DD1009AD8F80000019101231370D44BD3
:102558001860D44B1860D44B586010201872D348B8
:10256800C3F800A0036083F809E0D14813F0A6F986
:102578000BF0BAF901990B7843F002030B70CD4BBD
:102588001B681B785B4505D1CB4BCC4A1A60CC4BFA
:10259800CC4ADA60336893F84820062A7FF44EAFB5
:1025A80093F84980B8F15A0F00F0A38700F2FC8035
:1025B800B8F1360F00F0AC8674D8B8F1240F00F0EB
:1025C800DE852DD8B8F1040F00F0728215D8B8F165
:1025D800020F00F0528200F25F82B8F1010F40F062
:1025E800F08703200AF08CFE00200AF044FE4046E3
:1025F8000AF041FE152000F0E1BFB8F10A0F00F023
:102608009282B8F1220F00F03084B8F1050F40F043
:10261800D8871A200AF074FE0026DFF8BC8255E23B
:10262800B8F12C0F00F0D9851BD8B8F1280F00F0AD
:10263800BB85B8F12A0F00F0CA85B8F1260F40F023
:10264800C087A14E06200AF05BFEB6F8C8010AF062
:102658005AFEB6F8CC010AF056FEB6F8D00100F0E2
:102668009CBFB8F1300F00F07F860BD8B8F12E0F61
:1026780040F0A787944E40200AF042FE06F1400839
:1026880000F062BEB8F1320F00F01086B8F1340FD6
:1026980040F097878C4E5A200AF032FE06F15A080D
:1026A80000F004BCB8F1460F00F09F862AD8B8F1B4
:1026B8003D0F00F0718311D8B8F13A0F00F0108384
:1026C800B8F13B0F00F0CA83B8F1380F40F07987B2
:1026D80004200AF015FE7C4E00F057BDB8F1420FF9
:1026E80000F0F585B8F1450F00F0CD86B8F1400F40
:1026F80040F0678708200AF003FE0026DFF8C8814B
:1027080000F0DBBDB8F14D0F00F0AD852BD8B8F166
:10271800490F00F04D83B8F14B0F00F08985B8F1EF
:10272800470F40F04E870AF09DFD064684200AF0C8
:10273800E7FD30460AF0F0FD644BDA6806F18003E5
:1027480093428CBFC6EB02094FF080090DF13008A7
:1027580003F082FC4A463046414603F0BBFC0026A3
:10276800814600F056BEB8F1500F00F0758611D8BA
:10277800B8F14F0F40F025870B200AF0C1FD00206B
:102788000AF079FD00200AF076FD00200AF073FDBA
:1027980000F086BEB8F1520F00F07086B8F1540F01
:1027A80000F06C8600F00DBFB8F1720F00F0E783FF
:1027B80000F2C380B8F1680F00F05D8200F29080EB
:1027C800B8F1640F00F09F8139D8B8F15E0F00F0BE
:1027D800AF86B8F1600F00F0E386B8F15C0F40F007
:1027E800F086394EDFF8F48011200AF089FD96F85A
:1027F800DC010AF040FDD8F80030188C0AF083FD9F
:10280800D8F80030588C0AF07EFDB6F8DE010AF0E0
:102818007AFDB6F8E0010AF076FDD8F80030988C19
:102828000AF071FDD8F80030D88C0AF06CFDB6F8C3
:10283800E2010AF068FDB6F8E40100F0AEBEB8F1B6
:10284800660F00F0828100F2AC810B200AF058FD7F
:102858001F4B18880AF057FD00200AF054FD1D4B45
:102868001B68C3F3C000C3F38002800040EA420043
:10287800C3F340021043C3F3401240EAC20003F01E
:10288800100318430AF03FFD0AF022FC0AF044FD49
:102898000D4B93F8020500F091BE00BF54230020B1
:1028A800403E0020C423002098100020543E002001
:1028B8003DEF0108EC390020FC9F0020EFBEADDEA3
:1028C80000ED00E00400FA0518340020C8030020D9
:1028D800342100202421002030E901085816002066
:1028E800B8F16C0F00F0E18112D8B8F16A0F00F06E
:1028F800888300F2A583DFF82084DFF8209498F815
:102908000000400000F0FE000AF0FAFC0026C1E1D9
:10291800B8F16E0F00F01A82C0F0D781B8F16F0FCE
:1029280000F04C82B8F1700F40F04B861E200AF080
:10293800E7FC0026DFF8E88372E2B8F17D0F00F0CB
:10294800B68529D8B8F1760F00F08B830AD8B8F18C
:10295800740F00F08D8040F249832F200AF0D0FCDC
:10296800E14E73E2B8F1780F00F02A81C0F0E782F7
:10297800B8F17C0F40F02586DC4E06200AF0C0FC3A
:10298800B6F8D6000AF0BFFCB6F8D8000AF0BBFCCF
:10299800B6F8DA0000F001BEB8F1A00F00F0E1834C
:1029A8003DD8B8F17F0F00F0EC84C0F09385B8F102
:1029B800960F40F006860F200AF0A2FCCC4B188830
:1029C8000AF0A1FC00200AF09EFCCA4B1B68C3F366
:1029D800C000C3F38002800040EA4200C3F3400213
:1029E8001043C3F3401240EAC20003F01003184337
:1029F8000AF089FC0AF06CFB0AF08EFCBB4B93F8DA
:102A080002050AF038FCBC4B18886428A8BF64206B
:102A18000AF079FC03200AF02EFCB84B23E2B8F147
:102A2800F00F00F0938314D8B8F1A40F40F0C985D3
:102A3800DFF8F08298F82F0080000130C0B20AF069
:102A48005FFC98F82F000AF016FC002608F1300AFF
:102A580058E3B8F1F10F00F0E780B8F1FE0F40F04D
:102A6800B08508200AF04CFC0026DFF8BC8265E33C
:102A78004FF000094FF0010B3EE204200AF040FC41
:102A8800DFF8A882002618F8060001360AF0F3FBE2
:102A9800042EF8D100F0AFBD03200AF031FC03206A
:102AA8000AF0E9FB00200AF0E6FB012000F086BDF1
:102AB80006200AF025FCDFF87882002618F80600C0
:102AC80001360AF0D8FB042EF8D167E018F80600A2
:102AD80001360AF0D0FB0B2EF8D1DFF85882002619
:102AE80018F8060001360AF0C6FB082EF8D1DFF800
:102AF8004882002618F8060001360AF0BCFB072EAB
:102B0800F8D100F078BD07200AF0FAFBE7200AF0B8
:102B1800B2FB764B58790AF0AEFB00200AF0ABFB0B
:102B2800042000F0C1BC7648DFF8108213F06EFD77
:102B3800C6B230460AF0E4FB4644B04500F05B8577
:102B480018F8010F0AF097FBF7E712200AF0D8FBF4
:102B58006C4BDFF8EC911B89B3F5007F94BF4FF005
:102B680001084FF00408002659F8260090FBF8F0F9
:102B7800013680B20AF0C7FB032EF5D1624E3088C9
:102B88000AF0C1FBB0880AF0BEFB30890AF0BBFB33
:102B980000200AF0B8FB00200AF0B5FB002000F086
:102BA800FCBC10200AF0ACFBDFF89881002618F86E
:102BB800060001360AF05FFB102EF8D100F01BBDAD
:102BC80070204A4E0AF09CFB4FF0000AB0464FF0C6
:102BD8000E09B6F854010AF096FBB6F856010AF049
:102BE80092FBB6F858010AF08EFB96F85A010AF0E3
:102BF80042FB96F85B010AF03EFB96F85C010AF08E
:102C08003AFB96F85D010AF036FB09FB0A830AF1E4
:102C1800010AD3F85E010AF07FFBBAF1080F06F14A
:102C28000E06D6D100F0E7BC7020304E0AF068FBE3
:102C380006F1700896F8E4000AF01DFB96F8E50026
:102C48000AF019FB96F8E6000AF015FB96F8E7007B
:102C58000AF011FB96F8E8000AF00DFB96F8E90077
:102C68000AF009FB073696F8E3000AF004FBB045C2
:102C7800E0D100F0C0BC10200AF042FBDFF8C880A9
:102C8800002618F8060001360AF0F5FA102EF8D1D9
:102C980000F0B1BC98F800309E4280F0AC8439F85E
:102CA80016000AF030FB0136F4E7184E06200AF049
:102CB80027FB30880AF027FB70880AF024FBB6F956
:102CC80004300A2093FBF0F060E006200AF018FBBD
:102CD8000F4B18680AF020FB0E4B188800F05DBCFB
:102CE80004200AF00DFBDEE35FC20108183400205F
:102CF8003421002024210020E81400200C23002087
:102D0800D6390020282100203C2E0020342E002017
:102D18002814002054130020183B0020C83A002033
:102D28005816002098100020A415002075EF0108FF
:102D3800ECE8010827E90108F1E80108D539002085
:102D480048130020B4100020102C002007200AF09F
:102D5800D7FAC94B1888FF28A8BFFF20C0B20AF0CD
:102D68008AFAC64B186880F3100080B20AF0CBFAD2
:102D7800C34B18880AF0C7FAC24B93F82322C24BF8
:102D8800186832B10A23584380F3100080B200F06B
:102D980004BC00F30F00F9E7BA4E02200AF0B0FABB
:102DA80096F89B020AF067FA96F89A0200F006BCB9
:102DB80002200AF0A5FAB54B988AEEE3B44E0C202F
:102DC8000AF09EFA336818780AF055FA336898784A
:102DD8000AF051FA4FF00009B046D8F80030AC4E6E
:102DE8004B4409F1010958790AF045FAB9F1030F82
:102DF800F3D13368187A0AF03EFA3368D8780AF0C3
:102E08003AFA336818790AF036FA336858890AF0BA
:102E18007AFA3368587A0AF02EFA33685878CDE38C
:102E2800D8F80030334458780AF025FAD8F800303A
:102E38003344D87A0AF01FFAD8F800303344013600
:102E4800587D0AF018FA0A2EEAD1D4E316F8010FD1
:102E5800002800F0D0830AF00EFAF7E701200AF004
:102E68004FFA8C4B1B681878A8E35020854E0AF05F
:102E780047FA06F150084FF00C09874A96F80335CF
:102E880009FB0323043693F838000AF0F4F996F89E
:102E980000050AF0F0F996F801050AF0ECF996F841
:102EA80002050AF0E8F9B045E7D1A4E396F8580519
:102EB8000AF0E1F996F853050AF0DDF996F8540599
:102EC8000AF0D9F996F855050AF0D5F996F8560595
:102ED8000AF0D1F9063696F851050AF0CCF94645BC
:102EE800E4D188E3BBF1000F00F085835FFA89F035
:102EF8000AF006FA4FF0000B0026684B1B789E423A
:102F0800F0DA674BF05C00214FF00C0E0EFB01F37A
:102F180013F807C0844503D001311F29F6D10CE00E
:102F28005D4A1344D3F834A0504613F06FFB0146B2
:102F3800BBF1000F00F07F8389440136DDE7DFF83D
:102F48005C81DFF85CA198F80000DFF84C910AF08A
:102F5800D7F9002698F800309E4280F04C8316F886
:102F68000A1000220C2000FB02F313F807E08E453C
:102F780000F06E8301321F2AF5D10136EAE7414E8F
:102F880016200AF0BDF9B6F854020AF0BCF9B6F8F2
:102F9800CC000AF0B8F9B6F8CE000AF0B4F9B6F8E1
:102FA800D0000AF0B0F9B6F8AC020AF0ACF996F81D
:102FB800A5020AF060F900200AF05DF996F8A60269
:102FC8000AF059F996F823020AF055F996F85002D2
:102FD8000AF051F900200AF04EF9B6F9F0310A204A
:102FE80093FBF0F080B20AF08EF9CEE008200AF0E8
:102FF80087F90126F0B201360AF03DF9092EF9D118
:10300800F9E210200AF07CF9264B274E187800F0D8
:1030180002000AF030F9254B18780AF02CF93068CC
:103028000AF07AF970680AF077F9214B18880AF0E3
:103038006AF9204B18880AF066F91F4B988DACE2A4
:1030480005200AF05DF91D4B18880AF05CF91C4B45
:1030580018880AF058F9184B93F82E0000F0010070
:10306800ACE20AF0E9F8814612200AF049F9B9F110
:10307800000F29D1134B2BE0CC1500208015002020
:103088007424002018340020641300203415002014
:10309800401400205816002060C201085523002063
:1030A8005623002068130020701300206E130020A0
:1030B8006C1300206A13002098100020E0130020F1
:1030C800E21300202C140020B9F1100F04D1D54BC5
:1030D800D3F800805E6801E00026B04648460AF052
:1030E800CAF840460AF018F930460AF015F9CE4BEE
:1030F80018680AF011F900200AF005F900200AF012
:1031080002F9BEE198F82F309E4280F07482DFF811
:103118003C931AF806000AF0AEF819F806000AF00F
:10312800AAF809F1100309F12009985D0AF0A3F83B
:1031380019F806000AF09FF80136E3E738F8160098
:1031480001360AF0E0F8042EF8D154E2B74E042014
:103158000AF0D6F8B6F8F4010AF0D5F8B6F8F20194
:103168001BE20C200AF0CCF8B14B18680AF0D4F82E
:10317800B04B18680AF0D0F8AF4B186894E10420F7
:103188000AF0BEF8A94B98688EE196F816020AF084
:1031980072F896F81A020AF06EF896F819020AF010
:1031A8006AF896F81B0209E2A04E07200AF0A8F870
:1031B800B6F81E020AF0A7F8B6F820020AF0A3F83B
:1031C80096F822020AF057F8B6F82402E5E1012041
:1031D8000AF096F8954B5879F0E1944E10200AF0D1
:1031E8008FF896F84C020AF046F8B6F858020AF03A
:1031F8008AF8B6F854020AF086F8B6F856020AF0C9
:1032080082F896F84E020AF036F8B6F860020AF02C
:103218007AF8B6F862020AF076F896F85A020AF0D6
:103228002AF896F85B020AF026F8B6F85E02B4E1CE
:103238007E4E08200AF064F896F8AA020AF01BF8F5
:1032480096F8AB020AF017F8B6F8AC020AF05BF889
:1032580096F8AE020AF00FF8B6F8B0020AF053F882
:1032680096F8B202AAE1754EDFF8E481307800EBF7
:103278004000C0B20AF044F84FF00009337899458D
:1032880008F1020880F0B78118F8020C09F0F3FF82
:1032980018F8010C00EB800000EB800000F2EE2033
:1032A80080B20AF030F809F10109E7E701200AF0D5
:1032B80027F85E4B93F8500280E106EB08030136CD
:1032C80093F8440209F0D7FF082EF6D193E1574E40
:1032D80010200AF015F8707909F0CDFFB0680AF0EF
:1032E8001BF896F84C0209F0C6FFB6F8C8010AF0B8
:1032F8000AF8B6F8CC010AF006F8B6F8D0010AF0D8
:1033080002F8B6F81E0209F0FEFFB6F8200244E102
:103318004B4B464E93F87000DFF83891C0EBC00075
:10332800C0B209F0EDFF06F1200896F9B6020023B5
:1033380013F90920824200F091810C33302BF7D128
:103348000836B045F1D156E1B6F86C0309F0DBFF59
:1033580096F86E0309F08FFF043696F86B0309F0B0
:103368008AFFB045F0D146E18020364E09F0C8FF0B
:1033780006F1800856F8040F09F0CEFF4645F9D14A
:1033880039E18D2009F0BCFF00264FF0060A0AFB40
:1033980006F94FF0000B5FFA86F8404609F06BFF1C
:1033A8005FFA8BF009F067FF204B0BEB090119441A
:1033B8000BF1010B91F8AC0309F05DFFBBF1060FAF
:1033C800EBD10136062EE2D10026062009F053FF84
:1033D800F0B209F050FF154B3344013693F8D0038F
:1033E80009F049FF0B2EF0D105E10D2009F088FF07
:1033F80002F050FD144E40F00200C0B209F03BFF4D
:10340800308809F089FFF06809F086FF02F022FD94
:103418004AE04E4580F2EF8018F8060009F02BFFCD
:103428000136F6E78C120020003E002018340020F8
:10343800ACF7FF1FB0F7FF1FB4F7FF1F183B0020C2
:103448009810002000370020C8030020D810002062
:103458007C360020F0390020C84E042009F050FFC7
:10346800012009F008FF96F8AF0509F004FF96F867
:10347800AD0509F000FF96F8AE059FE0012009F0C0
:103488003FFF00209AE0132009F03AFFDFF80C8391
:10349800002618F80600013609F0EDFE0B2EF8D1CB
:1034A800002009F039FF002009F036FFA3E0B34EF1
:1034B800052009F025FF96F8260209F0DCFE96F8AB
:1034C800270209F0D8FE96F8280209F0D4FEB6F8CB
:1034D800DC0062E0A94E032009F012FF96F8C5014E
:1034E80009F0C9FE96F8C60109F0C5FE96F8C701AD
:1034F80064E0A24E062009F003FFB6F8D83123B1E4
:10350800082009F0B8FE012005E096F8DA0109F074
:10351800B2FE96F8EA0109F0AEFE96F8E30009F06B
:10352800AAFE96F8E20009F0A6FEB6F8DE0034E03E
:10353800934E112009F0E4FE3368588D09F0E3FE3C
:103548003368988D09F0DFFE3368D88D09F0DBFE0B
:10355800336893F8280009F08EFE336893F8330037
:1035680009F089FE336893F8360009F084FE336861
:1035780093F8370009F07FFE002009F07CFE002058
:1035880009F079FE336893F8350009F074FE336862
:10359800588F09F0B8FE3368188F09F0B4FE2AE096
:1035A800764E032009F0ACFE96F8D50109F063FECB
:1035B80096F8EE0109F05FFE96F8ED0109F05BFE62
:1035C80019E0B8F15D0F61D040F29880B8F1D20FE0
:1035D80040F0148309F030FE020600F10783694BBE
:1035E8001B785B0704D4032828BF002004F066FB7F
:1035F800002009F085FE09F04FFE2368002283F8B9
:103608004820614B614C186804F088F894F87130D0
:103618005BB15F4B58590DF0A3F90DF0EAF80023A0
:1036280084F871305B4B5C4ADA604C35982D7EF437
:10363800ECAE00F0C2BED046CAEB08008842BFF626
:103648007CAC18F8010B019109F015FE0199F3E71C
:103658004B4493F8380009F00EFE8EE4C0B209F02E
:103668000AFEB6F8B80209F04EFE96F8BA0209F05A
:1036780002FE96F8BB0209F0FEFD96F8BD0209F0BD
:10368800FAFD96F8BC0209F0F6FD59E609F0D4FDFA
:10369800DFF8EC80394ED8F8009086F8DC0109F0A4
:1036A800D7FDA9F82000D8F8009009F0D1FD2368CB
:1036B800A9F822005B79052B13D909F0C9FDA6F8F2
:1036C800DE0109F0C5FDD8F80090A6F8E00109F080
:1036D800BFFDA9F82400D8F8008009F0B9FDA8F8C2
:1036E800260023685B790D2B82D9B6F8E20109F030
:1036F8000AFEB6F8E40109F006FE79E7B8F1370FDB
:1037080033D15B794FF00708B3FBF8F8C8EBC80270
:103718009B1A13F0FF0F02D00CF004F968E75FFA68
:1037280088F808F1FF385FFA88F8B8F1FF0F3FF41E
:103738005FAF09F081FD4FFA80F948460DF02EFA87
:1037480006460028E8D080F8009009F081FD7080D6
:1037580009F072FD307109F06FFD707109F06CFDB0
:10376800F07109F069FDB071DBE700F24F81B8F143
:103778002B0F3CD109F060FD004B36E018340020D7
:103788005816002054230020782300209810002089
:10379800203A002000ED00E00400FA0530E90108B5
:1037A800B8F14E0F71D109F047FD11280646B3D87C
:1037B800DFF8888309F040FD06F5987608EB4603A4
:1037C800187109F045FD40F2ED239842424640F356
:1037D8000A8240F6CA039842A8BF184602EB46037D
:1037E800A0F2EE20192290FBF2F0587100E775D88C
:1037F800B8F1250F08D1D14E0023B36009F032FD8E
:10380800B3681843B060F3E642D8B8F10B0F19D18A
:1038180011220021CA48DFF8249318F065FA4FF006
:10382800000833685B79102B28BF10239845BFF434
:10383800DFAE09F001FD08EB090308F1010883F880
:10384800BE05EEE7B8F1230F1FD109F0F5FC1328E8
:1038580006463FF661AF09F0EFFC00220C2101FBA0
:1038680002F307EB030E9EF808E0864500F030856A
:1038780001321F2AF3D14FE7B8F1FA0F40F0FA846A
:10388800B04B1B785A0740F167830CF04BF8B2E64F
:10389800B8F1270F0DD109F0DBFCA84EC6F8C80116
:1038A80009F0D6FCC6F8CC0109F0D2FCC6F8D00164
:1038B8009EE6B8F1290FE8D109F0CAFC9F4EA6F898
:1038C8001E0209F0C5FCA6F8200209F0B5FC86F82E
:1038D800220209F0BDFCA6F8240289E6B8F1310FEE
:1038E80014D109F0A9FC1F2806463FF615AF236836
:1038F8005B79052B7FF410AF09F0B4FC8F4B03EB19
:103908008603C3F8EC0210F0B1FE71E64BD8B8F1AB
:103918002D0F32D109F090FC884E86F84C0209F040
:1039280097FCA6F8580209F093FCA6F8540209F08F
:103938008FFCA6F8560209F07FFC236886F84E0231
:103948005B79082B07D909F083FCA6F8600209F017
:103958007FFCA6F8620223685B790C2B7FF648AEE1
:1039680009F06AFC86F85A0209F066FC86F85B02E0
:1039780009F06EFCA6F85E023AE6B8F12F0F84D182
:103988006E4E06F1400809F063FCA6F86C0309F0D6
:1039980053FC86F86E0309F04FFC043686F86B0377
:1039A8004645F0D124E6B8F1330F05D109F044FCBF
:1039B800624B83F850021BE6B8F1350F7FF465AF10
:1039C80009F03AFC0E2880463FF6A6AE09F034FC12
:1039D80003283FF6A1AE594B062606FB083686F8A3
:1039E800580509F029FC86F8530509F025FC86F8E6
:1039F800540509F021FC86F8550509F01DFC86F8E8
:103A0800560509F019FC86F85705F1E5B8F1440F99
:103A180004D14D4B012283F87120E9E571D8B8F142
:103A28003E0F09D109F008FC444E86F89B0209F0C4
:103A380003FC86F89A02DBE52BD8B8F1390F11D1CF
:103A480009F0FAFB3D4E86F8160209F0F5FB86F8F8
:103A58001A0209F0F1FB86F8190209F0EDFB86F865
:103A68001B02C5E5B8F13C0F7FF40FAF374ED6F80F
:103A7800008009F0E1FB0128A8BF012088F80000B8
:103A880033681B78012B324B14BF324A324A1A6012
:103A9800AEE5B8F1410F0CD1DFF8A080002609F09F
:103AA800CBFB06EB08030136082E83F84402F6D157
:103AB8009EE5B8F1430F7FF4E8AE204E09F0BCFB59
:103AC8000023B360707109F0CDFBB3681843B06090
:103AD80009F0B2FB86F84C0209F0BAFBC6F8C80137
:103AE80009F0B6FBC6F8CC0109F0B2FBC6F8D00164
:103AF80009F0AEFBA6F81E0209F0AAFBA6F8200200
:103B080076E5B8F14C0F29D109F096FB0B4E86F8F3
:103B1800AA0209F091FB86F8AB0209F099FBA6F816
:103B2800AC0209F089FB86F8AE0209F091FBA6F811
:103B3800B00209F081FB86F8B20259E5183400207A
:103B4800D639002054230020981000205816002051
:103B5800B4000020090D01082DFD000813D8B8F1A4
:103B6800480F09D102F0E4FAB94A00231370B94AA0
:103B78001370B94A13603BE5B8F14A0F7FF485AE7C
:103B880009F066FB34E5B8F1510F12D1B34B1B783D
:103B9800012B3FF62DAD09F04FFBB14E86F8AF056E
:103BA80009F04AFB86F8AD0509F046FB86F8AE0534
:103BB8001EE5B8F15B0F7FF4F3AD09F03DFBA84EAD
:103BC80086F8DA0109F038FB86F8EA0109F034FBD7
:103BD80086F8E30009F030FB86F8E20009F038FBCC
:103BE800A6F8DE0004E540F2EE20F7E500F07F00DD
:103BF800032828BF002003F0D5FDF9E400F2F48182
:103C0800B8F1CC0F52D15B79092B7FF685AD954E73
:103C1800D6F8008009F010FB88F80000D6F800807C
:103C280009F00AFB88F8020009F006FB33686428EB
:103C3800A8BF6420587109F0FFFA33686428A8BF48
:103C48006420987109F0F8FA3368FF28A8BFFF20AC
:103C5800D87109F0F1FAD6F80080642828BF6420EA
:103C680088F8080009F0E8FA88F80300D6F8008018
:103C780009F0E2FA88F80400D6F8008009F0E8FABA
:103C88002368A8F80A005B790A2B05D9D6F80080C2
:103C980009F0D2FA88F8090023685B790B2B7FF6C4
:103CA800A7AC366809F0C8FA7070A1E400F2EE809B
:103CB800B8F1C80F28D15E797608122E3FF62CADE0
:103CC8004FF00008B04507D209F0C2FA0CAB23F850
:103CD800180008F10108F5E76349324600239E42BF
:103CE80006DD0CA830F8130021F813000133F6E7BD
:103CF8005D4B0021122A03D023F812100132F9E794
:103D08005A4B01221A7073E454D8B8F15F0F3FD1AF
:103D1800574ED6F8008009F09BFAA8F82A00D6F882
:103D2800008009F095FAA8F82C00D6F8008009F070
:103D38008FFAA8F82E00D6F8008009F07DFA88F8E6
:103D48002800D6F8008009F077FA88F83300D6F80A
:103D5800008009F071FA88F83600D6F8008009F07A
:103D68006BFA88F8370009F067FA09F065FAD6F8AF
:103D7800008009F061FA88F83500D6F8008009F06B
:103D880067FAA8F83A00366809F062FA30872FE433
:103D9800B8F1610F7FF479AD09F04EFA304E86F82C
:103DA800D50109F049FA86F8EE0109F045FA86F8D6
:103DB800ED011DE4B8F1C90F26D109F03DFA2D4BEC
:103DC8001A7810B142F0020201E022F002021A70E1
:103DD80009F032FA284B294E187009F043FA30607E
:103DE80009F040FA706009F033FA254B188009F0A1
:103DF8002FFA244B244A188092F82E3043F00203FD
:103E080082F82E30FFF7F4BBB8F1CA0F7FF43DAD4E
:103E1800174E4FF00008D6F8009009F00DFAC1448B
:103E280089F80100D6F8009009F006FAC14489F82B
:103E38000B00D6F8009009F0FFF9C14408F1010819
:103E4800B8F10A0F89F81500E5D1FFF7D1BB00BF1B
:103E5800501600205116002054160020083100206A
:103E68001834002040140020C81F00202D3B0020DB
:103E780058160020681300206E13002070130020CD
:103E88006C1300206A13002098100020B8F1CF0F9F
:103E980039D109F0DDF96FF4AF6E00EB0E039BB278
:103EA800B54EC62B98BFA6F8540209F0D1F9A6F86A
:103EB800CC0009F0CDF9A6F8CE0009F0C9F9A6F8AA
:103EC800D00009F0C5F9A6F8AC0209F0B5F986F8F2
:103ED800A50209F0B1F909F0AFF986F8A60209F0D0
:103EE800ABF986F8230209F0A7F986F8500209F021
:103EF800A3F909F0ADF900EB80004000A6F8F00145
:103F080009F09AF99FE51DD8B8F1CD0F0AD19B4B5E
:103F18001B7858073FF56CAB994B4FF4C8721A8061
:103F2800FFF766BBB8F1CE0F7FF4AFAC934B1B78AD
:103F380059073FF55DAB934A137843F004031370B8
:103F4800FFF756BBB8F1D00F0CD18C4B1B785E072E
:103F58003FF54EAB04F0BAF803F066FC03F000FD41
:103F6800FFF746BBB8F1D10F7FF48FAC09F064F9C5
:103F7800824609F077F9814609F074F9804609F01C
:103F880071F9064609F064F909F062F909F054F983
:103F9800BAF1000F13D17C4B1020C3F80090C3F87E
:103FA800048003F0D7FB774A137843F001031370BA
:103FB800002E3FF41DAB754B1E60FFF719BBBAF11D
:103FC800100F7FF415AB724BC3F80090C3F8048050
:103FD8000EB16E4B1E606F496F4B0222081F1A709C
:103FE8000EF0C2F8FFF704BBB8F1DB0F05D16B4B3D
:103FF80018680AF005F9FFF7FBBA70D8B8F1D60FC0
:104008000BD1DFF89C81002609F022F928F8160068
:104018000136082EF8D1FFF7EBBA37D8B8F1D30F2D
:104028003FF4AEADB8F1D40F7FF42FAC5B790F2B12
:104038007FF472AB09F000F9072880463FF66CABB5
:1040480009F006F94C4B0E2606FB0836A6F8540173
:1040580009F0FEF8A6F8560109F0FAF8A6F8580192
:1040680009F0EAF886F85A0109F0E6F886F85B01E3
:1040780009F0E2F886F85C0109F0DEF886F85D01DF
:1040880009F0F0F8C6F85E01FFF7B2BAB8F1D90F37
:104098000ED109F0DDF8384EA6F8D60009F0D8F8A8
:1040A800A6F8D80009F0D4F8A6F8DA00FFF7A0BA05
:1040B800B8F1DA0F7FF4E9AB09F0BEF82E4E86F8B6
:1040C800260209F0B9F886F8270209F0B5F886F84B
:1040D800280209F0BDF8A6F8DC00FFF789BAB8F1A4
:1040E800EF0F0AD109F0B4F8234EA6F8F40109F04D
:1040F800AFF8A6F8F201FFF77BBA53D8B8F1DC0F96
:104108000ED109F099F81C4E86F8C50109F094F80B
:1041180086F8C60109F090F886F8C701FFF768BA73
:10412800B8F1DD0F7FF4B1AB09F086F8804609F0ED
:1041380083F8064609F080F80F283FF6A6ABB8F1D9
:10414800050F0BD8052E3FF6A0AB0B4B062101FB44
:104158000832931983F8AC03FFF74ABAB8F1060F8F
:104168007FF493AB0A2E3FF690AB034B334483F8AE
:10417800D003FFF73DBA00BF1834002054230020B5
:1041880084120020681300202C140020003E002018
:104198008C120020901200208A120020581600204D
:1041A800583E0020B8F1F50F7FF466AB012009F006
:1041B800A7F80026824BDFF840A282481E703146DD
:1041C80030228AF80060DFF834B2DFF8F89117F08F
:1041D8008BFD8DF80F607C4ED0469DF80F3096F819
:1041E80076209A4232D99DF80F3006EBC30393F834
:1041F8007930DB0723D59DF80F3006EBC30393F81E
:1042080078303BF91330002B19DD9DF80F3006EBA1
:10421800C303DB6F18790DF0ABF998F80030202153
:1042280049F823000DF03EFA98F8003059F82300B9
:104238000DF0C9F998F80030013388F800309DF87E
:104248000F300133DBB28DF80F30C6E79AF8000063
:1042580009F011F809F020F85C4B186803F05EFAD1
:10426800236818680CF07CFB236818680FF0B0F915
:10427800FFF7BEB9B8F1F20F7FF407AB08F0DCFF27
:104288000F2806463FF648AA08F0D6FF504BC6EB63
:10429800C6061E4486F8E40008F0CEFF86F8E5005E
:1042A80008F0CAFF86F8E60008F0C6FF86F8E700BF
:1042B80008F0C2FF86F8E80008F0BEFF86F8E900BB
:1042C80008F0BAFF86F8EA000CF0D6F8FFF790B9C4
:1042D800404ADFF8FC80134406F5A07608EB860612
:1042E80093F83030F37008F0A7FF307108F0A4FF9E
:1042F800707108F0A1FF384B38491A68B07108F19D
:10430800CC030B60364B00201A600EF032FA354BA6
:1043180080F001001870FFF76BB90D2828D1FEF75F
:1043280050B8591E685C202819D101220B46FEF7A7
:1043380056B81035B5F5147F16D055F808102A4828
:1043480005EB080606F030FE0028F2D0274B9E4207
:104358000AD2F368984700232360FEF746B802B1F3
:1043680023600025F554E8E7214811F0A7FAF2E7A1
:104378007F2809D1013B1C4A1E4823600021D154E3
:1043880011F09CFAFDF7A2BF2F2B3DF69FAFA0F1CD
:104398002002D2B25E2A3DF699AF13B920283DF427
:1043A80095AF5A1C2260104AD05411F0E9F8FDF775
:1043B8008DBF7F28EBD1FDF789BF2DB0BDE8F08F09
:1043C800B8050020842300209810002078230020BE
:1043D8001834002060C20108581600207414002008
:1043E80078140020B0000020703E002074E8010816
:1043F8001DEF010839EF0108633B0020102C002055
:10440800A2490A682DE9F04F02F59C43A04C2033DD
:104418002360A04B89B01E7802911EB9DFF89882FC
:104428009D4F18E09D4909688A4240F20181013E8A
:104438001E70FDE0072D98BFD8F80030984898BF47
:10444800595D3B6888BF29469847032D09D904EB75
:1044580045050136A88008F079FDF5B28542E9D313
:1044680020E0D8F8002005F1100302EB83039988B7
:10447800DA880028EBD04FF47A73401A5843531A5D
:1044880090FBF3F040F6C90300F57A70984205DC1A
:1044980040F2EE239842B8BF184601E040F6CA0041
:1044A80080B2D4E77F4B1A6842F2010A02EA0A0A8C
:1044B8007D4A136801939046BAF1000F06D094F82C
:1044C800292084F82820794A5178117094F82860B6
:1044D8001EB1764A167886F00106754F0F2284F8C9
:1044E8002A20002507F1460B08F030FD854264DAE2
:1044F8004FEA45091EB16F4B33F8150000E030460E
:104508006D4B19688A8B82424FEA850E6B4A02D836
:10451800C98B81421CD25BF80E00019B5C49984212
:1045280002D932F8090018E0E8B20492039108F0C1
:1045380025FD032D049A10DC03994FF0010E0EFAA5
:1045480005FC91F82AE02EEA0C0E81F82AE004E036
:10455800019B03F596714BF80E10BAF1000F27D0A6
:1045680094F8BC100322B1FBF2F202EB42028A1A61
:1045780009EB050E5EFA82F204EB4202908594F88C
:10458800BD202AB9022912D9414A012182F8BD1059
:1045980037F8020C3A884A490244788810FA82F2BD
:1045A80012B221F80920032092FBF0F080B2434AAE
:1045B80022F809000135063796E794F82A300F2BC0
:1045C8000CBF0123002384F8D6303E4B0ED13E4A5F
:1045D800126850010AD4D8F80020D9689A60521A93
:1045E800C82A20D9012283F821201CE02F4A334E03
:1045F800012151701170D8F800209968DA605B6861
:10460800521A9A4282BF2F4B002283F8212000259C
:1046180008F09CFC854206DAE8B208F0AFFC26F800
:1046280015000135F4E794F8BC30013384F8BC3048
:104638001C4B1A6812F4805F9B4605D0224B1B68FE
:10464800D90701D411F084FF029B18681A4B1E6821
:10465800337B002B3CD0194A013B32F91330B27B33
:104668001AB1C3F53B6308331BB2A3F57A73B3F5EC
:104678007A7FA8BF4FF47A7323EAE37307EE903A80
:10468800DFED126AF8EEE77A5CE000BFC83D002073
:10469800801100201C230020B405002018230020CE
:1046A800183B002014230020942A00200400002036
:1046B800AE1100208411002010230020C83A0020E9
:1046C8003E120020202300205023002000007A44BE
:1046D800DBF80020120441D5D4F8D820AE4D821A58
:1046E800002A3BDB00F59C422032C5F8D820AB4AB3
:1046F800D179AB4A32F811108AB2717B92FBF1F191
:1047080095F8DC20013202F00F0285F8DC202A44FB
:10471800DD3582F8DD1019464A5D01311A44102949
:1047280013B2F9D193FBF1F31BB2002B03DB642B1B
:10473800A8BF642300E0002307EE903ADFED996AF2
:10474800F8EEE77A87EEA67A974ADFED987A67EE71
:10475800277AFCEEE77A17EE903A1380DBF8003000
:10476800DFF870A213F4807F00F0FA80904BDFF836
:104778004492984205D999F8022012B9012289F881
:10478800022099F80220002A00F0EA80894A8A4922
:1047980092F8215008689AF80020039102F0040763
:1047A80000F08063012DFFB2029305D012F0080FCC
:1047B8000CBF0023022300E00023804EDFF818829C
:1047C800019399F82020052A00F2C580DFE802F05D
:1047D80003485C7D8DADB7B3B4F8EE10D4F8F000A3
:1047E8000CF06AFC012808D1D8F800103268C98892
:1047F800642000FB0122C9F81020029B5BB1D8F8A5
:10480800002012793AB10BF0D7FE032289F8202054
:104818004FF47A7235E0012D00F09D803168D9F8A7
:104828001000644A88420AD204920BF0C5FE049A2A
:10483800032182F8201040F6B831D161C1E7012187
:1048480082F82010BDE7029B4FF4806013B102F09C
:1048580091FF01E002F07EFF0022C9F810207AE003
:10486800012D56D0D8F80020127A012A02D00BF078
:10487800A3FEA6E70BF0A0FE032289F8202040F64D
:10488800B832C9F81C209CE7012D04BF052289F81D
:1048980020206FB1D4F8F020B2F91010484A1180E6
:1048A80051809180D8F8001003234988D180019362
:1048B8003268D9F81410914201D3002F48D147F239
:1048C8003052C9F81C20032224E09AF8002042F054
:1048D80002028AF8002011F03BFE3268D9F81C1059
:1048E8000A44C9F81820042214E0012D15D13268B1
:1048F800D9F8181091422ED2324B1A781AB9039B64
:104908001A68D30727D49AF8002022F002028AF8FE
:104918000020052289F8202053E7284AD9F81C10DE
:1049280012680A44C9F8182015E0D8F8001032684F
:10493800C988642000FB0122C9F810204FF4806068
:10494800002289F8202089F8032002F003FF38E7C5
:10495800012D3FF436AF019B13B118460CF012FC41
:10496800194EB6F8DC1006F511700CF0A5FB0546DB
:104978000CF0E2FBB146154E80B39AF800305807A8
:104988002CD5134BB3F90620B9F85E329A4239DBBD
:10499800012384F8F4303AE08011002084150020C7
:1049A800981500200000C8427424002000C07F44ED
:1049B800404B4C002023002050230020942A002044
:1049C800C83A0020B000002018340020E030002051
:1049D800282E002054230020A82D0020002384F82E
:1049E800F430A5B99E4B9F4900221A605A609A601C
:1049F8009D4B1B6893F8343000200860486088603D
:104A08002BB905E01DB994F8F430002BEAD0012346
:104A180033709AF80030590737D5DBF80030DA06DA
:104A280033D5924A1278D7062FD4DE042DD40CF051
:104A380083FB50BB8E4B1B7883B199F89B329DB991
:104A48006BB18C4B1A68D4F8F8309B1A002B06DA35
:104A580011F07EFD884B83F8FC5016E06DB91020EC
:104A68000CF090FB01230EE03BB1824A12684FF430
:104A78007A7101FB0323C4F8F83094F8FC3023B1B1
:104A88000CF068FB002384F8FC30002299F89A1295
:104A9800B9F85662B9F85872DFF8F0E113463EF9F2
:104AA80012009B08B042C4BF63F07F03DBB201323F
:104AB800B842B8BF43F04003042AF0D194F8FD206F
:104AC8006D489A4205D190F8FE20F92A04D801329F
:104AD80000E0002280F8FE20654F84F8FD303B7826
:104AE800654A664E23BB3068C00709D582F8FF3097
:104AF800F5B99AF80030DA071AD511F0B1FC17E0C9
:104B08009AF800305B0713D592F8283083B15C4BD4
:104B1800DB786BB992F8FF300133DBB2032B82F8F4
:104B2800FF3005D911B111F013FD01E0002DFAD0C5
:104B380094F8FE30504D142B64D13B7893B195F81E
:104B4800FD305F2B0ED19AF8003003F0040303F018
:104B5800FF0813B111F0FCFC04E00B200CF012FB71
:104B680085F8FE809AF8003003F0040303F0FF0292
:104B7800002B47D194F8FD503F4B572D0FD104F02F
:104B8800CAFEDBF800301D0601D50DF099FB3D4B40
:104B98001B68580736D53C4B0A221A8032E0DBF8EE
:104BA8000010490717D55A2D15D193F8001129B1CE
:104BB80083F80021012283F8012123E093F80221E0
:104BC80082F0010283F802210AB10C2000E00D20D6
:104BD8000CF0D8FA16E05D2D00F0CF835B2D00F0C5
:104BE800CE835E2D01D10320CAE3562D01D103F0F7
:104BF80077F83B78002B00F0C8836F2D40F0C58311
:104C080011F02EFCDBF80030580751D594F802312A
:104C1800194A9BB19AF8003059070FD51B4BB3F9C5
:104C28000610B9F85632994208DD336813F00103CB
:104C380002BF3221A2F8061182F802313368DA0382
:104C480026D594F808210C4B2AB993F8002112B9FB
:104C58003222A3F80621012384F8083128E000BF96
:104C6800C02B0020502E002058160020681300206A
:104C7800B0000020942A002080110020502300203A
:104C88002023002024210020D03D0020C83A002005
:104C980094F80031AA4A5BB19AF8003003F0040393
:104CA80003F0FF0123B9012382F8001182F80131D2
:104CB800A44D0023336005F150074FF00108294641
:104CC80015F8010C0CF0D2F930B115F8023C08FACD
:104CD80003F23368134333600435BD42EFD19A4B76
:104CE8001E784EB1994EDFF890823368984F13F0D2
:104CF800020F40F0C881BFE1964D974F05F15A0861
:104D0800294615F8010C0CF0B1F9E8B1AB78934AD3
:104D1800297995F803C0013B03EB430313440C22A4
:104D280002FB01FE07EB0E00426893420CD0436081
:104D3800012303FA01F194F8093107F80EC023EAB8
:104D48000101866084F809110635A845D8D1844B3D
:104D5800844E1D68844B1B68039394F82830049391
:104D6800824B029300230193029B1A68002A00F0E9
:104D780078811778002F00F074815B680399CB1A4B
:104D8800002B0DDB01F5FA7302994B6001990123A1
:104D980003FA01F194F8093123EA010384F809318F
:104DA800049B002B00F05D81029B517813F8043CB2
:104DB8000433DBB2002940F01D816D4931F913102D
:104DC800B9F8543203F1C800814202DD92F802803A
:104DD80016E0C83B994203DA9178C1F100080FE068
:104DE800019A012303FA02F294F8093123EA020333
:104DF80084F80931039B029A03F5FA73536030E192
:104E0800019B94F809211A41D30700F12A81B8F1CE
:104E1800000FCCBF022001200CF0F4F97A1E132AEF
:104E280000F21681DFE812F014001E002800380096
:104E3800500057007100AA00C300CE00DB00140127
:104E48003800460057007100AA0066008000B800CC
:104E580029784144FA29A8BFFA2121EAE171297089
:104E68000120B9E0A97841446429A8BF642121EA56
:104E7800E171A9700220AFE02F793E4B4744642FBF
:104E8800A8BF642727EAE77719682F7128460BF02F
:104E9800CBFE394603209FE0A97941446429A8BF85
:104EA800642121EAE171A9710D200CF025F90D2F7B
:104EB80000F0CE80697941446429A8BF642121EAC1
:104EC800E17169710E2087E0E979414481F30801B5
:104ED800E971052080E0326891784144C829A8BF6B
:104EE800C82121EAE17191700F200CF005F90F2F0C
:104EF80000F0AE80326851784144C829A8BFC82163
:104F080021EAE1715170122066E03268117B414458
:104F1800C829A8BFC82121EAE171117310200CF03B
:104F2800EBF8102F00F094803268D17A4144C829F8
:104F3800A8BFC82121EAE171D17213204CE000BF5B
:104F4800801100201D390020A43E0020502300209D
:104F58004C2300206C3900204414002004C40108AC
:104F68004014002078140020942A002048140020BF
:104F7800C83A002074140020242100203268917D52
:104F88004144C829A8BFC82121EAE17191751120BF
:104F98000CF0B2F8112F5BD03268517D4144C8291A
:104FA800A8BFC82121EAE1715175142014E03268C4
:104FB800D1784144C829A8BFC82121EAE171D1703C
:104FC800092009E03268517B4144C829A8BFC8219B
:104FD80021EAE17151730A200CF08EF838E032684A
:104FE800D17D4144C829A8BFC82121EAE171D17502
:104FF8000B20F1E701292BD1A14931F91300B0F5B4
:10500800617F05DB40F633038342A8BF034601E016
:105018004FF461730C2F1BD190784FF4966292FB7A
:10502800F0F0984A1278A3F5617393FBF0F3DBB2C2
:105038009A420DD01846059302F0B4FB059B3846FA
:1050480019460CF059F8059B581CC0B20CF0DAF858
:10505800019A012303FA02F294F80931134384F800
:105068000931019B01330193029B0C330293019B8D
:10507800042B7FF479AE35E6DBF80030DD050FD57B
:10508800814BDB7863B1D8F80030980708D53B88A6
:1050980013F0010509D1012002F06CFB2B4605E055
:1050A800012002F057FB012300E00023326851077A
:1050B8000AD54BB1012002F04DFB3B889A0706D474
:1050C800022002F057FB02E0022002F043FB39887D
:1050D80011F003011ABF0121084601200CF082FAE1
:1050E800D8F800309B0608D433681D0540F191803C
:1050F8004FF4807002F03EFB8FE0644B1B789807FA
:1051080050D5634B1B78042B4CD9336813F40073C8
:105118000ED03B88D90639D4102002F02BFB202072
:1051280002F018FB5B49081F0DF01EF8022329E066
:105138003D8805F01005ADB23DB11020019302F095
:1051480009FB019B84F80A31012533685A0512D5F9
:10515800514B52491B685A89B1F90030002BB8BF2E
:105168005B42934207DAB1F90230002BB8BF5B42C9
:105178009A4200F355813B889B0608D5202002F00F
:10518800E9FA002384F80A31012500E0002594F8A3
:105198001431B3B90E200BF0F5FF414B012283F80F
:1051A80014210EE03B8803F03003002B9CD0102024
:1051B80002F0D0FA202002F0CDFA002384F80A3158
:1051C80001E0002D90D03749002300220B80A4F87D
:1051D8001631A4F81A31C4F82021C4F82431C4F8CF
:1051E8002821C4F84821C4F84C31C4F850214B8018
:1051F800A4F81831A4F81C31C4F83421C4F83831A3
:10520800C4F83C21C4F85C21C4F86031C4F86421B6
:105218006AE74FF4807002F09DFA99F80530082B80
:1052280001D00E2B02D1402002F094FADBF80030B6
:105238005D0519D599F8D83223B99AF8003013F0DA
:10524800040F02E0336813F4002F09D03C200DF05E
:10525800DFFA48B107F0D0FF3C200DF0A1FAF8E7DB
:1052680010F021FE0DF0DCFA9AF800300121580701
:1052780084F8701118D500200CF0B4F959E000BF7B
:10528800C83A00200C2300202023002068130020A7
:105298006E1300203014002094140020282E0020C3
:1052A80080110020302E00203268D20703D5694AC9
:1052B80092F871211AB143F001038AF80030664B65
:1052C800664A1B781B075EBF9AF8003023F001037B
:1052D8008AF80030D8F8003013F0040F02D0604983
:1052E800098871B9B4F8041109B19D0709D45D4B57
:1052F8001B88003318BF01231BB95B49098864293F
:1053080008D9022313709AF8003023F001038AF8B1
:10531800003005E09AF80010C80758BF0223137040
:105328000BF040FA514B1B68C01A002801DB07F04C
:10533800AFFED8F80030590740F1888033681A0763
:1053480005D4082009B0BDE8F04F02F003BA3D8843
:1053580005F00805ADB2002D78D1082002F00AFA50
:10536800434B1A68434B1A60434BDB88A4F87231ED
:10537800424B1D60424B1D6068E0012000E00220A6
:105388000138C0B202F09AFC3CE4972D04D14FF4E6
:10539800C873A4F8043135E4A72D05D12E4A137833
:1053A80043F0040313702DE40023BB2D079301D1B0
:1053B800022303E0B72D04D14FF6FE73ADF81E307B
:1053C80009E0BE2D01D1022303E0BD2D17D14FF610
:1053D800FE73ADF81C30B9F8F221BDF81C30134447
:1053E800A9F8F231B9F8F421BDF81E301344A9F830
:1053F800F43102F075FC002384F8FE3002E4792DC4
:1054080004D1204AD37823F0010306E07A2D7FF4F3
:10541800F9AB1C4AD37843F00103D370FFF7F2BB12
:105428003B889B063FF5B3AE202002F0A3F9164B4C
:1054380016491A685B68C4F80C21081F0125C4F8CE
:1054480010310CF091FE84F80A51A0E609B0BDE8CD
:10545800F08F00BF80110020681300204423002033
:10546800D03D002032150020E814002048230020F9
:1054780028140020003E0020C83A00200C3E0020DE
:10548800103E0020483E002070130020901200209B
:105498002DE9F74F6A4CDFF8ACE10091DEF80030F7
:1054A8002188B4F90280C1EB231252434900C1EBB1
:1054B800E3011313B4F90420534308FB01F89B13C9
:1054C80003EBE82303EB83028032B3F5FA384FEAA3
:1054D80022224FEAE37949F1FF390192B4F9082011
:1054E800A361A8FB08AB08FB09F30BEB430B02FB1A
:1054F80009F1D31708FB0311A2FB08230B441F0370
:10550800160347EA1257B4F90A2002FB0BF1D31726
:105518000AFB03130546A2FB0A011944020A42EAE0
:10552800016292194FEA2123E6887B41003243F554
:105538000043A2FB060106FB03114A10CB1752EAEF
:10554800030170D0B4F9100000FB0BF6C1170AFB79
:105558000166A0FB0A013144B4F90E6006FB09FCA0
:10556800F71708FB07C7A6FB0889B9444FEA484A5A
:105578004FEA494B1AEB000A4BEAD83B4BEB010BBD
:10558800DEF80410B4F90C80C1F5801E7646F717D2
:1055980000264FEACE70F90716EB0A064FEAC8074D
:1055A80041EA5E0147EB0B0740F6354E861B61EB7F
:1055B8000707A6FB0E010EFB071111F0D1FCB4F989
:1055C80016204E13470B47EAC14702FB06FED317C6
:1055D80007FB03EEA2FB07237344564307FB03664E
:1055E800A2FB07233344560E46EAC3163218B4F911
:1055F80014604FEA636747EB01037143F71700FB39
:105608000717A6FB00013944C60C46EA4136B6180E
:105618004FEAE147B4F912005F41330A43EA0763EE
:105628000201134400E000230DB11B0A2B60009B0C
:1056380013B11A46019B136003B0BDE8F08F00BF99
:1056480058070020F41200207047044B1A7A02F021
:10565800FF0012B100221A7201207047F4120020D4
:1056680037B5104B04465D6818786A460621A84786
:10567800A8B19DF800209DF8013043EA0223238059
:105688009DF802209DF8033043EA022363809DF8C9
:1056980004209DF8053043EA0223A380012003B0CB
:1056A80030BD00BF3007002013B5104B04465B68BF
:1056B8006A4606213B209847A8B19DF800209DF82E
:1056C800013043EA022323809DF802209DF803302D
:1056D80043EA022363809DF804209DF8053043EADD
:1056E8000223A380012002B010BD00BF30070020B4
:1056F800014B01221A727047F4120020026D036BED
:1057080070B50446D5699BB9A90611D5C36A1BB102
:10571800908C80B298470BE0E169928C40694E1CEE
:10572800D2B2E6614254E169E268914228BFE3617E
:10573800616BA1B92A0612D5636AA26A9A42236DDF
:1057480009D0501CA669A062B25C1A8523699842E8
:1057580005D3A16203E01A6822F080021A602B07C1
:1057680042BF236D08221A6270BD0168027B30B502
:1057780002230C6803FA02F222420BD0064A0024E4
:105788001470446825684FF6FE722A402260027B36
:1057980093404B6030BD00BFC923002038B5074C8B
:1057A800054620680BF00AFF294605480CF0F2F878
:1057B8002068BDE838400BF006BF00BFDC0A0020B7
:1057C800003800402DE9F0410C4C0D4D8046206812
:1057D80016460F460BF0F2FE48F0800128460CF002
:1057E800D9F83B460022314628460CF0A6F8206836
:1057F8000BF0E9FE0120BDE8F08100BF5007002052
:1058080000300140F8B50A4C0A4D074620680E469C
:105818000BF0D4FE394628460CF0BCF83146284631
:105828000CF0B8F820680BF0CEFE0120F8BD00BFE0
:1058380050070020003001400CF076BF2DE9FF47EB
:10584800444D6B7A002B40F08180434B1B68002B42
:105858007CD018780BF08CFE04460BF0CBFE074684
:10586800002873D1142308260146A3712072E6711B
:1058780020460BF017FF394BEB6020460BF0C3FEB8
:10588800002855DB364BDFF8E89005F10C0243F8A9
:10589800202019F8008020460BF0BFFE82462046E3
:1058A8000BF0B1FEC1B201F0030001F0FC0101F1FF
:1058B800804303F58033800099680F22824021EAF3
:1058C80002029A6099685FFA8AF202FA00F00843C5
:1058D800986020460BF097FE4FF0010A20F01F0158
:1058E800204A00F01F030AFA03F38B5002900DEBD5
:1058F80006008DF80C708DF80D608DF80EA00CF078
:10590800A4FE194B13F80820F02A11DDF02203F841
:10591800082009EB080301A81B7C8DF80430032339
:105928008DF805308DF806708DF807A00CF030FE64
:1059380020460BF068FE002806DB0C4901220B68A4
:1059480002FA00F01843086001236B7204B0BDE846
:10595800F08700BFF412002048070020F95600081D
:105968006C310020140401403C0600200004014072
:1059780040C4010870B5264C0546FFF75FFFFFF7E6
:105988005DFFA36880216B20984764200AF048FFD8
:10599800A36807216820984764200AF041FFA3689C
:1059A80000216B20984764200AF03AFFA368012180
:1059B8006B2098470F200AF033FFA36818211B209B
:1059C80098470F200AF02CFFA36818211C2098473D
:1059D8000F200AF025FFA36829461A2098470F20B0
:1059E8000AF01EFF0B4AA368117819209847642013
:1059F8000AF016FFA3681021372098470F200AF0F5
:105A08000FFFA36801213820BDE87040184700BF88
:105A1800300700207407002010B50446FFF70EFF7A
:105A28004FF40063238110BD10B4047B01684369FF
:105A38000222A2404A60416808684FF6FE7202409E
:105A48000A60596A9A6A914204D018465DF8044B74
:105A580006F002BB012283F844205DF8044B70472E
:105A68002DE9F04F884E3578012D85B040F0098139
:105A7800864C94F8AD2522B194F8AE350BB19A4214
:105A880003D3012384F8AD350FE01846114630B131
:105A980091FBF0F700FB171701463846F7E792FB32
:105AA800F1F284F8AD2593FBF1F384F8AE3594F860
:105AB800AF35012B82BF754B002283F8AF2594F8D0
:105AC800AF7517B1012F32D03BE080200BF0A4F85E
