:020000040800F2
:1000000000500020717601080D7701089D08010855
:100010000D7701080D7701080D7701080000000039
:100020000000000000000000000000000D77010843
:100030000D770108000000000D770108BD4401089C
:100040000D7701080D7701080D7701080D7701087C
:100050000D7701080D770108B9830008C3830008F4
:10006000C1830008BF830008BD83000899F700081A
:1000700089F7000879F7000869F7000859F70008C0
:1000800045F7000831F700080D7701080D770108E2
:100090000D7701080D7701080D770108BB83000873
:1000A0000D770108F14101080D770108E1410108D0
:1000B000D5410108C5410108B541010881FA000890
:1000C00085FA000879FA00087DFA00080D77010822
:1000D0000D770108EDEB0008E5EB0008DDEB00080B
:1000E000B78300080D7701080D77010800000000B4
:1000F0000000000000000000000000000000000000
:0C01000000000000000000005FF808F1A3
:100110002DE9F04F604A614BA1B01A60604B00229C
:100120001A600DF065FB18B90DF06EFF08F032FA99
:100130000DF080FB5B4A5C4E137843F001031370B3
:10014000002309930A930B934FF4E0130C93336845
:1001500043F480333360B36943F01003B361336811
:1001600003F400330A93099B013309930A9B1BB9DB
:10017000099BB3F5A06FF2D133684B4913F40033F8
:1001800001D0022315E00A6842F001020A600993D7
:10019000336803F002030A93099B013309930A9B16
:1001A0001BB9099BB3F5A06FF2D133689D0739D510
:1001B00001230B933D4B3E4F1A6842F010021A6028
:1001C0001A6822F003021A601A6842F002021A60EA
:1001D0007368736073687360736843F480637360FB
:1001E000344B1A68043B22F070425A60324A3A603B
:1001F000726822F47C1272605A6842F000425A60BF
:10020000DA6822F40042DA609B681C0449BF2B4B79
:100210004FF4E0133B604FF480130C930B9B012BC6
:1002200001D108E0FEE7022B09D10C9A7368134351
:1002300043F4803302E0736843F4601373603368FF
:1002400043F0807333603268174B9001FBD55A68D6
:1002500022F003025A605A6842F002025A60736840
:10026000114A03F00C03082BF9D15368144C03F026
:100270000C03042B03D0082B03D00F4B2BE03B685F
:1002800029E053685168C3F38343C90303F10203B0
:100290001AD40C4A1EE000BFE5D70008EC15002078
:1002A000F0150020A0230020001002400020024092
:1002B000800000200410014000127A00001BB700EB
:1002C0004004002000093D00526812F4003F3A68E3
:1002D00018BF5208534323607368BB4AC3F3031328
:1002E00013449A782368DFF858B3D3404FF6FF726F
:1002F0002360B64BDFF83CA3CBF80C30B3690DF1AB
:10030000800943F00103B361736A0025CAF8003025
:100310000393736A0DF1800843F080737362B369CD
:1003200043F01C03B36129F82C2D02F1804202F640
:1003300001021046494602928DF856500FF0BDF961
:100340004946A3480FF0B9F94946A2480FF0B5F95C
:1003500010218DF83A100221029A8DF83B104FF4CB
:10036000007128F8481D1046116141460FF0A5F9AB
:10037000994948464A6842F000724A6009F0D6FB43
:10038000964A159B2946B3FBF2F3954A0AF10400FD
:100390001360182219F074FF23684FF47A72B3FBCC
:1003A000F2F3904A013B5360F0238BF82330294647
:1003B0009560554607238C48DFF888E213604FF0BC
:1003C000010C8A0202F180423EF8114002F58432AB
:1003D000002344FA03FA1AF0010F18BF0CFA03FACB
:1003E00003F101031EBF0260A0F804A00C30102B23
:1003F000EFD101310329E4D17C4C7D4B94F8EB2102
:100400001A703B687B4A934201D1012203E07A4A89
:10041000934202D10222794B1A70A368784F0021CF
:1004200008463B6007F0ACFF0021012007F0A8FF61
:100430000297744F00234FF0170A4FF0020B57F842
:100440002300013348B1037280F806A080F807B09A
:100450001221049307F0A2FD049B032BEFD100218E
:10046000084607F08DFF0021012007F089FFB369DE
:10047000402243F00103B3610021634819F000FFFB
:10048000624B4FF0FF321A60C3F80320029B1B68D7
:100490001A0715D594F84032012B11D8039A534B03
:1004A00012F0805693F8423200F06D8608E093F81F
:1004B0004322012A04D1002283F8422208F024F9C1
:1004C000642013F0ADFFA0220021514819F0D8FE9E
:1004D000504F0026A7F11409F15900234E48DA00C5
:1004E00050F83300814204D109EB020393F8C000B5
:1004F00003E00133042BF1D100200C3614F04CFB47
:10050000A82EE9D1029B454A1F68454BDFF838A168
:100510001A60052600213C2242488AF8006019F042
:10052000AFFE002318463146DFF820E13D4E07F0CC
:1005300040094FF0FF0C1EF9012F03EB060B9A55F3
:10054000B9F1000F09D11E3AD2B2012A9FBF01F1C1
:10055000FF318BF800C0C9B201200C333C2BEAD12B
:1005600008B18AF8001061792F4B30481970304B70
:10057000304AEB61D6330360BB0656BF2E4B0123D6
:1005800003EBC10340F2DC5158BF5B7813622B4A86
:10059000002322F813100133082BFAD11C2200216A
:1005A000404619F06DFEBE0563D517F4015F05D115
:1005B000380594F822324BD5012B49D1282385F8F0
:1005C0002430292348E000BFA8A301080005FA054C
:1005D000000C0140001001400000014040420F00AB
:1005E0004430002010E000E0942B0020B4300020C4
:1005F0000212002000127A00001BB700A92300207D
:100600007C120020A0A90108D80E0020FC0F0020B9
:10061000EC2E0020BCA3010864A40108583300207C
:100620002025002024250020180B00200830002061
:10063000C4300020E8040020D4A90108400C0020A8
:1006400000ED00E0ACA901082C1500200FB2010854
:10065000202385F82430212385F8253001238DF8C7
:10066000443095F824308DF8523095F825308DF8C7
:10067000533063790E2B03D003F0EF03082B01D125
:10068000012300E0002301208DF84C300CF0DEF94E
:1006900018B14088003018BF0120029B00F0010013
:1006A0001B688DF83D00C3F340028DF84020C3F372
:1006B00080128DF84220C3F340328DF83820C3F306
:1006C000C0328DF83B2013F4006204D094F822224B
:1006D000511E4A424A418DF83C20C3F300428DF836
:1006E0004320C3F3C0028DF83A202A6A03F00107C1
:1006F000003218BF01228DF84520C3F300528DF857
:100700004620B4F8D6208DF83970ADF84A20B4F8F8
:10071000E22003F00806ADF8482094F8E52042B93D
:10072000B44A92F8E42012F0FB0F0CBF0122002221
:1007300000E0012294F8E410049211F0FB0F14BFC2
:10074000012000208DF841008DF84D1012B1A94A0A
:10075000B2F8E020DB0448BFA64BADF84E2048BFFE
:10076000B3F8DC30B4F8D420ADF8502048BFADF871
:100770005030042906D14FF4805007F0E3FE0023E7
:10078000ADF8503094F88C229B4B00211A709B4896
:10079000642219F075FD9DF84C30002B14BF022324
:1007A000002307B906B10133954ADFF8848202EBD2
:1007B0008303D3F8DC304FF00009991E1A330593F8
:1007C00002F1140303910693039B33F8022F039362
:1007D0004FF6FF739A4200F0A3819DF83D10D3B20B
:1007E000120AD7B219B1991E012940F294819DF8DD
:1007F000421041B182480C2101FB03014869814943
:10080000884200F088819DF8431041B17C4C0C2057
:1008100000FB034044697B48844200F07C819DF8E2
:10082000400038B1764C0C2000FB0340007E1428B9
:1008300000F071819DF8440070B1714C0C2000FBF8
:1008400003409DF85240007E844200F064819DF890
:100850005340844200F05F81022A02D19DF8382083
:1008600003E0012A04D19DF83920002A00F05381C9
:100870009DF845207AB19DF84C2062B9A3F1080299
:10088000012A08D85E480C2202FB030250695E4A26
:10089000904208BF0427069A0C2505FB03259DF806
:1008A00046205AB19DF84C2042B919B1A3F10C026F
:1008B000012A01E01A1F032A40F20E81012F3BD1C9
:1008C000524A0026FF21167056609660D660166464
:1008D00082F8441082F8451082F8466082F847603A
:1008E00082F84860464A0C2404FB032488F82860F8
:1008F000207EC8F8345007F02BFB02228271C771AA
:100900000672217F07F04AFB3246617E60690EF075
:1009100057FD3A463146284613F01AFD3C4B3D4AF6
:10092000C8F838303C4BC8F84060C8F83C30111F5C
:10093000284613F05FFCEEE0022F3FD15FFA89F208
:100940002F491C2656430C2404FB031408EB06070E
:100950004FF0010B4FF0000A87F82920207E87F81E
:100960002AA087F832A087F828B07D63079207F0A5
:10097000EFFA079A80F806B002EB0B03037280F8D7
:1009800007B0217F07F00AFB5246617E60690EF0D6
:1009900017FD5A465146284613F0DAFC1F4B06F164
:1009A0001001BB631E4BC7F840A0FB631D4B2846DC
:1009B00019440A1D13F01EFCD944ACE0032F40F08B
:1009C00089809DF841300D4CBDF84E209DF84D10AA
:1009D000002B4DD0022994F801A0BDF8503029D049
:1009E00003291149114E0EBF4FF0480E0E464FF02D
:1009F000080E22E0B4300020B4210020540C002066
:100A0000A8A3010800040040002C0140880E00202B
:100A1000357C000824050020917D0008F57D000844
:100A20000D7C000810050020B17E0008517E0008F2
:100A3000E8040020B24E4FF0180E5FFA8EF1B14F6D
:100A400032B1B14800FB0EF0B0FBF2F292B202E01C
:100A500013464FF6FF72284607F006FB47F82A00B8
:100A600057F82A301922DE60A37804EBC30327E08D
:100A70000429667811D1A5492846B1FBF2F2182164
:100A800092B207F0F1FA9F4B0D2243F82600A04BDB
:100A9000C360A37804EBC30312E09B4B0121B3FBBB
:100AA000F2F22846BDF8503092B207F0DDFA954BCD
:100AB000092243F82600974BC360A37804EBC303D5
:100AC0005A71A378627804EBC3010A7101328D6018
:100AD00062701EE0042F1ED18F4CBDF84820A37811
:100AE000267804EBC3031E71874B012193FBF2F2BE
:100AF0002846BDF84A3092B207F0B6FA874B0A2171
:100B000043F82600A37804EBC30251712278013226
:100B100022700133A370039B059A93427FF454AE75
:100B2000049B7F4E83F001027E4B00241A707E4BA3
:100B300034701D78A5F11703022B1ED8DFF8ECA145
:100B4000DFF82092DAF81C300021185903EB040872
:100B500016F024FB20B1754B1A6A06935ABB25E0A8
:100B600004EB090798E80F0087E80F00337810348A
:100B70000133C02C3370E5D1EDE76D4B13F835E050
:100B800003EBC503D3F804C086F800E0BCF1000F06
:100B9000E1D0DFF8D0817445DDDA230103EB0807EB
:100BA00063440FCB013487E80F00F4E7029B1B6816
:100BB000DF0425D41EE05F4B5F4A13F8350003EBDA
:100BC000C5035C681070002CF0D05C4F002383429A
:100BD000ECDAC3EBC3016218D2F800C001EB070ED8
:100BE00041F807C091880133AEF8041092798EF86D
:100BF0000620ECE705F0EF03082B514B24D125E04C
:100C00003378012BF6D94F4C04EB031303F1100694
:100C10001034A642EED04FF07C5154F8100C16F070
:100C200029F94FF07C5144F8100C54F8140C16F0CC
:100C300021F94FF07C5144F8140C54F80C0C16F0C8
:100C400019F944F80C0CE3E70E2D08D11A78182D89
:100C500042F010021A7008D113F0B0F905E01A78CA
:100C6000192D22F010021A70F5E713F089F9364AAF
:100C7000364D13781C2043F0040313702B78012B9E
:100C80008BBF012600260024012407F061F9304AB9
:100C90001060304A167058B1112282710222C2715E
:100CA0000022944202720CBF1221162107F076F93D
:100CB00000200EF047F9222007F04AF91522264CB1
:100CC000827101260222C27106721221206007F091
:100CD00065F92068214C002107F048FB207E13F0C5
:100CE0005BFF237E03F01F025B09022B06FA02F66C
:100CF0003AD0032B3CD11A4A13691E43166137E0E0
:100D0000857E0008A02E002040420F0000366E01B4
:100D1000D17D0008C17D0008540C0020180F002070
:100D20006B130020E82E0020180B0020E8040020A0
:100D3000D4A901085CB00108942F0020952F002051
:100D4000790E0020580A0020A0230020A9230020AB
:100D5000B01A0020B41A0020AC1A00205004002061
:100D600000100240500A0020924AD3681E43D66009
:100D7000607D07F0EDF80C260B230227C371867106
:100D80000772E07D07F0E4F80D23C37186710772E6
:100D9000A07D07F0DDF88671C6710772607D07F0EF
:100DA000D7F81B2107F0FAF8E07D07F0D1F807210A
:100DB00007F0F4F8A07D07F0CBF81B2107F0EEF860
:100DC000207D20B107F0C4F8132107F0E7F821696E
:100DD000794B99420AD103F56043DA6842F48052B4
:100DE000DA60DA6822F48052DA6019E0734B9942D3
:100DF00009D103F5EC331A6942F480421A611A6989
:100E000022F480420BE06E4B994209D103F5EA339C
:100E10001A6942F400421A611A6922F400421A6106
:100E2000237F13B10023184601E0012302200A8822
:100E300002F4415242F44572134303430B808B8BFF
:100E4000207D23F400631B041B0C8B8307230B8280
:100E50000B889BB243F040030B8018B107F078F881
:100E600007F07FFA2C2007F073F80446069BC3F8BE
:100E700008019F238DF83430322000238DF835305F
:100E80008DF836308DF8373013F0CAFA204607F067
:100E900063FA04220DA915A813F04EFF204607F0AF
:100EA00060FA9DF856309DF855201B0243EA024334
:100EB0009DF857201343434A93421AD0322013F02F
:100EC000AFFA204607F048FAF52013F071FFFF2033
:100ED00013F06EFF8DF85400204607F042FA9DF89B
:100EE0005430702B05D12B78022B02BF364B0322D6
:100EF0001A702B78032B0CBF1F2002200BF01FFD54
:100F00002B78032B03D001200EF04EFC07E00220CB
:100F10000BF09CFD0028F6D04388002BF3D02B4B20
:100F200095F800A02A4D1E6814273A46002128464D
:100F300019F0A6F906F4004916F0020F06F400684D
:100F4000284618BF2F70B9F1000F01D011236B7123
:100F5000BAF1010F84BF15238372B8F1000F01D0DD
:100F60002123C3731B4DDFF874A04FF00F08002737
:100F70004FF0060915F8010C00283DD006F0E8FFF7
:100F8000002680F8069080F80780067215F8010C9C
:100F900006F0DEFF314607F001F8314615F8012C66
:100FA0000D484B0010F81100904219D1534493F8AA
:100FB000ED3019E0001002400030014000380040E0
:100FC000003C004015202000A92300207C120020B6
:100FD000E4110020E511002094A40108A8A3010851
:100FE00001310A29DCD1002307222B70EA707B1C17
:100FF00001226F70AA70DFB208F101085FFA88F869
:10100000B8F1130F05F10505B4D1B74A492053686B
:10101000B64D43F44043536013F0BEFD202013F05F
:10102000BBFDB24808F008FE15A808F0DAFDB04B89
:10103000022F1593AF4B28BF802216934FF0000369
:1010400038BF1A461A924FF480721B924FF4806296
:101050001C92202228461D9215A94FF400521E9280
:101060001793189719931F9308F0C8FD2B68A2488F
:1010700043F001032B604368012F23F4702394BFD6
:101080000022012223F4807343EA02234360826832
:101090009A4B9B4D134043F4602343F0020383605B
:1010A000C36A05F1140C23F470027B1EDBB242EA22
:1010B0000353C3621F2701234FF0070EEA78002A6B
:1010C0004CD095F801805E1CB8F1090FF6B295F886
:1010D00004900DD9A8F10A02C16802EB42020EFA8F
:1010E00002FA21EA0A0109FA02F20A43C2600AE09E
:1010F000016908EB48020EFA02FA21EA0A0109FA2C
:1011000002F20A430261062B0CD8591E426B01EB16
:10111000810107FA01F322EA030208FA01F11143FF
:1011200041631AE00C2B0CD8DA1F016B02EB820230
:1011300007FA02F321EA030308FA02F21A430263F0
:101140000BE00D3BC26A03EB830107FA01F322EACD
:10115000030208FA01F31343C362334605356545BC
:10116000ACD1654B9A6842F480729A609A6842F0FA
:1011700001029A609A6842F008029A6099685E4A91
:101180000D073FD5FAE7013B092B3FF699A901214D
:10119000084607F0F5F8132006F0DAFE0746182394
:1011A00083710223C37106721221C5F8940406F0FC
:1011B000F5FE0121384607F0D9F83C2013F030F94C
:1011C0003146012007F0DCF894F842224D4B96425C
:1011D000BFF66DA90021084607F0D2F80021384675
:1011E00007F0C4F8782013F0F9F80121002007F087
:1011F000C7F80121384607F0B9F8782013F0EEF867
:101200000136E1E7936843F00403936093683A4939
:101210005807FBD48B6843F4A0038B60394BD3F899
:10122000CC01002840F0C587D3F8D021002A40F037
:10123000C087D3F8D431002B40F0BB87314E324DFC
:1012400096F8D93100270293B6F9F0312F60039355
:1012500096F8DC316F60049396F8DE31AF601822A7
:1012600039462A48059396F8ED8196F8EE9119F0E3
:1012700007F8274B274A1B780795012B8CBF93460D
:10128000A2F1010BDFF89CA0234D18223946AAF8E1
:10129000007005F5867018F0F3FF069B2320C3F855
:1012A00024B113F0BDF80DF12202012175200DF0DB
:1012B00043FAD346C0B3194B0DF12302C5F81031E0
:1012C000174B0121C5F814313846432385F80C31FA
:1012D0000DF032FA9DF8233003F07E038DF82330B1
:1012E00000285ED166E000BF001002400800024006
:1012F0004C240140F811002000240140FDF7F1FFCB
:10130000E4110020B4300020AC2300203024002061
:10131000A9230020A9A30108E804002039E7000858
:10132000BDE60008B823002095F82831FBB9142247
:10133000A2710E22E271237213212046C5F82C41BE
:1013400006F02CFE504A138823F040031B041B0CAC
:101350001380138823F038031B041B0C138013889D
:101360009BB243F040031380012385F8283115AA6E
:10137000012175200AF08EF89DF85430A3F1700217
:10138000012A01D9AF2B5CD105238BF80030432310
:1013900085F80C313D4BC5F810313D4BC5F8143183
:1013A0004FE0682B06D101238AF800301D2385F811
:1013B0000C3146E09DF82230364A03F07E03682B5C
:1013C0008DF8223039D1344F02230621137008469C
:1013D000D7F8103115AA98479DF859209DF8573035
:1013E00092005B0003F0020302F004021A439DF82E
:1013F000553003F00103134311D0012B01D100221A
:1014000002E0022B03D10122224B5A7019E003F0B3
:101410000303032BF7D0032013F00CF811E0D7F8E7
:1014200010310DAA01210C2098479DF8343013F09B
:101430000F03F0D0042BE6D1E1E7702B04BF0423A7
:101440001370164900230B70124B1B78022B0BD123
:10145000134A14481060144850601448D06014486F
:10146000106101220A7038E0012B27D10C4A114883
:101470000B7010600C48042350600F4890600B48BC
:10148000D0600B48106128E00038004095B4000897
:10149000C5B40008B8230020E8040020142500206B
:1014A0003024002051EB0008B1E4000899E4000862
:1014B00090C1793D77E6000865E40008043B012B04
:1014C0001DD8C44BC44A1A60C44A5A60C44ADA6080
:1014D000C44A1A6101230B700723C34A41461370A3
:1014E000C24A0298136843F001031360059B4A4601
:1014F0000193049B0093039B0FF006FA10B901209F
:1015000012F098FFBA4A01211378084643F002030B
:10151000137006F035FF0021084606F031FFDFF8B2
:101520001C830A27012006F005FD002006F002FDBD
:10153000192012F075FFD8F84C35DFF800A313F42A
:10154000803F02D101200DF0FDFC192012F068FF50
:1015500000200DF0F7FC013FE4D13946384606F093
:101560000FFF3946012006F00BFFA04B1A68984682
:1015700012F0080F0DD00121084606F001FF9D4B27
:101580001B6898473946012006F0FAFE9A4B012263
:101590001A709A4B1B68187B15F018FC984915F0C7
:1015A00069FC984915F05EFB14F020FD964B9449B8
:1015B0001860884B186915F05DFC944B1860079B08
:1015C000188915F003FC0146914815F007FD914973
:1015D00015F004FD904B186012F032FD8F4B1E2267
:1015E000FF21184618F04CFE03468D4901220A706F
:1015F000002202708B48D8F800E002688146184645
:101600000B4612F4800F01BF022119701B2141709B
:101610001EF0020F0ED019784FF0010C00F801C037
:1016200001F1020C013183F800C0C9B24FF0020C85
:1016300000F801C01EF0040F06D0197801F1010C6A
:1016400083F800C0032343541EF00A0F12D0DFF8C2
:10165000D0E104219EF800304FF0050CC154591C14
:10166000C9B200F801C0D91C02338EF80010DBB2F9
:101670000621C15412F4007F694B08D0197801F19A
:10168000010E83F800E04FF0150E00F801E0D105DF
:1016900008D5197801F1010E83F800E04FF01A0E19
:1016A00000F801E09AF805E0BEF1080F02D0BEF1A3
:1016B0000E0F08D1197801F1010C83F800C04FF02A
:1016C0000B0C00F801C019784FF00C0B01F1010C64
:1016D0005FFA8CFC00F801B0D00383F800C006D597
:1016E0004F48023101704D490E2001F80C0012F4F0
:1016F000002F4A4906D0187800F1010C83F800C089
:1017000019230B54464B4FF01D0B187812F4805FD1
:1017100000F1010C5FFA8CFC83F800C001F800B006
:1017200006D0023018703D484FF01C0B00F80CB08A
:10173000900608D5187800F1010C83F800C04FF02E
:10174000070C01F800C0500708D5187800F1010C0B
:1017500083F800C04FF0100C01F800C0500308D50A
:10176000187800F1010C83F800C04FF0120C01F85A
:1017700000C0520507D59AF8D02222B11A78501C21
:10178000187013208854BEF1180F0ED11A78162045
:101790008854501CC0B24FF0170C01F800C0D01C88
:1017A0000232D2B2187001F802E0982200211E48DD
:1017B00018F066FD13F058FB1C4A1D4BB6F8DE10FE
:1017C0001A601C4BDFF878B019801B4900230B808E
:1017D00038E000BF3024002081B80008B1E40008E0
:1017E00099E4000890C1793D3804002028240020A5
:1017F000A02300200C25002068380020C8150020F8
:1018000035FA8E3CDB0FC93FE42D0020D42D00209B
:101810000AE81C4100401C46183800204A2D0020D0
:10182000492D00207C1200201C360020EC320020C4
:10183000A80D0020A60D0020B0120020B43000201A
:10184000801200208B70A049DFF8E4C20A609F4A32
:10185000DFF8E0E21370B6F8482211B2DCF80000BD
:101860002BF8131000F596704EF823000133122B5D
:10187000974EF3D1D9F80000C30458BFBAF95412F7
:10188000F180944901F1500E91F89D34FBB991F823
:101890009FC491F8A0349C4519D2BCF1000F08D028
:1018A0000CF1FF3C0CEB8C0C0CEB8C0C0CF561730D
:1018B00006E0013303EB830303EB830303F561735A
:1018C00091F89EC49BB20CF1040C26F81C30043134
:1018D0007145D9D1030740F15F819AF84062082E23
:1018E00000F25481DFE816F009000C0013004400F8
:1018F000650086008600C8002A0145F2F05201E02A
:1019000042F6F822744B1A8013F033FB3DE142F6A5
:10191000F821714B120119800A2392FBF3F26F49EF
:10192000A2F5B062002341F823200133122BFAD133
:101930006B496C4A402011606B4A13700BF0C4F87D
:101940000646002800F022810EF04AFC9AF8413247
:1019500096F900E0002B0CBF0622072200280CBFDE
:1019600001230323019200930646604B604AA2E0E4
:1019700042F6F822584B40201A805E4A594B1A60B2
:10198000594B10221A700BF09FF80646002800F001
:10199000FD800EF025FC00280CBF0123032300224C
:1019A00096F900E00192009306464FF4E133524A63
:1019B00081E042F6F822484B40201A804F4A494BBA
:1019C0001A60494B08221A700BF07EF80646002870
:1019D00000F0DC800EF004FC00280CBF0123032380
:1019E000002296F900E00192009306464FF4E1339D
:1019F000434A60E042F6F822374B4FF00C0E1A8053
:101A0000394B40484049414A83F800E0062E4FF0E8
:101A1000000303700B7013700BD03D4B1B221A7028
:101A20003C4B052283F800E03B4B4FF4E13A1A703F
:101A300009E0374B21221A70364BDFF8FCA083F8FF
:101A400000E0354B1E70354A264B40201A600BF0E3
:101A50003BF80646002800F099800EF0C1FB0028F4
:101A60000CBF01230323002296F900E001920093AA
:101A7000064653462A4A1EE044F62062164B402092
:101A80001A80284A174B1A60174B0A221A700BF05B
:101A90001BF80646002879D00EF0A2FB00280CBFE8
:101AA0000123032396F900E00646002201921E4A14
:101AB00000934FF4E133402170460AF071FF002E8D
:101AC00060D01A4B18605DE078120020740D002081
:101AD00080120020B43000208A090020C0100020AD
:101AE000D995000870040020E0360020A08601008F
:101AF00035980008999500083997000881950008E5
:101B0000F19600084E10002025110020241100201D
:101B1000261100204D10002027110020C19400083C
:101B20001D9600081D1101080D120108E83600205D
:101B3000AC1200202C0D002090D0030041F27C520A
:101B4000764B00261A80764A764B40201A60764BF8
:101B500010221A70754B28221E70754B1A700AF0ED
:101B6000B3FF98B1032390F90000724A01960093E5
:101B70004021714B0AF014FF704E012130600DF0CE
:101B8000F2FB3068003018BF012028B9082006F0A9
:101B9000D9FC6B4A634B1A6042F20103D9F800206A
:101BA000614913408BB144F620605C4B9604188069
:101BB00004D508230B7063485A4B1860D00704D52E
:101BC0000C230B706048574B18600B78043B4B702C
:101BD000910552D55D4A4FF00A0A9369002643F0F9
:101BE0000103936195F8240006F0B2F9584A1221D6
:101BF00010600222C27180F806A0067206F0CEF9CB
:101C000095F8250006F0A4F983460123C37180F8F6
:101C100006A006720621C5F8300106F0BFF94D4B4B
:101C20004D498022C5F834315846102306F0CAFBCE
:101C3000584613F0E5F8494B494A1B6849483C3B74
:101C40001360D8F80030C82243F01003C8F8003001
:101C50004FF4C873A5F83831434B1A8014F0C6F915
:101C6000424B4349186015F005F915F0DFFA414B76
:101C70004FF0FF321880404B1A60404B404EDFF867
:101C800014A1C6F83C31D9F800300025DA038AF8EF
:101C9000005040F1108113F0A7FD4FF0010840F211
:101CA0002A32294606F5A0708AF8008018F0E8FA72
:101CB000DFF898A0334BDAF81410D3F8882015A871
:101CC0000A43CAF81420304AC3F88C50C3F8802065
:101CD00093F885308DF855808DF854308DF8565036
:101CE0008DF8578012F076FF162006F031F9162293
:101CF00082710222C27105721B21C6F86C0406F0C3
:101D00004DF922482249EB0001F1BC0E5EF8352066
:101D1000824241D10B4493F8C00041E08A0900207F
:101D20000911010870040020E0360020282B002053
:101D3000292B00202D11010848E801007C0E00200D
:101D400009960008FD1001080D96000800100240D9
:101D500040380020EDB400081C060020AC12002022
:101D60003C380020D253FB3FF8370020F0370020EA
:101D70000000C84300380020F437002098330020CA
:101D8000E804002088030020E9AF000800040040B8
:101D9000A8A30108F03800200135042DB2D100209D
:101DA00012F0FAFEC24BC3491B68C34DB3FBF1F3FB
:101DB0002988013B21F45C710904090C29804FF04A
:101DC000010B9BB21D21A9852B85A5F814B02B8C86
:101DD0004FF0000823F001031B041B0C2B842B8CF9
:101DE000A888298B23F0020321F0730109041B0446
:101DF000090C1B0C41F0600180B243EA0B03A88080
:101E00002983A5F834802B842B8B23F008031B0433
:101E10001B0C43F008032B83B5F844306FEA4343AF
:101E20006FEA53439BB2A5F84430DAF8143043EA22
:101E30000B03CAF81430DFF8CCA2504607F0FCFEC2
:101E400015A807F0CEFE9D4B15A915939C4B504647
:101E500016931023179340F22A33189380231A9372
:101E60004FF480731B934FF400531E93CDF864809E
:101E7000CDF87080CDF87480CDF87C8007F0BEFE80
:101E8000AB8990499BB243F40073AB81DAF8003020
:101E9000FF2243F00203CAF8003086F870B47B18C2
:101EA00027F801800437802F9A70DA70F7D109F093
:101EB00095FE09F093FED9F800305B0553D5824FAB
:101EC000824B3A6804201A600AF0FEFD0421C6F82D
:101ED00074040AF0CFFD3A687D4B86F87804082038
:101EE0001A600AF0F1FD7B4B082118600AF0C2FD70
:101EF000794D002186F879042C22284618F0C0F983
:101F00007C232B708E236B70E023EB707D233A686B
:101F100085F82B30714B20201A600AF0D5FD202166
:101F2000C6F87C040AF0A6FD86F8800410200AF0AA
:101F3000CBFD1021C6F884040AF09CFD684B3B22BF
:101F40001A7001225A703A221A719F229A711E2227
:101F50001A72A4225A7200229A72DA721A7386F8DE
:101F600088040EF04AF95F4B5F4D1B78022B7AD143
:101F70002F88002F77D10F23A3710E231321E37134
:101F800020462772C6F88C4406F008F8204606F072
:101F9000E8F9564A3220138823F040031B041B0C37
:101FA0001380138823F038031B041B0C1380138841
:101FB0009BB243F0400313809F238DF834308DF89B
:101FC00035708DF836708DF8377012F029FA20468A
:101FD0008DF8557006F0C0F904220DA915A812F06D
:101FE000ABFE204606F0BDF99DF856309DF8552011
:101FF0001B0243EA02429DF8573013433C4A934286
:1020000017D00CDC3B4A934215D00132934217D0D3
:10201000A2F51A42033A934220D120230CE0364A1B
:10202000934208D0013293420AD0344A934215D1E8
:1020300001E0402300E080232B804FF4807302E016
:102040004FF480732B806B80AB882A881B02AB60B7
:102050005343EB60012386F8903404E000232B8087
:102060006B80AB60EB60ED68002D4DD0ED0A2E4625
:1020700000270DF15408AF4208DA7C1964101022D1
:102080004146E00209F06EFD0F2805DC0BF034F844
:102090001B4BF6021E6037E0002358F82320013264
:1020A00040F084800133042BF7D125462646E2E731
:1020B0004004002000366E0100040040340400405B
:1020C00028060020F2380020A0150020F40D002082
:1020D000340E0020500E0020040E0020680E002058
:1020E000B4360020A92300206003002000380040FF
:1020F0001620C20017BA20001740EF001720C200B8
:102100000C1300206C000240704C714AB4F8DC31B2
:102110005269013B9BB2052B9EBF012384F8EA3133
:1021200084F8DE3194F8EA3153436A4A1360D9F8EF
:102130000030694A13F4002318BF01231370637938
:10214000052B02BF654B4FF4C8721A8007F012FED0
:10215000634BC8221A80634A137843F00803137054
:10216000614A137823F00203137040F602025F4BBA
:1021700019680A406AB15E495E4A11605E4A0321ED
:1021800011705E4A012111705D4900220A805D498B
:102190000A80A2681A605C4B01221A705B4A1378AD
:1021A00063F07F03137021B0BDE8F08F671C3446E5
:1021B0007CE7574B00221A7000B214F007FE554915
:1021C00014F058FE414D0746B5F9D00114F0FEFD5C
:1021D000504914F04FFE0646B5F9D40114F0F6FD4F
:1021E0004C4914F047FE4C490546384614F03AFD78
:1021F00013F0FCFE8146384613F0F8FE46490746C8
:10220000304614F02FFD13F0F1FE8046304613F0F7
:10221000EDFE41490646284614F024FD13F0E6FE83
:102220008346284613F0E2FE49468246584614F09B
:1022300021FE49460290504614F01CFE5946039078
:10224000384614F017FE51460490384614F012FE3A
:1022500041460590584614F00DFE304D5146286019
:1022600008F1004014F006FE04996860AE60304644
:1022700014F000FE039914F0F5FC0599E86030466F
:1022800014F0F8FD0146029814F0EAFC414628617A
:1022900007F1004014F0EEFD02996861304614F039
:1022A000E9FD0146059814F0DBFC0399A86130466E
:1022B00014F0E0FD049914F0D5FC4946E86140466D
:1022C00014F0D8FD2862FEF7B9BF00BFB43000207B
:1022D000302400206C13002046150020BC0D002087
:1022E000DC370020790E0020482D00207C120020D1
:1022F000CA320020E0110020902B00203C04002076
:102300007C2E00207E2E0020200C0020A023002008
:102310008400002035FA8E3CDB0FC93FBC11002041
:102320002DE9F04FAC4BA3B01B68AC4CD3F8288020
:1023300012F038F82368AA4EC01A308012F032F832
:10234000A84D20602B78012B05D1A74B32881A802D
:10235000A64A12885A8012F025F8A54F0646B946BB
:10236000FB685BB912F01EF82368D9F81420C3EBA0
:102370000803184450329042F2D302E098470028F4
:10238000F0D02B78072B04D112F00CF8964B801B61
:1023900018802379002B01F09D8012F003F8944BF4
:1023A00008909B680BB193489847934B93491B68DF
:1023B00013F0080F059339D0914B924A9C8804F191
:1023C0000E039BB21C2B904BB3F904302AD88F48D4
:1023D0000088460726D50A2093FBF0F012888C4B24
:1023E000801A80B202B212F1B30FBCBF00F5B47014
:1023F00002B2B32A1B78C4BFA2F5B47212B21D0791
:1024000014D591F9D801834B404242431B6812B264
:102410005B7A5A436FF01D0392FBF3F3784A23442F
:10242000938003E00A2093FBF0F313807A4BB3F917
:1024300006607A4B1D68688986420CDBB6F5FA6F38
:102440002A7ABFBF331A5343C0F5FA6293FBF2F204
:10245000C2F1640200E0642291F82632B1F84872B9
:10246000069391F82732DFF89881079391F9D831D4
:1024700000245B429BB2099340F2E631684B4FEA7D
:10248000440AE254644B33F91490C7EB090000F29C
:10249000F3138B423BD80028B8BF4042022C3AD0FD
:1024A000069B984202DD069BC01A00E000200B92BA
:1024B00014F08CFC5B4914F091FD8346A87814F06D
:1024C00081FC59460A90584614F0D4FC564914F041
:1024D000C7FB0A9B0146184614F0CCFC534914F084
:1024E000C1FB594614F0C6FC8346287814F06AFCF8
:1024F0000146584614F0BEFC4C4914F06FFD14F030
:1025000095FEB94528F80A000B9A3BDB3FE0022C08
:102510004FF4FA70C7D1079B0B928342B4BFC01A25
:10252000002014F053FC3F4914F058FD8346687AAC
:1025300014F048FC59460A90584614F09BFC3A495E
:1025400014F08EFB0A9B0146184614F093FC3749A1
:1025500014F088FB594614F08DFC8346687814F01B
:1025600031FC0146584614F085FC304914F036FD24
:1025700014F05CFE099BB94500FB03F00B9AA8F828
:10258000040008DA3AF808305B422AF808300134CF
:10259000032C7FF471AF264B184C186810F4805050
:1025A0000ED0B6F57A7F06DBB6F5FA6F3246A8BFD5
:1025B0004FF4FA6201E04FF47A72A2F57A7242E0C7
:1025C000B4F84A128E4235DBB6F5FA6F3246A8BF30
:1025D0004FF4FA622FE000BF701200208009002043
:1025E0008E2B002002120020041200200C1000206C
:1025F000302400208609002028240020B430002048
:102600004C130020C20D002054130020402D002048
:10261000790E0020101300208012002004100020EA
:10262000681300200000C8420000C84100401C455B
:102630007C1200200A46521A4FF47A735A43C1F5AD
:10264000FA61B2FBF1F2642392FBF3F1DFF828E3C5
:1026500001F1010C3EF911503EF91CE06FF0630CE2
:102660000CFB0121C5EB0E0E01FB0EF292FBF3F207
:102670005319A54A9BB2D380A8B1A4490968C800E0
:1026800011D5A349C97871B9A3F57A731BB24FF478
:102690007A711B0393FBF1F3C7F5FA6109B24B435F
:1026A00007EB2337D7809B4B1F88790644D59A4B7D
:1026B0000A20B3F9043093FBF0F0984B1B88C01A42
:1026C00000B214F083FB964914F0D4FB95490546FB
:1026D00014F0C8FA13F08AFC8246284613F086FCF0
:1026E000894D8046B5F9020014F070FB8146B5F9BA
:1026F000000014F06BFB5146834614F0BBFB4946C7
:102700000690404614F0B6FB069B0146184614F0AE
:10271000A7FA14F08BFD51462880484614F0AAFB16
:1027200059468146404614F0A5FB0146484614F040
:1027300099FA14F07BFD6880059B7B4D13F0140F14
:1027400069D017F4027F66D0784B6F4A1B7803F08C
:10275000100303F0FF0043B1754B94F99802196818
:10276000538800FB0133538055E0724B72491B685C
:1027700093F803E09B78BEF1000F20D0B1F900E0A0
:10278000CEEB06010029B8BF494299420CDD6B49E6
:10279000764508604FF001012972C8BF5B42D188BD
:1027A0009BB20B44D38036E02B7A23B1644B287262
:1027B0001968644B19605E4B1B68734420E0B1F9E3
:1027C0000000311A81EAE17CACEBE17C9C4509DD3B
:1027D000022391FBF3F15C4B19605C4B01211970F2
:1027E00029720AE02B7A43B1554B85F808E0196845
:1027F000544B1960554B83F800E04D4B1B68034464
:1028000053490868018840888B4203DB984201469F
:10281000A8BF1946D1804F4B1B78B3B1B4F84A32E8
:10282000B34212DB4C4B5B79012B01D0192B02D147
:1028300094F893224AB90E2B07D0082B05D0324BBF
:1028400000229A80454B00229A6094F81482B8F1D5
:10285000000F2DD0BA072BD0414B42491E6A30469B
:1028600014F0B0FCF8B9304615F0D6FA3E4B1968B2
:1028700014F000FB15F056FAB0F5617FA8BF4FF4D5
:10288000617014F0A3FA394914F0A8FB13F0AEFB01
:102890000646404614F09AFA314614F0EBFA15F069
:1028A00041FA00B200E00020174AD3881844D080D3
:1028B00094F84E322E4A23B916490988002900F0AF
:1028C000AE801278104F002A00F08C80022B09D0C5
:1028D000032B53D194F84F32C3EB431203EB820323
:1028E000DB000FE0234BD3F8F820B2F57A7F05DB4D
:1028F00044F620639342A8BF134601E04FF47A7375
:1029000003F57A739BB23AE04C130020442D00206B
:10291000B0120020402D002054130020C40D0020D0
:1029200035FA8E3CDB0FC93F80090020790E00206C
:1029300034380020E0150020C80D00203038002079
:102940001C38002024380020283800203838002087
:10295000E415002080030020B43000204013002044
:102960001C3000208FC2753CD4150020EFB6B04457
:10297000C60D0020880000202E1500206B89B34A68
:102980001068B34AB3FBF0F01278461C36B2092A3D
:10299000AE8105D1AF4A3988D380118079885180C2
:1029A000B5F90EA0DFF8C8B20023DFF8ACE23BF9BE
:1029B00013800EF1100939F913100EF1180C0AFBEF
:1029C00001F191FBF6F13CF813202CF81380C2EBD7
:1029D00008020A4429F813200133042BE5D1AEF88C
:1029E0000E0002E0EB89013BEB819B4A0023B2F928
:1029F0000E60002E11DDB2F90CE01832974932F862
:102A0000130031F91310714391FBFEF1411A27F8BD
:102A100013100133042BF1D106E0D38104E01378C5
:102A2000E981002B00F0858094F8500220B18C4B96
:102A30001B689B0001F134838A4B00261B6803F45A
:102A400000030593884BD3F80080884B1B6893F8EC
:102A500000B0874B4FEA860A33F91650059B08EB06
:102A60000607002B01F08B83022E41F07A83002DA4
:102A7000CCBF2846684214F0A9F9814698F80100B5
:102A800014F0A4F97B4914F0A9FA7B4914F0F2F987
:102A90000146484614F0A2FA8146784A42F80A00F4
:102AA000787914F093F9734914F098FA494614F0C0
:102AB000E1F901464FF07E5014F0D2F87049074614
:102AC00014F076FB002841F057834FF07E513846D2
:102AD00014F08CFB08B14FF07E571B20684314F0B4
:102AE00075F94FF0765114F0C5F9394605464FF0A7
:102AF0007E5014F073FA0146284614F0BBF90546DF
:102B0000BBF1000F41F064835E4914F051FB0028D3
:102B100041F070835C49284614F068FB00B15A4DBF
:102B20005A4B0136032E43F80A5092D1584B0022DB
:102B30001A70584B484D1878002840F0BF84494F10
:102B40003B681E0340F1BA84534E3378033B052B98
:102B50001AD894F8493533B1012B08D108F018FF81
:102B6000C0F17F0003E0A86A03689B689847EB6A9E
:102B700095F830201344B3F5807FA8BF4FF48073DD
:102B80008342D4BFEB62E8623378023B092B00F248
:102B90009084DFE813F00A00130042008E048E04D4
:102BA00089009A004504680473040023EB626B6398
:102BB0003A4B1B68AB63032300F07ABC374B1A68AF
:102BC000AB6B6433934280F07484402012F064FE57
:102BD000002840F06E84DFF8C8801F4C40276B6BE4
:102BE00018F8030058B112F031FFE36A013F03F116
:102BF000FF33E362636B03F101036363EFD16A6B3D
:102C00002749154B8A5C002A40F053845A634FF0E1
:102C1000FF329A63042300F04BBC224A5021A2F1F8
:102C20000C0301932A23029200934920A2F10A0384
:102C3000163A0AF0B1F9002840F03B844FF0FF3318
:102C4000AB636863072300F033BC00BF6C13002044
:102C500002120020041200208009002090090020A8
:102C6000442D00207C1200200410002010130020AE
:102C70004C1300200000C8420000FA43AC140020AE
:102C80000AD7233C00F0FFC500F0FF4540130020A9
:102C9000C60D00200813002046150020AC120020AD
:102CA00014A501088AA5010805230093A74B00215C
:102CB00002910191A3F1080253200AF06DF9002856
:102CC00040F0F78368630823F2E3402012F0E4FD4C
:102CD000002840F0EE836A6B9D4B4C2A01F29082F3
:102CE000DFE812F04D005000550059005C00620012
:102CF00066006A006D0071007C008400880094000A
:102D000097009B009F00AE00BD00CC00DB00EA00F6
:102D1000F900080117012A017E018B019801A50124
:102D2000B201BF01CC01D901E601EF01FE010702AA
:102D3000180229023A024B0254025D0266026F0237
:102D4000780281028A0293029C02A502AE02B702B7
:102D5000C002C902D202D602DA02DE02E202EE02AA
:102D6000FA0206031003140318031C0376037A0304
:102D70007E03820386038A038E03920396037549BA
:102D8000754847E3754B764A76497748A5E1774A17
:102D90007749784837E0784978483BE394F8482504
:102DA00094F8471576482EE0B4F8D010754831E312
:102DB000B4F8D21074482DE3196974482AE3744BAF
:102DC0007448198926E3EB6BD90403D594F81612DD
:102DD00071481FE3714B0B225A631DE394F81932BB
:102DE00094F81B2294F81A126D4876E1B5F8401059
:102DF0006C480FE33B681A0540F10E83B4F91E22BC
:102E0000B4F82012684812F0FCFE05E359696748DF
:102E100000E394F8DE116648FCE294F8EA11654894
:102E2000F8E294F89C2464235343E21892F81224A5
:102E30000C2101FB02331C4494F814145E48E9E2AF
:102E400094F89C2464235343E21892F812240C2132
:102E500001FB02331C4494F816145848DAE294F843
:102E60009C2464235343E21892F812240C2101FBA2
:102E700002331C4494F815145148CBE294F89C2476
:102E800064235343E21892F812240C2101FB02330D
:102E90001C4494F81D144B48BCE294F89C24642311
:102EA0005343E21892F812240C2101FB02331C4414
:102EB00094F817144448ADE294F89C2464235343D7
:102EC000E21892F812240C2101FB02331C4494F8FE
:102ED00018143E489EE294F89C2464235343E2185D
:102EE00092F812240C2101FB02331C4494F81C14A8
:102EF00037488FE294F89C2464235343E21892F8F5
:102F000012240C2101FB02331C44B4F81E14314876
:102F100080E294F89C2464235343E21892F812242C
:102F20000C2101FB02331C4494F81B3494F81A243E
:102F300094F819142848D0E094F89C34642202FBD9
:102F40000344264894F8D41364E200BF74A7010830
:102F50003024002090C601089CC60108ADC60108B7
:102F6000B2C60108BAC60108C0C60108E8C6010811
:102F7000F1C60108FDC601080A36002011C7010884
:102F80001FC7010830C701083FC701084EC7010825
:102F9000AC2300205EC7010868C701088009002033
:102FA00075C701088EC7010899C70108ACC7010899
:102FB000B8C70108CBC70108E0C70108EAC7010884
:102FC000F4C7010801C801080EC8010818C80108A3
:102FD00023C8010830C8010842C8010851C80108C7
:102FE00094F89C34642202FB0344CE4894F8E933FD
:102FF00094F8DF2394F8D5136FE094F89C3464229E
:1030000002FB0344C84894F8EA3394F8E02394F8A8
:10301000D61362E094F89C34642202FB0344C34854
:1030200094F8EB3394F8E12394F8D71355E094F82F
:103030009C34642202FB0344BD4894F8EC3394F8BA
:10304000E22394F8D81348E094F89C34642202FBFD
:103050000344B84894F8ED3394F8E32394F8D91373
:103060003BE094F89C34642202FB0344B24894F899
:10307000EE3394F8E42394F8DA132EE094F89C34B9
:10308000642202FB0344AD4894F8EF3394F8E5233F
:1030900094F8DB1321E094F89C34642202FB03448F
:1030A000A74894F8F03394F8E62394F8DC1314E07E
:1030B00094F89C34642202FB0344A24894F8DD1384
:1030C000A8E194F89C34642202FB03449E4894F8DF
:1030D000F23394F8E82394F8DE1312F092FD9BE1AA
:1030E00094F89C34642202FB0344984894F8F31348
:1030F00090E194F89C34642202FB0344B4F8F40396
:1031000013F064FE924913F0B5FE14F08FF80146F7
:1031100090487FE194F89C34642202FB0344B4F8A5
:10312000F60313F053FE8A4913F0A4FE14F07EF860
:10313000014689486EE194F89C34642202FB034402
:10314000B4F8F80313F042FE814913F093FE14F033
:103150006DF8014681485DE194F89C34642202FBDD
:103160000344B4F8FA0313F031FE794913F082FEF8
:1031700014F05CF801467A484CE194F89C346422DF
:1031800002FB0344774894F8FC1343E194F89C3421
:10319000642202FB03447448B4F8FE133AE194F845
:1031A0009C34642202FB03447048B4F8001431E1FB
:1031B00094F89C34642202FB03446D48B4F8021472
:1031C00028E194F89C34642202FB0344694894F893
:1031D00004141FE194F89C34642202FB0344664803
:1031E00094F8051416E194F89C34642202FB03441D
:1031F000624894F806140DE194F89C34642202FBB2
:1032000003445F4894F8071404E194F89C34642262
:1032100002FB03445B4894F80814FBE094F89C34E8
:10322000642202FB0344584894F80914F2E094F82D
:103230009C34642202FB0344544894F80A14E9E0E5
:1032400094F89C34642202FB0344514894F80B1414
:10325000E0E094F89C34642202FB03444D4894F867
:103260000C14D7E094F89C34642202FB03444A48CF
:10327000B4F80E14CEE094F89C34642202FB0344AC
:103280004648B4F81014C5E094F826124448C1E04A
:1032900094F827124348BDE0B4F8DC114248B9E085
:1032A00094F8DF114148B5E094F8E00113F08EFD89
:1032B000274913F0DFFD13F0B9FF01463C48A9E0B0
:1032C000B4F8E20113F082FD214913F0D3FD13F0AD
:1032D000ADFF014637489DE0B4F8E40113F076FDF8
:1032E0001B4913F0C7FD13F0A1FF0146324891E0DE
:1032F0001749D4F8F80113F0BDFD13F097FF01460C
:103300002E4887E094F8D9112D4883E094F8EE1107
:103310002C487FE094F8ED112B487BE094F88D1257
:103320002A4877E062C8010873C8010885C8010807
:1033300095C80108A5C80108B5C80108C6C8010894
:10334000D7C80108E9C80108D9C80108F3C80108AD
:103350000000C84208C9010818C9010826C90108A7
:1033600038C901084EC901085DC9010879C90108B9
:103370008FC901089EC90108B5C90108CEC9010855
:10338000E2C90108F3C901080DCA010828CA0108E9
:103390003DCA010854CA01086BCA010880CA010865
:1033A00096CA010892CA0108A2CA0108AECA010859
:1033B000C0CA0108D3CA0108E4CA0108F9CA010851
:1033C00007CB010817CB010828CB010838CB01082F
:1033D00094F84E1291481DE094F84F12904819E06D
:1033E000B4F852128F4815E094F840128E4811E05C
:1033F00094F8E5108D480DE094F8E4108C4809E04D
:10340000B4F8E0108B4805E094F8EB118A4801E02D
:10341000A1688A4812F0F5FB6B6B01336B6348E0DF
:10342000874B1B689B011BD5B5F84430854CBBB955
:10343000854BD4F8488045201F6812F007FB0E200A
:1034400012F004FB404612F0BCFB384612F0B9FB08
:103450004FF48053A4F842300A23337009F0A2FEDF
:1034600009F07CFD25E095F84C30002BF6D0744B2C
:103470001B689F01F2D409233370F1E7734B1A687C
:10348000AB6BC833934203D294F849457CB904E04E
:1034900012F048FA0028F7D10BE0A86A09F06CFA9C
:1034A00095F84D30AC62022B01D111F0DDFC012307
:1034B000337012F021FA08B101233370644B1B788A
:1034C000072B05D110F06EFF089BC01A614B588086
:1034D00000232B71604C13AD636828469847A046C3
:1034E000002800F050815A4A5A4F147807925B4ADC
:1034F0000023032C08BF52F823004FEA830108BFC2
:1035000027F8130035F913000133032B534E5050A5
:10351000EFD1534B51491A78084606F03FFC514B06
:103520001B88002B00F0CB804F4B504D1B6805F1E2
:103530000C041B78002705934A4BD8F814201B88ED
:1035400056F8270006934FF47A73B3FBF2F3C3EBFC
:10355000431203EB8203DB00069A9BB29A4202BF3E
:1035600000232B6023612B684FEA870A03442B60FA
:1035700013F02CFC226902F10109B9F1010FC4F822
:10358000109004D1002360602060A36022E02268D4
:1035900009901146089213F063FB8346484613F0E6
:1035A00015FC0146584613F019FD089A114613F010
:1035B00059FB099B014681466060184613F050FB99
:1035C000594613F057FCA16813F04CFBC4F8009067
:1035D000E060A060264A002346F80A304AF802302C
:1035E000069B012B5AD12069012807DD013813F011
:1035F000EDFB0146E06813F0F1FC00E0002014F060
:1036000051FE059B8146ABB3184613F0DFFB4946DC
:1036100013F0CEFD70B306F0ADFB50E051CB0108C6
:1036200065CB010882CB01089FCB0108B4CB010810
:10363000C9CB0108DECB0108F0CB0108FECB0108A5
:10364000442D002080090020D4370020AC12002037
:103650000212002004120020302400205C130020FD
:1036600014250020AC1100209C150020D00900205A
:10367000180A0020D8F814204FF47A73B3FBF2F341
:10368000C3EB431203EB8203DB002A689BB202EB1D
:10369000530292FBF3F3A44A42F80A300137032F96
:1036A00005F1040504F114047FF446AF9F4C208813
:1036B000012801D109F0F2FA2388013B23809A48BE
:1036C000002356F8232050F82310994C521A46F83C
:1036D00023200133032BF4D1964B974F1A78984649
:1036E000002A44D0DFF8A8B2DFF87C92002456F814
:1036F000240013F06BFB914BA5001B8801462BB1F6
:103700001C2000FB04B012F0DFFC0146079B1B7875
:10371000082B0DD1022C0BD07259084625F8092030
:10372000059114F0FFFA05EB090A0599AAF80200C1
:10373000834B1B78012B06D1824B1C2000FB0430ED
:1037400012F0C2FC0AE0804B80484FF00C0E1B6860
:1037500098F800200EFB040012F0A2FD7851785971
:1037600014F0E0FA0134032C7051C0D10BE0206852
:1037700013F02CFB3860606813F028FB7860A068B9
:1037800013F024FBB860724A92F8C830144623B193
:10379000013B82F8C83000F03FBD6E4B93F8E0214A
:1037A0001E4622B193F8EA31013BDBB200E001236F
:1037B00084F8C83010F0F6FD674B684DD3F80080F0
:1037C000674BB6F82A12A3F1460207462868C0479D
:1037D000644B1A781E46072A04D110F0E3FD624BB1
:1037E000C01B988010F0DEFD96F800A00690BAF19C
:1037F000010F0AD15D49D4F8CC305B4A0968C31A7D
:1038000093805B1AD380C4F8CC00594B2A681B689C
:10381000E3B192F83140D4B1564A1268940718D5F2
:10382000554A1278012A14D9DB7854495A43098839
:10383000D31A994215B203DB91420B46A8BF134637
:103840002D031BB295FBF3F5012405E01C4625462C
:1038500002E001244FF48055494BDB780E932CB1E4
:10386000BDF954306B431B13ADF854304FF00008D2
:1038700046464746434BDFF81C911B780593424B65
:10388000B3F902200992B3F90020B3F904300A9287
:103890003E4A07931268344B0892059A97427BD2AE
:1038A00009980B9313F092FAD9F8081013F0E2FA82
:1038B00083460A9813F08AFAD9F8041013F0DAFA5A
:1038C0000146584613F0CEF9089B834693F9000051
:1038D000079B4042584313F079FAD9F80C1013F0C3
:1038E000C9FA0146584613F0BDF913F09FFC15AA1A
:1038F00000B20B9B0CB16843001322F8170015AA05
:1039000032F91720B24203DC9045A8BF904600E090
:103910001646BAF1050F03D1042F98BF23F81720DC
:10392000013709F11009B8E7180A0020AC1100208E
:103930005C13002048240020A01400205024002004
:10394000A8240020AC24002000250020240A002008
:1039500080090020B43000208403002010130020D0
:10396000EC32002002120020041200206C13002010
:10397000E01100207C1200203C0400202C120020CA
:10398000B01200206B13002088130020B015002017
:1039900054240020500A0020864BC8EB06081A6801
:1039A0000FFA88F812F4805308938349834C39D076
:1039B000834B84481B78B1F9066013F0040F01BFF4
:1039C00003681D8A804BA3F8905103687E481F8AC4
:1039D0007E4B1B68D9887D1AAE4205DCB3F9001016
:1039E0002368B3F9004008E039448E42734C07DB8A
:1039F0002168B3F90240B1F90210A0F8906118E013
:103A0000B0F990118D42ABBFB3F900102168236863
:103A1000B3F90240A7BFB3F900400E46B1F9021056
:103A2000264606E02368B1F90660B3F90040B3F911
:103A3000021089B2A4B20B1B1BB29845624819DD73
:103A40001F0397FBF8F70021C0F89471059D8D4284
:103A500009D90DF1540E3EF911507D432D132EF866
:103A600011500131F2E7022193FBF1F31C4424B21F
:103A70000B9408E0022398FBF3F8C8EB01014444DF
:103A80000BB224B20B93B0F990314C490D930F68EF
:103A90004C4B4B49D3F800A00D784C4B4C49D3F814
:103AA00000B0B1F9063005F004050C93059BDFF872
:103AB00038815B000F9302F01003EDB24FF0000964
:103AC00010930F9B99454CD015AA39F80220304627
:103AD000119213F07BF93F4B53F8391013F0CAF9E8
:103AE00013F0A4FBA0422146119A04DB0B9B8342F6
:103AF000A8BF034619460A440E9B12B228F8022FAB
:103B00000BB1B98811E0089B73B1BAF81010BBF87B
:103B100006000D9B091A8B4203DC3988BBF80000B4
:103B200004E0BBF8021000E0398878888A4203DBA1
:103B300090420146A8BF1146109BA8F800106BB137
:103B400065B1089B53B909F083F838B9BAF8122067
:103B50000C9B9342BCBFBA88A8F8002009F1020967
:103B6000AFE715B91C4B1D4A06E0174B93F8982197
:103B7000192A00F2418108E00599A942F5D932F8E5
:103B8000151023F815100135F6E7012303FA02F2A8
:103B9000134B1340002B00F02F81124B1B88D805CC
:103BA00024D5054B1A88ADF86C205A889B88ADF84F
:103BB0006E2030E07C1200204C130020902F00205B
:103BC000482D0020B4150020800900208C2F0020F3
:103BD00080120020500A0020D02E00204C300020FF
:103BE00032413003402D0020CE2E0020BDF8283079
:103BF000ADF86C30BDF82430ADF86E30BDF81C3037
:103C0000ADF87030089B43B1BAF810300C9A9A4264
:103C100003DA079B5B42ADF87030AA484FF47A7222
:103C2000B0F902304FF4616103F5E163534393FB54
:103C3000F1F3A3F5FA73ADF88430B0F9003003F571
:103C4000E1635A4392FBF1F29F4BA2F5FA721B8893
:103C5000ADF88620A3F2DC53ADF872309B4B9C4A42
:103C60001B6811881B8AC91AADF874105188C91ACB
:103C7000ADF876109188C91AADF87810D188C91AB4
:103C8000ADF87A101189C91AADF87C105189C91A9A
:103C9000ADF87E109189D289C91AD31AADF8823055
:103CA0000023ADF8801019468A4A22F81310013318
:103CB000082BFAD1884B89491B68894D0593894B9C
:103CC000DFF810A21B684FF0640E0793864B4FF08D
:103CD00001091B78C3EBC303CB180A930A9B8B42E1
:103CE00070D00B782BB11533059A09FA03F3134002
:103CF00064D0079B11F806CC0E2202FB0C38B8F9F1
:103D00000230B8F9002011F9010C9A1A11F9023C9D
:103D100092B2534393FBFEF34FEA520B11F8057C2A
:103D2000CBEB0303099011F8030C1BB208937E0040
:103D300028B922A8064436F81C0C288019E022ABCA
:103D40001E44B5F9004036F91C6CB44208DA204430
:103D5000844203DC86423446A8BF04462C8008E037
:103D600007DD201AB04203DB8442A8BF0446264682
:103D70002E80D8F80A0009FA07F73842B5F9006032
:103D800011F9040C089B00FB06F090FBFEF00CBF41
:103D900001244FF0FF34984209DB099B5A4392FB00
:103DA000FEF2CBEB02031BB28342A8BF03463AF8F4
:103DB0001CB004FB03B32AF81C3000E02B80023552
:103DC00007318BE7474B494ED3F8008000254FF071
:103DD0000E09642709FB058393F9064036F9023F73
:103DE000E8B25C4394FBF7F4348010F00FF901352E
:103DF0002044082D3080EDD13D4EDFF8E880336857
:103E000013F0200F31D0002010F000F9314C05469E
:103E10002080012010F0FAF82F4B60801B681906F3
:103E200023D5344B274A1B681B78012B23D1D8F8A4
:103E300000C0B2F902109CF906304FF0320E5B421E
:103E40004B4393FBFEF3B2F900209FB29CF9143070
:103E50006FF03101534393FBF1F193FBFEF33944CF
:103E6000691A3B44218018446080D8F800301F4A0A
:103E700003F1700419E0D8F80070B2F9023097F934
:103E800006105943322391FBF3F12944218097F91D
:103E90001450B2F9001001FB05F292FBF3F210444A
:103EA000E2E70E339C42118026D032F9020FB3F9BB
:103EB0000010B3F902508842F3DB85422946A8BFBF
:103EC0000146EEE754130020D02E0020B415002048
:103ED00080120020400C0020442D00209B2F002049
:103EE0001A0B00200C300020942F00203E0C0020E4
:103EF0007C120020AC150020A54FA64D3B6893F91D
:103F00000430ABB995F8988108F1FF33182B00F213
:103F10009280DFE803F05090906B909090649090C6
:103F20009090907690909090906B839090765000C7
:103F3000A9460023DFF864B2A5F8BA31B5F9BA4151
:103F4000072CDFDC99F8BC21DFF87CA272B93A6853
:103F5000508812F037FF904A01461C20126800FB7F
:103F600004A012F069F9012289F8BC213BF9140080
:103F700012F02CFF01461C2000FB04A012F0A4F854
:103F800013F0D0FED8F800100E2202FB041200B28B
:103F90002BF81400B2F90010B2F90220884203DBBA
:103FA0008242A8BF024611467C4B23F8141001340C
:103FB000A5F8BA41C2E73B685B781BB1774B00209C
:103FC000598908E0764B1B7803F0040303F0FF01E6
:103FD000002BF3D1084603F09FFF01242CE06F4C27
:103FE0000020E18803F098FF218905E06B4C002058
:103FF000218903F091FF6189012003F08DFF0224E4
:104000001AE0664F0224A01E37F81410C0B2013423
:1040100003F082FF082CF6D106240DE05F4F032445
:10402000E01E37F81410C0B2013403F075FF072CFE
:10403000F6D1042400E0002433689A0602D4B8F1D3
:10404000050F0BD1554F2046398803F065FF601CE2
:104050007988C0B203F060FF0234E4B23368DB0257
:1040600005D495F8A03273B10FF026FF0BE04D4F49
:104070000026A01937F8021FC0B203F04DFF0D2E25
:10408000EFD00136F5E7484B1B78072B05D110F030
:1040900089F9069BC01A454BD88001232B71BBE0E0
:1040A000434B1B885F063EF5C7AC3A4E414F96F82E
:1040B0002030834211D086F8200012F087FE3E495E
:1040C00012F0D8FE3D49804612F0CCFD11F08EFF73
:1040D0003860404611F08AFF7062394BB3F9000036
:1040E00012F074FE364B0646B3F9040012F06EFE71
:1040F0003F6880463946304612F0BCFE6D6A814604
:104100002946404612F0B6FE0146484612F0A8FD88
:1041100013F08CF8DFF8B490B0F5FA7FA8BF4FF435
:10412000FA704845B8BF4846254B41461880384686
:1041300012F0A0FE29460746304612F09BFE0146CB
:10414000384612F08FFD13F071F8B0F5FA7FA8BF72
:104150004FF4FA704845B8BF4846194B9880FEF7AF
:104160006BBC002DCCBF2846684212F02FFE814662
:1041700098F80000FEF784BC124FFEF7AEBC7879C9
:104180001B30684312F022FE4FF07651FEF7B5BCAB
:10419000B0150020800900206C130020400C002086
:1041A000482D002086120020021200200412002058
:1041B000402D00200000002035FA8E3CDB0FC93F67
:1041C0004C1300200AD7233C400B00200CFEFFFFBD
:1041D000134912F003FF1349054612F0E9FF60B9D5
:1041E0001149284613F002F800283EF499AC0E4D10
:1041F000FEF796BC0D4DFEF793BC0A4DFEF790BC42
:1042000011F090FB00283FF454A94FF48053A5F817
:1042100042300A23FFF74CB923B0BDE8F08F00BF4E
:104220003333834000A0F9C400A0F94400F0FFC577
:104230002DE9F04F914BADB01D780093002D00F0AB
:10424000A7808F4B1868002801F0108704F040F910
:10425000DFF85C92DFF85C82D9F800000BF08CF894
:10426000002801F00387D9F800000BF082F8092834
:10427000844C01D03F2855D14FF0000A574655468F
:1042800026680AEB080B36B132465AF808107E4809
:1042900016F03AF820B90DB15F4601E05D465F4681
:1042A0000AF1080ABAF5907FEBD1F5B1D5F800A074
:1042B000D7F800B0DFF8D0C123681AF803001BF864
:1042C0000310814211D15A1CDFF8BCE149B92D2BF2
:1042D00007D86C48026020200EF803000EF8021088
:1042E00003E00CF803002260E6E723680BB1BD424F
:1042F0000FD0664810F066FABD4207D855F8080B93
:1043000010F060FA092010F0E3F8F5E70EF0EAF893
:1043100000265D4D23689E429ED2A85D10F0D8F81D
:104320000136F7E723686BB9042804D1564805F035
:10433000B7FF01F09BBE0C2841F09486544810F062
:1043400041FA22E00C28F9D00A2841F03F864E4E6F
:10435000504810F037FA2321304615F0C6FF354695
:1043600008B1801B206023680022002B41F03286B8
:10437000002A41F04A8630220021434815F080FF90
:10438000009B1B78002B01F071860EF0ABF863E701
:10439000414B03F13007414BEA18EB58002B01F079
:1043A0005A803F4C3F4922603F4A26468946924602
:1043B0000B60059300238DF819303C4814238DF8C9
:1043C000183004AB04920360D9F80000DFF8D48001
:1043D0000AF0D2FF002801F02A80D8F800000AF085
:1043E000C8FF3368834693F8481019B9242863D16D
:1043F00001221DE0012903D14D2808BF022204E05B
:10440000022907D13C2808BF032218BF002283F8E5
:10441000482085E003290ED140284FF0000102D941
:1044200083F84810D0E758711971D9719871042236
:1044300083F84820C8E7042907D1997983F849000F
:1044400080EA01029A710522F2E7052968D15879BC
:1044500019798842987908D98BEA00009871481C2C
:1044600018710B4483F808B0AEE7584503D1062213
:1044700083F848205AE00022DAE700BF0813002042
:104480004830002004130020D4120020DECC0108A4
:10449000E3CC0108B8E1010894A701081C3600200C
:1044A000682D0020702D002085F300086C2D002061
:1044B0006430002090C40108BF490B7803F0040366
:1044C00003F0FF0E002B7FF47FAF23281DD1009A4D
:1044D0000123D8F800001370B84B01911860B84B55
:1044E0001860B84B586010201872B748C3F800A085
:1044F000036083F809E0B54810F064F90DF0F2FFAD
:1045000001990B7843F002030B70B14B1B681B78C9
:104510005B4505D1AF4BB04A1A60B04BB04ADA6088
:10452000336893F84820062A7FF44EAF93F8498009
:10453000B8F1520F00F0898600F2D880B8F1340F3C
:1045400000F0518467D8B8F1240F00F0D7842DD83B
:10455000B8F1040F00F0378215D8B8F1020F00F05F
:10456000188200F22582B8F1010F40F0A5870320E0
:104570000DF0C6FA00200DF07EFA40460DF07BFAF1
:10458000142000F030BFB8F10A0F00F05A82B8F1E1
:10459000220F00F00784B8F1050F40F08D871A2034
:1045A0000DF0AEFA0026DFF854821DE2B8F12C0FB0
:1045B00000F0FA841BD8B8F1280F00F0DC84B8F1C1
:1045C0002A0F00F0EB84B8F1260F40F07587854E76
:1045D00006200DF095FAB6F8CC010DF094FAB6F875
:1045E000D0010DF090FAB6F8D40100F0F9BEB8F1A0
:1045F000300F00F08F85B8F1320F00F03385B8F13D
:104600002E0F40F05987774E40200DF079FA06F1D1
:10461000400800F06FBDB8F1450F00F01B8636D89A
:10462000B8F13B0F00F0B78319D8B8F1380F00F09C
:104630008F84B8F13A0F00F02A83B8F1360F40F0BA
:104640003B87694B674E187806F12808C0EBC0001D
:10465000C0B20DF055FADFF8A89100F047BDB8F1EF
:10466000400F00F00685B8F1420F00F01285B8F156
:104670003D0F40F021875B4E02200DF041FA96F885
:104680008F020DF0F8F996F88E0200F0ACBEB8F18A
:104690004B0F00F0B48410D8B8F1470F00F08F85AD
:1046A000C0F07985B8F1490F40F0068702200DF07F
:1046B00027FA4E4B988A00F093BEB8F14F0F00F0E6
:1046C000B785B8F1500F00F0A185B8F14D0F40F05B
:1046D000F386474EDFF82C8130784FF0000900EB6D
:1046E0004000C0B20DF00CFA00F0A4BCB8F1700F9D
:1046F00000F0298300F28A80B8F1660F00F0DD81B6
:104700002CD8B8F15E0F00F032860DD8B8F15A0FF0
:1047100000F0ED85B8F15C0F00F00886B8F1540F99
:1047200040F0CA8600F091BDB8F1640F00F07981C5
:1047300000F29981B8F1600F40F0BE86294E032047
:104740000DF0DEF996F8D9010DF095F996F8EE0125
:104750000DF091F996F8ED0100F045BEB8F16C0F3F
:1047600000F0858216D8B8F1680F00F06782C0F0BB
:10477000D181B8F1690F40F09F86DFF87480002680
:1047800098F80000DFF88090400000F0FE000DF087
:10479000B7F961E2B8F16E0F00F07E8200F2A182FB
:1047A00006200DF0ADF9134B18680DF0B5F9124B5A
:1047B000188800F015BE00BF482D0020643000208E
:1047C00060150020240C0020483000200ECD010888
:1047D00020250020F04F0020EFBEADDE00ED00E010
:1047E0000400FA05B43000202C15002030240020ED
:1047F000E03600201C380020E40D0020F1C601083E
:10480000242500200C33002080120020B8F17D0FF9
:1048100000F043855BD8B8F1750F00F0B0823ED848
:10482000B8F1730F00F0438300F2AE80B8F1720F5D
:1048300040F04286D94E16200DF062F9B6F84802D3
:104840000DF061F9B6F8D0000DF05DF9B6F8D200C0
:104850000DF059F9B6F8D4000DF055F9B6F89C02F0
:104860000DF051F900200DF006F900200DF003F9CC
:1048700000200DF000F996F823020DF0FCF896F8F0
:1048800044020DF0F8F800200DF0F5F8B6F9F0311B
:104890000A2093FBF0F080B20DF035F95CE3B8F13B
:1048A000780F00F04681B8F17C0F00F0E784B8F192
:1048B000770F40F00186DFF81483002698F8000097
:1048C0000DF01EF9DFF808A3DFF80893E5E2B8F170
:1048D000A00F00F005833FD8B8F17F0F00F02784C8
:1048E000C0F0F684B8F1960F40F0E6850F200DF089
:1048F00007F9AB4B18880DF006F9AA4B188880B25F
:104900000DF001F9A84B1B68C3F3C000C3F380028C
:10491000800040EA4200C3F340021043C3F3401258
:1049200040EAC20003F0100318430DF0ECF80CF05D
:10493000CFFF0DF0F1F8994B93F89C040DF09BF824
:104940009A4B18886428A8BF64200DF0DCF8022078
:104950000DF091F8964B23E2B8F1F10F00F0488189
:10496000B8F1FE0F00F0AE82B8F1F00F40F0A48570
:104970008A4E04200DF0C4F8B6F8F4010DF0C3F827
:10498000B6F8F20100F02CBD4FF000094FF0010B1A
:1049900055E204200DF0B4F8DFF83C82002618F848
:1049A000060001360DF067F8042EF8D100F039BD8D
:1049B00003200DF0A5F803200DF05DF800200DF0A8
:1049C0005AF800F045BC06200DF09AF8DFF80C828A
:1049D000002618F8060001360DF04DF8042EF8D127
:1049E000744B187800F0FCBC18F8060001360DF086
:1049F00042F80B2EF8D1DFF8E881002618F80600FF
:104A000001360DF038F8082EF8D1DFF8D8810026ED
:104A100018F8060001360DF02EF8072EF8D100F038
:104A200000BD07200DF06CF8E7200DF024F85B4B7B
:104A300058790DF020F800200DF01DF8042000F04A
:104A40001ABC5D4811F05EFC5FFA80F840460DF03C
:104A500057F85A4EB044B04500F0E38416F8010F01
:104A60000DF009F8F7E70B200DF04AF84C4B1888C9
:104A70000DF049F84B4B188880B20DF044F84A4BC2
:104A80001B68C3F3C000C3F38002800040EA420009
:104A9000C3F340021043C3F3401240EAC20003F0E4
:104AA000100318430DF02FF80CF012FF0DF034F83E
:104AB0003A4B93F89C0400F096BC12200DF020F8BD
:104AC0003F4BDFF824911B890026B3F5007F94BF8C
:104AD0004FF001084FF0040859F82600013690FB0A
:104AE000F8F080B20DF00FF8032EF5D1354E308876
:104AF0000DF009F8B0880DF006F83089324E0DF04F
:104B000002F830880CF0FFFFB0880CF0FCFF308911
:104B100000F066BC10200CF0F3FFDFF8D080002618
:104B200018F8060001360CF0A6FF102EF8D100F0A0
:104B300078BC1A4E70200CF0E3FFB0464FF0000A2C
:104B40004FF00E09B6F856010CF0DDFFB6F858012B
:104B50000CF0D9FFB6F85A010CF0D5FF96F85C01BD
:104B60000CF089FF96F85D010CF085FF96F85E0168
:104B70000CF081FF96F85F010CF07DFF09FB0A83C2
:104B80000AF1010AD3F860010CF0C6FFBAF1080F70
:104B900006F10E06D6D100F044BC00BFB4300020B0
:104BA0008E2B0020B0300020282400200C10002084
:104BB000382D0020A92300200A36002009360020C5
:104BC000AC2300205C1300204C380020492D00202D
:104BD0004A2D002094A7010846CD01084BCD0108BD
:104BE000E8C60108B2C60108D80D0020400C00201C
:104BF00070200CF085FFC44E06F1700896F8E600B0
:104C00000CF039FF96F8E7000CF035FF96F8E80055
:104C10000CF031FF96F8E9000CF02DFF96F8EA0051
:104C20000CF029FF96F8EB000CF025FF073696F8FC
:104C3000E5000CF020FFB045E0D1F2E310200CF0CD
:104C40005FFFDFF80483002618F8060001360CF039
:104C500012FF102EF8D1E4E398F800309E4280F065
:104C6000E08339F816000CF04EFF0136F4E7A74E4A
:104C700006200CF045FF30880CF045FF70880CF0E2
:104C800042FFB6F904300A2093FBF0F024E0042040
:104C90000CF036FF9E4B2FE107200CF031FF9D4BAF
:104CA0001888FF28A8BFFF20C0B20CF0E4FE9A4B82
:104CB000186880F3100080B20CF025FF974B18881D
:104CC0000CF021FF904B93F82322954B18682AB1E2
:104CD0000A23584380F3100080B281E300F30F00F1
:104CE000FAE7904E0C200CF00BFF3368B0461878B2
:104CF0000CF0C1FE33684FF0000998780CF0BBFE51
:104D0000D8F80030874E4B44587909F101090CF06E
:104D1000B2FEB9F1030FF3D13368187A0CF0ABFE91
:104D20003368D8780CF0A7FE336818790CF0A3FE2E
:104D3000336858890CF0E7FE3368587A0CF09BFE14
:104D4000336858784FE31E200CF0DAFEDFF8DC8180
:104D50000026D8F80030334458780CF08CFED8F890
:104D600000303344D87A0CF086FED8F80030334453
:104D7000587D01360CF07FFE0A2EEAD151E32F2038
:104D80000CF0BEFE684E16F8010F002800F04983B3
:104D90000CF071FEF7E701200CF0B2FE634B1B68CC
:104DA000187820E350200CF0ABFE574E4FF00C0962
:104DB00006F150085E4A96F89D34043609FB032339
:104DC00093F838000CF057FE96F89A040CF053FE56
:104DD00096F89B040CF04FFE96F89C040CF04BFEEA
:104DE000B045E7D11DE35A200CF08AFE464E06F18D
:104DF0005A0896F8F2040CF03EFE96F8ED040CF01A
:104E00003AFE96F8EE040CF036FE96F8EF040CF03D
:104E100032FE96F8F0040CF02EFE063696F8EB04FF
:104E20000CF029FE4645E4D1FBE2BBF1000F00F097
:104E3000F8825FFA89F00CF063FE4FF0000B002659
:104E40003C4B1B789E42F0DA3B4B0021F05C4FF06C
:104E50000C0E0EFB01F313F807C0844503D001319B
:104E60001F29F6D10CE0324A1344D3F834A050463F
:104E700011F048FA0146BBF1000F00F0F2828944BC
:104E80000136DDE700FB02F313F807E08E4500F082
:104E9000F58201321F2AF5D1013698F800309E4282
:104EA00080F0BF8216F80A1000220C20EAE70820E2
:104EB0000CF026FE0126F0B201360CF0DCFD092EC6
:104EC000F9D1AEE208200CF01BFEDFF8808000264E
:104ED00038F8160001360CF016FE042EF8D1A0E2C8
:104EE0000C200CF00DFE154B18680CF015FE144B41
:104EF00018680CF011FE134B1868BCE104200CF08C
:104F0000FFFD014B9868B6E1B43000205413002037
:104F1000F43700202C120020983900209C39002002
:104F2000F80D00200410002093A7010810130020A2
:104F300094A70108492D00204A2D0020E8F7FF1F03
:104F4000ECF7FF1FF0F7FF1FD02E00200412002007
:104F500004200CF0D5FDDA4E96F816020CF08BFD0D
:104F600096F81A020CF087FD96F819020CF083FDF2
:104F700096F81B0237E2D24E07200CF0C1FDB6F8BE
:104F80001E020CF0C0FDB6F820020CF0BCFD96F835
:104F900022020CF070FDB6F8240221E201200CF090
:104FA000AFFDC74B58791EE2C54E10200CF0A8FD8E
:104FB00096F840020CF05FFDB6F84C020CF0A3FD31
:104FC000B6F848020CF09FFDB6F84A020CF09BFDC3
:104FD00096F842020CF04FFDB6F854020CF093FD27
:104FE000B6F856020CF08FFD96F84E020CF043FD19
:104FF00096F84F020CF03FFDB6F85202F0E1B04EC9
:1050000008200CF07DFD96F89A020CF034FD96F81D
:105010009B020CF030FDB6F89C020CF074FD96F883
:105020009E020CF028FDB6F8A0020CF06CFD96F87C
:10503000A202D8E1337808F10208994580F0F181A5
:1050400018F8020C0CF017FD18F8010C09F1010911
:1050500000EB800000EB800000F2EE2080B20CF04C
:1050600052FDE7E701200CF04BFD954B93F844020D
:10507000B9E108200CF044FDDFF84482002606EB7D
:10508000080393F8380201360CF0F5FC082EF6D12F
:10509000C7E18B4E10200CF033FD70790CF0EBFC67
:1050A000B0680CF039FD96F840020CF0E4FCB6F85C
:1050B000CC010CF028FDB6F8D0010CF024FDB6F8B8
:1050C000D4010CF020FDB6F81E020CF01CFDB6F861
:1050D000200285E113F90920824200F0D5810C33CA
:1050E0003C2BF7D10836B04500F09B8196F9A6021B
:1050F0000023EFE7B6F864030CF005FD96F86603AD
:105100000CF0B9FC043696F863030CF0B4FCB0451F
:10511000F0D186E180200CF0F3FC6A4E06F18008A5
:1051200056F8040F0CF0F8FCB045F9D179E18D2068
:105130000CF0E6FC00264FF0060A0AFB06F94FF0D9
:10514000000B5FFA86F840460CF095FC5FFA8BF096
:105150000CF091FC5A4B0BEB0901194491F8A40394
:105160000BF1010B0CF087FCBBF1060FEBD1013604
:10517000062EE2D1002606200CF07DFCF0B20CF0E9
:105180007AFC4F4B334493F8C80301360CF073FCA0
:105190000B2EF0D145E10D200CF0B2FC06F008FC1E
:1051A000494E40F00200C0B20CF065FC30880CF0B3
:1051B000B3FCF0680CF0B0FC08F0BAFA5BE00CF05D
:1051C00051FC064684200CF09BFC30460CF0A4FCFD
:1051D0003D4B0DF13008DA6806F1800393428CBF35
:1051E000C6EB02094FF0800907F086FF4A463046B9
:1051F000414606F0B7FC814600264E4580F21181FB
:1052000018F806000CF037FC0136F6E72C4E0420A7
:105210000CF076FC01200CF02EFC96F849050CF001
:105220002AFC96F847050CF026FC96F84805DAE0CB
:105230000B200CF065FC00200CF01DFC00200CF095
:105240001AFC00200CF017FC11E001200CF058FCB7
:105250000020C8E013200CF053FCDFF8708000261B
:1052600018F8060001360CF006FC0B2EF8D10020D1
:105270000CF052FC00200CF04FFCD2E0104E062047
:105280000CF03EFCB6F8D8000CF03DFCB6F8DA00A5
:105290000CF039FCB6F8DC00A2E0094E05200CF059
:1052A0002FFC96F826020CF0E6FB96F827020CF08D
:1052B000E2FB96F828020CF0DEFBB6F8DE008FE089
:1052C000B43000209433002060030020F1C60108B0
:1052D000C94E03200CF014FC96F8C7010CF0CBFB70
:1052E00096F8C8010CF0C7FB96F8C9017BE0C24EE6
:1052F00006200CF005FCB6F8DC3123B108200CF0D8
:10530000BAFB012005E096F8DE010CF0B4FB96F83C
:10531000EA010CF0B0FB96F8E5000CF0ACFB96F857
:10532000E4000CF0A8FBB6F8E00059E0DFF8C88212
:10533000B24E0D200CF0E4FB98F8E0010CF09BFB62
:105340003368188C0CF0DFFB3368588C0CF0DBFBF7
:10535000B8F8E2010CF0D7FBB8F8E4010CF0D3FB8D
:105360003368988C0CF0CFFB3368D88C38E0A34EB0
:1053700011200CF0C5FB3368588D0CF0C4FB33686A
:10538000988D0CF0C0FB3368D88D0CF0BCFB3368F3
:1053900093F828000CF06FFB336893F831000CF0A1
:1053A0006AFB336893F837000CF065FB336893F8B9
:1053B00038000CF060FB336893F833000CF05BFBB3
:1053C000336893F834000CF056FB336893F83600DA
:1053D0000CF051FB3368988F0CF095FB3368588FB5
:1053E0000CF091FB1DE00CF046FB1AE040F22C841F
:1053F000B8F1D00F00F04684B8F1D20F40F016811A
:105400000CF01AFB020600F14A847D4B1B785B0707
:1054100004D4022828BF002003F064F900200CF017
:105420006FFB0CF039FB2368002283F84820754B92
:10543000754C186803F04CF894F82C305BB1734B42
:10544000585907F071FA0EF0D4FF002384F82C307D
:105450006F4A704BDA604C35982D00F00786FEF7E6
:105460009ABFD046CAEB08008842BFF609AD18F8CB
:10547000010B01910CF0FFFA0199F3E74B4493F80B
:1054800038000CF0F8FA07E5C0B20CF0F4FAB6F800
:10549000A8020CF038FB96F8AA020CF0ECFA96F889
:1054A000AB020CF0E8FA96F8AD020CF0E4FA96F8CC
:1054B000AC020CF0E0FA15E6B8F15B0F15D10CF078
:1054C000BBFA4D4E86F8DE010CF0B6FA86F8EA011A
:1054D0000CF0B2FA86F8E5000CF0AEFA86F8E400BB
:1054E0000CF0B6FAA6F8E00098E700F26082B8F196
:1054F000370F32D15B794FF00708B3FBF8F8C8EBF0
:10550000C8029B1A13F0FF0F02D00BF03FFD85E796
:105510005FFA88F8B8F1000F80D00CF08DFA4FFADE
:1055200080F9484607F092FA06460028EDD080F848
:1055300000900CF08DFA70800CF07EFA30710CF057
:105540007BFA70710CF078FAF0710CF075FA08F1D2
:10555000FF385FFA88F8B071DCE700F22881B8F113
:105560002B0F04D10CF068FA234B587156E700F268
:105570008680B8F1250F08D11F4E0023B3600CF0D0
:1055800071FAB3681843B06048E752D8B8F10B0F0E
:1055900019D111220021204814F072FEDFF8589032
:1055A0004FF0000833685B79102B28BF1023984513
:1055B000BFF434AF0CF040FA08EB090383F856054A
:1055C00008F10108EEE7B8F1230F2FD10CF034FAFF
:1055D0001328064699D80CF02FFA00220C2101FB63
:1055E00002F307EB030E9EF808E0864500F0C9843D
:1055F00001321F2AF3D188E7B430002010130020B5
:10560000482D00206C2D0020240C00201C3600208A
:105610000400FA0500ED00E00A360020B8F1FA0FA8
:1056200004D1CD4B1B785A0740F133830BF0AEFC0D
:10563000F7E6B8F1270F0DD10CF00AFAC74EC6F8FD
:10564000CC010CF005FAC6F8D0010CF001FAC6F84E
:10565000D401E3E6B8F1290FE8D10CF0F9F9BF4E17
:10566000A6F81E020CF0F4F9A6F820020CF0E4F9FA
:1056700086F822020CF0ECF9A6F82402CEE6B8F186
:10568000310F14D10CF0D8F91F2806463FF63DAF74
:1056900023685B79052B7FF438AF0CF0E3F9AF4B4F
:1056A00003EB8603C3F8E40210F09EF8B6E64BD88D
:1056B000B8F12D0F32D10CF0BFF9A84E86F8400298
:1056C0000CF0C6F9A6F84C020CF0C2F9A6F8480294
:1056D0000CF0BEF9A6F84A020CF0AEF9236886F881
:1056E00042025B79082B07D90CF0B2F9A6F85402F4
:1056F0000CF0AEF9A6F8560223685B790C2B7FF606
:105700008DAE0CF099F986F84E020CF095F986F8FA
:105710004F020CF09DF9A6F852027FE6B8F12F0F68
:1057200084D18E4E06F140080CF092F9A6F864037D
:105730000CF082F986F866030CF07EF9043686F8E0
:1057400063034645F0D169E6B8F1330F05D10CF09B
:1057500073F9824B83F8440260E6B8F1350F7FF4A9
:1057600065AF0CF069F90E2880463FF6CEAE0CF01E
:1057700063F903283FF6C9AE784B062606FB0836C8
:1057800086F8F2040CF058F986F8ED040CF054F9A0
:1057900086F8EE040CF050F986F8EF040CF04CF9A2
:1057A00086F8F0040CF048F986F8F10436E6B8F112
:1057B000440F04D16A4B012283F82C202EE672D8C4
:1057C000B8F13E0F09D10CF037F9644E86F88F021C
:1057D0000CF032F986F88E0220E62CD8B8F1390F99
:1057E00011D10CF029F95D4E86F816020CF024F95F
:1057F00086F81A020CF020F986F819020CF01CF950
:1058000086F81B020AE6B8F13C0F7FF40FAF554E45
:10581000D6F800800CF010F90128A8BF012088F804
:10582000000033681B78012B18BF4F4A4F4B08BF4D
:105830004F4A1A60F2E5B8F1410F0CD1DFF81C8134
:1058400000260CF0F9F806EB08030136082E83F861
:105850003802F6D1E2E5B8F1430F7FF4E7AE0CF081
:10586000EBF83E4E0023B36070710CF0FBF8B368A8
:105870001843B0600CF0E0F886F840020CF0E8F84D
:10588000C6F8CC010CF0E4F8C6F8D0010CF0E0F852
:10589000C6F8D4010CF0DCF8A6F81E020CF0D8F81B
:1058A000A6F82002BAE5B8F14C0F19D10CF0C4F8F3
:1058B0002A4E86F89A020CF0BFF886F89B020CF08C
:1058C000C7F8A6F89C020CF0B7F886F89E020CF018
:1058D000BFF8A6F8A0020CF0AFF886F8A2029DE58A
:1058E00013D8B8F1480F09D106F066F9214A002310
:1058F0001370214A1370214A13608FE5B8F14A0FE3
:105900007FF494AE0CF0A4F888E5B8F14E0F37D1CF
:105910000CF092F8112880463FF6F7AD0CF08CF8A9
:105920000E4E08F5967806F818000CF091F840F243
:10593000ED23984205DD40F6CA039842A8BF1846F9
:1059400001E040F2EE20A0F2EE20192390FBF3F0EC
:1059500006EB4806707061E5482D0020B430002049
:10596000240C00201013002045BE000884030020F2
:105970006DC10008091300200A1300200C13002039
:10598000B8F1510F7FF452AEDC4B1B78012B3FF680
:1059900045AD0CF051F8DA4E86F849050CF04CF89C
:1059A00086F847050CF048F886F8480536E5B8F162
:1059B000D30F04D10CF04CF8D24B18802EE500F236
:1059C0007781B8F1CC0F51D15B79092B7FF69DAD72
:1059D000CD4ED6F800800CF02FF888F80000D6F8ED
:1059E00000800CF029F888F802000CF025F83368E4
:1059F0006428A8BF642058710CF01EF8336864282E
:105A0000A8BF642098710CF017F83368FF28A8BF6E
:105A1000FF20D8710CF010F8D6F80080642828BF59
:105A2000642088F808000CF007F888F80300D6F81E
:105A300000800CF001F888F80400D6F800800CF023
:105A400007F82368A8F80A005B790A2B05D9D6F86D
:105A500000800BF0F1FF88F8090023685B790B2BBD
:105A60007FF6DCAC36680BF0E7FF73E700F2B2803C
:105A7000B8F1610F0DD10BF0DFFFA14E86F8D9010F
:105A80000BF0DAFF86F8EE010BF0D6FF86F8ED0199
:105A9000C4E479D8B8F15D0F2AD10BF0CDFF9B4E4D
:105AA000DFF85C82D6F8009088F8E0010BF0D0FFB8
:105AB000A9F82000D6F800900BF0CAFF2368A9F8D7
:105AC00022005B79052B7FF6A9AC0BF0C1FFA8F88B
:105AD000E2010BF0BDFFA8F8E401D6F800800BF05E
