:020000040800F2
:10000000005000203D750108D9750108155B0108F5
:10001000D9750108D9750108D975010800000000DB
:10002000000000000000000000000000D975010879
:10003000D975010800000000D9750108D54E0108E6
:10004000D9750108D9750108D9750108D975010854
:10005000D9750108D97501086D0A0108770A0108E8
:10006000750A0108730A0108710A010885780008F9
:10007000757800086578000855780008457800080C
:10008000317800081F780008D9750108D975010872
:10009000D9750108D9750108D97501086F0A0108D9
:1000A000D9750108094C0108D9750108F94B0108F7
:1000B000ED4B0108DD4B0108CD4B01086F7B0008BB
:1000C000757B0008657B00086B7B0008D97501080B
:1000D000D9750108CDB90008C1B90008B7B9000841
:1000E0006B0A0108D9750108D975010800000000E4
:1000F0000000000000000000000000000000000000
:0C01000000000000000000005FF808F1A3
:100110002DE9F04F684A694BA1B01A60684B002284
:100120001A600DF00DFA18B90DF000FE10F006FD82
:100130000DF02AFA634A137843F001031370624A00
:10014000624B116899424FF0000309D1136062B607
:100150005F4B18680AF0BCFB5E4B1B689847FEE7D4
:1001600009935D4C0A930B934FF4E0130C932368AF
:1001700043F480332360A36943F01003A361236831
:1001800003F400330A93099B013309930A9B1BB9BB
:10019000099BB3F5A06FF2D123684F4913F40033E4
:1001A00001D0022315E00A6842F001020A600993B7
:1001B000236803F002030A93099B013309930A9B06
:1001C0001BB9099BB3F5A06FF2D123689E0739D5FF
:1001D00001230B93414B424F1A6842F010021A6000
:1001E0001A6822F003021A601A6842F002021A60CA
:1001F0006368636063686360636843F4806363603B
:10020000384B1A68043B22F070425A60364A3A6012
:10021000626822F47C1262605A6842F000425A60BE
:10022000DA6822F40042DA609B681D0449BF2F4B54
:100230004FF4E0133B604FF480130C930B9B012BA6
:1002400001D108E0FEE7022B09D10C9A6368134341
:1002500043F4803302E0636843F46013636023680F
:1002600043F08073236022681B4B9001FBD55A68D2
:1002700022F003025A605A6842F002025A60636830
:10028000154A03F00C03082BF9D15368DFF864809A
:1002900003F00C03042B03D0082B03D0124B32E0E5
:1002A0003B6830E053685168C3F38343C90303F1EB
:1002B000020321D40E4A25E035D50008F4160020AB
:1002C000F816002039380020F04F0020EFBEADDED8
:1002D00000F0FF1F04F0FF1F00100240002002404A
:1002E000A00000200410014000127A00001BB7009B
:1002F00000093D0058030020526812F4003F3A689C
:1003000018BF52085343C8F800306368864AC3F3E5
:10031000031313449A78D8F80030DFF86092D34082
:10032000C8F80030814A824B0DF1800ADA60A26978
:10033000039342F00102A261656A0026C9F80050E9
:10034000626A0DF1800B42F080726262A26942F033
:100350001C02A2614FF6FF722AF82C2D02F1804296
:1003600002F601021046514602928DF8566007F0DF
:100370001BFA51466F4807F017FA51466E4807F0CE
:1003800013FA10218DF83A100221029A8DF83B10D1
:100390004FF400712BF8481D10461161594607F0C3
:1003A00003FA664950464A6842F000724A600AF011
:1003B00065F96349159A09F10400B2FBF1F261494C
:1003C0000A601822314619F0B5FED8F800204FF423
:1003D0007A71B2FBF1F25C49039B013A4A60F02268
:1003E00083F8232007238E600B604F4B5749DFF8BB
:1003F00090E102934FF0010CB20202F180423EF80C
:10040000160002F58432002340FA03F818F0010FB9
:1004100018BF0CFA03F803F101031EBF0A60A1F82C
:1004200004800C31102BEFD10136032EE4D1484E5D
:10043000484B96F8E7211A703B68474A934201D12E
:10044000012203E0454A934202D10222444B1A7032
:10045000B3680021DFF82C810846C8F8003010F09E
:10046000E9FA0021012010F0E5FA3E4A00274FF09A
:10047000170A022352F82700013750B1C37180F8E0
:1004800006A0077212210492039310F0E5F8049A73
:10049000039B032FEED10021084610F0CBFA002178
:1004A000012010F0C7FAA369402243F00103A361C1
:1004B00000212D4819F03EFE2C4B4FF0FF321A6000
:1004C000C3F80320D8F800301A0714D596F83C3248
:1004D000012B10D81E4B15F0805593F83E3200F0DA
:1004E000598608E093F83F22012A04D1002283F8BC
:1004F0003E2210F0DBFB642014F09EFCA0220021C1
:100500001B4819F017FE1B4D0024A5F11407615973
:1005100000231948DA0050F83300814234D1BB1867
:1005200093F8C00034E000BF84A201080005FA057A
:1005300000ED00E0000C014000100140000001400F
:1005400040420F004836002010E000E06018002014
:10055000002F00208615002000127A00001BB70033
:100560003525002050C40108B82E0020F82E0020A8
:10057000F034002098A2010840A30108B004002034
:100580005CC40108C81700200133042BC1D100202E
:100590000C3413F0C3FEA82CB9D1A34BA34AD8F84E
:1005A0000040DFF8BC821A60052700213C22A048E9
:1005B00088F8007019F0BEFD002318463946DFF8B0
:1005C000A4E29B4F04F040054FF0FF0C1EF9012FF1
:1005D00003EB070ADA554DB91E3AD2B2012A9FBF82
:1005E00001F1FF318AF800C0C9B201200C333C2B65
:1005F000ECD108B188F8001077798E4B8E491F70C6
:100600008E4B8F4AC9F81C30D8330B6040F2DC5156
:10061000A30657BF8B4B012303EBC7035B78136221
:10062000894A002322F813100133082BFAD11A2229
:100630000021584619F07EFD0E2F03D007F0EF037E
:10064000082B02D101238DF84A3001200FF084F9E4
:1006500018B14088003018BF0120C4F340038DF862
:100660004030C4F3403300358DF83830C4F3C03324
:1006700018BF012500F001008DF83B3014F4006331
:100680008DF83D008DF8425004D096F81E32581E69
:10069000434243418DF83C30C4F300438DF843306E
:1006A000C4F3C0038DF83A30D9F8203004F00107C4
:1006B000003318BF01238DF84430C4F300538DF884
:1006C0004530B6F8D2308DF83970ADF84830B6F80C
:1006D000E03004F00805ADF8463096F8E33043B951
:1006E0005A4B93F8E23013F0FB0F0CBF01230023A9
:1006F00000E0012396F8E220049312F0FB0F14BFF0
:10070000012100218DF841108DF84B2013B14F4B82
:10071000B3F8DE30ADF84C30B6F8D030E104ADF8C7
:100720004E3042BF494BB3F8DA30ADF84E30042AB0
:1007300006D14FF4805010F0D9F90023ADF84E30B7
:1007400096F88822424B00211A704248642219F020
:10075000F1FC9DF84A30002B14BF4FF0020B4FF014
:10076000000B07B90DB10BF1010B4FF00009CA46A0
:10077000029BDFF8CC8003EB8B0BDBF8DC309A1E9E
:100780001A3302920593029A32F8023F02924FF610
:10079000FF72934200F0C0819DF83D10DAB21B0A4F
:1007A000DFB219B1911E012940F2B1819DF84210CA
:1007B00041B129480C2101FB0201486927498842BF
:1007C00000F0A5819DF8431041B1234C0C2000FBA3
:1007D000024044692148844200F099819DF840001C
:1007E00038B11D4C0C2000FB0240007E142800F0A4
:1007F0008E819DF83B0038B1174C0C2000FB024065
:10080000007E112800F083819DF83C0038B1124C25
:100810000C2000FB0240007E212800F07881022B92
:1008200022D19DF8383023E060340020A031002030
:1008300064340020E80A00200C3600200C2F002031
:10084000B004002068B90108100C0020002F00201F
:1008500010230020240C002084A201080004004082
:10086000E01B0020FDBF0108012B04D19DF83930A9
:10087000002B00F04C819DF844307BB19DF84A304C
:1008800063B9A2F10803012B08D8B4480C2303FB79
:1008900002035869B24B984208BF0427B14B0C259C
:1008A00005FB02359DF845305BB19DF84A3043B9F0
:1008B00019B1A2F10C03012B01E0131F032B40F22D
:1008C0000781012F3DD1A54B0C2404FB02340026E7
:1008D000A54BFF22207E88F82460C8F830501E7097
:1008E0005E609E60DE601E6483F8442083F84520CD
:1008F00083F8466083F8476083F848600FF086FE0F
:10090000D4F8149002228271C7710672217F0FF011
:10091000A3FE3246617E48460FF0BAFC3A463146A5
:10092000284614F021FA914B914AC8F83430914B83
:10093000C8F83C60C8F83830111F284614F066F932
:10094000E5E0022F3ED15FFA8AF11C26834806FBC0
:1009500001F30C2404FB020408EB030701264FF00B
:10096000000B87F82510207E87F826B087F82EB078
:1009700087F824603D63039306910FF047FE0699C4
:1009800086718A190272C671217F0FF065FE5A4680
:10099000617E60690FF07CFC32465946284614F0AF
:1009A000E3F9754BC7F83CB07B63744B2846BB63D7
:1009B000039BB24403F11001714B19440A1D14F05A
:1009C00025F9A4E0032F40F081809DF839309DF88F
:1009D0004B10ABB1A1B1614B0C2404FB0234636931
:1009E0004B450DD14B1E032B0AD8DFE803F002065E
:1009F0000406082202E0482200E01822614B1A7027
:100A00009DF84130604CBDF84C206BB3022994F83E
:100A100001B0BDF84E3009D003295C495C4E0EBFD1
:100A20004FF0480E0E464FF0080E02E0594E4FF0C0
:100A3000180E5FFA8EF1584F32B1584800FB0EF095
:100A4000B0FBF2F292B202E013464FF6FF72284674
:100A50000FF068FE47F82B0057F82B301922DE60A4
:100A6000A37804EBC30327E00429667811D14C492D
:100A70002846B1FBF2F2182192B20FF053FE464B1A
:100A80000D2243F82600474BC360A37804EBC30351
:100A900012E0424B0121B3FBF2F22846BDF84E3082
:100AA00092B20FF03FFE3C4B092243F826003E4B2A
:100AB000C360A37804EBC3035A71A378627804EB94
:100AC000C3010A7101328D6062701EE0042F1ED1D5
:100AD0002D4CBDF84620A378267804EBC3031E7185
:100AE0002E4B012193FBF2F22846BDF8483092B21A
:100AF0000FF018FE2D4B0A2143F82600A37804EBD3
:100B0000C30251712278013222700133A370059B18
:100B1000029A93427FF437AE049B254F83F0010283
:100B2000244B00241A70244B3C701D78A5F1170348
:100B3000022B54D8DFF884A0DFF88490DAF81C3058
:100B40000021185903EB040816F08EFA002839D05A
:100B50001A4B1A6A0693002A5FD159E084A2010851
:100B6000002C014098A2010818230020F50201087A
:100B7000E804002051040108B5040108CD02010871
:100B8000D404002008040020240C00207105010872
:100B90001105010845050108A434002040420F005A
:100BA00000366E01910401088104010868230020C9
:100BB000331A0020EC340020E80A0020B0040020A2
:100BC000080A002004EB090698E80F0086E80F00E9
:100BD0003B7810340133C02C3B70AFD1B8E7944B55
:100BE00013F835E003EBC503D3F804C087F800E041
:100BF000BCF1000FACD0DFF87C827445A8DA230189
:100C000003EB080663440FCB013486E80F00F4E7DA
:100C1000884E3368DB0425D41EE0874B874A13F8DF
:100C2000350003EBC5035C681070002CF0D0844ED7
:100C300000238342ECDAC3EBC3016218D2F800C090
:100C400001EB060E41F806C091880133AEF804109E
:100C500092798EF80620ECE705F0EF03082B794B2C
:100C600024D125E03B78012BF6D9774C04EB031314
:100C700003F110071034A742EED04FF07C5154F826
:100C8000100C16F05DF84FF07C5144F8100C54F83D
:100C9000140C16F055F84FF07C5144F8140C54F82D
:100CA0000C0C16F04DF844F80C0CE3E70E2D08D1AF
:100CB0001A78182D42F010021A7008D113F08AFE2B
:100CC00005E01A78192D22F010021A70F5E713F0DA
:100CD00063FE5E4A5E4D13781C2043F004031370DC
:100CE0002B78012B8BBF01270027002401240FF054
:100CF0008DFC584A1060584A177058B11122827101
:100D00000222C2710022944202720CBF12211621EB
:100D10000FF0A2FC00200FF07DF822200FF076FCEF
:100D200015224E4C827101270222C27107721221D4
:100D300020600FF091FC2068494C00210FF070FEFC
:100D4000207E13F0EBFA237E03F01F025B09022BD7
:100D500007FA02F706D0032B08D1424A13691F4352
:100D6000176103E03F4AD3681F43D760607D0FF0EF
:100D70004DFC0C270B234FF00208C371877180F8DC
:100D80000880E07D0FF042FC0D23C371877180F86D
:100D90000880A07D0FF03AFC8771C77180F8088049
:100DA000607D0FF033FC1B210FF056FCE07D0FF04F
:100DB0002DFC07210FF050FCA07D0FF027FC1B211C
:100DC0000FF04AFC207D20B10FF020FC13210FF022
:100DD00043FC2169244B99420AD103F56043DA6848
:100DE00042F48052DA60DA6822F48052DA6019E064
:100DF0001E4B994209D103F5EC331A6942F4804243
:100E00001A611A6922F480420BE0194B994209D108
:100E100003F5EA331A6942F400421A611A6922F4AE
:100E200000421A61237F3BB30023184626E000BF2F
:100E300068B90108C817002084B801089835002057
:100E400099350020F9120020100A002039380020BE
:100E5000352500200C1C0020101C0020081C002040
:100E6000180400200010024000300140003800400B
:100E7000003C0040080A0020012302200A8802F4F6
:100E8000415242F44572134303430B808B8B207D08
:100E900023F400631B041B0C8B8307230B820B883A
:100EA0009BB243F040030B8018B10FF0AFFB0FF083
:100EB000B2FD2C200FF0AAFB8346069BC3F8040169
:100EC0009F238DF83430322000238DF835308DF893
:100ED00036308DF8373013F0AFFF58460FF096FDDF
:100EE00004220DA915A813F0E9FA58460FF093FD56
:100EF0009DF856309DF855201B0243EA02439DF8A9
:100F000057201343C34A93421AD0322013F094FF60
:100F100058460FF07BFDF52013F00CFBFF2013F07B
:100F200009FB8DF8540058460FF075FD9DF85430BC
:100F3000702B05D12B78022B02BFB74B03221A70FE
:100F40002B78032B0CBF1F2002200EF07EFC2B7889
:100F5000032B03D0012006F09DFC07E002200EF0D9
:100F6000FBFC0028F6D04388002BF3D0AB4C36684E
:100F700095F8009014252A460021204619F0DAF849
:100F800006F4004816F0020F06F40067204618BF6A
:100F90002570B8F1000F01D011236371B9F1010F71
:100FA00084BF152383720FB12123C3739C4CDFF8D8
:100FB00094920F2700264FF0060814F8010C30B366
:100FC0000FF024FB002580F80680C771057214F825
:100FD000010C0FF01BFB29460FF03EFB294614F8CD
:100FE000012C90484B0010F81100904203D14B4463
:100FF00093F8ED3003E001310A29F2D100230722F2
:101000002370E270731C01226670A270DEB2013799
:10101000FFB2132F04F10504CFD1834A492053684E
:10102000824C43F44043536013F078F9202013F0CE
:1010300075F97E4809F0AEFB15A809F080FB7C4BE2
:10104000022E15937B4B28BF802216934FF000038E
:1010500038BF1A461A924FF480721B924FF4806286
:101060001C92202220461D9215A94FF400521E9278
:101070001793189619931F9309F06EFB23686E4817
:1010800043F0010323604368012E23F4702394BFCF
:101090000022012223F4807343EA02234360826822
:1010A000664B5E4C134043F4602343F002038360BD
:1010B000C36A04F1140E23F47002731EDBB242EA19
:1010C0000353C3621F2601230727E278002A4CD06E
:1010D00094F801C05D1CBCF1090FEDB294F80480D6
:1010E0000DD9ACF10A02C16802EB420207FA02F91B
:1010F00021EA090108FA02F20A43C2600AE0016922
:101100000CEB4C0207FA02F921EA090108FA02F293
:101110000A430261062B0CD8591E426B01EB810178
:1011200006FA01F322EA03020CFA01F111434163CA
:101130001AE00C2B0CD8DA1F016B02EB820206FAC4
:1011400002F321EA03030CFA02F21A4302630BE0F2
:101150000D3BC26A03EB830106FA01F322EA0302A4
:101160000CFA01F31343C3622B4605347445ACD12A
:10117000314B9A6842F480729A609A6842F0010298
:101180009A609A6842F008029A6099682A4A0C07A5
:101190005AD5FAE7013B092B3FF6ADA901210846D4
:1011A0000FF048FC13200FF031FA04461823837126
:1011B0000223C37105721221C9F884040FF04CFA9E
:1011C000012120460FF02CFC3C2013F035FE29466F
:1011D00001200FF02FFC96F83E22194B9542BFF6E6
:1011E00081A9002108460FF025FC002120460FF0C0
:1011F00017FC782013F0FEFD012100200FF01AFCEF
:10120000012120460FF00CFC782013F0F3FD01358E
:10121000E1E700BF152020003525002068150020DB
:101220006915002070A30108001002400800024068
:101230004C2401407C15002000240140FDF7F1FF03
:10124000002F002084A20108936843F004039360F8
:1012500093688E495807FBD48B6843F4A0038B60D6
:101260008B4BD3F8C801002840F05587D3F8CC2128
:10127000002A40F05087D3F8D031002B40F04B8744
:10128000834D844F95F8D53100260293B5F9EC31A2
:101290003E60039395F8D8317E60049395F8DA3177
:1012A000BE60182231467C48059395F8E98195F88F
:1012B000EA9118F03FFF794B794C1B78DFF8FCA1DD
:1012C000012B98BF013C0797764F182231460AF54B
:1012D00084703E8018F02EFF069B2320C3F8204127
:1012E00013F0AAFD0DF12202012175200AF022F966
:1012F0005446BA46B8B16C4B0DF12302C4F80C3118
:101300006A4B0121C4F810313046432384F8083178
:101310000AF010F99DF8233003F07E038DF8233096
:10132000002840D147E094F8243113BB14228BF8F5
:1013300006200E228BF807208BF808301321584620
:10134000C4F828B10FF088F9594A138823F04003F4
:101350001B041B0C1380138823F038031B041B0C85
:10136000138013889BB243F040031380012384F859
:10137000243115AA012175200AF096F99DF8543000
:10138000A3F17002012A01D9AF2B5BD105238AF8A2
:101390000030432384F80831464BC4F80C31464BE7
:1013A000C4F810314EE0682B05D101233B701D239A
:1013B00084F8083146E09DF822303A4A03F07E0373
:1013C000682B8DF8223039D13C4E02230621137050
:1013D0000846D6F80C3115AA98479DF859209DF873
:1013E000573092005B0003F0020302F004021A433C
:1013F0009DF8553003F00103134311D0012B01D1A7
:10140000002202E0022B03D10122264B5A7019E080
:1014100003F00303032BF7D0032013F017FD11E0B3
:10142000D6F80C310DAA01210C2098479DF83430D4
:1014300013F00F03F0D0042BE6D1E1E7702B04BFCB
:10144000042313701E4900230B70164B1B78022BCC
:101450000BD1114A1B4810601B4850601B48D060DC
:101460001B48106101220A7047E0012B36D10A4A5D
:1014700018480B70106014480423506016489060A0
:101480001248D0601248106137E000BF00240140CC
:10149000002F002038250020BC2500203525002005
:1014A00085A201084425002035B5000823B20008B4
:1014B00000380040A9B60008D9B60008B0040020E2
:1014C000A026002081B8000845B100082DB1000811
:1014D00090C1793D01B70008F9B00008043B012B29
:1014E0001DD8CB4BCB4A1A60CB4A5A60CB4ADA6044
:1014F000CB4A1A6101230B700723CA4A4146137075
:10150000C94A0298136843F001031360059B4A46D9
:101510000193049B0093039B10F09AF910B90120EA
:1015200013F094FCC14A01211378084643F00203EA
:1015300013700FF07FFA002108460FF07BFABC4FC2
:101540000A2601200FF054F800200FF051F819205E
:1015500013F072FCD7F84035DFF8D4A213F4803FC3
:1015600002D101200EF056FC192013F065FC00207A
:101570000EF050FC013EE4D1314630460FF05AFAED
:10158000314601200FF056FAA74B1A68984612F020
:10159000080F0DD0012108460FF04CFAA54B1B682F
:1015A0009847314601200FF045FAA34B01221A70EB
:1015B000A24BDFF85C921B68A14F187B15F06CFB07
:1015C000A04915F0BDFBA04915F0B2FA14F074FC67
:1015D0009E4B9C491860D9F8100015F0B1FB9C4B4C
:1015E0001860079B188915F057FB0146994815F0BC
:1015F0005BFC994915F058FC984B186013F02CFAD5
:10160000974B1E22FF21184618F094FD0346954A79
:1016100001211170002101703968D8F800E011F43F
:10162000800F01BF022010701B2058701EF0020FA7
:10163000CDF808900ED010784FF0010C03F800C0E0
:1016400000F1020C013082F800C0C0B24FF0020C71
:1016500003F800C01EF0040F06D0107800F1010C52
:1016600082F800C003221A541EF00A0F12D0DFF8CD
:10167000F4E104209EF800204FF0050C9854501C13
:10168000C0B203F800C0D01C02328EF80000D2B203
:101690000620985411F4807FDFF8C8E106D09EF848
:1016A0000020501C8EF800001A2098549AF805006B
:1016B000082801D00E2809D19EF8002002F1010C63
:1016C0008EF800C04FF00B0C03F802C09EF800200B
:1016D0004FF00C0802F1010C5FFA8CFC03F8028059
:1016E000CB038EF800C006D5931C5E4A13705C4B8A
:1016F0000E2203F80C2011F4002F594A09D09EF84D
:10170000003003F1010C8EF800C04FF0190E02F802
:1017100003E0544B4FF01D0893F800E011F4805F94
:101720000EF1010C5FFA8CFC83F800C002F80E8009
:1017300009D00EF1020E83F800E0DFF824E14FF04B
:101740001C080EF80C8011F0200F09D093F800E06F
:101750000EF1010C83F800C04FF0070C02F80EC028
:1017600011F0040F09D093F800E00EF1010C83F89A
:1017700000C04FF0100C02F80EC011F4802F09D0F9
:1017800093F800E00EF1010C83F800C04FF0120C4A
:1017900002F80EC049050BD59AF8CC1241B1197860
:1017A00001F1010E83F800E04FF0130E02F801E0A2
:1017B000182813D119784FF0160E02F801E001F144
:1017C000010E5FFA8EFE4FF0170C02F80EC001F109
:1017D000030E0231C9B283F800E050549822002170
:1017E000214818F0A7FC0FF02BFF204A204BB5F83A
:1017F000DC101A601F4BDFF8888019801E49002317
:101800000B808B701D49DFF87CC00A603CE000BF94
:10181000BC25002099B7000845B100082DB100088B
:1018200090C1793D10040020B425002039380020F3
:10183000002F00209826002034380020D0160020E9
:10184000C817002035FA8E3CDB0FC93FCC2D002095
:10185000BC2D00200AE81C4100401C46F037002047
:101860003218002031180020642400203431002078
:10187000780D0020760D0020FC170020F8150020C0
:10188000CC170020F81700209D4ADFF8D8E213702B
:10189000B5F8442211B2DCF8000028F8131000F566
:1018A00096704EF823000133122B964DF3D1386811
:1018B000C30458BFBAF95012E980934901F1500EA0
:1018C00091F89134FBB991F893C491F894349C4504
:1018D00019D2BCF1000F08D00CF1FF3C0CEB8C0CC2
:1018E0000CEB8C0C0CF5617306E0013303EB830306
:1018F00003EB830303F5617391F892C49BB20CF17F
:10190000040C25F81C3004317145D9D1030740F18E
:101910005B819AF83C52082D00F25081DFE815F007
:1019200009000C0013004400650086008600C80012
:10193000260145F2F05201E042F6F822734B1A807C
:101940000FF037FF39E142F6F821704B1201198090
:101950000A2392FBF3F26E49A2F5B062002341F82C
:1019600023200133122BFAD16A496B4A40201160BF
:101970006A4A13700EF02EF80546002800F01E810A
:1019800010F0E2FE9AF83D3295F900E0002B0CBF12
:101990000622072200280CBF012303230192009393
:1019A00005465F4B5F4AA2E042F6F822574B4020C3
:1019B0001A805D4A584B1A60584B10221A700EF06C
:1019C00009F80546002800F0F98010F0BDFE002857
:1019D0000CBF01230323002295F900E0019200933C
:1019E00005464FF4E133514A81E042F6F822474B75
:1019F00040201A804E4A484B1A60484B08221A7001
:101A00000DF0E8FF0546002800F0D88010F09CFE9D
:101A100000280CBF01230323002295F900E0019266
:101A2000009305464FF4E133424A60E042F6F82263
:101A3000364B4FF00C0E1A80384B3F483F49404A16
:101A400083F800E0062D4FF0000303700B70137055
:101A50000BD03C4B1B221A703B4B052283F800E055
:101A60003A4B4FF4E1381A7009E0364B21221A70D4
:101A7000354BDFF8F48083F800E0344B1D70344AB6
:101A8000254B40201A600DF0A5FF0546002800F008
:101A9000958010F059FE00280CBF0123032300227B
:101AA00095F900E00192009305464346294A1EE05D
:101AB00044F62062154B40201A80274A164B1A60C4
:101AC000164B0A221A700DF085FF0546002875D0C6
:101AD00010F03AFE00280CBF0123032395F900E023
:101AE0000546002201921D4A00934FF4E133402144
:101AF00070460DF0DBFE002D5CD0194B186059E0EC
:101B0000440D0020CC170020002F00203E090020AB
:101B100058140020A9A000080C040020282500204B
:101B2000A0860100F1A2000869A00008F5A1000844
:101B300051A00008ADA10008E6130020A514002064
:101B4000A4140020A6140020E5130020A7140020F0
:101B5000919F0008D9A00008BDE10008ADE200088F
:101B600030250020FC0C002090D0030041F27C5274
:101B70004B4B00251A804B4A4B4B40201A604B4B75
:101B800010221A704A4B28221D704A4B1A700DF011
:101B900021FF98B1032390F90000474A0195009373
:101BA0004021464B0DF082FE454D012128600EF08C
:101BB00042FB2868003018BF012028B908200EF029
:101BC00095FF404A384B1A6042F201033968374AA0
:101BD0000B408BB144F62060314B8D04188004D546
:101BE000082313703848304B1860C80704D50C23FD
:101BF000137036482C4B186013780025043B537043
:101C0000334A344B11F4803FC2F82C31324B9046AA
:101C10001D7000F0FD80039313F0BEF9039B4FF09D
:101C2000010940F22A32294608F5987083F800909D
:101C300018F080FA294B2A495869D1F888200243C4
:101C40005A61284AC1F88C50C1F8802091F885204B
:101C500015A803938DF854208DF855908DF85650A3
:101C60008DF8579012F078FB16200EF0CFFC16215D
:101C700081710221C17105721B21C8F85C040EF04C
:101C8000EBFC039B18481949EA0001F1BC0E5EF811
:101C900035E086452CD10A4492F8C0002CE000BF04
:101CA0003E090020A5E100080C04002028250020A2
:101CB0006017002061170020CDE1000848E801000E
:101CC000FC12002089E1000899E100088DE100087C
:101CD000B0040020E0310020403800200010024015
:101CE00060030020E99300080004004084A201087A
:101CF0000135042DC7D10020039312F00FFBBF4A1A
:101D0000BF491268BF4DB2FBF1F22988013A21F4B4
:101D10005C710904090C298092B21D21A9852A85CC
:101D20000122AA82298C049221F001010904090CE4
:101D30002984298CB5F804E0288B21F0020120F0D9
:101D4000730000040904000C090C11434FF0000952
:101D50001FFA8EFE40F06000A5F804E02883A5F885
:101D600034902984298B039B21F008010904090C74
:101D700041F008012983B5F844106FEA41416FEA48
:101D8000514189B2A5F844105969114359619E4BDC
:101D90001846039308F0FEFC15A808F0D0FC9B49F8
:101DA000039B15919A49184616911021179140F2FC
:101DB0002A31189180211A914FF480711B914FF4B0
:101DC00000511E9115A9CDF86490CDF87090CDF812
:101DD0007490CDF87C9008F0BFFCA989039B89B270
:101DE00041F40071A9811968049A41F00201196057
:101DF000884988F86024FF22731826F80190043679
:101E0000802E9A70DA70F7D107F080FF07F07EFF1E
:101E10003B685B0553D5804E804B326804201A60C6
:101E20000DF0D8FD0421C4F864040DF0A9FD32685A
:101E30007B4B84F8680408201A600DF0CBFD794BC9
:101E4000082118600DF09CFD774D002184F869048D
:101E50002C22284618F06EF97C232B708E236B7091
:101E6000E023EB707D23326885F82B306F4B202008
:101E70001A600DF0AFFD2021C4F86C040DF080FD58
:101E800084F8700410200DF0A5FD1021C4F874042E
:101E90000DF076FD664B3B221A7001225A703A22F1
:101EA0001A719F229A711E221A72A4225A7200225B
:101EB0009A72DA721A7384F8780410F052FC5D4B4F
:101EC0005D4C1B78022B7DD12588002D7AD10F2304
:101ED0008BF806300E2313218BF8073058468BF809
:101EE0000850C8F87CB40EF0B7FB58460EF093FDCE
:101EF000524A3220138823F040031B041B0C13802A
:101F0000138823F038031B041B0C138013889BB227
:101F100043F0400313809F238DF834308DF8355003
:101F20008DF836508DF8375012F086FF58468DF8F0
:101F300055500EF06BFD04220DA915A812F0BEFA43
:101F400058460EF068FD9DF856309DF855201B024E
:101F500043EA02429DF857301343394A934217D05F
:101F60000CDC384A934215D00132934217D0A2F5C7
:101F70001A42033A934220D120230CE0324A934282
:101F800008D0013293420AD0304A934215D101E081
:101F9000402300E0802323804FF4807302E04FF45D
:101FA000807323806380A38822881B02A36053432D
:101FB000E360012388F8803404E0002323806380F9
:101FC000A360E360E568002D4FD0ED0A2E464FF088
:101FD00000080DF15409A84509DA08EB050464105E
:101FE00010224946E00207F055FE0F2832DC07F0C8
:101FF00013FE174BF6021E6037E000BF58030020A7
:1020000000366E01000400406C00024034040040C1
:10201000E005002042380020A8160020741200209D
:10202000B4120020D012002084120020E8120020F8
:10203000FC240020352500208400002000380040CA
:102040001620C20017BA20001740EF001720C20068
:1020500020130020002359F82320013257D10133E7
:10206000042BF8D125462646B5E7BAF8D831704A90
:10207000013B9BB2052B9EBF012382F8E63182F81B
:10208000DA31029A9AF8E63152695343694A136089
:102090003B68694A13F4002318BF01231370644B93
:1020A0005A791C46052A02BF644B4FF4C8721A8045
:1020B00008F011FC624BC8221A80624A137843F080
:1020C00008031370604A137823F00203137040F67C
:1020D00002033A6813406BB15C4A5D4B1A605D4B7A
:1020E00003221A705C4B01221A705C4A0023138091
:1020F0005B4A1380A36801223B605A4B1A705A4A0C
:10210000137863F07F03137021B0BDE8F08F04F102
:1021100001083446A7E7554B00221A7000B214F0AC
:10212000BBFD534914F00CFE414C0646B4F9CC01FA
:1021300014F0B2FD4E4914F003FE0546B4F9D00187
:1021400014F0AAFD4A4914F0FBFD4A490446304602
:1021500014F0EEFC13F0B0FE8046304613F0ACFEF7
:1021600044490646284614F0E3FC13F0A5FE074652
:10217000284613F0A1FE3F490546204614F0D8FC3E
:1021800013F09AFE8246204613F096FE41468146A1
:10219000504614F0D5FD41460290484614F0D0FD5B
:1021A00051460390304614F0CBFD4946049030462A
:1021B00014F0C6FD39460590504614F0C1FD2E4C72
:1021C0004946206007F1004014F0BAFD04996060B0
:1021D000A560284614F0B4FD039914F0A9FC0599F4
:1021E000E060284614F0ACFD0146029814F09EFC15
:1021F0003946206106F1004014F0A2FD02996061A9
:10220000284614F09DFD0146059814F08FFC0399B3
:10221000A061284614F094FD049914F089FC41460D
:10222000E061384614F08CFD2062FFF729B800BF4A
:10223000002F0020341A0020FA1B00208C0D0020F3
:10224000C8370020F9120020301800201231002079
:1022500060150020061A002054030020642E002080
:10226000662E0020F00B002039380020A40000204A
:1022700035FA8E3CDB0FC93F3C150020694B2DE938
:10228000F04F1B68A3B09A6A674B1A80674B1978A6
:102290000593012904D1664B1A80664A12885A8038
:1022A000654B1A780493002A01F0328112F086FD02
:1022B000624B06909B6813B1049A901C9847604B40
:1022C000604DD3F8008018F0080F38D05E485F4AA0
:1022D000848804F10E039BB21C2B5D4BB3F90430D0
:1022E00029D85C4909884F0725D50A2193FBF1F1CC
:1022F0001288594B891A89B20AB212F1B30FBCBFC6
:1023000001F5B4710AB2B32A1B78C4BFA2F5B47246
:1023100012B21E0713D595F9D411504B49424A43C6
:102320001B6812B25B7A5A436FF01D0392FBF3F302
:102330002344838003E00A2193FBF1F31380484B8D
:10234000B3F90640474B1B685A8994420CDB197A53
:10235000B4F5FA6FBFBFA31A4B43C2F5FA6193FB02
:10236000F1F1C1F1640100E0642140F2E63995F930
:10237000D431B5F8440295F822E295F823C25B42C5
:10238000314D1FFA83FB0022374B5700D154344B99
:1023900033F91260331A03F2F31ACA450ED8002B30
:1023A000B8BF5B42022A0DD0734502DDCEEB0303BA
:1023B00000E000238642EB530EDB10E0022A4FF4CC
:1023C000FA73F3D16345CCBFCCEB0303002303FBCB
:1023D0000BF38642AB8005DAEB5B5B42EB530132D9
:1023E000032AD1D1214B1D6815F480550ED0B4F5C8
:1023F0007A7F06DBB4F5FA6F2246A8BF4FF4FA6283
:1024000001E04FF47A72A2F57A723AE00D4BB3F81C
:1024100046128C422CDBB4F5FA6F2246A8BF4FF46B
:10242000FA6226E0F0150020041A0020861500202C
:1024300088150020A413002038090020BC250020A6
:10244000B4250020002F0020141A0020920D002037
:102450001C1A002028180020F91200206013002008
:10246000CC1700204C240020301A0020C817002070
:102470000A46521A4FF47A735A43C1F5FA61B2FB15
:10248000F1F2642392FBF3F1A34F01F1010E37F94E
:10249000116037F91E706FF0630E0EFB0121BF1B38
:1024A00001FB07F292FBF3F293199C4A9BB2D38093
:1024B000B5B19B4A1268D10012D59A4AD2787AB93E
:1024C000A3F57A731BB24FF47A721B0393FBF2F3FA
:1024D000C0F5FA6212B2534300EB23308F4BD88021
:1024E000914D2F887A0645D5904B0A20B3F90430D8
:1024F00093FBF0F08E4B1B88C01A00B214F0CCFB9B
:102500008C4914F01DFC8C49064614F011FB13F0A5
:10251000D3FC8346304613F0CFFC804E8146B6F99B
:10252000020014F0B9FB8246B6F9000014F0B4FBC7
:102530005946089014F004FC51460790484614F0A0
:10254000FFFB079A0146104614F0F0FA14F0D4FD90
:1025500059463080504614F0F3FB089B82461946DA
:10256000484614F0EDFB0146504614F0E1FA14F031
:10257000C3FD708018F0140F704EDFF8F08166D044
:1025800017F4027F63D06E4B644A1B7803F010038C
:1025900003F0FF0E43B16B4B98F99402196853880E
:1025A00000FB0133538052E0674B68491B68D878C1
:1025B0009B7808B3B1F90010601A0028B8BF4042F8
:1025C00098420DDD62488C42C0F800E04FF00100F7
:1025D0003071C8BF5B42D0889BB20344D38036E0E1
:1025E00033792BB15B4B86F804E018685A4B1860BE
:1025F000544B1B680B441FE0B1F900E0CEEB040123
:1026000081EAE17CACEBE17C9C4509DD022391FB96
:10261000F3F1524B1960524901230B70337108E0FA
:10262000337933B14B4B307119684B4B19604C4BBC
:102630001870444B1B6873444A49086801884088F5
:102640008B4203DB98420146A8BF1946D180464B16
:102650001B78B3B1B8F84632A34212DB434B5B7927
:10266000012B01D0192B02D198F88F224AB90E2BD9
:1026700007D0082B05D0294B00229A803C4B002222
:102680009A6098F810426CB3BB072BD0394B3A498B
:102690001F6A384614F0FCFCF8B9384615F016FBF2
:1026A000364B196814F04CFB15F096FAB0F5617FC3
:1026B000A8BF4FF4617014F0EFFA314914F0F4FB45
:1026C00013F0FAFB0746204614F0E6FA394614F0F8
:1026D00037FB15F081FA00B200E000200F4AD388E2
:1026E0001844D08098F84A32264A1BB92988002914
:1026F00000F0AB801278094D002A00F08980022B8F
:1027000042D0032B52D198F84B32C3EB431203EB68
:102710008203DB0048E000BFE21B0020141A002007
:102720002C180020FC170020281800201C1A00205C
:10273000940D002035FA8E3CDB0FC93F380900208C
:10274000F91200200C380020E8160020980D002017
:1027500008380020F4370020FC3700200038002023
:1027600010380020EC1600204C030020002F002021
:10277000081A0020203600208FC2753CDC1600208D
:10278000EFB6B044960D0020AD4BD3F8F820B2F56B
:102790007A7F05DB44F620639342A8BF134601E02D
:1027A0004FF47A7303F57A739BB200E0F388A54A7D
:1027B0001068A54AB3FBF0F01278441C24B2092A31
:1027C000348105D1A14A2988D3801180698851803C
:1027D000B6F90A80DFF8949200239D4E39F913E090
:1027E00006F10C0C3CF9131006F1140708FB01F17B
:1027F00091FBF4F137F8132027F813E0C2EB0E0237
:102800000A442CF813200133042BE6D1708102E036
:102810007389013B73818E4A0023B2F90A40002C70
:1028200011DDB2F9086014328A4932F8130031F927
:102830001310614391FBF6F1411A25F8131001338F
:10284000042BF1D106E0538104E013787181002B51
:1028500000F0DA80804B814D93F84C0220B1804B20
:102860001B689F0001F15C847E4B00261F687E4B35
:1028700007F1040A1B6804932B880793059B1B78B8
:102880000593049B93F800807300022E0893774B06
:1028900015BF3878787897F802B097F809B033F90F
:1028A000165014F0F9F9724914F0FEFA4FF0804115
:1028B000044614F001FC60B14FF08041204614F052
:1028C00035F96C4914F03CFA0146204614F030F911
:1028D0000446284614F0E0F9674914F0E5FA0021AF
:1028E000054614F0E9FB002841F0778405F1004922
:1028F000BBF1000F23D0584614F0CEF95C4914F018
:10290000D3FA49468346484614F01AFA0146484627
:1029100014F016FA294614F013FA594614F010FA76
:10292000594608904FF07E5014F000F9294614F0F3
:1029300007FA089B0146184614F0FAF805464F4975
:10294000204614F0FDF9294614F0FAF91AF8013F6F
:102950000446DFF84CB10893002B01F0938400216A
:10296000284614F0A9FB089B08B905F10045184654
:1029700014F092F93E4914F097FA294614F0E0F960
:1029800001464FF07E5014F0D1F83D49054614F051
:1029900075FB002841F024844FF07E51284614F046
:1029A0008BFB08B14FF07E5529464FF07E5014F056
:1029B0007BFAB8F1010F0146204601F0148414F0AF
:1029C000BFF90446059B0C2B01F06884B8F1000F99
:1029D00041F06F842B49204614F0B2F92A4904468D
:1029E00014F04CFB002841F061842849204614F083
:1029F00063FB00B1254C4BF826400136032E7FF4D3
:102A000043AF234B00221A70224B1878002840F065
:102A10007285214E33681C0340F16D851F4C23786D
:102A2000033B052B4FD80C4B094D93F83D35CBB3E9
:102A3000012B3BD107F006F8C0F17F0036E000BF64
:102A4000A8000020341A00208615002088150020D8
:102A50003809002044090020002F002028180020F9
:102A60002C1800204C24002060130020141A002091
:102A70000000C842D7A368410000FA430000484361
:102A80000AD7233C3333834000F0FFC500F0FF45F5
:102A9000960D00205C130020C8170020FA1B0020B0
:102AA000081A0020686A03689B689847AB6A95F823
:102AB0002C201344B3F5807FA8BF4FF4807383426A
:102AC000D4BFAB62A8622378023B092B00F27A8460
:102AD000DFE813F00A0014004600780478045F0071
:102AE000720029044B045B049D4B00229A621A6316
:102AF0009C4A12685A63032300F063BC994B984DBB
:102B00001A686B6B6433934280F05C84402012F04F
:102B1000A7FA002840F056842F46DFF84C924FF079
:102B200040082B6B19F8030060B112F073FBBB6A0D
:102B3000B8F1010803F1FF33BB623B6B03F1010302
:102B40003B63EED12A6B8849854B8A5C002A40F0B2
:102B500039841A634FF0FF325A63042300F031BC0A
:102B6000824A5021A2F10C0301932923029200937F
:102B70004920A2F10A03163A10F0AEF9002840F0FD
:102B80002184774B4FF0FF3218635A63072300F01C
:102B900018BC05230093764B002102910191A3F10B
:102BA0000802532010F098F9002840F00B846C4B79
:102BB0001863082300F005BC402012F051FA0028E9
:102BC00040F00084664D2B6B492B01F28483DFE8D3
:102BD00013F04A004D005200560059006000650095
:102BE0006A006E0072007E0087008A0097009B00DA
:102BF000A000A500B60009011A012B013C014D01FE
:102C00005E016F0183018D019B01A901B701C5011F
:102C1000D301E101EF01FD01070217022102330296
:102C200045025702690273027D02870291029B02EC
:102C3000E302ED02F70201030B0315031F03240354
:102C400029032E03330340034D035A0365036A032C
:102C50006F03740379037E03830388038D03920358
:102C600097039C03A1034349434856E3434B444A1B
:102C700044494548C1E1454A454946483DE0464941
:102C800046484AE3464B474893F83C2593F83B15A2
:102C900033E0434B4448B3F8CC103EE3404B434849
:102CA000B3F8CE1039E3424B4248196935E3424B41
:102CB0004248198931E3AB6BD90404D5384B4048FD
:102CC00093F8121229E3264B0B221A6327E33449A7
:102CD0003C4891F8153291F8172291F816128CE1C0
:102CE000A98F394819E333681A0540F118832C4B32
:102CF0003648B3F91A22B3F81C1212F066FB0EE341
:102D00002B4B3348596908E3254B324893F8DA11C5
:102D100003E3234B304893F8E611FEE2204860229B
:102D200090F8903402FB03F1431893F80A240C2323
:102D300003FB0213034493F80C142848EDE21848EF
:102D4000602290F8903402FB03F1431893F80A24B0
:102D50000C2303FB0213034493F80E142048DCE217
:102D600038090020F8170020F0A3010866A4010824
:102D700044A6010850C501085CC501086DC50108DD
:102D800072C501087AC5010880C50108A8C50108F7
:102D9000B1C50108BDC501084A340020D1C50108EC
:102DA000002F0020DFC50108F0C50108FFC501089C
:102DB000BC2500200EC60108382500201EC60108CB
:102DC00028C6010835C601084EC6010859C60108C3
:102DD0006CC6010878C601088BC60108A0C60108A8
:102DE000AAC60108CD48602290F8903402FB03F196
:102DF000431893F80A240C2303FB0213034493F8AB
:102E00000D14C74889E2C548602290F8903402FB4F
:102E100003F1431893F80A240C2303FB0213034421
:102E200093F81514BF4878E2BC48602290F89034BB
:102E300002FB03F1431893F80A240C2303FB02134B
:102E4000034493F80F14B84867E2B448602290F83E
:102E5000903402FB03F1431893F80A240C2303FB7C
:102E60000213034493F81014B04856E2AB486022B2
:102E700090F8903402FB03F1431893F80A240C23D2
:102E800003FB0213034493F81414A94845E2A34832
:102E9000602290F8903402FB03F1431893F80A245F
:102EA0000C2303FB02130344B3F81614A14834E2C5
:102EB0009A48602390F890144B43C21892F80A2461
:102EC0000C2101FB0233C11891F8133491F812243C
:102ED000994891F8111490E0904B602193F8902458
:102EE000964801FB023393F8D01316E28B4A602117
:102EF00092F89034924801FB032191F8E53391F860
:102F0000DB2391F8D11378E0844A602192F8903461
:102F10008C4801FB032191F8E63391F8DC2391F80A
:102F2000D2136AE07D4A602192F89034864801FB12
:102F3000032191F8E73391F8DD2391F8D3135CE096
:102F4000764A602192F89034804801FB032191F881
:102F5000E83391F8DE2391F8D4134EE06F4A6021F4
:102F600092F890347A4801FB032191F8E93391F803
:102F7000DF2391F8D51340E0684A602192F890343D
:102F8000744801FB032191F8EA3391F8E02391F8AA
:102F9000D61332E0614A602192F890346E4801FB0A
:102FA000032191F8EB3391F8E12391F8D71324E052
:102FB0005A4A602192F89034684801FB032191F845
:102FC000EC3391F8E22391F8D81316E0534B6021CB
:102FD00093F89024624801FB023393F8D9139CE1E3
:102FE0004E4A602192F890345E4801FB032191F82B
:102FF000EE3391F8E42391F8DA1312F0E6F98EE15A
:10300000464B602193F89024574801FB023393F814
:10301000EF1382E1414B602193F8902401FB0233CE
:10302000B3F8F00313F038FE504913F089FE14F0A2
:1030300063F801464E4870E1384B602193F89024C4
:1030400001FB0233B3F8F20313F026FE474913F0F5
:1030500077FE14F051F8014646485EE12F4B60219F
:1030600093F8902401FB0233B3F8F40313F014FE39
:103070003E4913F065FE14F03FF801463E484CE12E
:10308000264B602193F8902401FB0233B3F8F6033A
:1030900013F002FE354913F053FE14F02DF80146EB
:1030A00036483AE11D4B602193F89024344801FBE7
:1030B000023393F8F81330E1184B602193F8902411
:1030C000304801FB0233B3F8FA1326E1134B6021B9
:1030D00093F890242C4801FB0233B3F8FC131CE155
:1030E0000E4B602193F89024284801FB0233B3F87B
:1030F000FE1312E1094B602193F89024244801FB50
:10310000023393F8001408E1044B602193F89024F3
:10311000204801FB023393F80114FEE0002F002049
:10312000B4C60108C1C60108CEC60108D8C6010848
:10313000E3C60108F0C6010802C7010811C701086B
:1031400022C7010833C7010845C7010855C7010850
:1031500065C7010875C7010886C7010897C7010838
:10316000A9C7010899C70108B3C701080000C842F0
:10317000C8C70108D8C70108E6C70108F8C7010891
:103180000EC801081DC8010839C801084FC8010848
:103190005EC8010875C80108AD4B602193F8902402
:1031A000AC4801FB023393F80214B6E0A84B60214F
:1031B00093F89024A84801FB023393F80314ACE081
:1031C000A34B602193F89024A44801FB023393F8A9
:1031D0000414A2E09E4B602193F89024A04801FBC8
:1031E000023393F8051498E0994B602193F89024EA
:1031F0009C4801FB0233B3F806148EE0944B602127
:1032000093F89024984801FB0233B3F8081484E043
:103210008F4B964893F822127FE08D4B944893F899
:1032200023127AE08A4B9348B3F8D81175E0884BA3
:10323000914893F8DB1170E0854B93F8DC0113F0B3
:103240002BFD8E4913F07CFD13F056FF01468C4890
:1032500063E07F4BB3F8DE0113F01EFD874913F0E6
:103260006FFD13F049FF0146864856E0784BB3F8EE
:10327000E00113F011FD814913F062FD13F03CFFF2
:103280000146814849E0724B7C49D3F8F40113F0C0
:1032900057FD13F031FF01467C483EE06C4B7C4803
:1032A00093F8D51139E06A4B7A4893F8EA1134E083
:1032B000674B794893F8E9112FE0654B774893F80D
:1032C00089122AE0624B764893F84A1225E0604B57
:1032D000744893F84B1220E05D4B7348B3F84E12DC
:1032E0001BE05B4B714893F83C1216E0584B70485A
:1032F00093F8E31011E0564B6E4893F8E2100CE09F
:10330000534B6D48B3F8DE1007E0514B6B4893F810
:10331000E71102E04E4B6A48996812F056F82B6BA1
:1033200001332B634EE0674B1B689B011AD5664D3A
:10333000B5F84030B3B9654BD5F8448045201F68D7
:1033400011F068FF0E2011F065FF404612F01DF8E5
:10335000384612F01AF84FF48053EB870A23237093
:103360000FF0F8FA0FF096FD2CE0574B93F8482039
:10337000002AF5D0534A12689701F1D493F84930E6
:10338000002BEDD109232370ECE7514B4E4D1A6809
:103390006B6BC833934204D22D4B93F83D757FB9C4
:1033A00004E011F0A3FE0028F6D10BE0686A0CF0EF
:1033B00069FA95F84A306F62022B01D10EF040F99C
:1033C0000123237011F07CFE58B1012323703E4B82
:1033D00093F84920002A00F08E80002283F84920CB
:1033E00089E01B4B93F83E251946002A00F08380A4
:1033F00033680026DD0433464CBFB1F8DA20B1F85B
:10340000D020344D35F913000133904218BF46F0F7
:1034100001060C2BF6D12E4B2B4D1B6826B103F564
:103420009C530833EB6402E0EA6C9A4259D9237842
:10343000012B60D195F84930002B5CD191F83D35D6
:10344000002B49D006F0ECF8012385F8493052E012
:10345000002F00208EC80108A2C80108B7C80108C3
:10346000CBC80108E2C80108F7C801080DC9010866
:1034700009C9010819C9010825C901080000C84285
:1034800037C901084AC901085BC9010870C90108A8
:103490007EC901088EC901089FC90108AFC901088A
:1034A000C8C90108DCC90108F9C9010816CA010820
:1034B0002BCA010840CA010855CA010867CA010899
:1034C00075CA01082C18002038090020C0370020D8
:1034D000F81700200413002080200EF0A9F850B93E
:1034E000B0E72378012B06D095F849301BB106F0E0
:1034F00069F885F84960A74B1B78072B05D111F0B7
:103500005DFC069BC01AA44B5880A44B00221A7085
:10351000A34C13A863689847A146002800F02581B2
:10352000A04DBDF94C30A04F2B60BDF94E3029465F
:103530006B60BDF950302846AB609C4B1A7807F0A1
:10354000DDF93B88002B00F0A080994B994E1B6859
:1035500006F10C041B784FF0000804933B88D9F85F
:10356000142005934FF47A73B3FBF2F3C3EB4312C9
:1035700003EB8203DB00059A9BB29A4202BF002351
:103580003360236155F8280033684FEA880B034401
:10359000336013F081FB226902F1010ABAF1010FD5
:1035A000C4F810A004D1002360602060A36022E072
:1035B000226808901146079213F0B8FA0690504618
:1035C00013F06AFB0146069813F06EFC079A114649
:1035D00013F0AEFA089B014682466060184613F06D
:1035E000A5FA069913F0ACFBA16813F0A1FAC4F890
:1035F00000A0E060A060704A002345F80B304BF853
:103600000230059B012B2ED12069012807DD0138EE
:1036100013F042FB0146E06813F046FC00E0002096
:1036200014F09AFD049B82464BB1184613F034FB0C
:10363000514613F023FD10B107F04DF925E0D9F8FC
:1036400014204FF47A73B3FBF2F3C3EB431203EB92
:103650008203DB0032689BB202EB530292FBF3F36E
:10366000554A42F80B3008F10108B8F1030F06F192
:10367000040604F114047FF471AF3888012801D1E5
:103680000CF092FA3B88013B3B804B48002355F8F5
:10369000232050F82310434E521A45F823200133BB
:1036A000032BF4D1454B1A781F46002A50D0DFF87F
:1036B000E490434ECB46DFF8E0A0002499F80030B8
:1036C0004FEA8408032B04BF55F824302AF814303D
:1036D0003C4B1B78012B0BD155F8080013F0DCFA9A
:1036E000394B01461C2000FB043012F053FC10E063
:1036F0003A7855F80800049213F0CEFA334B01469D
:1037000033484FF00C0E1B68049A0EFB040012F0B5
:103710002DFD70609BF80030082B04D1706814F008
:103720005BFA2AF814002B4B1B883BB12A4B1C2058
:10373000716800FB043012F02DFC706056F8040F25
:1037400014F04AFA0134032C45F80800B6D10CE015
:10375000306813F0A1FA214C2060706813F09CFAD5
:103760006060B06813F098FAA0600C4A92F8C83014
:10377000144623B1013B82F8C83000F0B7BD184BA6
:1037800093F8DC211E466AB393F8E631013BDBB2C5
:1037900029E000BF86150020881500203809002088
:1037A000BC250020241A00202C150020A026002073
:1037B000A416002088090020D0090020D42500206C
:1037C000641B002034260020382600208C26002090
:1037D000DC090020DC250020E0250020681B0020FB
:1037E000002F0020012384F8C83011F0E7FA974B2E
:1037F000974DD3F80080974BB6F82612A3F14602F6
:1038000007462868C047944B1A781E46072A04D1F9
:1038100011F0D4FA914BC01B988011F0CFFA96F8B2
:1038200000B00490BBF1010F0AD18D49D4F8CC301F
:103830008A4A0968C31A93805B1AD380C4F8CC0003
:10384000884B2A681B68E3B192F83140D4B1864AAC
:103850001268940718D5854A1278012A14D9DB78A2
:1038600083495A430988D31A994215B203DB91421E
:103870000B46A8BF13462D031BB295FBF3F501249D
:1038800005E01C46254602E001244FF48055794BA3
:10389000DB780D932CB1BDF954306B431B13ADF89D
:1038A00054304FF000094E464F46734BDFF8ECA101
:1038B00093F80080714BB3F902200892B3F900200D
:1038C000B3F9043009926E4A05931268634B06926D
:1038D000474545D208980A9313F0DEF9DAF8081044
:1038E00013F02EFA0790099813F0D6F9DAF80410BD
:1038F00013F026FA079A0146104613F019F9069BB1
:10390000079093F90000059B4042584313F0C4F917
:10391000DAF80C1013F014FA079A0146104613F067
:1039200007F913F0E9FB15AA00B20A9B0CB1684332
:10393000001322F8170015AA32F91720B24203DC4F
:103940009145A8BF914600E01646BBF1050F03D193
:10395000042F98BF23F8172001370AF1100AB7E7A0
:10396000414BC9EB0606196836B211F48053079330
:10397000444A40D0444B45481B78B2F9062013F026
:10398000040F08BF0368424F02BF1C8A404BA3F8D4
:10399000904103683F481B8A00683F4CC588C5EBCF
:1039A000030E724508DCB0F900302068A7F89021BA
:1039B000B0F9004015440AE02B449A4209DB236821
:1039C000B0F90240B3F90230A7F89021551B2DB28F
:1039D00019E0B7F990319E45B3BF2368B0F90030C4
:1039E0002268B0F90240A7BFB2F900401D46B3F902
:1039F0000230254607E0284BB2F906501B68B3F9A0
:103A00000040B3F902309BB2A4B2C4EB030A0FFA30
:103A10008AFA56451E4A43DD4FEA0A3999FBF6F603
:103A20000020C2F89461804508D915AB33F91070B5
:103A300077433F1323F810700130F4E702239AFB19
:103A4000F3F31C4424B20A9433E000BF5003002077
:103A500060130020343100208615002088150020D6
:103A6000341A002060150020C817002054030020DD
:103A7000B0150020FC170020331A0020CC1A0020BB
:103A8000B8160020141A002030180020BC160020A0
:103A9000380900209035002094350020080A0020C5
:103AA0004FF0020996FBF9F69B1B34441BB224B27B
:103AB0000A93B2F990315F4A0C9317685E4A5F4BE4
:103AC00016785F4A1B68B2F9062006935D4B0B928D
:103AD0004FEA480206F004060E921B6801F010023D
:103AE000DFF88491F6B24FF0000B0F920E9A9345D7
:103AF0004CD015AA3BF8022028461092119313F0DF
:103B0000CBF8514B53F83B1013F01AF913F0F4FAB9
:103B1000A0422146109A119B03DB0A998142A8BF5B
:103B200001460A440D9912B229F8022F09B1B98849
:103B30000EE0079959B10699D888098A091A0C9894
:103B4000884202DC3988188803E0598800E0398807
:103B500078888A4203DB90420146A8BF11460F9A3B
:103B6000A9F800107AB176B1079A62B910930BF0F8
:103B7000F5FF109B38B9069A0B99528A9142BCBF47
:103B8000BA88A9F800200BF1020BAFE7398949B3D5
:103B90002E4B4FF47A721B68B2FBF3F3B1FBF3F3D5
:103BA000012B05D942F210729342A8BF134600E0E0
:103BB00002231BB29A4515DD254C3A8834F918507A
:103BC00024484FEA480147189542B7F9987103DB3A
:103BD000FA18AA42A8BF2A4612B2014424F81820B3
:103BE000A1F8982116B91A4B1B4A06E0194B93F815
:103BF000B021192A00F2408107E0B045F6D932F829
:103C0000161023F816100136F7E7012303FA02F223
:103C1000124B1340002B00F02F81114B1B88D8054D
:103C200024D5104B1A88ADF86C205A889B88ADF8C3
:103C30006E2030E09435002030180020BC160020A3
:103C4000CC17002090350020080A0020341A0020EC
:103C5000D4340020380900200413002032413003FE
:103C600028180020141A0020D2340020BDF8243077
:103C7000ADF86C30BDF82030ADF86E30BDF81430C2
:103C8000ADF87030079B43B1069B0B9A1B8A9A4292
:103C900003DA059B5B42ADF87030AA484FF47A72A4
:103CA000B0F902304FF4616103F5E163534393FBD4
:103CB000F1F3A3F5FA73ADF88430B0F9003003F5F1
:103CC000E1635A4392FBF1F29F4BA2F5FA721B8813
:103CD000ADF88620A3F2DC53ADF872309B4B9C4AC2
:103CE0001B6811881B8AC91AADF874105188C91A4B
:103CF000ADF876109188C91AADF87810D188C91A34
:103D0000ADF87A101189C91AADF87C105189C91A19
:103D1000ADF87E109189D289C91AD31AADF88230D4
:103D20000023ADF8801019468A4A22F81310013397
:103D3000082BFAD1884B89491B68894D0593894B1B
:103D4000DFF810A21B684FF0640E0693864B4FF00D
:103D500001091B78C3EBC303CB180993099B994254
:103D600070D00B782BB11533059A09FA03F3134081
:103D700064D0069B11F806CC0E2202FB0C38B8F971
:103D80000230B8F9002011F9010C9A1A11F9023C1D
:103D900092B2534393FBFEF34FEA520B11F8057CAA
:103DA000CBEB0303089011F8030C1BB207937E00C2
:103DB00028B922A8064436F81C0C288019E022AB4A
:103DC0001E44B5F9004036F91C6CB44208DA2044B0
:103DD000844203DC86423446A8BF04462C8008E0B7
:103DE00007DD201AB04203DB8442A8BF0446264602
:103DF0002E80D8F80A0009FA07F73842B5F90060B2
:103E000011F9040C079B00FB06F090FBFEF00CBFC1
:103E100001244FF0FF34984209DB089B5A4392FB80
:103E2000FEF2CBEB02031BB28342A8BF03463AF873
:103E30001CB004FB03B32AF81C3000E02B800235D1
:103E400007318BE7474B494ED3F8008000254FF0F0
:103E50000E09642709FB058393F9064036F9023FF2
:103E6000E8B25C4394FBF7F4348010F0DBFD0135DD
:103E70002044082D3080EDD13D4EDFF8E8803368D6
:103E800013F0200F31D0002010F0CCFD314C05464E
:103E90002080012010F0C6FD2F4B60801B681906A2
:103EA00023D5344B274A1B681B78012B23D1D8F824
:103EB00000C0B2F902109CF906304FF0320E5B429E
:103EC0004B4393FBFEF3B2F900209FB29CF91430F0
:103ED0006FF03101534393FBF1F193FBFEF339444F
:103EE000691A3B44218018446080D8F800301F4A8A
:103EF00003F1700419E0D8F80070B2F9023097F9B4
:103F000006105943322391FBF3F12944218097F99C
:103F10001450B2F9001001FB05F292FBF3F21044C9
:103F2000E2E70E339C42118026D032F9020FB3F93A
:103F30000010B3F902508842F3DB85422946A8BF3E
:103F40000146EEE71C1A0020D4340020BC160020E5
:103F5000CC170020100C00202C1800209F350020CA
:103F6000EA0A002010360020983500200E0C0020B0
:103F7000C8170020B4160020A24FA34D3B6893F948
:103F80000430ABB995F8B08108F1FF33182B00F27B
:103F90009280DFE803F05090906B90909064909046
:103FA0009090907690909090906B83909076500047
:103FB000A9460023DFF858B2A5F8D231B5F9D241AD
:103FC000072CDFDC99F8D421DFF874A272B93A68C3
:103FD000508812F05DFE8D4A01461C20126800FBDD
:103FE00004A012F08FF8012289F8D4213BF91400C3
:103FF00012F052FE01461C2000FB04A011F0CAFF83
:1040000013F0EAFDD8F800100E2202FB041200B2F1
:104010002BF81400B2F90010B2F90220884203DB39
:104020008242A8BF02461146794B23F8141001348E
:10403000A5F8D241C2E73B685B781BB1744B002006
:10404000598908E0734B1B7803F0040303F0FF0168
:10405000002BF3D108460CF0BFFA01242CE06C4C85
:104060000020E1880CF0B8FA218905E0684C0020B6
:1040700021890CF0B1FA618901200CF0ADFA02241B
:104080001AE0634F0224A01E37F81410C0B20134A6
:104090000CF0A2FA082CF6D106240DE05C4F0324A4
:1040A000E01E37F81410C0B201340CF095FA072C5A
:1040B000F6D1042400E0002433689A0602D4B8F153
:1040C000050F0BD1524F204639880CF085FA601C41
:1040D0007988C0B20CF080FA0234E4B23368DB02B3
:1040E00005D495F8B83273B110F0F2FB0BE04A4FEB
:1040F0000026A01937F8021FC0B20CF06DFA0D2E81
:10410000EFD00136F5E7454B1B78072B05D110F0B2
:1041100055FE049BC01A424BD88001232B70E5E06A
:104120002B885E063EF5A0AB374C3E4F237F834283
:1041300010D0207712F0B0FD3B4912F001FE3B4950
:10414000064612F0F5FC11F0B7FE3860304611F06B
:10415000B3FE2062364CB4F9000012F09DFD064615
:10416000B4F9040012F098FD3F68049B804639467C
:104170003046D3F8209012F0E3FD4946824640468F
:1041800012F0DEFD0146504612F0D0FC12F0B4FFF2
:10419000DFF8B0A0B0F5FA7FA8BF4FF4FA70504531
:1041A000B8BF504641462080384612F0C9FD494606
:1041B0000746304612F0C4FD0146384612F0B8FCFE
:1041C00012F09AFFB0F5FA7FA8BF4FF4FA7050458D
:1041D000B8BF5046A080FEF747BBA946FEF788BB94
:1041E000144DFEF7E1BB12F0ABFD1349054612F08A
:1041F00045FF48BB1149284612F05EFF28B30F4D1A
:1042000023E000BFB816002038090020341A00202F
:10421000100C002030180020D21700208615002036
:10422000881500200000002035FA8E3CDB0FC93FC6
:10423000141A00200AD7233C00C0F9C400C0F94476
:10424000100B00200CFEFFFF2A4D2B4B43F826508D
:10425000049B93F8340063281CD8022E1AD0079BC5
:10426000C3B912F019FD254912F01EFE294612F0BD
:1042700067FD214612F05AFC0146204612F058FC18
:10428000054607E0B8F1010F7EF49CAB05461A4BDA
:1042900043F82600059B2C460C2B0AD1204612F031
:1042A0002BFF174B72009852FEF790BB154CFEF790
:1042B000A2BB1049204612F0E1FE48B9124920463F
:1042C00012F0FAFE00283EF496AB0F4CFEF793BBBB
:1042D000084CFEF790BB10F009FF00283FF472A8CD
:1042E0004FF48053EB870A23FFF76BB823B0BDE888
:1042F000F08F00BF00C0F9C45C1B00200000C84262
:104300008815002000F0FFC500C0F9442DE9F04FEA
:10431000914BADB01D780093002D00F0A7808F4B1E
:104320001868002801F008870CF0A6FBDFF85C9203
:10433000DFF85C82D9F800000BF086FF002801F05E
:10434000FB86D9F800000BF07CFF0928844C01D0D3
:104350003F2855D14FF0000A5746554626680AEBCC
:10436000080B36B132465AF808107E4815F026FF81
:1043700020B90DB15F4601E05D465F460AF1080ACB
:10438000BAF5907FEBD1F5B1D5F800A0D7F800B021
:10439000DFF8D0C123681AF803001BF8031081422C
:1043A00011D15A1CDFF8BCE149B92D2B07D86C4854
:1043B000026020200EF803000EF8021003E00CF853
:1043C00003002260E6E723680BB1BD420FD06648C8
:1043D00004F0D6FABD4207D855F8080B04F0D0FA1D
:1043E00009200AF06EF9F5E707F0A6FF00265D4DFB
:1043F00023689E429ED2A85D0AF063F90136F7E772
:1044000023686BB9042804D1564804F0D9FC01F0A4
:1044100093BE0C2841F08C86544804F0B1FA22E097
:104420000C28F9D00A2841F037864E4E504804F047
:10443000A7FA2321304615F0B2FE354608B1801B9D
:10444000206023680022002B41F02A86002A41F0D8
:10445000428630220021434815F06CFE009B1B78F9
:10446000002B01F0698607F067FF63E7414B03F11A
:104470003007414BEA18EB58002B01F054803F4CB9
:104480003F4922603F4A2646894692460B60059383
:1044900000238DF819303C4814238DF8183004ABF4
:1044A00004920360D9F80000DFF8D4800BF0CCFE52
:1044B000002801F02480D8F800000BF0C2FE336819
:1044C000834693F8481019B9242863D101221DE0CE
:1044D000012903D14D2808BF022204E0022907D197
:1044E0003C2808BF032218BF002283F8482085E03B
:1044F00003290ED140284FF0000102D983F848105B
:10450000D0E758711971D9719871042283F8482045
:10451000C8E7042907D1997983F8490080EA0102A4
:104520009A710522F2E7052968D1587919798842EC
:10453000987908D98BEA00009871481C18710B44CF
:1045400083F808B0AEE7584503D1062283F8482027
:104550005AE00022DAE700BF5C1300205C1800205C
:1045600058130020281300204CCB010851CB010820
:1045700097CF010864A60108642400205018002089
:104580005818002055020108541800202413002058
:10459000F4A90108BF490B7803F0040303F0FF0EF0
:1045A000002B7FF47FAF23281DD1009A0123D8F878
:1045B00000001370B84B01911860B84B1860B84BED
:1045C000586010201872B748C3F800A0036083F841
:1045D00009E0B54804F0D4F907F0AEFE01990B7874
:1045E00043F002030B70B14B1B681B785B4505D190
:1045F000AF4BB04A1A60B04BB04ADA60336893F8F8
:104600004820062A7FF44EAF93F84980B8F1520F44
:1046100000F0878600F2D880B8F1340F00F05084A3
:1046200067D8B8F1240F00F0D6842DD8B8F1040F64
:1046300000F0388215D8B8F1020F00F0188200F2AD
:104640002582B8F1010F40F09F8703200AF024F87B
:10465000002009F0DCFF404609F0D9FF142000F0EB
:104660002ABFB8F10A0F00F05B82B8F1220F00F008
:104670000684B8F1050F40F087871A200AF00CF87D
:104680000026DFF854821EE2B8F12C0F00F0F88407
:104690001BD8B8F1280F00F0DA84B8F12A0F00F027
:1046A000E984B8F1260F40F06F87854E062009F0A7
:1046B000F3FFB6F8C80109F0F2FFB6F8CC0109F033
:1046C000EEFFB6F8D00100F0F3BEB8F1300F00F005
:1046D0008D85B8F1320F00F03185B8F12E0F40F022
:1046E0005387774E402009F0D7FF06F1400800F0CD
:1046F0006DBDB8F1450F00F0198636D8B8F13B0F03
:1047000000F0B68319D8B8F1380F00F08D84B8F1F5
:104710003A0F00F02A83B8F1360F40F03587694B25
:10472000674E187806F12808C0EBC000C0B209F047
:10473000B3FFDFF8A89100F045BDB8F1400F00F0DD
:104740000485B8F1420F00F01085B8F13D0F40F03C
:104750001B875B4E022009F09FFF96F88B0209F041
:1047600056FF96F88A0200F0A6BEB8F14B0F00F093
:10477000B28410D8B8F1470F00F08D85C0F077856E
:10478000B8F1490F40F00087022009F085FF4E4B39
:10479000988A00F08DBEB8F14F0F00F0B585B8F1E2
:1047A000500F00F09F85B8F14D0F40F0ED86474E59
:1047B000DFF82C8130784FF0000900EB4000C0B2E8
:1047C00009F06AFF00F0A2BCB8F1700F00F0288376
:1047D00000F28A80B8F1660F00F0DE812CD8B8F1C3
:1047E0005E0F00F030860DD8B8F15A0F00F0EB855F
:1047F000B8F15C0F00F00686B8F1540F40F0C486A3
:1048000000F08FBDB8F1640F00F07A8100F29A8158
:10481000B8F1600F40F0B886294E032009F03CFF44
:1048200096F8D50109F0F3FE96F8EA0109F0EFFEDB
:1048300096F8E90100F03FBEB8F16C0F00F08582F8
:1048400016D8B8F1680F00F06782C0F0D281B8F1D5
:10485000690F40F09986DFF87480002698F8000010
:10486000DFF88090400000F0FE0009F015FF61E2E3
:10487000B8F16E0F00F07D8200F2A082062009F0F0
:104880000BFF134B186809F013FF124B188800F048
:104890000FBE00BF3018002024130020681600202F
:1048A000F40B00205C1800207CCB01086034002051
:1048B000F04F0020EFBEADDE00ED00E00400FA0591
:1048C000002F0020E01B0020BC2500202825002010
:1048D000F437002068120020B1C5010864340020BC
:1048E00054310020CC170020B8F17D0F00F0418535
:1048F0005BD8B8F1750F00F0AF823ED8B8F1730FF6
:1049000000F0428300F2AE80B8F1720F40F03C86B6
:10491000D94E162009F0C0FEB6F8440209F0BFFED9
:10492000B6F8CC0009F0BBFEB6F8CE0009F0B7FE31
:10493000B6F8D00009F0B3FEB6F8980209F0AFFE61
:10494000002009F064FE002009F061FE002009F05B
:104950005EFE96F81F0209F05AFE96F8400209F032
:1049600056FE002009F053FEB6F9EC310A2093FB05
:10497000F0F080B209F093FE5AE3B8F1780F00F03E
:104980004781B8F17C0F00F0E584B8F1770F40F073
:10499000FB85DFF81483002698F8000009F07CFE00
:1049A000DFF808A3DFF80893E4E2B8F1A00F00F005
:1049B00004833FD8B8F17F0F00F02584C0F0F48461
:1049C000B8F1960F40F0E0850F2009F065FEAB4B83
:1049D000188809F064FEAA4B188880B209F05FFEBF
:1049E000A84B1B68C3F3C000C3F38002800040EAF9
:1049F0004200C3F340021043C3F3401240EAC20036
:104A000003F01003184309F04AFE09F02DFD09F0E8
:104A10004FFE994B93F8900409F0F9FD9A4B1888D2
:104A20006428A8BF642009F03AFE022009F0EFFDD7
:104A3000964B22E2B8F1F10F00F04881B8F1FE0F79
:104A400000F0AD82B8F1F00F40F09E858A4E042050
:104A500009F022FEB6F8F00109F021FEB6F8EE01E9
:104A600000F026BD4FF000094FF0010B54E2042086
:104A700009F012FEDFF83C82002618F80600013625
:104A800009F0C5FD042EF8D100F033BD032009F074
:104A900003FE032009F0BBFD002009F0B8FD012052
:104AA00000F009BD062009F0F7FDDFF80C820026B2
:104AB00018F80600013609F0AAFD042EF8D1744B4F
:104AC000187800F0F5BC18F80600013609F09FFDD3
:104AD0000B2EF8D1DFF8E481002618F80600013625
:104AE00009F095FD082EF8D1DFF8D481002618F8DA
:104AF0000600013609F08BFD072EF8D100F0F9BC55
:104B0000072009F0C9FDE72009F081FD5A4B5879CB
:104B100009F07DFD002009F07AFD042000F017BCAB
:104B20005C4811F055FB5FFA80F8404609F0B4FD8F
:104B3000594EB044B04500F0DC8416F8010F09F07E
:104B400066FDF7E70B2009F0A7FD4C4B188809F02C
:104B5000A6FD4B4B188880B209F0A1FD494B1B689C
:104B6000C3F3C000C3F38002800040EA4200C3F3F5
:104B700040021043C3F3401240EAC20003F01003A6
:104B8000184309F08CFD09F06FFC09F091FD3A4BD8
:104B900093F8900400F08FBC122009F07DFD3F4B8C
:104BA000DFF820911B890026B3F5007F94BF4FF0FA
:104BB00001084FF0040859F82600013690FBF8F080
:104BC00080B209F06CFD032EF5D1354E308809F026
:104BD00066FDB08809F063FD3089324E09F05FFD53
:104BE000308809F05CFDB08809F059FD308900F08B
:104BF0005FBC102009F050FDDFF8CC80002618F8CB
:104C00000600013609F003FD102EF8D100F071BC4A
:104C1000194E702009F040FDB0464FF0000A4FF0E9
:104C20000E09B6F8540109F03AFDB6F8560109F03C
:104C300036FDB6F8580109F032FD96F85A0109F030
:104C4000E6FC96F85B0109F0E2FC96F85C0109F0DD
:104C5000DEFC96F85D0109F0DAFC09FB0A830AF133
:104C6000010AD3F85E0109F023FDBAF1080F06F13D
:104C70000E06D6D100F03DBC002F0020041A002003
:104C8000B42E0020B4250020A4130020071A002011
:104C9000352500204A3400204934002038250020E2
:104CA000241A002018380020311800203218002063
:104CB00064A60108B4CB0108B9CB0108A8C5010856
:104CC00072C501085C120020100C0020702009F051
:104CD000E3FCC44E06F1700896F8E40009F097FC76
:104CE00096F8E50009F093FC96F8E60009F08FFCD1
:104CF00096F8E70009F08BFC96F8E80009F087FCCD
:104D000096F8E90009F083FC073696F8E30009F00D
:104D10007EFCB045E0D1ECE3102009F0BDFCDFF8EB
:104D20000083002618F80600013609F070FC102EEA
:104D3000F8D1DEE398F800309E4280F0DA8339F84B
:104D4000160009F0ACFC0136F4E7A74E062009F086
:104D5000A3FC308809F0A3FC708809F0A0FCB6F928
:104D600004300A2093FBF0F023E0042009F094FCC7
:104D7000ECE2072009F090FC9C4B1888FF28A8BFA4
:104D8000FF20C0B209F043FC994B186880F3100073
:104D900080B209F084FC974B188809F080FC914B95
:104DA00093F81F22944B18682AB10A23584380F3C2
:104DB000100080B27CE300F30F00FAE78F4E0C2066
:104DC00009F06AFC3368B046187809F020FC3368B3
:104DD0004FF00009987809F01AFCD8F80030874E97
:104DE0004B44587909F1010909F011FCB9F1030F9D
:104DF000F3D13368187A09F00AFC3368D87809F0DF
:104E000006FC3368187909F002FC3368588909F008
:104E100046FC3368587A09F0FAFB336858784AE35D
:104E20001E2009F039FCDFF8DC810026D8F80030BC
:104E30003344587809F0EBFBD8F800303344D87A83
:104E400009F0E5FBD8F800303344587D013609F00D
:104E5000DEFB0A2EEAD14CE32F2009F01DFC684E40
:104E600016F8010F002800F0448309F0D0FBF7E7A3
:104E7000012009F011FC634B1B6818781BE35020DC
:104E800009F00AFC574E4FF00C0906F150085E4A33
:104E900096F89134043609FB032393F8380009F09F
:104EA000B6FB96F88E0409F0B2FB96F88F0409F071
:104EB000AEFB96F8900409F0AAFBB045E7D118E3E1
:104EC0005A2009F0E9FB474E06F15A0896F8E60425
:104ED00009F09DFB96F8E10409F099FB96F8E204CD
:104EE00009F095FB96F8E30409F091FB96F8E404C9
:104EF00009F08DFB063696F8DF0409F088FB46457D
:104F0000E4D1F6E2BBF1000F00F0F3825FFA89F022
:104F100009F0C2FB4FF0000B00263C4B1B789E4271
:104F2000F0DA3B4B0021F05C4FF00C0E0EFB01F36E
:104F300013F807C0844503D001311F29F6D10CE0D6
:104F4000314A1344D3F834A0504611F041F90146D8
:104F5000BBF1000F00F0ED8289440136DDE700FB74
:104F600002F313F807E08E4500F0F08201321F2AA9
:104F7000F5D1013698F800309E4280F0BA8216F8DA
:104F80000A1000220C20EAE7082009F085FB012620
:104F9000F0B2013609F03BFB092EF9D1A9E2082055
:104FA00009F07AFBDFF87C80002638F8160001361D
:104FB00009F075FB042EF8D19BE20C2009F06CFB84
:104FC000144B186809F074FB134B186809F070FB58
:104FD000124B1868BBE1042009F05EFB014B986896
:104FE000B5E100BF002F00201C1A0020B0150020E2
:104FF00064150020E8380020781200204C2400209E
:1050000063A601086013002064A60108311800207F
:1050100032180020E8F7FF1FECF7FF1FF0F7FF1F23
:10502000D434002088150020042009F035FBDA4E26
:1050300096F8120209F0EBFA96F8160209F0E7FA70
:1050400096F8150209F0E3FA96F8170233E2D24E09
:10505000072009F021FBB6F81A0209F020FBB6F888
:105060001C0209F01CFB96F81E0209F0D0FAB6F8F3
:1050700020021DE2012009F00FFBC74B58791AE20C
:10508000C54E102009F008FB96F83C0209F0BFFA63
:10509000B6F8480209F003FBB6F8440209F0FFFA3B
:1050A000B6F8460209F0FBFA96F83E0209F0AFFAAC
:1050B000B6F8500209F0F3FAB6F8520209F0EFFA26
:1050C00096F84A0209F0A3FA96F84B0209F09FFA03
:1050D000B6F84E02ECE1B04E082009F0DDFA96F881
:1050E000960209F094FA96F8970209F090FAB6F849
:1050F000980209F0D4FA96F89A0209F088FAB6F8FC
:105100009C0209F0CCFA96F89E02D4E1337808F1BB
:105110000208994580F0ED8118F8020C09F077FA41
:1051200018F8010C09F1010900EB800000EB800088
:1051300000F2EE2080B209F0B2FAE7E7012009F0B0
:10514000ABFA954B93F84002B5E1082009F0A4FAB8
:10515000DFF84482002606EB080393F83402013698
:1051600009F055FA082EF6D1C3E18B4E102009F054
:1051700093FA707909F04BFAB06809F099FA96F849
:105180003C0209F044FAB6F8C80109F088FAB6F80A
:10519000CC0109F084FAB6F8D00109F080FAB6F82B
:1051A0001A0209F07CFAB6F81C0281E113F9092011
:1051B000824200F0D1810C333C2BF7D10836B04548
:1051C00000F0978196F9A2020023EFE7B6F860039A
:1051D00009F065FA96F8620309F019FA043696F8B0
:1051E0005F0309F014FAB045F0D182E1802009F0A4
:1051F00053FA6A4E06F1800856F8040F09F058FA7F
:10520000B045F9D175E18D2009F046FA00264FF03E
:10521000060A0AFB06F94FF0000B5FFA86F84046D3
:1052200009F0F5F95FFA8BF009F0F1F95A4B0BEB45
:105230000901194491F8A0030BF1010B09F0E7F9FA
:10524000BBF1060FEBD10136062EE2D10026062077
:1052500009F0DDF9F0B209F0DAF94F4B334493F875
:10526000C403013609F0D3F90B2EF0D141E10D2032
:1052700009F012FA04F0F6FB494E40F00200C0B209
:1052800009F0C5F9308809F013FAF06809F010FA4E
:1052900004F0C8FB5BE009F0B1F90646842009F090
:1052A000FBF9304609F004FA3D4B0DF13008DA689D
:1052B00006F1800393428CBFC6EB02094FF08009D0
:1052C00004F0AAFC4A463046414604F0E3FC81461D
:1052D00000264E4580F20D8118F8060009F097F976
:1052E0000136F6E72C4E042009F0D6F9012009F02A
:1052F0008EF996F83D0509F08AF996F83B0509F014
:1053000086F996F83C05D6E00B2009F0C5F9002097
:1053100009F07DF9002009F07AF9002009F077F909
:1053200011E0012009F0B8F90020C4E0132009F0D1
:10533000B3F9DFF87080002618F80600013609F08E
:1053400066F90B2EF8D1002009F0B2F9002009F01F
:10535000AFF9CEE0104E062009F09EF9B6F8D6005F
:1053600009F09DF9B6F8D80009F099F9B6F8DA0015
:105370009EE0094E052009F08FF996F8220209F007
:1053800046F996F8230209F042F996F8240209F04A
:105390003EF9B6F8DC008BE0002F0020DC31002065
:1053A00084000020B1C50108CF4E032009F074F934
:1053B00096F8C50109F02BF996F8C60109F027F90E
:1053C00096F8C70177E0C84E062009F065F9B6F8EF
:1053D000D83123B1082009F01AF9012005E096F828
:1053E000DA0109F014F996F8E60109F010F996F8D7
:1053F000E30009F00CF996F8E20009F008F9B6F8B4
:10540000DE0055E0DFF8E082B84E0D2009F044F9E7
:1054100098F8DC0109F0FBF83368188C09F03FF9C3
:105420003368588C09F03BF9B8F8DE0109F037F918
:10543000B8F8E00109F033F93368988C09F02FF9D6
:105440003368D88C34E0A94E112009F025F933686F
:10545000588D09F024F93368988D09F020F93368E4
:10546000D88D09F01CF9336893F8280009F0CFF8BB
:10547000336893F8310009F0CAF8336893F83400C0
:1054800009F0C5F8336893F8350009F0C0F800203A
:1054900009F0BDF8002009F0BAF8336893F833003A
:1054A00009F0B5F83368188F09F0F9F83368D88E29
:1054B00009F0F5F81DE009F0AAF81AE040F22E8490
:1054C000B8F1D00F00F04884B8F1D20F40F040811D
:1054D00009F07EF8020600F14C84854B1B785B07CF
:1054E00004D4022828BF00200BF0CEFB002009F0D6
:1054F000D3F809F09DF82368002283F848207D4BFB
:105500007D4C18680BF0B8FA94F82C305BB17B4BEB
:1055100058590AF08FF90FF078FC002384F82C30EA
:10552000774A784BDA604C35982D00F00586FEF707
:10553000A0BFD046CAEB08008842BFF60EAD18F8EF
:10554000010B019109F063F80199F3E74B4493F8DB
:10555000380009F05CF80CE5C0B209F058F8B6F86C
:10556000A40209F09CF896F8A60209F050F896F803
:10557000A70209F04CF896F8A90209F048F896F845
:10558000A80209F044F819E6B8F15B0F15D109F04B
:105590001FF8554E86F8DA0109F01AF886F8E60188
:1055A00009F016F886F8E30009F012F886F8E20030
:1055B00009F01AF8A6F8DE0098E700F25182B8F177
:1055C000370F32D15B794FF00708B3FBF8F8C8EB1F
:1055D000C8029B1A13F0FF0F02D00CF079FC85E78C
:1055E0005FFA88F8B8F1000F80D008F0F1FF4FFAA9
:1055F00080F948460AF0B0F906460028EDD080F858
:10560000009008F0F1FF708008F0E2FF307108F0C0
:10561000DFFF707108F0DCFFF07108F0D9FF08F1CE
:10562000FF385FFA88F8B071DCE700F25181B8F119
:105630002B0F2DD108F0CCFF2B4B27E040F2E2815D
:10564000B8F14E0F40F0F58108F0C2FF1128064670
:10565000C3D808F0BDFFDFF8908006F5947608EB1C
:105660004603187108F0C0FF40F2ED23984242460D
:1056700040F3DC8140F6CA039842A8BF184602EB0B
:105680004603A0F2EE20192290FBF2F058712DE7AC
:1056900000F28780B8F1250F08D1134E0023B360C4
:1056A00008F0ACFFB3681843B0601FE753D8B8F1F7
:1056B0000B0F2BD111220021134814F03BFDDFF812
:1056C00028904FF0000833685B79102B28BF102317
:1056D0009845BFF40BAF08F07BFF08EB090383F894
:1056E0004A0508F10108EEE7002F002060130020B2
:1056F0003018002054180020F40B002064240020EF
:105700000400FA0500ED00E04A340020B8F1230F50
:105710001ED108F05DFF132806463FF65EAF08F085
:1057200057FF00220C2101FB02F307EB030E9EF84A
:1057300008E0864500F08B8401321F2AF3D14CE744
:10574000B8F1FA0F04D1CA4B1B785A0740F10B830A
:105750000CF0BEFBCDE6B8F1270F0DD108F044FFE9
:10576000C44EC6F8C80108F03FFFC6F8CC0108F0E7
:105770003BFFC6F8D001B9E6B8F1290FE8D108F02F
:1057800033FFBC4EA6F81A0208F02EFFA6F81C0242
:1057900008F01EFF86F81E0208F026FFA6F8200279
:1057A000A4E6B8F1310F13D108F012FF1F28064606
:1057B0003FF613AF23685B79052B7FF40EAF08F03B
:1057C0001DFFAC4BB83643F826000FF0E5FB8DE625
:1057D0004BD8B8F12D0F32D108F0FAFEA54E86F85D
:1057E0003C0208F001FFA6F8480208F0FDFEA6F80A
:1057F000440208F0F9FEA6F8460208F0E9FE236824
:1058000086F83E025B79082B07D908F0EDFEA6F872
:10581000500208F0E9FEA6F8520223685B790C2BCF
:105820007FF664AE08F0D4FE86F84A0208F0D0FE97
:1058300086F84B0208F0D8FEA6F84E0256E6B8F1FC
:105840002F0F85D18B4E06F1400808F0CDFEA6F84B
:10585000600308F0BDFE86F8620308F0B9FE043666
:1058600086F85F034645F0D140E6B8F1330F05D125
:1058700008F0AEFE7F4B83F8400237E6B8F1350FF3
:105880007FF466AF08F0A4FE0E2880463FF6A5AE72
:1058900008F09EFE03283FF6A0AE764B062606FBD8
:1058A000083686F8E60408F093FE86F8E10408F06E
:1058B0008FFE86F8E20408F08BFE86F8E30408F019
:1058C00087FE86F8E40408F083FE86F8E5040DE61A
:1058D000B8F1440F04D1684B012283F82C2005E66F
:1058E00072D8B8F13E0F09D108F072FE614E86F809
:1058F0008B0208F06DFE86F88A02F7E52CD8B8F125
:10590000390F11D108F064FE5A4E86F8120208F0E1
:105910005FFE86F8160208F05BFE86F8150208F0B6
:1059200057FE86F81702E1E5B8F13C0F7FF410AF9F
:10593000524ED6F8008008F04BFE0128A8BF012087
:1059400088F8000033681B78012B18BF4C4A4D4B78
:1059500008BF4D4A1A60C9E5B8F1410F0CD1DFF814
:105960001481002608F034FE06EB08030136082EE9
:1059700083F83402F6D1B9E5B8F1430F7FF4E8AE0D
:1059800008F026FE3B4E0023B360707108F036FE2F
:10599000B3681843B06008F01BFE86F83C0208F0BC
:1059A00023FEC6F8C80108F01FFEC6F8CC0108F0B7
:1059B0001BFEC6F8D00108F017FEA6F81A0208F080
:1059C00013FEA6F81C0291E5B8F14C0F7FF436AE39
:1059D00008F0FEFD274E86F8960208F0F9FD86F8DD
:1059E000970208F001FEA6F8980208F0F1FD86F88B
:1059F0009A0208F0F9FDA6F89C0208F0E9FD86F885
:105A00009E0273E5B8F1480F09D104F06DF91F4A01
:105A1000002313701E4A13701E4A136066E5B8F126
:105A20004A0F7FF495AE08F0DFFD5FE540F2EE200F
:105A300025E6B8F1510F7FF48BAE174B1B78012B85
:105A40003FF654AD08F0C4FD0A4E86F83D0508F057
:105A5000BFFD86F83B0508F0BBFD86F83C0545E533
:105A6000B8F1D30F1CD108F0BFFD0C4B18803DE5F9
:105A700030180020002F0020F40B002060130020BD
:105A800095EE000850030020B9F100081C13002017
:105A90001D13002020130020FA1B0020920D00206F
:105AA00000F27081B8F1CC0F52D15B79092B7FF6EF
:105AB00094ADC74ED6F8008008F08AFD88F8000043
:105AC000D6F8008008F084FD88F8020008F080FD18
:105AD00033686428A8BF6420587108F079FD3368E2
