:020000040800F2
:1000000000A00020ED720108BDDE0008696501084E
:10001000BBDE0008B9DE0008B7DE00080000000003
:10002000000000000000000000000000B5DE000835
:10003000B3DE000800000000B1DE0008B9080108C6
:10004000557301085573010855730108557301086C
:1000500055730108557301080F1901081919010892
:10006000171901081519010813190108A5650008D9
:1000700095650008856500087565000865650008D8
:10008000516500083D650008557301085573010866
:10009000F5DF0008557301085573010811190108AF
:1000A000F5050108450601085573010835060108E4
:1000B0002506010815060108050601085573010803
:1000C00055730108557301085573010855730108EC
:1000D00055730108796400086D64000863640008C2
:1000E0000D19010855730108A3DE000855730108B6
:1000F00055730108557301085573010855730108BC
:10010000000000000000000000000000557301081E
:10011000557301085573010855730108557301089B
:10012000296500081565000801650008ED640008F0
:10013000D9640008557301080000000000000000A9
:10014000557301085573010855730108000000003C
:10015000000000000000000000000000000000009F
:1001600000000000000000005573010855730108ED
:1001700055730108000000000000000000000000AE
:080180000000000055730108A6
:100188002DE9F04FB94B1B689A6AB94B2DED048BDA
:100198001A80B84B1978A1B00129049304D1B64B41
:1001A8001A80B64A12885A80B54C2378002B01F081
:1001B800F88110F0F1FAB34B06909B680BB1A01CC4
:1001C8009847B14BB3F90670B04B1B685A899742F0
:1001D8000CDB197AB7F5FA6FBFBFBB1A4B43C2F5F0
:1001E800FA6193FBF1F1C1F1640100E06421A84BCD
:1001F800A84EB3F8500293F8228293F8239293F909
:10020800D4315B421FFA83FB002240F2E63AA24B4C
:10021800D1549D4B33F912E0C0EB0E0303F2F315F2
:1002280055454FEA420C9B4D11D8002BB8BF5B4295
:10023800022A059310D0434503DD059BC8EB030351
:1002480000E00023864526F80C3010DB14E04FF45C
:10025800FA73022A0593F0D1059B9945B4BFC9EBFF
:100268000303002313FB0BF38645B38007DA36F844
:100278000C305B4226F80C300132032AC7D1874B79
:10028800834E1B6813F4805E0ED0B7F57A7F06DBC9
:10029800B7F5FA6F3A46A8BF4FF4FA6201E04FF497
:1002A8007A72A2F57A7213E0B6F852128F4206DB20
:1002B800B7F5FA6F3A46A8BF4FF4FA6200E00A466B
:1002C800521A4FF47A735A43C1F5FA61B2FBF1F24C
:1002D8006423DFF8088292FBF3F101F1010938F990
:1002E80011C038F919806FF06309CCEB080809FBD5
:1002F800012101FB08F292FBF3F202EB0C039BB223
:10030800EB80BEF1000F16D0654A1268D20012D5F4
:10031800644AD2787AB9A3F57A731BB24FF47A7229
:100328001B0393FBF2F3C0F5FA6212B2534300EBDE
:100338002330584BD8805C4BB3F800A01AF0400F1C
:10034800984638D0594BDFED5A7AB3F904300A226F
:1003580093FBF2F3A2889B1A1BB208EE103AB8EE90
:10036800C88A28EE278AB0EE480A0EF0D5FEF0EECD
:10037800408AB0EE480A0EF06EFEB5F9023007EE7C
:10038800103AB5F90030B8EEC77A06EE903A67EE43
:10039800407AF8EEE66AE8EEA67A20EE260AFDEE46
:1003A800E77AA8EE870A17EE903AFDEEC07A2B801E
:1003B80017EE903A6B803F4BDFF8C4901B6813F040
:1003C800140F00F0A6801AF4027F00F0A2803A4BC6
:1003D8001B7803F0100303F0FF004BB1374B96F97D
:1003E800A022B3F900106B8801FB02336B8090E008
:1003F800334B344A1B68D9789B7819B3B2F900207B
:10040800C2EB070E8EEAEE71A1EBEE7199420CDD9C
:100418002D49974208604FF00101A171C8BF5B42A6
:10042800E9889BB20B44EB8073E099F806302BB156
:10043800264B89F806001968254B19601F4B1B6865
:1004480013445BE0B2F900003A1A82EAE27EAEEBAE
:10045800E27E9E4544DD022392FBF3F21D4B1A60B7
:100468001D4A0123137089F8063044E0B4130020B4
:10047800D81E002046130020481300208C120020AC
:10048800EC0A0020D812002088360020E81100204D
:10049800D82F0020D02B0020F02B0020B8200020DF
:1004A800F4200020C4200020F0200020DC2B0020B5
:1004B80035FA8E3CC81E002010110020D0390020CB
:1004C800781200209A100020CC390020D01100208A
:1004D800C0390020C4390020D4390020AA2B0020BC
:1004E80099F806303BB1744B89F806101A68734BBB
:1004F8001A60734B1970734B1B680344724A116876
:100508000A884988934203DB99420A46A8BF1A46DB
:10051800EA806E4B1B78ABB1B6F85232BB4211DBA6
:100528006B4B5B79012B01D0192B02D196F89B22DA
:1005380042B90E2B06D0082B04D00023AB80654BA4
:1005480000229A6096F8107297B31AF0030F2FD012
:10055800614BDFED627A93ED080AB4EEE70AF1EE3B
:1005680010FA21D919F0B8FA5D4BD3ED007A20EED4
:10057800270A19F01FFAB0F5617FA8BF4FF4617020
:1005880007EE900AB8EEE77ADFED567A87EE270A8B
:100598000EF061FD07EE907AF8EEE77A27EE800A12
:1005A80019F008FA00B200E00020EB881844E8804F
:1005B80096F856324C4A23B9B8F80010002900F0D2
:1005C800A1801278002A52D0022B09D0032B19D10E
:1005D80096F85732C3EB431203EB8203DB000FE0BC
:1005E800424BD3F8F820B2F57A7F05DB44F6206356
:1005F8009342A8BF134601E04FF47A7303F57A7368
:100608009BB201E0B9F80830394A1068049AB3FB84
:10061800F0F01278471C3FB2092A678105D1354AA4
:100628002988118069885180D380B9F90CA0DFF836
:10063800CCB00023DFF8C0E03BF913800EF1160CB4
:100648000EF10E093CF8132039F913102CF8138019
:10065800C2EB080201FB0AF191FBF7F10A4429F801
:1006680013200133042BE5D1AEF80C0004E0B9F8EF
:100678000C30013BA9F80C301F4AB2F90C000028D5
:100688004FF0000315DDDFF874E0B2F90A700E329E
:10069800DFF86CC032F913103CF813C0414391FBEA
:1006A800F7F1C1EB0C012EF813100133042BEFD135
:1006B8002DE093812BE000BFD0110020C03900202D
:1006C800D4390020D03900207C120020B00000204E
:1006D800D82F0020C42B00202C2B00208FC2753C63
:1006E8006C120020EFB6B04498100020EC000020F7
:1006F800F42B002048130020EC0A0020D02B002007
:10070800020B00201378A181002B00F09E80C34BC0
:1007180093F8583223B1C24A1268970001F14E8506
:10072800C04BC1481A68049BC04F93F800E0C04B07
:10073800DFF84C831B689FEDBF5A9FEDBF4ADFED82
:10074800BF3A9FEDBF3ADFEDBF2ADFF8389393F841
:1007580000C0F7EE005A151D0023B0EE652A022BE3
:1007680014BF92F800B092F801B038F9131007EEF0
:1007780090BAF8EEE77A06EE901A87EE857A14BFFB
:100788009178517A4FEA430AF0EE007AB4EEE77AAC
:10079800F1EE10FAC8BF77EE677AF8EEE66AC8BFDE
:1007A800A7EE847AC6EEA37AF5EEC07AF1EE10FAD7
:1007B800D4BFB1EE676AB0EE676AA7EC016A89B187
:1007C80006EE901AF8EEE66A66EE064AC6EE851A56
:1007D80064EE864A75EEE16A66EE866AE1EEA46A20
:1007E80067EEA67A27EE037A15F8011F67EE276AE7
:1007F800002941F03A85BEF10C0F02BFFDEEE67A02
:1008080017EE901A2AF80910BCF1000F41F04C8538
:100818009FED8D7A66EE877A9FED8C7AF4EEC77A33
:10082800F1EE10FA01F155859FED897AF4EE477AD9
:10083800F1EE10FAC8BFF0EE477A0133032BE0EC73
:10084800017A8CD1834B00221A70834B1B6899065E
:1008580040F19E80814B1B8803F03003002B00F091
:1008680097807F4B1B78DA0740F192807D4BDFED54
:100878007E7AB3F90430DFF810A2DFF810920A226A
:1008880093FBF2F308EE103AB8EEC88AF2EE048A47
:1008980028EE278AB0EE480A0EF0DDFBB0EE409A4B
:1008A800B0EE480A0EF038FC704B1B6893F803B0A2
:1008B800B0EE408ABBF1000F46D0DFF8D481BAF918
:1008C8000200B8F90250401B11F028FCCBF10007D8
:1008D800B84203DB5845A8BF584600E038460544EF
:1008E8002BB2BAF90000B8F900500593BDF81430DE
:1008F800A8F80230401B11F011FC874203DC834545
:100908005F46A8BF0746DDED057A2F443FB2B8EE33
:10091800E77A07EE907AF8EEE77AA8F8007027EE03
:10092800C96A68EE277AA8EE076AE9EE077AC6EE82
:10093800286A87EEA87AFDEEE66AFDEEC77A16EE1B
:10094800903AA9F800301FE0BAF9023007EE103AE1
:10095800BAF9003000EE103AB8EEC00AB8EEC77A1D
:1009680060EE496AE8EE076A28EE008AC6EEA87AC1
:10097800A9EE078AFDEEE77A17EE903AC8EE287AD4
:10098800A9F80030FDEEE77A17EE903AA9F80230A0
:10099800374B1878002840F0F785364F3B681B0323
:1009A80040F1F285344D2B78033B052B1BD81B4BAC
:1009B80093F8B13533B1012B08D105F07FFAC0F1B6
:1009C8007F0003E0606A03689B689847A36A94F80D
:1009D8002C201344B3F5807FA8BF4FF48073834263
:1009E800D4BFA362A0622B78023B092B00F2798561
:1009F800DFE813F00A0050008000A000B500CD0029
:100A0800DF00D304F60406050023A36223631B4B0F
:100A18001B686363032300F063BD00BFD82F002069
:100A2800F4200020E8110020C42B002060290020B9
:100A3800FC1300200000C842D7A368410000FA4315
:100A4800000048430AD7233C3333834000F0FFC5F6
:100A580000F0FF4598100020C81E0020F02000205C
:100A680010110020DC2B002035FA8E3C38120020B3
:100A7800643A0020B8200020C82C00203828002024
:100A8800D02B00204813002042100020D82B002033
:100A98003E1000209B4B1A68636B6433934280F0CE
:100AA8002085402015F0ECFA002840F01A85DFF880
:100AB8005C92954E4FF04008236B19F8030058B12B
:100AC80015F0B8FBB36A013BB362336BB8F10108A8
:100AD80003F101033363EFD1226B8C498A4B8A5CA3
:100AE800002A40F0FE841A634FF0FF325A63042351
:100AF80000F0F6BC864A0292A2F10C030193262369
:100B080000935021A2F10A034920163A0BF0D6F8B7
:100B1800002840F0E6843B684FF0FF3213F0800372
:100B28000FBF236320636263052304BF6263072347
:100B380000F0D6BC02230093764B0021029101916C
:100B4800A3F1080248200BF0B9F8002840F0C98446
:100B58004FF0FF3363632063062300F0C1BC6E4A85
:100B68000292A2F10C03072601930096A2F1080352
:100B78000021143A47200BF0A1F8002840F0B18476
:100B88004FF0FF33206363632E7000F0AABC052387
:100B98000093624B002102910191A3F108025320B6
:100BA8000BF08CF8002840F09C842063082300F0A8
:100BB80097BC402015F064FA002840F09284524A0D
:100BC800136B90464C2B01F28883DFE813F04D003D
:100BD8005000550059005C00630068006D0071000A
:100BE800750081008A008D00D700DB00E000E50079
:100BF800F6000701180129013A014B015C016D015A
:100C080080018A019801A601B401C201D001DE0168
:100C1800EC01FA01040214021E0234024A026002C4
:100C2800B502BF02C902D302DD02E702F102FB02EC
:100C380005030F03190323032D03370341034B0354
:100C4800500355035A035F037003810392039F0304
:100C5800A403A903AE03B303B803BD03C203C703C8
:100C6800CC03D103D603DB032D492E488DE32E4B4D
:100C78002E4A2F492F48BBE12F4A304930483DE0E2
:100C88003049314881E3314B314893F8B02593F826
:100C9800AF1533E02D4B2F48B3F8CC1075E32B4B31
:100CA8002D48B3F8CE1070E32C4B2D4819696CE32E
:100CB8002C4B2D48198968E3A36BDE0404D5234B1C
:100CC8002A4893F8121260E30F4B0B221A635EE373
:100CD8001E49274891F8153291F8172291F81612F3
:100CE80086E1A18F234850E33B68180540F14F8304
:100CF800164B2148B3F91A22B3F81C1215F074FBED
:100D080045E300BF38280020EC0A0020ECBE0108AB
:100D180062BF01081CC1010838C1010880C101086F
:100D2800F7E7010803E8010814E8010819E80108D1
:100D380021E8010827E801084FE8010858E80108F8
:100D480064E801089635002078E80108D82F0020CB
:100D580086E8010897E80108A6E80108D8120020EB
:100D6800B5E80108CC1E0020C5E80108CFE8010855
:100D7800DCE80108F5E8010800E90108CF4BD04894
:100D8800596902E3CF4BD04893F8DA11FDE2CD4B15
:100D9800CE4893F8E611F8E2CA4890F80435642280
:100DA80002FB03F1431893F816240C2303FB0213E8
:100DB8000344C74893F81814E7E2C24890F804358A
:100DC800642202FB03F1431893F816240C2303FB57
:100DD80002130344BF4893F81A14D6E2B94890F8AE
:100DE8000435642202FB03F1431893F816240C23FC
:100DF80003FB02130344B84893F81914C5E2B14839
:100E080090F80435642202FB03F1431893F8162482
:100E18000C2303FB02130344B04893F82114B4E2F3
:100E2800A84890F80435642202FB03F1431893F8AC
:100E380016240C2303FB02130344A94893F81B143C
:100E4800A3E2A04890F80435642202FB03F143189A
:100E580093F816240C2303FB02130344A14893F8C8
:100E68001C1492E2974890F80435642202FB03F1BF
:100E7800431893F816240C2303FB021303449A48DF
:100E880093F8201481E28F4890F80435642202FB1D
:100E980003F1431893F816240C2303FB02130344AD
:100EA8009248B3F8221470E296F804259048642317
:100EB8005343F2180C2192F8162401FB02331E4406
:100EC80096F81F3496F81E2496F81D1490E07D4B72
:100ED800884893F80425642101FB023393F8D8135A
:100EE80053E2784A844892F80435642101FB0321CF
:100EF80091F8ED3391F8E32391F8D91378E0714A2A
:100F08007E4892F80435642101FB032191F8EE3301
:100F180091F8E42391F8DA136AE06A4A784892F87B
:100F28000435642101FB032191F8EF3391F8E5239F
:100F380091F8DB135CE0634A724892F80435642147
:100F480001FB032191F8F03391F8E62391F8DC13C3
:100F58004EE05C4A6C4892F80435642101FB032199
:100F680091F8F13391F8E72391F8DD1340E0554A01
:100F7800664892F80435642101FB032191F8F233A5
:100F880091F8E82391F8DE1332E04E4A604892F86F
:100F98000435642101FB032191F8F33391F8E92327
:100FA80091F8DF1324E0474A5A4892F8043564213F
:100FB80001FB032191F8F43391F8EA2391F8E01347
:100FC80016E0404B544893F80425642101FB023392
:100FD80093F8E113D9E13B4A504892F8043564216B
:100FE80001FB032191F8F63391F8EC2391F8E21311
:100FF80015F0FAF9CBE1334B494893F804256421FD
:1010080001FB023393F8F713BFE12E4B9FED457AAE
:1010180093F804254448642101FB0233B3F8F833FC
:1010280007EE903AF8EEE77A67EE877AFDEEE77A10
:1010380017EE901AA9E1234B9FED3A7A93F804250D
:101048003A48642101FB0233B3F8FA3307EE903AC9
:10105800F8EEE77A67EE877AFDEEE77A17EE901AF0
:1010680093E1184B9FED2F7A93F8042530486421BB
:1010780001FB0233B3F8FC3307EE903AF8EEE77A57
:1010880067EE877AFDEEE77A17EE901A7DE10D4B51
:101098009FED247A93F804252648642101FB023346
:1010A800B3F8FE3307EE903AF8EEE77A67EE877A00
:1010B800FDEEE77A17EE901A67E100BFD81200201C
:1010C80013E90108D82F00201FE9010832E90108B7
:1010D80047E9010851E901085BE9010868E90108E5
:1010E80075E901087FE901088AE9010897E901081B
:1010F800A9E90108B8E90108C9E90108DAE901081C
:10110800ECE90108FCE901080CEA01081CEA0108FD
:101118002DEA01083EEA010850EA010840EA010800
:101128005AEA01080000C8426FEA01087FEA01088C
:101138008DEA01089FEA0108B74BB84893F80425DF
:10114800642101FB023393F800141EE1B24BB4484A
:1011580093F80425642101FB0233B3F8021414E167
:10116800AD4BB04893F80425642101FB0233B3F872
:1011780004140AE1A84BAC4893F80425642101FB48
:101188000233B3F8061400E1A34BA84893F80425EA
:10119800642101FB023393F80814F6E09E4BA4483F
:1011A80093F80425642101FB023393F80914ECE059
:1011B800994BA04893F80425642101FB023393F866
:1011C8000A14E2E0944B9C4893F80425642101FB3F
:1011D800023393F80B14D8E08F4B984893F8042502
:1011E800642101FB023393F80C14CEE08A4B944837
:1011F80093F80425642101FB023393F80D14C4E02D
:10120800854B904893F80425642101FB023393F839
:101218000E14BAE0804B8C4893F80425642101FB36
:10122800023393F80F14B0E07B4B884893F80425F9
:10123800642101FB023393F81014A6E0764B84482E
:1012480093F80425642101FB0233B3F812149CE0DF
:10125800714B804893F80425642101FB0233B3F8ED
:10126800141492E06C4B7C4893F822128DE06A4B80
:101278007A4893F8231288E0674B7948B3F8D81175
:1012880083E0654B774893F8DB117EE0624B9FED76
:10129800767A93F8DC31754807EE903AF8EEE77AFB
:1012A80067EE877AFDEEE77A17EE901A6DE05A4BF3
:1012B8009FED6D7AB3F8DE316D4807EE903AF8EE9F
:1012C800E77A67EE877AFDEEE77A17EE901A5CE028
:1012D800514B9FED657AB3F8E031664807EE903AD6
:1012E800F8EEE77A67EE877AFDEEE77A17EE901A5E
:1012F8004BE0494B9FED5C7AD3ED7D7A5E4867EE13
:10130800877AFDEEE77A17EE901A3EE0424B5B488B
:1013180093F8D51139E0404B594893F8EA1134E075
:101328003D4B584893F8E9112FE03B4B564893F84A
:1013380095122AE0384B554893F8561225E0364B5B
:10134800534893F8571220E0334B5248B3F85A12D7
:101358001BE0314B504893F8481216E02E4B4F488B
:1013680093F8E11011E02C4B4D4893F8E0100CE095
:10137800294B4C48B3F8DC1007E0274B4A4893F850
:10138800E71102E0244B4948996815F02DF8D8F880
:1013980030300133C8F83030A3E0454B1B68990161
:1013A8001BD5444EB6F84030BBB9434BD6F84490F1
:1013B800D3F80080452014F03DFF0E2014F03AFFCA
:1013C800484614F0F1FF404614F0EEFF4FF4805306
:1013D800F3870A232B700AF075F90AF04DFC80E0B8
:1013E800344B93F84820002AF5D0314A126892010C
:1013F800F1D493F84930002BEDD109232B70ECE799
:101408002E4B1A68636BC833934259D2024B93F838
:10141800B165002E63D158E0D82F0020B5EA010845
:10142800C4EA0108E0EA0108F6EA010805EB010848
:101438001CEB010835EB010849EB01085AEB0108E0
:1014480074EB01088FEB0108A4EB0108BBEB010862
:10145800D2EB0108E7EB0108FDEB0108F9EB010805
:1014680009EC010815EC01080000C84227EC010846
:101478003AEC01084BEC010860EC01086EEC01083D
:101488007EEC01088FEC01089FEC0108B8EC01081C
:10149800CCEC0108E9EC010806ED01081BED010898
:1014A80030ED010845ED010857ED010865ED01082B
:1014B800F4200020EC0A0020883900203828002079
:1014C80014F024FE0028A1D10BE0606A0FF04DFA59
:1014D80094F84A306662022B01D111F08DF901238C
:1014E8002B7014F0FDFD50B101232B70BC4B93F809
:1014F8004920002A48D0002283F8492044E0B94B0B
:1015080093F8B2251946002A3ED03B68DE044FF016
:1015180000074CBFB1F8D820B1F8D020B24E3B46F6
:1015280036F913000133904218BF47F001070C2B1E
:10153800F6D1AB4EAD4B2FB11B6803F59C53083366
:10154800F36403E01A68F36C934213D92B78012BE8
:101558001AD196F84930BBB991F8B1352BB104F0DE
:10156800A3FA012386F849300EE0802011F03CF9F7
:1015780050B9F4E72B78012B06D096F849301BB107
:101588000AF04CFC86F84970049B1B78072B05D1A0
:101598000FF002F9069BC01A954B5880904B002219
:1015A8001A70944D11AE6B6830469847A9460028CA
:1015B80000F06581049B904ADFF834E21D7800232F
:1015C800032D04BF52F823102EF81310980036F993
:1015D8001310894F11500133032BF1D1864994F828
:1015E8005020084608F0A4F9844B1A889B46002A24
:1015F80000F0AB80824B834E1B68DFED838A1B783B
:101608004FF0000808EE103A06F10C05C24606F144
:1016180048014FF47A72D9F81430B2FBF3F3C3EBF4
:10162800431203EB8203BBF800E0DB009BB29E454C
:1016380008BFC6F800A0336808BFC5F810A0184650
:1016480057F82830184457F82830306007EE903A99
:101658002B690133012B4FEA8802F8EEE77A2B61F8
:1016680006D1C5ED017AC5ED007AC5ED028A1BE009
:10167800D5ED005A07EE103A37EEE56AF8EEC76A7C
:1016880086EE267AD5ED026A37EE257A77EEC77AA6
:1016980085ED017AE6EE276A85ED007AF0EE667A46
:1016A800C5ED036AC5ED026ABEF1010F47F802A055
:1016B80042F801A034D12B690691012BC3BF03F175
:1016C800FF3307EE903A95ED037A9FED4F0A0592A6
:1016D800C4BFF8EEE77A87EE270A18F06FFC059A80
:1016E800069918EE103A4BB1F8EEC87AF4EEC07AC3
:1016F800F1EE10FA02D508F00AF926E04FF47A70F4
:10170800D9F81430B0FBF3F3C3EB431003EB8003B9
:10171800DB0098B2336803EB500393FBF0F35350AC
:1017280008F10108B8F1030F06F1040605F11405E4
:101738007FF46FAFBBF80000012801D10FF00EFD58
:10174800BBF80030013BABF80030304D002357F8B0
:10175800231055F82300284A091A47F823100133A3
:10176800032BF4D12A4B2B4D19789846002974D0B5
:10177800DFF87C904FF0000A57F82A3007EE903ACD
:10178800254B1A884FEA8A06B8EEE78A4AB1234BF6
:101798001C20B0EE480A00FB0A300DF0C5FCB0EE84
:1017A800408A049B1A78082A0DD1BAF1020F0AD090
:1017B800B95926F80910B0EE480A18F0FBF806EBFC
:1017C800090BABF80200164A1278012A2CD1154AE7
:1017D8001C20B0EE480A00FB0A200DF0A5FC2FE003
:1017E800EC0A0020D82F0020183A002038280020C2
:1017F80048130020D8120020E42B0020D612002025
:1018080024120020400B002000000000880B00205C
:1018180028120020542900202A120020940B0020AE
:101828002C120020E80B0020B14AD4ED540A98F895
:1018380000100C20B0EE480A00FB0A200DF02EFD27
:1018480085ED000AB5EC010A18F0B4F80AF1010AAE
:10185800BAF1030FB8518FD111E0D2ED007AF8EE4A
:10186800E77AC5ED007AD2ED017AF8EEE77AC5EDB0
:10187800017AD2ED027AF8EEE77AC5ED027A9D4A4E
:1018880092F8783123B1013B82F8783100F030BD0D
:10189800994B93F8DC211E4622B193F8E631013BBF
:1018A800DBB200E0012384F878310EF075FF934B2A
:1018B800934DD3F80080934BB6F83212A3F152023D
:1018C80007462868C047049B1B78072B04D10EF0F5
:1018D80063FF8D4BC01B98800EF05EFF049B059044
:1018E8001F78012F0AD18949D4F87C31864A0968C2
:1018F800C4F87C01C31A93805B1AD380844B2A688E
:101908001B68EBB192F83120CAB1824A1268940779
:1019180018D5814A1178012914D9DB787F485943B1
:101928000088CB1A98420AB203DB88420346A8BF54
:101938000B461BB2120392FBF3F2012305E0134698
:101948001A4602E001234FF480527549C9780B9179
:101958002BB1BDF94C1051430913ADF84C10714926
:10196800714E91F800A07149DFF89C81B1F902002D
:101978000790B1F9000008906D48B1F904B0D0F8AB
:1019880000C000252946284650453CD29CF9004015
:10199800D6ED016A96ED026A64420BFB04F407EE89
:1019A800904AB8EEE77ADDED087AF8EEE77A0DF1BD
:1019B8004C0E67EEA67ADDED076AF8EEE66AE6EE0B
:1019C800867AD6ED036AE7EE267AFDEEE77ACDED64
:1019D800047ABDF910400BB1544324132EF810407B
:1019E80013AC34F910408C4203DCA542A8BF25464D
:1019F80000E02146052F03D1042898BF28F810409D
:101A080001301036C0E7434B4A4C1868491B10F4A4
:101A1800805309B240D0484A484D1278DFF8D4E0E4
:101A2800474F12F0040F01BF2A68168A314AA2F8FC
:101A38004062B4F90660434C2A682468128AE58833
:101A4800C5EB020C664508DCB4F900203C68AEF82A
:101A58004062B4F9004035440AE02A44964209DB62
:101A68003A68B4F90240B2F90220AEF84062751B38
:101A78002DB219E0BEF940229445ABBFB4F900205D
:101A88003A683C68B4F90240ABBFB4F90040B2F917
:101A980002201546254607E0294AB4F9065012687F
:101AA800B2F90040B2F90220124F92B2A4B2161B4A
:101AB80036B2B14248DD32034FF0000E92FBF1F12D
:101AC800C7F84412F2450BD913AA32F91EC001FB1C
:101AD8000CFC4FEA2C3C22F81EC00EF1010EF1E777
:101AE800022296FBF2F6344424B2099434E000BF93
:101AF800400C0020EC0A0020D82F0020B400002061
:101B0800FC1300201832002048130020F42B00207A
:101B180020130020B8200020F804002070130020B3
:101B2800C4200020F32B00206C0C00208C2C0020FB
:101B380048120020D02B0020F82000204C12002052
:101B4800A02A00209C2A0020022691FBF6F1521AB6
:101B58000C4412B224B20992AD49B7F940220F6879
:101B6800AC490A920E78AC4ADFF8F0821268049207
:101B780006F00406F1B2A94A0691A9491268B1F91A
:101B8800061000F010004FF000090C90CA455AD911
:101B980013A807EE905A30F819C0A24800EB0910B4
:101BA80090ED007AF8EEE77AA64667EE877AFDEEC2
:101BB800E77A17EE900AA04204DB099E8642A8BF86
:101BC8000646B6460CEB0E000B9E00B228F8020F34
:101BD80016B1B7F804E014E08BB1049EB2F806C061
:101BE800B6F810E00A9ECCEB0E0E764504DCB7F88A
:101BF80000E0B2F800C006E0B2F802E001E0B7F891
:101C080000E0B7F802C0704503DB8445E646A8BF8C
:101C180086460C98A8F800E090B1069880B17BB988
:101C28000F930E910D920FF073FA0D9A0E990F9B68
:101C380030B90498408A8142BCBFB888A8F800002F
:101C480009F10109A2E7069A1AB916467648774AB1
:101C580006E0774A92F84802192800F24F8107E017
:101C6800B245F6D930F8164022F816400136F7E7A3
:101C7800012202FA00F06F4A0240002A00F03E8179
:101C88006D4A1288D00508D56C4B1A88ADF86420C7
:101C98005A88ADF866209B8810E0BDF82020ADF882
:101CA8006420BDF81C20ADF86620ADF868B03BB1E3
:101CB800049B1B8A994203DACBF10003ADF8683024
:101CC8005F48B0F902304FF47A7203F5E1634FF4DC
:101CD8006161534393FBF1F3A3F5FA73ADF87C30DC
:101CE800B0F9003003F5E1635A43504B92FBF1F22F
:101CF8001B88A3F2DC53ADF86A30474BA2F5FA72A1
:101D0800ADF87E201B68464A1B8A1188C91AADF8AF
:101D18006C105188C91AADF86E109188C91AADF8BF
:101D28007010D188C91AADF872101189C91AADF8A6
:101D380074105189C91AADF876109189D289C91AD7
:101D4800D31AADF87A303F4AADF878100023194617
:101D580022F813100133082BFAD13B4A3B4B126887
:101D680004923B4A1B7812683A490692072202FB02
:101D78000313394DDFF8CCA009934FF064084FF0F6
:101D88000109099B8B4200F09E800B7833B1153313
:101D9800049A09FA03F3134000F0918011F806EC55
:101DA800069B11F9010C11F805CCCEEBCE0703EB1D
:101DB80047074FEA4C06B7F90230B7F900200890F8
:101DC8009A1A92B211F9023C11F8030C4FEA520B1D
:101DD800534393FBF8F3CBEB03031BB2079328B9E8
:101DE80020A8064436F81C0C288042E020AB1E448C
:101DF800B5F9004036F91C6CB44231DA204484420B
:101E080003DC86423446A8BF04462C8031E000BF7C
:101E1800A02A0020F82000204C1200209C2A002034
:101E2800883600206C0C0020183A0020B8290020C1
:101E3800EC0A002032413003F0200020D02B002093
:101E4800DC2B00205C0E0020F4200020A42A0020B7
:101E58001C2B0020AB2A0020360D0020B6290020BC
:101E680007DD201AB04203DB8442A8BF0446264699
:101E78002E80D7F80A0011F9046C079B09FA0CFCAC
:101E880010EA0C0FB5F900000CBF01244FF0FF3425
:101E980016FB00F090FBF8F0984209DB089B5343CF
:101EA80093FBF8F3CBEB03031BB28342A8BF0346B3
:101EB8003AF81EB004FB03B32AF81E3000E02B806A
:101EC800023507315DE7AE4BAE4ED3F800800025F2
:101ED8004FF00E09642709FB0583E8B293F9064021
:101EE80036F9023F14FB03F494FBF7F434800EF048
:101EF800E5FA01352044082D3080ECD1A24CA04DE4
:101F0800236813F0200F33D000200EF0D7FA9F4E2D
:101F18000746308001200EF0D1FA9D4B70801B6877
:101F2800190625D59B4B9C4A1B681B78012B24D18D
:101F3800D5F80080B2F9021098F90630B2F90020FD
:101F48005B424B434FF0320C93FBFCF31FFA83FECA
:101F580098F914306FF0310113FB02F393FBF1F1A0
:101F68007144791A93FBFCF37344318018447080F0
:101F78002B68844A03F170061AE0D5F800E0B2F93C
:101F880002309EF9061011FB03F1322391FBF3F1A5
:101F9800394431809EF91470B2F9001017FB01F230
:101FA80092FBF3F21044E2E70E339E4211800CD00C
:101FB80032F9020FB3F90010B3F902708842F3DB6B
:101FC80087423946A8BF0146EEE7744B744E1A683B
:101FD80092F904209A46A2B996F848727B1E182BEB
:101FE80000F29980DFE803F0549797709797976904
:101FF80097979797977B9797979797708997977BD6
:102008005400DFF888B10023A6F86A32B046D946F2
:10201800B6F96A72072FDFDC98F86C22614B92B927
:10202800DAF800200493528800EE102A5E4A1C2039
:10203800116800FB0730B8EE400A0DF0FFF80122E6
:10204800049B88F86C223BF9172000EE102A1C200C
:1020580000FB0730B8EEC00A0DF066F817F0AAFCCE
:102068002A6800B2C7EBC7032BF8170002EB43033B
:10207800B3F90020B3F90230904203DB8342A8BFD2
:1020880003461A4629F817200137A6F86A72BFE7EF
:10209800DAF800305B781BB13C4B0020598908E026
:1020A800424B1B7803F0040303F0FF01002BF3D12C
:1020B80008460FF02DFA01252EE0344D0020E9885E
:1020C8000FF026FA298905E0304D002029890FF004
:1020D8001FFA698901200FF01BFA02251CE0DFF8BE
:1020E800AC800225A81E38F81510C0B201350FF0D3
:1020F8000FFA082DF6D106250EE0DFF890800325AB
:10210800E81E38F81510C0B201350FF001FA072D96
:10211800F6D1042500E0002523689A0601D4052F8E
:102128000BD11A4F284639880FF0F2F9681C7988C4
:10213800C0B20FF0EDF90235EDB22368DB0205D429
:1021480096F8503373B10EF00FF90BE0184F0024D6
:10215800281937F8021FC0B20FF0DAF90D2CEFD0AA
:102168000134F5E7134B1B78072B05D10EF014FB50
:10217800059BC01A104BD88001233370B8E000BF0C
:102188001C2B00205A0E0020B82000205C0E0020D6
:10219800F420002044120020DC2B002048120020EC
:1021A800EC0A00205C0D0020F42B0020F820002011
:1021B8008E36002046130020481300204F4A12880C
:1021C80050063EF5ADAADFF850814D4F98F81E2015
:1021D8009A4215D007EE903A9FED4A8A88F81E3049
:1021E800F8EEE77A27EE888AB0EE480A0CF094FFFA
:1021F80087ED000AB0EE480A0CF02DFF88ED080ABA
:10220800B5F90030D4ED085A97ED006A3E4A07EE5A
:10221800903AB5F9043006EE903AF8EEE66AF8EE30
:10222800E77A25EEE67AA7EE867A67EEA57ABDEE1E
:10223800C77AE6EE267A17EE103AB3F5FA7FA8BF0A
:102248004FF4FA739342FDEEE77AB8BF13462B803A
:1022580017EE903AB3F5FA7FA8BF4FF4FA7393429A
:10226800B8BF1346AB80FEF75BBA07EE901AF8EEDC
:10227800E77A87EE857AF0EE657AE6EE477AF4EE4D
:10228800E27AF1EE10FA07D4F4EE657AF1EE10FA7C
:10229800C8BFF0EE657A01E0DFED1C7A82EE277A9E
:1022A80066EE876AFEF7A7BADFED197AF4EEE76AF9
:1022B800F1EE10FA3EF5C1AA9FED167AF4EEC76A60
:1022C800F1EE10FAD4BFF0EE667AF0EE477AFEF738
:1022D800B4BAF0EE477AFEF7B0BA13F017FF002849
:1022E8003FF4FFA84FF48053E3870A23FFF7F8B8B9
:1022F80021B0BDEC048BBDE8F08F00BFF0200020BA
:102308000000002035FA8E3C0CFEFFFF0AD7233C64
:1023180000C0F9C400C0F944EC0A00202DE9F04FD0
:10232800914BADB01D780093002D00F0A7808F4B26
:102338001868002802F06B8005F014FADFF85C9248
:10234800DFF85C82D9F800000AF034F8002802F0BF
:102358005E80D9F80000864C0AF029F8092801D0D7
:102368003F2855D14FF0000A2668574655460AEBD4
:10237800080B36B132465AF808107E4819F098FC16
:1023880020B90DB15F4601E05D465F460AF1100ACB
:10239800BAF5147FEBD1F5B1D5F800A0D7F800B0A5
:1023A800DFF8D0C123681AF803001BF80310814234
:1023B80011D15A1CDFF8BCE149B92D2B07D86C485C
:1023C800026020200EF803000EF8021003E00CF85B
:1023D80003002260E6E723680BB1BD420FD06648D0
:1023E80013F056FABD4207D855F8100B13F050FAFF
:1023F800092013F0AFF8F5E70BF074FA00265D4DED
:1024080023689E429ED2A85D13F0A4F80136F7E730
:1024180023686BB9042804D1564813F017FB01F060
:10242800F6BF0C2841F0EF87544813F031FA22E048
:102438000C28F9D00A2841F09A874E4E504813F0DC
:1024480027FA2321304619F024FC354608B1801BB1
:10245800206023680022002B41F08D87002A41F07C
:10246800A58730220021434819F0DEFB009B1B782A
:10247800002B01F0CC870BF035FA63E7414B03F1F1
:102488003007414BEA18EB58002B01F000813F4917
:102498003F4C0B600593002322608DF819303D4AAC
:1024A8003D48049214238DF8183004AB0360264687
:1024B80089469246D9F80000DFF8D08009F07AFF03
:1024C800002801F0D080D8F8000009F070FF3368C8
:1024D80093F84810834619B9242863D101221DE0D6
:1024E800012903D14D2808BF022204E0022907D19F
:1024F8003C2808BF032218BF002283F8482085E043
:1025080003290ED140284FF0000102D983F8481062
:10251800D0E758711971D9719871042283F848204D
:10252800C8E7042907D1997983F8490080EA0102AC
:102538009A710522F2E7052968D1587919798842F4
:10254800987908D98BEA00009871481C18710B44D7
:1025580083F808B0AEE7584503D1062283F848202F
:102568005AE00022DAE700BF643A0020143A00205B
:10257800603A0020303A002076EE01087BEE010830
:10258800C0F50108A0C10108E03500202021002085
:1025980018210020C9C300081C210020003A00208F
:1025A8004CE50108D4490B7803F0040303F0FF0E4F
:1025B800002B7FF47FAF23281DD1009AD8F80000A4
:1025C800019101231370CD4B1860CD4B1860CD4B92
:1025D800586010201872CC48C3F800A0036083F834
:1025E80009E0CA4813F054F90BF07CF901990B780B
:1025F80043F002030B70C64B1B681B785B4505D183
:10260800C44BC54A1A60C54BC54ADA60336893F8AB
:102618004820062A7FF44EAF93F84980B8F15A0F44
:1026280000F0958700F2FB80B8F1360F00F09E8627
:1026380073D8B8F1240F00F0D0852DD8B8F1040F65
:1026480000F0638215D8B8F1020F00F0448200F25E
:102658005182B8F1010F40F0E68703200AF04CFEE2
:1026680000200AF004FE40460AF001FE142000F0A3
:10267800D7BFB8F10A0F00F08382B8F1220F00F03B
:102688002284B8F1050F40F0CE871A200AF034FEF4
:102698000026DFF8A48246E2B8F12C0F00F0CB85C3
:1026A8001BD8B8F1280F00F0AD85B8F12A0F00F05B
:1026B800BC85B8F1260F40F0B6879A4E06200AF07E
:1026C8001BFEB6F8C8010AF01AFEB6F8CC010AF0EB
:1026D80016FEB6F8D00100F092BFB8F1300F00F046
:1026E80071860BD8B8F12E0F40F09D878D4E402093
:1026F8000AF002FE06F1400800F054BEB8F1320FAD
:1027080000F00286B8F1340F40F08D87854E5A20CC
:102718000AF0F2FD06F15A08F6E3B8F1460F00F0A8
:1027280092862AD8B8F13D0F00F0648311D8B8F129
:102738003A0F00F00283B8F13B0F00F0BD83B8F107
:10274800380F40F0708704200AF0D6FD754E00F06F
:102758004ABDB8F1420F00F0E885B8F1450F00F026
:10276800C086B8F1400F40F05E8708200AF0C4FD2B
:102778000026DFF8B08100F0CEBDB8F14D0F00F0B3
:10278800A0852BD8B8F1490F00F04083B8F14B0F62
:1027980000F07C85B8F1470F40F045870AF05EFDF0
:1027A800064684200AF0A8FD30460AF0B1FD5E4BCB
:1027B800DA6806F1800393428CBFC6EB02094FF03A
:1027C80080090DF1300803F06BFC4A46304641465B
:1027D80003F0A4FC0026814600F049BEB8F1500F72
:1027E80000F0688611D8B8F14F0F40F01C870B2015
:1027F8000AF082FD00200AF03AFD00200AF037FDB9
:1028080000200AF034FD00F079BEB8F1520F00F054
:102818006386B8F1540F00F05F8600F004BFB8F18A
:10282800720F00F0DA8300F2B680B8F1680F00F09A
:102838004F8200F28380B8F1640F00F091812DD8A7
:10284800B8F15E0F00F0A286B8F1600F00F0DA86EA
:10285800B8F15C0F40F0E786DFF8C880334E0D20F2
:102868000AF04AFD98F8DC010AF001FD3368188C7B
:102878000AF045FD3368588C0AF041FDB8F8DE01CE
:102888000AF03DFDB8F8E0010AF039FD3368988C8C
:102898000AF035FD3368D88C00F0B1BEB8F1660F88
:1028A80000F0808100F2AA810B200AF025FD204B60
:1028B80018880AF024FD00200AF021FD1D4B1B6832
:1028C800C3F3C000C3F38002800040EA4200C3F3B0
:1028D80040021043C3F3401240EAC20003F0100361
:1028E80018430AF00CFD0AF0EFFB0AF011FD0D4B3E
:1028F80093F8040500F094BEF8200020003A002068
:1029080080210020400E0020143A0020A6EE010885
:10291800AC350020FC9F0020EFBEADDE00ED00E0EE
:102928000400FA05D82F0020C8030020FC1300205B
:10293800D81E0020C81E002058E80108B8F16C0F06
:1029480000F0E08112D8B8F16A0F00F0888300F235
:10295800A583DFF82084DFF8209498F80000400071
:1029680000F0FE000AF0C8FC0026C0E1B8F16E0FC6
:1029780000F01A82C0F0D681B8F16F0F00F04C82D7
:10298800B8F1700F40F04F861E200AF0B5FC002603
:10299800DFF8E88372E2B8F17D0F00F0B68529D838
:1029A800B8F1760F00F08B830AD8B8F1740F00F0F5
:1029B8008D8040F249832F200AF09EFCE14E73E29D
:1029C800B8F1780F00F02981C0F0E782B8F17C0FE8
:1029D80040F02986DC4E06200AF08EFCB6F8D400BA
:1029E8000AF08DFCB6F8D6000AF089FCB6F8D800D3
:1029F80000F005BEB8F1A00F00F0E1833DD8B8F1B2
:102A08007F0F00F0EC84C0F09385B8F1960F40F08A
:102A18000A860F200AF070FCCC4B18880AF06FFC6D
:102A280000200AF06CFCCA4B1B68C3F3C000C3F358
:102A38008002800040EA4200C3F340021043C3F31F
:102A4800401240EAC20003F0100318430AF057FC92
:102A58000AF03AFB0AF05CFCBB4B93F804050AF059
:102A680006FCBC4B18886428A8BF64200AF047FC01
:102A780003200AF0FCFBB84B23E2B8F1F00F00F09A
:102A8800938314D8B8F1A40F40F0CD85DFF8F08215
:102A980098F82F0080000130C0B20AF02DFC98F899
:102AA8002F000AF0E4FB002608F1300A58E3B8F1D9
:102AB800F10F00F0E680B8F1FE0F40F0B485082071
:102AC8000AF01AFC0026DFF8BC8265E34FF0000923
:102AD8004FF0010B3EE204200AF00EFCDFF8A8825A
:102AE800002618F8060001360AF0C1FB042EF8D1BA
:102AF80000F0B3BD03200AF0FFFB03200AF0B7FB88
:102B080000200AF0B4FB00F0EABC06200AF0F4FB4F
:102B1800DFF87882002618F8060001360AF0A7FBCD
:102B2800042EF8D167E018F8060001360AF09FFB7A
:102B38000B2EF8D1DFF85882002618F80600013667
:102B48000AF095FB082EF8D1DFF84882002618F81D
:102B5800060001360AF08BFB072EF8D100F07DBD88
:102B680007200AF0C9FBE7200AF081FB764B587969
:102B78000AF07DFB00200AF07AFB042000F0C2BCBA
:102B88007648DFF8148213F02BFDC6B230460AF0FF
:102B9800B3FB4644B04500F0608518F8010F0AF011
:102BA80066FBF7E712200AF0A7FB6D4BDFF8EC9104
:102BB8001B89B3F5007F94BF4FF001084FF004085C
:102BC800002659F8260090FBF8F0013680B20AF08A
:102BD80096FB032EF5D1634E30880AF090FBB0883F
:102BE8000AF08DFB30890AF08AFB00200AF087FB87
:102BF80000200AF084FB002000F001BD10200AF03C
:102C08007BFBDFF89C81002618F8060001360AF0E5
:102C18002EFB102EF8D100F020BD70204A4E0AF08D
:102C28006BFB4FF0000AB0464FF00E09B6F85201A0
:102C38000AF065FBB6F854010AF061FBB6F85601D4
:102C48000AF05DFB96F858010AF011FB96F8590155
:102C58000AF00DFB96F85A010AF009FB96F85B0199
:102C68000AF005FB09FB0A830AF1010AD3F85C01A3
:102C78000AF04EFBBAF1080F06F10E06D6D100F0A5
:102C8800ECBC7020304E0AF037FB06F1700896F85D
:102C9800E2000AF0ECFA96F8E3000AF0E8FA96F88F
:102CA800E4000AF0E4FA96F8E5000AF0E0FA96F88B
:102CB800E6000AF0DCFA96F8E7000AF0D8FA0736D8
:102CC80096F8E1000AF0D3FAB045E0D100F0C5BCAF
:102CD80010200AF011FBDFF8CC80002618F8060057
:102CE80001360AF0C4FA102EF8D100F0B6BC98F8F4
:102CF80000309E4280F0B18439F816000AF0FFFADD
:102D08000136F4E7184E06200AF0F6FA30880AF081
:102D1800F6FA70880AF0F3FAB6F904300A2093FB41
:102D2800F0F061E006200AF0E7FA104B18680AF0A4
:102D3800EFFA0F4B188800F062BC04200AF0DCFAA6
:102D4800DFE300BF9FC10108D82F0020D81E002054
:102D5800C81E00208C120020B020002096350020CC
:102D6800CC1E0020E42B0020DC2B0020D0110020FA
:102D7800FC100020D836002088360020FC130020E4
:102D8800400E002048130020DEEE010814E8010878
:102D98004FE8010819E8010895350020F0100020D7
:102DA8005C0E0020B829002007200AF0A5FAC94BBC
:102DB8001888FF28A8BFFF20C0B20AF058FAC64BEF
:102DC800186880F3100080B20AF099FAC34B18888B
:102DD8000AF095FAC24B93F81F22C24B186832B119
:102DE8000A23584380F3100080B200F008BC00F3B7
:102DF8000F00F9E7BA4E02200AF07EFA96F8970219
:102E08000AF035FA96F8960200F00ABC02200AF099
:102E180073FAB54B988AF2E3B44E0C200AF06CFAB8
:102E2800336818780AF023FA336898780AF01FFA9A
:102E38004FF00009B046D8F80030AC4E4B4409F1C9
:102E4800010958790AF013FAB9F1030FF3D133687D
:102E5800187A0AF00CFA3368D8780AF008FA336856
:102E680018790AF004FA336858890AF048FA33687E
:102E7800587A0AF0FCF933685878D1E3D8F800306A
:102E8800334458780AF0F3F9D8F800303344D87A44
:102E98000AF0EDF9D8F8003033440136587D0AF0CD
:102EA800E6F90A2EEAD1D8E316F8010F002800F057
:102EB800D4830AF0DCF9F7E701200AF01DFA8C4BFD
:102EC8001B681878ACE35020854E0AF015FA06F115
:102ED80050084FF00C09874A96F8053509FB03237B
:102EE800043693F838000AF0C2F996F802050AF099
:102EF800BEF996F803050AF0BAF996F804050AF03F
:102F0800B6F9B045E7D1A8E396F85A050AF0AFF943
:102F180096F855050AF0ABF996F856050AF0A7F9A0
:102F280096F857050AF0A3F996F858050AF09FF99C
:102F3800063696F853050AF09AF94645E4D18CE32B
:102F4800BBF1000F00F089835FFA89F00AF0D4F929
:102F58004FF0000B0026684B1B789E42F0DA674B57
:102F6800F05C00214FF00C0E0EFB01F313F807C0C4
:102F7800844503D001311F29F6D10CE05D4A134482
:102F8800D3F834A0504613F02BFB0146BBF1000FD9
:102F980000F0838389440136DDE7DFF85C81DFF8E0
:102FA8005CA198F80000DFF84C910AF0A5F900261A
:102FB80098F800309E4280F0508316F80A100022DC
:102FC8000C2000FB02F313F807E08E4500F0728333
:102FD80001321F2AF5D10136EAE7414E16200AF0E0
:102FE8008BF9B6F850020AF08AF9B6F8CC000AF064
:102FF80086F9B6F8CE000AF082F9B6F8D0000AF0E1
:103008007EF9B6F8A8020AF07AF996F8A1020AF051
:103018002EF900200AF02BF996F8A2020AF027F9F7
:1030280096F81F020AF023F996F84C020AF01FF9E5
:1030380000200AF01CF9B6F9EC310A2093FBF0F0F5
:1030480080B20AF05CF9CEE008200AF055F90126B2
:10305800F0B201360AF00BF9092EF9D1FDE2102081
:103068000AF04AF9264B274E187800F002000AF0B9
:10307800FEF8254B18780AF0FAF830680AF048F993
:1030880070680AF045F9214B18880AF038F9204B86
:1030980018880AF034F91F4B988DB0E205200AF021
:1030A8002BF91D4B18880AF02AF91C4B18880AF0CE
:1030B80026F9184B93F82E0000F00100B0E20AF050
:1030C800B7F8814612200AF017F9B9F1000F29D193
:1030D800134B2BE070130020241300203022002013
:1030E800D82F00200C110020D8120020E811002051
:1030F800FC130020A0C10108F9200020FA200020BC
:1031080010110020181100201611002014110020A1
:1031180012110020400E0020881100208A11002082
:10312800D4110020B9F1100F04D1D54BD3F8008089
:103138005E6801E00026B04648460AF098F8404626
:103148000AF0E6F830460AF0E3F8CE4B18680AF0C1
:10315800DFF800200AF0D3F800200AF0D0F8BEE12A
:1031680098F82F309E4280F07882DFF83C931AF866
:1031780006000AF07CF819F806000AF078F809F158
:10318800100309F12009985D0AF071F819F8060092
:103198000AF06DF80136E3E738F8160001360AF050
:1031A800AEF8042EF8D158E2B74E04200AF0A4F87D
:1031B800B6F8F0010AF0A3F8B6F8EE011FE20C2009
:1031C8000AF09AF8B14B18680AF0A2F8B04B1868E0
:1031D8000AF09EF8AF4B186894E104200AF08CF8C6
:1031E800A94B98688EE196F812020AF040F896F812
:1031F80016020AF03CF896F815020AF038F896F824
:1032080017020DE2A04E07200AF076F8B6F81A0267
:103218000AF075F8B6F81C020AF071F896F81E0262
:103228000AF025F8B6F82002E9E101200AF064F86E
:10323800954B5879F4E1944E10200AF05DF896F811
:1032480048020AF014F8B6F854020AF058F8B6F82A
:1032580050020AF054F8B6F852020AF050F896F8FC
:103268004A020AF004F8B6F85C020AF048F8B6F820
:103278005E020AF044F896F8560209F0F8FF96F84C
:10328800570209F0F4FFB6F85A02B8E17E4E08205A
:103298000AF032F896F8A60209F0E9FF96F8A702B4
:1032A80009F0E5FFB6F8A8020AF029F896F8AA028C
:1032B80009F0DDFFB6F8AC020AF021F896F8AE0284
:1032C800AEE1754EDFF8E481307800EB4000C0B223
:1032D8000AF012F84FF000093378994508F102080E
:1032E80080F0BB8118F8020C09F0C1FF18F8010C36
:1032F80000EB800000EB800000F2EE2080B209F0C5
:10330800FEFF09F10109E7E7012009F0F5FF5E4B2F
:1033180093F84C0284E106EB0803013693F8400267
:1033280009F0A5FF082EF6D197E1574E102009F0B5
:10333800E3FF707909F09BFFB06809F0E9FF96F8A0
:10334800480209F094FFB6F8C80109F0D8FFB6F8AA
:10335800CC0109F0D4FFB6F8D00109F0D0FFB6F8D7
:103368001A0209F0CCFFB6F81C0248E14B4B464E56
:1033780093F87000DFF83891C0EBC000C0B209F0D4
:10338800BBFF06F1200896F9B202002313F90920C1
:10339800824200F095810C33302BF7D10836B045C6
:1033A800F1D15AE1B6F8680309F0A9FF96F86A0363
:1033B80009F05DFF043696F8670309F058FF4645A3
:1033C800F0D14AE18020364E09F096FF06F18008D8
:1033D80056F8040F09F09CFFB045F9D13DE18D2066
:1033E80009F08AFF00264FF0060A0AFB06F94FF09B
:1033F800000B5FFA86F8404609F039FF5FFA8BF058
:1034080009F035FF204B0BEB090119440BF1010BB7
:1034180091F8A80309F02BFFBBF1060FEBD1013699
:10342800062EE2D10026062009F021FFF0B209F0AD
:103438001EFF154B3344013693F8CC0309F017FFF0
:103448000B2EF0D109E10D2009F056FF02F046FDE0
:10345800144E40F00200C0B209F009FF308809F0AC
:1034680057FFF06809F054FF02F018FD4AE04E4596
:1034780080F2F38018F8060009F0F9FE0136F6E745
:1034880034100020C0390020D82F0020ACF7FF1FCF
:10349800B0F7FF1FB4F7FF1FD8360020400E0020FA
:1034A800BC320020C8030020800E002038320020E3
:1034B800B0350020CB4E042009F01EFF012009F092
:1034C800D6FE96F8B10509F0D2FE96F8AF0509F0D8
:1034D800CEFE96F8B005A3E0012009F00DFF00200C
:1034E8009EE0132009F008FFDFF81883002618F87B
:1034F8000600013609F0BBFE0B2EF8D1002009F0BA
:1035080007FF002009F004FFA7E0B64E052009F0E8
:10351800F3FE96F8220209F0AAFE96F8230209F0B3
:10352800A6FE96F8240209F0A2FEB6F8DA0066E0D4
:10353800AC4E032009F0E0FE96F8C30109F097FEAF
:1035480096F8C40109F093FE96F8C50168E0A54E07
:10355800062009F0D1FEB6F8D83123B1082009F0C9
:1035680086FE012005E096F8DA0109F080FE96F85B
:10357800E60109F07CFE96F8E10009F078FE96F87D
:10358800E00009F074FEB6F8DC0038E0964E112031
:1035980009F0B2FE3368588D09F0B1FE3368988D92
:1035A80009F0ADFE3368D88D09F0A9FE336893F8A9
:1035B800280009F05CFE336893F8310009F057FEE3
:1035C800336893F8370009F052FE336893F83800EF
:1035D80009F04DFE336893F8330009F048FE33686C
:1035E80093F8340009F043FE336893F8360009F085
:1035F8003EFE3368988F09F082FE3368588F09F0D1
:103608007EFE2AE0774E032009F076FE96F8D50173
:1036180009F02DFE96F8EA0109F029FE96F8E9016D
:1036280009F025FE19E0B8F15D0F61D040F28A80FB
:10363800B8F1D20F40F00B8309F0FAFD020600F151
:10364800FE826A4B1B785B0704D4032828BF00203E
:1036580004F03AFB002009F04FFE09F019FE236838
:10366800002283F84820624B624C186804F07AF80C
:1036780094F871305BB1604B58590DF06BF90DF04F
:10368800B2F8002384F871305C4B5D4ADA604C353F
:10369800982D7EF4F6AE00F0BABED046CAEB08000C
:1036A8008842BFF678AC18F8010B019109F0DFFDEC
:1036B8000199F3E74B4493F8380009F0D8FD8AE400
:1036C800C0B209F0D4FDB6F8B40209F018FE96F8B5
:1036D800B60209F0CCFD96F8B70209F0C8FD96F8D5
:1036E800B90209F0C4FD96F8B80209F0C0FD55E624
:1036F80009F09EFD3C4EDFF8EC80D6F8009088F883
:10370800DC0109F0A1FDA9F82000D6F8009009F025
:103718009BFD2368A9F822005B79052B9AD909F04B
:1037280093FDA8F8DE0109F08FFDA8F8E001D6F8AE
:10373800008009F089FDA8F82400366809F084FDA6
:10374800F08487E7B8F1370F33D15B794FF007087A
:10375800B3FBF8F8C8EBC8029B1A13F0FF0F02D0AE
:103768000CF0BAF876E75FFA88F808F1FF385FFAE4
:1037780088F8B8F1FF0F3FF46DAF09F059FD4FFA23
:1037880080F948460DF004FA06460028E8D080F88B
:10379800009009F059FD708009F04AFD307109F078
:1037A80047FD707109F044FDF07109F041FDB071F9
:1037B800DBE700F22981B8F12B0F04D109F038FDBD
:1037C800084B587146E700F28880B8F1250F1BD1E5
:1037D800044E0023B36009F041FDB3681843B0609C
:1037E80038E700BFD82F0020FC130020F820002065
:1037F8001C210020400E0020E035002000ED00E0F4
:103808000400FA0558E8010841D8B8F10B0F19D19E
:1038180011220021D348DFF8549318F005FA4FF02D
:10382800000833685B79102B28BF10239845BFF434
:1038380011AF09F0FDFC08EB090308F1010883F852
:10384800BE05EEE7B8F1230F1ED109F0F1FC1328ED
:10385800064685D809F0ECFC00220C2101FB02F396
:1038680007EB030E9EF808E0864500F05B85013201
:103878001F2AF3D174E7B8F1FA0F40F02585BA4B47
:103888001B785A0740F192830CF026F8E5E6B8F168
:10389800270F0DD109F0D8FCB44EC6F8C80109F0BD
:1038A800D3FCC6F8CC0109F0CFFCC6F8D001D1E6AC
:1038B800B8F1290FE8D109F0C7FCAC4EA6F81A02F6
:1038C80009F0C2FCA6F81C0209F0B2FC86F81E0238
:1038D80009F0BAFCA6F82002BCE6B8F1310F13D102
:1038E80009F0A6FC1F2806463FF63AAF23685B7925
:1038F800052B7FF435AF09F0B1FCBA369B4B43F882
:10390800260010F09FFEA5E64BD8B8F12D0F32D156
:1039180009F08EFC954E86F8480209F095FCA6F849
:10392800540209F091FCA6F8500209F08DFCA6F8A3
:10393800520209F07DFC236886F84A025B79082B5D
:1039480007D909F081FCA6F85C0209F07DFCA6F80D
:103958005E0223685B790C2B7FF67CAE09F068FC6D
:1039680086F8560209F064FC86F8570209F06CFCE8
:10397800A6F85A026EE6B8F12F0F85D17B4E06F1F4
:10398800400809F061FCA6F8680309F051FC86F8C4
:103998006A0309F04DFC043686F867034645F0D102
:1039A80058E6B8F1330F05D109F042FC6F4B83F8A4
:1039B8004C024FE6B8F1350F7FF466AF09F038FCDA
:1039C8000E2880463FF6CCAE09F032FC03283FF6BD
:1039D800C7AE664B062606FB083686F85A0509F078
:1039E80027FC86F8550509F023FC86F8560509F0EA
:1039F8001FFC86F8570509F01BFC86F8580509F0E6
:103A080017FC86F8590525E6B8F1440F04D1584B40
:103A1800012283F871201DE671D8B8F13E0F09D153
:103A280009F006FC514E86F8970209F001FC86F869
:103A380096020FE62BD8B8F1390F11D109F0F8FB2F
:103A48004A4E86F8120209F0F3FB86F8160209F0CE
:103A5800EFFB86F8150209F0EBFB86F81702F9E58B
:103A6800B8F13C0F7FF410AF424ED6F8008009F051
:103A7800DFFB0128A8BF012088F8000033681B7805
:103A8800012B3D4B14BF3D4A3D4A1A60E2E5B8F1AF
:103A9800410F0CD1DFF8D480002609F0C9FB06EBF2
:103AA80008030136082E83F84002F6D1D2E5B8F1B2
:103AB800430F7FF4E9AE2D4E09F0BAFB0023B36043
:103AC800707109F0CBFBB3681843B06009F0B0FB24
:103AD80086F8480209F0B8FBC6F8C80109F0B4FB3B
:103AE800C6F8CC0109F0B0FBC6F8D00109F0ACFB70
:103AF800A6F81A0209F0A8FBA6F81C02AAE5B8F174
:103B08004C0F19D109F094FB184E86F8A60209F05B
:103B18008FFB86F8A70209F097FBA6F8A80209F020
:103B280087FB86F8AA0209F08FFBA6F8AC0209F019
:103B38007FFB86F8AE028DE52AD8B8F1480F09D187
:103B480002F01AFB0F4A002313700F4A13700F4A32
:103B580013607FE5B8F14A0F7FF496AE09F074FB65
:103B680078E500BF96350020F8200020D82F0020E7
:103B7800400E0020FC130020B4000020FD0C0108BA
:103B880071FC0008F4130020F5130020F81300203E
:103B9800B8F1510F12D1C64B1B78012B3FF65AAD25
:103BA80009F046FBC34E86F8B10509F041FB86F8DB
:103BB800AF0509F03DFB86F8B0054BE5B8F15B0FA2
:103BC80015D109F035FBBB4E86F8DA0109F030FB58
:103BD80086F8E60109F02CFB86F8E10009F028FBDD
:103BE80086F8E00009F030FBA6F8DC0032E5B8F111
:103BF8004E0F7FF449AE09F01BFB112880463FF6B3
:103C0800AFAD09F015FBAB4E08F5987806F818002B
:103C180009F01AFB40F2ED23984205DD40F6CA038D
:103C28009842A8BF184601E040F2EE2006EB48068D
:103C3800A0F2EE20192390FBF3F070700AE500F073
:103C48007F00032828BF002003F0D0FD02E500F222
:103C5800F581B8F1CC0F51D15B79092B7FF680AD96
:103C6800954ED6F8008009F0E3FA88F80000D6F8F7
:103C7800008009F0DDFA88F8020009F0D9FA336803
:103C88006428A8BF6420587109F0D2FA3368642800
:103C9800A8BF6420987109F0CBFA3368FF28A8BF41
:103CA800FF20D87109F0C4FAD6F80080642828BF2C
:103CB800642088F8080009F0BBFA88F80300D6F8F1
:103CC800008009F0B5FA88F80400D6F8008009F0F9
:103CD800BBFA2368A8F80A005B790A2B05D9D6F83D
:103CE800008009F0A5FA88F8090023685B790B2B96
:103CF8007FF6B0AC366809F09BFA9EE700F2F080D8
:103D0800B8F1C80F28D15E797608122E3FF628AD93
:103D18004FF00008B04507D209F096FA0CAB23F82B
:103D2800180008F10108F5E76449324600239E426D
:103D380006DD0CA830F8130021F813000133F6E76C
:103D48005E4B0021122A03D023F812100132F9E742
:103D58005B4B01221A707DE45CD8B8F15F0F47D144
:103D6800584ED6F8008009F06FFAA8F82A00D6F85D
:103D7800008009F069FAA8F82C00D6F8008009F04C
:103D880063FAA8F82E00D6F8008009F051FA88F8EE
:103D98002800D6F8008009F04BFA88F83100D6F8E8
:103DA800008009F045FA88F83700D6F8008009F055
:103DB8003FFA88F83800D6F8008009F039FA88F810
:103DC8003300D6F8008009F033FA88F83400D6F8C2
:103DD800008009F02DFA88F83600D6F8008009F03E
:103DE80033FAA8F83C00366809F02EFA708731E4F7
:103DF800B8F1610F7FF448AD09F01AFA2D4E86F834
:103E0800D50109F015FA86F8EA0109F011FA86F8E1
:103E1800E9011FE4B8F1C90F26D109F009FA2A4BC4
:103E28001A7810B142F0020201E022F002021A7080
:103E380009F0FEF9254B264E187009F00FFA30608C
:103E480009F00CFA706009F0FFF9224B188009F0AC
:103E5800FBF9214B214A188092F82E3043F00203D7
:103E680082F82E30FFF7F6BBB8F1CA0F7FF40CAD1D
:103E7800144E4FF00008D6F8009009F0D9F9C14463
:103E880089F80100D6F8009009F0D2F9C14489F800
:103E98000B00D6F8009009F0CBF9C14408F10108ED
:103EA800B8F10A0F89F81500E5D1FFF7D3BB00BFB9
:103EB800C82C0020D82F0020E81100206C1D0020FD
:103EC800ED360020FC1300201011002016110020F0
:103ED800181100201411002012110020400E00209B
:103EE800B8F1CF0F39D109F0AFF96FF4AF6E00EB2D
:103EF8000E039BB2B54EC62B98BFA6F8500209F028
:103F0800A3F9A6F8CC0009F09FF9A6F8CE0009F0AD
:103F18009BF9A6F8D00009F097F9A6F8A80209F0CD
:103F280087F986F8A10209F083F909F081F986F882
:103F3800A20209F07DF986F81F0209F079F986F8DE
:103F48004C0209F075F909F07FF900EB8000400098
:103F5800A6F8EC0109F06CF973E51DD8B8F1CD0F9E
:103F68000AD19B4B1B7858073FF574AB994B4FF41C
:103F7800C8721A80FFF76EBBB8F1CE0F7FF484AC1D
:103F8800934B1B7859073FF565AB934A137843F079
:103F980004031370FFF75EBBB8F1D00F0CD18C4B44
:103FA8001B785E073FF556AB04F08EF803F060FC13
:103FB80003F0FAFCFFF74EBBB8F1D10F7FF464AC05
:103FC80009F036F9824609F049F9814609F046F9BF
:103FD800804609F043F9064609F036F909F034F944
:103FE80009F026F9BAF1000F13D17C4B1020C3F861
:103FF8000090C3F8048003F0D1FB774A137843F0AC
:1040080001031370002E3FF425AB754B1E60FFF7BC
:1040180021BBBAF1100F7FF41DAB724BC3F80090AF
:10402800C3F804800EB16E4B1E606F496F4B0222BD
:10403800081F1A700EF084F8FFF70CBBB8F1DB0FFD
:1040480005D16B4B18680AF05FFDFFF703BB70D80A
:10405800B8F1D60F0BD1DFF89C81002609F0F4F8EF
:1040680028F816000136082EF8D1FFF7F3BA37D82A
:10407800B8F1D30F3FF472ADB8F1D40F7FF404ACAC
:104088005B790F2B7FF46CAB09F0D2F807288046D8
:104098003FF666AB09F0D8F84C4B0E2606FB0836FF
:1040A800A6F8520109F0D0F8A6F8540109F0CCF8A6
:1040B800A6F8560109F0BCF886F8580109F0B8F8D6
:1040C80086F8590109F0B4F886F85A0109F0B0F8F1
:1040D80086F85B0109F0C2F8C6F85C01FFF7BABAC6
:1040E800B8F1D90F0ED109F0AFF8384EA6F8D400C0
:1040F80009F0AAF8A6F8D60009F0A6F8A6F8D8009C
:10410800FFF7A8BAB8F1DA0F7FF4BEAB09F090F860
:104118002E4E86F8220209F08BF886F8230209F061
:1041280087F886F8240209F08FF8A6F8DA00FFF776
:1041380091BAB8F1EF0F0AD109F086F8234EA6F824
:10414800F00109F081F8A6F8EE01FFF783BA53D819
:10415800B8F1DC0F0ED109F06BF81C4E86F8C301DC
:1041680009F066F886F8C40109F062F886F8C50116
:10417800FFF770BAB8F1DD0F7FF486AB09F058F895
:10418800804609F055F8064609F052F80F283FF620
:104198007BABB8F1050F0BD8052E3FF675AB0B4B73
:1041A800062202FB08331E4486F8A803FFF752BA1A
:1041B800B8F1060F7FF468AB0A2E3FF665AB034BE8
:1041C8001E4486F8CC03FFF745BA00BFD82F00205D
:1041D800F82000202C10002010110020D4110020FD
:1041E800C039002034100020381000203210002080
:1041F800FC130020183A0020B8F1F50F7FF43BAB10
:10420800012009F079F80026824BDFF840A28248A5
:104218001E70314630228AF80060DFF834B2DFF8C9
:10422800F89117F001FD8DF80F607C4ED0469DF88F
:104238000F3096F876209A4232D99DF80F3006EB67
:10424800C30393F87930DB0723D59DF80F3006EBCD
:10425800C30393F878303BF91330002B19DD9DF830
:104268000F3006EBC303DB6F18790DF06DF998F882
:104278000030202149F823000DF000FA98F80030AA
:1042880059F823000DF08BF998F80030013388F8BD
:1042980000309DF80F300133DBB28DF80F30C6E7E0
:1042A8009AF8000008F0E3FF08F0F2FF5C4B18688A
:1042B80003F058FA236818680CF04CFB2368186858
:1042C8000FF072F9FFF7C6B9B8F1F20F7FF4DCAA64
:1042D80008F0AEFF0F2806463FF642AA08F0A8FFEE
:1042E800504BC6EBC6061E4486F8E20008F0A0FF55
:1042F80086F8E30008F09CFF86F8E40008F098FFD1
:1043080086F8E50008F094FF86F8E60008F090FFCC
:1043180086F8E70008F08CFF86F8E8000CF0A6F8AD
:10432800FFF798B9404ADFF8FC80134406F5A076F9
:1043380008EB860693F83030737108F079FFB07196
:1043480008F076FFF07108F073FF384B38491A68A7
:10435800307208F1CC030B60364B00201A600EF067
:10436800F4F9354B80F001001870FFF773B90D2888
:1043780028D1FEF762B8591E685C202819D101229D
:104388000B46FEF768B81035B5F5147F16D055F80A
:1043980008102A4805EB080606F0FEFD0028F2D0B2
:1043A800274B9E420AD2F368984700232360FEF702
:1043B80058B802B123600025F554E8E7214811F008
:1043C80067FAF2E77F2809D1013B1C4A1E4823609F
:1043D8000021D15411F05CFAFDF7B4BF2F2B3DF644
:1043E800B1AFA0F12002D2B25E2A3DF6ABAF13B94D
:1043F80020283DF4A7AF5A1C2260104AD05411F06F
:10440800A9F8FDF79FBF7F28EBD1FDF79BBF2DB023
:10441800BDE8F08FB805002028210020400E0020BC
:104428001C210020D82F0020A0C10108FC13002067
:104438001C12002020120020B0000020303A00207A
:104448009CE7010886EE0108A2EE01082337002048
:10445800B8290020A2490A682DE9F04F02F59C43CB
:10446800A04C20332360A04B89B01E7802911EB95E
:10447800DFF898829D4F18E09D4909688A4240F20A
:104488000181013E1E70FDE0072D98BFD8F800306D
:10449800984898BF595D3B6888BF29469847032DBF
:1044A80009D904EB45050136A88008F04BFDF5B2A3
:1044B8008542E9D320E0D8F8002005F1100302EB8B
:1044C80083039988DA880028EBD04FF47A73401A6E
:1044D8005843531A90FBF3F040F6C90300F57A707D
:1044E800984205DC40F2EE239842B8BF184601E036
:1044F80040F6CA0080B2D4E77F4B1A6842F2010A3C
:1045080002EA0A0A7D4A136801939046BAF1000F3D
:1045180006D094F8292084F82820794A5178117017
:1045280094F828601EB1764A167886F00106754F11
:104538000F2284F82A20002507F1460B08F002FD17
:10454800854264DA4FEA45091EB16F4B33F815000E
:1045580000E030466D4B19688A8B82424FEA850E1F
:104568006B4A02D8C98B81421CD25BF80E00019BB2
:104578005C49984202D932F8090018E0E8B204927E
:10458800039108F0F7FC032D049A10DC03994FF00F
:10459800010E0EFA05FC91F82AE02EEA0C0E81F8BD
:1045A8002AE004E0019B03F596714BF80E10BAF16E
:1045B800000F27D094F8BC100322B1FBF2F202EBF3
:1045C80042028A1A09EB050E5EFA82F204EB4202F5
:1045D800908594F8BD202AB9022912D9414A0121AF
:1045E80082F8BD1037F8020C3A884A4902447888A4
:1045F80010FA82F212B221F80920032092FBF0F09F
:1046080080B2434A22F809000135063796E794F844
:104618002A300F2B0CBF0123002384F8D6303E4BE1
:104628000ED13E4A126850010AD4D8F80020D96841
:104638009A60521AC82A20D9012283F821201CE046
:104648002F4A334E012151701170D8F80020996813
:10465800DA605B68521A9A4282BF2F4B002283F8B5
:104668002120002508F06EFC854206DAE8B208F041
:1046780081FC26F815000135F4E794F8BC300133C5
:1046880084F8BC301C4B1A6812F4805F9B4605D036
:10469800224B1B68D90701D411F044FF029B18680C
:1046A8001A4B1E68337B002B3CD0194A013B32F968
:1046B8001330B27B1AB1C3F53B6308331BB2A3F5C1
:1046C8007A73B3F57A7FA8BF4FF47A7323EAE3735A
:1046D80007EE903ADFED126AF8EEE77A5CE000BF89
:1046E80088390020280F0020C0200020B4050020B1
:1046F800BC200020D8360020B82000203828002010
:1047080004000020560F00202C0F0020B4200020A9
:1047180088360020E60F0020C4200020F420002066
:1047280000007A44DBF80020120441D5D4F8D820E0
:10473800AE4D821A002A3BDB00F59C422032C5F8B8
:10474800D820AB4AD179AB4A32F811108AB2717BC2
:1047580092FBF1F195F8DC20013202F00F0285F8A6
:10476800DC202A44DD3582F8DD1019464A5D013126
:104778001A44102913B2F9D193FBF1F31BB2002BA1
:1047880003DB642BA8BF642300E0002307EE903A04
:10479800DFED996AF8EEE77A87EEA67A974ADFEDB9
:1047A800987A67EE277AFCEEE77A17EE903A13804C
:1047B800DBF80030DFF870A213F4807F00F0FA8095
:1047C800904BDFF84492984205D999F8022012B923
:1047D800012289F8022099F80220002A00F0EA80D4
:1047E800894A8A4992F8215008689AF8002003916A
:1047F80002F0040700F08063012DFFB2029305D098
:1048080012F0080F0CBF0023022300E00023804EA3
:10481800DFF81882019399F82020052A00F2C58054
:10482800DFE802F003485C7D8DADB7B3B4F8EE1055
:10483800D4F8F0000CF02CFC012808D1D8F80010AE
:104848003268C988642000FB0122C9F81020029B45
:104858005BB1D8F8002012793AB10BF0A7FE032219
:1048680089F820204FF47A7235E0012D00F09D8000
:104878003168D9F81000644A88420AD204920BF0D1
:1048880095FE049A032182F8201040F6B831D161D0
:10489800C1E7012182F82010BDE7029B4FF4806038
:1048A80013B102F08BFF01E002F078FF0022C9F893
:1048B80010207AE0012D56D0D8F80020127A012A6B
:1048C80002D00BF073FEA6E70BF070FE032289F806
:1048D800202040F6B832C9F81C209CE7012D04BFFF
:1048E800052289F820206FB1D4F8F020B2F9101011
:1048F800484A118051809180D8F8001003234988D4
:10490800D18001933268D9F81410914201D3002F55
:1049180048D147F23052C9F81C20032224E09AF803
:10492800002042F002028AF8002011F0FBFD3268F4
:10493800D9F81C100A44C9F81820042214E0012DE3
:1049480015D13268D9F8181091422ED2324B1A7804
:104958001AB9039B1A68D30727D49AF8002022F0C3
:1049680002028AF80020052289F8202053E7284A05
:10497800D9F81C1012680A44C9F8182015E0D8F8AC
:1049880000103268C988642000FB0122C9F8102091
:104998004FF48060002289F8202089F8032002F073
:1049A800FDFE38E7012D3FF436AF019B13B11846E1
:1049B8000CF0D4FB194EB6F8DA1006F510700CF0AE
:1049C80067FB05460CF0A4FBB146154E80B39AF878
:1049D80000305F072CD5134BB3F90620B9F85A32CB
:1049E8009A4239DB012384F8F4303AE0280F00209A
:1049F800281300203C1300200000C8423022002069
:104A080000C07F44404B4C00C4200020F42000200C
:104A18003828002088360020B0000020D82F002039
:104A2800A02C0020D02B0020F8200020502B0020A4
:104A3800002384F8F430A5B99B4B9C4900221A60E6
:104A48005A609A609A4B1B6893F8323000200860CD
:104A5800486088602BB905E01DB994F8F430002B44
:104A6800EAD0012333709AF80030580732D5DBF8C2
:104A78000030D9062ED58F4B1B78DA062AD48E4BF8
:104A88001B7883B199F897329DB96BB18B4B1A6833
:104A9800D4F8F8309B1A002B06DA11F043FD884B46
:104AA80083F8FC5016E06DB910200CF057FB012379
:104AB8000EE03BB1814A12684FF47A7101FB03237F
:104AC800C4F8F83094F8FC3023B10CF02FFB002325
:104AD80084F8FC30002299F89612B9F85262B9F8B5
:104AE8005472DFF8F0E113463EF912009B08B04219
:104AF800C4BF63F07F03DBB20132B842B8BF43F0F2
:104B08004003042AF0D194F8FD206D489A4205D15B
:104B180090F8FE20F92A04D8013200E0002280F83B
:104B2800FE20654F664A387884F8FD30654E20BB14
:104B38003368DB0709D582F8FF00F5B99AF8003029
:104B4800DA071AD511F076FC17E09AF800305B07FF
:104B580013D592F8283083B15B4BDB786BB992F8A8
:104B6800FF300133DBB2032B82F8FF3005D911B1D6
:104B780011F0D8FC01E0002DFAD094F8FE30504D29
:104B8800142B64D13B7893B195F8FD305F2B0ED18F
:104B98009AF8003003F0040303F0FF0813B111F092
:104BA800C1FC04E00B200CF0D9FA85F8FE809AF8D5
:104BB800003003F0040303F0FF02002B47D194F800
:104BC800FD503F4B572D0FD104F0A1FEDBF800300C
:104BD8001D0601D50DF060FB3C4B1B68580736D508
:104BE8003B4B0A221A8032E0DBF80010490717D540
:104BF8005A2D15D193F8001129B183F8002101220B
:104C080083F8012123E093F8022182F0010283F85E
:104C180002210AB10C2000E00D200CF09FFA16E0EA
:104C28005D2D00F0CE835B2D00F0CD835E2D01D18C
:104C38000320C9E3562D01D103F058F83B78002B27
:104C480000F0C7836F2D40F0C48311F0F3FBDBF84D
:104C58000030580750D594F80231194A9BB19AF898
:104C6800003059070FD51B4BB3F90610B9F852326B
:104C7800994208DD336813F0010302BF3221A2F81C
:104C8800061182F802313368DA0325D594F8082131
:104C98000B4B2AB993F8002112B93222A3F8062146
:104CA800012384F8083127E074290020F82B00201C
:104CB800FC13002010110020B0000020382800202C
:104CC800280F0020F4200020C4200020C81E002047
:104CD800903900208836002094F80031AA4A5BB148
:104CE8009AF8003003F0040303F0FF0123B901230D
:104CF80082F8001182F80131A44D0023336005F1D8
:104D080050074FF00108294615F8010C0CF09AF9E4
:104D180030B115F8023C08FA03F2336813433360E4
:104D28000435BD42EFD19A4B1E784EB1994EDFF84B
:104D380090823368984F13F0020F40F0C881BFE1AA
:104D4800964D974F05F15A08294615F8010C0CF0B5
:104D580079F9E8B1AB78934A297995F803C0013B12
:104D680003EB430313440C2202FB01FE07EB0E0086
:104D7800426893420CD04360012303FA01F194F88E
:104D8800093107F80EC023EA0101866084F8091189
:104D98000635A845D8D1844B844E1D68844B1B68C2
:104DA800039394F828300493824B029300230193D1
:104DB800029B1A68002A00F078811778002F00F00B
:104DC80074815B680399CB1A002B0DDB01F5FA732C
:104DD80002994B600199012303FA01F194F8093112
:104DE80023EA010384F80931049B002B00F05D815C
:104DF800029B517813F8043C0433DBB2002940F0DD
:104E08001D816D4931F91310B9F8503203F1C8000A
:104E1800814202DD92F8028016E0C83B994203DA2B
:104E28009178C1F100080FE0019A012303FA02F218
:104E380094F8093123EA020384F80931039B029AA2
:104E480003F5FA73536030E1019B94F809211A4184
:104E5800D30700F12A81B8F1000FCCBF022001204E
:104E68000CF0BCF97A1E132A00F21681DFE812F062
:104E780014001E0028003800500057007100AA00D6
:104E8800C300CE00DB001401380046005700710053
:104E9800AA0066008000B80029784144FA29A8BF12
:104EA800FA2121EAE17129700120B9E0A978414489
:104EB8006429A8BF642121EAE171A9700220AFE04A
:104EC8002F793E4B4744642FA8BF642727EAE7772A
:104ED80019682F7128460BF0A1FE394603209FE080
:104EE800A97941446429A8BF642121EAE171A97123
:104EF8000D200CF0EDF80D2F00F0CE8069794144BB
:104F08006429A8BF642121EAE17169710E2087E054
:104F1800E979414481F30801E971052080E03268AC
:104F280091784144C829A8BFC82121EAE17191704C
:104F38000F200CF0CDF80F2F00F0AE8032685178BA
:104F48004144C829A8BFC82121EAE1715170122043
:104F580066E03268117B4144C829A8BFC82121EA0C
:104F6800E171117310200CF0B3F8102F00F0948049
:104F78003268D17A4144C829A8BFC82121EAE17121
:104F8800D17213204CE000BF280F0020DF3400202E
:104F9800643A0020F4200020F02000202E35002064
:104FA800EC11002044C30108E81100202012002061
:104FB80038280020F0110020883600201C1200201C
:104FC800C81E00203268917D4144C829A8BFC82165
:104FD80021EAE171917511200CF07AF8112F5BD05C
:104FE8003268517D4144C829A8BFC82121EAE1712E
:104FF8005175142014E03268D1784144C829A8BFFB
:10500800C82121EAE171D170092009E03268517B99
:105018004144C829A8BFC82121EAE17151730A2077
:105028000CF056F838E03268D17D4144C829A8BF51
:10503800C82121EAE171D1750B20F1E701292BD1B3
:10504800A14931F91300B0F5617F05DB40F6330360
:105058008342A8BF034601E04FF461730C2F1BD1B4
:1050680090784FF4966292FBF0F0984A1278A3F584
:10507800617393FBF0F3DBB29A420DD018460593A7
:1050880002F0B4FB059B384619460CF021F8059B45
:10509800581CC0B20CF0A2F8019A012303FA02F2DC
:1050A80094F80931134384F80931019B01330193C2
:1050B800029B0C330293019B042B7FF479AE35E6F7
:1050C800DBF80030DD050FD5814BDB7863B1D8F80C
:1050D8000030980708D53B8813F0010509D1012055
:1050E80002F06CFB2B4605E0012002F057FB012380
:1050F80000E00023326851070AD54BB1012002F0C5
:105108004DFB3B889A0706D4022002F057FB02E0C9
:10511800022002F043FB398811F003011ABF012174
:10512800084601200CF04AFAD8F800309B0608D44B
:1051380033681D0540F191804FF4807002F03EFB0A
:105148008FE0644B1B78980750D5634B1B78042B72
:105158004CD9336813F400730ED03B88D90639D480
:10516800102002F02BFB202002F018FB5B49081FDF
:105178000CF0E6FF022329E03D8805F01005ADB2EA
:105188003DB11020019302F009FB019B84F80A311C
:10519800012533685A0512D5514B52491B685A8963
:1051A800B1F90030002BB8BF5B42934207DAB1F97E
:1051B8000230002BB8BF5B429A4200F355813B880E
:1051C8009B0608D5202002F0E9FA002384F80A316A
:1051D800012500E0002594F81431B3B90E200BF036
:1051E800BDFF414B012283F814210EE03B8803F0F8
:1051F8003003002B9CD0102002F0D0FA202002F0BF
:10520800CDFA002384F80A3101E0002D90D0374907
:10521800002300220B80A4F81631A4F81A31C4F830
:105228002021C4F82431C4F82821C4F84821C4F83E
:105238004C31C4F850214B80A4F81831A4F81C3123
:10524800C4F83421C4F83831C4F83C21C4F85C21CE
:10525800C4F86031C4F864216AE74FF4807002F042
:105268009DFA99F80530082B01D00E2B02D1402069
:1052780002F094FADBF800305D0519D599F8D432BC
:1052880023B99AF8003013F0040F02E0336813F4DE
:10529800002F09D03C200DF0A7FA48B107F0A8FF6D
:1052A8003C200DF069FAF8E710F0E7FD0DF0A4FADC
:1052B8009AF800300121580784F8701118D5002099
:1052C8000CF07CF959E000BF88360020B02000209F
:1052D800C42000201011002016110020D811002031
:1052E80038120020D02B0020280F0020D82B0020B7
:1052F8003268D20703D5694A92F871211AB143F08E
:1053080001038AF80030664B664A1B781B075EBFAC
:105318009AF8003023F001038AF80030D8F80030FA
:1053280013F0040F02D06049098871B9B4F8041168
:1053380009B19D0709D45D4B1B88003318BF0123B1
:105348001BB95B490988642908D9022313709AF8A4
:10535800003023F001038AF8003005E09AF80010C5
:10536800C80758BF022313700BF016FA514B1B687D
:10537800C01A002801DB07F087FED8F8003059076B
:1053880040F1888033681A0705D4082009B0BDE8C1
:10539800F04F02F003BA3D8805F00805ADB2002DC4
:1053A80078D1082002F00AFA434B1A68434B1A6076
:1053B800434BDB88A4F87231424B1D60424B1D60A1
:1053C80068E0012000E002200138C0B202F07CFC55
:1053D8003DE4972D04D14FF4C873A4F8043136E4A2
:1053E800A72D05D12E4A137843F0040313702EE439
:1053F8000023BB2D079301D1022303E0B72D04D16D
:105408004FF6FE73ADF81E3009E0BE2D01D1022320
:1054180003E0BD2D17D14FF6FE73ADF81C30B9F877
:10542800EE21BDF81C301344A9F8EE31B9F8F0218B
:10543800BDF81E301344A9F8F03102F057FC0023E0
:1054480084F8FE3003E4792D04D1204AD37823F080
:10545800010306E07A2D7FF4FAAB1C4AD37843F0B7
:105468000103D370FFF7F3BB3B889B063FF5B3AE50
:10547800202002F0A3F9164B16491A685B68C4F895
:105488000C21081F0125C4F810310CF059FE84F8CE
:105498000A51A0E609B0BDE8F08F00BF280F002030
:1054A80010110020E820002090390020D61200209A
:1054B8008C120020EC200020D0110020C0390020E0
:1054C80088360020CC390020D0390020083A002046
:1054D80018110020381000202DE9F74F6A4CDFF82A
:1054E800ACE10091DEF800302188B4F90280C1EB0C
:1054F800231252434900C1EBE3011313B4F904200A
:10550800534308FB01F89B1303EBE82303EB8302E7
:105518008032B3F5FA384FEA22224FEAE37949F1AB
:10552800FF390192B4F90820A361A8FB08AB08FB76
:1055380009F30BEB430B02FB09F1D31708FB03112B
:10554800A2FB08230B441F03160347EA1257B4F9BA
:105558000A2002FB0BF1D3170AFB03130546A2FB33
:105568000A011944020A42EA016292194FEA212308
:10557800E6887B41003243F50043A2FB060106FBA7
:1055880003114A10CB1752EA030170D0B4F9100086
:1055980000FB0BF6C1170AFB0166A0FB0A013144A8
:1055A800B4F90E6006FB09FCF71708FB07C7A6FB52
:1055B8000889B9444FEA484A4FEA494B1AEB000AAE
:1055C8004BEAD83B4BEB010BDEF80410B4F90C8026
:1055D800C1F5801E7646F71700264FEACE70F90708
:1055E80016EB0A064FEAC80741EA5E0147EB0B07CC
:1055F80040F6354E861B61EB0707A6FB0E010EFB36
:10560800071111F097FCB4F916204E13470B47EA1F
:10561800C14702FB06FED31707FB03EEA2FB0723D5
:105628007344564307FB0366A2FB07233344560E15
:1056380046EAC3163218B4F914604FEA636747EBB9
:1056480001037143F71700FB0717A6FB0001394454
:10565800C60C46EA4136B6184FEAE147B4F91200DB
:105668005F41330A43EA07630201134400E0002361
:105678000DB11B0A2B60009B13B11A46019B1360E6
:1056880003B0BDE8F08F00BF580700209C10002031
:105698007047044B1A7A02F0FF0012B100221A7206
:1056A800012070479C10002037B5104B04465D68F8
:1056B80018786A460621A847A8B19DF800209DF8E9
:1056C800013043EA022323809DF802209DF803302D
:1056D80043EA022363809DF804209DF8053043EADD
:1056E8000223A380012003B030BD00BF3007002093
:1056F80013B5104B04465B686A4606213B20984761
:10570800A8B19DF800209DF8013043EA02232380C8
:105718009DF802209DF8033043EA022363809DF838
:1057280004209DF8053043EA0223A380012002B03B
:1057380010BD00BF30070020014B01221A727047CC
:105748009C100020026D036B70B50446D5699BB9A7
:10575800A90611D5C36A1BB1908C80B298470BE09B
:10576800E169928C40694E1CD2B2E6614254E1690B
:10577800E268914228BFE361616BA1B92A0612D59C
:10578800636AA26A9A42236D09D0501CA669A06276
:10579800B25C1A852369984205D3A16203E01A68AE
:1057A80022F080021A602B0742BF236D08221A627A
:1057B80070BD0168027B30B502230C6803FA02F25F
:1057C80022420BD0064A00241470446825684FF61C
:1057D800FE722A402260027B93404B6030BD00BFBE
:1057E8008521002038B5074C054620680BF0D2FE0D
:1057F800294605480CF0BAF82068BDE838400BF097
:10580800CEBE00BFDC0A0020003800402DE9F04180
:105818000C4C0D4D8046206816460F460BF0BAFE1C
:1058280048F0800128460CF0A1F83B46002231469A
:1058380028460CF06EF820680BF0B1FE0120BDE898
:10584800F08100BF5007002000300140F8B50A4C35
:105858000A4D074620680E460BF09CFE394628463E
:105868000CF084F8314628460CF080F820680BF0DC
:1058780096FE0120F8BD00BF50070020003001400F
:105888000CF03EBF2DE9FF47444D6B7A002B40F0EA
:105898008180434B1B68002B7CD018780BF054FE9A
:1058A80004460BF093FE0746002873D114230826FC
:1058B8000146A3712072E67120460BF0DFFE394BDA
:1058C800EB6020460BF08BFE002855DB364BDFF8EB
:1058D800E89005F10C0243F8202019F800802046D2
:1058E8000BF087FE824620460BF079FEC1B201F02C
:1058F800030001F0FC0101F1804303F580338000CF
:1059080099680F22824021EA02029A6099685FFA38
:105918008AF202FA00F00843986020460BF05FFE16
:105928004FF0010A20F01F01204A00F01F030AFA75
:1059380003F38B5002900DEB06008DF80C708DF878
:105948000D608DF80EA00CF06CFE194B13F80820B2
:10595800F02A11DDF02203F8082009EB080301A85A
:105968001B7C8DF8043003238DF805308DF8067004
:105978008DF807A00CF0F8FD20460BF030FE00284B
:1059880006DB0C4901220B6802FA00F01843086094
:1059980001236B7204B0BDE8F08700BF9C100020A3
:1059A80048070020415700082C2D0020140401400E
:1059B8003C0600200004014080C3010870B5264C55
:1059C8000546FFF75FFFFFF75DFFA36880216B20A7
:1059D800984764200AF01EFFA368072168209847AB
:1059E80064200AF017FFA36800216B209847642001
:1059F8000AF010FFA36801216B2098470F200AF0D6
:105A080009FFA36818211B2098470F200AF002FFFE
:105A1800A36818211C2098470F200AF0FBFEA368F2
:105A280029461A2098470F200AF0F4FE0B4AA3686B
:105A380011781920984764200AF0ECFEA368102119
:105A4800372098470F200AF0E5FEA3680121382087
:105A5800BDE87040184700BF3007002074070020D9
:105A680010B50446FFF70EFF4FF40063238110BD05
:105A780010B4047B016843690222A2404A6041686D
:105A880008684FF6FE7202400A60596A9A6A9142A3
:105A980004D018465DF8044B06F0D6BA012283F804
:105AA80044205DF8044B70472DE9F04F884E357857
:105AB800012D85B040F00981864C94F8AF2522B1BC
:105AC80094F8B0350BB19A4203D3012384F8AF356B
