:020000040800F2
:1000000000A00020FDCD01082564010819B70108F2
:1000100023640108216401081F6401080000000036
:100020000000000000000000000000001D64010846
:100030001B6401080000000019640108353D010837
:1000400065CE010865CE010865CE010865CE0108C0
:1000500065CE010865CE0108EFEA0008F9EA00085C
:10006000F7EA0008F5EA0008F3EA0008CD410008C5
:10007000B9410008A5410008914100087D410008F0
:10008000694100085541000865CE010865CE0108A8
:10009000B95C010865CE010865CE0108F1EA0008E7
:1000A000B93A0108053B010865CE0108F53A010897
:1000B000E93A0108D93A0108C93A010865CE0108B0
:1000C00065CE010865CE010865CE010865CE010840
:1000D00065CE010845400008394000082F4000085F
:1000E000EDEA000865CE0108A95C010865CE0108AB
:1000F00065CE010865CE010865CE010865CE010810
:1001000000000000000000000000000065CE0108B3
:1001100065CE010865CE010865CE010865CE0108EF
:10012000414100082D41000819410008054100081F
:10013000F140000865CE010800000000000000004A
:1001400065CE010865CE010865CE010800000000FB
:10015000000000000000000000000000000000009F
:10016000000000000000000065CE010865CE010817
:1001700065CE010800000000000000000000000043
:080180000000000065CE01083B
:100188002DE9F04FA64BA74A2DED068B1A60A64B1A
:10019800B1B000221A600DF0A7F918B90DF0E8FE09
:1001A8000DF0C6F90DF060FAA04A137843F0010388
:1001B80013709F4A9F4B116899424FF0000309D171
:1001C800136062B69C4B1B6883F308889B4B1B68C3
:1001D8009847FEE79A4A9B4C4FF47001C2F8881082
:1001E8000C930D93236843F480332360236803F44E
:1001F80000330D930C9B01330C930D9B1BB90C9B87
:10020800B3F5A04FF2D1236813F4003318BF0123CC
:100218000D930D9B012B52D0DFF824828A4BC8F82E
:100228000C308A4E676A3760636A43F08073636292
:10023800636943F4FC0330AD636103238DF87230C6
:1002480041F6FF7325F8503D4FF09040294603F0E2
:10025800FBFE4FF6FF7329467D48ADF8703003F07A
:10026800F3FE29467B4803F0EFFE29467A4803F05F
:10027800EBFE2946794803F0E7FE2946784803F063
:10028800E3FE284611F098F9764A1C9BB3FBF2F37B
:10029800754A00211360301D10221FF039FA734A85
:1002A800734B5360F02388F82330072100239360B1
:1002B800DFF8E0E111604FF0010C6E4928E06E4B69
:1002C80012221A606368636063686360636843F45A
:1002D80080636360636823F47C136360636843F43A
:1002E800E8136360236843F0807323602268554BEA
:1002F8009501FBD55A6822F003025A605A6842F009
:1003080002025A60636803F00C03082BFAD183E7F2
:1003180098023EF8135000F19040002245FA02F886
:1003280018F0010F18BF0CFA02F802F101021EBF03
:100338000860A1F804800C31102AEFD10133062B94
:10034800E6D14E4D4E4B95F8EB21DFF84C811A70F3
:100358000020AB68C8F8003018F0D2FF494A92F87C
:1003680000B000234FF0170A0BEB0301464A52F87E
:10037800210003F1010940B1022380F806A0C371EE
:1003880080F8089001210EF069FA4B46032BEBD157
:10039800002018F0B5FFA369DFF800913B4843F04F
:1003A8000103A361402200214C461FF0B1F9384AED
:1003B80054F8040B0B904FF0FF3373610BA9C2F88C
:1003C8000330234803F040FE20680A900AA9204819
:1003D80003F03AFE0A2013F057FC17F0805FCDF8BF
:1003E80014905FD11A4FDFF85890DFF8B4A00524B5
:1003F8003B8A980756D43B8AD90753D4013C14F05A
:10040800FF0405D10DF0B4FD0DF092F8C9F80CA069
:100418004FF47A7013F05AFC18F064FFE8E700BF55
:10042800E863002041B80108EC630020DD63002088
:10043800FC9F0020EFBEADDE00D8FF1F04D8FF1FD1
:1004480000ED00E0001002400005FA05F00F002062
:100458000004004800080048000C0048001000484C
:100468000014004840420F00142A002010E000E069
:100478003F190100A44300200020024070450020DD
:100488008E2700202D210208302102085023002049
:1004980004100020BEFE0108E46400207CF8010876
:1004A8000400FA05D8F800301A0725D595F84C321B
:1004B800012B21D8904B202093F84E720EF03EF974
:1004C8004FF0180A00234FF00109037280F806A0C4
:1004D80080F8079020210446F0610EF0BFF90A2049
:1004E80013F0D2FB20460EF061F928B9834B1C6843
:1004F80014F0805400F0B584642013F0E7FBC822A0
:1005080000217F487F4F1FF003F90024A7F1080955
:10051800E15900237C4850F8330081424FEAC30276
:1005280004D109EB020393F8840003E001330A2B9A
:10053800F0D100200C3418F07DFD782CE8D1714CF6
:1005480004F1780720790EF0F9F80C3414F8032C2C
:1005580014F8041C0EF046F9BC42F3D1D8F8004058
:100568006A4ADFF8CC816A4804F00103039304F473
:100578000053049342F201032340002B654B4FF0D4
:1005880004071A604FF000014FF0300288F800703D
:1005980014BF4FF0020A4FF0FF3A1FF0B9F80023DA
:1005A8003A465D485A4F04F0400919464FF0FF0C8F
:1005B80010F901EF03F807E0BAF1FF3F03EB070B6F
:1005C80007D0F24501BF02F1FF328BF800C0D2B26A
:1005D80001210C33302BEBD109B188F800204F4BA7
:1005E8006F791F704E4B4F497362D8330B60A30667
:1005F80058BF4D4B414A56BF03EBC70301235B78F5
:1006080093624A4A002340F2DC5122F81310013366
:10061800082BFAD11A22002115A81FF079F80E2FFD
:1006280003D007F0EF03082B02D101238DF86630C1
:10063800012014F051FB18B14088003018BF012088
:1006480000F001008DF85900022014F045FB18B1A4
:100658004088003018BF0120C4F340038DF85C3097
:10066800049B19F1000918BF4FF00109003318BFA6
:1006780001238DF85430C4F3C03300F001008DF825
:10068800573014F400638DF85A008DF85E9004D04A
:1006980095F822325F1E7B427B418DF85830C4F3B7
:1006A80000438DF85F3004F001038DF85530C4F332
:1006B800C0038DF85630B36A003318BF01238DF894
:1006C8006030C4F300538DF86130B5F8D230ADF81E
:1006D8006430B5F8E030ADF8623095F8E33004F0F6
:1006E80008073BBB044B93F8E23013F0FB0F0CBF39
:1006F800012300231FE000BF70450020F00F0020F9
:100708009428002084F80108FCF8010824480020F7
:10071800706000206C6000204BFE01084C1A00201D
:100728007C450020D82900206C010208A82400205C
:100738007D250020012395F8E220069312F0FB0F97
:1007480014BF012100218DF85D108DF8672013B1C9
:10075800B64BB3F8DE30ADF86830E604B5F8D03003
:10076800ADF86A3042BFB14BB3F8DA30ADF86A3051
:10077800042A06D14FF480500CF090FE0023ADF807
:100788006A30AB4B95F898221A7000216422A94868
:100798001EF0BEFF9DF86630039A002B14BF02239B
:1007A800002302B907B10133059ADFF89492A14CEE
:1007B80002EB83034FF0000AD3F8D030CDF80CA039
:1007C8009A1E123304920593049B33F802BF0493D4
:1007D8004FF6FF739B4500F0A7819DF85A305FFAEA
:1007E8008BF03BB10C2303FB00931B7B2A3B012BB3
:1007F80040F295819DF85F305BB10C2303FB0093B9
:100808008D499A688A4200F08A811B7B182B00F078
:1008180086819DF85C3033B10C2303FB00931B7B6E
:10082800102B00F07C819DF8583033B10C2303FB6A
:1008380000931B7B112B00F072814FEA1B2BBBF13D
:10084800020F02D19DF8543004E0BBF1010F04D12E
:100858009DF85530002B00F06281784A78490C23C6
:100868004343D6189DF860205AB19DF8662042B9D6
:10087800421F012A05D84B449A68724B9A4200F0ED
:100888003081BBF1010F5FFA8BF33FD10C25DFF804
:10089800C4816D4BC8F8386005FB00150027FF229E
:1008A800287B88F82C701F705F609F60DF601F6472
:1008B80083F8442083F8452083F8467083F847700E
:1008C80083F848700DF03AFFD5F808A080F807B013
:1008D800022282710772297C0DF0C0FF3A46697BBB
:1008E80050460DF071FE304617F0FAFC574BC8F829
:1008F8003C30574BC8F84030C8F8447008F1400203
:1009080008F13C01304613F0FBF808E1022B41D115
:100918009DF80C204F4B09931C2757430C2503EBDC
:10092800070805FB00954FF0000B012188F82D20E2
:1009380088F82C10287B88F82EB088F836B0C8F8CC
:100948003860089207910DF0F9FE089A07998171AD
:100958000132C1710272297C0DF080FF5A46697B11
:10096800A8680DF031FE304617F0BAFC099B3A4AE8
:10097800C8F83C201F44394AC8F8402007F13C0118
:10098800C8F844B00A1D304613F0BAF8039B013387
:100998000393C4E0032B40F0A2809DF855309DF8E6
:1009A8006720A3B19AB10C2505FB0015AB689A45E1
:1009B8000DD1531E032B0AD8DFE803F00206040604
:1009C800082102E0482100E01821254B19709DF804
:1009D8005D10BDF8683000294ED0022A94F80180D5
:1009E80007D0032A1F4A204D0EBF48221546082269
:1009F80001E01E4D1822D1B21D4F3BB11D48504396
:100A0800B0FBF3F2BDF86A3092B201E04FF6FF7224
:100A180030460DF049FF47F8280057F82830DD60C8
:100A2800A378192204EBC3034FE000BF70450020F0
:100A380090230020341D0020002C014084F8010878
:100A48007CF801080040014000230020B9E10008BB
:100A580015E30008F00F0020D1E6000891E1000836
:100A6800280A0020D9E3000875E30008ADE3000870
:100A78006028002040420F00042A657812D1AA4A53
:100A8800B2FBF3F230460B4692B218210DF00CFF80
:100A9800A64B43F82500A64BC360A3780D2204EBB0
:100AA800C30312E0A34AB2FBF3F20121BDF86A3096
:100AB80092B230460DF0F8FE9C4B43F825009E4B51
:100AC800C360A378092204EBC3035A71A378627840
:100AD80004EBC3010A7101328E6062701DE0042BC1
:100AE8001DD1A3782578BDF8622004EBC30301214A
:100AF8001D7130468F4B93FBF2F2BDF8643092B211
:100B08000DF0D2FE8D4B43F82500A37804EBC30209
:100B18000A2151712278013222700133A370059B9A
:100B2800049A93427FF450AE069B854F83F00102EE
:100B3800844B1A70844B1D78A5F117030024022BEF
:100B48003C701DD8DFF804C2DFF838E2DCF8243046
:100B58002344D3ED007AF5EE407AF1EE10FA03D192
:100B68007A4EB36A63BB24E00FCB04EB0E0686E82B
:100B78000F003B7810340133C02C3B70E6D1EFE70F
:100B8800734B13F835E087F800E003EBC503D3F89F
:100B980004C0BCF1000FE3D0DFF8E8817445DFDA68
:100BA800230103EB080663440FCB013486E80F00EA
:100BB800F4E7684B03931A6812F4805F26D11FE0AC
:100BC800654B664A13F835C082F800C003EBC503CD
:100BD80058680028EDD0624C00236345E9DAC3EB7E
:100BE800C301421801EB040ED2F8008041F80480DA
:100BF8009188AEF8041092798EF806200133ECE75C
:100C080005F0EF03082B574B1FD120E03A78012A53
:100C1800F6D9554B03EB02121032F6EE007A103378
:100C28009A42EDD013ED047A27EE277A03ED047A81
:100C380013ED057A27EE277A03ED057A13ED037A8B
:100C480027EE277A03ED037AE9E70E2D08D11A7803
:100C580042F010021A70182D08D112F069FE05E052
:100C68001A7822F010021A70192DF5E73F4C12F08D
:100C780041FE23783F2043F0040323700DF05EFD0E
:100C88003B4A049410603B4A0121117038B111228B
:100C980082710222C271002202720DF0DFFD002073
:100CA80013F04CF800200CF0E3FA01200CF0E0FA05
:100CB800314C039B14221D68002120461EF028FD9C
:100CC80005F40067AD0744BF102323700FB111234B
:100CD800E3732A4FDFF8B0A04FF00F0900254FF05B
:100CE800060817F8010C00285CD00DF027FD002439
:100CF80080F8068080F80790047217F8010C0DF050
:100D08001DFD13210DF0AAFD17F8011C23461C48F0
:100D180010F8130088424FEA430237D10AEB020366
:100D280093F8E13036E000BF00366E0160280020FD
:100D380055E3000840420F0045E3000894230020D3
:100D480037310020902800204C1A0020F00F002096
:100D58006C010208E464002088000208642900206D
:100D6800652900200F25002074190020DD6300206C
:100D7800182A00201C2A0020702700207127002034
:100D88005CF901086C1900207CF801080133272B55
:100D9800BDD1002307223B70FA706B1C01227D70C5
:100DA800BA70DDB209F101095FFA89F9B9F1130FD7
:100DB80007F1050795D1844B844CDA6A22F4F8725E
:100DC800DA62DA6A42F4D872DA623C2018F032F950
:100DD800202018F02FF97D4810F075FB1CA810F0A2
:100DE80047FB7B4B1C937B4B1D93022D4FF000035D
:100DF80034BF1A46802221924FF4807222924FF417
:100E0800806223922022204624921CA94FF400528B
:100E18001E93209325922693ADF87C5010F035FB55
:100E2800236843F0010323604FF0A0440A20A3681D
:100E380023F04053A360A36843F08053A36012F0EB
:100E480045FFA36823F08043A360A368A360A36859
:100E580043F00043A360A368002B4FF0A04233DAAD
:100E6800F9E77B1E092B3FF647AB2B200DF066FCFC
:100E78000223C371074680F806A00472494630620F
:100E88000DF0ECFC384649460DF086FC3C2012F08B
:100E98001DFF95F84E329C42BFF62EAB002018F08D
:100EA8002FFA002138460DF077FC782012F0ECFE7E
:100EB800012018F025FA012138460DF06DFC782044
:100EC80012F0E2FE0134E4E79368434923F040530B
:100ED8009360936843F00053936088683F4B0340E6
:100EE80043F468338B60D1683D4B3E480B4043F474
:100EF8000053D360136B013D23F00F031D431563AB
:100F080000F1140C01234FF0380A4FF0070B4FF093
:100F1800060E1F24C178002976D05D1C042B417869
:100F28000779EDB20ED803EB4303D2F830805B00AB
:100F380004FA03F928EA090801FA03F343EA080363
:100F480013632FE0092B0ED8053BD2F834800EFB33
:100F580003F304FA03F928EA090801FA03F343EA58
:100F6800080353631EE00E2B0ED80A3BD2F83880D4
:100F78000EFB03F304FA03F928EA090801FA03F35C
:100F880043EA080393630DE00F3BD2F83C800EFB65
:100F980003F304FA03F928EA090801FA03F343EA18
:100FA8000803D36309291FD90A399369936901EBA7
:100FB80041010BFA01F823EA08039361936907FAE0
:100FC80001F1194391611EE000100240080002403F
:100FD800400000508427002000030050E010FCFF70
:100FE80007C0FFFD7027002001395369536901EBE1
:100FF80041010AFA01F823EA0803536153690331EE
:101008008F401F4357612B460530844582D14FF0EE
:10101800A0439A6842F001029A601A461168CC0708
:101028004FF0A043FAD5DA68A94C22F00202DA6040
:10103800DA6842F00202DA60DA6842F00102DA6045
:101048009A6842F004029A60D4F8C831002B41F043
:101058000A81D4F8CC21002A41F00581D4F8D021A6
:10106800002A41F00081039B1B6898031BD5C82008
:1010780012F02CFEAE201AF0A6F808B11AF0A7F864
:10108800944D86F80C01C82012F020FE00232B6036
:101098006B60AB600223EB700AF07DFB12F0D8FDA9
:1010A8008D4B0344AB60039B1B68590362D58B4B84
:1010B8008B4A1B7894F80A848A4F03F00403212092
:1010C80013700DF03BFB1222002582710E22C271B3
:1010D80005720D2138600DF0C1FB042182480DF026
:1010E80008FD082180480DF004FD38680DF04AFB22
:1010F8000221284602F022FD38680DF048FB7A48A4
:1011080002210DF0F6FC794B83F8008002F0E8FA32
:101118002846774DA02200F11E0103232944FF2A07
:101128001CBFCA54571C03F1010318BFFAB21B2B8A
:10113800F5D11E307828EED16E4A6F491CA81AF0F6
:101148007FFC1CAA0621052002F0E0F807210846CA
:101158006A4A02F0DBF86A4A08210D2002F0D6F844
:10116800684A09210D2002F0D1F802F0F7FC664B1D
:1011780030221A80B4F8D83194F8D5B194F8EE81B9
:10118800B4F9F0A194F8DA91604C61480593002510
:10119800294625606560A56018221EF0B9FA29461F
:1011A8001822A6F80D515B481EF0B2FA5A4BC6F841
:1011B8002831232012F08AFD14200DF0BFFA1422E2
:1011C80082710E22C27105720D21C6F82C010DF034
:1011D80045FB4FF4807144480DF08BFC80216B2057
:1011E80001F0B6FA0625962012F070FD1CAA01211E
:1011F800752001F08DFB9DF87030682B04D0013DFF
:1012080015F0FF05EFD119E01CAA01210C2001F00F
:101218007FFB9DF87030142B10D3182B02D9543B48
:10122800062B0BD8032386F80D31432386F810319B
:101238003A4BC6F814313A4BC6F81831394F0023E7
:101248003B7096F80D31032B40F0C881304D364B7A
:101258002B60364B6B60364BEB60364B364A2B6156
:1012680002233B7006231370344B186840F00101C9
:10127800196096464FF0010C5B460B2B28BF0023E4
:101288000CFA03F140F202720A408AB911F0FD0F1C
:101298000ED02B4B23602B4B63602B4B02221A7012
:1012A80007238EF80130254B40F00300186006E054
:1012B800012B4FF0000BDFD8234B83F800B0B8F1B7
:1012C800040F00F29580DFE808F0419E414141009B
:1012D800704500206C350020404B4C0080430020B6
:1012E800E13500201036002000300140143600207F
:1012F800F837002023250208292502083825020886
:101308004725020851250208E235002084240020E0
:101318002027002000110020AAF901081929000837
:1013280059270008FC1500207D2A0008E52500083B
:10133800CD25000890C1793D790F00207C2400203C
:101348008D2B00082D260008C461002096F8303146
:10135800DFF87C82002B40F08287142012F0B6FC64
:1013680098F83121DAB91D2006920DF0E7F913211A
:10137800069A8171DFF85CB202720E21C1710121F7
:10138800CBF800000DF06AFADBF800000DF0FFF969
:10139800042176480DF0ADFB012388F83131DFF8E0
:1013A8003082012108F59972D02002F0F7FD96F8F5
:1013B8003231582B27D108F59A721821882002F06B
:1013C800EDFD17F0A5FF012388F83031684B0022A6
:1013D8001A80684A9A60684A5A6045F6D8125A8054
:1013E800664ADA60664A1A61664A5A6100F037BF8F
:1013F800B8F1010F07D0644B644A83F80280136880
:1014080043F004031360614B1A6812F0020F984608
:1014180005D04FF4807323815D4823689847059B66
:1014280013F0FF0007D0072816BF4FF47A737D2307
:101438004FF0010900E07D2309F1FF3286F85021C1
:10144800544E03FB09F3736133689847524B1A787B
:101458009B462AB9514B1A889946002A33D129E06C
:101468007369002BF6D04E4B4E4A9FED4F8A4FF0D2
:101478000009197801290FD105939BF800304B48D2
:101488007169069200EE103A4844B8EE400A1AF024
:101498002DFC059B069A07E0D6ED057AF8EE677AEB
:1014A80067EE887AC2ED007A09F11C09B9F1540F88
:1014B800DFD1CFE73E4B1B882BB93E4B93F8C521B4
:1014C8005AB33A7029E07369002BF6D03A4BDFF82B
:1014D80008B10026B9F80020D3ED000A6969059320
:1014E80000EE102A0BEB06000122B8EE400A1AF0B3
:1014F80096FB2F4A314913883148D1ED000A6969B2
:1015080000EE103A30440122B8EE400A1C361AF0B8
:1015180086FB542E059BDDD1CFE793F8C6310BB17E
:10152800284A1370D8F80030274913F0080F19D04B
:1015380064229AFBF2F302FB13AA0FFA8AFA07EE67
:1015480090AAB8EEE77A07EE903ADFED206AF8EE57
:10155800E77AE7EE267AB2EE047A67EE877AC1ED8B
:10156800007A3EE000230B603BE000BF0030014002
:1015780048620020BD2500082D40000815290008F4
:10158800E53F000805240008790F00207C2400208E
:1015980084240020202700209C2200209E22002056
:1015A800A2220020A8160020BD3786355416002038
:1015B800A022002070450020A4220020A82200209C
:1015C80010190020C4610020B46100208988883C7B
:1015D800F00F00206C450020BC180020012012F0FC
:1015E800BBFB049B049A1B78B94E43F0020300200E
:1015F800137017F085FE0A2517F074FE192012F0F3
:1016080065FBD6F8E435B24F13F4803F02D10120D0
:1016180012F094FB192012F059FB002012F08EFBF7
:10162800013DE9D1284617F06BFEAA4B9FEDAA8A27
:101638001B681B7B00EE103AB8EEC00A20EE080AC1
:101648001AF09EFAA54B9FEDA67A83ED000AA54BEA
:10165800D3ED047AA44B67EE887AC3ED007A238928
:10166800A24C07EE903AF8EEE77AA14BC7EE276A4C
:101678009FEDA07AC6EE877AC3ED007A12F09AF948
:101688001E22FF2120461EF043F89B4B25700122A5
:101698001A70039A116811F4800F01BF02221A70A0
:1016A8001B226270954A20461468A20708D51A784A
:1016B80001268654961C0132D2B21E700226865428
:1016C800660704D51A78561C1E700326865414F033
:1016D8000A0F0CD01A7804248454541CE4B205264A
:1016E8000655D41C0232D2B21C70062484540C064F
:1016F80008D51A7809248454941C0132D2B21C707B
:101708000A248454CA0504D51A78541C1C701A2457
:1017180084547C79082C01D00E2C04D11A78561CDC
:101728001E700B2686541A78561CF6B24FF00C0E13
:1017380011F4803F1E7000F802E009D0DFF8B8E12C
:1017480002328EF80020694A4FF00E0E02F806E0C9
:101758000A0304D51A78561C1E70192686541A785E
:10176800561CF6B24FF01D0E11F4805F1E7000F883
:1017780002E009D0DFF880E102328EF800205B4AEF
:101788004FF01C0E02F806E08A0604D51A78561C9B
:101798001E70072686544E0704D51A78561C1E70EC
:1017A800102686544A0304D51A78561C1E70122631
:1017B80086544E0507D597F8D82222B11A78511CBD
:1017C800197013218154182C0BD11A7816218154C1
:1017D800511CC9B217264654D11C0232D2B2197014
:1017E8008454982200214648464E1DF091FF17F078
:1017F800B9FE454B454A1A60454BB7F8DC101980CD
:101808004449DFF820C1444800230B808B704349CA
:101818000A60434A1370B7F854220FFA82FE3168FF
:101828002CF813E001F5967140F823100133122BC0
:101838003C4CF4D13C4E3068C104254958BFB7F937
:1018480060E2A4F806E001F1500E91F83335FBB9D7
:1018580091F835C591F836359C4519D2BCF1000F81
:1018680008D00CF1FF3C0CEB8C0C0CEB8C0C0CF541
:10187800617306E0013303EB830303EB830303F592
:10188800617391F834C50CF1040C9BB224F81C3038
:1018980004317145D9D1030740F1568197F84C427C
:1018A800082C00F24B81DFE814F009000C0043001B
:1018B80074009500B600B600FA00210145F2F05216
:1018C80001E042F6F822194B1A8016F0B9FC34E10F
:1018D80070450020D822002035FA8E3CB8610020DF
:1018E8000AE81C4120270020A4610020F0240020E1
:1018F8007863002000401C460E2500207C24002030
:10190800A0600020583C00208C1E0020B447002016
:101918008A1E0020F0640020101E0020E0640020D1
:10192800581E002048610020E4640020E0150020D3
:10193800A94B42F6F8211980A8490A23120192FB03
:10194800F3F20023A2F5B06241F823200133122BF1
:10195800FAD1A34AA3491160A34A4020137013F097
:10196800F9F90446002800F0E98009F0E3FD97F84A
:101978004D3294F90070002B0CBF06220722002874
:101988000CBF01230323019200930446974B984A06
:10199800A4E0914B42F6F8221A80914B954A1A60BE
:1019A800914B102240201A7013F0D4F904460028F5
:1019B80000F0C48009F0BEFD002200280CBF0123FE
:1019C800032394F900700192009304464FF4E13325
:1019D800894A83E0804B42F6F8221A80804B874A76
:1019E8001A60814B082240201A7013F0B3F904469C
:1019F800002800F0A38009F09DFD002200280CBFFC
:101A08000123032394F900700192009304464FF4D4
:101A1800E1337B4A62E0704B7A487B49DFF84082C9
:101A2800DFF840C2DFF840E242F6F8221A806E4B37
:101A3800764A0C271F70062C4FF0000303700B70BA
:101A480013700AD01B2388F8003005238CF8007027
:101A58008EF800304FF4E13707E021238CF800704E
:101A68006B4F88F800308EF800405D4B694A1A6069
:101A7800402013F06FF9044600285FD009F05AFDA2
:101A880094F900E000280CBF012303230022044638
:101A980001920093604A3B464021704620E04E4B3D
:101AA80044F620621A804E4B5C4A1A604E4B0A225A
:101AB80040201A7013F04EF9044600283ED009F071
:101AC80039FD002294F90070019200280CBF01230F
:101AD8000323534A009304464FF4E1334021384628
:101AE80012F0F8FF34B34F4B186023E03A4B41F241
:101AF8007C521A803A4B4C4A1A603B4B10221A709F
:101B08004A4B00241C704A4B282240201A7013F0BC
:101B180021F998B1032390F90000464A01940093F3
:101B28004021454B454C12F0D5FF012120600CF0B7
:101B38001BFD2068003018BF012028B908200BF0D1
:101B4800ADFC274B3E4A1A603368274A13F4804F8E
:101B580004D01221117022493A48086042F201016A
:101B6800194003F0010003F4005479B11A4944F60E
:101B780020670F8024B1082111701949324C0C607C
:101B880020B10C21117016493048086011781C06E4
:101B9800A1F10401517040F1A68000272C4C2D487A
:101BA800DFF8C8806770152239466760A7601DF0A6
:101BB800AFFD294BC8F80030384608F06FFE274BB8
:101BC80002201B68E36013F0C5F8002850D180207C
:101BD8000BF064FC80E000BFE015002048260020E0
:101BE800740F0020ED0E010808430020A0860100B4
:101BF80039110108AD0E01083D100108950E0108C4
:101C0800F50F0108D62500209526002094260020EF
:101C180090D00300D50D0108210F0108F1BD01087E
:101C2800E9BE010810430020D9BD010878640020EE
:101C38007964002001BE010848E80100582200200C
:101C4800ADBD0108C9BD0108BDBD0108B1BD010890
:101C5800946300204111002015480020583C0020C2
:101C680096260020D525002097260020B463002062
:101C780063784279DFF810E139464FF00C0C0CFB21
:101C880003E77F78974207D00133DBB2042B4FF08C
:101C98000101F4D9002300E001B16370D8F80030E5
:101CA80062781B7890F90000002B374B4FF00C043A
:101CB80004FB02330CBF0121032100225B788DE86D
:101CC8000600022112F006FF304B186000283FF48E
:101CD8007EAF012008F0E2FD2D4B2E4A18682E4BEE
:101CE8001A6019F0C1F92D4C2D4BC4F868313368CE
:101CF8000027D80384F86C7140F1D38008F05EFAAD
:101D08004FF0010840F22A32394604F26D1084F887
:101D18006C811DF0FDFC3B4660222249404602F0E2
:101D2800BDF918200CF00AFD162383711E4ADFF84E
:101D380080C0C4F898040223C371077204F26D19B5
:101D480052F83730194963454FEAC70E01F1800A46
:101D580004D10EEB010393F8852003E001370A2F25
:101D6800EED100222E210CF03DFD114800235AF837
:101D78003310DFF83C8081424FEAC3021AD10B4B83
:101D8800134493F8840019E03C21020868350020C8
:101D9800EC2400209A470020B0220020F00F0020F9
:101DA8005C480020E3260008FCF801087CF80108DC
:101DB800002C014001330A2BD9D1002017F03AF941
:101DC800B8F80030D048DFF88CA323F45C731B0408
:101DD8001B0CA8F800301D23C8F82C3000274FF042
:101DE800010B0223A8F8283010A9A8F83070602346
:101DF800C8F814B01093ADF846701297ADF84C704F
:101E0800ADF84E70ADF85070ADF85270ADF844B002
:101E18000FF0DCFAD8F8183043F00803C8F8183087
:101E2800D8F8443043F40043C8F8443050460FF023
:101E38004AFB1CA80FF01CFBB44B1C9310231E93E9
:101E480040F22A33ADF87C30802321934FF480731D
:101E580022931CA94FF4005350462593CDF8749053
:101E680020972397249726970FF00FFBD8F80C306C
:101E7800A74943F40073C8F80C30DAF8003043F08F
:101E88000203CAF80030FF2284F89CB46F524B1941
:101E98000435802D9A70DA70F8D101F05DFF01F0F9
:101EA8005BFF3368590564D59A4F9B4B3A681A60B3
:101EB800042012F04FFF0421C4F8200512F020FF7F
:101EC800964B3A6884F8240508201A6012F042FFFD
:101ED800934B944D1860082112F012FF2C2284F8BD
:101EE8002505002128461DF013FC8E236B704FF04A
:101EF8007C09E0234FF07D08EB7085F8009085F8A9
:101F08002B80894D00212C2228461DF001FC8A23B4
:101F18006B70A023EB70854B3A681A60202085F817
:101F2800009085F82B8012F015FF2021C4F82805B1
:101F380012F0E6FE84F82C05102012F00BFF102199
:101F4800C4F8300512F0DCFE794B84F834053B22E6
:101F58001A7001225A703A221A719F229A711E220F
:101F68001A72A4225A7200229A72DA721A7309F04B
:101F7800EEFA25200CF0E2FB0127C4F838054FF0F3
:101F8800100A002480F806A0C771047239460CF0C4
:101F980065FC3368DFF8C0819A0240F191804FF404
:101FA8003479644D6448DFF8ACB14A4621461DF0E7
:101FB800AFFB2346C0226149384602F06FF86B69CF
:101FC8004FF0904043F400336B61436A23F00F03F2
:101FD8004362436A43F00603436202234FF480726C
:101FE8008DF83C308DF83F300EA903230E920392F2
:101FF8008DF83D308DF83E400FF04EFCAB6943F450
:102008000063AB61A5F5644510A92B8823F45C73C4
:1020180003FA0AF323FA0AF32B809C23EB6228467F
:102028002C8560232C866F611093ADF8464012947E
:10203800ADF84C40ADF84E40ADF85040ADF85240C8
:10204800ADF844700FF0C2F9AB6943F00803AB6117
:102058006B6C43F400436B6458460FF034FA1CA8C9
:102068000FF006FA2949039A1C918021324B2191DD
:1020780058461CA922924FF400521D932592CDF880
:1020880078A0ADF87C9020942394249426940FF0A3
:10209800FCF9EA6842F40072EA60DBF8002042F0DA
:1020A8000202CBF8002001F0EBFD17F04BF9244AAF
:1020B80088F83C75137888F83D7543F00803137069
:1020C8003E200CF03BFB00241E4A04720E2501271B
:1020D800C7712021857110600CF0C0FB1A4B2C20B1
:1020E8001F700CF02BFB194F04728571C5710D21FF
:1020F80038600CF0B3FB802115480CF0FAFC4FF463
:102108007A7011F0E3FD29E0002C0140342C0140E5
:102118008E140020AC220020A8210020E4210020F9
:102128002C220020B4210020E82100204422002095
:10213800DA42002000100240724B0020B52300084C
:10214800DD630020603C0020643C00205C3C0020F3
:10215800003800401C000240F00F002038680CF0E6
:1021680016FB224621460A237748784C0CF010FDCE
:1021780017F06AF940B1013CFAD1754B1A7E83F821
:10218800244001321A7607E0724B1A68704B5A6184
:10219800012283F8242018766F4B704C0021997027
:1021A80041F2142102225A705A50B4F8D8316C4ABC
:1021B800013B9BB2052B9EBF012384F8EA3184F8CA
:1021C800DA31526994F8EA315343664A1360336846
:1021D800654A13F4002318BF012313706379052B94
:1021E80002BF624B4FF4C8721A800FF09AFB604B23
:1021F800C8221A805F4A137843F0080313705E4AB6
:10220800137823F002031370326840F60203134078
:102218006BB15A4B5A4919605A4B032119705A4BE2
:1022280001211970594900230B8059490B809303E8
:1022380006D5584B06221A71DA7842F00102DA7094
:10224800A3683360544B01221A70544A137863F020
:102258007F03137031B0BDEC068BBDE8F08F4FF0F3
:102268000408FFF7C8B81BB208EE103AB4F9CC312D
:10227800DFED4B7A4B4A09EE103AB4F9D031B8EE9B
:10228800C88A08EE903A28EE278AB8EEC99AF8EE7E
:10229800E88A0021B0EE480A29EE279A68EEA78A54
:1022A800117019F06DFCF0EE409AB0EE480A19F082
:1022B80006FCB0EE408AB0EE490A19F061FCB0EEB7
:1022C80040AAB0EE490A19F0FAFBF0EE40AAB0EEC7
:1022D800680A19F055FCB0EE409AB0EE680A19F099
:1022E800EEFB69EE806A68EE097AF0EE665AEAEE6D
:1022F800A75A2D4B29EE896A28EE007AC3ED035AB6
:10230800B0EE465AF1EE6A5AA5EE875AEAEEA67A78
:10231800A5EE867A2AEE099A2AEE400A28EE4A8A1B
:1023280069EE8A9A83ED009A83ED010AC3ED02AA49
:1023380083ED045A83ED058A83ED067AC3ED077AA7
:10234800C3ED089AFEF78FBE00380040A186010051
:1023580014430020583C0020444E002070450020C3
:10236800202700203831002042350020A01E002000
:10237800506300200F25002080430020682700209C
:102388008647002094430020780F00200A3600205A
:102398007C6100206C350020541B0020DD63002088
:1023A80035FA8E3C5C0A0020442700200168027B35
:1023B80030B502230C6803FA02F222420BD0064A17
:1023C80000241470446825684FF6FE722A40226083
:1023D800027B93404B6030BD30150020FF207047D2
:1023E800012380F845307047014B1868704700BFDB
:1023F800903C002001207047704770472DE9F74F47
:102408006A4CDFF8ACE10091DEF804302188B4F9B9
:102418000280C1EB231252434900C1EBE3011313BD
:10242800B4F90420534308FB01F89B1303EBE8239A
:1024380003EB83028032B3F5FA384FEA22224FEADF
:10244800E37949F1FF390192B4F90820A361A8FBA7
:1024580008AB08FB09F30BEB430B02FB09F1D3179D
:1024680008FB0311A2FB08230B441F03160347EACA
:102478001257B4F90A2002FB0BF1D3170AFB031316
:102488000546A2FB0A011944020A42EA01629219AE
:102498004FEA2123E6887B41003243F50043A2FB43
:1024A800060106FB03114A10CB1752EA030170D04C
:1024B800B4F9100000FB0BF6C1170AFB0166A0FB7C
:1024C8000A013144B4F90E6006FB09FCF71708FB52
:1024D80007C7A6FB0889B9444FEA484A4FEA494B5F
:1024E8001AEB000A4BEAD83B4BEB010BDEF808105D
:1024F800B4F90C80C1F5801E7646F71700264FEA1E
:10250800CE70F90716EB0A064FEAC80741EA5E01E2
:1025180047EB0B0740F6354E861B61EB0707A6FB1A
:102528000E010EFB07111AF08DFAB4F916204E139E
:10253800470B47EAC14702FB06FED31707FB03EE2A
:10254800A2FB07237344564307FB0366A2FB07233A
:102558003344560E46EAC3163218B4F914604FEAEB
:10256800636747EB01037143F71700FB0717A6FBE7
:1025780000013944C60C46EA4136B6184FEAE1472D
:10258800B4F912005F41330A43EA076302011344B6
:1025980000E000230DB11B0A2B60009B13B11A4603
:1025A800019B136003B0BDE8F08F00BF2411002029
:1025B800301500207047024B01221A73704700BF84
:1025C80030150020044B1A7B02F0FF0012B10022E4
:1025D8001A730120704700BF3015002037B5104B23
:1025E80004465D6818786A460621A847A8B19DF890
:1025F80000209DF8013043EA022323809DF8022041
:102608009DF8033043EA022363809DF804209DF877
:10261800053043EA0223A380012003B030BD00BF88
:102628000011002013B5104B04465B686A4606216A
:102638003B209847A8B19DF800209DF8013043EA57
:10264800022323809DF802209DF8033043EA0223E9
:1026580063809DF804209DF8053043EA0223A38097
:10266800012002B010BD00BF00110020026D036BF5
:1026780070B50446D5699BB9A90611D5C36A1BB1C3
:10268800908C80B298470BE0E169928C40694E1CAF
:10269800D2B2E6614254E169E268914228BFE3613F
:1026A800616BA1B92A0612D5636AA26A9A42236DA0
:1026B80009D0501CA669A062B25C1A8523699842A9
:1026C80005D3A16203E01A6822F080021A602B0782
:1026D80042BF236D08221A6270BD0168027B30B5C3
:1026E80002230C6803FA02F222420BD0064A0024A5
:1026F8001470446825684FF6FE722A402260027BF7
:1027080093404B6030BD00BF7921002030B40E4BA0
:102718000E4A587B02F18005800452F8043F13F4F6
:10272800706F0CD103F00F0103F0F0040143214353
:1027380003F07C64214303F47C330B431360AA4207
:10274800EBD130BC09F0FEBB301500205848002002
:10275800F8B50A4C0A4D074620680E460CF012F8E8
:10276800394628460CF041FA314628460CF03DFA25
:1027780020680CF00CF80120F8BD00BF1C110020E7
:10278800003001402DE9F04190F84440002380F8E2
:1027980044301CB316490A681AB30A68052A23D1BB
:1027A800144BDFF854801F6800F130051E46D8F836
:1027B800003023B92146284613F031FE00E00020FE
:1027C8003368DB1B241A322BE4B2054401D8002CF1
:1027D800EDD1B4FA84F04009BDE8F0810120BDE8EC
:1027E800F0811046BDE8F0811846BDE8F08100BFD1
:1027F800703C0020583C0020D43C0020002280F887
:102808004520BFE790F84420531C0244DBB280F80F
:10281800443082F8301090F845200AB1132B00D9C3
:10282800B0E77047114B2DE9F04114461A680E467F
:10283800CAB11B68052B16D10D4BDFF838801F680D
:102848001D46002C0FDDD8F8003023B9E1B2304620
:1028580013F0E5FD00E000202B68DB1B322BA4EB16
:1028680000040644EDD9BDE8F08100BF703C0020AB
:10287800583C0020D43C00202DE9F3411F4D204E48
:102888002F46204B1A680AB91C6800E00124A97B6E
:102898001D48002200EB010ED0B2844202F1010271
:1028A80007D90DF1080C84441EF800000CF8040C3C
:1028B800F2E71A68121B1A60D3F800802144B97332
:1028C800B8F1000F12D14021032015F0A5F93368A3
:1028D80023F4804323F070039BB283F4405343F402
:1028E800004343F08003336085F80E80002CC8D085
:1028F8009DF8040002B0BDE8F08100BF301500204B
:102908000C5C0040903C0020943C002016F000BD78
:102918002DE9F0410C4C0D4D8046206816460F46B7
:102928000BF030FF48F0800128460CF05EF93B467A
:102938000022314628460CF02BF920680BF027FFBF
:102948000120BDE8F08100BF1C11002000300140CB
:102958002DE9FF473F4B1B68002B78D018783E4D78
:102968000BF0ECFE00261423082783710446C77178
:10297800067231460BF072FF384B2B6120460BF084
:102988001EFF002855DB364BDFF8E49005F11002F6
:1029980043F8202019F8008020460BF01AFF8246E1
:1029A80020460BF00CFFC1B201F0030001F0FC015E
:1029B80001F1804303F58033800099680F2282403B
:1029C80021EA02029A6099685FFA8AF202FA00F034
:1029D8000843986020460BF0F2FE4FF0010A20F001
:1029E8001F01204A00F01F030AFA03F38B500290DC
:1029F8000DEB07008DF80C608DF80D708DF80EA0AA
:102A080016F001FC184B13F80820F02A11DDF0220B
:102A180003F8082009EB080301A81B7C8DF8043093
:102A280003238DF805308DF806608DF807A016F0A1
:102A38008DFB20460BF0C3FE002806DB0B49012264
:102A48000B6802FA00F01843086001232B7504B0E4
:102A5800BDE8F0871811002030150020BF250008B8
:102A680050230020140401400410002000040140F9
:102A780008FA0108404B37B51A7D05461C460AB9C5
:102A8800FFF766FF647D002C55D14FF480713B48F9
:102A98000CF02FF880216B20FFF75AFE962011F0DA
:102AA80015F903216820FFF753FE962011F00EF95F
:102AB80003216B20FFF74CFE0F2011F0E5F81021E1
:102AC8006A20FFF745FE0F2011F0DEF821466C2042
:102AD800FFF73EFE0F2011F0D7F8294B192019787F
:102AE800FFF736FE0F2011F0CFF818211B20FFF753
:102AF8002FFE0F2011F0C8F818211C20FFF728FE20
:102B08000F2011F0C1F810213720FFF721FE0F2008
:102B180011F0BAF801213820FFF71AFE0F2011F042
:102B2800B3F8022115480BF0E4FF012011F0ACF8CE
:102B3800114B01225A754FF4807110480BF0D9FFE0
:102B480029461A20FFF704FE012011F09DF8022102
:102B58000A480BF0CEFF6846FFF740FD9DF90230AA
:102B6800013306D19DF90030013302D1062011F05E
:102B7800F3F803B030BD00BF30150020003001402D
:102B880040110020054B1B7D10B504460BB9FFF71B
:102B9800DFFE4FF40063238110BD00BF3015002015
:102BA80010B4047B016843690222A2404A6041686C
:102BB80008684FF6FE7202400A60596A9A6A9142A2
:102BC80004D018465DF8044B11F0FCB8012283F8D4
:102BD80044205DF8044B70470A4A13880133138078
:102BE800094A136801331360084A138801339BB2FA
:102BF800202B01BF00231380054A138808BF013327
:102C080013807047081D0020681B0020581B0020F7
:102C1800FC1C00202DE9F74FC2EB030817460E9B5A
:102C28000D9A4C4C9B1A00936368002914BF062622
:102C38000426013381468B4624D12568AE4240F2F2
:102C48008580454B03EB85039A690192104619F07C
:102C58004FFA0B3018F04BFB019A824608B101205D
:102C680075E0032D94BF494659463C4818F09AFB35
:102C78003B4A1368181A6368106001336360394B64
:102C880083F816A0DFF8D890DFF8D8A063680C9A0C
:102C9800304D934242DA0D9A4AB1009A0D995A433F
:102CA800895C01228A40304909680A4232D003FB14
:102CB80008F5236807EB050B23B9785919F018FABA
:102CC800431D00E003231846019318F010FB002869
:102CD800C5D1D9F80000019BC01A9AF81630C9F876
:102CE80000001BB12C2018F06FFB02E001238AF8CA
:102CF8001630236843B9785918F028FB9BF904105B
:102D08004B1C07D0194803E09B4419489BF8041052
:102D180018F048FB636801336360B7E710D10120FE
:102D280018F0E5FA60B90E4A13680A20013B1360EF
:102D380018F04AFB2B6801332B604FF0FF336B60B0
:102D48002068864294BF0020012000E0002003B0E4
:102D5800BDE8F08F001D002008FA01085A25020876
:102D6800D4630020301500206C1B00206925020860
:102D7800D03102082E4B2F4A1B68126830B51A60F2
:102D88002D4A2E4C1168596051689268DA602C4AB5
:102D9800996011681961516892689A61294A596164
:102DA8001168D961516892685A62274A1962118874
:102DB8001985518859859188D288DA85234A998559
:102DC80011681986516892689A86214A598611684D
:102DD800D986516892685A871E4A19871188998737
:102DE8005188D9879188A3F840101946D28821F8CC
:102DF800422F194A10780022824205DA34F912501B
:102E080021F8025F0132F7E7144A1288A3F86C2010
:102E1800134A1288A3F86E20124A12681A67124AD7
:102E28001288A3F87420114A5289A3F8662030BD8D
:102E38005C1B002048630020D0330020B824002009
:102E4800DC330020E8330020283100209C240020B7
:102E58009024002090270020373100208C27002064
:102E680088610020F0350020E0240020A8240020FC
:102E780070B5472018F0A8FA174B1B681B0307D535
:102E8800164B174A5B6810681B68C01A18F064FB79
:102E9800144E154C154D307818F05EFB23682868E1
:102EA800C01A18F068FB63686868C01A18F063FBFA
:102EB8000F4B188818F050FB0E4B188818F04CFB75
:102EC8000D4B188818F048FB337823742B68A360DF
:102ED8006B68E36070BD00BF6C1B00205C1B0020AA
:102EE8004863002010250020E81C0020142500203D
:102EF8001C2500201E25002020250020124A38B558
:102F080013780B2B144617D801229A4040F6030574
:102F18001540BDB912F4C06F0ED0093B012B0BD878
:102F2800452018F051FAFF2018F04EFA074818F01B
:102F38000DFA284618F048FA054B1A68054B5A60EE
:102F48000B23237038BD00BF423500206E250208D0
:102F5800583C0020001D00202DE9F04F8A4E35789E
:102F6800012D85B040F00C81884C94F8DD2522B104
:102F780094F8DE350BB19A4203D3012384F8DD358A
:102F88000FE01846114630B191FBF0F700FB171718
:102F980001463846F7E792FBF1F284F8DD2593FB0A
:102FA800F1F384F8DE3594F8DF352BB1022B1EBF20
:102FB800764B002283F8DF2594F8DF7517B1022FCE
:102FC80032D03DE0802011F0C5FE8046002837D081
:102FD800802111F095FE6E4B98F8062018706D4B05
:102FE80098F9000053F82230B3F5613F0CBF022274
:102FF800002201920222009280213A4611F06AFDD5
:10300800654B1860654B1B684FF4FA7203EB43037A
:10301800B3FBF2F31BB1402BA8BF402300E0012310
:103028005F4A137078B90BE05E4B5A78012A07D9CA
:1030380041F2B5129B5C1BB9594B40221A7002E051
:10304800002333709CE01422002157481CF060FBD9
:10305800564A574B136003F17801F0339360554B90
:1030680051601A88544B94F8DD751A80534B94F8C4
:10307800DE2594F8229200201860514B9742514A5D
:103088001968514B12681B680392504AC3F3800EAB
:1030980092F80080637994F850222CBF002701270A
:1030A8008242A3F1190201F4006CC1F3400AC1F392
:1030B800C03118BF012156425641012B08BF0126D5
:1030C80004466A1ED2B2531E132B2CD8DFE803F035
:1030D8000C0C0C0C0C0C0C0C0A3052541830261129
:1030E80011112830334648E09045B4BF002301232E
:1030F80018E0039B13445B79003318BF012311E0E8
:10310800BCF1000F06D009F1FF3BDBF1000343EBF4
:103118000B0300E0634603F001032EE00B462CE0AE
:103128003B462AE023B1012303FA02F2144318466E
:10313800142D02D80135EDB2C3E708B11F4B1C604E
:10314800192016F045F9224B224A18700023136003
:10315800214A1380214A1380214A1168214A1160AB
:10316800214A1168214A1160214A1370064B022234
:103178001A7005E0734600E05346002BD3D1D9E717
:1031880005B0BDE8F08F00BF423500207045002033
:103198000C1D0020F8200208D863002038310020D8
:1031A800FE1C0020444E0020E81C00205C1B002070
:1031B800741B00208C270020701B00206C1B002033
:1031C800E4640020EC2400207C2400203731002017
:1031D8000A1D0020681B0020581B0020FC1C002032
:1031E80098610020E01C00207C430020E41C0020A3
:1031F800DC1C00207FB5274C274E284D2849294A3A
:10320800294B20B129480088B0F5805F33D2306857
:10321800204E91F820101278019028788DF8080037
:1032280006F117058DF809108DF80A201B788DF81E
:103238000B300822294601A81CF040FA40B301AB24
:1032480003CBC6F817006960532018F0BDF8D4F80E
:10325800170018F081F9E07E18F07EF9237F0193BA
:10326800637F029301A8A37F039318F0E5F80F4B3F
:1032780000221A800CE03068C4F8170091F820107A
:10328800287812781B78E07621776277A377DBE7D6
:1032980004B070BD301500207C4300200F250020AD
:1032A800F0640020C41D0020721E0020081D0020AC
:1032B8000E4B2DE9F04193E8C0009D688846002434
:1032C80006440744054444450EDA37F9142036F914
:1032D800140035F914301344022293FBF2F3C01A98
:1032E80018F049F90134EEE7BDE8F0815C1B0020D5
:1032F800054B93F80B342BB94FF4A473584364234C
:1033080090FBF3F0704700BF70450020F0B5C1EBAB
:103318000111084E00EB41010024E3B2D55C45B130
:10332800C7181D2FD8BF9B1904F10104D8BF5D54DD
:10333800F3E7F0BDF83700202DE9F041B34E06EB76
:1033480040038AB0B3F8E243270540F1C081650520
:1033580004D5AF4B1B78002B40F0B98104F01F0552
:10336800C4F344140F2800F2B281DFE810F0100013
:103378001E00F10002018D017F0090009E00B50043
:10338800D400B0012C00400051004B005C00A14B60
:103398001A8864235A439212632A4FF00103D4BF58
:1033A80092B263228DF8083026E091238DF8083018
:1033B800994B19880A23B1FBF3F203FB12139BB252
:1033C80092B296490EE09A238DF80830944B1B6808
:1033D800002B4FF06401B8BF5B4293FBF1F201FB95
:1033E800123390490DF1090018F02AFB6AE107230E
:1033F8008DF808308C4B1A688C490DF1090018F0CB
:103408001FFB5FE11F238DF80830894B1A78F3E71B
:10341800884B86491A882423534302A84FF47A72AA
:1034280093FBF2F2EBE7844B1868FFF761FF642126
:103438000A2290FBF1F301FB130191FBF2F196F8DC
:103448000B240029B8BF4942002A0CBF0F220C22C6
:10345800002B8DE80600B8BF5B4278490028B4BF4E
:103468002D22202202A818F0EBFA2BE110F0F0FB35
:103478009B238DF808303C237149B0FBF1F1B1FB77
:10348800F3F203FB12136F4AB0FBF2F20BE09C233A
:103498008DF808306C4B19883C23B1FBF3F203FB21
:1034A80012139BB292B269499CE711F019FD684B5F
:1034B800684A002808BF1A46674B1B88580507D476
:1034C800D90707D413F0020F644B18BF1A46FAE065
:1034D800634AF8E0634AF6E096F8EE3502A81BB9AD
:1034E80061491CF058F9EDE0604B1F680023F218A1
:1034F80092F8EE25B918497801F0030102290CBFAA
:10350800A2F120011146C154002A00F0DB800133EA
:10351800102BECD1D6E004238DF8083005238DF864
:103528000930534BB3F90620B2F57A7F05DBB2F5C3
:10353800FA6FA8BF4FF4FA6201E04FF47A720A23D7
:10354800A2F57A72394992FBF3F20DEB030056E7C4
:10355800484B1B88B3F5F07F14BFC222E022464BCC
:103568002621D154991C2720013350547E21D1544F
:10357800ADE0404A414B1288B3F90040B3F902303C
:10358800B2F5F07F14BFC220E020C82B05DC6FF035
:10359800C7029342B8BF134600E0C823B4F5C87FFA
:1035A80004DC374A9442B8BF144601E04FF4C874AB
:1035B800A0F17C02DFF8CCC073380821A60093FB89
:1035C800F1F392B2594280B240274FF0090E96FBB0
:1035D800F7F30B442933512B0DD893FBFEF5C5EBBC
:1035E800051802EB480805EBC5051FFA88F85B1BB0
:1035F800803B08F80C30013292B29042A6EB0406E8
:10360800E5D10420FFF798FE61E000BF7045002077
:10361800D40D0020E0240020B82700208F250208C0
:10362800E4240020972502086C270020D0310208E6
:10363800102500201E250020F03500209F250208B7
:1036480040420F0000879303F6350020AB2502089F
:10365800792502087E250208784300208B25020878
:103668008225020886250208B5250208800F002059
:10367800486100208A0E0020F7370020D02400205F
:1036880070FEFFFFF8370020124B134E1B88B3F56E
:10369800F07F14BFC221E021002313205A183244BE
:1036A8001E33D22BA1F1070502F8610C01F10704C2
:1036B80002F8530CF2D1094B0322EA54023B0222CE
:1036C800E25404E002AA21462846FFF71FFE0AB08A
:1036D800BDE8F0818A0E0020F8370020F937002075
:1036E800044A00234FF0203199500433B3F5F07F9A
:1036F800FAD17047F837002038B5FFF7F1FF394B9A
:10370800394D1B6893B3394C394AB4F8E803C0F310
:10371800441100F01F00FFF7F9FDB4F8E803354A3B
:10372800C0F34411013100F01F00FFF7EFFDB4F8BA
:10373800E803314AC0F34411023100F01F00FFF7DB
:10374800E5FDB4F8E8032D4AC0F34411033100F055
:103758001F00FFF7DBFDB4F8E803294AC0F3441162
:10376800043100F01F00FFF7D1FD0BE02B689A072A
:1037780002D4244B1B782BB10320FFF7DDFD022078
:10378800FFF7DAFD0120FFF7D7FD0020FFF7D4FD92
:103798000620FFF7D1FD0520FFF7CEFD0720FFF734
:1037A800CBFD0920FFF7C8FD0A20FFF7C5FD0B2058
:1037B800FFF7C2FD0C20FFF7BFFD0820FFF7BCFD97
:1037C8000F20FFF7B9FD2B689B0602D40D4B1B7821
:1037D80033B10E20FFF7B0FD0D20BDE83840ABE552
:1037E80038BD00BF043600207C240020704500202E
:1037F800C0250208CF250208DE250208ED250208AB
:10380800FC250208E035002010B40B4A0B4CD37F8E
:10381800246802EB83010C62D1180133D377084B7B
:10382800084C18600388247881F8484043F4806382
:1038380003805DF8044B53E730150020F83500206D
:1038480004360020FC350020034B1B7813F0400F92
:1038580014BF10200D207047880E00200F49104A11
:10386800096838B5002313701C460D79581C0D2DB6
:10387800C0B203D0103101240346F6E704B1137037
:10388800FFF7E2FF1378411E9942DEBF044B02386E
:1038980018701378013B137038BD00BFF83500204D
:1038A800FD350020F8B5002861D0FFF719FF304B2F
:1038B800304998422CD1304C94F83225622302FBCF
:1038C8000343002501F1520E93F80D7405F80E70AC
:1038D8000EEB050793F817C487F801C0033593F872
:1038E80021C4244E87F802C0092D03F10103EBD14E
:1038F800622303FB024393F8142486F85B2093F8B1
:103908001E2493F8283486F85C2086F85D301BE086
:10391800C033984218D1184D95F83235622202FB0F
:1039280003F42B1993F848240C2303FB02432B447C
:10393800D3F84A24C1F85E20D3F84E24C1F8622097
:10394800D3F85224C1F86620CB7F0C4C01EB8302DC
:10395800256815620A4A2060CD1801331678CB779E
:10396800002385F848601370BDE8F84076E7F8BD95
:10397800000000203015002070450020F835002098
:10398800FC350020284B1B68DA0344BF274A012175
:1039980010B548BF82F86A101B0348BF234B244C5C
:1039A80044BF012283F86B20FFF74EFF214B1870AC
:1039B800214B01221A70214B00221A80FFF790FE3A
:1039C8001F4B20481860B4F8E23323F48063A4F84E
:1039D800E233B4F8E43323F48063A4F8E433B4F8AE
:1039E800FE3323F48063A4F8FE33B4F8EE3323F4F3
:1039F8008063A4F8EE33B4F8FA3323F48063A4F8B0
:103A0800FA33FFF74FFF04F53A7204F55A7452F887
:103A1800043F13F4706F04D1044AC3F38343537310
:103A280010BDA242F3D110BDE4640020301500207F
:103A38007045002008360020E0350020E2350020DF
:103A4800F835002090010020F8B5354C354B226838
:103A580035489A422BD1354991F83225622302FB29
:103A68000313002500F1520E15F80E7083F80D743B
:103A78000EEB0507033597F801C0BF7883F817C424
:103A8800092D83F82174284E03F10103ECD1622338
:103A980003FB021396F85B2083F8142496F85C2045
:103AA80083F81E2496F85D2083F8282419E0C03393
:103AB8009A4216D11D4B93F8321562224A4399183F
:103AC8000C2591F8481405FB0122054602F5886289
:103AD80055F85E1F0A33D618D15069687160A96815
:103AE800B160C07F104D98B1FFF7FAFD104A013858
:103AF800C3B20021116005EB8302EB772B44126AF5
:103B0800226093F848200B4B1A70BDE8F840A5E6F0
:103B1800094B1B7813B9BDE8F84033E7F8BD00BF7F
:103B2800F8350020000000203015002070450020E6
:103B380000360020FC350020E035002038B5064C62
:103B48000D46014620460BF050F829462046BDE8B0
:103B580038400BF04AB800BF003001402DE9F0476B
:103B6800214D2C78002C3CD1204E2148DFF888804C
:103B7800DFF888A0012708212F700AF0BAFF306803
:103B88000AF000FE21460520FFF7D8FF214606204F
:103B9800FFF7D4FF39460420FFF7D0FF3746154E0C
:103BA800B8F8003004F10109A4B2A34208D9315D84
:103BB8000720FFF7C3FF335D0AF804304C46EFE7F0
:103BC800FF210720FFF7BAFF00210420FFF7B6FF07
:103BD80038680AF0DCFD022105480AF08AFF002354
:103BE8002B70BDE8F08700BF0C360020103600208F
:103BF80000300140F83700208A0E002015360020DA
:103C080010B50446FFF76CFD0520184A0321FFF79D
:103C18007DFBFFF7A3FF10F063F810F040F8C82011
:103C280010F054F8ECB1124B93F86B201C462AB1F3
:103C3800104A936843F40023936003E04FF4002094
:103C480009F02CFC94F86A302BB10A4A936843F4C3
:103C58008033936003E04FF4803009F01FFC09F0D3
:103C6800C5FE054B054ADA6010BD00BF0B260208E9
:103C7800301500207045002000ED00E00400FA0532
:103C880010B5064BDA6E00211878541C10B1224684
:103C98000121F9E709B1014BDA6610BD30150020A2
:103CA800254B1B7870B5002B44D0244B1B78002B78
:103CB80040D0234C237803F0FF06002B3AD10FF0B5
:103CC800C7FF236FC31A002B054633DB636F1D49FB
:103CD8005A1C0B440E2A93F8301062674FF47A731B
:103CE80003FB01F303F58C5303F114030344236727
:103CF800154B88BF666718680AF058FD20B105F5AE
:103D0800C3350F4BA0351D67FFF7BAFF0F4A0023D5
:103D18001380012222700E4A4FF4347151600D490C
:103D28004B620B889BB243F001030B80136843F08E
:103D38000103136070BD00BF2C1500202D15002055
:103D48003015002008FA010828150020704B0020C3
:103D58001C000240002C01402DE9F04F884A85B034
:103D68001378029203F0FF04002B40F00581854D83
:103D7800019595F87C3095F87D6095F87E90A5F8CA
:103D88007840A5F87A4022462746A646A446A34688
:103D98003C200FFA84F8B8F1200F00F0BC807A4973
:103DA80001EB880C9CF803109CF802C0CCF1FF0CC6
:103DB8001FFA8CFCBCF1000F7FD0734DCCF1FF0CC7
:103DC80001FB0CFC35F828804FEA2C2C3C25B8FB6D
:103DD800F5FABAF1050F73D8DFE80AF0030F2334B8
:103DE80046575FFA8CF2CCEB010608FB06F6B6FBE9
:103DF800F0F61644F6B20B4611E0B8FBF0F300FB00
:103E080013839BB25FFA8CF2C3F13C03CCEB010C39
:103E18000CFB03F3B3FBF0F31344DBB20E4611467D
:103E280047E0B8FBF0F200FB12885FFA8CF31FFA48
:103E380088F8CCEB010C08FB0CFC0E46BCFBF0FC34
:103E48009C4434E0B8FBF0F600FB1686B6B25FFA85
:103E58008CF3C6F13C06CCEB010C0CFB06F6B6FB6A
:103E6800F0F61E44F6B224E0B8FBF0F300FB13882A
:103E78005FFA8CF61FFA88F8CCEB010C08FB0CF300
:103E8800B3FBF0F33344DBB213E0B8FBF0F300FB11
:103E980013881FFA88F85FFA8CF6C8F13C08CCEB57
:103EA800010C0CFB08FC0B46BCFBF0FCB4445FFAAD
:103EB8008CF101221746964603E00E460B46F8E7BA
:103EC80049464FEA03284FF0170C48EA06480BEB1F
:103ED8000C0548EA01080395039DCCEB050901256B
:103EE80005FA0CFA1AEA080F1FFA89F9274D14BFC8
:103EF8004FF0110A4FF0090A1CF1FF3C05F809A020
:103F0800EAD20BF1180C01341FFA8CFBA4B24FF063
:103F1800010C89463DE7BCF1000F02D00199A1F8D8
:103F280078B0BEF1000F02D0019981F87C3017B14A
:103F3800019B83F87D6012B1019B83F87E90BCF1F0
:103F4800000F03D0019A2023A2F87A30029A0123A5
:103F580013700F4B1B787BB10E4A0F4940F22A337E
:103F6800536000234B620B889BB243F001030B8024
:103F7800136843F00103136005B0BDE8F08F00BF7C
:103F880079210020301500208E1400205D110020BA
:103F98008C1400201C000240002C01402DE9F04147
:103FA8000C4C0D4D8046206816460F460AF0EAFB79
:103FB80048F0800128460AF018FE3B4600223146A8
:103FC80028460AF0E5FD20680AF0E1FB0120BDE87B
:103FD800F08100BF6C4500200030014007B5062184
:103FE8006A46F720FFF7DAFF9DF801309DF80010C8
:103FF8000B4A1B0143EA01339DF8021043EA1113EF
:1040080093609DF804309DF803101B0143EA0133C7
:104018009DF8051043EA1113536003B05DF804FBE3
:104028003015002070470148FEF720BBC82A002041
:104038000148FEF71BBB00BF742A00200148FEF7A9
:1040480015BB00BF202A0020F7B506460D46002400
:1040580001272A8807FA04F31A421AD0AA7800938B
:1040680002F003038DF80430EB78022B03D0032B06
:104078000CBF032301238DF805306946C2F30113F1
:104088003046C2F381028DF806308DF807200DF016
:1040980003FC0134102CDCD103B0F0BDF7B5104F90
:1040A800104D182404FB00706E69D0F82042344388
:1040B8006C61C0F8243290F81D328DF8043000236A
:1040C800C0F8181292098DF8063001A801238DF85E
:1040D80005208DF8073015F039F803B0F0BD00BFA2
:1040E80000000020001002400348D0F8203313B12C
:1040F80000F5467018477047000000200348D0F8C4
:10410800083313B100F540701847704700000020CD
:104118000348D0F8F03213B100F53A7018477047E9
:10412800000000200348D0F8D83213B100F53470ED
:1041380018477047000000200348D0F8C03213B178
:1041480000F52E7018477047000000200348D0F88B
:10415800A83213B100F528701847704700000020F6
:104168000348D0F8903213B100F522701847704711
:10417800000000200348D0F8783213B100F51C7015
:1041880018477047000000200348D0F8603213B188
:1041980000F5167018477047000000200348D0F853
:1041A800483213B100F5107018477047000000201E
:1041B8000348D0F8303213B100F50A701847704739
:1041C800000000200348D0F8183213B100F504703D
:1041D80018477047000000201549D1F8883043F48B
:1041E8007003C1F88830134B1A6842F001021A6054
:1041F8005868114A02405A601A6822F0847222F400
:1042080080321A601A6822F480221A605A6822F4EE
:10421800FE025A60DA6A22F00F02DA62186B074A65
:1042280002401A6300229A604FF000638B60704767
:1042380000ED00E0001002400CC07FF8CCFC00FF4D
:104248002DE9F04FB84B1B689A6AB84B2DED048BDB
:104258001A80B74B1978A1B00129059304D1B54B41
:104268001A80B54A12885A80B44D2F78002F01F071
:104278003B800FF0EDFCB24B03909B680BB1A81C80
:104288009847B04BB3F90660AF4B1B685A89964202
:104298000CDB197AB6F5FA6FBFBFB31A4B43C2F5F8
:1042A800FA6193FBF1F1C1F1640100E06421A74BCD
:1042B800DFF8A0E2B3F8540293F8269293F827A205
:1042C80093F9D4315B429BB204930022A04BD154A2
:1042D8009C4B33F912C0C0EB0C0303F2F31440F209
:1042E800E63B5C454FEA42089A4C10D883EAE37BE8
:1042F800022AABEBE37B0ED0CB4502DDC9EB0B0307
:1043080000E0002384452EF8083012DB16E0022A6C
:104318004FF4FA7BF2D1DA45B8BFCAEB0B03BDF80C
:1043280010B0A8BF002313FB0BF38445AEF804308C
:1043380007DA3EF808305B422EF808300132032ACB
:10434800C4D1854B1B6813F4805E0ED0B6F57A7F16
:1043580006DBB6F5FA6F3246A8BF4FF4FA6201E001
:104368004FF47A72A2F57A7214E0784BB3F85612C9
:104378008E4206DBB6F5FA6F3246A8BF4FF4FA62F2
:1043880000E00A46521A4FF47A735A43C1F5FA61AB
:10439800B2FBF1F26423DFF8F48192FBF3F101F14F
:1043A800010938F911C038F919806FF06309CCEBAD
:1043B800080809FB012101FB08F292FBF3F202EB6A
:1043C8000C039BB2E380BEF1000F16D0634A12685B
:1043D800D20012D5624AD2787AB9A3F57A731BB2A1
:1043E8004FF47A721B0393FBF2F3C0F5FA6212B230
:1043F800534300EB2330574BD8805A4BB3F800A0F7
:104408001AF0400F984638D0574BDFED587AB3F979
:1044180004300A2293FBF2F3AA889B1A1BB208EE17
:10442800103AB8EEC88A28EE278AB0EE480A17F084
:10443800A7FBF0EE408AB0EE480A17F040FBB4F94B
:10444800023007EE103AB4F90030B8EEC77A06EE3B
:10445800903A67EE407AF8EEE66AE8EEA67A20EE41
:10446800260AFDEEE77AA8EE870A17EE903AFDEEE7
:10447800C07A238017EE903A63803D4B2F4D1B681E
:10448800DFF8C89013F0140F00F0B1801AF4027F1F
:1044980000F0AD80374B1B7803F0100303F0FF02E8
:1044A8004BB1354B99F9A422B3F90010638801FB8D
:1044B800023363809BE0314B26491B68DFF8D0E06C
:1044C800D8789B78002867D0BEF90000C0EB060CAE
:1044D8008CEAEC7EAEEBEC7E9E450DDDDFF8B4E0B9
:1044E8008642CEF800204FF00102AA71C8BF5B4295
:1044F800E2889BB2134479E0AB7933B1204BAA71BF
:10450800D3F800E01F4BC3F800E01B4B1B681844AE
:104518001D4B1A6813885288984267DB82421346FB
:10452800A8BF034662E000BF0428002078240020CA
:104538008E2700209027002094250020D8150020E1
:104548002027002048610020E82400207045002032
:104558003431002028310020E46400207C4300200E
:10456800F064002078430020D024002035FA8E3CE7
:104578007C2400200F2500208C630020F0220020DE
:10458800D824002038250020F42200202A350020D5
:10459800021F002088630020BEF900E0CEEB06026F
:1045A80082EAE27CACEBE27C9C4509DD022392FBCB
:1045B800F3F2764B1A60764A01231370AB7108E068
:1045C800AB7933B1734BA8711A68734B1A60704B8F
:1045D8001870724B1B689E44714B1A681388528876
:1045E8009E4503DB72451346A8BF7346CB806D4BCF
:1045F8001B78ABB1B9F85632B34211DB6A4B5B7921
:10460800012B01D0192B02D199F89F2242B90E2B08
:1046180006D0082B04D00023A380644B00229A60A4
:1046280099F8146296B31AF0030F2FD0604BDFEDA0
:10463800617A93ED080AB4EEE70AF1EE10FA21D98F
:1046480018F0BCFF5C4BD3ED007A20EE270A18F077
:1046580023FFB0F5617FA8BF4FF4617007EE900AA1
:10466800B8EEE77ADFED557A87EE270A17F027FAD2
:1046780007EE906AF8EEE77A27EE800A18F00CFF4A
:1046880000B200E00020E3881844E08099F85A322C
:104698004B4A23B9B8F80010002900F0A18012781D
:1046A800002A51D0022B09D0032B19D199F85B327B
:1046B800C3EB431203EB8203DB000FE0414BD3F85B
:1046C800F820B2F57A7F05DB44F620639342A8BF51
:1046D800134601E04FF47A7303F57A739BB200E056
:1046E8002B89394A1068394AB3FBF0F01278461C16
:1046F80036B2092A6E8105D1354A21881180618830
:104708005180D380B5F90CA0DFF8CCB00023DFF8D6
:10471800C4E03BF913800EF1160C0EF10E093CF8BB
:10472800132039F913102CF81380C2EB080201FB8F
:104738000AF191FBF6F10A4429F813200133042BFE
:10474800E5D1AEF80C0002E0AB89013BAB81214A10
:10475800B2F90C0000284FF0000315DDDFF878E00F
:10476800B2F90A600E32DFF874C032F913103CF85F
:1047780013C0414391FBF6F1C1EB0C012EF8131065
:104788000133042BEFD130E093812EE080630020C9
:1047980090630020D8240020382500208C63002056
:1047A800F4220020200A0020704500201C3100203F
:1047B800EC2900208FC2753CE4220020EFB6B044FB
:1047C800001F0020600A0020383100208E270020BA
:1047D80090270020D815002028310020EE15002051
:1047E8001378A981002B00F09D80C54B93F85C32AB
:1047F80023B1C44A1268960001F1BE83C24BC34874
:104808001A68059BC24D1E78C24BDFF858C31B6857
:104818009FEDC15ADFEDC14A9FEDC14ADFEDC13AB4
:104828009FEDC13ADFF8408393F800E0F7EE005AB5
:10483800141D0023F0EE652A022B14BF92F800A085
:1048480092F801A03CF9131007EE10AAB8EEC77A47
:1048580006EE901AC7EE057A14BF9178517A4FEA9E
:104868004309B0EE007AF4EEC77AF1EE10FAF8EEEA
:10487800E66AC4BF37EEC77AE7EE247A86EE847A12
:10488800B5EEC07AF1EE10FAD4BFF1EE476AF0EE59
:10489800476AE5EC016A89B106EE101AB8EEC66AF5
:1048A80086EE052A26EEA66A66EE866A35EEC26AA6
:1048B80066EE876A26EE077AA2EE267A14F8011FBA
:1048C80067EEA37A67EE877A002941F0AC830C2E55
:1048D80002BFBDEEE77A17EE101A29F80810BEF1EC
:1048E800000F41F0C8839FED917A67EE877A9FEDBC
:1048F800907AF4EEC77AF1EE10FA01F1CE839FEDCB
:104908008D7AF4EE477AF1EE10FAC8BFF0EE477AE6
:104918000133032BC0ED007A00F104008CD1864BE3
:1049280000221A70854B1B68990640F19A80844BC7
:104938001B8803F03003002B00F09380814B1B7819
:10494800DA0740F18E80804BDFED807AB3F90430CE
:10495800DFF818927E4E0A2293FBF2F308EE103A23
:10496800B8EEC88AF2EE048A28EE278AB0EE480A22
:1049780017F0A5F8B0EE409AB0EE480A17F000F923
:10498800744B1B6893F803A0B0EE408ABAF1000F8D
:1049980045D0714CB9F90200B4F902B0CBEB000074
:1049A80005F08AFFCAF10005A842A04603DB50457E
:1049B800A8BF504600E02846584404B2B8F900B0F1
:1049C800B9F90000A8F80240CBEB000005F074FF2D
:1049D800854203DC82455546A8BF054607EE904A46
:1049E8000BEB05031BB2B8EEE77A07EE903AF8EE48
:1049F800E77AA8F8003027EEC96A68EE277AA8EEA9
:104A0800076AE9EE077AC6EE286A87EEA87AFDEE0D
:104A1800E66AFDEEC77A16EE903A33801EE0B9F9E1
:104A2800023007EE103AB9F9003000EE103AB8EE4D
:104A3800C00AB8EEC77A60EE496AE8EE076A28EE5F
:104A4800008AC6EEA87AA9EE078AFDEEE77A17EE85
:104A5800903AC8EE287A3380FDEEE77A17EE903A5E
:104A680073803E4EB0463E4C94F82430013B2546B8
:104A7800082B00F25982DFE813F009007B000F01D0
:104A8800570202027A01E3015702470212F0FCFCC6
:104A98000021084612F0C2FC824612F0E7FCBAF187
:104AA800010F40F041824FF0000B84F819B012F06A
:104AB800EBFC40F2AB11082012F0B0FC0528DFF83F
:104AC800A09002D189F819A00EE001280CD1042386
:104AD8005A4619A921480AF05BF89DF86730AB2BB4
:104AE80004BF022389F8193012F0C0FC627E1C4B07
:104AF800002A00F0B581022283F82420B3E700BF22
:104B0800704500207C430020E82400201C31002050
:104B18006C340020EC2400200000C842D7A3684170
:104B28000000FA43000048430AD7233C333383404C
:104B380000F0FFC500F0FF45001F00207C24002086
:104B4800784300200F250020D024002035FA8E3C21
:104B580030310020B0220020A81E0020003800407C
:104B6800144300202831002090270020AC1E00208C
:104B780012F08AFC637E022B14BF4FF000094FF03D
:104B880080490021372012F049FC4946292012F0BB
:104B980045FC814612F06AFCB9F1000F40F0C4816F
:104BA800637E022B1ED112F06FFC49463A2012F0A8
:104BB80035FC042382464A4619A9C14809F0E8FF92
:104BC800BAF1000F05D112F051FC199B1BBA2FB98D
:104BD80001E012F04BFC12F0EDFE44E7C3F38073E2
:104BE800A37602E0B74B83F81A9012F04DFC00212F
:104BF800092012F013FC002841F080821021B248ED
:104C080012F0ECFB8246002841F0788201217F20D7
:104C180013F092FB0128814641F070820221504630
:104C280013F08AFB834650B1012824D116213A207B
:104C380013F082FB01308002E063D9461CE00421B6
:104C48002C2013F079FB032109FA00FB4E2013F006
:104C580073FB0C218246362013F06EFB0AF1020327
:104C680009FA03F300FB0330A0FB0B01430A43EAF4
:104C7800C153E36300E0D14612F0F8FBB9F1000F2D
:104C880000F0528112F000FC00210A2012F0C6FB4D
:104C980000289ED1032367E0102119A812F09EFB7B
:104CA800002840F041819DF864309DF8652084F823
:104CB80028309DF8663043EA022363859DF8673003
:104CC80084F82C309DF8683084F82D309DF86930D0
:104CD80084F82E309DF86A3084F82F309DF86B30B8
:104CE80084F830309DF86C301A0903F00F0384F80B
:104CF80032309DF86E3084F831209DF86D201B0409
:104D080043EA02639DF8702013439DF86F2043EA3D
:104D1800022363639DF871309DF872201B01DBB29A
:104D280043EA121303F5FA6302F00F02238784F8AB
:104D38003A20002F00F0F88012F098FBA37E63B9A8
:104D480012F0A2FB4FF40071102012F067FB054629
:104D580012F08CFB002D7FF43EAF0221584809F079
:104D6800C8FE00232362042384F824307BE6DFF89E
:104D7800689199F80030F3B1544A136813F400337A
:104D880019D04FF400335360514A11684FF6FE733F
:104D98000B4013603389DB0701F1838114F054FB66
:104DA8000028FBD1B8F8043023F002031B041B0CC5
:104DB800A8F80430012399F8001091B9207A2268E4
:104DC8004FF4807302EB00223D4809F0E1FE237A9C
:104DD8000133DBB2A3F1020E2372DEF1000343EBD1
:104DE8000E03002B00F0A0800021354809F0FDFEDD
:104DF8000021334809F0F9FEFF21314809F0F5FE9A
:104E080000F01F0005280FD1072385F82430314B07
:104E1800EC681B682B496B61002C00F093800B69D0
:104E28000A684968012049E012F0C4FDE468254990
:104E3800002C3FF418AE0B6949680022012061E09C
:104E480014F010FB002868D000222276226A1D4B3D
:104E5800012A08D9013A1A62DA690132DA610822AC
:104E680083F8242060E004D112F094FA02285BD180
:104E780002E0042283F8242012F0F8FA54E04FF4F8
:104E880000712068DFF83C9012F0A8FA012825D0BC
:104E980002D3022829D047E012F0E8FAD9F80C40EA
:104EA8000423002089F8243089F81800002C49D000
:104EB800D9F81030D9F80020D9F80410A04733E009
:104EC80000380040144300205443002000000240F2
:104ED80058000240583C0020643C0020B84B1A6837
:104EE800D9F81430643393421ED212F0BFFA12F08C
:104EF80061FDE468B349002C3FF4B5AD0B6949681E
:104F080000221046A047AEE514F0ACFA28B112F022
:104F1800ADFA042384F8243006E0A94B1A686369C3
:104F2800FA339342FFF457AE95F82430013B022B35
:104F380008D8A34BA34A1B6852699B1AC82B01D9EE
:104F480012F038FD95F82430042B02D0082B40F0DD
:104F5800B3819D4C12F054FD6378022B01D1254694
:104F680047E0032B40F0A88198480EF0FDF99848D7
:104F78000EF0FAF997480EF0F7F997489AE1626847
:104F8800A3682769991AB94284BFEA60296103288E
:104F980040F0668126690623652EA37029D9A6F1FB
:104FA80064032B6112F07EF9653E404206400136EB
:104FB8002E6112F077F986421BD9DFF83C82EF6840
:104FC800D8F800003E44023086422CBF0020012061
:104FD80012F072F92A69D8F808306F6053435B02FF
:104FE80048F8903C48F88C3CAE6048F8747C05233F
:104FF800AB70A378072B00F25F81DFE813F008009D
:105008003400B400BF00C1003D014E015801002327
:10501800092219A9184612F03DFA012840F04C81DE
:10502800199B93F8FE21552A41F03E8093F8FF2101
:10503800AA2A41F0398003F5DF7203F5FF739068FF
:1050480060B11179A1F10B06012E03D901F0F70126
:10505800062903D1614B1860012326E110329A42D8
:10506800EDD101F021B841F2FC160023092219A95B
:10507800A059554D12F00EFA012840F01D81002369
:1050880019982B70B0F80B30B3F5007F41F01480FD
:10509800037C022B41F0108090F8FE31552B41F033
:1050A8000B8090F8FF31AA2B41F00680B0F80EE093
:1050B800AB590EEB030605F590531E60477B41F292
:1050C8001023EF507B1E7F2B00F2F6877B4237EAD6
:1050D800030340F0F1877B0241F21822013BAB50F9
:1050E800C58A05B9456A41F20423E550B0F81110A4
:1050F8003B4B490101F2FF1149121960B0F8132026
:1051080002B9026A6D000EEB01032B44D21AB2FBFE
:10511800F7F341F208272C4AE35140F6F477BB42F3
:1051280003D80123137000F0C7BF4FF6F477BB42D2
:1051380094BF0223032313702378234A032B41F2DD
:105148001C230CBFC06A0020D050731841F20C22F7
:105158002B44A350234B1B780BB911F07DFAA3788D
:105168000133A370A8E00323A3701F4B009305220B
:1051780030231E491E480EF081F99DE01C4899E035
:1051880012F090F8DFF870A006460AF1080B207DAF
:1051980010B1012837D0FBE7DAF8002015490232B0
:1051A80012F052FB0328F2D801A353F820F000BFF5
:1051B800C152000805520008C15200089D4F00085E
:1051C800583C002014430020444E0020FC5F00207F
:1051D800E85E00202C5F0020705F00204060002007
:1051E8006460002024600020112A0108022A0208B5
:1051F800B45F0020484E00204C60002063680133F3
:10520800A360012336E0DBF80030D4F804E04FF067
:10521800FF325B02B2FBF3F3B94A13EB0E001268DC
:105228004FF0000848F100014FF00009494502F12C
:10523800020208BF904238BF0EEB0302B1490220B8
:1052480012F002FB0328A2D801A353F820F000BFF4
:10525800C1520008874F0008C1520008874F000854
:105268000133B3FBF6F206FB12320AB133449B1A40
:105278006360002323758AE7A268A349012012F01E
:1052880048FA012801D10623B2E6022814D141F2D6
:10529800B4120123A35400F00CBF00219B4812F064
:1052A80005FA0128F1D1A3780133A370A1E60323FD
:1052B80000F0FFBE0EF058F8954B1B782BB9954BB4
:1052C8001B681D0301D501F0C3F9FEF7E9FC924BF9
:1052D8001B78072B05D10EF0BBFC039BC01A8F4B24
:1052E80058808F4B00221A708E4C8D4E636811A81F
:1052F8009847A146002800F076818B4DBDF94430CF
:105308002B60BDF946306B6096F82420BDF9483013
:10531800AB60294628460CF015FB844B1A889B463F
:1053280006F1700A002A00F0A980814BDFED818A1E
:105338001B681B78002708EE103A06F1280806F1CA
:10534800340438464FF47A71D9F81430B1FBF3F3CA
:10535800C3EB431103EB8103BBF800E0DB009BB216
:105368009E4508BFC8F80000D8F8003008BF206183
:105378001A4655F827301A4455F82730C8F800203F
:1053880007EE903A23690133012B4FEA8701F8EEC3
:10539800E77A236106D1C4ED017AC4ED007AC4ED41
:1053A800028A1BE0D4ED005A07EE103A37EEE56AA0
:1053B800F8EEC76A86EE267AD4ED026A37EE257AC9
:1053C80077EEC77A84ED017AE6EE276A84ED007AF3
:1053D800F0EE667AC4ED036AC4ED026ABEF1010F0D
:1053E80068504AF8010036D123690490012BC3BFE5
:1053F80003F1FF3307EE903A94ED037A9FED4D0ADF
:105408000391C4BFF8EEE77A87EE270A18F048FB45
:105418000399049818EE103A4BB1F8EEC87AF4EEF6
:10542800C07AF1EE10FA02D50CF07BFA26E04FF4C0
:105438007A72D9F81430B2FBF3F3C3EB431203EBDF
:105448008203DB00D8F800209BB202EB530292FBE8
:10545800F3F24AF801200137032F08F1040804F198
:1054680014047FF46FAFBBF80000012801D10FF0DE
:105478005DFDBBF80030013BABF80030002355F868
:1054880023105AF82300284A091A45F82310013333
:10549800032BF4D1284B19789846284B002900F0A3
:1054A8009080DFF87490DFF874A01C46151F002761
:1054B800CB4699F80030032B04BF6B682AF81730E5
:1054C8001F4B1B78012B0AD1D5ED017A1D4B1C20EF
:1054D800B8EEE70A00FB073016F07EFB40E0ABBBF6
:1054E800D5ED017A184BD6ED340A98F800100C2047
:1054F800B8EEE70A00FB073016F028FC30E000BFE2
:105508004C6000204C4E0020484E0020B45F002024
:10551800AC350020E46400208E270020902700206E
:10552800D8150020202700209C2400201C270020BC
:1055380098220020000000009C2200205434002003
:10554800A222002054160020AC160020D5ED017AC6
:10555800AD4BA420B8EEE70A00FB073016F018FBA5
:1055680084ED000A9BF80030082B05D194ED000A61
:1055780017F092FF2AF81700A44B1B884BB1A44BD5
:1055880094ED000A1C2000FB073016F025FB84ED83
:10559800000AA04B1B884BB19F4B94ED000A1C20BE
:1055A80000FB073016F018FB84ED000AB4EC010A82
:1055B80017F072FF0137032F45F8040F7FF479AF16
:1055C80011E0D2ED007AF8EEE77AC3ED007AD2ED79
:1055D800017AF8EEE77AC3ED017AD2ED027AF8EEB5
:1055E800E77AC3ED027A96F88C332BB18B4A013BEC
:1055F80082F88C3300F086BD894B93F8DC211C4679
:1056080022B193F8EA31013BDBB200E0012386F8CE
:105618008C330EF01DFB834B834DD3F80080834BF6
:10562800B4F83612A3F1520207462868C047804BE7
:105638001A78072A1C4604D10EF00AFB7D4BC01BC2
:1056480098800EF005FB94F800A00390BAF1010FC2
:105658000AD17949D6F89033764A0968C6F8900392
:10566800C31A93805B1AD380744B2A681B68EBB10A
:1056780092F83320CAB1724A1268940718D5714A51
:105688001178012914D9DB786F4859430088CB1A5F
:1056980098420AB203DB88420346A8BF0B461BB2F6
:1056A800120392FBF3F2012305E013461A4602E0C7
:1056B80001234FF480526549C9780B912BB1BDF98C
:1056C8004C1051430913ADF84C106149614E91F8E3
:1056D80000806149DFF85C91B1F902000690B1F9E8
:1056E800000007905D48B1F90410D0F800C004919B
:1056F80000252946284640453DD29CF90040049F94
:10570800D6ED016A96ED026A64427C4307EE904A40
:10571800B8EEE77ADDED077AF8EEE77A0DF14C0E90
:1057280067EEA67ADDED066AF8EEE66AE6EE867AB8
:10573800D6ED036AE7EE267AFDEEE77ACDED057A37
:10574800BDF914400BB1544324132EF8104013AC88
:1057580034F910408C4203DCA542A8BF254600E07E
:105768002146BAF1050F03D1042898BF29F8104043
:1057780001301036BFE7324B394C1868491B10F41A
:10578800805209B276D0374B374D1B78DFF88CE062
:10579800364F13F0040F01BF2B681E8A1F4BA3F866
:1057A8005464B4F90660324C2B6824681B8AE58877
:1057B800C5EB030C664508DCB4F900303C68AEF86C
:1057C8005464B4F9004035440AE02B449E4209DB96
:1057D8003B68B4F90240B3F90230AEF85464751B63
:1057E8002DB24FE0BEF954349C45ABBFB4F900303C
:1057F8003B683C68B4F90240ABBFB4F90040B3F968
:1058080002301D4625463DE0D01600209E2200208D
:10581800BC180020A022002010190020D815002054
:1058280070450020240A0020EC240020B447002002
:105838008E2700209027002038310020682700207C
:10584800E4640020780F0020B8270020F0640020CE
:10585800373100206C190020B8330020C022002006
:105868002831002080430020C42200206029002025
:105878005C290020804BB4F906501B68B3F900403E
:10588800B3F902307D4E9BB2A4B2C4EB030A0FFAFF
:105898008AFA51451ADD4FEA0A33002793FBF1F1E2
:1058A800C6F85814B8450AD913AB33F917E001FB09
:1058B8000EFE4FEA2E3E23F817E00137F2E70223E7
:1058C8009AFBF3F31C4424B2089407E0022791FBE7
:1058D800F7F15B1A0C441BB224B20893B6F954349E
:1058E800654E0A933768664E664B36786649DFF828
:1058F800B8E11B680968DFF8B49106F00406F6B24F
:10590800059600F01000BEF9066009964FF0000BEE
:105918000C90D84559D913A807EE905A30F81BC0F7
:105928005A4800EB0B1090ED007AF8EEE77AA6469D
:1059380067EE877AFDEEE77A17EE900AA04204DB5D
:10594800089E8642A8BF0646B6460CEB0E000B9E84
:1059580000B229F8020F16B1B7F804E013E082B1DB
:10596800B3F810E0B1F806C00A9ECCEB0E0E7645EF
:1059780004DCB7F800E0B1F800C006E0B1F802E0D6
:1059880001E0B7F800E0B7F802C0704503DB8445D2
:10599800E646A8BF86460C98A9F800E090B105989D
:1059A80080B17AB90F920E910D930FF099FA0D9B71
:1059B8000E990F9A30B9588A099E8642BCBFB8889A
:1059C800A9F800000BF1010BA3E73C894CB330495F
:1059D8004FF47A700968B0FBF1F1B4FBF1F10129D9
:1059E80005D942F210708142A8BF014600E00221A9
:1059F80009B28A4515DD274D20483C8835F918E05D
:105A080000EB4807A645B7F95C7403DB7C187445BE
:105A1800A8BF744624B200EB480025F81840A0F847
:105A28005C44059919B90E461B481A4906E0134902
:105A380091F87404192800F2438107E0B045F6D9BB
:105A480030F8164021F816400136F7E7012101FA2F
:105A580000F012490140002900F0328110490988FC
:105A6800C80525D50F4B1A88ADF864205A88ADF8BB
:105A780066209B882FE000BF60290020D8150020F1
:105A880080430020C42200205C2900206C190020DB
:105A980038310020B824002050350020324130032E
:105AA800784300202831002048610020B6240020D7
:105AB800BDF81C10ADF86410BDF81810ADF86610EC
:105AC800BDF81010ADF868103AB11B8A099A9A42CD
