:020000040800F2
:1000000000A000206172010831DF0008DD640108F2
:100010002FDF00082DDF00082BDF000800000000A4
:1000200000000000000000000000000029DF0008C0
:1000300027DF00080000000025DF00087511010817
:10004000C9720108C9720108C9720108C9720108A0
:10005000C9720108C97201087F18010889180108CE
:100060008718010885180108831801081966000817
:1000700009660008F9650008E9650008D965000807
:10008000C5650008B1650008C9720108C972010898
:1000900069E00008C9720108C972010881180108E5
:1000A000B10E0108010F0108C9720108F10E010823
:1000B000E10E0108D10E0108C10E0108C972010844
:1000C000C9720108C9720108C9720108C972010820
:1000D000C9720108ED640008E1640008D7640008F3
:1000E0007D180108C972010817DF0008C9720108EC
:1000F000C9720108C9720108C9720108C9720108F0
:10010000000000000000000000000000C9720108AB
:10011000C9720108C9720108C9720108C9720108CF
:100120009D6500088965000875650008616500081F
:100130004D650008C97201080000000000000000C1
:10014000C9720108C9720108C972010800000000E3
:10015000000000000000000000000000000000009F
:100160000000000000000000C9720108C972010807
:10017000C97201080000000000000000000000003B
:0801800000000000C972010833
:100188002DE9F04FB94B1B689A6AB94B2DED048BDA
:100198001A80B84B1978A3B00129059304D1B64B3E
:1001A8001A80B64A12885A80B54E3378002B01F06F
:1001B800FA8110F04FFFB34B9B6883460BB1B01C1C
:1001C8009847B14BB3F90650B04B1B685A89954212
:1001D8000CDB197AB5F5FA6FBFBFAB1A4B43C2F502
:1001E800FA6193FBF1F1C1F1640100E06421A84BCD
:1001F800A84FB3F8500293F8228293F8239293F908
:10020800D4315B429BB206930022A34BD1549E4B40
:1002180033F912E0C0EB0E0303F2F31440F2E63AAE
:1002280054454FEA420C9B4C10D883EAE37A022AE1
:10023800AAEBE37A0ED0C24502DDC8EB0A0300E060
:100248000023864527F80C3011DB15E0022A4FF40D
:10025800FA7AF2D1D145B8BFC9EB0A03BDF818A0A4
:10026800A8BF002313FB0AF38645BB8007DA37F8DB
:100278000C305B4227F80C300132032AC5D1874B7A
:10028800834F1B6813F4805E0ED0B5F57A7F06DBCA
:10029800B5F5FA6F2A46A8BF4FF4FA6201E04FF4A9
:1002A8007A72A2F57A7213E0B7F852128D4206DB21
:1002B800B5F5FA6F2A46A8BF4FF4FA6200E00A467D
:1002C800521A4FF47A735A43C1F5FA61B2FBF1F24C
:1002D8006423DFF8088292FBF3F101F1010938F990
:1002E80011C038F919806FF06309CCEB080809FBD5
:1002F800012101FB08F292FBF3F202EB0C039BB223
:10030800E380BEF1000F16D0654A1268D10012D5FD
:10031800644AD2787AB9A3F57A731BB24FF47A7229
:100328001B0393FBF2F3C0F5FA6212B2534300EBDE
:100338002330584BD8805C4BB3F800A01AF0400F1C
:10034800984638D0594BDFED5A7AB3F904300A226F
:1003580093FBF2F3B2889B1A1BB208EE103AB8EE80
:10036800C88A28EE278AB0EE480A0EF009FFF0EE98
:10037800408AB0EE480A0EF0A2FEB4F9023007EE49
:10038800103AB4F90030B8EEC77A06EE903A67EE44
:10039800407AF8EEE66AE8EEA67A20EE260AFDEE46
:1003A800E77AA8EE870A17EE903AFDEEC07A238026
:1003B80017EE903A63803F4BDFF8C4901B6813F048
:1003C800140F00F0A6801AF4027F00F0A2803A4BC6
:1003D8001B7803F0100303F0FF004BB1374B97F97C
:1003E800A022B3F90010638801FB0233638090E018
:1003F800334B344A1B68D9789B7819B3B2F900207B
:10040800C2EB050E8EEAEE71A1EBEE7199420CDD9E
:100418002D49954208604FF00101B171C8BF5B4298
:10042800E1889BB20B44E38073E099F806302BB166
:10043800264B89F806001968254B19601F4B1B6865
:1004480013445BE0B2F900002A1A82EAE27EAEEBBE
:10045800E27E9E4544DD022392FBF3F21D4B1A60B7
:100468001D4A0123137089F8063044E0CC1300209C
:10047800F01E00205E13002060130020A41200204C
:10048800EC0A0020F0120020743600200012002030
:10049800D02F00201C2900203C290020D02000203B
:1004A8000C210020DC200020082100202829002021
:1004B80035FA8E3CE01E002028110020B8390020B3
:1004C80090120020B2100020B4390020E81100205A
:1004D800A8390020AC390020BC390020F6280020BB
:1004E80099F806303BB1724B89F806101A68714BBF
:1004F8001A60714B1970714B1B680344704A11687C
:100508000A884988934203DB99420A46A8BF1A46DB
:10051800E2806C4B1B78ABB1B7F85232AB4211DBBF
:10052800694B5B79012B01D0192B02D197F89B22DB
:1005380042B90E2B06D0082B04D00023A380634BAE
:1005480000229A6097F8105295B31AF0030F2FD033
:100558005F4BDFED607A93ED080AB4EEE70AF1EE3F
:1005680010FA21D919F08AFA5B4BD3ED007A20EE04
:10057800270A19F0F1F9B0F5617FA8BF4FF461704F
:1005880007EE900AB8EEE77ADFED547A87EE270A8D
:100598000EF095FD07EE905AF8EEE77A27EE800AFE
:1005A80019F0DAF900B200E00020E3881844E0808E
:1005B80097F856324A4A23B9B8F80010002900F0D3
:1005C8009D801278002A50D0022B09D0032B19D114
:1005D80097F85732C3EB431203EB8203DB000FE0BB
:1005E800404BD3F8F820B2F57A7F05DB44F6206358
:1005F8009342A8BF134601E04FF47A7303F57A7368
:100608009BB201E0B9F80830374A1068059AB3FB85
:10061800F0F01278451C2DB2092A758105D1334AAC
:100628002188118061885180D380B9F90C90DFF856
:10063800C8A000232E4F3AF913C007F1160E07F190
:100648000E083EF8132038F913102EF813C0C2EB29
:100658000C0201FB09F191FBF5F10A4428F813207B
:100668000133042BE6D1B88104E0B9F80C30013B22
:10067800A9F80C301E4AB2F90C50002D4FF00003B7
:1006880013DDDFF874E0B2F90A700E32194832F956
:10069800131030F81300694391FBF7F1411A2EF853
:1006A80013100133042BF1D12DE093812BE000BF0F
:1006B800E8110020A8390020BC390020B8390020F2
:1006C80094120020B0000020D02F00201029002014
:1006D800A42C00208FC2753C84120020EFB6B044D1
:1006E800B0100020EC0000204029002060130020FA
:1006F800EC0A0020020B00201C2900201378B1818D
:10070800002B00F0CC80C14BC14D93F8583223B177
:10071800C04A1268920001F16B85BF4B2F881A6896
:10072800BE4BBF481C68059B94F800C0BD49DFF864
:100738004C839FEDBD6A9FEDBD4ADFEDBD3A9FED4D
:10074800BD3ADFEDBD2ADFEDBD4A93F800E0F7EED4
:10075800005A161D0023B0EE652A022B14BF92F82A
:10076800009092F8019038F9135007EE909AF8EE3D
:10077800E77A06EE905A87EE867A14BF9578557A0E
:100788004FEA430AF0EE007AB4EEE77AF1EE10FA97
:10079800C8BF77EE677AF8EEE66AC8BFA7EE847A34
:1007A800C6EEA37AF5EEC07AF1EE10FAD4BFF1EEF8
:1007B800676AF0EE676A8DB105EE105AB8EEC55A51
:1007C800C5EE061A26EEA65A66EE856A35EEE15A99
:1007D80066EEA76A65EE277AE1EEA67A16F8019F1B
:1007E800257827EE037A27EE277AB9F1000F01F072
:1007F800858506EE909AF8EEE66AF5EEC07A86EE02
:10080800865AF1EE10FAD8BFF1EE677AF0EE656A13
:10081800E5EE676AF4EEE26AF1EE10FA01F13E8560
:10082800F4EE656AF1EE10FAC8BFF0EE656AC2EE42
:10083800267A012D67EE277A01F03485BEF10C0F78
:1008480001BFBDEEE77ADFF8389217EE105A2AF8A2
:100858000950BCF1000F41F05D859FED797A67EE94
:10086800877A9FED787AF4EEC77AF1EE10FA01F103
:100878004D859FED757AF4EE477AF1EE10FAC8BF10
:10088800F0EE477A0133032BC0ED007A01F1040141
:1008980000F104007FF461AF6C4B00221A706C4BBE
:1008A8001B689C0640F19680594B1B8803F0300367
:1008B800002B00F08F80674B1B78D80740F18A80A7
:1008C800654BDFED667AB3F90430DFF8B881644E22
:1008D8000A2293FBF2F308EE103AB8EEC88AF2EE59
:1008E800048A28EE278AB0EE480A0EF0E8FBB0EE3C
:1008F800409AB0EE480A0EF043FC5A4B1B6893F836
:100908000390B0EE408AB9F1000F41D0564FB8F9C4
:100918000200B7F90240001B11F0B8FBC9F100054D
:10092800A84203DB4845A8BF484600E028462044C3
:1009380004B2B7F900A0B8F900007C80CAEB000047
:1009480011F0A4FB854203DC81454D46A8BF05464E
:1009580007EE904A0AEB05031BB2B8EEE77A07EEFA
:10096800903AF8EEE77A3B8027EEC96A68EE277A74
:10097800A8EE076AE9EE077AC6EE286A87EEA87A33
:10098800FDEEE66AFDEEC77A16EE903A33801EE079
:10099800B8F9023007EE103AB8F9003000EE103A14
:1009A800B8EEC00AB8EEC77A60EE496AE8EE076AA0
:1009B80028EE008AC6EEA87AA9EE078AFDEEE77A45
:1009C80017EE903AC8EE287A3380FDEEE77A17EEF4
:1009D800903A7380254B1878002840F0D785244D2D
:1009E8002B68190340F1D285224C2378033B052B51
:1009F8005BD8064B204E93F8A535002B44D0012B2D
:100A080046D105F095FAC0F17F0041E0D02F0020D3
:100A1800082100200C2100200012002014140020BE
:100A280010290020902A00200000C842D7A368415E
:100A38000000FA43000048430AD7233C00C0F9C429
:100A48003333834000F0FFC500F0FF45B0100020AD
:100A5800E01E0020281100202829002035FA8E3CAD
:100A68002429002050120020561000204C3A002063
:100A7800D0200020142A0020EC0A00201C29002085
:100A8800601300205A100020706A03689B6898471A
:100A9800B36A96F82C201344B3F5807FA8BF4FF4AF
:100AA80080738342D4BFB362B0622378023B092BC0
:100AB80000F21A85DFE813F00A001400450066000A
:100AC8007C009500A80077049904A9049A4B002299
:100AD8009A621A63994A12685A63032300F003BDA5
:100AE800964B954E1A68736B6433934280F0FC847E
:100AF800402015F07FFA002840F0F684DFF8409295
:100B08004FF040083746336B19F8030058B115F019
:100B18004BFBBB6A013BBB623B6BB8F1010803F1BD
:100B280001033B63EFD1326B8549834B8A5C002A12
:100B380040F0DA841A634FF0FF325A63042300F05E
:100B4800D2BC804A0292A2F10C030193262300939F
:100B58005021A2F10A034920163A0BF0E9F80028BF
:100B680040F0C2842B6813F08002734B4FF0FF31C2
:100B780019BF186359631A63596314BF0523072300
:100B880000F0B1BC022300936F4B00210291019148
:100B9800A3F1080248200BF0CBF8002840F0A48409
:100BA800654B4FF0FF3218635A63062300F09BBC75
:100BB800664A0292A2F10C03072601930096A2F15D
:100BC80008030021143A47200BF0B2F8002840F03F
:100BD8008B84594B26704FF0FF3218635A6300F02C
:100BE80083BC052300935A4B002102910191A3F184
:100BF800080253200BF09CF8002840F075844E4BF7
:100C08001863082300F06FBC402015F0F3F90028A2
:100C180040F06A84484E336B492B01F2AD83DFE81C
:100C280013F04A004D00520056005900600065005C
:100C38006A006E0072007E008700C500D200D600F0
:100C4800DB00E000F1000201130124013501460137
:100C5800570168017C0186019401A201B001BE011F
:100C6800CC01DA01E801F601000210021A02300292
:100C780046029B02B102BB02C502CF02D902E302BF
:100C8800ED02F70201030B0315031F0329032E03CB
:100C9800330338033D034E035F0370037D03820370
:100CA80087038C03910396039B03A003A503AA0360
:100CB800AF03B403B903274927486EE3274B284AF3
:100CC80028492948BAE1294A29492A4878E02A497D
:100CD8002A4862E32A4B2B4893F8A42593F8A315D6
:100CE8006EE0274B2848B3F8CC1056E3244B27482E
:100CF800B3F8CE1051E3264B264819694DE3264B2D
:100D08002648198949E3B36BDA0404D51C4B2448F7
:100D180093F8121241E3084B0B221A633FE3184978
:100D2800204891F8153291F8172291F8161285E1AA
:100D3800B18F1D4831E300BFEC0A00204428002091
:100D480094BE01080ABF0108C4C00108E0C0010838
:100D580028C1010877E7010883E7010894E701083B
:100D680099E70108A1E70108A7E70108CFE701080B
:100D7800D8E70108E4E7010882350020F8E7010810
:100D8800D02F002006E8010817E8010826E8010826
:100D9800F012002035E80108E41E002045E80108AB
:100DA8004FE801085CE8010875E801082B681B0595
:100DB80040F1F582C94BCA48B3F91A22B3F81C129C
:100DC80015F0CCFAEBE2C74BC7485969E5E2C34BCB
:100DD800C64893F8DA11E0E2C04BC54893F8E6112B
:100DE800DBE2BE4890F8F834602202FB03F14318B6
:100DF80093F812240C2303FB02130344BD4893F811
:100E08001414CAE2B54890F8F834602202FB03F1E2
:100E1800431893F812240C2303FB02130344B64827
:100E280093F81614B9E2AD4890F8F834602202FB42
:100E380003F1431893F812240C2303FB0213034411
:100E4800AE4893F81514A8E2A44890F8F834602244
:100E580002FB03F1431893F812240C2303FB02133B
:100E68000344A74893F81D1497E29C4890F8F83477
:100E7800602202FB03F1431893F812240C2303FBAE
:100E8800021303449F4893F8171486E2934890F896
:100E9800F834602202FB03F1431893F812240C2360
:100EA80003FB02130344984893F8181475E28B481F
:100EB80090F8F834602202FB03F1431893F81224E7
:100EC8000C2303FB02130344904893F81C1464E2B8
:100ED800824890F8F834602202FB03F1431893F833
:100EE80012240C2303FB021303448948B3F81E148D
:100EF80053E27A4890F8F81460234B43C2180C2147
:100F080092F8122401FB0233C118824891F81B346D
:100F180091F81A2491F8191490E0704B7E4893F8D0
:100F2800F824602101FB023393F8D81335E26B4AA9
:100F38007A4892F8F834602101FB032191F8ED33E7
:100F480091F8E32391F8D91378E0644A744892F849
:100F5800F834602101FB032191F8EE3391F8E42382
:100F680091F8DA136AE05D4A6E4892F8F834602125
:100F780001FB032191F8EF3391F8E52391F8DB1396
:100F88005CE0564A684892F8F834602101FB032176
:100F980091F8F03391F8E62391F8DC134EE04F4ACC
:100FA800624892F8F834602101FB032191F8F1338B
:100FB80091F8E72391F8DD1340E0484A5C4892F83D
:100FC800F834602101FB032191F8F23391F8E8230A
:100FD80091F8DE1332E0414A564892F8F83460211D
:100FE80001FB032191F8F33391F8E92391F8DF131A
:100FF80024E03A4A504892F8F834602101FB032172
:1010080091F8F43391F8EA2391F8E01316E0334BA2
:101018004A4893F8F824602101FB023393F8E1135E
:10102800BBE12E4A464892F8F834602101FB0321BF
:1010380091F8F63391F8EC2391F8E21315F08EF954
:10104800ADE1264B3F4893F8F824602101FB0233B9
:1010580093F8F713A1E1214B9FED3B7A93F8F8241D
:101068003A48602101FB0233B3F8F83307EE903AAF
:10107800F8EEE77A67EE877AFDEEE77A17EE901AD0
:101088008BE1164B9FED307A93F8F82430486021B5
:1010980001FB0233B3F8FA3307EE903AF8EEE77A39
:1010A80067EE877AFDEEE77A17EE901A75E10B4B3B
:1010B8009FED257A93F8F8242648602101FB023336
:1010C800B3F8FC3307EE903AF8EEE77A67EE877AE2
:1010D800FDEEE77A17EE901A5FE100BFD02F0020EF
:1010E80080E80108F012002093E801089FE8010851
:1010F800B2E80108C7E80108D1E80108DBE80108FF
:10110800E8E80108F5E80108FFE801080AE901082C
:1011180017E9010829E9010838E9010849E901083E
:101128005AE901086CE901087CE901088CE9010821
:101138009CE90108ADE90108BEE90108D0E9010808
:10114800C0E90108DAE901080000C842EFE901082E
:10115800FFE901080DEA0108B54B9FEDB67A93F84F
:10116800F824B548602101FB0233B3F8FE3307EEDB
:10117800903AF8EEE77A67EE877AFDEEE77A17EEAF
:10118800901A0AE1AA4BAD4893F8F824602101FBB4
:10119800023393F8001400E1A54BA94893F8F8240A
:1011A800602101FB0233B3F80214F6E0A04BA54816
:1011B80093F8F824602101FB0233B3F80414ECE03F
:1011C8009B4BA14893F8F824602101FB0233B3F844
:1011D8000614E2E0964B9D4893F8F824602101FB41
:1011E800023393F80814D8E0914B994893F8F824FF
:1011F800602101FB023393F80914CEE08C4B95482B
:1012080093F8F824602101FB023393F80A14C4E030
:10121800874B914893F8F824602101FB023393F837
:101228000B14BAE0824B8D4893F8F824602101FB37
:10123800023393F80C14B0E07D4B894893F8F824F6
:10124800602101FB023393F80D14A6E0784B854822
:1012580093F8F824602101FB0233B3F80E149CE0E4
:10126800734B814893F8F824602101FB0233B3F8EB
:10127800101492E06E4B7D4893F822128DE06C4B6F
:101288007B4893F8231288E0694B7A48B3F8D81161
:1012980083E0674B784893F8DB117EE0644B9FED61
:1012A800657A93F8DC31754807EE903AF8EEE77AFC
:1012B80067EE877AFDEEE77A17EE901A6DE05C4BE1
:1012C8009FED5C7AB3F8DE316D4807EE903AF8EEA0
:1012D800E77A67EE877AFDEEE77A17EE901A5CE018
:1012E800534B9FED547AB3F8E031664807EE903AD5
:1012F800F8EEE77A67EE877AFDEEE77A17EE901A4E
:101308004BE04B4B9FED4B7AD3ED7D7A5E4867EE11
:10131800877AFDEEE77A17EE901A3EE0444B5B4879
:1013280093F8D51139E0424B594893F8EA1134E063
:101338003F4B584893F8E9112FE03D4B564893F836
:1013480095122AE03A4B554893F8561225E0384B47
:10135800534893F8571220E0354B5248B3F85A12C5
:101368001BE0334B504893F8481216E0304B4F4877
:1013780093F8E31011E02E4B4D4893F8E2100CE07F
:101388002B4B4C48B3F8DE1007E0294B4A4893F83A
:10139800E71102E0264B4948996814F0DFFF336BE8
:1013A80001333363A0E0464B1B689F011AD5454EB5
:1013B800B6F84030B3B9444BD6F844801F6845208E
:1013C80014F0F2FE0E2014F0EFFE404614F0A6FFD3
:1013D800384614F0A3FF4FF48053F3870A23237091
:1013E8000AF0AAF90AF082FC7EE0364B93F848200E
:1013F800002AF5D0324A12689601F1D493F84930A0
:10140800002BEDD109232370ECE7304B2D4E1A68E1
:10141800736BC833934205D2054B93F8A575002F1B
:1014280060D155E014F02CFE0028F5D15CE000BF37
:10143800D02F00200000C8421FEA010835EA010841
:1014480044EA010860EA010876EA010885EA010829
:101458009CEA0108B5EA0108C9EA0108DEEA0108C0
:10146800F2EA010809EB01081EEB010834EB010858
:1014780030EB010840EB01084CEB01085EEB01087A
:1014880071EB010882EB010897EB0108A5EB010855
:10149800B5EB0108C6EB0108D6EB0108EFEB010834
:1014A80003EC010820EC01083DEC010852EC0108AE
:1014B80067EC01087CEC01088EEC01089CEC010843
:1014C8000C210020EC0A002070390020442800205C
:1014D800706A0EF082FB96F84A307762022B01D1CF
:1014E80011F042F90123237014F0B4FD50B1012327
:1014F8002370AC4B93F84920002A47D0002283F888
:10150800492043E0A84B93F8A6251946002A3DD068
:101518002B68DD044FF000064CBFB1F8DA20B1F8B3
:10152800D020A24D334635F913000133904218BF3D
:1015380046F001060C2BF6D19D4B9A4D1B6826B13F
:1015480003F59C530833EB6402E0EA6C9A4213D922
:101558002378012B1AD195F84930BBB991F8A535F4
:101568002BB104F0DBFA012385F849300EE0802026
:1015780011F0F2F850B9F4E72378012B06D095F86A
:1015880049301BB10AF084FC85F84960059B1B783B
:10159800072B05D10FF05EFD864BCBEB0000588082
:1015A800804B00221A70844C7E4E636813A89847BB
:1015B800A146002800F05B81804DBDF94C302B60BE
:1015C800BDF94E306B6096F85020BDF95030AB60D5
:1015D8002946284608F0E6F9794B1A889B46002ADE
:1015E80000F0AC80774BDFED788A1B681B7800270A
:1015F80008EE103A06F1540806F16004BA4606F1FE
:101608009C014FF47A72D9F81430B2FBF3F3C3EBB0
:10161800431203EB8203BBF800E0DB009BB29E455C
:1016280008BFC8F800A0D8F8003008BFC4F810A058
:10163800184655F82730184455F82730C8F80000E0
:1016480007EE903A23690133012B4FEA8702F8EE3F
:10165800E77A236106D1C4ED017AC4ED007AC4EDBE
:10166800028A1BE0D4ED005A07EE103A37EEE56A1D
:10167800F8EEC76A86EE267AD4ED026A37EE257A46
:1016880077EEC77A84ED017AE6EE276A84ED007A70
:10169800F0EE667AC4ED036AC4ED026ABEF1010F8A
:1016A80045F802A042F801A035D123690791012B22
:1016B800C3BF03F1FF3307EE903A94ED037A9FED31
:1016C800420A0692C4BFF8EEE77A87EE270A18F0B6
:1016D80047FC069A079918EE103A4BB1F8EEC87A0B
:1016E800F4EEC07AF1EE10FA02D508F04AF925E0D6
:1016F8004FF47A70D9F81430B0FBF3F3C3EB43100E
:1017080003EB8003DB0098B2D8F8003003EB5003FA
:1017180093FBF0F353500137032F08F1040804F149
:1017280014047FF46EAFBBF80000012801D10EF05D
:101738004DFEBBF80030013BABF80030234C0023D2
:1017480055F8231054F823001C4A091A45F82310A9
:101758000133032BF4D11E4F1E4C3B78002B74D061
:10176800DFF85090DFF878B04FF0000A059B1A7840
:10177800194B032A04BF55F82A2029F81A201A7889
:10178800012A4FEA8A082DD155F80830134A07EE86
:10179800903A1C20B8EEE70A00FB0A200DF0F8FC8E
:1017A8002EE000BFEC0A0020D02F0020003A0020D5
:1017B8004428002060130020F01200203029002067
:1017C800EE1200203C12002000000000880B0020D0
:1017D80040120020E02A002044120020940B002030
:1017E800EC0B002055F80830D6ED3F0A397807EEA3
:1017F800903A0C20B8EEE70A00FB0AB00DF082FD23
:10180800059B84ED000A1A78082A05D194ED000A90
:1018180018F0A2F829F81A00B34A12884AB1B34A54
:1018280094ED000A1C2000FB0A200DF0B1FC84EDA9
:10183800000AB4EC010A18F08FF80AF1010ABAF1AB
:10184800030F45F8080091D111E0D2ED007AF8EEC7
:10185800E77AC4ED007AD2ED017AF8EEE77AC4EDC2
:10186800017AD2ED027AF8EEE77AC4ED027A96F8B8
:1018780078312BB19E4A013B82F8783100F087BD60
:101888009C4B93F8DC211D4622B193F8E631013BCD
:10189800DBB200E0012386F878310FF0DBFB964BD2
:1018A800964CD3F80080964BB5F83212A3F1520249
:1018B80007462068C047059B1B78072B04D10FF00B
:1018C800C9FB904BC01B98800FF0C4FB059B06908A
:1018D80093F800A0BAF1010F0AD18B49D6F87C31F0
:1018E800884A0968C6F87C01C31A93805B1AD380BA
:1018F800864B22681B68EBB192F83120CAB1844A42
:101908001268940718D5834A1178012914D9DB780D
:10191800814859430088CB1A98420AB203DB8842AF
:101928000346A8BF0B461BB2120392FBF3F2012336
:1019380005E013461A4602E001234FF48052774926
:10194800C9780D912BB1BDF9541051430913ADF865
:1019580054107349734E91F800807349DFF8A491CD
:10196800B1F902000890B1F9000009906F48B1F987
:101978000410D0F800C005910025294628464045A6
:101988003DD29CF90040059FD6ED016A96ED026AAA
:1019980064427C4307EE904AB8EEE77ADDED097AB7
:1019A800F8EEE77A0DF1540E67EEA67ADDED086AD7
:1019B800F8EEE66AE6EE867AD6ED036AE7EE267A70
:1019C800FDEEE77ACDED077ABDF91C400BB1544323
:1019D80024132EF8104015AC34F910408C4203DC67
:1019E800A542A8BF254600E02146BAF1050F03D15C
:1019F800042898BF29F8104001301036BFE7444B3F
:101A08004B4C1868491B10F4805209B240D0494B1E
:101A1800494D1B78DFF8D8E0484F13F0040F01BF99
:101A28002B681E8A324BA3F84062B4F90660444C16
:101A38002B6824681B8AE588C5EB030C664508DC1F
:101A4800B4F900303C68AEF84062B4F9004035445F
:101A58000AE02B449E4209DB3B68B4F90240B3F923
:101A68000230AEF84062751B2DB219E0BEF9403263
:101A78009C45ABBFB4F900303B683C68B4F9024000
:101A8800ABBFB4F90040B3F902301D46254607E064
:101A98002A4BB4F906501B68B3F90040B3F9023079
:101AA800134E9BB2A4B2C4EB030A0FFA8AFA51454B
:101AB80048DD4FEA0A33002793FBF1F1C6F84412D8
:101AC800B8450AD915AB33F917E001FB0EFE4FEA0A
:101AD8002E3E23F817E00137F2E702239AFBF3F3CF
:101AE8001C4424B20A9435E042120020100C002055
:101AF800EC0A0020D02F0020B4000020141400208D
:101B080010320020601300204029002038130020E4
:101B1800D0200020F804002088130020DC200020BA
:101B28003F2900206C0C0020D829002060120020DA
:101B38001C2900201021002064120020182C0020ED
:101B4800142C0020022791FBF7F15B1A0C441BB2FE
:101B580024B20A93B6F94032654E0C933768654E45
:101B6800654B36786549DFF8B8E11B680968DFF826
:101B7800B49106F00406F6B2079600F01000BEF91C
:101B880006600B964FF0000B0E90D84559D915A852
:101B980007EE905A30F81BC0594800EB0B1090ED37
:101BA800007AF8EEE77AA64667EE877AFDEEE77ADE
:101BB80017EE900AA04204DB0A9E8642A8BF06469A
:101BC800B6460CEB0E000D9E00B229F8020F16B1B6
:101BD800B7F804E013E082B1B3F810E0B1F806C03A
:101BE8000C9ECCEB0E0E764504DCB7F800E0B1F89D
:101BF80000C006E0B1F802E001E0B7F800E0B7F88D
:101C080002C0704503DB8445E646A8BF86460E98A9
:101C1800A9F800E090B1079880B17AB911921091B3
:101C28000F930EF0ADFB0F9B1099119A30B9588A9B
:101C38000B9E8642BCBFB888A9F800000BF1010BC7
:101C4800A3E73C894CB32F494FF47A700968B0FB7D
:101C5800F1F1B4FBF1F1012905D942F2107081428A
:101C6800A8BF014600E0022109B28A4515DD264DCC
:101C780026483C8835F918E000EB4807A645B7F92F
:101C8800487203DB7C187445A8BF744624B200EB85
:101C9800480025F81840A0F84842079919B90E4697
:101CA8001B48194906E0194991F86002192800F201
:101CB800438107E0B045F6D930F8164021F81640C0
:101CC8000136F7E7012101FA00F012490140002925
:101CD80000F0328110490988C80525D50F4B1A88AC
:101CE800ADF86C205A88ADF86E209B882FE000BFB5
:101CF800182C00201021002064120020142C002031
:101D08006C0C002040290020302B0020EC0A002019
:101D1800003A002032413003082100201C2900200D
:101D2800743600202E2B0020BDF82410ADF86C105E
:101D3800BDF82010ADF86E10BDF81410ADF8701095
:101D48003AB11B8A0B9A9A4203DA059B5B42ADF8BB
:101D58007030AD48B0F902304FF47A7203F5E163A0
:101D68004FF46161534393FBF1F3A3F5FA73ADF8B4
:101D78008430B0F9003003F5E1635A43A34B92FB7A
:101D8800F1F21B88A3F2DC53ADF87230A04BA2F538
:101D9800FA72ADF886201B689E4A1B8A1188C91AF8
:101DA800ADF874105188C91AADF876109188C91A1F
:101DB800ADF87810D188C91AADF87A101189C91A06
:101DC800ADF87C105189C91AADF87E109189D28975
:101DD800C91AD31AADF882308F4AADF880100023A3
:101DE800194622F813100133082BFAD18B4A8C4B71
:101DF800126805928B4A1B7812688B490792072252
:101E080002FB0313894DDFF810A20A934FF0640810
:101E18004FF001090A9B8B4273D00B782BB1153315
:101E2800059A09FA03F3134067D011F806EC079BEB
:101E380011F9010C11F805CCCEEBCE0703EB4707DF
:101E48004FEA4C06B7F90230B7F9002009909A1A00
:101E580092B211F9023C11F8030C4FEA520B5343AA
:101E680093FBF8F3CBEB03031BB2089328B922A822
:101E7800064436F81C0C288019E022AB1E44B5F93C
:101E8800004036F91C6CB44208DA2044844203DC72
:101E980086423446A8BF04462C8008E007DD201A95
:101EA800B04203DB8442A8BF044626462E80D7F8FA
:101EB8000A0011F9046C089B09FA0CFC10EA0C0FD3
:101EC800B5F900000CBF01244FF0FF3416FB00F0F9
:101ED80090FBF8F0984209DB099B534393FBF8F316
:101EE800CBEB03031BB28342A8BF03463AF81EB0EC
:101EF80004FB03B32AF81E3000E02B8002350731BB
:101F080088E7484B4A4ED3F8008000254FF00E0969
:101F1800642709FB0583E8B293F9064036F9023FC6
:101F280014FB03F494FBF7F434800EF025FF01351D
:101F38002044082D3080ECD13E4C3A4D236813F0F4
:101F4800200F33D000200EF017FF334E07463080A5
:101F580001200EF011FF314B70801B68190625D542
:101F6800354B294A1B681B78012B24D1D5F80080F2
:101F7800B2F9021098F90630B2F900205B424B43DF
:101F88004FF0320C93FBFCF31FFA83FE98F91430E0
:101F98006FF0310113FB02F393FBF1F17144791AED
:101FA80093FBFCF373443180184470802B68204AFB
:101FB80003F170061AE0D5F800E0B2F902309EF994
:101FC800061011FB03F1322391FBF3F13944318000
:101FD8009EF91470B2F9001017FB01F292FBF3F2AC
:101FE8001044E2E70E339E42118027D032F9020FE7
:101FF800B3F90010B3F902708842F3DB874239461F
:10200800A8BF0146EEE700BF28290020302B00209A
:102018006412002074360020740E00200C21002069
:102028001C2C0020942C0020232C00204E0D002076
:10203800720E0020D02000205C120020BF4BC04E42
:102048001A6892F904209A46A2B996F860727B1E23
:10205800182B00F29980DFE803F054979770979750
:10206800976997979797977B979797979770899777
:10207800977B5400DFF8D4B20023A6F88232B0462A
:10208800D946B6F98272072FDFDC98F88422AD4B67
:1020980092B9DAF800200593528800EE102AAA4A6D
:1020A8001C20116800FB0730B8EE400A0DF0FAF862
:1020B8000122059B88F884223BF9172000EE102A9C
:1020C8001C2000FB0730B8EEC00A0DF061F817F0CD
:1020D80043FC2A6800B2C7EBC7032BF8170002EBD2
:1020E8004303B3F90020B3F90230904203DB834283
:1020F800A8BF03461A4629F817200137A6F88272A6
:10210800BFE7DAF800305B781BB1904B00205989A3
:1021180008E08F4B1B7803F0040303F0FF01002B4A
:10212800F3D108460FF0ACF901252EE0874D0020C9
:10213800E9880FF0A5F9298905E0844D002029894F
:102148000FF09EF9698901200FF09AF902251CE029
:10215800DFF8F8810225A81E38F81510C0B201353D
:102168000FF08EF9082DF6D106250EE0DFF8DC8198
:102178000325E81E38F81510C0B201350FF080F9B4
:10218800072DF6D1042500E0002523689A0601D41E
:10219800052F0BD16D4F284639880FF071F9681C4F
:1021A8007988C0B20FF06CF90235EDB22368DB0212
:1021B80005D496F8683373B10EF034FD0BE0654F23
:1021C8000024281937F8021FC0B20FF059F90D2C56
:1021D800EFD00134F5E7604B1B78072B05D10EF0E3
:1021E80039FF069BC01A5D4BD88001233370CEE0BF
:1021F8002A8857063EF591AADFF84481584F98F887
:102208001E209A4215D007EE903A9FED568A88F81C
:102218001E30F8EEE77A27EE888AB0EE480A0CF00E
:10222800AFFF87ED000AB0EE480A0CF048FF88EDD2
:10223800080AB4F90030D6ED085A97ED006A4A4A00
:1022480007EE903AB4F9043006EE903AF8EEE66AF2
:10225800F8EEE77A25EEE67AA7EE867A67EEA57AB3
:10226800BDEEC77AE6EE267A17EE103AB3F5FA7F96
:10227800A8BF4FF4FA739342FDEEE77AB8BF13464E
:10228800238017EE903AB3F5FA7FA8BF4FF4FA739C
:102298009342B8BF1346A380FEF73FBADFED336A17
:1022A800FEF7C5BAF4EEE47AF1EE10FA09D4DFEDE0
:1022B800306AF4EE667AF1EE10FAC8BFF0EE667A8C
:1022C80001E0DFED2C7AC1ED007A94F83450632DEB
:1022D8003EF6B4AA022B3EF4B1AA002F7EF4AEAAB1
:1022E80006EE905AF8EEE66A86EE865AF0EE476AEF
:1022F800D7EE856A77EE267AFEF7A0BA012D08BFD9
:1023080081ED007AF0EE477AFEF798BAF0EE477A58
:10231800FEF7B8BAF4EEE47AF1EE10FA0AD49FEDBB
:10232800147AF4EEC77AF1EE10FAC8BFF0EE477AE5
:10233800FEF7A8BADFED0F7AFEF7A4BA6012002004
:10234800EC0A0020740D002040290020740E0020A3
:10235800102100207A3600205E1300206013002030
:102368000000002035FA8E3C0CFEFFFF0AD7233C04
:1023780000C0F94400C0F9C413F082FE00283FF4FD
:10238800B3A84FF48053F3870A23FFF7ACB823B000
:10239800BDEC048BBDE8F08F2DE9F04F914BADB04B
:1023A8001D780093002D00F0A7808F4B1868002837
:1023B80002F0618005F010FADFF85C92DFF85C82C9
:1023C800D9F800000AF030F8002802F05480D9F853
:1023D8000000864C0AF025F8092801D03F2855D17D
:1023E8004FF0000A2668574655460AEB080B36B1E7
:1023F80032465AF808107E4819F02EFC20B90DB163
:102408005F4601E05D465F460AF1100ABAF5147F9F
:10241800EBD1F5B1D5F800A0D7F800B0DFF8D0C1FE
:1024280023681AF803001BF80310814211D15A1CC3
:10243800DFF8BCE149B92D2B07D86C480260202091
:102448000EF803000EF8021003E00CF803002260F7
:10245800E6E723680BB1BD420FD0664813F0D2F906
:10246800BD4207D855F8100B13F0CCF9092013F02A
:102478002BF8F5E70BF070FA00265D4D23689E42B5
:102488009ED2A85D13F020F80136F7E723686BB9F0
:10249800042804D1564813F093FA01F0ECBF0C2835
:1024A80041F0E587544813F0ADF922E00C28F9D043
:1024B8000A2841F090874E4E504813F0A3F9232183
:1024C800304619F0BAFB354608B1801B20602368F6
:1024D8000022002B41F08387002A41F09B8730229D
:1024E8000021434819F074FB009B1B78002B01F076
:1024F800C2870BF031FA63E7414B03F13007414BD8
:10250800EA18EB58002B01F0FC803F493F4C0B6068
:102518000593002322608DF819303D4A3D48049206
:1025280014238DF8183004AB03602646894692467A
:10253800D9F80000DFF8D08009F076FF002801F014
:10254800CC80D8F8000009F06CFF336893F8481085
:10255800834619B9242863D101221DE0012903D13A
:102568004D2808BF022204E0022907D13C2808BFF1
:10257800032218BF002283F8482085E003290ED1E2
:1025880040284FF0000102D983F84810D0E758716D
:102598001971D9719871042283F84820C8E7042971
:1025A80007D1997983F8490080EA01029A710522D6
:1025B800F2E7052968D1587919798842987908D9B4
:1025C8008BEA00009871481C18710B4483F808B016
:1025D800AEE7584503D1062283F848205AE0002286
:1025E800DAE700BF4C3A0020FC390020483A0020C6
:1025F800183A0020ADED0108B2ED0108F7F4010822
:1026080048C10108CC3500203821002030210020A5
:102618003DC4000834210020E8390020CCE401083A
:10262800D4490B7803F0040303F0FF0E002B7FF46A
:102638007FAF23281DD1009AD8F80000019101230B
:102648001370CD4B1860CD4B1860CD4B58601020DF
:102658001872CC48C3F800A0036083F809E0CA48A0
:1026680013F0D0F80BF078F901990B7843F00203D6
:102678000B70C64B1B681B785B4505D1C44BC54A1C
:102688001A60C54BC54ADA60336893F84820062AB1
:102698007FF44EAF93F84980B8F15A0F00F0958750
:1026A80000F2FB80B8F1360F00F09E8673D8B8F1BF
:1026B800240F00F0D0852DD8B8F1040F00F0648203
:1026C80015D8B8F1020F00F0448200F25182B8F137
:1026D800010F40F0E28703200AF048FE00200AF0CC
:1026E80000FE40460AF0FDFD142000F0D3BFB8F10B
:1026F8000A0F00F08482B8F1220F00F02284B8F1AA
:10270800050F40F0CA871A200AF030FE0026DFF8CD
:10271800A48247E2B8F12C0F00F0CB851BD8B8F1A2
:10272800280F00F0AD85B8F12A0F00F0BC85B8F18C
:10273800260F40F0B2879A4E06200AF017FEB6F828
:10274800C8010AF016FEB6F8CC010AF012FEB6F877
:10275800D00100F08EBFB8F1300F00F071860BD8B1
:10276800B8F12E0F40F099878D4E40200AF0FEFDFB
:1027780006F1400800F054BEB8F1320F00F00286AE
:10278800B8F1340F40F08987854E5A200AF0EEFDE3
:1027980006F15A08F6E3B8F1460F00F092862AD8F7
:1027A800B8F13D0F00F0648311D8B8F13A0F00F08A
:1027B8000383B8F13B0F00F0BD83B8F1380F40F048
:1027C8006C8704200AF0D2FD754E00F04ABDB8F1BE
:1027D800420F00F0E885B8F1450F00F0C086B8F167
:1027E800400F40F05A8708200AF0C0FD0026DFF8A5
:1027F800B08100F0CEBDB8F14D0F00F0A0852BD808
:10280800B8F1490F00F04083B8F14B0F00F07C8518
:10281800B8F1470F40F041870AF05AFD0646842078
:102828000AF0A4FD30460AF0ADFD5E4BDA6806F109
:10283800800393428CBFC6EB02094FF080090DF16B
:10284800300803F067FC4A463046414603F0A0FCD6
:102858000026814600F049BEB8F1500F00F06886A6
:1028680011D8B8F14F0F40F018870B200AF07EFD01
:1028780000200AF036FD00200AF033FD00200AF09F
:1028880030FD00F079BEB8F1520F00F06386B8F160
:10289800540F00F05F8600F000BFB8F1720F00F02F
:1028A800DA8300F2B680B8F1680F00F0508200F2C7
:1028B8008380B8F1640F00F092812DD8B8F15E0FD3
:1028C80000F0A286B8F1600F00F0D686B8F15C0F70
:1028D80040F0E386DFF8C880334E0D200AF046FD4D
:1028E80098F8DC010AF0FDFC3368188C0AF041FD09
:1028F8003368588C0AF03DFDB8F8DE010AF039FD5E
:10290800B8F8E0010AF035FD3368988C0AF031FD1B
:102918003368D88C00F0ADBEB8F1660F00F0818145
:1029280000F2AB810B200AF021FD204B18880AF039
:1029380020FD00200AF01DFD1D4B1B68C3F3C000DD
:10294800C3F38002800040EA4200C3F34002104310
:10295800C3F3401240EAC20003F0100318430AF020
:1029680008FD0AF0EBFB0AF00DFD0D4B93F8F80497
:1029780000F090BE10210020E839002098210020A6
:10298800580E0020FC390020DDED010898350020A4
:10299800FC9F0020EFBEADDE00ED00E00400FA056C
:1029A800D02F0020C803002014140020F01E00209F
:1029B800E01E0020D8E70108B8F16C0F00F0E181B3
:1029C80012D8B8F16A0F00F0888300F2A583DFF807
:1029D8002084DFF8209498F80000400000F0FE0002
:1029E8000AF0C4FC0026C1E1B8F16E0F00F01A82AB
:1029F800C0F0D781B8F16F0F00F04C82B8F1700FBA
:102A080040F04B861E200AF0B1FC0026DFF8E88370
:102A180072E2B8F17D0F00F0B68529D8B8F1760FCB
:102A280000F08B830AD8B8F1740F00F08D8040F263
:102A380049832F200AF09AFCE14E73E2B8F1780F2F
:102A480000F02A81C0F0E782B8F17C0F40F02586BB
:102A5800DC4E06200AF08AFCB6F8D6000AF089FC9B
:102A6800B6F8D8000AF085FCB6F8DA0000F001BE26
:102A7800B8F1A00F00F0E1833DD8B8F17F0F00F066
:102A8800EC84C0F09385B8F1960F40F006860F20CD
:102A98000AF06CFCCC4B18880AF06BFC00200AF09A
:102AA80068FCCA4B1B68C3F3C000C3F380028000F4
:102AB80040EA4200C3F340021043C3F3401240EA25
:102AC800C20003F0100318430AF053FC0AF036FB67
:102AD8000AF058FCBB4B93F8F8040AF002FCBC4B14
:102AE80018886428A8BF64200AF043FC03200AF071
:102AF800F8FBB84B23E2B8F1F00F00F0938314D839
:102B0800B8F1A40F40F0C985DFF8F08298F82F00DB
:102B180080000130C0B20AF029FC98F82F000AF0B2
:102B2800E0FB002608F1300A58E3B8F1F10F00F095
:102B3800E780B8F1FE0F40F0B08508200AF016FCD7
:102B48000026DFF8BC8265E34FF000094FF0010B67
:102B58003EE204200AF00AFCDFF8A882002618F8F2
:102B6800060001360AF0BDFB042EF8D100F0AFBD17
:102B780003200AF0FBFB03200AF0B3FB00200AF055
:102B8800B0FB012000F086BD06200AF0EFFBDFF85D
:102B98007882002618F8060001360AF0A2FB042EF7
:102BA800F8D167E018F8060001360AF09AFB0B2EF8
:102BB800F8D1DFF85882002618F8060001360AF026
:102BC80090FB082EF8D1DFF84882002618F8060096
:102BD80001360AF086FB072EF8D100F078BD0720F1
:102BE8000AF0C4FBE7200AF07CFB764B58790AF020
:102BF80078FB00200AF075FB042000F0C1BC764881
:102C0800DFF8108213F0A6FCC6B230460AF0AEFB1D
:102C18004644B04500F05B8518F8010F0AF061FBE7
:102C2800F7E712200AF0A2FB6C4BDFF8EC911B8946
:102C3800B3F5007F94BF4FF001084FF00408002659
:102C480059F8260090FBF8F0013680B20AF091FBA3
:102C5800032EF5D1624E30880AF08BFBB0880AF05B
:102C680088FB30890AF085FB00200AF082FB0020EF
:102C78000AF07FFB002000F0FCBC10200AF076FB75
:102C8800DFF89881002618F8060001360AF029FBBB
:102C9800102EF8D100F01BBD70204A4E0AF066FBDA
:102CA8004FF0000AB0464FF00E09B6F854010AF08A
:102CB80060FBB6F856010AF05CFBB6F858010AF05A
:102CC80058FB96F85A010AF00CFB96F85B010AF0DB
:102CD80008FB96F85C010AF004FB96F85D010AF01F
:102CE80000FB09FB0A830AF1010AD3F85E010AF026
:102CF80049FBBAF1080F06F10E06D6D100F0E7BC81
:102D08007020304E0AF032FB06F1700896F8E400A5
:102D18000AF0E7FA96F8E5000AF0E3FA96F8E60012
:102D28000AF0DFFA96F8E7000AF0DBFA96F8E8000E
:102D38000AF0D7FA96F8E9000AF0D3FA073696F8B7
:102D4800E3000AF0CEFAB045E0D100F0C0BC102094
:102D58000AF00CFBDFF8C880002618F806000136D8
:102D68000AF0BFFA102EF8D100F0B1BC98F8003084
:102D78009E4280F0AC8439F816000AF0FAFA01365F
:102D8800F4E7184E06200AF0F1FA30880AF0F1FA52
:102D980070880AF0EEFAB6F904300A2093FBF0F0D6
:102DA80060E006200AF0E2FA0F4B18680AF0EAFA27
:102DB8000E4B188800F05DBC04200AF0D7FADEE359
:102DC80047C10108D02F0020F01E0020E01E00207F
:102DD800A4120020C820002082350020E41E002014
:102DE8003029002028290020E81100201411002093
:102DF800C43600207436002014140020580E002019
:102E08006013002015EE010894E70108CFE70108D8
:102E180099E701088135002008110020740E002070
:102E2800302B002007200AF0A1FAC94B1888FF2888
:102E3800A8BFFF20C0B20AF054FAC64B186880F346
:102E4800100080B20AF095FAC34B18880AF091FA7C
:102E5800C24B93F81F22C24B186832B10A23584359
:102E680080F3100080B200F004BC00F30F00F9E713
:102E7800BA4E02200AF07AFA96F897020AF031FA66
:102E880096F8960200F006BC02200AF06FFAB54BDD
:102E9800988AEEE3B44E0C200AF068FA3368187882
:102EA8000AF01FFA336898780AF01BFA4FF0000905
:102EB800B046D8F80030AC4E4B4409F101095879B6
:102EC8000AF00FFAB9F1030FF3D13368187A0AF050
:102ED80008FA3368D8780AF004FA336818790AF0DF
:102EE80000FA336858890AF044FA3368587A0AF0C5
:102EF800F8F933685878CDE3D8F800303344587877
:102F08000AF0EFF9D8F800303344D87A0AF0E9F932
:102F1800D8F8003033440136587D0AF0E2F90A2E19
:102F2800EAD1D4E316F8010F002800F0D0830AF0A4
:102F3800D8F9F7E701200AF019FA8C4B1B681878C2
:102F4800A8E35020854E0AF011FA06F150084FF018
:102F58000C09874A96F8F93409FB0323043693F8D9
:102F680038000AF0BEF996F8F6040AF0BAF996F8AD
:102F7800F7040AF0B6F996F8F8040AF0B2F9B04581
:102F8800E7D1A4E396F84E050AF0ABF996F849059F
:102F98000AF0A7F996F84A050AF0A3F996F84B053E
:102FA8000AF09FF996F84C050AF09BF9063696F850
:102FB80047050AF096F94645E4D188E3BBF1000FCE
:102FC80000F085835FFA89F00AF0D0F94FF0000B22
:102FD8000026684B1B789E42F0DA674BF05C0021B4
:102FE8004FF00C0E0EFB01F313F807C0844503D015
:102FF80001311F29F6D10CE05D4A1344D3F834A0FF
:10300800504613F0A7FA0146BBF1000F00F07F838A
:1030180089440136DDE7DFF85C81DFF85CA198F8C8
:103028000000DFF84C910AF0A1F9002698F800306A
:103038009E4280F04C8316F80A1000220C2000FBF8
:1030480002F313F807E08E4500F06E8301321F2A61
:10305800F5D10136EAE7414E16200AF087F9B6F8AD
:1030680050020AF086F9B6F8CC000AF082F9B6F8F0
:10307800CE000AF07EF9B6F8D0000AF07AF9B6F870
:10308800A8020AF076F996F8A1020AF02AF90020B7
:103098000AF027F996F8A2020AF023F996F81F0217
:1030A8000AF01FF996F84C020AF01BF900200AF002
:1030B80018F9B6F9EC310A2093FBF0F080B20AF067
:1030C80058F9CEE008200AF051F90126F0B201368D
:1030D8000AF007F9092EF9D1F9E210200AF046F9A9
:1030E800264B274E187800F002000AF0FAF8254B14
:1030F80018780AF0F6F830680AF044F970680AF0AF
:1031080041F9214B18880AF034F9204B18880AF045
:1031180030F91F4B988DACE205200AF027F91D4BBA
:1031280018880AF026F91C4B18880AF022F9184B5F
:1031380093F82E0000F00100ACE20AF0B3F88146E3
:1031480012200AF013F9B9F1000F29D1134B2BE023
:10315800881300203C13002048220020D02F002094
:1031680024110020F0120020001200201414002066
:1031780048C1010811210020122100202811002037
:10318800301100202E1100202C1100202A110020BF
:10319800580E0020A0110020A2110020EC110020E0
:1031A800B9F1100F04D1D54BD3F800805E6801E067
:1031B8000026B04648460AF094F840460AF0E2F87D
:1031C80030460AF0DFF8CE4B18680AF0DBF800202A
:1031D8000AF0CFF800200AF0CCF8BEE198F82F30BA
:1031E8009E4280F07482DFF83C931AF806000AF0D9
:1031F80078F819F806000AF074F809F1100309F1D3
:103208002009985D0AF06DF819F806000AF069F8C7
:103218000136E3E738F8160001360AF0AAF8042E5A
:10322800F8D154E2B74E04200AF0A0F8B6F8F0013D
:103238000AF09FF8B6F8EE011BE20C200AF096F8A7
:10324800B14B18680AF09EF8B04B18680AF09AF863
:10325800AF4B186894E104200AF088F8A94B9868E5
:103268008EE196F812020AF03CF896F816020AF077
:1032780038F896F815020AF034F896F8170209E2B9
:10328800A04E07200AF072F8B6F81A020AF071F890
:10329800B6F81C020AF06DF896F81E020AF021F83A
:1032A800B6F82002E5E101200AF060F8954B58795C
:1032B800F0E1944E10200AF059F896F848020AF006
:1032C80010F8B6F854020AF054F8B6F850020AF0AA
:1032D80050F8B6F852020AF04CF896F84A020AF08A
:1032E80000F8B6F85C020AF044F8B6F85E020AF094
:1032F80040F896F8560209F0F4FF96F8570209F0DC
:10330800F0FFB6F85A02B4E17E4E08200AF02EF813
:1033180096F8A60209F0E5FF96F8A70209F0E1FF82
:10332800B6F8A8020AF025F896F8AA0209F0D9FF1B
:10333800B6F8AC020AF01DF896F8AE02AAE1754E8E
:10334800DFF8E481307800EB4000C0B20AF00EF8F4
:103358004FF000093378994508F1020880F0B781E9
:1033680018F8020C09F0BDFF18F8010C00EB8000FA
:1033780000EB800000F2EE2080B209F0FAFF09F1BC
:103388000109E7E7012009F0F1FF5E4B93F84C02D1
:1033980080E106EB0803013693F8400209F0A1FF2B
:1033A800082EF6D193E1574E102009F0DFFF70790F
:1033B80009F097FFB06809F0E5FF96F8480209F0B0
:1033C80090FFB6F8C80109F0D4FFB6F8CC0109F0AF
:1033D800D0FFB6F8D00109F0CCFFB6F81A0209F010
:1033E800C8FFB6F81C0244E14B4B464E93F87000F8
:1033F800DFF83891C0EBC000C0B209F0B7FF06F1A2
:10340800200896F9B202002313F90920824200F03D
:1034180091810C33302BF7D10836B045F1D156E104
:10342800B6F8680309F0A5FF96F86A0309F059FF92
:10343800043696F8670309F054FF4645F0D146E193
:103448008020364E09F092FF06F1800856F8040FE6
:1034580009F098FFB045F9D139E18D2009F086FFD0
:1034680000264FF0060A0AFB06F94FF0000B5FFA38
:1034780086F8404609F035FF5FFA8BF009F031FF16
:10348800204B0BEB090119440BF1010B91F8A80330
:1034980009F027FFBBF1060FEBD10136062EE2D16A
:1034A8000026062009F01DFFF0B209F01AFF154B9F
:1034B8003344013693F8CC0309F013FF0B2EF0D1F7
:1034C80005E10D2009F052FF02F042FD144E40F0D4
:1034D8000200C0B209F005FF308809F053FFF06818
:1034E80009F050FF02F014FD4AE04E4580F2EF80EB
:1034F80018F8060009F0F5FE0136F6E74C10002032
:10350800A8390020D02F0020ACF7FF1FB0F7FF1F0D
:10351800B4F7FF1FC4360020580E0020B432002034
:10352800C8030020980E0020303200209C3500206F
:10353800C94E042009F01AFF012009F0D2FE96F8BE
:10354800A50509F0CEFE96F8A30509F0CAFE96F87F
:10355800A4059FE0012009F009FF00209AE013204C
:1035680009F004FFDFF81083002618F8060001367A
:1035780009F0B7FE0B2EF8D1002009F003FF002058
:1035880009F000FFA3E0B44E052009F0EFFE96F81D
:10359800220209F0A6FE96F8230209F0A2FE96F888
:1035A800240209F09EFEB6F8DC0062E0AA4E032071
:1035B80009F0DCFE96F8C50109F093FE96F8C601FD
:1035C80009F08FFE96F8C70164E0A34E062009F0C3
:1035D800CDFEB6F8D83123B1082009F082FE0120CB
:1035E80005E096F8DA0109F07CFE96F8E60109F0A4
:1035F80078FE96F8E30009F074FE96F8E20009F008
:1036080070FEB6F8DE0034E0944E112009F0AEFEEC
:103618003368588D09F0ADFE3368988D09F0A9FE1E
:103628003368D88D09F0A5FE336893F8280009F0AF
:1036380058FE336893F8310009F053FE336893F865
:10364800340009F04EFE336893F8350009F049FE5E
:10365800002009F046FE002009F043FE336893F885
:10366800330009F03EFE3368188F09F082FE336894
:10367800D88E09F07EFE2AE0774E032009F076FE08
:1036880096F8D50109F02DFE96F8EA0109F029FE11
:1036980096F8E90109F025FE19E0B8F15D0F61D04F
:1036A80040F28A80B8F1D20F40F00D8309F0FAFD9C
:1036B800020600F100836A4B1B785B0704D40328D9
:1036C80028BF002004F038FB002009F04FFE09F065
:1036D80019FE2368002283F84820624B624C186860
:1036E80004F07AF894F871305BB1604B58590CF0DB
:1036F80069FA0DF0D6FC002384F871305C4B5D4A02
:10370800DA604C35982D7EF4FAAE00F0B4BED0469F
:10371800CAEB08008842BFF67CAC18F8010B01918F
:1037280009F0DFFD0199F3E74B4493F8380009F0FD
:10373800D8FD8EE4C0B209F0D4FDB6F8B40209F0A1
:1037480018FE96F8B60209F0CCFD96F8B70209F013
:10375800C8FD96F8B90209F0C4FD96F8B80209F058
:10376800C0FD59E609F09EFD3C4EDFF8EC80D6F826
:10377800009088F8DC0109F0A1FDA9F82000D6F82E
:10378800009009F09BFD2368A9F822005B79052BBE
:103798009AD909F093FDA8F8DE0109F08FFDA8F881
:1037A800E001D6F8008009F089FDA8F82400366801
:1037B80009F084FDF08487E7B8F1370F33D15B79DE
:1037C8004FF00708B3FBF8F8C8EBC8029B1A13F0D0
:1037D800FF0F02D00CF0B4F876E75FFA88F808F12A
:1037E800FF385FFA88F8B8F1FF0F3FF46DAF09F0C2
:1037F80059FD4FFA80F948460CF002FB06460028AE
:10380800E8D080F8009009F059FD708009F04AFD71
:10381800307109F047FD707109F044FDF07109F04D
:1038280041FDB071DBE700F22981B8F12B0F04D11B
:1038380009F038FD084B587146E700F28880B8F166
:10384800250F1BD1044E0023B36009F041FDB36876
:103858001843B06038E700BFD02F002014140020B0
:103868001021002034210020580E0020CC350020E3
:1038780000ED00E00400FA05D8E7010841D8B8F1E6
:103888000B0F19D111220021D348DFF8549318F0F7
:103898009FF94FF0000833685B79102B28BF10237D
:1038A8009845BFF411AF09F0FDFC08EB090308F1D6
:1038B800010883F8B205EEE7B8F1230F1ED109F02D
:1038C800F1FC1328064685D809F0ECFC00220C21EF
:1038D80001FB02F307EB030E9EF808E0864500F0B3
:1038E800558501321F2AF3D174E7B8F1FA0F40F079
:1038F8001F85BA4B1B785A0740F18C830CF020F8CF
:10390800E5E6B8F1270F0DD109F0D8FCB44EC6F89A
:10391800C80109F0D3FCC6F8CC0109F0CFFCC6F801
:10392800D001D1E6B8F1290FE8D109F0C7FCAC4EB7
:10393800A6F81A0209F0C2FCA6F81C0209F0B2FCAB
:1039480086F81E0209F0BAFCA6F82002BCE6B8F117
:10395800310F13D109F0A6FC1F2806463FF63AAFEF
:1039680023685B79052B7FF435AF09F0B1FCBA36D3
:103978009B4B43F8260010F01DFEA5E64BD8B8F186
:103988002D0F32D109F08EFC954E86F8480209F0C9
:1039980095FCA6F8540209F091FCA6F8500209F02B
:1039A8008DFCA6F8520209F07DFC236886F84A02CD
:1039B8005B79082B07D909F081FCA6F85C0209F0AD
:1039C8007DFCA6F85E0223685B790C2B7FF67CAE43
:1039D80009F068FC86F8560209F064FC86F857027C
:1039E80009F06CFCA6F85A026EE6B8F12F0F85D1E3
:1039F8007B4E06F1400809F061FCA6F8680309F05F
:103A080051FC86F86A0309F04DFC043686F8670312
:103A18004645F0D158E6B8F1330F05D109F042FC1C
:103A28006F4B83F84C024FE6B8F1350F7FF466AF61
:103A380009F038FC0E2880463FF6CCAE09F032FC7F
:103A480003283FF6C7AE664B062606FB083686F8FF
:103A58004E0509F027FC86F8490509F023FC86F88D
:103A68004A0509F01FFC86F84B0509F01BFC86F88F
:103A78004C0509F017FC86F84D0525E6B8F1440F0A
:103A880004D1584B012283F871201DE671D8B8F192
:103A98003E0F09D109F006FC514E86F8970209F04D
:103AA80001FC86F896020FE62BD8B8F1390F11D130
:103AB80009F0F8FB4A4E86F8120209F0F3FB86F883
:103AC800160209F0EFFB86F8150209F0EBFB86F801
:103AD8001702F9E5B8F13C0F7FF410AF424ED6F863
:103AE800008009F0DFFB0128A8BF012088F800004A
:103AF80033681B78012B3D4B14BF3D4A3D4A1A6081
:103B0800E2E5B8F1410F0CD1DFF8D480002609F0C6
:103B1800C9FB06EB08030136082E83F84002F6D1EC
:103B2800D2E5B8F1430F7FF4E9AE2D4E09F0BAFBA8
:103B38000023B360707109F0CBFBB3681843B06021
:103B480009F0B0FB86F8480209F0B8FBC6F8C801CE
:103B580009F0B4FBC6F8CC0109F0B0FBC6F8D001F7
:103B680009F0ACFBA6F81A0209F0A8FBA6F81C029B
:103B7800AAE5B8F14C0F19D109F094FB184E86F854
:103B8800A60209F08FFB86F8A70209F097FBA6F8B2
:103B9800A80209F087FB86F8AA0209F08FFBA6F8AD
:103BA800AC0209F07FFB86F8AE028DE52AD8B8F1A1
:103BB800480F09D102F01AFB0F4A002313700F4A6D
:103BC80013700F4A13607FE5B8F14A0F7FF496AE81
:103BD80009F074FB78E500BF823500201021002031
:103BE800D02F0020580E002014140020B40000200C
:103BF8006DFF0008250601080C1400200D14002094
:103C080010140020B8F1510F12D1C34B1B78012BAF
:103C18003FF65AAD09F046FBC04E86F8A50509F0F7
:103C280041FB86F8A30509F03DFB86F8A4054BE5A2
:103C3800B8F15B0F15D109F035FBB84E86F8DA01FB
:103C480009F030FB86F8E60109F02CFB86F8E30062
:103C580009F028FB86F8E20009F030FBA6F8DE0040
:103C680032E5B8F14E0F7FF449AE09F01BFB11287D
:103C780006463FF6AFAD09F015FBDFF8A08206F562
:103C8800987608F8160009F019FB40F2ED239842DF
:103C9800424605DD40F6CA039842A8BF184601E02F
:103CA80040F2EE2002EB4603A0F2EE20192290FB30
:103CB800F2F0587008E500F07F00032828BF0020C4
:103CC80003F0CEFD00E500F2ED81B8F1CC0F52D142
:103CD8005B79092B7FF67EAD914ED6F8008009F00E
:103CE800E1FA88F80000D6F8008009F0DBFA88F8D5
:103CF800020009F0D7FA33686428A8BF6420587115
:103D080009F0D0FA33686428A8BF6420987109F0D4
:103D1800C9FA3368FF28A8BFFF20D87109F0C2FA92
:103D2800D6F80080642828BF642088F8080009F0C5
:103D3800B9FA88F80300D6F8008009F0B3FA88F8D1
:103D48000400D6F8008009F0B9FA2368A8F80A0038
:103D58005B790A2B05D9D6F8008009F0A3FA88F810
:103D6800090023685B790B2B7FF6AEAC366809F047
:103D780099FA7070A8E400F2E780B8F1C80F28D16A
:103D88005E797608122E3FF625AD4FF00008B04553
:103D980007D209F093FA0CAB23F8180008F10108D0
:103DA800F5E76049324600239E4206DD0CA830F84C
:103DB800130021F813000133F6E75A4B0021122AA9
:103DC80003D023F812100132F9E7574B01221A7079
:103DD8007AE454D8B8F15F0F3FD1544ED6F800803A
:103DE80009F06CFAA8F82A00D6F8008009F066FAFB
:103DF800A8F82C00D6F8008009F060FAA8F82E0080
:103E0800D6F8008009F04EFA88F82800D6F8008025
:103E180009F048FA88F83100D6F8008009F042FA2B
:103E280088F83400D6F8008009F03CFA88F83500A4
:103E380009F038FA09F036FAD6F8008009F032FAB3
:103E480088F83300D6F8008009F038FAA8F8380066
:103E5800366809F033FAF08636E4B8F1610F7FF47A
:103E68004DAD09F01FFA2D4E86F8D50109F01AFA62
:103E780086F8EA0109F016FA86F8E90124E4B8F1AF
:103E8800C90F26D109F00EFA294B1A7810B142F061
:103E9800020201E022F002021A7009F003FA254B2F
:103EA800254E187009F014FA306009F011FA7060A4
:103EB80009F004FA214B188009F000FA204B214A36
:103EC800188092F82E3043F0020382F82E30FFF764
:103ED800FBBBB8F1CA0F7FF411AD144E4FF00008C8
:103EE800D6F8009009F0DEF9C14489F80100D6F847
:103EF800009009F0D7F9C14489F80B00D6F8009072
:103F080009F0D0F9C14408F10108B8F10A0F89F89D
:103F18001500E5D1FFF7D8BB142A0020D02F0020C8
:103F280000120020841D0020D53600201414002023
:103F3800281100202E110020301100202C11002003
:103F48002A110020580E0020B8F1CF0F39D109F0FE
:103F5800B5F96FF4AF6E00EB0E039BB2B54EC62BEE
:103F680098BFA6F8500209F0A9F9A6F8CC0009F004
:103F7800A5F9A6F8CE0009F0A1F9A6F8D00009F035
:103F88009DF9A6F8A80209F08DF986F8A10209F0B2
:103F980089F909F087F986F8A20209F083F986F809
:103FA8001F0209F07FF986F84C0209F07BF909F045
:103FB80085F900EB80004000A6F8EC0109F072F9E1
:103FC80079E51DD8B8F1CD0F0AD19B4B1B7858075E
:103FD8003FF57AAB994B4FF4C8721A80FFF774BB60
:103FE800B8F1CE0F7FF48AAC934B1B7859073FF595
:103FF8006BAB934A137843F004031370FFF764BB69
:10400800B8F1D00F0CD18C4B1B785E073FF55CAB39
:1040180004F094F803F066FC03F000FDFFF754BBCE
:10402800B8F1D10F7FF46AAC09F03CF9824609F087
:104038004FF9814609F04CF9804609F049F90646DE
:1040480009F03CF909F03AF909F02CF9BAF1000F36
:1040580013D17C4B1020C3F80090C3F8048003F000
:10406800D7FB774A137843F001031370002E3FF40F
:104078002BAB754B1E60FFF727BBBAF1100F7FF40F
:1040880023AB724BC3F80090C3F804800EB16E4B9B
:104098001E606F496F4B0222081F1A700EF008F855
:1040A800FFF712BBB8F1DB0F05D16B4B18680AF0AC
:1040B80065FDFFF709BB70D8B8F1D60F0BD1DFF853
:1040C8009C81002609F0FAF828F816000136082E17
:1040D800F8D1FFF7F9BA37D8B8F1D30F3FF478AD74
:1040E800B8F1D40F7FF40AAC5B790F2B7FF472AB75
:1040F80009F0D8F8072880463FF66CAB09F0DEF8DF
:104108004C4B0E2606FB0836A6F8540109F0D6F8E3
:10411800A6F8560109F0D2F8A6F8580109F0C2F835
:1041280086F85A0109F0BEF886F85B0109F0BAF87A
:1041380086F85C0109F0B6F886F85D0109F0C8F860
:10414800C6F85E01FFF7C0BAB8F1D90F0ED109F071
:10415800B5F8384EA6F8D60009F0B0F8A6F8D80099
:1041680009F0ACF8A6F8DA00FFF7AEBAB8F1DA0F42
:104178007FF4C4AB09F096F82E4E86F8220209F0B7
:1041880091F886F8230209F08DF886F8240209F0E0
:1041980095F8A6F8DC00FFF797BAB8F1EF0F0AD147
:1041A80009F08CF8234EA6F8F00109F087F8A6F874
:1041B800EE01FFF789BA53D8B8F1DC0F0ED109F038
:1041C80071F81C4E86F8C50109F06CF886F8C6012E
:1041D80009F068F886F8C701FFF776BAB8F1DD0F7D
:1041E8007FF48CAB09F05EF8804609F05BF8064670
:1041F80009F058F80F283FF681ABB8F1050F0BD836
:10420800052E3FF67BAB0B4B062101FB08329319B9
:1042180083F8A803FFF758BAB8F1060F7FF46EAB1E
:104228000A2E3FF66BAB034B334483F8CC03FFF7FE
:104238004BBA00BFD02F00201021002044100020CE
:1042480028110020EC110020A83900204C10002073
:10425800501000204A10002014140020003A0020BA
:10426800B8F1F50F7FF441AB012009F07FF8002683
:10427800824BDFF840A282481E70314630228AF80D
:104288000060DFF834B2DFF8F89117F0A1FC8DF880
:104298000F607C4ED0469DF80F3096F876209A42F3
:1042A80032D99DF80F3006EBC30393F87930DB075A
:1042B80023D59DF80F3006EBC30393F878303BF90C
:1042C8001330002B19DD9DF80F3006EBC303DB6FAD
:1042D80018790DF0F1F898F80030202149F82300FA
:1042E8000DF084F998F8003059F823000DF00FF913
:1042F80098F80030013388F800309DF80F3001330A
:10430800DBB28DF80F30C6E79AF8000008F0E9FF35
:1043180008F0F8FF5C4B186803F05EFA2368186829
:104328000BF050FC236818680FF0F6F8FFF7CCB9CB
:10433800B8F1F20F7FF4E2AA08F0B4FF0F2806469E
:104348003FF648AA08F0AEFF504BC6EBC6061E441F
:1043580086F8E40008F0A6FF86F8E50008F0A2FF5A
:1043680086F8E60008F09EFF86F8E70008F09AFF56
:1043780086F8E80008F096FF86F8E90008F092FF52
:1043880086F8EA000CF0D0FCFFF79EB9404ADFF847
:10439800FC80134406F59F7608EB860693F83030C8
:1043A800737008F07FFFB07008F07CFFF07008F0C1
:1043B80079FF384B38491A68307108F1CC030B6023
:1043C800364B00201A600EF078F9354B80F001006A
:1043D8001870FFF779B90D2828D1FEF76CB8591E67
:1043E800685C202819D101220B46FEF772B81035F7
:1043F800B5F5147F16D055F808102A4805EB0806BD
:1044080006F004FE0028F2D0274B9E420AD2F36839
:10441800984700232360FEF762B802B123600025A5
:10442800F554E8E7214811F0EDF9F2E77F2809D1C2
:10443800013B1C4A1E4823600021D15411F0E2F9C7
:10444800FDF7BEBF2F2B3DF6BBAFA0F12002D2B2C5
:104458005E2A3DF6B5AF13B920283DF4B1AF5A1C1A
:104468002260104AD05411F02FF8FDF7A9BF7F2819
:10447800EBD1FDF7A5BF2DB0BDE8F08FB805002042
:1044880040210020580E002034210020D02F002089
:1044980048C10108141400203412002038120020EA
:1044A800B0000020183A00201CE70108BDED010803
:1044B800D9ED01080B370020302B0020A2490A68EB
:1044C8002DE9F04F02F59C43A04C20332360A04B0C
:1044D80089B01E7802911EB9DFF898829D4F18E0C6
:1044E8009D4909688A4240F20181013E1E70FDE043
:1044F800072D98BFD8F80030984898BF595D3B6899
:1045080088BF29469847032D09D904EB450501368C
:10451800A88008F051FDF5B28542E9D320E0D8F82B
:10452800002005F1100302EB83039988DA8800283C
:10453800EBD04FF47A73401A5843531A90FBF3F0B8
:1045480040F6C90300F57A70984205DC40F2EE2384
:104558009842B8BF184601E040F6CA0080B2D4E7D6
:104568007F4B1A6842F2010A02EA0A0A7D4A136876
:1045780001939046BAF1000F06D094F8292084F8E8
:104588002820794A5178117094F828601EB1764A2B
:10459800167886F00106754F0F2284F82A20002528
:1045A80007F1460B08F008FD854264DA4FEA450931
:1045B8001EB16F4B33F8150000E030466D4B19689B
:1045C8008A8B82424FEA850E6B4A02D8C98B814298
:1045D8001CD25BF80E00019B5C49984202D932F864
:1045E800090018E0E8B20492039108F0FDFC032DDD
:1045F800049A10DC03994FF0010E0EFA05FC91F8AD
:104608002AE02EEA0C0E81F82AE004E0019B03F56B
:1046180096714BF80E10BAF1000F27D094F8BC1021
:104628000322B1FBF2F202EB42028A1A09EB050EF1
:104638005EFA82F204EB4202908594F8BD202AB912
:10464800022912D9414A012182F8BD1037F8020C1B
:104658003A884A490244788810FA82F212B221F85C
:104668000920032092FBF0F080B2434A22F80900A7
:104678000135063796E794F82A300F2B0CBF012333
:10468800002384F8D6303E4B0ED13E4A12685001C2
:104698000AD4D8F80020D9689A60521AC82A20D9B2
:1046A800012283F821201CE02F4A334E012151704A
:1046B8001170D8F800209968DA605B68521A9A423B
:1046C80082BF2F4B002283F82120002508F074FCBC
:1046D800854206DAE8B208F087FC26F815000135AD
:1046E800F4E794F8BC30013384F8BC301C4B1A68EA
:1046F80012F4805F9B4605D0224B1B68D90701D472
:1047080011F0CAFE029B18681A4B1E68337B002BF7
:104718003CD0194A013B32F91330B27B1AB1C3F5C8
:104728003B6308331BB2A3F57A73B3F57A7FA8BF4E
:104738004FF47A7323EAE37307EE903ADFED126AD7
:10474800F8EEE77A5CE000BF70390020400F0020E7
:10475800D8200020B4050020D4200020C436002032
:10476800D020002044280020040000206E0F0020E4
:10477800440F0020CC20002074360020FE0F0020BB
:10478800DC2000200C21002000007A44DBF8002007
:10479800120441D5D4F8D820AE4D821A002A3BDB4A
:1047A80000F59C422032C5F8D820AB4AD179AB4AF3
:1047B80032F811108AB2717B92FBF1F195F8DC2086
:1047C800013202F00F0285F8DC202A44DD3582F838
:1047D800DD1019464A5D01311A44102913B2F9D186
:1047E80093FBF1F31BB2002B03DB642BA8BF6423FC
:1047F80000E0002307EE903ADFED996AF8EEE77AD9
:1048080087EEA67A974ADFED987A67EE277AFCEE6C
:10481800E77A17EE903A1380DBF80030DFF870A2E1
:1048280013F4807F00F0FA80904BDFF844929842AE
:1048380005D999F8022012B9012289F8022099F8BD
:104848000220002A00F0EA80894A8A4992F8215019
:1048580008689AF80020039102F0040700F08063CA
:10486800012DFFB2029305D012F0080F0CBF0023F0
:10487800022300E00023804EDFF81882019399F8A4
:104888002020052A00F2C580DFE802F003485C7D9D
:104898008DADB7B3B4F8EE10D4F8F0000BF030FDDE
:1048A800012808D1D8F800103268C988642000FBB4
:1048B8000122C9F81020029B5BB1D8F800201279B8
:1048C8003AB10CF0D1FA032289F820204FF47A7219
:1048D80035E0012D00F09D803168D9F81000644A58
:1048E80088420AD204920CF0BFFA049A032182F893
:1048F800201040F6B831D161C1E7012182F82010BB
:10490800BDE7029B4FF4806013B102F091FF01E014
:1049180002F07EFF0022C9F810207AE0012D56D05F
:10492800D8F80020127A012A02D00CF09DFAA6E7E6
:104938000CF09AFA032289F8202040F6B832C9F818
:104948001C209CE7012D04BF052289F820206FB1A7
:10495800D4F8F020B2F91010484A118051809180A3
:10496800D8F8001003234988D18001933268D9F818
:104978001410914201D3002F48D147F23052C9F8A0
:104988001C20032224E09AF8002042F002028AF850
:10499800002011F081FD3268D9F81C100A44C9F8CA
:1049A8001820042214E0012D15D13268D9F8181006
:1049B80091422ED2324B1A781AB9039B1A68D30740
:1049C80027D49AF8002022F002028AF80020052253
:1049D80089F8202053E7284AD9F81C1012680A449D
:1049E800C9F8182015E0D8F800103268C988642082
:1049F80000FB0122C9F810204FF48060002289F8DA
:104A0800202089F8032002F003FF38E7012D3FF446
:104A180036AF019B13B118460BF0D8FC194EB6F807
:104A2800DC1006F510700BF06BFC05460BF0A8FCCB
:104A3800B146154E80B39AF8003058072CD5134B61
:104A4800B3F90620B9F85A329A4239DB012384F8BF
:104A5800F4303AE0400F00204013002054130020A7
:104A68000000C8424822002000C07F44404B4C0050
:104A7800DC2000200C21002044280020743600206F
:104A8800B0000020D02F0020EC2900201C29002095
:104A980010210020C82C0020002384F8F430A5B988
:104AA8009E4B9F4900221A605A609A609D4B1B6872
:104AB80093F8323000200860486088602BB905E020
:104AC8001DB994F8F430002BEAD0012333709AF81A
:104AD8000030590737D5DBF80030DA0633D5924A6B
:104AE8001278D7062FD4DE042DD40BF049FC50BB26
:104AF8008E4B1B7883B199F897329DB96BB18C4B6B
:104B08001A68D4F8F8309B1A002B06DA11F0C4FCA6
:104B1800884B83F8FC5016E06DB910200BF056FC5A
:104B280001230EE03BB1824A12684FF47A7101FB0F
:104B38000323C4F8F83094F8FC3023B10BF02EFCB2
:104B4800002384F8FC30002299F89612B9F85262D2
:104B5800B9F85472DFF8F0E113463EF912009B08E9
:104B6800B042C4BF63F07F03DBB20132B842B8BFC2
:104B780043F04003042AF0D194F8FD206D489A428E
:104B880005D190F8FE20F92A04D8013200E000226D
:104B980080F8FE20654F84F8FD303B78654A664E04
:104BA80023BB3068C00709D582F8FF30F5B99AF8F9
:104BB8000030DA071AD511F0F7FB17E09AF8003041
:104BC8005B0713D592F8283083B15C4BDB786BB95F
:104BD80092F8FF300133DBB2032B82F8FF3005D99E
:104BE80011B111F059FC01E0002DFAD094F8FE3013
:104BF800504D142B64D13B7893B195F8FD305F2B61
:104C08000ED19AF8003003F0040303F0FF0813B143
:104C180011F042FC04E00B200BF0D8FB85F8FE8075
:104C28009AF8003003F0040303F0FF02002B47D189
:104C380094F8FD503F4B572D0FD104F0A2FEDBF83E
:104C480000301D0601D50DF0DFFA3D4B1B685807F3
:104C580036D53C4B0A221A8032E0DBF800104907AF
:104C680017D55A2D15D193F8001129B183F80021D1
:104C7800012283F8012123E093F8022182F0010246
:104C880083F802210AB10C2000E00D200BF09EFBF6
:104C980016E05D2D00F0CF835B2D00F0CE835E2DF6
:104CA80001D10320CAE3562D01D103F057F83B7810
:104CB800002B00F0C8836F2D40F0C58311F074FB02
:104CC800DBF80030580751D594F80231194A9BB1E6
:104CD8009AF8003059070FD51B4BB3F90610B9F8ED
:104CE8005232994208DD336813F0010302BF3221C2
:104CF800A2F8061182F802313368DA0326D594F84F
:104D080008210C4B2AB993F8002112B93222A3F8D2
:104D18000621012384F8083128E000BFEC2A00208E
:104D2800442900201414002028110020B00000207D
:104D380044280020400F00200C210020DC20002007
:104D4800E01E0020783900207436002094F80031E5
:104D5800AA4A5BB19AF8003003F0040303F0FF019C
:104D680023B9012382F8001182F80131A44D0023F0
:104D7800336005F150074FF00108294615F8010C7A
:104D88000BF098FA30B115F8023C08FA03F23368D0
:104D9800134333600435BD42EFD19A4B1E784EB1B0
:104DA800994EDFF890823368984F13F0020F40F065
:104DB800C881BFE1964D974F05F15A08294615F865
:104DC800010C0BF077FAE8B1AB78934A297995F89A
:104DD80003C0013B03EB430313440C2202FB01FE17
:104DE80007EB0E00426893420CD04360012303FA9C
:104DF80001F194F8093107F80EC023EA0101866031
:104E080084F809110635A845D8D1844B844E1D680D
:104E1800844B1B68039394F828300493824B0293C5
:104E280000230193029B1A68002A00F07881177802
:104E3800002F00F074815B680399CB1A002B0DDBFF
:104E480001F5FA7302994B600199012303FA01F104
:104E580094F8093123EA010384F80931049B002BF3
:104E680000F05D81029B517813F8043C0433DBB2F7
:104E7800002940F01D816D4931F91310B9F85032FD
:104E880003F1C800814202DD92F8028016E0C83BB7
:104E9800994203DA9178C1F100080FE0019A0123E1
:104EA80003FA02F294F8093123EA020384F809317B
:104EB800039B029A03F5FA73536030E1019B94F85F
:104EC80009211A41D30700F12A81B8F1000FCCBF9C
:104ED800022001200BF0BAFA7A1E132A00F216817A
:104EE800DFE812F014001E002800380050005700B8
:104EF8007100AA00C300CE00DB0014013800460090
:104F080057007100AA0066008000B8002978414463
:104F1800FA29A8BFFA2121EAE17129700120B9E034
:104F2800A97841446429A8BF642121EAE171A970E4
:104F38000220AFE02F793E4B4744642FA8BF642777
:104F480027EAE77719682F7128460AF09FFF394644
:104F580003209FE0A97941446429A8BF642121EA7C
:104F6800E171A9710D200BF0EBF90D2F00F0CE8047
:104F7800697941446429A8BF642121EAE171697112
:104F88000E2087E0E979414481F30801E9710520A1
:104F980080E0326891784144C829A8BFC82121EA35
:104FA800E17191700F200BF0CBF90F2F00F0AE805C
:104FB800326851784144C829A8BFC82121EAE17163
:104FC8005170122066E03268117B4144C829A8BF9D
:104FD800C82121EAE171117310200BF0B1F9102FEB
:104FE80000F094803268D17A4144C829A8BFC8210A
:104FF80021EAE171D17213204CE000BF400F00207C
:10500800CB3400204C3A00200C210020082100203D
:105018001A35002004120020ECC2010800120020FA
:10502800381200204428002008120020743600207E
:1050380034120020E01E00203268917D4144C829C6
:10504800A8BFC82121EAE171917511200BF078F908
:10505800112F5BD03268517D4144C829A8BFC821AF
:1050680021EAE1715175142014E03268D178414485
:10507800C829A8BFC82121EAE171D170092009E037
:105088003268517B4144C829A8BFC82121EAE1718F
:1050980051730A200BF054F938E03268D17D41444D
:1050A800C829A8BFC82121EAE171D1750B20F1E711
:1050B80001292BD1A14931F91300B0F5617F05DB36
:1050C80040F633038342A8BF034601E04FF46173FF
:1050D8000C2F1BD190784FF4966292FBF0F0984A0F
:1050E8001278A3F5617393FBF0F3DBB29A420DD00B
:1050F8001846059302F0B4FB059B384619460BF099
:105108001FF9059B581CC0B20BF0A0F9019A0123A6
:1051180003FA02F294F80931134384F80931019B28
:1051280001330193029B0C330293019B042B7FF400
:1051380079AE35E6DBF80030DD050FD5814BDB783D
:1051480063B1D8F80030980708D53B8813F00105FB
:1051580009D1012002F06CFB2B4605E0012002F08A
:1051680057FB012300E00023326851070AD54BB1F1
:10517800012002F04DFB3B889A0706D4022002F07A
:1051880057FB02E0022002F043FB398811F00301CB
:105198001ABF0121084601200CF0C8F9D8F80030E0
:1051A8009B0608D433681D0540F191804FF4807048
:1051B80002F03EFB8FE0644B1B78980750D5634B99
:1051C8001B78042B4CD9336813F400730ED03B883A
:1051D800D90639D4102002F02BFB202002F018FB4E
:1051E8005B49081F0CF064FF022329E03D8805F0A5
:1051F8001005ADB23DB11020019302F009FB019BEF
:1052080084F80A31012533685A0512D5514B5249A1
:105218001B685A89B1F90030002BB8BF5B42934232
:1052280007DAB1F90230002BB8BF5B429A4200F3AB
:1052380055813B889B0608D5202002F0E9FA002317
:1052480084F80A31012500E0002594F81431B3B937
:105258000E200BF0BBF8414B012283F814210EE01D
:105268003B8803F03003002B9CD0102002F0D0FACA
:10527800202002F0CDFA002384F80A3101E0002D45
:1052880090D03749002300220B80A4F81631A4F8E7
:105298001A31C4F82021C4F82431C4F82821C4F8EC
:1052A8004821C4F84C31C4F850214B80A4F8183177
:1052B800A4F81C31C4F83421C4F83831C4F83C21AE
:1052C800C4F85C21C4F86031C4F864216AE74FF47B
:1052D800807002F09DFA99F80530082B01D00E2B4A
:1052E80002D1402002F094FADBF800305D0519D5B0
:1052F80099F8D43223B99AF8003013F0040F02E079
:10530800336813F4002F09D03C200DF025FA48B17A
:1053180007F0A8FF3C200DF0E7F9F8E710F067FD6B
:105328000DF022FA9AF800300121580784F870111C
:1053380018D500200CF0FAF859E000BF74360020A8
:10534800C8200020DC200020281100202E11002079
:10535800F0110020501200201C290020400F0020CE
:10536800242900203268D20703D5694A92F87121AE
:105378001AB143F001038AF80030664B664A1B787D
:105388001B075EBF9AF8003023F001038AF800304B
:10539800D8F8003013F0040F02D06049098871B9B9
:1053A800B4F8041109B19D0709D45D4B1B8800337B
:1053B80018BF01231BB95B490988642908D902234E
:1053C80013709AF8003023F001038AF8003005E0E2
:1053D8009AF80010C80758BF022313700BF03AFE62
:1053E800514B1B68C01A002801DB07F087FED8F86C
:1053F8000030590740F1888033681A0705D408201F
:1054080009B0BDE8F04F02F003BA3D8805F0080581
:10541800ADB2002D78D1082002F00AFA434B1A6881
:10542800434B1A60434BDB88A4F87231424B1D6032
:10543800424B1D6068E0012000E002200138C0B244
:1054480002F07AFC3CE4972D04D14FF4C873A4F819
:10545800043135E4A72D05D12E4A137843F004030F
:1054680013702DE40023BB2D079301D1022303E021
:10547800B72D04D14FF6FE73ADF81E3009E0BE2DEE
:1054880001D1022303E0BD2D17D14FF6FE73ADF80D
:105498001C30B9F8EE21BDF81C301344A9F8EE31E0
:1054A800B9F8F021BDF81E301344A9F8F03102F024
:1054B80055FC002384F8FE3002E4792D04D1204AFB
:1054C800D37823F0010306E07A2D7FF4F9AB1C4A68
:1054D800D37843F00103D370FFF7F2BB3B889B06F8
:1054E8003FF5B3AE202002F0A3F9164B16491A680F
:1054F8005B68C4F80C21081F0125C4F810310CF0B2
:10550800D7FD84F80A51A0E609B0BDE8F08F00BFC6
:10551800400F0020281100200021002078390020A9
:10552800EE120020A412002004210020E81100201F
:10553800A839002074360020B4390020B83900207A
:10554800F039002030110020501000202DE9F74FCD
:105558006A4CDFF8ACE10091DEF800302188B4F93C
:105568000280C1EB231252434900C1EBE30113133C
:10557800B4F90420534308FB01F89B1303EBE82319
:1055880003EB83028032B3F5FA384FEA22224FEA5E
:10559800E37949F1FF390192B4F90820A361A8FB26
:1055A80008AB08FB09F30BEB430B02FB09F1D3171C
:1055B80008FB0311A2FB08230B441F03160347EA49
:1055C8001257B4F90A2002FB0BF1D3170AFB031395
:1055D8000546A2FB0A011944020A42EA016292192D
:1055E8004FEA2123E6887B41003243F50043A2FBC2
:1055F800060106FB03114A10CB1752EA030170D0CB
:10560800B4F9100000FB0BF6C1170AFB0166A0FBFA
:105618000A013144B4F90E6006FB09FCF71708FBD0
:1056280007C7A6FB0889B9444FEA484A4FEA494BDD
:105638001AEB000A4BEAD83B4BEB010BDEF80410DF
:10564800B4F90C80C1F5801E7646F71700264FEA9C
:10565800CE70F90716EB0A064FEAC80741EA5E0161
:1056680047EB0B0740F6354E861B61EB0707A6FB99
:105678000E010EFB071111F017FCB4F916204E139A
:10568800470B47EAC14702FB06FED31707FB03EEA9
:10569800A2FB07237344564307FB0366A2FB0723B9
:1056A8003344560E46EAC3163218B4F914604FEA6A
:1056B800636747EB01037143F71700FB0717A6FB66
:1056C80000013944C60C46EA4136B6184FEAE147AC
:1056D800B4F912005F41330A43EA07630201134435
:1056E80000E000230DB11B0A2B60009B13B11A4682
:1056F800019B136003B0BDE8F08F00BF580700207E
:10570800B41000207047044B1A7A02F0FF0012B15F
:1057180000221A7201207047B410002037B5104BD0
:1057280004465D6818786A460621A847A8B19DF81E
:1057380000209DF8013043EA022323809DF80220CF
:105748009DF8033043EA022363809DF804209DF806
:10575800053043EA0223A380012003B030BD00BF17
:105768003007002013B5104B04465B686A460621D3
:105778003B209847A8B19DF800209DF8013043EAE6
:10578800022323809DF802209DF8033043EA022378
:1057980063809DF804209DF8053043EA0223A38026
:1057A800012002B010BD00BF30070020014B0122CC
:1057B8001A727047B4100020026D036B70B504466E
:1057C800D5699BB9A90611D5C36A1BB1908C80B263
:1057D80098470BE0E169928C40694E1CD2B2E661B1
:1057E8004254E169E268914228BFE361616BA1B963
:1057F8002A0612D5636AA26A9A42236D09D0501C00
:10580800A669A062B25C1A852369984205D3A16291
:1058180003E01A6822F080021A602B0742BF236D4A
:1058280008221A6270BD0168027B30B502230C6839
:1058380003FA02F222420BD0064A0024147044688C
:1058480025684FF6FE722A402260027B93404B6027
:1058580030BD00BF9D21002038B5074C05462068A3
:105868000BF050FE294605480CF038F82068BDE8D2
:1058780038400BF04CBE00BFDC0A00200038004066
:105888002DE9F0410C4C0D4D8046206816460F4618
:105898000BF038FE48F0800128460CF01FF83B4614
:1058A8000022314628460BF0ECFF20680BF02FFE53
:1058B8000120BDE8F08100BF500700200030014002
:1058C800F8B50A4C0A4D074620680E460BF01AFE3A
:1058D800394628460CF002F8314628460BF0FEFF00
:1058E80020680BF014FE0120F8BD00BF500700200F
:1058F800003001400CF0BCBE2DE9FF47444D6B7AE7
:10590800002B40F08180434B1B68002B7CD018781B
:105918000BF0D2FD04460BF011FE0746002873D1A8
:10592800142308260146A3712072E67120460BF065
:105938005DFE394BEB6020460BF009FE002855DB75
:10594800364BDFF8E89005F10C0243F8202019F8EF
:10595800008020460BF005FE824620460BF0F7FD3E
:10596800C1B201F0030001F0FC0101F1804303F52D
:105978008033800099680F22824021EA02029A60EF
:1059880099685FFA8AF202FA00F0084398602046A4
:105998000BF0DDFD4FF0010A20F01F01204A00F056
:1059A8001F030AFA03F38B5002900DEB06008DF8E3
:1059B8000C708DF80D608DF80EA00CF0EAFD194BF7
:1059C80013F80820F02A11DDF02203F8082009EB6B
:1059D800080301A81B7C8DF8043003238DF80530DB
:1059E8008DF806708DF807A00CF076FD20460BF0B8
:1059F800AEFD002806DB0C4901220B6802FA00F014
:105A08001843086001236B7204B0BDE8F08700BF3B
:105A1800B410002048070020B5570008242D0020A6
:105A2800140401403C0600200004014028C301087A
:105A380070B5264C0546FFF75FFFFFF75DFFA368CB
:105A480080216B20984764200BF042FBA368072154
:105A58006820984764200BF03BFBA36800216B206B
:105A6800984764200BF034FBA36801216B2098470A
:105A78000F200BF02DFBA36818211B2098470F203F
:105A88000BF026FBA36818211C2098470F200BF069
:105A98001FFBA36829461A2098470F200BF018FB14
:105AA8000B4AA36811781920984764200BF010FB63
:105AB800A3681021372098470F200BF009FBA36833
:105AC80001213820BDE87040184700BF300700208A
