:020000040800F2
:1000000000500020917601082D770108215C01083D
:100010002D7701082D7701082D77010800000000D9
:100020000000000000000000000000002D77010823
:100030002D770108000000002D770108C54B01084D
:100040002D7701082D7701082D7701082D770108FC
:100050002D7701082D770108CD0A0108D70A01087C
:10006000D50A0108D30A0108D10A0108E57700087A
:10007000D5770008C5770008B5770008A577000890
:10008000917700087F7700082D7701082D77010808
:100090002D7701082D7701082D770108CF0A010877
:1000A0002D770108F94801082D770108E948010872
:1000B000DD480108CD480108BD480108CF7A000895
:1000C000D57A0008C57A0008CB7A00082D77010898
:1000D0002D7701082DB9000821B9000817B90008CB
:1000E000CB0A01082D7701082D77010800000000D8
:1000F0000000000000000000000000000000000000
:0C01000000000000000000005FF808F1A3
:100110002DE9F04F684A694BA1B01A60684B002284
:100120001A600DF0BFF918B90DF0E2FD10F036FDC0
:100130000DF0DCF9634A137843F001031370624A4F
:10014000624B116899424FF0000309D1136062B607
:100150005F4B18680AF06CFB5E4B1B689847FEE724
:1001600009935D4C0A930B934FF4E0130C932368AF
:1001700043F480332360A36943F01003A361236831
:1001800003F400330A93099B013309930A9B1BB9BB
:10019000099BB3F5A06FF2D123684F4913F40033E4
:1001A00001D0022315E00A6842F001020A600993B7
:1001B000236803F002030A93099B013309930A9B06
:1001C0001BB9099BB3F5A06FF2D123689E0739D5FF
:1001D00001230B93414B424F1A6842F010021A6000
:1001E0001A6822F003021A601A6842F002021A60CA
:1001F0006368636063686360636843F4806363603B
:10020000384B1A68043B22F070425A60364A3A6012
:10021000626822F47C1262605A6842F000425A60BE
:10022000DA6822F40042DA609B681D0449BF2F4B54
:100230004FF4E0133B604FF480130C930B9B012BA6
:1002400001D108E0FEE7022B09D10C9A6368134341
:1002500043F4803302E0636843F46013636023680F
:1002600043F08073236022681B4B9001FBD55A68D2
:1002700022F003025A605A6842F002025A60636830
:10028000154A03F00C03082BF9D15368DFF864809A
:1002900003F00C03042B03D0082B03D0124B32E0E5
:1002A0003B6830E053685168C3F38343C90303F1EB
:1002B000020321D40E4A25E099D40008E01800205A
:1002C000E4180020853C0020F04F0020EFBEADDE9A
:1002D00000F0FF1F04F0FF1F00100240002002404A
:1002E000A00000200410014000127A00001BB7009B
:1002F00000093D005C030020526812F4003F3A6898
:1003000018BF52085343C8F800306368864AC3F3E5
:10031000031313449A78D8F80030DFF86092D34082
:10032000C8F80030814A824B0DF1800ADA60A26978
:10033000039342F00102A261656A0026C9F80050E9
:10034000626A0DF1800B42F080726262A26942F033
:100350001C02A2614FF6FF722AF82C2D02F1804296
:1003600002F601021046514602928DF8566007F0DF
:10037000CBF951466F4807F0C7F951466E4807F070
:10038000C3F910218DF83A100221029A8DF83B1022
:100390004FF400712BF8481D10461161594607F0C3
:1003A000B3F9664950464A6842F000724A600AF062
:1003B00015F96349159A09F10400B2FBF1F261499C
:1003C0000A601822314619F05FFFD8F800204FF478
:1003D0007A71B2FBF1F25C49039B013A4A60F02268
:1003E00083F8232007238E600B604F4B5749DFF8BB
:1003F00090E102934FF0010CB20202F180423EF80C
:10040000160002F58432002340FA03F818F0010FB9
:1004100018BF0CFA03F803F101031EBF0A60A1F82C
:1004200004800C31102BEFD10136032EE4D1484E5D
:10043000484B96F8EB211A703B68474A934201D12A
:10044000012203E0454A934202D10222444B1A7032
:10045000B3680021DFF82C810846C8F8003010F09E
:1004600019FB0021012010F015FB3E4A00274FF038
:10047000170A022352F82700013750B1C37180F8E0
:1004800006A0077212210492039310F015F9049A42
:10049000039B032FEED10021084610F0FBFA002148
:1004A000012010F0F7FAA369402243F00103A36191
:1004B00000212D4819F0E8FE2C4B4FF0FF321A6056
:1004C000C3F80320D8F800301A0714D596F8403244
:1004D000012B10D81E4B15F0805593F8423200F0D6
:1004E000598608E093F84322012A04D1002283F8B8
:1004F000422210F00BFC642014F016FBA022002115
:100500001B4819F0C1FE1B4D0024A5F114076159C9
:1005100000231948DA0050F83300814234D1BB1867
:1005200093F8C00034E000BFD8A301080005FA0525
:1005300000ED00E0000C014000100140000001400F
:1005400040420F007034002010E000E0401E002008
:10055000F03400207217002000127A00001BB70050
:1005600001290020E4C50108A8340020E834002057
:1005700018330020ECA3010894A40108B004002063
:10058000F0C50108A81D00200133042BC1D10020B3
:100590000C3414F01FFBA82CB9D1A34BA34AD8F8F4
:1005A0000040DFF8BC821A60052700213C22A048E9
:1005B00088F8007019F068FE002318463946DFF805
:1005C000A4E29B4F04F040054FF0FF0C1EF9012FF1
:1005D00003EB070ADA554DB91E3AD2B2012A9FBF82
:1005E00001F1FF318AF800C0C9B201200C333C2B65
:1005F000ECD108B188F8001077798E4B8E491F70C6
:100600008E4B8F4AC9F81C30D8330B6040F2DC5156
:10061000A30657BF8B4B012303EBC7035B78136221
:10062000894A002322F813100133082BFAD11A2229
:100630000021584619F028FE0E2F03D007F0EF03D3
:10064000082B02D101238DF84A3001200EF040FB27
:1006500018B14088003018BF0120C4F340038DF862
:100660004030C4F3403300358DF83830C4F3C03324
:1006700018BF012500F001008DF83B3014F4006331
:100680008DF83D008DF8425004D096F82232581E65
:10069000434243418DF83C30C4F300438DF843306E
:1006A000C4F3C0038DF83A30D9F8203004F00107C4
:1006B000003318BF01238DF84430C4F300538DF884
:1006C0004530B6F8D2308DF83970ADF84830B6F80C
:1006D000E03004F00805ADF8463096F8E33043B951
:1006E0005A4B93F8E23013F0FB0F0CBF01230023A9
:1006F00000E0012396F8E220049312F0FB0F14BFF0
:10070000012100218DF841108DF84B2013B14F4B82
:10071000B3F8DE30ADF84C30B6F8D030E104ADF8C7
:100720004E3042BF494BB3F8DA30ADF84E30042AB0
:1007300006D14FF4805010F009FA0023ADF84E3086
:1007400096F88C22424B00211A704248642219F01C
:100750009BFD9DF84A30002B14BF4FF0020B4FF069
:10076000000B07B90DB10BF1010B4FF00009CA46A0
:10077000029BDFF8CC8003EB8B0BDBF8DC309A1E9E
:100780001A3302920593029A32F8023F02924FF610
:10079000FF72934200F0C0819DF83D10DAB21B0A4F
:1007A000DFB219B1911E012940F2B1819DF84210CA
:1007B00041B129480C2101FB0201486927498842BF
:1007C00000F0A5819DF8431041B1234C0C2000FBA3
:1007D000024044692148844200F099819DF840001C
:1007E00038B11D4C0C2000FB0240007E142800F0A4
:1007F0008E819DF83B0038B1174C0C2000FB024065
:10080000007E112800F083819DF83C0038B1124C25
:100810000C2000FB0240007E212800F07881022B92
:1008200022D19DF8383023E0583A00209437002038
:100830005C3A0020D40C002034340020FC3400202A
:10084000B0040020F8BA0108FC0D0020F0340020AC
:10085000F0260020100E0020D8A30108000400405C
:10086000B41C00208DC10108012B04D19DF8393042
:10087000002B00F04C819DF844307BB19DF84A304C
:1008800063B9A2F10803012B08D8B4480C2303FB79
:1008900002035869B24B984208BF0427B14B0C259C
:1008A00005FB02359DF845305BB19DF84A3043B9F0
:1008B00019B1A2F10C03012B01E0131F032B40F22D
:1008C0000781012F3DD1A54B0C2404FB02340026E7
:1008D000A54BFF22207E88F82460C8F830501E7097
:1008E0005E609E60DE601E6483F8442083F84520CD
:1008F00083F8466083F8476083F848600FF0B6FEDF
:10090000D4F8149002228271C7710672217F0FF011
:10091000D3FE3246617E48460FF0EAFC3A46314645
:10092000284614F099F8914B914AC8F83430914B0D
:10093000C8F83C60C8F83830111F284613F0DEFFB5
:10094000E5E0022F3ED15FFA8AF11C26834806FBC0
:1009500001F30C2404FB020408EB030701264FF00B
:10096000000B87F82510207E87F826B087F82EB078
:1009700087F824603D63039306910FF077FE069994
:1009800086718A190272C671217F0FF095FE5A4650
:10099000617E60690FF0ACFC32465946284614F07F
:1009A0005BF8754BC7F83CB07B63744B2846BB6360
:1009B000039BB24403F11001714B19440A1D13F05B
:1009C0009DFFA4E0032F40F081809DF839309DF811
:1009D0004B10ABB1A1B1614B0C2404FB0234636931
:1009E0004B450DD14B1E032B0AD8DFE803F002065E
:1009F0000406082202E0482200E01822614B1A7027
:100A00009DF84130604CBDF84C206BB3022994F83E
:100A100001B0BDF84E3009D003295C495C4E0EBFD1
:100A20004FF0480E0E464FF0080E02E0594E4FF0C0
:100A3000180E5FFA8EF1584F32B1584800FB0EF095
:100A4000B0FBF2F292B202E013464FF6FF72284674
:100A50000FF098FE47F82B0057F82B301922DE6074
:100A6000A37804EBC30327E00429667811D14C492D
:100A70002846B1FBF2F2182192B20FF083FE464BEA
:100A80000D2243F82600474BC360A37804EBC30351
:100A900012E0424B0121B3FBF2F22846BDF84E3082
:100AA00092B20FF06FFE3C4B092243F826003E4BFA
:100AB000C360A37804EBC3035A71A378627804EB94
:100AC000C3010A7101328D6062701EE0042F1ED1D5
:100AD0002D4CBDF84620A378267804EBC3031E7185
:100AE0002E4B012193FBF2F22846BDF8483092B21A
:100AF0000FF048FE2D4B0A2143F82600A37804EBA3
:100B0000C30251712278013222700133A370059B18
:100B1000029A93427FF437AE049B254F83F0010283
:100B2000244B00241A70244B3C701D78A5F1170348
:100B3000022B54D8DFF884A0DFF88490DAF81C3058
:100B40000021185903EB040816F038FB002839D0AF
:100B50001A4B1A6A0693002A5FD159E0D8A30108FC
:100B6000002C0140ECA30108F826002055030108E1
:100B7000E8040020B1040108150501082D0301084F
:100B8000D404002008040020100E0020D105010824
:100B900071050108A5050108CC32002040420F0074
:100BA00000366E01F1040108E10401084827002025
:100BB0001319002014330020D40C0020B0040020AE
:100BC000F40B002004EB090698E80F0086E80F00FC
:100BD0003B7810340133C02C3B70AFD1B8E7944B55
:100BE00013F835E003EBC503D3F804C087F800E041
:100BF000BCF1000FACD0DFF87C827445A8DA230189
:100C000003EB080663440FCB013486E80F00F4E7DA
:100C1000884E3368DB0425D41EE0874B874A13F8DF
:100C2000350003EBC5035C681070002CF0D0844ED7
:100C300000238342ECDAC3EBC3016218D2F800C090
:100C400001EB060E41F806C091880133AEF804109E
:100C500092798EF80620ECE705F0EF03082B794B2C
:100C600024D125E03B78012BF6D9774C04EB031314
:100C700003F110071034A742EED04FF07C5154F826
:100C8000100C16F007F94FF07C5144F8100C54F892
:100C9000140C16F0FFF84FF07C5144F8140C54F883
:100CA0000C0C16F0F7F844F80C0CE3E70E2D08D105
:100CB0001A78182D42F010021A7008D113F002FDB4
:100CC00005E01A78192D22F010021A70F5E713F0DA
:100CD000DBFC5E4A5E4D13781C2043F00403137066
:100CE0002B78012B8BBF01270027002401240FF054
:100CF000BDFC584A1060584A177058B111228271D1
:100D00000222C2710022944202720CBF12211621EB
:100D10000FF0D2FC00200FF0ADF822200FF0A6FC5F
:100D200015224E4C827101270222C27107721221D4
:100D300020600FF0C1FC2068494C00210FF0A0FE9C
:100D4000207E13F047FF237E03F01F025B09022B76
:100D500007FA02F706D0032B08D1424A13691F4352
:100D6000176103E03F4AD3681F43D760607D0FF0EF
:100D70007DFC0C270B234FF00208C371877180F8AC
:100D80000880E07D0FF072FC0D23C371877180F83D
:100D90000880A07D0FF06AFC8771C77180F8088019
:100DA000607D0FF063FC1B210FF086FCE07D0FF0EF
:100DB0005DFC07210FF080FCA07D0FF057FC1B218C
:100DC0000FF07AFC207D20B10FF050FC13210FF0C2
:100DD00073FC2169244B99420AD103F56043DA6818
:100DE00042F48052DA60DA6822F48052DA6019E064
:100DF0001E4B994209D103F5EC331A6942F4804243
:100E00001A611A6922F480420BE0194B994209D108
:100E100003F5EA331A6942F400421A611A6922F4AE
:100E200000421A61237F3BB30023184626E000BF2F
:100E3000F8BA0108A81D002014BA0108C033002028
:100E4000C1330020E5140020FC0B0020853C00206D
:100E500001290020EC1F0020F01F0020E81F0020C7
:100E60001C04002000100240003001400038004007
:100E7000003C0040F40B0020012302200A8802F409
:100E8000415242F44572134303430B808B8B207D08
:100E900023F400631B041B0C8B8307230B820B883A
:100EA0009BB243F040030B8018B10FF0DFFB0FF053
:100EB000E2FD2C200FF0DAFB8346069BC3F8040109
:100EC0009F238DF83430322000238DF835308DF893
:100ED00036308DF8373013F027FE58460FF0C6FD38
:100EE00004220DA915A813F045FF58460FF0C3FDC5
:100EF0009DF856309DF855201B0243EA02439DF8A9
:100F000057201343C34A93421AD0322013F00CFEE9
:100F100058460FF0ABFDF52013F068FFFF2013F0EB
:100F200065FF8DF8540058460FF0A5FD9DF854302C
:100F3000702B05D12B78022B02BFB74B03221A70FE
:100F40002B78032B0CBF1F2002200DF03AFE2B78CC
:100F5000032B03D0012006F04DFC07E002200DF02A
:100F6000B7FE0028F6D04388002BF3D0AB4C366890
:100F700095F8009014252A460021204619F084F99E
:100F800006F4004816F0020F06F40067204618BF6A
:100F90002570B8F1000F01D011236371B9F1010F71
:100FA00084BF152383720FB12123C3739C4CDFF8D8
:100FB00094920F2700264FF0060814F8010C30B366
:100FC0000FF054FB002580F80680C771057214F8F5
:100FD000010C0FF04BFB29460FF06EFB294614F86D
:100FE000012C90484B0010F81100904203D14B4463
:100FF00093F8ED3003E001310A29F2D100230722F2
:101000002370E270731C01226670A270DEB2013799
:10101000FFB2132F04F10504CFD1834A492053684E
:10102000824C43F44043536013F0D4FD202013F06E
:10103000D1FD7E4809F05EFB15A809F030FB7C4B22
:10104000022E15937B4B28BF802216934FF000038E
:1010500038BF1A461A924FF480721B924FF4806286
:101060001C92202220461D9215A94FF400521E9278
:101070001793189619931F9309F01EFB23686E4867
:1010800043F0010323604368012E23F4702394BFCF
:101090000022012223F4807343EA02234360826822
:1010A000664B5E4C134043F4602343F002038360BD
:1010B000C36A04F1140E23F47002731EDBB242EA19
:1010C0000353C3621F2601230727E278002A4CD06E
:1010D00094F801C05D1CBCF1090FEDB294F80480D6
:1010E0000DD9ACF10A02C16802EB420207FA02F91B
:1010F00021EA090108FA02F20A43C2600AE0016922
:101100000CEB4C0207FA02F921EA090108FA02F293
:101110000A430261062B0CD8591E426B01EB810178
:1011200006FA01F322EA03020CFA01F111434163CA
:101130001AE00C2B0CD8DA1F016B02EB820206FAC4
:1011400002F321EA03030CFA02F21A4302630BE0F2
:101150000D3BC26A03EB830106FA01F322EA0302A4
:101160000CFA01F31343C3622B4605347445ACD12A
:10117000314B9A6842F480729A609A6842F0010298
:101180009A609A6842F008029A6099682A4A0C07A5
:101190005AD5FAE7013B092B3FF6ADA901210846D4
:1011A0000FF078FC13200FF061FA044618238371C6
:1011B0000223C37105721221C9F884040FF07CFA6E
:1011C000012120460FF05CFC3C2013F0ADFC2946C9
:1011D00001200FF05FFC96F84222194B9542BFF6B2
:1011E00081A9002108460FF055FC002120460FF090
:1011F00047FC782013F076FC012100200FF04AFC18
:10120000012120460FF03CFC782013F06BFC0135E7
:10121000E1E700BF1520200001290020541700201D
:1012200055170020C4A40108001002400800024025
:101230004C2401406817002000240140FDF7F1FF15
:10124000F0340020D8A30108936843F004039360AE
:1012500093688E495807FBD48B6843F4A0038B60D6
:101260008B4BD3F8C801002840F05587D3F8CC2128
:10127000002A40F05087D3F8D031002B40F04B8744
:10128000834D844F95F8D53100260293B5F9F0319E
:101290003E60039395F8D8317E60049395F8DA3177
:1012A000BE60182231467C48059395F8ED8195F88B
:1012B000EE9118F0E9FF794B794C1B78DFF8FCA12F
:1012C000012B98BF013C0797764F182231460AF54B
:1012D00084703E8018F0D8FF069B2320C3F820417D
:1012E00013F022FC0DF12202012175200AF0D2F840
:1012F0005446BA46B8B16C4B0DF12302C4F80C3118
:101300006A4B0121C4F810313046432384F8083178
:101310000AF0C0F89DF8233003F07E038DF82330E7
:10132000002840D147E094F8243113BB14228BF8F5
:1013300006200E228BF807208BF808301321584620
:10134000C4F828B10FF0B8F9594A138823F04003C4
:101350001B041B0C1380138823F038031B041B0C85
:10136000138013889BB243F040031380012384F859
:10137000243115AA012175200AF046F99DF8543050
:10138000A3F17002012A01D9AF2B5BD105238AF8A2
:101390000030432384F80831464BC4F80C31464BE7
:1013A000C4F810314EE0682B05D101233B701D239A
:1013B00084F8083146E09DF822303A4A03F07E0373
:1013C000682B8DF8223039D13C4E02230621137050
:1013D0000846D6F80C3115AA98479DF859209DF873
:1013E000573092005B0003F0020302F004021A433C
:1013F0009DF8553003F00103134311D0012B01D1A7
:10140000002202E0022B03D10122264B5A7019E080
:1014100003F00303032BF7D0032013F08FFB11E03D
:10142000D6F80C310DAA01210C2098479DF83430D4
:1014300013F00F03F0D0042BE6D1E1E7702B04BFCB
:10144000042313701E4900230B70164B1B78022BCC
:101450000BD1114A1B4810601B4850601B48D060DC
:101460001B48106101220A7047E0012B36D10A4A5D
:1014700018480B70106014480423506016489060A0
:101480001248D0601248106137E000BF00240140CC
:10149000F0340020042900208829002001290020A0
:1014A000D9A301081029002095B4000883B10008D1
:1014B0000038004009B6000839B60008B004002022
:1014C000C42A0020E1B70008A5B000088DB00008CC
:1014D00090C1793D61B6000859B00008043B012B6A
:1014E0001DD8CB4BCB4A1A60CB4A5A60CB4ADA6044
:1014F000CB4A1A6101230B700723CA4A4146137075
:10150000C94A0298136843F001031360059B4A46D9
:101510000193049B0093039B0FF028FD10B9012059
:1015200013F00CFBC14A01211378084643F0020373
:1015300013700FF0AFFA002108460FF0ABFABC4F62
:101540000A2601200FF084F800200FF081F81920FE
:1015500013F0EAFAD7F84835DFF8D4A213F4803F45
:1015600002D101200EF086FC192013F0DDFA0020D4
:101570000EF080FC013EE4D1314630460FF08AFA8D
:10158000314601200FF086FAA74B1A68984612F0F0
:10159000080F0DD0012108460FF07CFAA54B1B68FF
:1015A0009847314601200FF075FAA34B01221A70BB
:1015B000A24BDFF85C921B68A14F187B15F016FC5C
:1015C000A04915F067FCA04915F05CFB14F0FCFC89
:1015D0009E4B9C491860D9F8100015F05BFC9C4BA1
:1015E0001860079B188915F001FC0146994815F011
:1015F00005FD994915F002FD984B186013F0A4F809
:10160000974B1E22FF21184618F03EFE0346954ACE
:1016100001211170002101703968D8F800E011F43F
:10162000800F01BF022010701B2058701EF0020FA7
:10163000CDF808900ED010784FF0010C03F800C0E0
:1016400000F1020C013082F800C0C0B24FF0020C71
:1016500003F800C01EF0040F06D0107800F1010C52
:1016600082F800C003221A541EF00A0F12D0DFF8CD
:10167000F4E104209EF800204FF0050C9854501C13
:10168000C0B203F800C0D01C02328EF80000D2B203
:101690000620985411F4807FDFF8C8E106D09EF848
:1016A0000020501C8EF800001A2098549AF805006B
:1016B000082801D00E2809D19EF8002002F1010C63
:1016C0008EF800C04FF00B0C03F802C09EF800200B
:1016D0004FF00C0802F1010C5FFA8CFC03F8028059
:1016E000CB038EF800C006D5931C5E4A13705C4B8A
:1016F0000E2203F80C2011F4002F594A09D09EF84D
:10170000003003F1010C8EF800C04FF0190E02F802
:1017100003E0544B4FF01D0893F800E011F4805F94
:101720000EF1010C5FFA8CFC83F800C002F80E8009
:1017300009D00EF1020E83F800E0DFF824E14FF04B
:101740001C080EF80C8011F0200F09D093F800E06F
:101750000EF1010C83F800C04FF0070C02F80EC028
:1017600011F0040F09D093F800E00EF1010C83F89A
:1017700000C04FF0100C02F80EC011F4802F09D0F9
:1017800093F800E00EF1010C83F800C04FF0120C4A
:1017900002F80EC049050BD59AF8D01241B119785C
:1017A00001F1010E83F800E04FF0130E02F801E0A2
:1017B000182813D119784FF0160E02F801E001F144
:1017C000010E5FFA8EFE4FF0170C02F80EC001F109
:1017D000030E0231C9B283F800E050549822002170
:1017E000214818F051FD0FF0B9FA204A204BB5F806
:1017F000DC101A601F4BDFF8888019801E49002317
:101800000B808B701D49DFF87CC00A603CE000BF94
:1018100088290020F9B60008A5B000088DB000089E
:1018200090C1793D1004002080290020853C0020D3
:10183000F0340020BC2A0020803C0020BC1800208E
:10184000A81D002035FA8E3CDB0FC93F0C3200206A
:10185000FC3100200AE81C4100401C463C3C0020B2
:10186000121E0020111E00203028002028370020E2
:10187000640F0020620F0020DC1D0020E417002010
:10188000AC1D0020D81D00209D4ADFF8D8E213705F
:10189000B5F8482211B2DCF8000028F8131000F562
:1018A00096704EF823000133122B964DF3D1386811
:1018B000C30458BFBAF95412E980934901F1500E9C
:1018C00091F89934FBB991F89BC491F89C349C45EC
:1018D00019D2BCF1000F08D00CF1FF3C0CEB8C0CC2
:1018E0000CEB8C0C0CF5617306E0013303EB830306
:1018F00003EB830303F5617391F89AC49BB20CF177
:10190000040C25F81C3004317145D9D1030740F18E
:101910005B819AF84052082D00F25081DFE815F003
:1019200009000C0013004400650086008600C80012
:10193000260145F2F05201E042F6F822734B1A807C
:101940000FF0C5FA39E142F6F821704B1201198007
:101950000A2392FBF3F26E49A2F5B062002341F82C
:1019600023200133122BFAD16A496B4A40201160BF
:101970006A4A13700DF0EAF90546002800F01E814E
:1019800010F036FF9AF8413295F900E0002B0CBFB9
:101990000622072200280CBF012303230192009393
:1019A00005465F4B5F4AA2E042F6F822574B4020C3
:1019B0001A805D4A584B1A60584B10221A700DF06D
:1019C000C5F90546002800F0F98010F011FF002845
:1019D0000CBF01230323002295F900E0019200933C
:1019E00005464FF4E133514A81E042F6F822474B75
:1019F00040201A804E4A484B1A60484B08221A7001
:101A00000DF0A4F90546002800F0D88010F0F0FE93
:101A100000280CBF01230323002295F900E0019266
:101A2000009305464FF4E133424A60E042F6F82263
:101A3000364B4FF00C0E1A80384B3F483F49404A16
:101A400083F800E0062D4FF0000303700B70137055
:101A50000BD03C4B1B221A703B4B052283F800E055
:101A60003A4B4FF4E1381A7009E0364B21221A70D4
:101A7000354BDFF8F48083F800E0344B1D70344AB6
:101A8000254B40201A600DF061F90546002800F052
:101A9000958010F0ADFE00280CBF01230323002227
:101AA00095F900E00192009305464346294A1EE05D
:101AB00044F62062154B40201A80274A164B1A60C4
:101AC000164B0A221A700DF041F90546002875D010
:101AD00010F08EFE00280CBF0123032395F900E0CF
:101AE0000546002201921D4A00934FF4E133402144
:101AF00070460DF097F8002D5CD0194B186059E036
:101B0000300F0020AC1D0020F03400203E090020E2
:101B10004416002009A000080C040020F42800202E
:101B2000A086010051A20008C99F000855A1000825
:101B3000B19F00080DA10008D215002091160020C9
:101B40009016002092160020D11500209316002038
:101B5000F19E000839A0000805F00008F5F0000823
:101B6000FC280020E80E002090D0030041F27C52B7
:101B70004B4B00251A804B4A4B4B40201A604B4B75
:101B800010221A704A4B28221D704A4B1A700DF011
:101B9000DDF898B1032390F90000474A01950093BE
:101BA0004021464B0DF03EF8454D012128600EF0D6
:101BB00072FB2868003018BF012028B908200EF0F9
:101BC000C5FF404A384B1A6042F201033968374A70
:101BD0000B408BB144F62060314B8D04188004D546
:101BE000082313703848304B1860C80704D50C23FD
:101BF000137036482C4B186013780025043B537043
:101C0000334A344B11F4803FC2F82C31324B9046AA
:101C10001D7000F0FD80039313F044FA039B4FF016
:101C2000010940F22A32294608F5987083F800909D
:101C300018F02AFB294B2A495869D1F88820024319
:101C40005A61284AC1F88C50C1F8802091F885204B
:101C500015A803938DF854208DF855908DF85650A3
:101C60008DF8579012F0D4FF16200EF0FFFC1621CD
:101C700081710221C17105721B21C8F85C040EF04C
:101C80001BFD039B18481949EA0001F1BC0E5EF8E0
:101C900035E086452CD10A4492F8C0002CE000BF04
:101CA0003E090020EDEF00080C040020F42800207D
:101CB000401D0020411D002015F0000848E80100EB
:101CC000E8140020D1EF0008E1EF0008D5EF00088C
:101CD000B0040020D43700208C3C002000100240CB
:101CE000600300204993000800040040D8A30108C5
:101CF0000135042DC7D10020039312F06BFFBF4ABA
:101D0000BF491268BF4DB2FBF1F22988013A21F4B4
:101D10005C710904090C298092B21D21A9852A85CC
:101D20000122AA82298C049221F001010904090CE4
:101D30002984298CB5F804E0288B21F0020120F0D9
:101D4000730000040904000C090C11434FF0000952
:101D50001FFA8EFE40F06000A5F804E02883A5F885
:101D600034902984298B039B21F008010904090C74
:101D700041F008012983B5F844106FEA41416FEA48
:101D8000514189B2A5F844105969114359619E4BDC
:101D90001846039308F0AEFC15A808F080FC9B4998
:101DA000039B15919A49184616911021179140F2FC
:101DB0002A31189180211A914FF480711B914FF4B0
:101DC00000511E9115A9CDF86490CDF87090CDF812
:101DD0007490CDF87C9008F06FFCA989039B89B2C0
:101DE00041F40071A9811968049A41F00201196057
:101DF000884988F86024FF22731826F80190043679
:101E0000802E9A70DA70F7D107F030FF07F02EFFBE
:101E10003B685B0553D5804E804B326804201A60C6
:101E20000CF094FF0421C4F864040CF065FF3268E0
:101E30007B4B84F8680408201A600CF087FF794B0C
:101E4000082118600CF058FF774D002184F86904D0
:101E50002C22284618F018FA7C232B708E236B70E6
:101E6000E023EB707D23326885F82B306F4B202008
:101E70001A600CF06BFF2021C4F86C040CF03CFFDE
:101E800084F8700410200CF061FF1021C4F8740471
:101E90000CF032FF664B3B221A7001225A703A2234
:101EA0001A719F229A711E221A72A4225A7200225B
:101EB0009A72DA721A7384F8780410F0A6FC5D4BFB
:101EC0005D4C1B78022B7DD12588002D7AD10F2304
:101ED0008BF806300E2313218BF8073058468BF809
:101EE0000850C8F87CB40EF0E7FB58460EF0C3FD6E
:101EF000524A3220138823F040031B041B0C13802A
:101F0000138823F038031B041B0C138013889BB227
:101F100043F0400313809F238DF834308DF8355003
:101F20008DF836508DF8375012F0FEFD58468DF87A
:101F300055500EF09BFD04220DA915A812F01AFFB2
:101F400058460EF098FD9DF856309DF855201B021E
:101F500043EA02429DF857301343394A934217D05F
:101F60000CDC384A934215D00132934217D0A2F5C7
:101F70001A42033A934220D120230CE0324A934282
:101F800008D0013293420AD0304A934215D101E081
:101F9000402300E0802323804FF4807302E04FF45D
:101FA000807323806380A38822881B02A36053432D
:101FB000E360012388F8803404E0002323806380F9
:101FC000A360E360E568002D4FD0ED0A2E464FF088
:101FD00000080DF15409A84509DA08EB050464105E
:101FE00010224946E00207F005FE0F2832DC07F018
:101FF000C3FD174BF6021E6037E000BF5C030020F4
:1020000000366E01000400406C00024034040040C1
:10201000E00500208E3C0020941800206014002071
:10202000A0140020BC14002070140020D414002040
:10203000C82800200129002084000020003800402A
:102040001620C20017BA20001740EF001720C20068
:102050000C150020002359F82320013257D10133F9
:10206000042BF8D125462646B5E7BAF8D831704A90
:10207000013B9BB2052B9EBF012382F8EA3182F817
:10208000DA31029A9AF8EA3152695343694A136085
:102090003B68694A13F4002318BF01231370644B93
:1020A0005A791C46052A02BF644B4FF4C8721A8045
:1020B00008F0C1FB624BC8221A80624A137843F0D1
:1020C00008031370604A137823F00203137040F67C
:1020D00002033A6813406BB15C4A5D4B1A605D4B7A
:1020E00003221A705C4B01221A705C4A0023138091
:1020F0005B4A1380A36801223B605A4B1A705A4A0C
:10210000137863F07F03137021B0BDE8F08F04F102
:1021100001083446A7E7554B00221A7000B214F0AC
:1021200065FE534914F0B6FE414C0646B4F9CC01A5
:1021300014F05CFE4E4914F0ADFE0546B4F9D00132
:1021400014F054FE4A4914F0A5FE4A4904463046AC
:1021500014F098FD13F038FF8046304613F034FF3A
:1021600044490646284614F08DFD13F02DFF07461E
:10217000284613F029FF3F490546204614F082FD0A
:1021800013F022FF8246204613F01EFF414681468F
:10219000504614F07FFE41460290484614F07AFE05
:1021A00051460390304614F075FE4946049030467F
:1021B00014F070FE39460590504614F06BFE2E4C1C
:1021C0004946206007F1004014F064FE0499606005
:1021D000A560284614F05EFE039914F053FD05999E
:1021E000E060284614F056FE0146029814F048FDBF
:1021F0003946206106F1004014F04CFE02996061FE
:10220000284614F047FE0146059814F039FD03995D
:10221000A061284614F03EFE049914F033FD4146B7
:10222000E061384614F036FE2062FFF729B800BF9F
:10223000F034002014190020CE1C0020780F00205C
:10224000143C0020E5140020101E0020063700205A
:102250004C170020E61F002058030020A432002065
:10226000A6320020DC0D0020853C0020A4000020C8
:1022700035FA8E3CDB0FC93F28170020694B2DE94A
:10228000F04F1B68A3B09A6A674B1A80674B1978A6
:102290000693012904D1664B1A80664A12885A8037
:1022A000654B1A780493002A01F0C98012F0FEFBF6
:1022B000624B05909B6813B1049A901C9847604B41
:1022C000604DD3F8008018F0080F38D05E485F4AA0
:1022D000848804F10E039BB21C2B5D4BB3F90430D0
:1022E00029D85C4909884E0725D50A2193FBF1F1CD
:1022F0001288594B891A89B20AB212F1B30FBCBFC6
:1023000001F5B4710AB2B32A1B78C4BFA2F5B47246
:1023100012B2190713D595F9D411504B49424A43CB
:102320001B6812B25B7A5A436FF01D0392FBF3F302
:102330002344838003E00A2193FBF1F31380484B8D
:10234000B3F90640474B1B685A8994420CDB197A53
:10235000B4F5FA6FBFBFA31A4B43C2F5FA6193FB02
:10236000F1F1C1F1640100E0642140F2E63995F930
:10237000D431B5F8480295F826E295F827C25B42B9
:10238000314D1FFA83FB0022374B5700D154344B99
:1023900033F91260331A03F2F31ACA450ED8002B30
:1023A000B8BF5B42022A0DD0734502DDCEEB0303BA
:1023B00000E000238642EB530EDB10E0022A4FF4CC
:1023C000FA73F3D16345CCBFCCEB0303002303FBCB
:1023D0000BF38642AB8005DAEB5B5B42EB530132D9
:1023E000032AD1D1214B1D6815F480550ED0B4F5C8
:1023F0007A7F06DBB4F5FA6F2246A8BF4FF4FA6283
:1024000001E04FF47A72A2F57A723AE00D4BB3F81C
:102410004A128C422CDBB4F5FA6F2246A8BF4FF467
:10242000FA6226E0DC170020E41F0020721700206B
:1024300074170020901500203809002088290020FA
:1024400080290020F0340020F41800207E0F0020A6
:10245000FC180020081E0020E51400204C15002068
:10246000AC1D00202C28002010190020A81D0020E1
:102470000A46521A4FF47A735A43C1F5FA61B2FB15
:10248000F1F2642392FBF3F1A34F01F1010E37F94E
:10249000116037F91E706FF0630E0EFB0121BF1B38
:1024A00001FB07F292FBF3F293199C4A9BB2D38093
:1024B000B5B19B4A1268D20012D59A4AD2787AB93D
:1024C000A3F57A731BB24FF47A721B0393FBF2F3FA
:1024D000C0F5FA6212B2534300EB23308F4BD88021
:1024E000914D2F887B0645D5904B0A20B3F90430D7
:1024F00093FBF0F08E4B1B88C01A00B214F076FCF0
:102500008C4914F0C7FC8C49064614F0BBFB13F051
:102510005BFD8346304613F057FD804E8146B6F989
:10252000020014F063FC8246B6F9000014F05EFC71
:102530005946089014F0AEFC51460790484614F0F6
:10254000A9FC079A0146104614F09AFB14F07EFE8F
:1025500059463080504614F09DFC089B824619462F
:10256000484614F097FC0146504614F08BFB14F0DB
:102570006DFE708018F0140F704EDFF8F08166D099
:1025800017F4027F63D06E4B644A1B7803F010038C
:1025900003F0FF0E43B16B4B98F99802196853880A
:1025A00000FB0133538052E0674B68491B68D878C1
:1025B0009B7808B3B1F90010601A0028B8BF4042F8
:1025C00098420DDD62488C42C0F800E04FF00100F7
:1025D0003071C8BF5B42D0889BB20344D38036E0E1
:1025E00033792BB15B4B86F804E018685A4B1860BE
:1025F000544B1B680B441FE0B1F900E0CEEB040123
:1026000081EAE17CACEBE17C9C4509DD022391FB96
:10261000F3F1524B1960524901230B70337108E0FA
:10262000337933B14B4B307119684B4B19604C4BBC
:102630001870444B1B6873444A49086801884088F5
:102640008B4203DB98420146A8BF1946D180464B16
:102650001B78B3B1B8F84A32A34212DB434B5B7923
:10266000012B01D0192B02D198F893224AB90E2BD5
:1026700007D0082B05D0294B00229A803C4B002222
:102680009A6098F814426CB3BF072BD0394B3A4983
:102690001F6A384614F0A6FDF8B9384615F0C0FB9D
:1026A000364B196814F0F6FB15F040FBB0F5617F6E
:1026B000A8BF4FF4617014F099FB314914F09EFCEF
:1026C00013F082FC0746204614F090FB394614F0C4
:1026D000E1FB15F02BFB00B200E000200F4AD3888D
:1026E0001844D08098F84E32264A1BB92988002910
:1026F00000F0AB801278094D002A00F08980022B8F
:1027000042D0032B52D198F84F32C3EB431203EB64
:102710008203DB0048E000BFB61C0020F418002054
:102720000C1E0020DC1D0020081E0020FC180020CC
:10273000800F002035FA8E3CDB0FC93F380900209E
:10274000E5140020583C0020D4180020840F0020FD
:10275000543C0020403C0020483C00204C3C0020E1
:102760005C3C0020D81800204C030020F0340020EE
:10277000E8180020483400208FC2753CC81800209B
:10278000EFB6B044820F0020AB4BD3F8F820B2F57F
:102790007A7F05DB44F620639342A8BF134601E02D
:1027A0004FF47A7303F57A739BB200E0F388A34A7F
:1027B0001068A34AB3FBF0F01278441C24B2092A33
:1027C000348105D19F4A2988D3801180698851803E
:1027D000B6F90A80DFF8889200239B4E39F913E09E
:1027E00006F10C0C3CF9131006F1140708FB01F17B
:1027F00091FBF4F137F8132027F813E0C2EB0E0237
:102800000A442CF813200133042BE6D1708102E036
:102810007389013B73818C4A0023B2F90A40002C72
:1028200011DDB2F908601432884932F8130031F929
:102830001310614391FBF6F1411A25F8131001338F
:10284000042BF1D106E0538104E013787181002B51
:1028500000F0AB807E4B93F8500220B17D4B1B689B
:102860009E0001F10D847C4B00251F68069B07F13B
:1028700004091B780493794B1B681B7806936B0043
:10288000022D0793764B15BF3878787897F8028039
:1028900097F8098033F9154014F0A8FA714914F03B
:1028A000ADFB4FF08041064614F0B0FC60B14FF034
:1028B0008041304614F0E4F96B4914F0EBFA01461C
:1028C000304614F0DFF90646204614F08FFA6749C7
:1028D00014F094FB0021044614F098FC002841F009
:1028E0002D8404F1004B624A4FEA850A42F825B074
:1028F000B8F1000F23D0404614F078FA594914F08B
:102900007DFB59468046584614F0C4FA01465846A5
:1029100014F0C0FA214614F0BDFA414614F0BAFA98
:10292000414607904FF07E5014F0AAF9214614F06A
:10293000B1FA079B0146184614F0A4F904464D4924
:10294000304614F0A7FA214614F0A4FA19F8018FC2
:102950000646B8F1000F41F01384049B0C2B05D1FF
:10296000304614F073FC374B6A009852069B424C79
:10297000002B41F038844149304614F08BFA40492D
:10298000064614F025FC002841F02A843D493046D3
:1029900014F03CFC00B13B4E0135032D44F80A60B5
:1029A0007FF46DAF384B00221A70384B187800282E
:1029B00040F03885364E33681C0340F13385354C82
:1029C0002378033B052B1CD8214B1F4D93F845352D
:1029D00033B1012B08D106F0E5FFC0F17F0003E021
:1029E000686A03689B689847AB6A95F82C20134483
:1029F000B3F5807FA8BF4FF480738342D4BFAB622E
:102A0000A8622378023B092B00F27A84DFE813F0F6
:102A10000A0046007700780478048F00A10029049A
:102A20004B045B04084B00229A621A631A4A12682C
:102A30005A63032300F063BCA8000020141900208F
:102A40007217002074170020380900204409002064
:102A5000F03400200C1E00202C2800204C150020F3
:102A6000F41800200000C842D7A368410000FA43D0
:102A7000481C002000004843E818002033338340FE
:102A800000F0FFC500F0FF45820F00204815002030
:102A9000A81D0020CE1C0020D81D0020974B984D6B
:102AA0001A686B6B6433934280F02A84402012F0E2
:102AB0005DFB002840F024842F46DFF848924FF059
:102AC00040082B6B19F8030060B112F029FCBB6AB7
:102AD000B8F1010803F1FF33BB623B6B03F1010363
:102AE0003B63EED12A6B8749854B8A5C002A40F014
:102AF00007841A634FF0FF325A630423FFE3824ACC
:102B00005021A2F10C030193292302920093492042
:102B1000A2F10A03163A10F033FA002840F0F083CD
:102B2000774B4FF0FF3218635A630723E7E305231F
:102B30000093764B002102910191A3F108025320EA
:102B400010F01EFA002840F0DB836D4B1863082359
:102B5000D5E3402012F00AFB002840F0D183684DF5
:102B60002B6B492B01F25183DFE813F04A004D0033
:102B7000520056005900600065006A006E00720045
:102B80007E0089008C0097009B00A000A500B60085
:102B90000A011B012C013D014E015F0170018401FE
:102BA0008E019C01AA01B801C601D401E201F00125
:102BB000FE010802160220022A0234023E024802E6
:102BC00052025C02660270027A0284028E0298024D
:102BD000E402EE02F802020307030C0311031603DA
:102BE0001B0322032B0336033B03400345034A0325
:102BF0004F03540359035E03630368036D037203B9
:102C00004349444827E3444B444A4549454833E057
:102C1000454A46494648D1E2464947481BE3474BA7
:102C2000474893F8442593F84315C7E2434B45487A
:102C3000B3F8CC100FE3414B4348B3F8CE100AE38E
:102C4000424B4348196906E3424B4348198902E362
:102C5000AB6BD90404D5394B404893F81612FAE20D
:102C6000274B0B221A63F8E234493D4891F8193298
:102C700091F81B2291F81A1212F02DFCEDE2A98FA7
:102C80003848E8E233681A0540F1E7822B4B3648B2
:102C9000B3F91E22B3F8201290E22C4B3348596945
:102CA000D9E2264B324893F8DA11D4E2234B31486B
:102CB00093F8EA11CFE22148622290F8983402FB9F
:102CC00003F1431893F810240C2303FB021303446D
:102CD00093F812142848BEE21848622290F89834FB
:102CE00002FB03F1431893F810240C2303FB021397
:102CF000034493F814142148ADE200BFD81D00200E
:102D00003809002044A50108BAA5010898A70108C0
:102D1000E8C60108F4C6010805C701080AC701088A
:102D200012C7010818C7010840C7010849C70108B0
:102D300055C70108423A002069C70108F034002055
:102D400077C7010888C7010897C7010888290020AC
:102D5000A6C7010804290020B6C70108C0C701089A
:102D6000CDC70108E6C70108F1C7010804C801087A
:102D700010C8010823C8010838C8010842C8010862
:102D8000CB48622290F8983402FB03F1431893F881
:102D900010240C2303FB0213034493F81314C548B7
:102DA00059E2C348622290F8983402FB03F14318B9
:102DB00093F810240C2303FB0213034493F81B1411
:102DC000BD4848E2BA48622290F8983402FB03F109
:102DD000431893F810240C2303FB0213034493F8C5
:102DE0001514B64837E2B248622290F8983402FBD4
:102DF00003F1431893F810240C2303FB021303443C
:102E000093F81614AE4826E2A948622290F8983446
:102E100002FB03F1431893F810240C2303FB021365
:102E2000034493F81A14A74815E2A148622290F8C7
:102E3000983402FB03F1431893F810240C2303FB8E
:102E400002130344B3F81C149F4804E29848622319
:102E500090F898144B43C21892F810240C2101FBEF
:102E60000233C11891F8193491F81824974891F851
:102E7000171401E78E4B622193F89824944801FBC4
:102E8000023393F8D413E6E1894A622192F8983428
:102E9000904801FB032191F8E93391F8DF2391F881
:102EA000D513E9E6824A622192F898348A4801FBF8
:102EB000032191F8EA3391F8E02391F8D613DBE689
:102EC0007B4A622192F89834844801FB032191F8EF
:102ED000EB3391F8E12391F8D713CDE6744A6221E0
:102EE00092F898347E4801FB032191F8EC3391F875
:102EF000E22391F8D813BFE66D4A622192F8983424
:102F0000784801FB032191F8ED3391F8E32391F820
:102F1000D913B1E6664A622192F89834724801FBEF
:102F2000032191F8EE3391F8E42391F8DA13A3E644
:102F30005F4A622192F898346C4801FB032191F8B2
:102F4000EF3391F8E52391F8DB1395E6584A6221B7
:102F500092F89834664801FB032191F8F03391F818
:102F6000E62391F8DC1387E6514B622193F898240D
:102F7000604801FB023393F8DD136CE14C4A622197
:102F800092F898345C4801FB032191F8F23391F8F0
:102F9000E82391F8DE136FE6454B622193F89824FD
:102FA000564801FB023393F8F31354E1404B62217E
:102FB00093F89824524801FB0233B3F8F4134AE122
:102FC0003B4B622193F898244E4801FB0233B3F83F
:102FD000F61340E1364B622193F898244A4801FBEE
:102FE0000233B3F8F81336E1314B622193F8982499
:102FF000464801FB0233B3F8FA132CE12C4B622153
:1030000093F89824424801FB023393F8FC1322E121
:10301000274B622193F898243E4801FB0233B3F812
:10302000FE1318E1224B622193F898243A4801FBE1
:103030000233B3F800140EE11D4B622193F898247B
:10304000364801FB0233B3F8021404E1184B622145
:1030500093F89824324801FB023393F80614FAE0FF
:10306000134B622193F898242E4801FB023393F806
:103070000714F0E00E4B622193F898242A4801FBD4
:10308000023393F80814E6E0094B622193F8982480
:10309000264801FB023393F80914DCE0044B62215B
:1030A00093F89824224801FB023393F80A14D2E0E3
:1030B000F03400204CC8010859C8010866C801084E
:1030C00070C801087BC8010888C801089AC80108AF
:1030D000A9C80108BAC80108CBC80108DDC80108A1
:1030E000EDC80108FDC801080DC901081EC9010885
:1030F0002FC9010841C9010831C901084BC901089C
:1031000060C9010870C901087EC9010890C9010899
:10311000A6C90108B5C90108D1C90108E7C9010854
:10312000F6C901080DCA010826CA01083ACA0108F1
:103130004FCA0108974B622193F89824964801FBE7
:10314000023393F80B1486E0924B622193F8982493
:10315000924801FB0233B3F80C147CE08D4B6221E2
:1031600093F898248E4801FB0233B3F80E1472E0F2
:10317000884B8C4893F826126DE0864B8A4893F86A
:10318000271268E0834B8948B3F8D81163E0814B7C
:10319000874893F8DB115EE07E4B864893F8DC119C
:1031A00059E07C4B8448B3F8E221B3F8DE1105E026
:1031B000784B8248B3F8E421B3F8E01112F08BF9B0
:1031C0004BE0744B7E49D3F8F80113F063FE14F022
:1031D0003DF801467B483EE06E4B7B4893F8D511A5
:1031E00039E06C4B794893F8EE1134E0694B78483C
:1031F00093F8ED112FE0674B764893F88D122AE093
:10320000644B754893F84E1225E0624B734893F86F
:103210004F1220E05F4B7248B3F852121BE05D4B37
:10322000704893F8401216E05A4B6F4893F8E31039
:1032300011E0584B6D4893F8E2100CE0554B6C4888
:10324000B3F8DE1007E0534B6A4893F8EB1102E045
:10325000504B6948996812F03EF92B6B01332B6390
:103260004EE0664B1B689B011AD5654DB5F84030A2
:10327000B3B9644BD5F8448045201F6812F050F86C
:103280000E2012F04DF8404612F005F9384612F0C3
:1032900002F94FF48053EB870A2323700FF0AEFB43
:1032A0000FF04CFE2CE0564B93F84820002AF5D046
:1032B000524A12689701F1D493F84930002BEDD1AE
:1032C00009232370ECE7504B4D4D1A686B6BC833E4
:1032D000934204D22F4B93F845757FB904E011F067
:1032E0008BFF0028F6D10BE0686A0BF087FC95F89D
:1032F0004A306F62022B01D10DF030FD01232370A3
:1033000011F064FF58B1012323703D4B93F849201D
:10331000002A00F08780002283F8492082E01D4BBC
:1033200093F846251946002A7CD033680026DD0430
:1033300033464CBFB1F8DA20B1F8D020334D35F91F
:1033400013000133904218BF46F001060C2BF6D152
:103350002D4B2B4D1B6826B103F59C530833EB64B2
:1033600002E0EA6C9A4253D92378012B5AD195F89E
:103370004930002B56D191F845352BB106F000F9B4
:10338000012385F849304DE080200DF0DFFC002856
:1033900048D1F3E7F034002065CA01087CCA01086F
:1033A00091CA0108A7CA0108A3CA0108B3CA010843
:1033B000BFCA0108D1CA0108E4CA0108F8CA010855
:1033C0000000C84210CB01081ECB01082ECB01081B
:1033D0003FCB01084FCB010868CB01087CCB01082B
:1033E00099CB0108B6CB0108CBCB0108E0CB010893
:1033F000F5CB010807CC010815CC01080C1E0020F4
:10340000380900200C3C0020D81D0020F0140020BA
:103410002378012B06D095F849301BB106F082F8CD
:1034200085F84960B04B1B78072B05D111F03EFBA6
:10343000059BC01AAD4B5880AD4B00221A70AD4CA5
:1034400013A863689847A146002800F03881AA4D68
:10345000BDF94C30A94F2B60BDF94E3029466B6049
:10346000BDF950302846AB60A54B1A7807F0F6F945
:103470003B88002B00F0A080A24BA34E1B6806F1F6
:103480000C041B784FF0000804933B88D9F81420F3
:1034900005934FF47A73B3FBF2F3C3EB431203EBE0
:1034A0008203DB00059A9BB29A4202BF002333607D
:1034B000236155F8280033684FEA880B03443360D2
:1034C00013F094FC226902F1010ABAF1010FC4F869
:1034D00010A004D1002360602060A36022E0226875
:1034E00008901146079213F0CBFB0690504613F05C
:1034F0007DFC0146069813F081FD079A114613F0F2
:10350000C1FB089B014682466060184613F0B8FB79
:10351000069913F0BFFCA16813F0B4FBC4F800A037
:10352000E060A060794A002345F80B304BF8023088
:10353000059B012B2ED12069012807DD013813F0EE
:1035400055FC0146E06813F059FD00E0002014F03E
:10355000ADFE049B82464BB1184613F047FC514622
:1035600013F036FE10B107F066F925E0D9F8142003
:103570004FF47A73B3FBF2F3C3EB431203EB820312
:10358000DB0032689BB202EB530292FBF3F35F4A1B
:1035900042F80B3008F10108B8F1030F06F10406F8
:1035A00004F114047FF471AF3888012801D10BF0C5
:1035B000B7FC3B88013B3B805448002355F823204F
:1035C00050F823104C4C521A45F823200133032B9A
:1035D000F4D14F4B1A781F46002A63D0DFF80881D8
:1035E0004C4EC246DFF80491043C002598F80030A8
:1035F000032B04BF636829F81530474B1B78012B58
:103600000AD1606813F0F2FB444B01461C2000FB1A
:10361000053012F069FD1BE083B9606813F0E6FB2A
:1036200097F800B001463E4B3E484FF00C0E1B6829
:103630005A460EFB050012F043FE09E0606813F0E5
:10364000D5FB394B0146A42000FB053012F02AFDC2
:1036500070609AF80030082B04D1706814F066FB93
:1036600029F81500314B1B883BB1314B1C20716888
:1036700000FB053012F038FD70602E4B1B883BB10B
:103680002D4B1C20716800FB053012F02DFD706081
:1036900056F8040F14F04AFB0135032D44F8040FCB
:1036A000A4D10CE0206813F0A1FB244D28606068D1
:1036B00013F09CFB6860A06813F098FBA8600C4AAC
:1036C00092F8B432144623B1013B82F8B43200F0D0
:1036D000A7BD1B4B93F8DC211E469AB393F8EA3141
:1036E000013BDBB22FE000BF7217002074170020EF
:1036F000380900208829002004190020181700200C
:10370000C42A00209018002088090020D009002039
:10371000A02900202C1C0020A4290020A82900207A
:10372000FC290020DC090020000A0020A22900203A
:10373000082A0020002A0020602A0020301C0020D7
:10374000F0340020012384F8B43211F0AFF9974B24
:10375000974DD3F80080974BB6F82A12A3F1460292
:1037600007462868C047944B1A781E46072A04D19A
:1037700011F09CF9914BC01B988011F097F996F8C5
:1037800000B00490BBF1010F0AD18D49D4F8B832D2
:103790008A4A0968C31A93805B1AD380C4F8B802B6
:1037A000884B2A681B68E3B192F83340D4B1864A4B
:1037B0001268940718D5854A1278012A14D9DB7843
:1037C00083495A430988D31A994215B203DB9142BF
:1037D0000B46A8BF13462D031BB295FBF3F501243E
:1037E00005E01C46254602E001244FF48055794B44
:1037F000DB780D932CB1BDF954306B431B13ADF83E
:1038000054304FF000094E464F46734BDFF8ECA1A1
:1038100093F80080714BB3F902200892B3F90020AD
:10382000B3F9043009926E4A05931268634B06920D
:10383000474545D208980A9313F0D8FADAF80810E9
:1038400013F028FB0790099813F0D0FADAF8041067
:1038500013F020FB079A0146104613F013FA069B5B
:10386000079093F90000059B4042584313F0BEFABD
:10387000DAF80C1013F00EFB079A0146104613F00D
:1038800001FA13F0E3FC15AA00B20A9B0CB16843DD
:10389000001322F8170015AA32F91720B24203DCF0
:1038A0009145A8BF914600E01646BBF1050F03D134
:1038B000042F98BF23F8172001370AF1100AB7E741
:1038C000414BC9EB0606196836B211F480530793D1
:1038D000444A40D0444B45481B78B2F9062013F0C7
:1038E000040F08BF0368424F02BF1C8A404BA3F875
:1038F0007C4303683F481B8A00683F4CC588C5EB82
:10390000030E724508DCB0F900302068A7F87C236C
:10391000B0F9004015440AE02B449A4209DB2368C1
:10392000B0F90240B3F90230A7F87C23551B2DB241
:1039300019E0B7F97C339E45B3BF2368B0F9003076
:103940002268B0F90240A7BFB2F900401D46B3F9A2
:103950000230254607E0284BB2F906501B68B3F940
:103960000040B3F902309BB2A4B2C4EB030A0FFAD1
:103970008AFA56451E4A43DD4FEA0A3999FBF6F6A4
:103980000020C2F88063804508D915AB33F9107068
:1039900077433F1323F810700130F4E702239AFBBA
:1039A000F3F31C4424B20A9433E000BF5003002018
:1039B0004C150020283700207217002074170020B3
:1039C000141900204C170020A81D002058030020C7
:1039D0009C170020DC1D002013190020941B0020E0
:1039E000A4180020F4180020101E0020A8180020A1
:1039F00038090020B8330020BC330020F40B00202D
:103A00004FF0020996FBF9F69B1B34441BB224B21B
:103A10000A93B2F97C335F4A0C9317685E4A5F4B96
:103A200016785F4A1B68B2F9062006935D4B0B922D
:103A30004FEA480206F004060E921B6801F01002DD
:103A4000DFF88491F6B24FF0000B0F920E9A934577
:103A50004CD015AA3BF8022028461092119313F07F
:103A6000C5F9514B53F83B1013F014FA13F0EEFB69
:103A7000A0422146109A119B03DB0A998142A8BFFC
:103A800001460A440D9912B229F8022F09B1B988EA
:103A90000EE0079959B10699D888098A091A0C9835
:103AA000884202DC3988188803E0598800E03988A8
:103AB00078888A4203DB90420146A8BF11460F9ADC
:103AC000A9F800107AB176B1079A62B910930BF099
:103AD00001FA109B38B9069A0B99528A9142BCBFE1
:103AE000BA88A9F800200BF1020BAFE7398949B376
:103AF0002E4B4FF47A721B68B2FBF3F3B1FBF3F376
:103B0000012B05D942F210729342A8BF134600E080
:103B100002231BB29A4515DD254C3A8834F918501A
:103B200024484FEA480147189542B7F9847303DBEC
:103B3000FA18AA42A8BF2A4612B2014424F8182053
:103B4000A1F8842316B91A4B1B4A06E0194B93F8C7
:103B50009C23192A00F2408107E0B045F6D932F8DB
:103B6000161023F816100136F7E7012303FA02F2C4
:103B7000124B1340002B00F02F81114B1B88D805EE
:103B800024D5104B1A88ADF86C205A889B88ADF864
:103B90006E2030E0BC330020101E0020A81800204A
:103BA000AC1D0020B8330020F40B002014190020B5
:103BB000FC32002038090020F0140020324130038C
:103BC000081E0020F4180020FA320020BDF824302E
:103BD000ADF86C30BDF82030ADF86E30BDF8143063
:103BE000ADF87030079B43B1069B0B9A1B8A9A4233
:103BF00003DA059B5B42ADF87030AA484FF47A7245
:103C0000B0F902304FF4616103F5E163534393FB74
:103C1000F1F3A3F5FA73ADF88430B0F9003003F591
:103C2000E1635A4392FBF1F29F4BA2F5FA721B88B3
:103C3000ADF88620A3F2DC53ADF872309B4B9C4A62
:103C40001B6811881B8AC91AADF874105188C91AEB
:103C5000ADF876109188C91AADF87810D188C91AD4
:103C6000ADF87A101189C91AADF87C105189C91ABA
:103C7000ADF87E109189D289C91AD31AADF8823075
:103C80000023ADF8801019468A4A22F81310013338
:103C9000082BFAD1884B89491B68894D0593894BBC
:103CA000DFF810A21B684FF0640E0693864B4FF0AE
:103CB00001091B78C3EBC303CB180993099B8B4203
:103CC00070D00B782BB11533059A09FA03F3134022
:103CD00064D0069B11F806CC0E2202FB0C38B8F912
:103CE0000230B8F9002011F9010C9A1A11F9023CBE
:103CF00092B2534393FBFEF34FEA520B11F8057C4B
:103D0000CBEB0303089011F8030C1BB207937E0062
:103D100028B922A8064436F81C0C288019E022ABEA
:103D20001E44B5F9004036F91C6CB44208DA204450
:103D3000844203DC86423446A8BF04462C8008E057
:103D400007DD201AB04203DB8442A8BF04462646A2
:103D50002E80D8F80A0009FA07F73842B5F9006052
:103D600011F9040C079B00FB06F090FBFEF00CBF62
:103D700001244FF0FF34984209DB089B5A4392FB21
:103D8000FEF2CBEB02031BB28342A8BF03463AF814
:103D90001CB004FB03B32AF81C3000E02B80023572
:103DA00007318BE7474B494ED3F8008000254FF091
:103DB0000E09642709FB058393F9064036F9023F93
:103DC000E8B25C4394FBF7F4348010F0A3FC0135B7
:103DD0002044082D3080EDD13D4EDFF8E880336877
:103DE00013F0200F31D0002010F094FC314C054628
:103DF0002080012010F08EFC2F4B60801B6819067C
:103E000023D5344B274A1B681B78012B23D1D8F8C4
:103E100000C0B2F902109CF906304FF0320E5B423E
:103E20004B4393FBFEF3B2F900209FB29CF9143090
:103E30006FF03101534393FBF1F193FBFEF33944EF
:103E4000691A3B44218018446080D8F800301F4A2A
:103E500003F1700419E0D8F80070B2F9023097F954
:103E600006105943322391FBF3F12944218097F93D
:103E70001450B2F9001001FB05F292FBF3F210446A
:103E8000E2E70E339C42118026D032F9020FB3F9DB
:103E90000010B3F902508842F3DB85422946A8BFDF
:103EA0000146EEE7FC180020FC320020A818002094
:103EB000AC1D0020FC0D00200C1E0020C73300208C
:103EC000D60C002038340020C0330020FA0D00202A
:103ED000A81D0020A01800209A4F9B4D3B6893F925
:103EE0000430ABB995F89C8308F1FF33182B00F22E
:103EF0009280DFE803F05090906B909090649090E7
:103F00009090907690909090906B839090765000E7
:103F1000A9460023DFF838B2A5F8BE33B5F9BE4391
:103F2000072CDFDC99F8C023DFF84CA272B93A689D
:103F3000508812F057FF854A01461C20126800FB8A
:103F400004A012F089F9012289F8C0233BF914007A
:103F500012F04CFF01461C2000FB04A012F0C4F834
:103F600013F0E4FED8F800100E2202FB041200B297
:103F70002BF81400B2F90010B2F90220884203DBDA
:103F80008242A8BF02461146714B23F81410013437
:103F9000A5F8BE43C2E73B685B781BB16C4B0020C1
:103FA000598908E06B4B1B7803F0040303F0FF0111
:103FB000002BF3D108460CF03FFB01242CE0644CAD
:103FC0000020E1880CF038FB218905E0604C0020DE
:103FD00021890CF031FB618901200CF02DFB0224BA
:103FE0001AE05B4F0224A01E37F81410C0B201344F
:103FF0000CF022FB082CF6D106240DE0544F0324CC
:10400000E01E37F81410C0B201340CF015FB072C79
:10401000F6D1042400E0002433689A0602D4B8F1F3
:10402000050F0BD14A4F204639880CF005FB601C68
:104030007988C0B20CF000FB0234E4B23368DB02D2
:1040400005D495F8A43473B110F0BAFA0BE0424FDE
:104050000026A01937F8021FC0B20CF0EDFA0D2EA1
:10406000EFD00136F5E73D4B1B78072B05D110F05B
:104070001DFD049BC01A3A4BD88001232B70CFE062
:10408000384B1B885D063EF5EEAB2F4C364E237F3A
:10409000834210D0207712F0A9FE344912F0FAFEC4
:1040A0003349054612F0EEFD11F08EFF30602846D0
:1040B00011F08AFF20622F4CB4F9000012F096FE36
:1040C0000546B4F9040012F091FE3668049B0746D9
:1040D00031462846D3F8208012F0DCFE4146814666
:1040E000384612F0D7FE0146484612F0C9FD13F0DB
:1040F000ADF8DFF88890B0F5FA7FA8BF4FF4FA70FA
:104100004845B8BF484639462080304612F0C2FEC6
:1041100041460646284612F0BDFE0146304612F0E2
:10412000B1FD13F093F8B0F5FA7FA8BF4FF4FA7021
:104130004845B8BF4846A080FEF795BBA346FEF7AA
:10414000D2BB00BFA4180020380900201419002099
:10415000FC0D0020101E0020B21D00207217002050
:1041600074170020081E00200000002035FA8E3C45
:10417000DB0FC93FF4180020FC0C00200CFEFFFFF1
:104180000021204613F042F808B904F100444046EB
:1041900012F02CFE244912F031FF214612F07AFE73
:1041A00001464FF07E5012F06BFD2049044613F09B
:1041B0000FF840B94FF07E51204613F027F818B1A0
:1041C0004FF07E5400E0194C21464FF07E5012F023
:1041D00015FF0146304612F05DFE0646FEF7BDBBF8
:1041E000134EFEF7D9BB1349304612F0F1FF48B920
:1041F0001149304613F00AF800283EF4CDAB0E4EBC
:10420000FEF7CABB0B4EFEF7C7BB10F0F5FF002848
:104210003FF476A84FF48053EB870A23FFF76FB87B
:1042200023B0BDE8F08F00BF0000C8420AD7233C8E
:1042300000F0FFC500C0F9C400C0F9442DE9F04FFB
:10424000914BADB01D780093002D00F0A7808F4BEF
:104250001868002801F042870CF03EFCDFF85C9201
:10426000DFF85C82D9F800000CF01EF8002801F09D
:104270003587D9F800000CF014F80928844C01D0D7
:104280003F2855D14FF0000A5746554626680AEB9D
:10429000080B36B132465AF808107E4816F038F846
:1042A00020B90DB15F4601E05D465F460AF1080A9C
:1042B000BAF5907FEBD1F5B1D5F800A0D7F800B0F2
:1042C000DFF8D0C123681AF803001BF803108142FD
:1042D00011D15A1CDFF8BCE149B92D2B07D86C4825
:1042E000026020200EF803000EF8021003E00CF824
:1042F00003002260E6E723680BB1BD420FD0664899
:1043000004F0EEFABD4207D855F8080B04F0E8FABD
:1043100009200BF0FAF8F5E707F0BEFF00265D4D27
:1043200023689E429ED2A85D0BF0EFF80136F7E7B6
:1043300023686BB9042804D1564804F0F1FC01F05D
:10434000CDBE0C2841F0C686544804F0C9FA22E0DC
:104350000C28F9D00A2841F04E864E4E504804F001
:10436000BFFA2321304615F0C4FF354608B1801B43
:10437000206023680022002B41F04186002A41F092
:10438000598630220021434815F07EFF009B1B78A0
:10439000002B01F0A38607F07FFF63E7414B03F199
:1043A0003007414BEA18EB58002B01F060803F4C7E
:1043B0003F4922603F4A2646894692460B60059354
:1043C00000238DF819303C4814238DF8183004ABC5
:1043D00004920360D9F80000DFF8D4800BF064FF8A
:1043E000002801F03080D8F800000BF05AFF336845
:1043F000834693F8481019B9242863D101221DE09F
:10440000012903D14D2808BF022204E0022907D167
:104410003C2808BF032218BF002283F8482085E00B
:1044200003290ED140284FF0000102D983F848102B
:10443000D0E758711971D9719871042283F8482016
:10444000C8E7042907D1997983F8490080EA010275
:104450009A710522F2E7052968D1587919798842BD
:10446000987908D98BEA00009871481C18710B44A0
:1044700083F808B0AEE7584503D1062283F84820F8
:104480005AE00022DAE700BF481500203C1E002059
:104490004415002014150020ECCC0108F1CC0108D3
:1044A00037D10108B8A7010830280020301E0020AD
:1044B000381E0020B5020108341E0020101500200F
:1044C00048AB0108BF490B7803F0040303F0FF0E6B
:1044D000002B7FF47FAF23281DD1009A0123D8F849
:1044E00000001370B84B01911860B84B1860B84BBE
:1044F000586010201872B748C3F800A0036083F812
:1045000009E0B54804F0ECF907F0C6FE01990B7814
:1045100043F002030B70B14B1B681B785B4505D160
:10452000AF4BB04A1A60B04BB04ADA60336893F8C8
:104530004820062A7FF44EAF93F84980B8F1520F15
:1045400000F0878600F2D880B8F1340F00F0508474
:1045500067D8B8F1240F00F0D6842DD8B8F1040F35
:1045600000F0388215D8B8F1020F00F0188200F27E
:104570002582B8F1010F40F0AB8703200AF0B0FFAD
:1045800000200AF068FF40460AF065FF152000F0A1
:1045900036BFB8F10A0F00F05B82B8F1220F00F0CD
:1045A0000684B8F1050F40F093871A200AF098FFAF
:1045B0000026DFF854821EE2B8F12C0F00F0F884D8
:1045C0001BD8B8F1280F00F0DA84B8F12A0F00F0F8
:1045D000E984B8F1260F40F07B87854E06200AF06B
:1045E0007FFFB6F8C8010AF07EFFB6F8CC010AF0EA
:1045F0007AFFB6F8D00100F0FFBEB8F1300F00F03E
:104600008D85B8F1320F00F03185B8F12E0F40F0F2
:104610005F87774E40200AF063FF06F1400800F004
:104620006DBDB8F1450F00F0198636D8B8F13B0FD3
:1046300000F0B68319D8B8F1380F00F08D84B8F1C6
:104640003A0F00F02A83B8F1360F40F04187694BEA
:10465000674E187806F12808C0EBC000C0B20AF017
:104660003FFFDFF8A89100F045BDB8F1400F00F022
:104670000485B8F1420F00F01085B8F13D0F40F00D
:1046800027875B4E02200AF02BFF96F88F020AF074
:10469000E2FE96F88E0200F0B2BEB8F14B0F00F0C9
:1046A000B28410D8B8F1470F00F08D85C0F077853F
:1046B000B8F1490F40F00C8702200AF011FF4E4B71
:1046C000988A00F099BEB8F14F0F00F0B585B8F1A7
:1046D000500F00F09F85B8F14D0F40F0F986474E1E
:1046E000DFF82C8130784FF0000900EB4000C0B2B9
:1046F0000AF0F6FE00F0A2BCB8F1700F00F02883BB
:1047000000F28A80B8F1660F00F0DE812CD8B8F193
:104710005E0F00F03C860DD8B8F15A0F00F0EB8523
:10472000B8F15C0F00F00686B8F1540F40F0D08667
:1047300000F08FBDB8F1640F00F07A8100F29A8129
:10474000B8F1600F40F0C486294E03200AF0C8FE7D
:1047500096F8D5010AF07FFE96F8EE010AF07BFE8E
:1047600096F8ED0100F04BBEB8F16C0F00F08582B9
:1047700016D8B8F1680F00F06782C0F0D281B8F1A6
:10478000690F40F0A586DFF87480002698F80000D5
:10479000DFF88090400000F0FE000AF0A1FE61E228
:1047A000B8F16E0F00F07D8200F2A08206200AF0C0
:1047B00097FE134B18680AF09FFE124B188800F002
:1047C0001BBE00BF101E0020101500205418002032
:1047D000E00D00203C1E00201CCD0108583A0020AE
:1047E000F04F0020EFBEADDE00ED00E00400FA0562
:1047F000F0340020B41C002088290020F428002078
:10480000403C00205414002049C701085C3A0020B5
:1048100048370020AC1D0020B8F17D0F00F0418525
:104820005BD8B8F1750F00F0AF823ED8B8F1730FC6
:1048300000F0428300F2AE80B8F1720F40F048867B
:10484000D94E16200AF04CFEB6F848020AF04BFE8C
:10485000B6F8CC000AF047FEB6F8CE000AF043FEE8
:10486000B6F8D0000AF03FFEB6F89C020AF03BFE14
:1048700000200AF0F0FD00200AF0EDFD00200AF013
:10488000EAFD96F823020AF0E6FD96F844020AF0E3
:10489000E2FD00200AF0DFFDB6F9F0310A2093FBBB
:1048A000F0F080B20AF01FFE5AE3B8F1780F00F082
:1048B0004781B8F17C0F00F0E584B8F1770F40F044
:1048C0000786DFF81083002698F800000AF008FE3B
:1048D000DFF804A3DFF80493E4E2B8F1A00F00F0DE
:1048E00004833FD8B8F17F0F00F02584C0F0F48432
:1048F000B8F1960F40F0EC850F200AF0F1FDAB4BBC
:1049000018880AF0F0FDAA4B188880B20AF0EBFD77
:10491000A84B1B68C3F3C000C3F38002800040EAC9
:104920004200C3F340021043C3F3401240EAC20006
:1049300003F0100318430AF0D6FD0AF0B9FC0AF0A0
:10494000DBFD994B93F898040AF085FD9A4B188883
:104950006428A8BF64200AF0C6FD02200AF07BFD8F
:10496000964B22E2B8F1F10F00F04881B8F1FE0F4A
:1049700000F0AD82B8F1F00F40F0AA858A4E042015
:104980000AF0AEFDB6F8F4010AF0ADFDB6F8F2019A
:1049900000F032BD4FF000094FF0010B54E204204B
:1049A0000AF09EFDDFF83882002618F8060001366E
:1049B0000AF051FD042EF8D100F03FBD03200AF0AB
:1049C0008FFD03200AF047FD00200AF044FD01207E
:1049D00000F015BD06200AF083FDDFF808820026EE
:1049E00018F8060001360AF036FD042EF8D1744B93
:1049F000187800F001BD18F8060001360AF02BFD0A
:104A00000B2EF8D1DFF8E081002618F806000136F9
:104A10000AF021FD082EF8D1DFF8D081002618F821
:104A2000060001360AF017FD072EF8D100F005BD8B
:104A300007200AF055FDE7200AF00DFD5A4B587982
:104A40000AF009FD00200AF006FD042000F017BC62
:104A50005C4811F067FCC6B230460AF041FDDFF851
:104A600090814644B04500F0E88418F8010F0AF040
:104A7000F2FCF7E70B200AF033FD4C4B18880AF0E4
:104A800032FD4B4B188880B20AF02DFD494B1B6854
:104A9000C3F3C000C3F38002800040EA4200C3F3C6
:104AA00040021043C3F3401240EAC20003F0100377
:104AB00018430AF018FD0AF0FBFB0AF01DFD3A4B03
:104AC00093F8980400F09BBC12200AF009FD3E4BBD
:104AD000DFF820911B890026B3F5007F94BF4FF0CB
:104AE00001084FF0040859F82600013690FBF8F051
:104AF00080B20AF0F8FC032EF5D1344E30880AF06B
:104B0000F2FCB0880AF0EFFC3089314E0AF0EBFC81
:104B100030880AF0E8FCB0880AF0E5FC308900F043
:104B20006BBC10200AF0DCFCDFF8CC80002618F803
:104B3000060001360AF08FFC102EF8D100F07DBC83
:104B4000194E70200AF0CCFCB0464FF0000A4FF02E
:104B50000E09B6F854010AF0C6FCB6F856010AF080
:104B6000C2FCB6F858010AF0BEFC96F85A010AF0E9
:104B700072FC96F85B010AF06EFC96F85C010AF094
:104B80006AFC96F85D010AF066FC09FB0A830AF1EB
:104B9000010AD3F85E010AF0AFFCBAF1080F06F182
:104BA0000E06D6D100F049BCF0340020E41F0020EE
:104BB000A43400208029002090150020E71F002049
:104BC00001290020423A0020042900200419002075
:104BD000643C0020111E0020121E0020B8A701080E
:104BE00054CD010859CD010840C701080AC7010882
:104BF000413A002048140020FC0D002070200AF0EB
:104C00006FFCC44E06F1700896F8E4000AF023FC2D
:104C100096F8E5000AF01FFC96F8E6000AF01BFC87
:104C200096F8E7000AF017FC96F8E8000AF013FC83
:104C300096F8E9000AF00FFC073696F8E3000AF050
:104C40000AFCB045E0D1F8E310200AF049FCDFF897
:104C50000083002618F8060001360AF0FCFB102E2F
:104C6000F8D1EAE398F800309E4280F0E68339F804
:104C700016000AF038FC0136F4E7A74E06200AF0C9
:104C80002FFC30880AF02FFC70880AF02CFCB6F953
:104C900004300A2093FBF0F023E004200AF020FC0B
:104CA000ECE207200AF01CFC9C4B1888FF28A8BFE8
:104CB000FF20C0B20AF0CFFB994B186880F31000B8
:104CC00080B20AF010FC974B18880AF00CFC914B4C
:104CD00093F82322944B18682AB10A23584380F38F
:104CE000100080B288E300F30F00FAE78F4E0C202B
:104CF0000AF0F6FB3368B04618780AF0ACFB33686C
:104D00004FF0000998780AF0A6FBD8F80030874EDB
:104D10004B44587909F101090AF09DFBB9F1030FE1
:104D2000F3D13368187A0AF096FB3368D8780AF022
:104D300092FB336818790AF08EFB336858890AF0C1
:104D4000D2FB3368587A0AF086FB3368587856E30A
:104D50001E200AF0C5FBDFF8DC810026D8F8003001
:104D6000334458780AF077FBD8F800303344D87AC7
:104D70000AF071FBD8F800303344587D01360AF050
:104D80006AFB0A2EEAD158E32F200AF0A9FB684EED
:104D900016F8010F002800F050830AF05CFBF7E7DB
:104DA00001200AF09DFB634B1B68187827E3502015
:104DB0000AF096FB574E4FF00C0906F150085E4A78
:104DC00096F89934043609FB032393F838000AF067
:104DD00042FB96F896040AF03EFB96F897040AF018
:104DE0003AFB96F898040AF036FBB045E7D124E385
:104DF0005A200AF075FB474E06F15A0896F8EE0461
:104E00000AF029FB96F8E9040AF025FB96F8EA0473
:104E10000AF021FB96F8EB040AF01DFB96F8EC046F
:104E20000AF019FB063696F8E7040AF014FB46452B
:104E3000E4D102E3BBF1000F00F0FF825FFA89F0DA
:104E40000AF04EFB4FF0000B00263C4B1B789E42B5
:104E5000F0DA3B4B0021F05C4FF00C0E0EFB01F33F
:104E600013F807C0844503D001311F29F6D10CE0A7
:104E7000314A1344D3F834A0504611F053FA014696
:104E8000BBF1000F00F0F98289440136DDE700FB39
:104E900002F313F807E08E4500F0FC8201321F2A6E
:104EA000F5D1013698F800309E4280F0C68216F89F
:104EB0000A1000220C20EAE708200AF011FB012664
:104EC000F0B201360AF0C7FA092EF9D1B5E208208E
:104ED0000AF006FBDFF87C80002638F81600013661
:104EE0000AF001FB042EF8D1A7E20C200AF0F8FA30
:104EF000144B18680AF000FB134B18680AF0FCFA10
:104F0000124B1868BBE104200AF0EAFA014B9868DA
:104F1000B5E100BFF0340020FC1800209C170020F1
:104F200050170020343D0020641400202C2800205D
:104F3000B7A701084C150020B8A70108111E0020D2
:104F4000121E0020E8F7FF1FECF7FF1FF0F7FF1F0E
:104F5000FC3200207417002004200AF0C1FADA4E57
:104F600096F816020AF077FA96F81A020AF073FA1F
:104F700096F819020AF06FFA96F81B023FE2D24E39
:104F800007200AF0ADFAB6F81E020AF0ACFAB6F83D
:104F900020020AF0A8FA96F822020AF05CFAB6F8A3
:104FA000240229E201200AF09BFAC74B587926E235
:104FB000C54E10200AF094FA96F840020AF04BFA17
:104FC000B6F84C020AF08FFAB6F848020AF08BFAEB
:104FD000B6F84A020AF087FA96F842020AF03BFA5B
:104FE000B6F854020AF07FFAB6F856020AF07BFAD5
:104FF00096F84E020AF02FFA96F84F020AF02BFAB2
:10500000B6F85202F8E1B04E08200AF069FA96F8B4
:105010009A020AF020FA96F89B020AF01CFAB6F8F7
:105020009C020AF060FA96F89E020AF014FAB6F8AA
:10503000A0020AF058FA96F8A202E0E1337808F1EB
:105040000208994580F0F98118F8020C0AF003FA79
:1050500018F8010C09F1010900EB800000EB800059
:1050600000F2EE2080B20AF03EFAE7E701200AF0F3
:1050700037FA954B93F84402C1E108200AF030FA60
:10508000DFF84482002606EB080393F83802013665
:105090000AF0E1F9082EF6D1CFE18B4E10200AF08C
:1050A0001FFA70790AF0D7F9B0680AF025FA96F875
:1050B00040020AF0D0F9B6F8C8010AF014FAB6F8BE
:1050C000CC010AF010FAB6F8D0010AF00CFAB6F8E2
:1050D0001E020AF008FAB6F820028DE113F9092041
:1050E000824200F0DD810C333C2BF7D10836B0450D
:1050F00000F0A38196F9A6020023EFE7B6F8640357
:105100000AF0F1F996F866030AF0A5F9043696F864
:1051100063030AF0A0F9B045F0D18EE180200AF0D7
:10512000DFF96A4E06F1800856F8040F0AF0E4F938
:10513000B045F9D181E18D200AF0D2F900264FF077
:10514000060A0AFB06F94FF0000B5FFA86F84046A4
:105150000AF081F95FFA8BF00AF07DF95A4B0BEBFC
:105160000901194491F8A4030BF1010B0AF073F93A
:10517000BBF1060FEBD10136062EE2D10026062048
:105180000AF069F9F0B20AF066F94F4B334493F82C
:10519000C80301360AF05FF90B2EF0D14DE10D2066
:1051A0000AF09EF904F00EFC494E40F00200C0B235
:1051B0000AF051F930880AF09FF9F0680AF09CF97A
:1051C00004F0E0FB5BE00AF03DF9064684200AF0BB
:1051D00087F930460AF090F93D4B0DF13008DA6856
:1051E00006F1800393428CBFC6EB02094FF08009A1
:1051F00004F0C2FC4A463046414604F0FBFC8146BE
:1052000000264E4580F2198118F806000AF023F9AD
:105210000136F6E72C4E04200AF062F901200AF06C
:105220001AF996F845050AF016F996F843050AF0BA
:1052300012F996F84405E2E00B200AF051F900203B
:105240000AF009F900200AF006F900200AF003F933
:1052500011E001200AF044F90020D0E013200AF008
:105260003FF9DFF87080002618F8060001360AF0D2
:10527000F2F80B2EF8D100200AF03EF900200AF0D7
:105280003BF9DAE0104E06200AF02AF9B6F8D6000B
:105290000AF029F9B6F8D8000AF025F9B6F8DA00CC
:1052A000AAE0094E05200AF01BF996F826020AF03A
:1052B000D2F896F827020AF0CEF896F828020AF0FB
:1052C000CAF8B6F8DC0097E0F0340020D0370020B0
:1052D0008400002049C70108CD4E03200AF000F9E0
:1052E00096F8C5010AF0B7F896F8C6010AF0B3F8C7
:1052F00096F8C70183E0C64E06200AF0F1F8B6F82A
:10530000D83123B108200AF0A6F8012005E096F86C
:10531000DA010AF0A0F896F8EA010AF09CF896F88B
:10532000E3000AF098F896F8E2000AF094F8B6F86C
:10533000DE0061E0B64EDFF8DC8211200AF0D0F822
:1053400096F8DC010AF087F8D8F80030188C0AF0DB
:10535000CAF8D8F80030588C0AF0C5F8B6F8DE0163
:105360000AF0C1F8B6F8E0010AF0BDF8D8F800304C
:10537000988C0AF0B8F8D8F80030D88C0AF0B3F856
:10538000B6F8E2010AF0AFF8B6F8E40134E0A14E55
:1053900011200AF0A5F83368588D0AF0A4F8336894
:1053A000988D0AF0A0F83368D88D0AF09CF833681D
:1053B00093F828000AF04FF8336893F833000AF0A6
:1053C0004AF8336893F836000AF045F8336893F8E2
:1053D00037000AF040F800200AF03DF800200AF0FB
:1053E0003AF8336893F835000AF035F83368588F87
:1053F0000AF079F83368188F0AF075F81DE00AF0A2
:105400002AF81AE040F23584B8F1D00F00F04F844A
:10541000B8F1D20F40F0168109F0FEFF020600F14C
:1054200053847D4B1B785B0704D4022828BF0020DF
:105430000BF05AFC00200AF053F80AF01DF823681C
:10544000002283F84820754B754C18680BF044FB1C
:1054500094F82C305BB1734B585909F0A7FB0FF04F
:105460004CFB002384F82C306F4A704BDA604C35CB
:10547000982D00F03386FEF794BFD046CAEB0800A3
:105480008842BFF602AD18F8010B019109F0E3FF65
:105490000199F3E74B4493F8380009F0DCFF00E58D
:1054A000C0B209F0D8FFB6F8A8020AF01CF896F8C6
:1054B000AA0209F0D0FF96F8AB0209F0CCFF96F8EB
:1054C000AD0209F0C8FF96F8AC0209F0C4FF0DE682
:1054D000B8F15B0F15D109F09FFF4D4E86F8DA0148
:1054E00009F09AFF86F8EA0109F096FF86F8E300D2
:1054F00009F092FF86F8E20009F09AFFA6F8DE00B4
:1055000098E700F26282B8F1370F32D15B794FF041
:105510000708B3FBF8F8C8EBC8029B1A13F0FF0F9B
:1055200002D00CF085F885E75FFA88F8B8F1000F33
:1055300080D009F071FF4FFA80F9484609F0C8FBA6
:1055400006460028EDD080F8009009F071FF7080C9
:1055500009F062FF307109F05FFF707109F05CFFC4
:10556000F07109F059FF08F1FF385FFA88F8B0715F
:10557000DCE700F22881B8F12B0F04D109F04CFFD1
:10558000234B587156E700F28680B8F1250F08D1F9
:105590001F4E0023B36009F055FFB3681843B06095
:1055A00048E752D8B8F10B0F19D111220021204839
:1055B00014F06AFEDFF858904FF0000833685B790A
:1055C000102B28BF10239845BFF434AF09F024FFF7
:1055D00008EB090383F8520508F10108EEE7B8F17A
:1055E000230F2FD109F018FF1328064699D809F088
:1055F00013FF00220C2101FB02F307EB030E9EF8C0
:1056000008E0864500F0D28401321F2AF3D188E7F2
:10561000F03400204C150020101E0020341E002005
:10562000E00D0020302800200400FA0500ED00E025
:10563000423A0020B8F1FA0F04D1CE4B1B785A073A
:1056400040F13C830BF0F4FFF7E6B8F1270F0DD1E2
:1056500009F0EEFEC84EC6F8C80109F0E9FEC6F82A
:10566000CC0109F0E5FEC6F8D001E3E6B8F1290F58
:10567000E8D109F0DDFEC04EA6F81E0209F0D8FE02
:10568000A6F8200209F0C8FE86F8220209F0D0FE32
:10569000A6F82402CEE6B8F1310F14D109F0BCFE11
:1056A0001F2806463FF63DAF23685B79052B7FF444
:1056B00038AF09F0C7FEB04B03EB8603C3F8E40232
:1056C0000FF0F0FCB6E64BD8B8F12D0F32D109F04F
:1056D000A3FEA94E86F8400209F0AAFEA6F84C02E5
:1056E00009F0A6FEA6F8480209F0A2FEA6F84A02B2
:1056F00009F092FE236886F842025B79082B07D9ED
:1057000009F096FEA6F8540209F092FEA6F8560299
:1057100023685B790C2B7FF68DAE09F07DFE86F851
:105720004E0209F079FE86F84F0209F081FEA6F8D4
:1057300052027FE6B8F12F0F84D18F4E06F1400858
:1057400009F076FEA6F8640309F066FE86F86603A3
:1057500009F062FE043686F863034645F0D169E637
:10576000B8F1330F05D109F057FE834B83F844029B
:1057700060E6B8F1350F7FF465AF09F04DFE0E28F5
:1057800080463FF6CEAE09F047FE03283FF6C9AE8D
:10579000794B062606FB083686F8EE0409F03CFE37
:1057A00086F8E90409F038FE86F8EA0409F034FEC8
:1057B00086F8EB0409F030FE86F8EC0409F02CFEC4
:1057C00086F8ED0436E6B8F1440F04D16B4B0122A4
:1057D00083F82C202EE672D8B8F13E0F09D109F0DB
:1057E0001BFE654E86F88F0209F016FE86F88E02C3
:1057F00020E62CD8B8F1390F11D109F00DFE5E4E1C
:1058000086F8160209F008FE86F81A0209F004FE6E
:1058100086F8190209F000FE86F81B020AE6B8F1C4
:105820003C0F7FF40FAF564ED6F8008009F0F4FD20
:105830000128A8BF012088F8000033681B78012BDD
:1058400018BF504A504B08BF504A1A60F2E5B8F1F1
:10585000410F0CD1DFF82081002609F0DDFD06EBB9
:1058600008030136082E83F83802F6D1E2E5B8F1D4
:10587000430F7FF4E7AE09F0CFFD3F4E0023B36046
:10588000707109F0DFFDB3681843B06009F0C4FD22
:1058900086F8400209F0CCFDC6F8C80109F0C8FD41
:1058A000C6F8CC0109F0C4FDC6F8D00109F0C0FD6E
:1058B000A6F81E0209F0BCFDA6F82002BAE5B8F170
:1058C0004C0F19D109F0A8FD2B4E86F89A0209F069
:1058D000A3FD86F89B0209F0ABFDA6F89C0209F037
:1058E0009BFD86F89E0209F0A3FDA6F8A00209F030
:1058F00093FD86F8A2029DE513D8B8F1480F09D1AF
:1059000004F0A2F9224A00231370224A1370224A9B
:1059100013608FE5B8F14A0F7FF494AE09F088FD6B
:1059200088E5B8F14E0F39D109F076FD1128064609
:105930003FF6F7AD09F070FDDFF83C8006F596768E
:1059400008F8160009F074FD40F2ED239842424633
:1059500005DD40F6CA039842A8BF184601E040F2B0
:10596000EE2002EB4603A0F2EE20192290FBF2F0AB
:1059700058705FE5101E0020F0340020E00D00207C
:105980004C15002075E1000850030020B9E4000820
:1059900008150020091500200C150020B8F1510F42
:1059A0007FF450AED64B1B78012B3FF643AD09F088
:1059B00033FDD44E86F8450509F02EFD86F84305E3
:1059C00009F02AFD86F8440534E5B8F1D30F04D177
:1059D00009F02EFDCC4B18802CE500F27E81B8F149
:1059E000CC0F52D15B79092B7FF69BADC74ED6F811
:1059F000008009F011FD88F80000D6F8008009F059
:105A00000BFD88F8020009F007FD33686428A8BF81
:105A10006420587109F000FD33686428A8BF642031
:105A2000987109F0F9FC3368FF28A8BFFF20D871EE
:105A300009F0F2FCD6F80080642828BF642088F8BA
:105A4000080009F0E9FC88F80300D6F8008009F0A6
:105A5000E3FC88F80400D6F8008009F0E9FC23682C
:105A6000A8F80A005B790A2B05D9D6F8008009F05E
:105A7000D3FC88F8090023685B790B2B7FF6DAAC3E
:105A8000366809F0C9FC7070D4E400F2B880B8F14F
:105A9000610F0DD109F0C0FC9A4E86F8D50109F0CE
:105AA000BBFC86F8EE0109F0B7FC86F8ED01C1E415
:105AB0007FD8B8F15D0F38D109F0AEFCDFF8508225
:105AC000904ED8F8009086F8DC0109F0B1FCA9F8F6
:105AD0002000D8F8009009F0ABFC2368A9F8220058
