:020000040800F2
:1000000000500020C9760108657701084109010800
:100010006577010865770108657701080000000031
:1000200000000000000000000000000065770108EB
:100030006577010800000000657701086145010847
:10004000657701086577010865770108657701081C
:100050006577010865770108359200083F9200082E
:100060003D9200083B92000839920008F1F8000820
:10007000E1F80008D1F80008C1F80008B1F800085C
:100080009DF8000889F80008657701086577010880
:1000900065770108657701086577010837920008E0
:1000A00065770108954201086577010885420108D6
:1000B000794201086942010859420108D9FB000848
:1000C000DDFB0008D1FB0008D5FB000865770108BF
:1000D0006577010845ED00083DED000835ED0008A5
:1000E0003392000865770108657701080000000079
:1000F0000000000000000000000000000000000000
:0C01000000000000000000005FF808F1A3
:100110002DE9F04F604A614BA1B01A60604B00229C
:100120001A600DF011FC18B90EF01AF809F070F908
:100130000DF02CFC5B4A5C4E137843F00103137006
:10014000002309930A930B934FF4E0130C93336845
:1001500043F480333360B36943F01003B361336811
:1001600003F400330A93099B013309930A9B1BB9DB
:10017000099BB3F5A06FF2D133684B4913F40033F8
:1001800001D0022315E00A6842F001020A600993D7
:10019000336803F002030A93099B013309930A9B16
:1001A0001BB9099BB3F5A06FF2D133689D0739D510
:1001B00001230B933D4B3E4F1A6842F010021A6028
:1001C0001A6822F003021A601A6842F002021A60EA
:1001D0007368736073687360736843F480637360FB
:1001E000344B1A68043B22F070425A60324A3A603B
:1001F000726822F47C1272605A6842F000425A60BF
:10020000DA6822F40042DA609B681C0449BF2B4B79
:100210004FF4E0133B604FF480130C930B9B012BC6
:1002200001D108E0FEE7022B09D10C9A7368134351
:1002300043F4803302E0736843F4601373603368FF
:1002400043F0807333603268174B9001FBD55A68D6
:1002500022F003025A605A6842F002025A60736840
:10026000114A03F00C03082BF9D15368144C03F026
:100270000C03042B03D0082B03D00F4B2BE03B685F
:1002800029E053685168C3F38343C90303F10203B0
:100290001AD40C4A1EE000BF3DD90008F01500201A
:1002A000F4150020A423002000100240002002408A
:1002B000800000200410014000127A00001BB700EB
:1002C0004004002000093D00526812F4003F3A68E3
:1002D00018BF5208534323607368BB4AC3F3031328
:1002E00013449A782368DFF858B3D3404FF6FF726F
:1002F0002360B64BDFF83CA3CBF80C30B3690DF1AB
:10030000800943F00103B361736A0025CAF8003025
:100310000393736A0DF1800843F080737362B369CD
:1003200043F01C03B36129F82C2D02F1804202F640
:1003300001021046494602928DF856500FF069FAB4
:100340004946A3480FF065FA4946A2480FF061FA02
:1003500010218DF83A100221029A8DF83B104FF4CB
:10036000007128F8481D1046116141460FF051FAFE
:10037000994948464A6842F000724A6008F028F8F5
:10038000964A159B2946B3FBF2F3954A0AF10400FD
:100390001360182219F0A0FF23684FF47A72B3FBA0
:1003A000F2F3904A013B5360F0238BF82330294647
:1003B0009560554607238C48DFF888E213604FF0BC
:1003C000010C8A0202F180423EF8114002F58432AB
:1003D000002344FA03FA1AF0010F18BF0CFA03FACB
:1003E00003F101031EBF0260A0F804A00C30102B23
:1003F000EFD101310329E4D17C4C7D4B94F8EB2102
:100400001A703B687B4A934201D1012203E07A4A89
:10041000934202D10222794B1A70A368784F0021CF
:1004200008463B6008F0EAFE0021012008F0E6FEE5
:100430000297744F00234FF0170A4FF0020B57F842
:100440002300013348B1037280F806A080F807B09A
:100450001221049308F0E0FC049B032BEFD1002150
:10046000084608F0CBFE0021012008F0C7FEB36962
:10047000402243F00103B3610021634819F02CFFCF
:10048000624B4FF0FF321A60C3F80320029B1B68D7
:100490001A0715D594F84032012B11D8039A534B03
:1004A00012F0805693F8423200F06D8608E093F81F
:1004B0004322012A04D1002283F8422209F062F883
:1004C000642013F0FFFFA0220021514819F004FF1F
:1004D000504F0026A7F11409F15900234E48DA00C5
:1004E00050F83300814204D109EB020393F8C000B5
:1004F00003E00133042BF1D100200C3614F09EFBF5
:10050000A82EE9D1029B454A1F68454BDFF838A168
:100510001A60052600213C2242488AF8006019F042
:10052000DBFE002318463146DFF820E13D4E07F0A0
:1005300040094FF0FF0C1EF9012F03EB060B9A55F3
:10054000B9F1000F09D11E3AD2B2012A9FBF01F1C1
:10055000FF318BF800C0C9B201200C333C2BEAD12B
:1005600008B18AF8001061792F4B30481970304B70
:10057000304AEB61D6330360BB0656BF2E4B0123D6
:1005800003EBC10340F2DC5158BF5B7813622B4A86
:10059000002322F813100133082BFAD11C2200216A
:1005A000404619F099FEBE0563D517F4015F05D1E9
:1005B000380594F822324BD5012B49D1282385F8F0
:1005C0002430292348E000BF00A401080005FA05F3
:1005D000000C0140001001400000014040420F00AB
:1005E0004C30002010E000E0982B0020BC300020B0
:1005F0008210002000127A00001BB700AD230020FB
:10060000FC10002024AA0108A8110020CC12002010
:10061000F42E002014A40108BCA4010860330020BB
:100620002425002028250020180B00201030002051
:10063000CC300020E804002058AA0108400C00201B
:1006400000ED00E030AA01083015002067B2010873
:10065000202385F82430212385F8253001238DF8C7
:10066000443095F824308DF8523095F825308DF8C7
:10067000533063790E2B03D003F0EF03082B01D125
:10068000012300E0002301208DF84C300CF08AFAA1
:1006900018B14088003018BF0120029B00F0010013
:1006A0001B688DF83D00C3F340028DF84020C3F372
:1006B00080128DF84220C3F340328DF83820C3F306
:1006C000C0328DF83B2013F4006204D094F822224B
:1006D000511E4A424A418DF83C20C3F300428DF836
:1006E0004320C3F3C0028DF83A202A6A03F00107C1
:1006F000003218BF01228DF84520C3F300528DF857
:100700004620B4F8D6208DF83970ADF84A20B4F8F8
:10071000E22003F00806ADF8482094F8E52042B93D
:10072000B44A92F8E42012F0FB0F0CBF0122002221
:1007300000E0012294F8E410049211F0FB0F14BFC2
:10074000012000208DF841008DF84D1012B1A94A0A
:10075000B2F8E020DB0448BFA64BADF84E2048BFFE
:10076000B3F8DC30B4F8D420ADF8502048BFADF871
:100770005030042906D14FF4805008F021FE0023A8
:10078000ADF8503094F88C229B4B00211A709B4896
:10079000642219F0A1FD9DF84C30002B14BF0223F8
:1007A000002307B906B10133954ADFF8848202EBD2
:1007B0008303D3F8DC304FF00009991E1A330593F8
:1007C00002F1140303910693039B33F8022F039362
:1007D0004FF6FF739A4200F0A3819DF83D10D3B20B
:1007E000120AD7B219B1991E012940F294819DF8DD
:1007F000421041B182480C2101FB03014869814943
:10080000884200F088819DF8431041B17C4C0C2057
:1008100000FB034044697B48844200F07C819DF8E2
:10082000400038B1764C0C2000FB0340007E1428B9
:1008300000F071819DF8440070B1714C0C2000FBF8
:1008400003409DF85240007E844200F064819DF890
:100850005340844200F05F81022A02D19DF8382083
:1008600003E0012A04D19DF83920002A00F05381C9
:100870009DF845207AB19DF84C2062B9A3F1080299
:10088000012A08D85E480C2202FB030250695E4A26
:10089000904208BF0427069A0C2505FB03259DF806
:1008A00046205AB19DF84C2042B919B1A3F10C026F
:1008B000012A01E01A1F032A40F20E81012F3BD1C9
:1008C000524A0026FF21167056609660D660166464
:1008D00082F8441082F8451082F8466082F847603A
:1008E00082F84860464A0C2404FB032488F82860F8
:1008F000207EC8F8345008F069FA02228271C7716C
:100900000672217F08F088FA3246617E60690EF037
:1009100003FE3A463146284613F06CFD3C4B3D4AF7
:10092000C8F838303C4BC8F84060C8F83C30111F5C
:10093000284613F0B1FCEEE0022F3FD15FFA89F2B6
:100940002F491C2656430C2404FB031408EB06070E
:100950004FF0010B4FF0000A87F82920207E87F81E
:100960002AA087F832A087F828B07D63079208F0A4
:100970002DFA079A80F806B002EB0B03037280F899
:1009800007B0217F08F048FA5246617E60690EF098
:10099000C3FD5A465146284613F02CFD1F4B06F165
:1009A0001001BB631E4BC7F840A0FB631D4B2846DC
:1009B00019440A1D13F070FCD944ACE0032F40F039
:1009C00089809DF841300D4CBDF84E209DF84D10AA
:1009D000002B4DD0022994F801A0BDF8503029D049
:1009E00003291149114E0EBF4FF0480E0E464FF02D
:1009F000080E22E0BC300020B8210020540C00205A
:100A000000A4010800040040002C014058110020FF
:100A1000B18A0008240500200D8C0008718C0008A4
:100A2000898A0008100500202D8D0008CD8C000853
:100A3000E8040020B24E4FF0180E5FFA8EF1B14F6D
:100A400032B1B14800FB0EF0B0FBF2F292B202E01C
:100A500013464FF6FF72284608F044FA47F82A007A
:100A600057F82A301922DE60A37804EBC30327E08D
:100A70000429667811D1A5492846B1FBF2F2182164
:100A800092B208F02FFA9F4B0D2243F82600A04B9C
:100A9000C360A37804EBC30312E09B4B0121B3FBBB
:100AA000F2F22846BDF8503092B208F01BFA954B8E
:100AB000092243F82600974BC360A37804EBC303D5
:100AC0005A71A378627804EBC3010A7101328D6018
:100AD00062701EE0042F1ED18F4CBDF84820A37811
:100AE000267804EBC3031E71874B012193FBF2F2BE
:100AF0002846BDF84A3092B208F0F4F9874B0A2133
:100B000043F82600A37804EBC30251712278013226
:100B100022700133A370039B059A93427FF454AE75
:100B2000049B7F4E83F001027E4B00241A707E4BA3
:100B300034701D78A5F11703022B1ED8DFF8ECA145
:100B4000DFF82092DAF81C300021185903EB040872
:100B500016F050FB20B1754B1A6A06935ABB25E07C
:100B600004EB090798E80F0087E80F00337810348A
:100B70000133C02C3370E5D1EDE76D4B13F835E050
:100B800003EBC503D3F804C086F800E0BCF1000F06
:100B9000E1D0DFF8D0817445DDDA230103EB0807EB
:100BA00063440FCB013487E80F00F4E7029B1B6816
:100BB000DF0425D41EE05F4B5F4A13F8350003EBDA
:100BC000C5035C681070002CF0D05C4F002383429A
:100BD000ECDAC3EBC3016218D2F800C001EB070ED8
:100BE00041F807C091880133AEF8041092798EF86D
:100BF0000620ECE705F0EF03082B514B24D125E04C
:100C00003378012BF6D94F4C04EB031303F1100694
:100C10001034A642EED04FF07C5154F8100C16F070
:100C200055F94FF07C5144F8100C54F8140C16F0A0
:100C30004DF94FF07C5144F8140C54F80C0C16F09C
:100C400045F944F80C0CE3E70E2D08D11A78182D5D
:100C500042F010021A7008D113F002FA05E01A7877
:100C6000192D22F010021A70F5E713F0DBF9364A5D
:100C7000364D13781C2043F0040313702B78012B9E
:100C80008BBF012600260024012408F09FF8304A7B
:100C90001060304A167058B1112282710222C2715E
:100CA0000022944202720CBF1221162108F0B4F8FF
:100CB00000200EF0F3F9222008F088F81522264CC7
:100CC000827101260222C27106721221206008F090
:100CD000A3F82068214C002108F086FA207E13F04A
:100CE000ADFF237E03F01F025B09022B06FA02F61A
:100CF0003AD0032B3CD11A4A13691E43166137E0E0
:100D0000018D0008A82E002040420F0000366E0121
:100D10004D8C00083D8C0008540C0020E811002088
:100D20006F130020F02E0020180B0020E804002094
:100D300058AA0108B4B001089C2F00209D2F002064
:100D4000790E0020580A0020A4230020AD230020A3
:100D5000B41A0020B81A0020B01A00205004002055
:100D600000100240500A0020924AD3681E43D66009
:100D7000607D08F02BF80C260B230227C3718671C7
:100D80000772E07D08F022F80D23C37186710772A7
:100D9000A07D08F01BF88671C6710772607D08F0AF
:100DA00015F81B2108F038F8E07D08F00FF807214E
:100DB00008F032F8A07D08F009F81B2108F02CF8A3
:100DC000207D20B108F002F8132108F025F82169F0
:100DD000794B99420AD103F56043DA6842F48052B4
:100DE000DA60DA6822F48052DA6019E0734B9942D3
:100DF00009D103F5EC331A6942F480421A611A6989
:100E000022F480420BE06E4B994209D103F5EA339C
:100E10001A6942F400421A611A6922F400421A6106
:100E2000237F13B10023184601E0012302200A8822
:100E300002F4415242F44572134303430B808B8BFF
:100E4000207D23F400631B041B0C8B8307230B8280
:100E50000B889BB243F040030B8018B107F0B6FF3C
:100E600008F0BDF92C2007F0B1FF0446069BC3F83B
:100E700008019F238DF83430322000238DF835305F
:100E80008DF836308DF8373013F01CFB204608F013
:100E9000A1F904220DA915A813F0A0FF204608F01F
:100EA0009EF99DF856309DF855201B0243EA0243F7
:100EB0009DF857201343434A93421AD0322013F02F
:100EC00001FB204608F086F9F52013F0C3FFFF2050
:100ED00013F0C0FF8DF85400204608F080F99DF80B
:100EE0005430702B05D12B78022B02BF364B0322D6
:100EF0001A702B78032B0CBF1F2002200BF0CBFDA8
:100F00002B78032B03D001200EF0FAFC07E002201F
:100F10000BF048FE0028F6D04388002BF3D02B4B73
:100F200095F800A02A4D1E6814273A46002128464D
:100F300019F0D2F906F4004916F0020F06F4006821
:100F4000284618BF2F70B9F1000F01D011236B7123
:100F5000BAF1010F84BF15238372B8F1000F01D0DD
:100F60002123C3731B4DDFF874A04FF00F08002737
:100F70004FF0060915F8010C00283DD007F026FFB8
:100F8000002680F8069080F80780067215F8010C9C
:100F900007F01CFF314607F03FFF314615F8012CE2
:100FA0000D484B0010F81100904219D1534493F8AA
:100FB000ED3019E0001002400030014000380040E0
:100FC000003C004015202000AD230020FC10002034
:100FD0006410002065100020ECA4010800A40108A2
:100FE00001310A29DCD1002307222B70EA707B1C17
:100FF00001226F70AA70DFB208F101085FFA88F869
:10100000B8F1130F05F10505B4D1B74A492053686B
:10101000B64D43F44043536013F010FE202013F00C
:101020000DFEB24807F05AFA15A807F02CFAB04B9B
:10103000022F1593AF4B28BF802216934FF0000369
:1010400038BF1A461A924FF480721B924FF4806296
:101050001C92202228461D9215A94FF400521E9280
:101060001793189719931F9307F01AFA2B68A24841
:1010700043F001032B604368012F23F4702394BFD6
:101080000022012223F4807343EA02234360826832
:101090009A4B9B4D134043F4602343F0020383605B
:1010A000C36A05F1140C23F470027B1EDBB242EA22
:1010B0000353C3621F2701234FF0070EEA78002A6B
:1010C0004CD095F801805E1CB8F1090FF6B295F886
:1010D00004900DD9A8F10A02C16802EB42020EFA8F
:1010E00002FA21EA0A0109FA02F20A43C2600AE09E
:1010F000016908EB48020EFA02FA21EA0A0109FA2C
:1011000002F20A430261062B0CD8591E426B01EB16
:10111000810107FA01F322EA030208FA01F11143FF
:1011200041631AE00C2B0CD8DA1F016B02EB820230
:1011300007FA02F321EA030308FA02F21A430263F0
:101140000BE00D3BC26A03EB830107FA01F322EACD
:10115000030208FA01F31343C362334605356545BC
:10116000ACD1654B9A6842F480729A609A6842F0FA
:1011700001029A609A6842F008029A6099685E4A91
:101180000D073FD5FAE7013B092B3FF699A901214D
:10119000084608F033F8132007F018FE0746182316
:1011A00083710223C37106721221C5F8940407F0FB
:1011B00033FE0121384608F017F83C2013F082F97D
:1011C0003146012008F01AF894F842224D4B96421D
:1011D000BFF66DA90021084608F010F80021384636
:1011E00008F002F8782013F04BF90121002008F0F4
:1011F00005F80121384607F0F7FF782013F040F991
:101200000136E1E7936843F00403936093683A4939
:101210005807FBD48B6843F4A0038B60394BD3F899
:10122000CC01002840F0C587D3F8D021002A40F037
:10123000C087D3F8D431002B40F0BB87314E324DFC
:1012400096F8D93100270293B6F9F0312F60039355
:1012500096F8DC316F60049396F8DE31AF601822A7
:1012600039462A48059396F8ED8196F8EE9119F0E3
:1012700033F8274B274A1B780795012B8CBF9346E1
:10128000A2F1010BDFF89CA0234D18223946AAF8E1
:10129000007005F5867019F01FF8069B2320C3F82F
:1012A00024B113F00FF90DF12202012175200DF088
:1012B000EFFAD346C0B3194B0DF12302C5F8103134
:1012C000174B0121C5F814313846432385F80C31FA
:1012D0000DF0DEFA9DF8233003F07E038DF8233005
:1012E00000285ED166E000BF001002400800024006
:1012F0004C2401407810002000240140FDF7F1FF4C
:1013000064100020BC300020B023002034240020D2
:10131000AD23002001A40108E804002091E80008A2
:1013200015E80008BC23002095F82831FBB91422E9
:10133000A2710E22E271237213212046C5F82C41BE
:1013400007F06AFD504A138823F040031B041B0C6E
:101350001380138823F038031B041B0C138013889D
:101360009BB243F040031380012385F8283115AA6E
:10137000012175200AF03AF99DF85430A3F170026A
:10138000012A01D9AF2B5CD105238BF80030432310
:1013900085F80C313D4BC5F810313D4BC5F8143183
:1013A0004FE0682B06D101238AF800301D2385F811
:1013B0000C3146E09DF82230364A03F07E03682B5C
:1013C0008DF8223039D1344F02230621137008469C
:1013D000D7F8103115AA98479DF859209DF8573035
:1013E00092005B0003F0020302F004021A439DF82E
:1013F000553003F00103134311D0012B01D100221A
:1014000002E0022B03D10122224B5A7019E003F0B3
:101410000303032BF7D0032013F05EF811E0D7F895
:1014200010310DAA01210C2098479DF8343013F09B
:101430000F03F0D0042BE6D1E1E7702B04BF0423A7
:101440001370164900230B70124B1B78022B0BD123
:10145000134A14481060144850601448D06014486F
:10146000106101220A7038E0012B27D10C4A114883
:101470000B7010600C48042350600F4890600B48BC
:10148000D0600B48106128E000380040EDB500083E
:101490001DB60008BC230020E80400201825002009
:1014A00034240020A9EC000809E60008F1E5000852
:1014B00090C1793DCFE70008BDE50008043B012B52
:1014C0001DD8C44BC44A1A60C44A5A60C44ADA6080
:1014D000C44A1A6101230B700723C34A41461370A3
:1014E000C24A0298136843F001031360059B4A4601
:1014F0000193049B0093039B0FF058FA10B901204D
:1015000012F0EAFFBA4A01211378084643F00203B9
:10151000137007F073FE0021084607F06FFEDFF836
:101520001C830A27012007F043FC002007F040FC41
:10153000192012F0C7FFD8F84C35DFF800A313F4D8
:10154000803F02D101200DF0A9FD192012F0BAFF51
:1015500000200DF0A3FD013FE4D13946384607F0E5
:101560004DFE3946012007F049FEA04B1A68984607
:1015700012F0080F0DD00121084607F03FFE9D4BE9
:101580001B6898473946012007F038FE9A4B012224
:101590001A709A4B1B68187B15F044FC984915F09B
:1015A00095FC984915F08AFB14F04CFD964B944934
:1015B0001860884B186915F089FC944B1860079BDC
:1015C000188915F02FFC0146914815F033FD91491B
:1015D00015F030FD904B186012F084FD8F4B1E22E9
:1015E000FF21184618F078FE03468D4901220A7043
:1015F000002202708B48D8F800E002688146184645
:101600000B4612F4800F01BF022119701B2141709B
:101610001EF0020F0ED019784FF0010C00F801C037
:1016200001F1020C013183F800C0C9B24FF0020C85
:1016300000F801C01EF0040F06D0197801F1010C6A
:1016400083F800C0032343541EF00A0F12D0DFF8C2
:10165000D0E104219EF800304FF0050CC154591C14
:10166000C9B200F801C0D91C02338EF80010DBB2F9
:101670000621C15412F4007F694B08D0197801F19A
:10168000010E83F800E04FF0150E00F801E0D105DF
:1016900008D5197801F1010E83F800E04FF01A0E19
:1016A00000F801E09AF805E0BEF1080F02D0BEF1A3
:1016B0000E0F08D1197801F1010C83F800C04FF02A
:1016C0000B0C00F801C019784FF00C0B01F1010C64
:1016D0005FFA8CFC00F801B0D00383F800C006D597
:1016E0004F48023101704D490E2001F80C0012F4F0
:1016F000002F4A4906D0187800F1010C83F800C089
:1017000019230B54464B4FF01D0B187812F4805FD1
:1017100000F1010C5FFA8CFC83F800C001F800B006
:1017200006D0023018703D484FF01C0B00F80CB08A
:10173000900608D5187800F1010C83F800C04FF02E
:10174000070C01F800C0500708D5187800F1010C0B
:1017500083F800C04FF0100C01F800C0500308D50A
:10176000187800F1010C83F800C04FF0120C01F85A
:1017700000C0520507D59AF8D02222B11A78501C21
:10178000187013208854BEF1180F0ED11A78162045
:101790008854501CC0B24FF0170C01F800C0D01C88
:1017A0000232D2B2187001F802E0982200211E48DD
:1017B00018F092FD13F0AAFB1C4A1D4BB6F8DE1080
:1017C0001A601C4BDFF878B019801B4900230B808E
:1017D00038E000BF34240020D9B9000809E6000829
:1017E000F1E5000890C1793D380400202C24002048
:1017F000A42300201025002070380020CC150020E4
:1018000035FA8E3CDB0FC93FE82D0020D82D002093
:101810000AE81C4100401C46203800204E2D0020C4
:101820004D2D0020FC10002024360020F432002032
:10183000A80D0020A60D002030110020BC30002093
:10184000001100208B70A049DFF8E4C20A609F4AB3
:10185000DFF8E0E21370B6F8482211B2DCF80000BD
:101860002BF8131000F596704EF823000133122B5D
:10187000974EF3D1D9F80000C30458BFBAF95412F7
:10188000F180944901F1500E91F89D34FBB991F823
:101890009FC491F8A0349C4519D2BCF1000F08D028
:1018A0000CF1FF3C0CEB8C0C0CEB8C0C0CF561730D
:1018B00006E0013303EB830303EB830303F561735A
:1018C00091F89EC49BB20CF1040C26F81C30043134
:1018D0007145D9D1030740F15F819AF84062082E23
:1018E00000F25481DFE816F009000C0013004400F8
:1018F000650086008600C8002A0145F2F05201E02A
:1019000042F6F822744B1A8013F085FB3DE142F653
:10191000F821714B120119800A2392FBF3F26F49EF
:10192000A2F5B062002341F823200133122BFAD133
:101930006B496C4A402011606B4A13700BF070F9D0
:101940000646002800F022810EF09CFC9AF84132F5
:1019500096F900E0002B0CBF0622072200280CBFDE
:1019600001230323019200930646604B604AA2E0E4
:1019700042F6F822584B40201A805E4A594B1A60B2
:10198000594B10221A700BF04BF90646002800F054
:10199000FD800EF077FC00280CBF012303230022FA
:1019A00096F900E00192009306464FF4E133524A63
:1019B00081E042F6F822484B40201A804F4A494BBA
:1019C0001A60494B08221A700BF02AF906460028C3
:1019D00000F0DC800EF056FC00280CBF012303232E
:1019E000002296F900E00192009306464FF4E1339D
:1019F000434A60E042F6F822374B4FF00C0E1A8053
:101A0000394B40484049414A83F800E0062E4FF0E8
:101A1000000303700B7013700BD03D4B1B221A7028
:101A20003C4B052283F800E03B4B4FF4E13A1A703F
:101A300009E0374B21221A70364BDFF8FCA083F8FF
:101A400000E0354B1E70354A264B40201A600BF0E3
:101A5000E7F80646002800F099800EF013FC0028F5
:101A60000CBF01230323002296F900E001920093AA
:101A7000064653462A4A1EE044F62062164B402092
:101A80001A80284A174B1A60174B0A221A700BF05B
:101A9000C7F80646002879D00EF0F4FB00280CBFEA
:101AA0000123032396F900E00646002201921E4A14
:101AB00000934FF4E133402170460BF01DF8002EE7
:101AC00060D01A4B18605DE0F8100020740D002003
:101AD00000110020BC3000208A0900203C0F0020AB
:101AE0007D7E000870040020E8360020A0860100FA
:101AF000D98000083D7E0008DD7F0008257E0008B3
:101B0000957F0008CA0E0020A10F0020A00F002022
:101B1000A20F0020C90E0020A30F0020657D000841
:101B2000C17E0008C1110108B1120108F036002081
:101B30002C1100202C0D002090D0030041F27C528B
:101B4000764B00261A80764A764B40201A60764BF8
:101B500010221A70754B28221E70754B1A700BF0EC
:101B60005FF898B1032390F90000724A0196009340
:101B70004021714B0AF0C0FF704E012130600DF022
:101B80009EFC3068003018BF012028B9082007F0FB
:101B900017FC6B4A634B1A6042F20103D9F800202C
:101BA000614913408BB144F620605C4B9604188069
:101BB00004D508230B7063485A4B1860D00704D52E
:101BC0000C230B706048574B18600B78043B4B702C
:101BD000910552D55D4A4FF00A0A9369002643F0F9
:101BE0000103936195F8240007F0F0F8584A122198
:101BF00010600222C27180F806A0067207F00CF98C
:101C000095F8250007F0E2F883460123C37180F8B8
:101C100006A006720621C5F8300107F0FDF84D4B0D
:101C20004D498022C5F834315846102307F008FB8F
:101C3000584613F037F9494B494A1B6849483C3B21
:101C40001360D8F80030C82243F01003C8F8003001
:101C50004FF4C873A5F83831434B1A8014F0F2F9E9
:101C6000424B4349186015F031F915F00BFB414B1D
:101C70004FF0FF321880404B1A60404B404EDFF867
:101C800014A1C6F83C31D9F800300025DA038AF8EF
:101C9000005040F1108113F0F9FD4FF0010840F2BF
:101CA0002A32294606F5A0708AF8008018F014FB45
:101CB000DFF898A0334BDAF81410D3F8882015A871
:101CC0000A43CAF81420304AC3F88C50C3F8802065
:101CD00093F885308DF855808DF854308DF8565036
:101CE0008DF8578012F0C8FF162007F06FF8162203
:101CF00082710222C27105721B21C6F86C0407F0C2
:101D00008BF822482249EB0001F1BC0E5EF8352029
:101D1000824241D10B4493F8C00041E08A0900207F
:101D2000AD11010870040020E83600202C2B0020A3
:101D30002D2B0020D111010848E801007C0E002065
:101D4000AD7E0008A1110108B17E0008001002401C
:101D50004838002045B600081C0600202C11002041
:101D600044380020D253FB3F00380020F8370020D1
:101D70000000C84308380020FC370020A0330020B2
:101D8000E80400208803002041B10008000400405E
:101D900000A40108F83800200135042DB2D100203C
:101DA00012F04CFFC24BC3491B68C34DB3FBF1F3A8
:101DB0002988013B21F45C710904090C29804FF04A
:101DC000010B9BB21D21A9852B85A5F814B02B8C86
:101DD0004FF0000823F001031B041B0C2B842B8CF9
:101DE000A888298B23F0020321F0730109041B0446
:101DF000090C1B0C41F0600180B243EA0B03A88080
:101E00002983A5F834802B842B8B23F008031B0433
:101E10001B0C43F008032B83B5F844306FEA4343AF
:101E20006FEA53439BB2A5F84430DAF8143043EA22
:101E30000B03CAF81430DFF8CCA2504606F04EFB74
:101E400015A806F020FB9D4B15A915939C4B5046F9
:101E500016931023179340F22A33189380231A9372
:101E60004FF480731B934FF400531E93CDF864809E
:101E7000CDF87080CDF87480CDF87C8006F010FB32
:101E8000AB8990499BB243F40073AB81DAF8003020
:101E9000FF2243F00203CAF8003086F870B47B18C2
:101EA00027F801800437802F9A70DA70F7D109F093
:101EB00041FF09F03FFFD9F800305B0553D5824F51
:101EC000824B3A6804201A600AF0AAFE0421C6F880
:101ED00074040AF07BFE3A687D4B86F8780408208B
:101EE0001A600AF09DFE7B4B082118600AF06EFE16
:101EF000794D002186F879042C22284618F0ECF957
:101F00007C232B708E236B70E023EB707D233A686B
:101F100085F82B30714B20201A600AF081FE2021B9
:101F2000C6F87C040AF052FE86F8800410200AF0FD
:101F300077FE1021C6F884040AF048FE684B3B2265
:101F40001A7001225A703A221A719F229A711E2227
:101F50001A72A4225A7200229A72DA721A7386F8DE
:101F600088040EF09CF95F4B5F4D1B78022B7AD1F1
:101F70002F88002F77D10F23A3710E231321E37134
:101F800020462772C6F88C4406F046FF204607F02C
:101F900026F9564A3220138823F040031B041B0CF9
:101FA0001380138823F038031B041B0C1380138841
:101FB0009BB243F0400313809F238DF834308DF89B
:101FC00035708DF836708DF8377012F07BFA204638
:101FD0008DF8557007F0FEF804220DA915A812F02F
:101FE000FDFE204607F0FBF89DF856309DF8552081
:101FF0001B0243EA02429DF8573013433C4A934286
:1020000017D00CDC3B4A934215D00132934217D0D3
:10201000A2F51A42033A934220D120230CE0364A1B
:10202000934208D0013293420AD0344A934215D1E8
:1020300001E0402300E080232B804FF4807302E016
:102040004FF480732B806B80AB882A881B02AB60B7
:102050005343EB60012386F8903404E000232B8087
:102060006B80AB60EB60ED68002D4DD0ED0A2E4625
:1020700000270DF15408AF4208DA7C1964101022D1
:102080004146E00209F01AFE0F2805DC0BF0E0F8EB
:102090001B4BF6021E6037E0002358F82320013264
:1020A00040F084800133042BF7D125462646E2E731
:1020B0004004002000366E0100040040340400405B
:1020C00028060020FA380020A4150020F40D002076
:1020D000340E0020500E0020040E0020680E002058
:1020E000BC360020AD2300206003002000380040F3
:1020F0001620C20017BA20001740EF001720C200B8
:10210000101300206C000240704C714AB4F8DC31AE
:102110005269013B9BB2052B9EBF012384F8EA3133
:1021200084F8DE3194F8EA3153436A4A1360D9F8EF
:102130000030694A13F4002318BF01231370637938
:10214000052B02BF654B4FF4C8721A8006F064FA83
:10215000634BC8221A80634A137843F00803137054
:10216000614A137823F00203137040F602025F4BBA
:1021700019680A406AB15E495E4A11605E4A0321ED
:1021800011705E4A012111705D4900220A805D498B
:102190000A80A2681A605C4B01221A705B4A1378AD
:1021A00063F07F03137021B0BDE8F08F671C3446E5
:1021B0007CE7574B00221A7000B214F033FE5549E9
:1021C00014F084FE414D0746B5F9D00114F02AFE03
:1021D000504914F07BFE0646B5F9D40114F022FEF6
:1021E0004C4914F073FE4C490546384614F066FD20
:1021F00013F028FF8146384613F024FF464907466E
:10220000304614F05BFD13F01DFF8046304613F09E
:1022100019FF41490646284614F050FD13F012FFFD
:102220008346284613F00EFF49468246584614F06E
:102230004DFE49460290504614F048FE5946039020
:10224000384614F043FE51460490384614F03EFEE2
:1022500041460590584614F039FE304D51462860ED
:1022600008F1004014F032FE04996860AE60304618
:1022700014F02CFE039914F021FD0599E860304616
:1022800014F024FE0146029814F016FD4146286120
:1022900007F1004014F01AFE02996861304614F00C
:1022A00015FE0146059814F007FD0399A861304614
:1022B00014F00CFE049914F001FD4946E861404613
:1022C00014F004FE2862FEF7B9BF00BFBC30002046
:1022D00034240020701300204A150020BC0D00207B
:1022E000E4370020790E00204C2D0020FC10002047
:1022F000D23200205C100020942B00203C040020EF
:10230000842E0020862E0020200C0020A4230020F4
:102310008400002035FA8E3CDB0FC93F38100020C6
:102320002DE9F04FAC4BA3B01B68AC4CD3F8288020
:1023300012F08AF82368AA4EC01A308012F084F88E
:10234000A84D20602B78012B05D1A74B32881A802D
:10235000A64A12885A8012F077F8A54F0646B94669
:10236000FB685BB912F070F82368D9F81420C3EB4E
:102370000803184450329042F2D302E098470028F4
:10238000F0D02B78072B04D112F05EF8964B801B0F
:1023900018802379002B01F09D8012F055F8944BA2
:1023A00008909B680BB193489847934B93491B68DF
:1023B00013F0080F059339D0914B924A9C8804F191
:1023C0000E039BB21C2B904BB3F904302AD88F48D4
:1023D0000088460726D50A2093FBF0F012888C4B24
:1023E000801A80B202B212F1B30FBCBF00F5B47014
:1023F00002B2B32A1B78C4BFA2F5B47212B21D0791
:1024000014D591F9D801834B404242431B6812B264
:102410005B7A5A436FF01D0392FBF3F3784A23442F
:10242000938003E00A2093FBF0F313807A4BB3F917
:1024300006607A4B1D68688986420CDBB6F5FA6F38
:102440002A7ABFBF331A5343C0F5FA6293FBF2F204
:10245000C2F1640200E0642291F82632B1F84872B9
:10246000069391F82732DFF89881079391F9D831D4
:1024700000245B429BB2099340F2E631684B4FEA7D
:10248000440AE254644B33F91490C7EB090000F29C
:10249000F3138B423BD80028B8BF4042022C3AD0FD
:1024A000069B984202DD069BC01A00E000200B92BA
:1024B00014F0B8FC5B4914F0BDFD8346A87814F015
:1024C000ADFC59460A90584614F000FD564914F0E8
:1024D000F3FB0A9B0146184614F0F8FC534914F02C
:1024E000EDFB594614F0F2FC8346287814F096FC74
:1024F0000146584614F0EAFC4C4914F09BFD14F0D8
:10250000C1FEB94528F80A000B9A3BDB3FE0022CDC
:102510004FF4FA70C7D1079B0B928342B4BFC01A25
:10252000002014F07FFC3F4914F084FD8346687A54
:1025300014F074FC59460A90584614F0C7FC3A4906
:1025400014F0BAFB0A9B0146184614F0BFFC374949
:1025500014F0B4FB594614F0B9FC8346687814F0C3
:102560005DFC0146584614F0B1FC304914F062FDA0
:1025700014F088FE099BB94500FB03F00B9AA8F8FC
:10258000040008DA3AF808305B422AF808300134CF
:10259000032C7FF471AF264B184C186810F4805050
:1025A0000ED0B6F57A7F06DBB6F5FA6F3246A8BFD5
:1025B0004FF4FA6201E04FF47A72A2F57A7242E0C7
:1025C000B4F84A128E4235DBB6F5FA6F3246A8BF30
:1025D0004FF4FA622FE000BFF010002080090020C5
:1025E000922B00208210002084100020880E0020F2
:1025F00034240020860900202C240020BC30002038
:1026000050130020C20D002058130020442D00203C
:10261000790E00201413002000110020D412002095
:102620006C1300200000C8420000C84100401C4557
:10263000FC1000200A46521A4FF47A735A43C1F52F
:10264000FA61B2FBF1F2642392FBF3F1DFF828E3C5
:1026500001F1010C3EF911503EF91CE06FF0630CE2
:102660000CFB0121C5EB0E0E01FB0EF292FBF3F207
:102670005319A54A9BB2D380A8B1A4490968C800E0
:1026800011D5A349C97871B9A3F57A731BB24FF478
:102690007A711B0393FBF1F3C7F5FA6109B24B435F
:1026A00007EB2337D7809B4B1F88790644D59A4B7D
:1026B0000A20B3F9043093FBF0F0984B1B88C01A42
:1026C00000B214F0AFFB964914F000FC95490546A2
:1026D00014F0F4FA13F0B6FC8246284613F0B2FC6C
:1026E000894D8046B5F9020014F09CFB8146B5F98E
:1026F000000014F097FB5146834614F0E7FB49466F
:102700000690404614F0E2FB069B0146184614F082
:10271000D3FA14F0B7FD51462880484614F0D6FB92
:1027200059468146404614F0D1FB0146484614F014
:10273000C5FA14F0A7FD6880059B7B4D13F0140FBC
:1027400069D017F4027F66D0784B6F4A1B7803F08C
:10275000100303F0FF0043B1754B94F99802196818
:10276000538800FB0133538055E0724B72491B685C
:1027700093F803E09B78BEF1000F20D0B1F900E0A0
:10278000CEEB06010029B8BF494299420CDD6B49E6
:10279000764508604FF001012972C8BF5B42D188BD
:1027A0009BB20B44D38036E02B7A23B1644B287262
:1027B0001968644B19605E4B1B68734420E0B1F9E3
:1027C0000000311A81EAE17CACEBE17C9C4509DD3B
:1027D000022391FBF3F15C4B19605C4B01211970F2
:1027E00029720AE02B7A43B1554B85F808E0196845
:1027F000544B1960554B83F800E04D4B1B68034464
:1028000053490868018840888B4203DB984201469F
:10281000A8BF1946D1804F4B1B78B3B1B4F84A32E8
:10282000B34212DB4C4B5B79012B01D0192B02D147
:1028300094F893224AB90E2B07D0082B05D0324BBF
:1028400000229A80454B00229A6094F81482B8F1D5
:10285000000F2DD0BA072BD0414B42491E6A30469B
:1028600014F0DCFCF8B9304615F002FB3E4B196859
:1028700014F02CFB15F082FAB0F5617FA8BF4FF47D
:10288000617014F0CFFA394914F0D4FB13F0DAFB7D
:102890000646404614F0C6FA314614F017FB15F010
:1028A0006DFA00B200E00020174AD3881844D080A7
:1028B00094F84E322E4A23B916490988002900F0AF
:1028C000AE801278104F002A00F08C80022B09D0C5
:1028D000032B53D194F84F32C3EB431203EB820323
:1028E000DB000FE0234BD3F8F820B2F57A7F05DB4D
:1028F00044F620639342A8BF134601E04FF47A7375
:1029000003F57A739BB23AE050130020482D002063
:1029100030110020442D002058130020C40D002049
:1029200035FA8E3CDB0FC93F80090020790E00206C
:102930003C380020E4150020C80D00203838002065
:10294000243800202C380020303800204038002067
:10295000E815002080030020BC3000204413002034
:10296000243000208FC2753CD8150020EFB6B0444B
:10297000C60D002088000020321500206B89B34A64
:102980001068B34AB3FBF0F01278461C36B2092A3D
:10299000AE8105D1AF4A3988D380118079885180C2
:1029A000B5F90EA0DFF8C8B20023DFF8ACE23BF9BE
:1029B00013800EF1100939F913100EF1180C0AFBEF
:1029C00001F191FBF6F13CF813202CF81380C2EBD7
:1029D00008020A4429F813200133042BE5D1AEF88C
:1029E0000E0002E0EB89013BEB819B4A0023B2F928
:1029F0000E60002E11DDB2F90CE01832974932F862
:102A0000130031F91310714391FBFEF1411A27F8BD
:102A100013100133042BF1D106E0D38104E01378C5
:102A2000E981002B00F0858094F8500220B18C4B96
:102A30001B689B0001F134838A4B00261B6803F45A
:102A400000030593884BD3F80080884B1B6893F8EC
:102A500000B0874B4FEA860A33F91650059B08EB06
:102A60000607002B01F08B83022E41F07A83002DA4
:102A7000CCBF2846684214F0D5F9814698F8010089
:102A800014F0D0F97B4914F0D5FA7B4914F01EFA02
:102A90000146484614F0CEFA8146784A42F80A00C8
:102AA000787914F0BFF9734914F0C4FA494614F068
:102AB0000DFA01464FF07E5014F0FEF870490746BB
:102AC00014F0A2FB002841F057834FF07E513846A6
:102AD00014F0B8FB08B14FF07E571B20684314F088
:102AE000A1F94FF0765114F0F1F9394605464FF04F
:102AF0007E5014F09FFA0146284614F0E7F9054687
:102B0000BBF1000F41F064835E4914F07DFB0028A7
:102B100041F070835C49284614F094FB00B15A4D93
:102B20005A4B0136032E43F80A5092D1584B0022DB
:102B30001A70584B484D1878002840F0BF84494F10
:102B40003B681E0340F1BA84534E3378033B052B98
:102B50001AD894F8493533B1012B08D108F0C4FFD5
:102B6000C0F17F0003E0A86A03689B689847EB6A9E
:102B700095F830201344B3F5807FA8BF4FF48073DD
:102B80008342D4BFEB62E8623378023B092B00F248
:102B90009084DFE813F00A00130042008E048E04D4
:102BA00089009A004504680473040023EB626B6398
:102BB0003A4B1B68AB63032300F07ABC374B1A68AF
:102BC000AB6B6433934280F07484402012F0B6FE05
:102BD000002840F06E84DFF8C8801F4C40276B6BE4
:102BE00018F8030058B112F083FFE36A013F03F1C4
:102BF000FF33E362636B03F101036363EFD16A6B3D
:102C00002749154B8A5C002A40F053845A634FF0E1
:102C1000FF329A63042300F04BBC224A5021A2F1F8
:102C20000C0301932A23029200934920A2F10A0384
:102C3000163A0AF05DFA002840F03B844FF0FF336B
:102C4000AB636863072300F033BC00BF7013002040
:102C500082100020841000208009002090090020AC
:102C6000482D0020FC100020D41200201413002056
:102C7000501300200000C8420000FA43B0140020A6
:102C80000AD7233C00F0FFC500F0FF4544130020A5
:102C9000C60D00200C1300204A1500202C11002026
:102CA0006CA50108E2A5010805230093A74B0021AC
:102CB00002910191A3F1080253200AF019FA0028A9
:102CC00040F0F78368630823F2E3402012F036FEF9
:102CD000002840F0EE836A6B9D4B4C2A01F29082F3
:102CE000DFE812F04D005000550059005C00620012
:102CF00066006A006D0071007C008400880094000A
:102D000097009B009F00AE00BD00CC00DB00EA00F6
:102D1000F900080117012A017E018B019801A50124
:102D2000B201BF01CC01D901E601EF01FE010702AA
:102D3000180229023A024B0254025D0266026F0237
:102D4000780281028A0293029C02A502AE02B702B7
:102D5000C002C902D202D602DA02DE02E202EE02AA
:102D6000FA0206031003140318031C0376037A0304
:102D70007E03820386038A038E03920396037549BA
:102D8000754847E3754B764A76497748A5E1774A17
:102D90007749784837E0784978483BE394F8482504
:102DA00094F8471576482EE0B4F8D010754831E312
:102DB000B4F8D21074482DE3196974482AE3744BAF
:102DC0007448198926E3EB6BD90403D594F81612DD
:102DD00071481FE3714B0B225A631DE394F81932BB
:102DE00094F81B2294F81A126D4876E1B5F8401059
:102DF0006C480FE33B681A0540F10E83B4F91E22BC
:102E0000B4F82012684812F04EFF05E3596967488C
:102E100000E394F8DE116648FCE294F8EA11654894
:102E2000F8E294F89C2464235343E21892F81224A5
:102E30000C2101FB02331C4494F814145E48E9E2AF
:102E400094F89C2464235343E21892F812240C2132
:102E500001FB02331C4494F816145848DAE294F843
:102E60009C2464235343E21892F812240C2101FBA2
:102E700002331C4494F815145148CBE294F89C2476
:102E800064235343E21892F812240C2101FB02330D
:102E90001C4494F81D144B48BCE294F89C24642311
:102EA0005343E21892F812240C2101FB02331C4414
:102EB00094F817144448ADE294F89C2464235343D7
:102EC000E21892F812240C2101FB02331C4494F8FE
:102ED00018143E489EE294F89C2464235343E2185D
:102EE00092F812240C2101FB02331C4494F81C14A8
:102EF00037488FE294F89C2464235343E21892F8F5
:102F000012240C2101FB02331C44B4F81E14314876
:102F100080E294F89C2464235343E21892F812242C
:102F20000C2101FB02331C4494F81B3494F81A243E
:102F300094F819142848D0E094F89C34642202FBD9
:102F40000344264894F8D41364E200BFCCA70108D8
:102F500034240020E8C60108F4C6010805C70108AA
:102F60005DCD01080AC7010810C7010838C701086C
:102F700041C701084DC701081236002061C701088A
:102F80006FC7010880C701088FC701089EC70108E5
:102F9000B0230020AEC70108B8C70108800900208F
:102FA000C5C70108DEC70108E9C70108FCC7010859
:102FB00008C801081BC8010830C801083AC8010840
:102FC00044C8010851C801085EC8010868C8010862
:102FD00073C8010880C8010892C80108A1C8010887
:102FE00094F89C34642202FB0344CE4894F8E933FD
:102FF00094F8DF2394F8D5136FE094F89C3464229E
:1030000002FB0344C84894F8EA3394F8E02394F8A8
:10301000D61362E094F89C34642202FB0344C34854
:1030200094F8EB3394F8E12394F8D71355E094F82F
:103030009C34642202FB0344BD4894F8EC3394F8BA
:10304000E22394F8D81348E094F89C34642202FBFD
:103050000344B84894F8ED3394F8E32394F8D91373
:103060003BE094F89C34642202FB0344B24894F899
:10307000EE3394F8E42394F8DA132EE094F89C34B9
:10308000642202FB0344AD4894F8EF3394F8E5233F
:1030900094F8DB1321E094F89C34642202FB03448F
:1030A000A74894F8F03394F8E62394F8DC1314E07E
:1030B00094F89C34642202FB0344A24894F8DD1384
:1030C000A8E194F89C34642202FB03449E4894F8DF
:1030D000F23394F8E82394F8DE1312F0E4FD9BE158
:1030E00094F89C34642202FB0344984894F8F31348
:1030F00090E194F89C34642202FB0344B4F8F40396
:1031000013F090FE924913F0E1FE14F0BBF8014673
:1031100090487FE194F89C34642202FB0344B4F8A5
:10312000F60313F07FFE8A4913F0D0FE14F0AAF8DC
:10313000014689486EE194F89C34642202FB034402
:10314000B4F8F80313F06EFE814913F0BFFE14F0DB
:1031500099F8014681485DE194F89C34642202FBB1
:103160000344B4F8FA0313F05DFE794913F0AEFEA0
:1031700014F088F801467A484CE194F89C346422B3
:1031800002FB0344774894F8FC1343E194F89C3421
:10319000642202FB03447448B4F8FE133AE194F845
:1031A0009C34642202FB03447048B4F8001431E1FB
:1031B00094F89C34642202FB03446D48B4F8021472
:1031C00028E194F89C34642202FB0344694894F893
:1031D00004141FE194F89C34642202FB0344664803
:1031E00094F8051416E194F89C34642202FB03441D
:1031F000624894F806140DE194F89C34642202FBB2
:1032000003445F4894F8071404E194F89C34642262
:1032100002FB03445B4894F80814FBE094F89C34E8
:10322000642202FB0344584894F80914F2E094F82D
:103230009C34642202FB0344544894F80A14E9E0E5
:1032400094F89C34642202FB0344514894F80B1414
:10325000E0E094F89C34642202FB03444D4894F867
:103260000C14D7E094F89C34642202FB03444A48CF
:10327000B4F80E14CEE094F89C34642202FB0344AC
:103280004648B4F81014C5E094F826124448C1E04A
:1032900094F827124348BDE0B4F8DC114248B9E085
:1032A00094F8DF114148B5E094F8E00113F0BAFD5D
:1032B000274913F00BFE13F0E5FF01463C48A9E057
:1032C000B4F8E20113F0AEFD214913F0FFFD13F055
:1032D000D9FF014637489DE0B4F8E40113F0A2FDA0
:1032E0001B4913F0F3FD13F0CDFF0146324891E086
:1032F0001749D4F8F80113F0E9FD13F0C3FF0146B4
:103300002E4887E094F8D9112D4883E094F8EE1107
:103310002C487FE094F8ED112B487BE094F88D1257
:103320002A4877E0B2C80108C3C80108D5C8010817
:10333000E5C80108F5C8010805C9010816C9010852
:1033400027C9010839C9010829C9010843C9010869
:103350000000C84258C9010868C9010876C90108B7
:1033600088C901089EC90108ADC90108C9C9010879
:10337000DFC90108EEC9010805CA01081ECA010813
:1033800032CA010843CA01085DCA010878CA0108A7
:103390008DCA0108A4CA0108BBCA0108D0CA010825
:1033A000E6CA0108E2CA0108F2CA0108FECA010819
:1033B00010CB010823CB010834CB010849CB01080D
:1033C00057CB010867CB010878CB010888CB0108EF
:1033D00094F84E1291481DE094F84F12904819E06D
:1033E000B4F852128F4815E094F840128E4811E05C
:1033F00094F8E5108D480DE094F8E4108C4809E04D
:10340000B4F8E0108B4805E094F8EB118A4801E02D
:10341000A1688A4812F047FC6B6B01336B6348E08C
:10342000874B1B689B011BD5B5F84430854CBBB955
:10343000854BD4F8488045201F6812F059FB0E20B8
:1034400012F056FB404612F00EFC384612F00BFC10
:103450004FF48053A4F842300A23337009F04EFF32
:1034600009F028FE25E095F84C30002BF6D0744B7F
:103470001B689F01F2D409233370F1E7734B1A687C
:10348000AB6BC833934203D294F849457CB904E04E
:1034900012F09AFA0028F7D10BE0A86A09F018FB9D
:1034A00095F84D30AC62022B01D111F02FFD0123B4
:1034B000337012F073FA08B101233370644B1B7838
:1034C000072B05D110F0C0FF089BC01A614B588034
:1034D00000232B71604C13AD636828469847A046C3
:1034E000002800F050815A4A5A4F147807925B4ADC
:1034F0000023032C08BF52F823004FEA830108BFC2
:1035000027F8130035F913000133032B534E5050A5
:10351000EFD1534B51491A78084605F091F8514BB9
:103520001B88002B00F0CB804F4B504D1B6805F1E2
:103530000C041B78002705934A4BD8F814201B88ED
:1035400056F8270006934FF47A73B3FBF2F3C3EBFC
:10355000431203EB8203DB00069A9BB29A4202BF3E
:1035600000232B6023612B684FEA870A03442B60FA
:1035700013F058FC226902F10109B9F1010FC4F8F6
:10358000109004D1002360602060A36022E02268D4
:1035900009901146089213F08FFB8346484613F0BA
:1035A00041FC0146584613F045FD089A114613F0B8
:1035B00085FB099B014681466060184613F07CFB41
:1035C000594613F083FCA16813F078FBC4F800900F
:1035D000E060A060264A002346F80A304AF802302C
:1035E000069B012B5AD12069012807DD013813F011
:1035F00019FC0146E06813F01DFD00E0002014F006
:103600007DFE059B8146ABB3184613F00BFC494683
:1036100013F0FAFD70B304F0FFFF50E0A1CB0108F6
:10362000B5CB0108D2CB0108EFCB010804CC0108CF
:1036300019CC01082ECC010840CC01084ECC010861
:10364000482D002080090020DC3700202C110020AC
:1036500082100020841000203424002060130020F9
:103660001825002028100020A0150020D0090020D7
:10367000180A0020D8F814204FF47A73B3FBF2F341
:10368000C3EB431203EB8203DB002A689BB202EB1D
:10369000530292FBF3F3A44A42F80A300137032F96
:1036A00005F1040504F114047FF446AF9F4C208813
:1036B000012801D109F09EFB2388013B23809A4811
:1036C000002356F8232050F82310994C521A46F83C
:1036D00023200133032BF4D1964B974F1A78984649
:1036E000002A44D0DFF8A8B2DFF87C92002456F814
:1036F000240013F097FB914BA5001B8801462BB1CA
:103700001C2000FB04B012F00BFD0146079B1B7848
:10371000082B0DD1022C0BD07259084625F8092030
:10372000059114F02BFB05EB090A0599AAF8020094
:10373000834B1B78012B06D1824B1C2000FB0430ED
:1037400012F0EEFC0AE0804B80484FF00C0E1B6834
:1037500098F800200EFB040012F0CEFD7851785945
:1037600014F00CFB0134032C7051C0D10BE0206825
:1037700013F058FB3860606813F054FB7860A06861
:1037800013F050FBB860724A92F8C830144623B167
:10379000013B82F8C83000F03FBD6E4B93F8E0214A
:1037A0001E4622B193F8EA31013BDBB200E001236F
:1037B00084F8C83010F048FE674B684DD3F800809D
:1037C000674BB6F82A12A3F1460207462868C0479D
:1037D000644B1A781E46072A04D110F035FE624B5E
:1037E000C01B988010F030FE96F800A00690BAF149
:1037F000010F0AD15D49D4F8CC305B4A0968C31A7D
:1038000093805B1AD380C4F8CC00594B2A681B689C
:10381000E3B192F83140D4B1564A1268940718D5F2
:10382000554A1278012A14D9DB7854495A43098839
:10383000D31A994215B203DB91420B46A8BF134637
:103840002D031BB295FBF3F5012405E01C4625462C
:1038500002E001244FF48055494BDB780E932CB1E4
:10386000BDF954306B431B13ADF854304FF00008D2
:1038700046464746434BDFF81C911B780593424B65
:10388000B3F902200992B3F90020B3F904300A9287
:103890003E4A07931268344B0892059A97427BD2AE
:1038A00009980B9313F0BEFAD9F8081013F00EFB29
:1038B00083460A9813F0B6FAD9F8041013F006FB01
:1038C0000146584613F0FAF9089B834693F9000025
:1038D000079B4042584313F0A5FAD9F80C1013F097
:1038E000F5FA0146584613F0E9F913F0CBFC15AA96
:1038F00000B20B9B0CB16843001322F8170015AA05
:1039000032F91720B24203DC9045A8BF904600E090
:103910001646BAF1050F03D1042F98BF23F81720DC
:10392000013709F11009B8E7180A00202810002013
:10393000601300204C240020A414002054240020F4
:10394000AC240020B024002004250020240A0020FC
:1039500080090020BC3000208403002014130020C4
:10396000F432002082100020841000207013002008
:103970005C100020FC1000203C040020AC10002053
:10398000301100206F1300208C130020B41500208C
:1039900058240020500A0020864BC8EB06081A68FD
:1039A0000FFA88F812F4805308938349834C39D076
:1039B000834B84481B78B1F9066013F0040F01BFF4
:1039C00003681D8A804BA3F8905103687E481F8AC4
:1039D0007E4B1B68D9887D1AAE4205DCB3F9001016
:1039E0002368B3F9004008E039448E42734C07DB8A
:1039F0002168B3F90240B1F90210A0F8906118E013
:103A0000B0F990118D42ABBFB3F900102168236863
:103A1000B3F90240A7BFB3F900400E46B1F9021056
:103A2000264606E02368B1F90660B3F90040B3F911
:103A3000021089B2A4B20B1B1BB29845624819DD73
:103A40001F0397FBF8F70021C0F89471059D8D4284
:103A500009D90DF1540E3EF911507D432D132EF866
:103A600011500131F2E7022193FBF1F31C4424B21F
:103A70000B9408E0022398FBF3F8C8EB01014444DF
:103A80000BB224B20B93B0F990314C490D930F68EF
:103A90004C4B4B49D3F800A00D784C4B4C49D3F814
:103AA00000B0B1F9063005F004050C93059BDFF872
:103AB00038815B000F9302F01003EDB24FF0000964
:103AC00010930F9B99454CD015AA39F80220304627
:103AD000119213F0A7F93F4B53F8391013F0F6F990
:103AE00013F0D0FBA0422146119A04DB0B9B8342CA
:103AF000A8BF034619460A440E9B12B228F8022FAB
:103B00000BB1B98811E0089B73B1BAF81010BBF87B
:103B100006000D9B091A8B4203DC3988BBF80000B4
:103B200004E0BBF8021000E0398878888A4203DBA1
:103B300090420146A8BF1146109BA8F800106BB137
:103B400065B1089B53B909F02FF938B9BAF81220BA
:103B50000C9B9342BCBFBA88A8F8002009F1020967
:103B6000AFE715B91C4B1D4A06E0174B93F8982197
:103B7000192A00F2418108E00599A942F5D932F8E5
:103B8000151023F815100135F6E7012303FA02F2A8
:103B9000134B1340002B00F02F81124B1B88D805CC
:103BA00024D5054B1A88ADF86C205A889B88ADF84F
:103BB0006E2030E0FC10002050130020982F0020D1
:103BC0004C2D0020B815002080090020942F0020E3
:103BD00000110020500A0020D82E00205430002070
:103BE00032413003442D0020D62E0020BDF828306D
:103BF000ADF86C30BDF82430ADF86E30BDF81C3037
:103C0000ADF87030089B43B1BAF810300C9A9A4264
:103C100003DA079B5B42ADF87030AA484FF47A7222
:103C2000B0F902304FF4616103F5E163534393FB54
:103C3000F1F3A3F5FA73ADF88430B0F9003003F571
:103C4000E1635A4392FBF1F29F4BA2F5FA721B8893
:103C5000ADF88620A3F2DC53ADF872309B4B9C4A42
:103C60001B6811881B8AC91AADF874105188C91ACB
:103C7000ADF876109188C91AADF87810D188C91AB4
:103C8000ADF87A101189C91AADF87C105189C91A9A
:103C9000ADF87E109189D289C91AD31AADF8823055
:103CA0000023ADF8801019468A4A22F81310013318
:103CB000082BFAD1884B89491B68894D0593894B9C
:103CC000DFF810A21B684FF0640E0793864B4FF08D
:103CD00001091B78C3EBC303CB180A930A9B8B42E1
:103CE00070D00B782BB11533059A09FA03F3134002
:103CF00064D0079B11F806CC0E2202FB0C38B8F9F1
:103D00000230B8F9002011F9010C9A1A11F9023C9D
:103D100092B2534393FBFEF34FEA520B11F8057C2A
:103D2000CBEB0303099011F8030C1BB208937E0040
:103D300028B922A8064436F81C0C288019E022ABCA
:103D40001E44B5F9004036F91C6CB44208DA204430
:103D5000844203DC86423446A8BF04462C8008E037
:103D600007DD201AB04203DB8442A8BF0446264682
:103D70002E80D8F80A0009FA07F73842B5F9006032
:103D800011F9040C089B00FB06F090FBFEF00CBF41
:103D900001244FF0FF34984209DB099B5A4392FB00
:103DA000FEF2CBEB02031BB28342A8BF03463AF8F4
:103DB0001CB004FB03B32AF81C3000E02B80023552
:103DC00007318BE7474B494ED3F8008000254FF071
:103DD0000E09642709FB058393F9064036F9023F73
:103DE000E8B25C4394FBF7F4348010F061F90135DC
:103DF0002044082D3080EDD13D4EDFF8E880336857
:103E000013F0200F31D0002010F052F9314C05464C
:103E10002080012010F04CF92F4B60801B681906A0
:103E200023D5344B274A1B681B78012B23D1D8F8A4
:103E300000C0B2F902109CF906304FF0320E5B421E
:103E40004B4393FBFEF3B2F900209FB29CF9143070
:103E50006FF03101534393FBF1F193FBFEF33944CF
:103E6000691A3B44218018446080D8F800301F4A0A
:103E700003F1700419E0D8F80070B2F9023097F934
:103E800006105943322391FBF3F12944218097F91D
:103E90001450B2F9001001FB05F292FBF3F210444A
:103EA000E2E70E339C42118026D032F9020FB3F9BB
:103EB0000010B3F902508842F3DB85422946A8BFBF
:103EC0000146EEE758130020D82E0020B815002038
:103ED00000110020400C0020482D0020A32F0020BE
:103EE0001A0B0020143000209C2F00203E0C0020D4
:103EF000FC100020B0150020A54FA64D3B6893F99B
:103F00000430ABB995F8988108F1FF33182B00F213
:103F10009280DFE803F05090906B909090649090C6
:103F20009090907690909090906B839090765000C7
:103F3000A9460023DFF864B2A5F8BA31B5F9BA4151
:103F4000072CDFDC99F8BC21DFF87CA272B93A6853
:103F5000508812F063FF904A01461C20126800FB53
:103F600004A012F095F9012289F8BC213BF9140054
:103F700012F058FF01461C2000FB04A012F0D0F8FC
:103F800013F0FCFED8F800100E2202FB041200B25F
:103F90002BF81400B2F90010B2F90220884203DBBA
:103FA0008242A8BF024611467C4B23F8141001340C
:103FB000A5F8BA41C2E73B685B781BB1774B00209C
:103FC000598908E0764B1B7803F0040303F0FF01E6
:103FD000002BF3D1084604F0DDFE01242CE06F4CE9
:103FE0000020E18804F0D6FE218905E06B4C00201A
:103FF000218904F0CFFE6189012004F0CBFE022468
:104000001AE0664F0224A01E37F81410C0B2013423
:1040100004F0C0FE082CF6D106240DE05F4F032407
:10402000E01E37F81410C0B2013404F0B3FE072CC0
:10403000F6D1042400E0002433689A0602D4B8F1D3
:10404000050F0BD1554F2046398804F0A3FE601CA4
:104050007988C0B204F09EFE0234E4B23368DB0219
:1040600005D495F8A03273B10FF078FF0BE04D4FF7
:104070000026A01937F8021FC0B204F08BFE0D2EE7
:10408000EFD00136F5E7484B1B78072B05D110F030
:10409000DBF9069BC01A454BD88001232B71BBE08E
:1040A000434B1B885F063EF5C7AC3A4E414F96F82E
:1040B0002030834211D086F8200012F0B3FE3E4932
:1040C00012F004FF3D49804612F0F8FD11F0BAFFEE
:1040D0003860404611F0B6FF7062394BB3F900000A
:1040E00012F0A0FE364B0646B3F9040012F09AFE19
:1040F0003F6880463946304612F0E8FE6D6A8146D8
:104100002946404612F0E2FE0146484612F0D4FD30
:1041100013F0B8F8DFF8B490B0F5FA7FA8BF4FF409
:10412000FA704845B8BF4846254B41461880384686
:1041300012F0CCFE29460746304612F0C7FE014673
:10414000384612F0BBFD13F09DF8B0F5FA7FA8BF1A
:104150004FF4FA704845B8BF4846194B9880FEF7AF
:104160006BBC002DCCBF2846684212F05BFE814636
:1041700098F80000FEF784BC124FFEF7AEBC7879C9
:104180001B30684312F04EFE4FF07651FEF7B5BC7F
:10419000B41500208009002070130020400C00207E
:1041A0004C2D0020061100208210002084100020D9
:1041B000442D00200000002035FA8E3CDB0FC93F63
:1041C000501300200AD7233C400B00200CFEFFFFB9
:1041D000134912F02FFF1349054613F015F860B983
:1041E0001149284613F02EF800283EF499AC0E4DE4
:1041F000FEF796BC0D4DFEF793BC0A4DFEF790BC42
:1042000011F0E2FB00283FF454A94FF48053A5F8C5
:1042100042300A23FFF74CB923B0BDE8F08F00BF4E
:104220003333834000A0F9C400A0F94400F0FFC577
:104230002DE9F04F914BADB01D780093002D00F0AB
:10424000A7808F4B1868002801F00A8705F07EF8D8
:10425000DFF85C92DFF85C82D9F800000BF038F9E7
:10426000002801F0FD86D9F800000BF02EF909288E
:10427000844C01D03F2855D14FF0000A574655468F
:1042800026680AEB080B36B132465AF808107E4809
:1042900016F066F820B90DB15F4601E05D465F4655
:1042A0000AF1080ABAF5907FEBD1F5B1D5F800A074
:1042B000D7F800B0DFF8D0C123681AF803001BF864
:1042C0000310814211D15A1CDFF8BCE149B92D2BF2
:1042D00007D86C48026020200EF803000EF8021088
:1042E00003E00CF803002260E6E723680BB1BD424F
:1042F0000FD0664810F0B8FABD4207D855F8080B41
:1043000010F0B2FA092010F035F9F5E70EF03CF99B
:1043100000265D4D23689E429ED2A85D10F02AF9CA
:104320000136F7E723686BB9042804D1564806F034
:1043300063F801F095BE0C2841F08E86544810F0C9
:1043400093FA22E00C28F9D00A2841F039864E4E23
:10435000504810F089FA2321304615F0F2FF354617
:1043600008B1801B206023680022002B41F02C86BE
:10437000002A41F0448630220021434815F0ACFF6A
:10438000009B1B78002B01F06B860EF0FDF863E7B5
:10439000414B03F13007414BEA18EB58002B01F079
:1043A00054803F4C3F4922603F4A26468946924608
:1043B0000B60059300238DF819303C4814238DF8C9
:1043C000183004AB04920360D9F80000DFF8D48001
:1043D0000BF07EF8002801F02480D8F800000BF0E4
:1043E00074F83368834693F8481019B9242863D1C8
:1043F00001221DE0012903D14D2808BF022204E05B
:10440000022907D13C2808BF032218BF002283F8E5
:10441000482085E003290ED140284FF0000102D941
:1044200083F84810D0E758711971D9719871042236
:1044300083F84820C8E7042907D1997983F849000F
:1044400080EA01029A710522F2E7052968D15879BC
:1044500019798842987908D98BEA00009871481C2C
:1044600018710B4483F808B0AEE7584503D1062213
:1044700083F848205AE00022DAE700BF0C1300203E
:104480005030002008130020D81200202ECD010843
:1044900033CD010808E20108ECA70108243600200A
:1044A0006C2D0020742D0020DDF40008702D0020FC
:1044B0006C300020E8C40108BF490B7803F0040306
:1044C00003F0FF0E002B7FF47FAF23281DD1009A4D
:1044D0000123D8F800001370B84B01911860B84B55
:1044E0001860B84B586010201872B748C3F800A085
:1044F000036083F809E0B54810F0B6F90EF044F80F
:1045000001990B7843F002030B70B14B1B681B78C9
:104510005B4505D1AF4BB04A1A60B04BB04ADA6088
:10452000336893F84820062A7FF44EAF93F8498009
:10453000B8F1520F00F0838600F2D880B8F1340F42
:1045400000F04B8467D8B8F1240F00F0D1842DD847
:10455000B8F1040F00F0378215D8B8F1020F00F05F
:10456000188200F22582B8F1010F40F09F870320E6
:104570000DF018FB00200DF0D0FA40460DF0CDFAFA
:10458000142000F02ABFB8F10A0F00F05782B8F1EA
:10459000220F00F00184B8F1050F40F087871A2040
:1045A0000DF000FB0026DFF854821DE2B8F12C0F5D
:1045B00000F0F4841BD8B8F1280F00F0D684B8F1CD
:1045C0002A0F00F0E584B8F1260F40F06F87854E82
:1045D00006200DF0E7FAB6F8CC010DF0E6FAB6F8D1
:1045E000D0010DF0E2FAB6F8D40100F0F3BEB8F154
:1045F000300F00F08985B8F1320F00F02D85B8F149
:104600002E0F40F05387774E40200DF0CBFA06F185
:10461000400800F069BDB8F1450F00F0158636D8A6
:10462000B8F13B0F00F0B18319D8B8F1380F00F0A2
:104630008984B8F13A0F00F02483B8F1360F40F0C6
:104640003587694B674E187806F12808C0EBC00023
:10465000C0B20DF0A7FADFF8A89100F041BDB8F1A3
:10466000400F00F00085B8F1420F00F00C85B8F162
:104670003D0F40F01B875B4E02200DF093FA96F839
:104680008F020DF04AFA96F88E0200F0A6BEB8F13D
:104690004B0F00F0AE8410D8B8F1470F00F08985B9
:1046A000C0F07385B8F1490F40F0008702200DF08B
:1046B00079FA4E4B988A00F08DBEB8F14F0F00F09A
:1046C000B185B8F1500F00F09B85B8F14D0F40F067
:1046D000ED86474EDFF82C8130784FF0000900EB73
:1046E0004000C0B20DF05EFA00F09EBCB8F1700F51
:1046F00000F0238300F28A80B8F1660F00F0DA81BF
:104700002CD8B8F15E0F00F02C860DD8B8F15A0FF6
:1047100000F0E785B8F15C0F00F00286B8F1540FA5
:1047200040F0C48600F08BBDB8F1640F00F07681D4
:1047300000F29681B8F1600F40F0B886294E032050
:104740000DF030FA96F8D9010DF0E7F996F8EE0180
:104750000DF0E3F996F8ED0100F03FBEB8F16C0FF3
:1047600000F07F8216D8B8F1680F00F06182C0F0C7
:10477000CE81B8F1690F40F09986DFF87480002689
:1047800098F80000DFF88090400000F0FE000DF087
:1047900009FA5BE2B8F16E0F00F0788200F29B82BA
:1047A00006200DF0FFF9134B18680DF007FA124BB5
:1047B000188800F00FBE00BF4C2D00206C30002088
:1047C00064150020240C0020503000205ECD01082C
:1047D00024250020F04F0020EFBEADDE00ED00E00C
:1047E0000400FA05BC3000203015002034240020DD
:1047F000E836002024380020E40D002041C70108DD
:10480000282500201433002000110020B8F17D0F6E
:1048100000F03D855BD8B8F1750F00F0AA823ED854
:10482000B8F1730F00F03D8300F2AE80B8F1720F63
:1048300040F03C86D74E16200DF0B4F9B6F8480289
:104840000DF0B3F9B6F8D0000DF0AFF9B6F8D2001C
:104850000DF0ABF9B6F8D4000DF0A7F9B6F89C024C
:104860000DF0A3F900200DF058F900200DF055F9D6
:1048700000200DF052F996F823020DF04EF996F84B
:1048800044020DF04AF900200DF047F9B6F9F03175
:104890000A2093FBF0F080B20DF087F956E3B8F1EF
:1048A000780F00F04381B8F17C0F00F0E184B8F19B
:1048B000770F40F0FB85DFF80C83002698F80000A6
:1048C0000DF070F9DFF800A3DFF80093DFE2B8F134
:1048D000A00F00F0FF823FD8B8F17F0F00F02184D5
:1048E000C0F0F084B8F1960F40F0E0850F200DF095
:1048F00059F9A94B18880DF058F9A84B188880B2BF
:104900000DF053F9A64B1B68C3F3C000C3F380023C
:10491000800040EA4200C3F340021043C3F3401258
:1049200040EAC20003F0100318430DF03EF90DF009
:1049300021F80DF043F9974B93F89C040DF0EDF836
:10494000984B18886428A8BF64200DF02EF9022027
:104950000DF0E3F8944B1DE2B8F1F10F00F0428145
:10496000B8F1FE0F00F0A882B8F1F00F40F09E857C
:10497000884E04200DF016F9B6F8F4010DF015F983
:10498000B6F8F20100F026BD4FF000094FF0010B20
:104990004FE204200DF006F9DFF83482002618F803
:1049A000060001360DF0B9F8042EF8D100F033BD41
:1049B00003200DF0F7F803200DF0AFF800200DF004
:1049C000ACF800F03FBC06200DF0ECF8DFF80482F4
:1049D000002618F8060001360DF09FF8042EF8D1D5
:1049E000724B187800F0F6BC18F8060001360DF08E
:1049F00094F80B2EF8D1DFF8E081002618F80600B5
:104A000001360DF08AF8082EF8D100260020013674
:104A10000DF083F8072EF9D100F0FDBC07200DF052
:104A2000C1F8E7200DF079F85A4B58790DF075F878
:104A300000200DF072F8042000F017BC5C4811F063
:104A40008DFC5FFA80F840460DF0ACF8594EB0444A
:104A5000B04500F0E08416F8010F0DF05EF8F7E7BE
:104A60000B200DF09FF84C4B18880DF09EF84B4B27
:104A7000188880B20DF099F8494B1B68C3F3C00049
:104A8000C3F38002800040EA4200C3F340021043B7
:104A9000C3F3401240EAC20003F0100318430DF0C4
:104AA00084F80CF067FF0DF089F83A4B93F89C04FA
:104AB00000F093BC12200DF075F83F4BDFF81C910D
:104AC0001B890026B3F5007F94BF4FF001084FF01B
:104AD000040859F82600013690FBF8F080B20DF07A
:104AE00064F8032EF5D1354E30880DF05EF8B088AD
:104AF0000DF05BF83089324E0DF057F830880DF02C
:104B000054F8B0880DF051F8308900F063BC1020E3
:104B10000DF048F8DFF8C880002618F806000136C6
:104B20000CF0FBFF102EF8D100F075BC194E702070
:104B30000DF038F8B0464FF0000A4FF00E09B6F805
:104B400056010DF032F8B6F858010DF02EF8B6F80F
:104B50005A010DF02AF896F85C010CF0DEFF96F889
:104B60005D010CF0DAFF96F85E010CF0D6FF96F8C6
:104B70005F010CF0D2FF09FB0A830AF1010AD3F8A6
:104B800060010DF01BF8BAF1080F06F10E06D6D140
:104B900000F041BCBC300020922B0020B830002037
:104BA0002C240020880E00203C2D0020AD23002066
:104BB0001236002011360020B023002060130020A0
:104BC000543800204D2D00204E2D0020ECA7010868
:104BD00096CD01089BCD010838C70108D80D0020EB
:104BE000400C002070200CF0DDFFC44E06F1700870
:104BF00096F8E6000CF091FF96F8E7000CF08DFFB8
:104C000096F8E8000CF089FF96F8E9000CF085FFB3
:104C100096F8EA000CF081FF96F8EB000CF07DFFAF
:104C2000073696F8E5000CF078FFB045E0D1F2E3E6
:104C300010200CF0B7FFDFF80483002618F80600F8
:104C400001360CF06AFF102EF8D1E4E398F800303A
:104C50009E4280F0E08339F816000CF0A6FF013682
:104C6000F4E7A74E06200CF09DFF30880CF09DFF66
:104C700070880CF09AFFB6F904300A2093FBF0F02C
:104C800024E004200CF08EFF9E4B2FE107200CF057
:104C900089FF9D4B1888FF28A8BFFF20C0B20CF0E9
:104CA0003CFF9A4B186880F3100080B20CF07DFF37
:104CB000974B18880CF079FF904B93F82322954B73
:104CC00018682AB10A23584380F3100080B281E3A8
:104CD00000F30F00FAE7904E0C200CF063FF3368EE
:104CE000B04618780CF019FF33684FF00009987837
:104CF0000CF013FFD8F80030874E4B44587909F177
:104D000001090CF00AFFB9F1030FF3D13368187AE7
:104D10000CF003FF3368D8780CF0FFFE3368187985
:104D20000CF0FBFE336858890CF03FFF3368587A6B
:104D30000CF0F3FE336858784FE31E200CF032FF7E
:104D4000DFF8DC810026D8F80030334458780CF0C6
:104D5000E4FED8F800303344D87A0CF0DEFED8F800
:104D600000303344587D01360CF0D7FE0A2EEAD1CC
:104D700051E32F200CF016FF684E16F8010F0028A3
:104D800000F049830CF0C9FEF7E701200CF00AFFA0
:104D9000634B1B68187820E350200CF003FF574E3C
:104DA0004FF00C0906F150085E4A96F89D3404361F
:104DB00009FB032393F838000CF0AFFE96F89A0431
:104DC0000CF0ABFE96F89B040CF0A7FE96F89C0442
:104DD0000CF0A3FEB045E7D11DE35A200CF0E2FE33
:104DE000464E06F15A0896F8F2040CF096FE96F834
:104DF000ED040CF092FE96F8EE040CF08EFE96F8A0
:104E0000EF040CF08AFE96F8F0040CF086FE0636ED
:104E100096F8EB040CF081FE4645E4D1FBE2BBF1D1
:104E2000000F00F0F8825FFA89F00CF0BBFE4FF043
:104E3000000B00263C4B1B789E42F0DA3B4B0021D6
:104E4000F05C4FF00C0E0EFB01F313F807C0844525
:104E500003D001311F29F6D10CE0324A1344D3F8B4
:104E600034A0504611F07AFA0146BBF1000F00F071
:104E7000F28289440136DDE700FB02F313F807E014
:104E80008E4500F0F58201321F2AF5D1013698F8DF
:104E900000309E4280F0BF8216F80A1000220C20DB
:104EA000EAE708200CF07EFE0126F0B201360CF095
:104EB00034FE092EF9D1AEE208200CF073FEDFF8C3
:104EC0008080002638F8160001360CF06EFE042EA5
:104ED000F8D1A0E20C200CF065FE154B18680CF020
:104EE0006DFE144B18680CF069FE134B1868BCE19A
:104EF00004200CF057FE014B9868B6E1BC3000204E
:104F000058130020FC370020AC1000206010002057
:104F1000A0390020F80D0020D4120020EBA70108D2
:104F200014130020ECA701084D2D00204E2D002069
:104F3000E8F7FF1FECF7FF1FF0F7FF1FD82E002048
:104F40008410002004200CF02DFEDA4E96F8160294
:104F50000CF0E3FD96F81A020CF0DFFD96F819024A
:104F60000CF0DBFD96F81B0237E2D24E07200CF066
:104F700019FEB6F81E020CF018FEB6F820020CF06E
:104F800014FE96F822020CF0C8FDB6F8240221E2C5
:104F900001200CF007FEC74B58791EE2C54E1020C9
:104FA0000CF000FE96F840020CF0B7FDB6F84C028B
:104FB0000CF0FBFDB6F848020CF0F7FDB6F84A021B
:104FC0000CF0F3FD96F842020CF0A7FDB6F854027F
:104FD0000CF0EBFDB6F856020CF0E7FD96F84E0229
:104FE0000CF09BFD96F84F020CF097FDB6F85202BC
:104FF000F0E1B04E08200CF0D5FD96F89A020CF0C6
:105000008CFD96F89B020CF088FDB6F89C020CF023
:10501000CCFD96F89E020CF080FDB6F8A0020CF0D4
:10502000C4FD96F8A202D8E1337808F10208994548
:1050300080F0F18118F8020C0CF06FFD18F8010CEB
:1050400009F1010900EB800000EB800000F2EE2086
:1050500080B20CF0AAFDE7E701200CF0A3FD954B10
:1050600093F84402B9E108200CF09CFDDFF844827B
:10507000002606EB080393F8380201360CF04DFDCC
:10508000082EF6D1C7E18B4E10200CF08BFD707905
:105090000CF043FDB0680CF091FD96F840020CF066
:1050A0003CFDB6F8CC010CF080FDB6F8D0010CF058
:1050B0007CFDB6F8D4010CF078FDB6F81E020CF0B9
:1050C00074FDB6F8200285E113F90920824200F050
:1050D000D5810C333C2BF7D10836B04500F09B81CD
:1050E00096F9A6020023EFE7B6F864030CF05DFD25
:1050F00096F866030CF011FD043696F863030CF085
:105100000CFDB045F0D186E180200CF04BFD6A4EDD
:1051100006F1800856F8040F0CF050FDB045F9D1A7
:1051200079E18D200CF03EFD00264FF0060A0AFBC7
:1051300006F94FF0000B5FFA86F840460CF0EDFCE4
:105140005FFA8BF00CF0E9FC5A4B0BEB09011944A8
:1051500091F8A4030BF1010B0CF0DFFCBBF1060F7F
:10516000EBD10136062EE2D1002606200CF0D5FC4C
:10517000F0B20CF0D2FC4F4B334493F8C803013625
:105180000CF0CBFC0B2EF0D145E10D200CF00AFD0C
:1051900006F0BAFC494E40F00200C0B20CF0BDFC73
:1051A00030880CF00BFDF0680CF008FD08F06CFB8B
:1051B0005BE00CF0A9FC064684200CF0F3FC3046C2
:1051C0000CF0FCFC3D4B0DF13008DA6806F1800371
:1051D00093428CBFC6EB02094FF0800908F038F803
:1051E0004A463046414606F069FD814600264E4556
:1051F00080F2118118F806000CF08FFC0136F6E7FA
:105200002C4E04200CF0CEFC01200CF086FC96F80D
:1052100049050CF082FC96F847050CF07EFC96F8E8
:105220004805DAE00B200CF0BDFC00200CF075FC0A
:1052300000200CF072FC00200CF06FFC11E001204B
:105240000CF0B0FC0020C8E013200CF0ABFCDFF841
:105250007080002618F8060001360CF05EFC0B2E5C
:10526000F8D100200CF0AAFC00200CF0A7FCD2E042
:10527000104E06200CF096FCB6F8D8000CF095FC09
:10528000B6F8DA000CF091FCB6F8DC00A2E0094EAA
:1052900005200CF087FC96F826020CF03EFC96F8F0
:1052A00027020CF03AFC96F828020CF036FCB6F80F
:1052B000DE008FE0BC3000209C3300206003002023
:1052C00041C70108C94E03200CF06CFC96F8C701D9
:1052D0000CF023FC96F8C8010CF01FFC96F8C901ED
:1052E0007BE0C24E06200CF05DFCB6F8DC3123B149
:1052F00008200CF012FC012005E096F8DE010CF00D
:105300000CFC96F8EA010CF008FC96F8E5000CF0AD
:1053100004FC96F8E4000CF000FCB6F8E00059E05C
:10532000DFF8C882B24E0D200CF03CFC98F8E0018A
:105330000CF0F3FB3368188C0CF037FC3368588C96
:105340000CF033FCB8F8E2010CF02FFCB8F8E401E3
:105350000CF02BFC3368988C0CF027FC3368D88C4D
:1053600038E0A34E11200CF01DFC3368588D0CF072
:105370001CFC3368988D0CF018FC3368D88D0CF049
:1053800014FC336893F828000CF0C7FB336893F8DB
:1053900031000CF0C2FB336893F837000CF0BDFB12
:1053A000336893F838000CF0B8FB336893F8330097
:1053B0000CF0B3FB336893F834000CF0AEFB3368A9
:1053C00093F836000CF0A9FB3368988F0CF0EDFBD6
:1053D0003368588F0CF0E9FB1DE00CF09EFB1AE0DF
:1053E00040F22C84B8F1D00F00F04684B8F1D20F0F
:1053F00040F016810CF072FB020600F14A847D4BEE
:105400001B785B0704D4022828BF002004F0A8F80A
:1054100000200CF0C7FB0CF091FB2368002283F8FE
:105420004820754B754C186803F090FF94F82C30A9
:105430005BB1734B585907F023FB0FF02CF8002396
:1054400084F82C306F4A704BDA604C35982D00F0A0
:105450000786FEF7A0BFD046CAEB08008842BFF619
:1054600009AD18F8010B01910CF057FB0199F3E716
:105470004B4493F838000CF050FB07E5C0B20CF039
:105480004CFBB6F8A8020CF090FB96F8AA020CF0C0
:1054900044FB96F8AB020CF040FB96F8AD020CF022
:1054A0003CFB96F8AC020CF038FB15E6B8F15B0F4C
:1054B00015D10CF013FB4D4E86F8DE010CF00EFBFF
:1054C00086F8EA010CF00AFB86F8E5000CF006FB12
:1054D00086F8E4000CF00EFBA6F8E00098E700F276
:1054E0006082B8F1370F32D15B794FF00708B3FB18
:1054F000F8F8C8EBC8029B1A13F0FF0F02D00BF0AC
:1055000097FD85E75FFA88F8B8F1000F80D00CF0BE
:10551000E5FA4FFA80F9484607F044FB06460028B2
:10552000EDD080F800900CF0E5FA70800CF0D6FA1F
:1055300030710CF0D3FA70710CF0D0FAF0710CF0FD
:10554000CDFA08F1FF385FFA88F8B071DCE700F2B5
:105550002881B8F12B0F04D10CF0C0FA234B5871FD
:1055600056E700F28680B8F1250F08D11F4E0023C0
:10557000B3600CF0C9FAB3681843B06048E752D87A
:10558000B8F10B0F19D111220021204814F0A4FE0C
:10559000DFF858904FF0000833685B79102B28BF74
:1055A00010239845BFF434AF0CF098FA08EB0903C8
:1055B00083F8560508F10108EEE7B8F1230F2FD163
:1055C0000CF08CFA1328064699D80CF087FA0022C2
:1055D0000C2101FB02F307EB030E9EF808E0864561
:1055E00000F0C98401321F2AF3D188E7BC300020C3
:1055F000141300204C2D0020702D0020240C0020BE
:10560000243600200400FA0500ED00E012360020E8
:10561000B8F1FA0F04D1CD4B1B785A0740F1338310
:105620000BF006FDF7E6B8F1270F0DD10CF062FA8A
:10563000C74EC6F8CC010CF05DFAC6F8D0010CF0EC
:1056400059FAC6F8D401E3E6B8F1290FE8D10CF015
:1056500051FABF4EA6F81E020CF04CFAA6F8200232
:105660000CF03CFA86F822020CF044FAA6F8240268
:10567000CEE6B8F1310F14D10CF030FA1F280646EF
:105680003FF63DAF23685B79052B7FF438AF0CF014
:105690003BFAAF4B03EB8603C3F8E40210F0F6F8D5
:1056A000B6E64BD8B8F12D0F32D10CF017FAA84E50
:1056B00086F840020CF01EFAA6F84C020CF01AFA1A
:1056C000A6F848020CF016FAA6F84A020CF006FA00
:1056D000236886F842025B79082B07D90CF00AFA96
:1056E000A6F854020CF006FAA6F8560223685B7975
:1056F0000C2B7FF68DAE0CF0F1F986F84E020CF013
:10570000EDF986F84F020CF0F5F9A6F852027FE6A3
:10571000B8F12F0F84D18E4E06F140080CF0EAF953
:10572000A6F864030CF0DAF986F866030CF0D6F9F3
:10573000043686F863034645F0D169E6B8F1330FC5
:1057400005D10CF0CBF9824B83F8440260E6B8F146
:10575000350F7FF465AF0CF0C1F90E2880463FF697
:10576000CEAE0CF0BBF903283FF6C9AE784B062647
:1057700006FB083686F8F2040CF0B0F986F8ED0462
:105780000CF0ACF986F8EE040CF0A8F986F8EF04FA
:105790000CF0A4F986F8F0040CF0A0F986F8F104F6
:1057A00036E6B8F1440F04D16A4B012283F82C206D
:1057B0002EE672D8B8F13E0F09D10CF08FF9644E85
:1057C00086F88F020CF08AF986F88E0220E62CD833
:1057D000B8F1390F11D10CF081F95D4E86F816023F
:1057E0000CF07CF986F81A020CF078F986F81902A8
:1057F0000CF074F986F81B020AE6B8F13C0F7FF44E
:105800000FAF554ED6F800800CF068F90128A8BFFC
:10581000012088F8000033681B78012B18BF4F4A1D
:105820004F4B08BF4F4A1A60F2E5B8F1410F0CD157
:10583000DFF81C8100260CF051F906EB0803013655
:10584000082E83F83802F6D1E2E5B8F1430F7FF471
:10585000E7AE0CF043F93E4E0023B36070710CF0DC
:1058600053F9B3681843B0600CF038F986F8400279
:105870000CF040F9C6F8CC010CF03CF9C6F8D001A8
:105880000CF038F9C6F8D4010CF034F9A6F81E0271
:105890000CF030F9A6F82002BAE5B8F14C0F19D196
:1058A0000CF01CF92A4E86F89A020CF017F986F8CB
:1058B0009B020CF01FF9A6F89C020CF00FF986F879
:1058C0009E020CF017F9A6F8A0020CF007F986F872
:1058D000A2029DE513D8B8F1480F09D106F018FAD5
:1058E000214A00231370214A1370214A13608FE567
:1058F000B8F14A0F7FF494AE0CF0FCF888E5B8F1EB
:105900004E0F37D10CF0EAF8112880463FF6F7AD7C
:105910000CF0E4F80E4E08F5967806F818000CF036
:10592000E9F840F2ED23984205DD40F6CA039842BB
:10593000A8BF184601E040F2EE20A0F2EE201923A5
:1059400090FBF3F006EB4806707061E54C2D0020EB
:10595000BC300020240C0020141300209DBF000840
:1059600084030020C5C200080D1300200E13002080
:1059700010130020B8F1510F7FF452AEDC4B1B78AE
:10598000012B3FF645AD0CF0A9F8DA4E86F8490533
:105990000CF0A4F886F847050CF0A0F886F8480546
:1059A00036E5B8F1D30F04D10CF0A4F8D24B18802F
:1059B0002EE500F27781B8F1CC0F51D15B79092B3C
:1059C0007FF69DADCD4ED6F800800CF087F888F8B4
:1059D0000000D6F800800CF081F888F802000CF086
:1059E0007DF833686428A8BF642058710CF076F8FD
:1059F00033686428A8BF642098710CF06FF833688E
:105A0000FF28A8BFFF20D8710CF068F8D6F80080F6
:105A1000642828BF642088F808000CF05FF888F834
:105A20000300D6F800800CF059F888F80400D6F886
:105A300000800CF05FF82368A8F80A005B790A2B55
:105A400005D9D6F800800CF049F888F809002368D9
:105A50005B790B2B7FF6DCAC36680CF03FF873E714
:105A600000F2B280B8F1610F0DD10CF037F8A14E01
:105A700086F8D9010CF032F886F8EE010CF02EF819
:105A800086F8ED01C4E479D8B8F15D0F2AD10CF0A5
:105A900025F89B4EDFF85C82D6F8009088F8E0018C
:105AA0000CF028F8A9F82000D6F800900CF022F8A5
:105AB0002368A9F822005B79052B7FF6A9AC0CF0CE
:105AC00019F8A8F8E2010CF015F8A8F8E401D6F8E6
:105AD00000800CF00FF8A8F8240036680CF00AF8E3
